{"abi":[{"type":"constructor","inputs":[],"stateMutability":"payable"},{"type":"function","name":"deleteFile","inputs":[{"name":"fileKey","type":"bytes32","internalType":"bytes32"}],"outputs":[],"stateMutability":"nonpayable"},{"type":"function","name":"downloadFile","inputs":[{"name":"fileKey","type":"bytes32","internalType":"bytes32"},{"name":"start","type":"uint256","internalType":"uint256"},{"name":"limit","type":"uint256","internalType":"uint256"}],"outputs":[{"name":"","type":"bytes[]","internalType":"bytes[]"}],"stateMutability":"view"},{"type":"function","name":"getFileInfo","inputs":[{"name":"fileKey","type":"bytes32","internalType":"bytes32"}],"outputs":[{"name":"","type":"tuple","internalType":"struct Info","components":[{"name":"owner","type":"address","internalType":"address"},{"name":"hash","type":"bytes32","internalType":"bytes32"},{"name":"contentLen","type":"uint64","internalType":"uint64"},{"name":"totalChunks","type":"uint64","internalType":"uint64"},{"name":"expireTime","type":"uint64","internalType":"uint64"},{"name":"name","type":"string","internalType":"string"},{"name":"ext","type":"string","internalType":"string"},{"name":"status","type":"uint8","internalType":"enum FileStatus"},{"name":"contentDisposition","type":"string","internalType":"string"},{"name":"contentID","type":"string","internalType":"string"}]}],"stateMutability":"view"},{"type":"function","name":"getFileKeyFromName","inputs":[{"name":"names","type":"string[]","internalType":"string[]"}],"outputs":[{"name":"","type":"bytes32[]","internalType":"bytes32[]"}],"stateMutability":"view"},{"type":"function","name":"getFileProgress","inputs":[{"name":"fileKey","type":"bytes32","internalType":"bytes32"}],"outputs":[{"name":"","type":"tuple","internalType":"struct FileProgress","components":[{"name":"lastChunkHash","type":"bytes32","internalType":"bytes32"},{"name":"processedChunks","type":"uint64","internalType":"uint64"},{"name":"processedLength","type":"uint64","internalType":"uint64"}]}],"stateMutability":"view"},{"type":"function","name":"getFilesInfo","inputs":[{"name":"fileKeys","type":"bytes32[]","internalType":"bytes32[]"}],"outputs":[{"name":"infos","type":"tuple[]","internalType":"struct Info[]","components":[{"name":"owner","type":"address","internalType":"address"},{"name":"hash","type":"bytes32","internalType":"bytes32"},{"name":"contentLen","type":"uint64","internalType":"uint64"},{"name":"totalChunks","type":"uint64","internalType":"uint64"},{"name":"expireTime","type":"uint64","internalType":"uint64"},{"name":"name","type":"string","internalType":"string"},{"name":"ext","type":"string","internalType":"string"},{"name":"status","type":"uint8","internalType":"enum FileStatus"},{"name":"contentDisposition","type":"string","internalType":"string"},{"name":"contentID","type":"string","internalType":"string"}]}],"stateMutability":"view"},{"type":"function","name":"lockFile","inputs":[{"name":"fileKey","type":"bytes32","internalType":"bytes32"}],"outputs":[],"stateMutability":"nonpayable"},{"type":"function","name":"mKeyToFileInfo","inputs":[{"name":"","type":"bytes32","internalType":"bytes32"}],"outputs":[{"name":"info","type":"tuple","internalType":"struct Info","components":[{"name":"owner","type":"address","internalType":"address"},{"name":"hash","type":"bytes32","internalType":"bytes32"},{"name":"contentLen","type":"uint64","internalType":"uint64"},{"name":"totalChunks","type":"uint64","internalType":"uint64"},{"name":"expireTime","type":"uint64","internalType":"uint64"},{"name":"name","type":"string","internalType":"string"},{"name":"ext","type":"string","internalType":"string"},{"name":"status","type":"uint8","internalType":"enum FileStatus"},{"name":"contentDisposition","type":"string","internalType":"string"},{"name":"contentID","type":"string","internalType":"string"}]},{"name":"progress","type":"tuple","internalType":"struct FileProgress","components":[{"name":"lastChunkHash","type":"bytes32","internalType":"bytes32"},{"name":"processedChunks","type":"uint64","internalType":"uint64"},{"name":"processedLength","type":"uint64","internalType":"uint64"}]}],"stateMutability":"view"},{"type":"function","name":"mNameToFileKey","inputs":[{"name":"","type":"string","internalType":"string"}],"outputs":[{"name":"","type":"bytes32","internalType":"bytes32"}],"stateMutability":"view"},{"type":"function","name":"owner","inputs":[],"outputs":[{"name":"","type":"address","internalType":"address"}],"stateMutability":"view"},{"type":"function","name":"pushFileInfo","inputs":[{"name":"info","type":"tuple","internalType":"struct Info","components":[{"name":"owner","type":"address","internalType":"address"},{"name":"hash","type":"bytes32","internalType":"bytes32"},{"name":"contentLen","type":"uint64","internalType":"uint64"},{"name":"totalChunks","type":"uint64","internalType":"uint64"},{"name":"expireTime","type":"uint64","internalType":"uint64"},{"name":"name","type":"string","internalType":"string"},{"name":"ext","type":"string","internalType":"string"},{"name":"status","type":"uint8","internalType":"enum FileStatus"},{"name":"contentDisposition","type":"string","internalType":"string"},{"name":"contentID","type":"string","internalType":"string"}]}],"outputs":[{"name":"fileKey","type":"bytes32","internalType":"bytes32"}],"stateMutability":"nonpayable"},{"type":"function","name":"pushFileInfos","inputs":[{"name":"infos","type":"tuple[]","internalType":"struct Info[]","components":[{"name":"owner","type":"address","internalType":"address"},{"name":"hash","type":"bytes32","internalType":"bytes32"},{"name":"contentLen","type":"uint64","internalType":"uint64"},{"name":"totalChunks","type":"uint64","internalType":"uint64"},{"name":"expireTime","type":"uint64","internalType":"uint64"},{"name":"name","type":"string","internalType":"string"},{"name":"ext","type":"string","internalType":"string"},{"name":"status","type":"uint8","internalType":"enum FileStatus"},{"name":"contentDisposition","type":"string","internalType":"string"},{"name":"contentID","type":"string","internalType":"string"}]}],"outputs":[{"name":"","type":"bytes32[]","internalType":"bytes32[]"}],"stateMutability":"nonpayable"},{"type":"function","name":"renewTime","inputs":[{"name":"fileKey","type":"bytes32","internalType":"bytes32"},{"name":"_newExpireTime","type":"uint64","internalType":"uint64"}],"outputs":[],"stateMutability":"nonpayable"},{"type":"function","name":"service","inputs":[],"outputs":[{"name":"","type":"address","internalType":"address"}],"stateMutability":"view"},{"type":"function","name":"setService","inputs":[{"name":"_service","type":"address","internalType":"address"}],"outputs":[],"stateMutability":"nonpayable"},{"type":"function","name":"uploadChunk","inputs":[{"name":"fileKey","type":"bytes32","internalType":"bytes32"},{"name":"chunkData","type":"bytes","internalType":"bytes"},{"name":"chunkHash","type":"bytes32","internalType":"bytes32"}],"outputs":[],"stateMutability":"nonpayable"},{"type":"function","name":"uploadChunks","inputs":[{"name":"fileKey","type":"bytes32","internalType":"bytes32"},{"name":"chunkDatas","type":"bytes[]","internalType":"bytes[]"},{"name":"chunkHashes","type":"bytes32[]","internalType":"bytes32[]"}],"outputs":[],"stateMutability":"nonpayable"},{"type":"event","name":"ChunkUploaded","inputs":[{"name":"fileKey","type":"bytes32","indexed":true,"internalType":"bytes32"},{"name":"chunkIndex","type":"uint256","indexed":false,"internalType":"uint256"}],"anonymous":false},{"type":"event","name":"FileAdded","inputs":[{"name":"fileKey","type":"bytes32","indexed":true,"internalType":"bytes32"},{"name":"name","type":"string","indexed":false,"internalType":"string"},{"name":"contentLen","type":"uint64","indexed":false,"internalType":"uint64"}],"anonymous":false},{"type":"event","name":"FileDeleted","inputs":[{"name":"fileKey","type":"bytes32","indexed":true,"internalType":"bytes32"}],"anonymous":false},{"type":"event","name":"FileLocked","inputs":[{"name":"fileKey","type":"bytes32","indexed":true,"internalType":"bytes32"}],"anonymous":false}],"bytecode":{"object":"0x6080604052600380546001600160a01b03191633179055612b76806100256000396000f3fe608060405234801561001057600080fd5b506004361061010b5760003560e01c80639b26b2a8116100a2578063d598d4c911610071578063d598d4c91461025a578063eb070e7e1461026d578063edff13af1461028d578063f25671c4146102b8578063fab91940146102cb57600080fd5b80639b26b2a8146101f2578063bf8bdac114610205578063c652793d14610218578063ca7e3cd41461023957600080fd5b80636ab799f1116100de5780636ab799f1146101815780636e0c19b1146101945780638da5cb5b146101b457806391c03370146101df57600080fd5b80632b44bc391461011057806346da51781461012557806352f7347b1461014e5780635f95c07b1461016e575b600080fd5b61012361011e36600461200f565b6102eb565b005b6101386101333660046120ed565b6103a2565b6040516101459190612106565b60405180910390f35b61016161015c3660046120ed565b61047a565b60405161014591906122b7565b61012361017c3660046122ca565b610772565b61012361018f3660046120ed565b610ada565b6101a76101a2366004612477565b610c11565b6040516101459190612527565b6003546101c7906001600160a01b031681565b6040516001600160a01b039091168152602001610145565b6101236101ed36600461256b565b610cbe565b6101236102003660046120ed565b610e05565b610123610213366004612597565b610f2e565b61022b6102263660046120ed565b610f7a565b6040516101459291906125b2565b61024c6102473660046125f7565b61129d565b604051908152602001610145565b6002546101c7906001600160a01b031681565b61028061027b366004612633565b611633565b6040516101459190612667565b61024c61029b3660046126c9565b805160208183018101805160018252928201919093012091525481565b6101a76102c63660046126fd565b6119da565b6102de6102d93660046127a0565b611a96565b60405161014591906127cc565b81518151146103415760405162461bcd60e51b815260206004820152601d60248201527f6c656e677468206172726179732073686f756c6420626520657175616c00000060448201526064015b60405180910390fd5b60005b825181101561039c5761038a8484838151811061036357610363612821565b602002602001015184848151811061037d5761037d612821565b6020026020010151610772565b806103948161284d565b915050610344565b50505050565b6040805160608101825260008082526020820181905291810191909152600082815260208190526040812090600582015460ff1660038111156103e7576103e761218d565b1461042d5760405162461bcd60e51b815260206004820152601660248201527546696c652075706c6f6164206e6f742065786973747360501b6044820152606401610338565b5050600090815260208181526040918290208251606081018452600882015481526009909101546001600160401b0380821693830193909352600160401b90049091169181019190915290565b610482611dfb565b6000828152602081815260409182902082516101408101845281546001600160a01b0316815260018201549281019290925260028101546001600160401b0380821694840194909452600160401b810484166060840152600160801b9004909216608082015260038201805491929160a08401919061050090612866565b80601f016020809104026020016040519081016040528092919081815260200182805461052c90612866565b80156105795780601f1061054e57610100808354040283529160200191610579565b820191906000526020600020905b81548152906001019060200180831161055c57829003601f168201915b5050505050815260200160048201805461059290612866565b80601f01602080910402602001604051908101604052809291908181526020018280546105be90612866565b801561060b5780601f106105e05761010080835404028352916020019161060b565b820191906000526020600020905b8154815290600101906020018083116105ee57829003601f168201915b5050509183525050600582015460209091019060ff1660038111156106325761063261218d565b60038111156106435761064361218d565b815260200160068201805461065790612866565b80601f016020809104026020016040519081016040528092919081815260200182805461068390612866565b80156106d05780601f106106a5576101008083540402835291602001916106d0565b820191906000526020600020905b8154815290600101906020018083116106b357829003601f168201915b505050505081526020016007820180546106e990612866565b80601f016020809104026020016040519081016040528092919081815260200182805461071590612866565b80156107625780601f1061073757610100808354040283529160200191610762565b820191906000526020600020905b81548152906001019060200180831161074557829003601f168201915b5050505050815250509050919050565b600082511180156107865750612800825111155b6107c75760405162461bcd60e51b8152602060048201526012602482015271496e76616c6964206368756e6b2073697a6560701b6044820152606401610338565b600083815260208190526040902080546001600160a01b031633146107fe5760405162461bcd60e51b81526004016103389061289a565b6002810154835160098301546001600160401b03928316926108289291600160401b9004166128d1565b11156108765760405162461bcd60e51b815260206004820152601960248201527f4368756e6b20657863656564732066696c65206c656e677468000000000000006044820152606401610338565b6000600582015460ff1660038111156108915761089161218d565b146108de5760405162461bcd60e51b815260206004820152601b60248201527f46696c65206973206e6f74206265696e672070726f63657373656400000000006044820152606401610338565b60088101546040516000916108f79186906020016128e4565b6040516020818303038152906040528051906020012090508281146109545760405162461bcd60e51b8152602060048201526013602482015272086d0eadcd640d0c2e6d040dad2e6dac2e8c6d606b1b6044820152606401610338565b6008820181905560098201546001600160401b03166000908152600a8301602052604090206109838582612959565b506009820180546001600160401b031690600061099f83612a18565b91906101000a8154816001600160401b0302191690836001600160401b031602179055505083518260080160010160088282829054906101000a90046001600160401b03166109ee9190612a3e565b82546101009290920a6001600160401b0381810219909316918316021790915560098401548792507f9194bcee830b22b5e81ccd3c7efb4811ca70dfdd9bbfaa1719d15dfc18c6417d91610a459160019116612a5e565b6040516001600160401b03909116815260200160405180910390a2600982015460028301546001600160401b03908116600160401b909204161480610aa55750600282015460098301546001600160401b03908116600160401b90920416145b15610ad35760058201805460ff19166001179055600060088301556009820180546001600160801b03191690555b5050505050565b600081815260208190526040902080546001600160a01b03163314610b115760405162461bcd60e51b81526004016103389061289a565b6003600582015460ff166003811115610b2c57610b2c61218d565b03610b705760405162461bcd60e51b8152602060048201526014602482015273119a5b1948185b1c9958591e4819195b195d195960621b6044820152606401610338565b60058101805460ff1916600317905560005b6002820154600160401b90046001600160401b0316811015610bc9576000818152600a830160205260408120610bb791611e4d565b80610bc18161284d565b915050610b82565b506000600882018190556009820180546001600160801b031916905560405183917f88efefb1eaec3d3a0e08ed74bc99a3407d454b5da66112fed68b20d54837ccae91a25050565b6060600082516001600160401b03811115610c2e57610c2e611ea3565b604051908082528060200260200182016040528015610c57578160200160208202803683370190505b50905060005b8351811015610cb757610c88848281518110610c7b57610c7b612821565b602002602001015161129d565b828281518110610c9a57610c9a612821565b602090810291909101015280610caf8161284d565b915050610c5d565b5092915050565b600082815260208190526040902080546001600160a01b03163314610cf55760405162461bcd60e51b81526004016103389061289a565b6003600582015460ff166003811115610d1057610d1061218d565b03610d555760405162461bcd60e51b8152602060048201526015602482015274119a5b19481a185cc81899595b8819195b195d1959605a1b6044820152606401610338565b610d6242620151806128d1565b826001600160401b031611610dd65760405162461bcd60e51b815260206004820152603460248201527f4e6577206578706972652074696d65206d757374206265206174206c6561737460448201527320312064617920696e207468652066757475726560601b6064820152608401610338565b60020180546001600160401b03909216600160801b0267ffffffffffffffff60801b1990921691909117905550565b600081815260208190526040902080546001600160a01b03163314610e3c5760405162461bcd60e51b81526004016103389061289a565b6001600582015460ff166003811115610e5757610e5761218d565b14610e995760405162461bcd60e51b815260206004820152601260248201527146696c65206973206e6f742061637469766560701b6044820152606401610338565b6002810154600160801b90046001600160401b0316421115610ef05760405162461bcd60e51b815260206004820152601060248201526f119a5b19481a185cc8195e1c1a5c995960821b6044820152606401610338565b60058101805460ff1916600217905560405182907f45987cd84c3c0ec7c3b91dde29affe01363c3777aec1247553883b243174733090600090a25050565b6003546001600160a01b03163314610f585760405162461bcd60e51b81526004016103389061289a565b600280546001600160a01b0319166001600160a01b0392909216919091179055565b6000602081815291815260409081902081516101408101835281546001600160a01b0316815260018201549381019390935260028101546001600160401b0380821693850193909352600160401b810483166060850152600160801b90049091166080830152600381018054919291839160a0840191610ff990612866565b80601f016020809104026020016040519081016040528092919081815260200182805461102590612866565b80156110725780601f1061104757610100808354040283529160200191611072565b820191906000526020600020905b81548152906001019060200180831161105557829003601f168201915b5050505050815260200160048201805461108b90612866565b80601f01602080910402602001604051908101604052809291908181526020018280546110b790612866565b80156111045780601f106110d957610100808354040283529160200191611104565b820191906000526020600020905b8154815290600101906020018083116110e757829003601f168201915b5050509183525050600582015460209091019060ff16600381111561112b5761112b61218d565b600381111561113c5761113c61218d565b815260200160068201805461115090612866565b80601f016020809104026020016040519081016040528092919081815260200182805461117c90612866565b80156111c95780601f1061119e576101008083540402835291602001916111c9565b820191906000526020600020905b8154815290600101906020018083116111ac57829003601f168201915b505050505081526020016007820180546111e290612866565b80601f016020809104026020016040519081016040528092919081815260200182805461120e90612866565b801561125b5780601f106112305761010080835404028352916020019161125b565b820191906000526020600020905b81548152906001019060200180831161123e57829003601f168201915b50505091909252505060408051606081018252600885015481526009909401546001600160401b038082166020870152600160401b9091041690840152509082565b60006112ac42620151806128d1565b82608001516001600160401b0316116113205760405162461bcd60e51b815260206004820152603060248201527f4578706972652074696d65206d757374206265206174206c656173742031206460448201526f617920696e207468652066757475726560801b6064820152608401610338565b8160400151826080015183602001518460a001518560c001514260405160200161134f96959493929190612a7e565b6040516020818303038152906040528051906020012090508060018360a0015160405161137c9190612ae6565b9081526040805160209281900383019020929092556000838152908190522060010154156113e25760405162461bcd60e51b815260206004820152601360248201527246696c6520616c72656164792065786973747360681b6044820152606401610338565b604051806101400160405280336001600160a01b031681526020018360200151815260200183604001516001600160401b0316815260200183606001516001600160401b0316815260200183608001516001600160401b031681526020018360a0015181526020018360c001518152602001600060038111156114675761146761218d565b81526101008401516020808301919091526101208501516040928301526000848152808252829020835181546001600160a01b039091166001600160a01b031990911617815590830151600182015590820151600282018054606085015160808601516001600160401b03908116600160801b0267ffffffffffffffff60801b19928216600160401b026001600160801b03199094169190951617919091171691909117905560a082015160038201906115219082612959565b5060c082015160048201906115369082612959565b5060e082015160058201805460ff1916600183600381111561155a5761155a61218d565b021790555061010082015160068201906115749082612959565b50610120820151600782019061158a9082612959565b5050604080516060810182526000808252602080830182815283850183815287845291839052918490209251600884015590516009909201805491516001600160401b03908116600160401b026001600160801b031990931693169290921717905560a08401518482015191518493507f7f2db28bb9cdbd41f93b3953994de4298cc665dda981f021c84fc9b4b367f11e926116269291612b02565b60405180910390a2919050565b606081516001600160401b0381111561164e5761164e611ea3565b60405190808252806020026020018201604052801561168757816020015b611674611dfb565b81526020019060019003908161166c5790505b50905060005b82518110156119d45760008060008584815181106116ad576116ad612821565b602090810291909101810151825281810192909252604090810160002081516101408101835281546001600160a01b0316815260018201549381019390935260028101546001600160401b0380821693850193909352600160401b810483166060850152600160801b9004909116608083015260038101805460a08401919061173590612866565b80601f016020809104026020016040519081016040528092919081815260200182805461176190612866565b80156117ae5780601f10611783576101008083540402835291602001916117ae565b820191906000526020600020905b81548152906001019060200180831161179157829003601f168201915b505050505081526020016004820180546117c790612866565b80601f01602080910402602001604051908101604052809291908181526020018280546117f390612866565b80156118405780601f1061181557610100808354040283529160200191611840565b820191906000526020600020905b81548152906001019060200180831161182357829003601f168201915b5050509183525050600582015460209091019060ff1660038111156118675761186761218d565b60038111156118785761187861218d565b815260200160068201805461188c90612866565b80601f01602080910402602001604051908101604052809291908181526020018280546118b890612866565b80156119055780601f106118da57610100808354040283529160200191611905565b820191906000526020600020905b8154815290600101906020018083116118e857829003601f168201915b5050505050815260200160078201805461191e90612866565b80601f016020809104026020016040519081016040528092919081815260200182805461194a90612866565b80156119975780601f1061196c57610100808354040283529160200191611997565b820191906000526020600020905b81548152906001019060200180831161197a57829003601f168201915b5050505050815250509050808383815181106119b5576119b5612821565b60200260200101819052505080806119cc9061284d565b91505061168d565b50919050565b6060600082516001600160401b038111156119f7576119f7611ea3565b604051908082528060200260200182016040528015611a20578160200160208202803683370190505b50905060005b8351811015610cb7576001848281518110611a4357611a43612821565b6020026020010151604051611a589190612ae6565b908152602001604051809103902054828281518110611a7957611a79612821565b602090810291909101015280611a8e8161284d565b915050611a26565b60008381526020819052604090206060906001600582015460ff166003811115611ac257611ac261218d565b14611b0f5760405162461bcd60e51b815260206004820152601760248201527f46696c652075706c6f6164206e6f7420616374697665640000000000000000006044820152606401610338565b60028101546001600160401b0316611b5f5760405162461bcd60e51b8152602060048201526013602482015272119a5b1948191bd95cc81b9bdd08195e1a5cdd606a1b6044820152606401610338565b6002810154600160401b90046001600160401b03168410611bc25760405162461bcd60e51b815260206004820152601860248201527f537461727420696e646578206f7574206f662072616e676500000000000000006044820152606401610338565b60008311611c125760405162461bcd60e51b815260206004820152601f60248201527f4c696d6974206d7573742062652067726561746572207468616e207a65726f006044820152606401610338565b6002810154600160801b90046001600160401b0316421115611c695760405162461bcd60e51b815260206004820152601060248201526f119a5b19481a185cc8195e1c1a5c995960821b6044820152606401610338565b6002810154600090600160401b90046001600160401b0316611c8b85876128d1565b11611c9f57611c9a84866128d1565b611cb5565b6002820154600160401b90046001600160401b03165b90506000611cc38683612b2d565b6001600160401b03811115611cda57611cda611ea3565b604051908082528060200260200182016040528015611d0d57816020015b6060815260200190600190039081611cf85790505b509050855b82811015611dee576000818152600a8501602052604090208054611d3590612866565b80601f0160208091040260200160405190810160405280929190818152602001828054611d6190612866565b8015611dae5780601f10611d8357610100808354040283529160200191611dae565b820191906000526020600020905b815481529060010190602001808311611d9157829003601f168201915b5050505050828883611dc09190612b2d565b81518110611dd057611dd0612821565b60200260200101819052508080611de69061284d565b915050611d12565b50925050505b9392505050565b604080516101408101825260008082526020820181905291810182905260608082018390526080820183905260a0820181905260c08201529060e0820190815260200160608152602001606081525090565b508054611e5990612866565b6000825580601f10611e69575050565b601f016020900490600052602060002090810190611e879190611e8a565b50565b5b80821115611e9f5760008155600101611e8b565b5090565b634e487b7160e01b600052604160045260246000fd5b60405161014081016001600160401b0381118282101715611edc57611edc611ea3565b60405290565b604051601f8201601f191681016001600160401b0381118282101715611f0a57611f0a611ea3565b604052919050565b60006001600160401b03821115611f2b57611f2b611ea3565b5060051b60200190565b600082601f830112611f4657600080fd5b81356001600160401b03811115611f5f57611f5f611ea3565b611f72601f8201601f1916602001611ee2565b818152846020838601011115611f8757600080fd5b816020850160208301376000918101602001919091529392505050565b600082601f830112611fb557600080fd5b81356020611fca611fc583611f12565b611ee2565b82815260059290921b84018101918181019086841115611fe957600080fd5b8286015b848110156120045780358352918301918301611fed565b509695505050505050565b60008060006060848603121561202457600080fd5b833592506020808501356001600160401b038082111561204357600080fd5b818701915087601f83011261205757600080fd5b8135612065611fc582611f12565b81815260059190911b8301840190848101908a83111561208457600080fd5b8585015b838110156120bc578035858111156120a05760008081fd5b6120ae8d89838a0101611f35565b845250918601918601612088565b509650505060408701359250808311156120d557600080fd5b50506120e386828701611fa4565b9150509250925092565b6000602082840312156120ff57600080fd5b5035919050565b606081016121378284805182526020808201516001600160401b039081169184019190915260409182015116910152565b92915050565b60005b83811015612158578181015183820152602001612140565b50506000910152565b6000815180845261217981602086016020860161213d565b601f01601f19169290920160200192915050565b634e487b7160e01b600052602160045260246000fd5b600481106121c157634e487b7160e01b600052602160045260246000fd5b9052565b80516001600160a01b0316825260006101406020830151602085015260408301516121fb60408601826001600160401b03169052565b50606083015161221660608601826001600160401b03169052565b50608083015161223160808601826001600160401b03169052565b5060a08301518160a086015261224982860182612161565b91505060c083015184820360c08601526122638282612161565b91505060e083015161227860e08601826121a3565b5061010080840151858303828701526122918382612161565b9250505061012080840151858303828701526122ad8382612161565b9695505050505050565b602081526000611df460208301846121c5565b6000806000606084860312156122df57600080fd5b8335925060208401356001600160401b038111156122fc57600080fd5b61230886828701611f35565b925050604084013590509250925092565b80356001600160a01b038116811461233057600080fd5b919050565b80356001600160401b038116811461233057600080fd5b80356004811061233057600080fd5b6000610140828403121561236e57600080fd5b612376611eb9565b905061238182612319565b81526020820135602082015261239960408301612335565b60408201526123aa60608301612335565b60608201526123bb60808301612335565b608082015260a08201356001600160401b03808211156123da57600080fd5b6123e685838601611f35565b60a084015260c08401359150808211156123ff57600080fd5b61240b85838601611f35565b60c084015261241c60e0850161234c565b60e08401526101009150818401358181111561243757600080fd5b61244386828701611f35565b83850152506101209150818401358181111561245e57600080fd5b61246a86828701611f35565b8385015250505092915050565b6000602080838503121561248a57600080fd5b82356001600160401b03808211156124a157600080fd5b818501915085601f8301126124b557600080fd5b81356124c3611fc582611f12565b81815260059190911b830184019084810190888311156124e257600080fd5b8585015b8381101561251a578035858111156124fe5760008081fd5b61250c8b89838a010161235b565b8452509186019186016124e6565b5098975050505050505050565b6020808252825182820181905260009190848201906040850190845b8181101561255f57835183529284019291840191600101612543565b50909695505050505050565b6000806040838503121561257e57600080fd5b8235915061258e60208401612335565b90509250929050565b6000602082840312156125a957600080fd5b611df482612319565b6080815260006125c560808301856121c5565b9050611df46020830184805182526020808201516001600160401b039081169184019190915260409182015116910152565b60006020828403121561260957600080fd5b81356001600160401b0381111561261f57600080fd5b61262b8482850161235b565b949350505050565b60006020828403121561264557600080fd5b81356001600160401b0381111561265b57600080fd5b61262b84828501611fa4565b6000602080830181845280855180835260408601915060408160051b870101925083870160005b828110156126bc57603f198886030184526126aa8583516121c5565b9450928501929085019060010161268e565b5092979650505050505050565b6000602082840312156126db57600080fd5b81356001600160401b038111156126f157600080fd5b61262b84828501611f35565b6000602080838503121561271057600080fd5b82356001600160401b038082111561272757600080fd5b818501915085601f83011261273b57600080fd5b8135612749611fc582611f12565b81815260059190911b8301840190848101908883111561276857600080fd5b8585015b8381101561251a578035858111156127845760008081fd5b6127928b89838a0101611f35565b84525091860191860161276c565b6000806000606084860312156127b557600080fd5b505081359360208301359350604090920135919050565b6000602080830181845280855180835260408601915060408160051b870101925083870160005b828110156126bc57603f1988860301845261280f858351612161565b945092850192908501906001016127f3565b634e487b7160e01b600052603260045260246000fd5b634e487b7160e01b600052601160045260246000fd5b60006001820161285f5761285f612837565b5060010190565b600181811c9082168061287a57607f821691505b6020821081036119d457634e487b7160e01b600052602260045260246000fd5b60208082526017908201527f43616c6c6572206973206e6f7420746865206f776e6572000000000000000000604082015260600190565b8082018082111561213757612137612837565b828152600082516128fc81602085016020870161213d565b919091016020019392505050565b601f82111561295457600081815260208120601f850160051c810160208610156129315750805b601f850160051c820191505b818110156129505782815560010161293d565b5050505b505050565b81516001600160401b0381111561297257612972611ea3565b612986816129808454612866565b8461290a565b602080601f8311600181146129bb57600084156129a35750858301515b600019600386901b1c1916600185901b178555612950565b600085815260208120601f198616915b828110156129ea578886015182559484019460019091019084016129cb565b5085821015612a085787850151600019600388901b60f8161c191681555b5050505050600190811b01905550565b60006001600160401b03808316818103612a3457612a34612837565b6001019392505050565b6001600160401b03818116838216019080821115610cb757610cb7612837565b6001600160401b03828116828216039080821115610cb757610cb7612837565b60006001600160401b0360c01b808960c01b168352808860c01b166008840152508560108301528451612ab881603085016020890161213d565b845190830190612acf81603084016020890161213d565b016030810193909352505060500195945050505050565b60008251612af881846020870161213d565b9190910192915050565b604081526000612b156040830185612161565b90506001600160401b03831660208301529392505050565b818103818111156121375761213761283756fea264697066735822122028040492444a5c3378bbe617b15399aa6db25e3068fae2297ef8f797f21ed0f364736f6c63430008130033","linkReferences":{}},"methodIdentifiers":{"deleteFile(bytes32)":"6ab799f1","downloadFile(bytes32,uint256,uint256)":"fab91940","getFileInfo(bytes32)":"52f7347b","getFileKeyFromName(string[])":"f25671c4","getFileProgress(bytes32)":"46da5178","getFilesInfo(bytes32[])":"eb070e7e","lockFile(bytes32)":"9b26b2a8","mKeyToFileInfo(bytes32)":"c652793d","mNameToFileKey(string)":"edff13af","owner()":"8da5cb5b","pushFileInfo((address,bytes32,uint64,uint64,uint64,string,string,uint8,string,string))":"ca7e3cd4","pushFileInfos((address,bytes32,uint64,uint64,uint64,string,string,uint8,string,string)[])":"6e0c19b1","renewTime(bytes32,uint64)":"91c03370","service()":"d598d4c9","setService(address)":"bf8bdac1","uploadChunk(bytes32,bytes,bytes32)":"5f95c07b","uploadChunks(bytes32,bytes[],bytes32[])":"2b44bc39"},"id":23}