{"abi":[{"type":"constructor","inputs":[],"stateMutability":"payable"},{"type":"function","name":"deleteFile","inputs":[{"name":"fileKey","type":"bytes32","internalType":"bytes32"}],"outputs":[],"stateMutability":"nonpayable"},{"type":"function","name":"downloadFile","inputs":[{"name":"fileKey","type":"bytes32","internalType":"bytes32"},{"name":"start","type":"uint256","internalType":"uint256"},{"name":"limit","type":"uint256","internalType":"uint256"}],"outputs":[{"name":"","type":"bytes[]","internalType":"bytes[]"}],"stateMutability":"view"},{"type":"function","name":"getFileInfo","inputs":[{"name":"fileKey","type":"bytes32","internalType":"bytes32"}],"outputs":[{"name":"","type":"tuple","internalType":"struct Info","components":[{"name":"owner","type":"address","internalType":"address"},{"name":"hash","type":"bytes32","internalType":"bytes32"},{"name":"contentLen","type":"uint64","internalType":"uint64"},{"name":"totalChunks","type":"uint64","internalType":"uint64"},{"name":"expireTime","type":"uint64","internalType":"uint64"},{"name":"name","type":"string","internalType":"string"},{"name":"ext","type":"string","internalType":"string"},{"name":"status","type":"uint8","internalType":"enum FileStatus"},{"name":"contentDisposition","type":"string","internalType":"string"},{"name":"contentID","type":"string","internalType":"string"}]}],"stateMutability":"view"},{"type":"function","name":"getFileProgress","inputs":[{"name":"fileKey","type":"bytes32","internalType":"bytes32"}],"outputs":[{"name":"","type":"tuple","internalType":"struct FileProgress","components":[{"name":"lastChunkHash","type":"bytes32","internalType":"bytes32"},{"name":"processedChunks","type":"uint64","internalType":"uint64"},{"name":"processedLength","type":"uint64","internalType":"uint64"}]}],"stateMutability":"view"},{"type":"function","name":"getFilesInfo","inputs":[{"name":"fileKeys","type":"bytes32[]","internalType":"bytes32[]"}],"outputs":[{"name":"infos","type":"tuple[]","internalType":"struct Info[]","components":[{"name":"owner","type":"address","internalType":"address"},{"name":"hash","type":"bytes32","internalType":"bytes32"},{"name":"contentLen","type":"uint64","internalType":"uint64"},{"name":"totalChunks","type":"uint64","internalType":"uint64"},{"name":"expireTime","type":"uint64","internalType":"uint64"},{"name":"name","type":"string","internalType":"string"},{"name":"ext","type":"string","internalType":"string"},{"name":"status","type":"uint8","internalType":"enum FileStatus"},{"name":"contentDisposition","type":"string","internalType":"string"},{"name":"contentID","type":"string","internalType":"string"}]}],"stateMutability":"view"},{"type":"function","name":"lockFile","inputs":[{"name":"fileKey","type":"bytes32","internalType":"bytes32"}],"outputs":[],"stateMutability":"nonpayable"},{"type":"function","name":"mKeyToFileInfo","inputs":[{"name":"","type":"bytes32","internalType":"bytes32"}],"outputs":[{"name":"info","type":"tuple","internalType":"struct Info","components":[{"name":"owner","type":"address","internalType":"address"},{"name":"hash","type":"bytes32","internalType":"bytes32"},{"name":"contentLen","type":"uint64","internalType":"uint64"},{"name":"totalChunks","type":"uint64","internalType":"uint64"},{"name":"expireTime","type":"uint64","internalType":"uint64"},{"name":"name","type":"string","internalType":"string"},{"name":"ext","type":"string","internalType":"string"},{"name":"status","type":"uint8","internalType":"enum FileStatus"},{"name":"contentDisposition","type":"string","internalType":"string"},{"name":"contentID","type":"string","internalType":"string"}]},{"name":"progress","type":"tuple","internalType":"struct FileProgress","components":[{"name":"lastChunkHash","type":"bytes32","internalType":"bytes32"},{"name":"processedChunks","type":"uint64","internalType":"uint64"},{"name":"processedLength","type":"uint64","internalType":"uint64"}]}],"stateMutability":"view"},{"type":"function","name":"owner","inputs":[],"outputs":[{"name":"","type":"address","internalType":"address"}],"stateMutability":"view"},{"type":"function","name":"pushFileInfo","inputs":[{"name":"info","type":"tuple","internalType":"struct Info","components":[{"name":"owner","type":"address","internalType":"address"},{"name":"hash","type":"bytes32","internalType":"bytes32"},{"name":"contentLen","type":"uint64","internalType":"uint64"},{"name":"totalChunks","type":"uint64","internalType":"uint64"},{"name":"expireTime","type":"uint64","internalType":"uint64"},{"name":"name","type":"string","internalType":"string"},{"name":"ext","type":"string","internalType":"string"},{"name":"status","type":"uint8","internalType":"enum FileStatus"},{"name":"contentDisposition","type":"string","internalType":"string"},{"name":"contentID","type":"string","internalType":"string"}]}],"outputs":[{"name":"fileKey","type":"bytes32","internalType":"bytes32"}],"stateMutability":"nonpayable"},{"type":"function","name":"pushFileInfos","inputs":[{"name":"infos","type":"tuple[]","internalType":"struct Info[]","components":[{"name":"owner","type":"address","internalType":"address"},{"name":"hash","type":"bytes32","internalType":"bytes32"},{"name":"contentLen","type":"uint64","internalType":"uint64"},{"name":"totalChunks","type":"uint64","internalType":"uint64"},{"name":"expireTime","type":"uint64","internalType":"uint64"},{"name":"name","type":"string","internalType":"string"},{"name":"ext","type":"string","internalType":"string"},{"name":"status","type":"uint8","internalType":"enum FileStatus"},{"name":"contentDisposition","type":"string","internalType":"string"},{"name":"contentID","type":"string","internalType":"string"}]}],"outputs":[{"name":"","type":"bytes32[]","internalType":"bytes32[]"}],"stateMutability":"nonpayable"},{"type":"function","name":"renewTime","inputs":[{"name":"fileKey","type":"bytes32","internalType":"bytes32"},{"name":"_newExpireTime","type":"uint64","internalType":"uint64"}],"outputs":[],"stateMutability":"nonpayable"},{"type":"function","name":"service","inputs":[],"outputs":[{"name":"","type":"address","internalType":"address"}],"stateMutability":"view"},{"type":"function","name":"setService","inputs":[{"name":"_service","type":"address","internalType":"address"}],"outputs":[],"stateMutability":"nonpayable"},{"type":"function","name":"uploadChunk","inputs":[{"name":"fileKey","type":"bytes32","internalType":"bytes32"},{"name":"chunkData","type":"bytes","internalType":"bytes"},{"name":"chunkHash","type":"bytes32","internalType":"bytes32"}],"outputs":[],"stateMutability":"nonpayable"},{"type":"event","name":"ChunkUploaded","inputs":[{"name":"fileKey","type":"bytes32","indexed":true,"internalType":"bytes32"},{"name":"chunkIndex","type":"uint256","indexed":false,"internalType":"uint256"}],"anonymous":false},{"type":"event","name":"FileAdded","inputs":[{"name":"fileKey","type":"bytes32","indexed":true,"internalType":"bytes32"},{"name":"name","type":"string","indexed":false,"internalType":"string"},{"name":"contentLen","type":"uint64","indexed":false,"internalType":"uint64"}],"anonymous":false},{"type":"event","name":"FileDeleted","inputs":[{"name":"fileKey","type":"bytes32","indexed":true,"internalType":"bytes32"}],"anonymous":false},{"type":"event","name":"FileLocked","inputs":[{"name":"fileKey","type":"bytes32","indexed":true,"internalType":"bytes32"}],"anonymous":false}],"bytecode":{"object":"0x6080604052600280546001600160a01b031916331790556127b2806100256000396000f3fe608060405234801561001057600080fd5b50600436106100ea5760003560e01c80639b26b2a81161008c578063ca7e3cd411610066578063ca7e3cd414610205578063d598d4c914610226578063eb070e7e14610239578063fab919401461025957600080fd5b80639b26b2a8146101be578063bf8bdac1146101d1578063c652793d146101e457600080fd5b80636ab799f1116100c85780636ab799f11461014d5780636e0c19b1146101605780638da5cb5b1461018057806391c03370146101ab57600080fd5b806346da5178146100ef57806352f7347b146101185780635f95c07b14610138575b600080fd5b6101026100fd366004611c9e565b610279565b60405161010f9190611cb7565b60405180910390f35b61012b610126366004611c9e565b610356565b60405161010f9190611e68565b61014b610146366004611f41565b61064e565b005b61014b61015b366004611c9e565b6109b7565b61017361016e366004612145565b610aee565b60405161010f91906121fa565b600254610193906001600160a01b031681565b6040516001600160a01b03909116815260200161010f565b61014b6101b936600461223e565b610b9b565b61014b6101cc366004611c9e565b610ce2565b61014b6101df36600461226a565b610e0b565b6101f76101f2366004611c9e565b610e57565b60405161010f929190612285565b6102186102133660046122ca565b61117a565b60405190815260200161010f565b600154610193906001600160a01b031681565b61024c610247366004612306565b6114ea565b60405161010f9190612396565b61026c6102673660046123f8565b611891565b60405161010f9190612424565b6040805160608101825260008082526020820181905291810191909152600082815260208190526040812090600582015460ff1660038111156102be576102be611d3e565b146103095760405162461bcd60e51b815260206004820152601660248201527546696c652075706c6f6164206e6f742065786973747360501b60448201526064015b60405180910390fd5b5050600090815260208181526040918290208251606081018452600882015481526009909101546001600160401b0380821693830193909352600160401b90049091169181019190915290565b61035e611bf6565b6000828152602081815260409182902082516101408101845281546001600160a01b0316815260018201549281019290925260028101546001600160401b0380821694840194909452600160401b810484166060840152600160801b9004909216608082015260038201805491929160a0840191906103dc90612479565b80601f016020809104026020016040519081016040528092919081815260200182805461040890612479565b80156104555780601f1061042a57610100808354040283529160200191610455565b820191906000526020600020905b81548152906001019060200180831161043857829003601f168201915b5050505050815260200160048201805461046e90612479565b80601f016020809104026020016040519081016040528092919081815260200182805461049a90612479565b80156104e75780601f106104bc576101008083540402835291602001916104e7565b820191906000526020600020905b8154815290600101906020018083116104ca57829003601f168201915b5050509183525050600582015460209091019060ff16600381111561050e5761050e611d3e565b600381111561051f5761051f611d3e565b815260200160068201805461053390612479565b80601f016020809104026020016040519081016040528092919081815260200182805461055f90612479565b80156105ac5780601f10610581576101008083540402835291602001916105ac565b820191906000526020600020905b81548152906001019060200180831161058f57829003601f168201915b505050505081526020016007820180546105c590612479565b80601f01602080910402602001604051908101604052809291908181526020018280546105f190612479565b801561063e5780601f106106135761010080835404028352916020019161063e565b820191906000526020600020905b81548152906001019060200180831161062157829003601f168201915b5050505050815250509050919050565b600082511180156106625750612800825111155b6106a35760405162461bcd60e51b8152602060048201526012602482015271496e76616c6964206368756e6b2073697a6560701b6044820152606401610300565b600083815260208190526040902080546001600160a01b031633146106da5760405162461bcd60e51b8152600401610300906124ad565b6002810154835160098301546001600160401b03928316926107049291600160401b9004166124fa565b11156107525760405162461bcd60e51b815260206004820152601960248201527f4368756e6b20657863656564732066696c65206c656e677468000000000000006044820152606401610300565b6000600582015460ff16600381111561076d5761076d611d3e565b146107ba5760405162461bcd60e51b815260206004820152601b60248201527f46696c65206973206e6f74206265696e672070726f63657373656400000000006044820152606401610300565b60088101546040516000916107d391869060200161250d565b6040516020818303038152906040528051906020012090508281146108305760405162461bcd60e51b8152602060048201526013602482015272086d0eadcd640d0c2e6d040dad2e6dac2e8c6d606b1b6044820152606401610300565b6008820181905560098201546001600160401b03166000908152600a83016020526040902061085f8582612582565b506009820180546001600160401b031690600061087b83612641565b91906101000a8154816001600160401b0302191690836001600160401b031602179055505083518260080160010160088282829054906101000a90046001600160401b03166108ca9190612667565b82546101009290920a6001600160401b0381810219909316918316021790915560098401546002850154600160401b90910482169116149050806109295750600282015460098301546001600160401b03908116600160401b90920416145b156109575760058201805460ff19166001179055600060088301556009820180546001600160801b03191690555b600982015485907f9194bcee830b22b5e81ccd3c7efb4811ca70dfdd9bbfaa1719d15dfc18c6417d90610995906001906001600160401b0316612687565b6040516001600160401b03909116815260200160405180910390a25050505050565b600081815260208190526040902080546001600160a01b031633146109ee5760405162461bcd60e51b8152600401610300906124ad565b6003600582015460ff166003811115610a0957610a09611d3e565b03610a4d5760405162461bcd60e51b8152602060048201526014602482015273119a5b1948185b1c9958591e4819195b195d195960621b6044820152606401610300565b60058101805460ff1916600317905560005b6002820154600160401b90046001600160401b0316811015610aa6576000818152600a830160205260408120610a9491611c48565b80610a9e816126a7565b915050610a5f565b506000600882018190556009820180546001600160801b031916905560405183917f88efefb1eaec3d3a0e08ed74bc99a3407d454b5da66112fed68b20d54837ccae91a25050565b6060600082516001600160401b03811115610b0b57610b0b611e7b565b604051908082528060200260200182016040528015610b34578160200160208202803683370190505b50905060005b8351811015610b9457610b65848281518110610b5857610b586126c0565b602002602001015161117a565b828281518110610b7757610b776126c0565b602090810291909101015280610b8c816126a7565b915050610b3a565b5092915050565b600082815260208190526040902080546001600160a01b03163314610bd25760405162461bcd60e51b8152600401610300906124ad565b6003600582015460ff166003811115610bed57610bed611d3e565b03610c325760405162461bcd60e51b8152602060048201526015602482015274119a5b19481a185cc81899595b8819195b195d1959605a1b6044820152606401610300565b610c3f42620151806124fa565b826001600160401b031611610cb35760405162461bcd60e51b815260206004820152603460248201527f4e6577206578706972652074696d65206d757374206265206174206c6561737460448201527320312064617920696e207468652066757475726560601b6064820152608401610300565b60020180546001600160401b03909216600160801b0267ffffffffffffffff60801b1990921691909117905550565b600081815260208190526040902080546001600160a01b03163314610d195760405162461bcd60e51b8152600401610300906124ad565b6001600582015460ff166003811115610d3457610d34611d3e565b14610d765760405162461bcd60e51b815260206004820152601260248201527146696c65206973206e6f742061637469766560701b6044820152606401610300565b6002810154600160801b90046001600160401b0316421115610dcd5760405162461bcd60e51b815260206004820152601060248201526f119a5b19481a185cc8195e1c1a5c995960821b6044820152606401610300565b60058101805460ff1916600217905560405182907f45987cd84c3c0ec7c3b91dde29affe01363c3777aec1247553883b243174733090600090a25050565b6002546001600160a01b03163314610e355760405162461bcd60e51b8152600401610300906124ad565b600180546001600160a01b0319166001600160a01b0392909216919091179055565b6000602081815291815260409081902081516101408101835281546001600160a01b0316815260018201549381019390935260028101546001600160401b0380821693850193909352600160401b810483166060850152600160801b90049091166080830152600381018054919291839160a0840191610ed690612479565b80601f0160208091040260200160405190810160405280929190818152602001828054610f0290612479565b8015610f4f5780601f10610f2457610100808354040283529160200191610f4f565b820191906000526020600020905b815481529060010190602001808311610f3257829003601f168201915b50505050508152602001600482018054610f6890612479565b80601f0160208091040260200160405190810160405280929190818152602001828054610f9490612479565b8015610fe15780601f10610fb657610100808354040283529160200191610fe1565b820191906000526020600020905b815481529060010190602001808311610fc457829003601f168201915b5050509183525050600582015460209091019060ff16600381111561100857611008611d3e565b600381111561101957611019611d3e565b815260200160068201805461102d90612479565b80601f016020809104026020016040519081016040528092919081815260200182805461105990612479565b80156110a65780601f1061107b576101008083540402835291602001916110a6565b820191906000526020600020905b81548152906001019060200180831161108957829003601f168201915b505050505081526020016007820180546110bf90612479565b80601f01602080910402602001604051908101604052809291908181526020018280546110eb90612479565b80156111385780601f1061110d57610100808354040283529160200191611138565b820191906000526020600020905b81548152906001019060200180831161111b57829003601f168201915b50505091909252505060408051606081018252600885015481526009909401546001600160401b038082166020870152600160401b9091041690840152509082565b600061118942620151806124fa565b82608001516001600160401b0316116111fd5760405162461bcd60e51b815260206004820152603060248201527f4578706972652074696d65206d757374206265206174206c656173742031206460448201526f617920696e207468652066757475726560801b6064820152608401610300565b8160400151826080015183602001518460a001518560c001514260405160200161122c969594939291906126d6565b60408051601f198184030181529181528151602092830120600081815292839052912060010154909150156112995760405162461bcd60e51b815260206004820152601360248201527246696c6520616c72656164792065786973747360681b6044820152606401610300565b604051806101400160405280336001600160a01b031681526020018360200151815260200183604001516001600160401b0316815260200183606001516001600160401b0316815260200183608001516001600160401b031681526020018360a0015181526020018360c0015181526020016000600381111561131e5761131e611d3e565b81526101008401516020808301919091526101208501516040928301526000848152808252829020835181546001600160a01b039091166001600160a01b031990911617815590830151600182015590820151600282018054606085015160808601516001600160401b03908116600160801b0267ffffffffffffffff60801b19928216600160401b026001600160801b03199094169190951617919091171691909117905560a082015160038201906113d89082612582565b5060c082015160048201906113ed9082612582565b5060e082015160058201805460ff1916600183600381111561141157611411611d3e565b0217905550610100820151600682019061142b9082612582565b5061012082015160078201906114419082612582565b5050604080516060810182526000808252602080830182815283850183815287845291839052918490209251600884015590516009909201805491516001600160401b03908116600160401b026001600160801b031990931693169290921717905560a08401518482015191518493507f7f2db28bb9cdbd41f93b3953994de4298cc665dda981f021c84fc9b4b367f11e926114dd929161273e565b60405180910390a2919050565b606081516001600160401b0381111561150557611505611e7b565b60405190808252806020026020018201604052801561153e57816020015b61152b611bf6565b8152602001906001900390816115235790505b50905060005b825181101561188b576000806000858481518110611564576115646126c0565b602090810291909101810151825281810192909252604090810160002081516101408101835281546001600160a01b0316815260018201549381019390935260028101546001600160401b0380821693850193909352600160401b810483166060850152600160801b9004909116608083015260038101805460a0840191906115ec90612479565b80601f016020809104026020016040519081016040528092919081815260200182805461161890612479565b80156116655780601f1061163a57610100808354040283529160200191611665565b820191906000526020600020905b81548152906001019060200180831161164857829003601f168201915b5050505050815260200160048201805461167e90612479565b80601f01602080910402602001604051908101604052809291908181526020018280546116aa90612479565b80156116f75780601f106116cc576101008083540402835291602001916116f7565b820191906000526020600020905b8154815290600101906020018083116116da57829003601f168201915b5050509183525050600582015460209091019060ff16600381111561171e5761171e611d3e565b600381111561172f5761172f611d3e565b815260200160068201805461174390612479565b80601f016020809104026020016040519081016040528092919081815260200182805461176f90612479565b80156117bc5780601f10611791576101008083540402835291602001916117bc565b820191906000526020600020905b81548152906001019060200180831161179f57829003601f168201915b505050505081526020016007820180546117d590612479565b80601f016020809104026020016040519081016040528092919081815260200182805461180190612479565b801561184e5780601f106118235761010080835404028352916020019161184e565b820191906000526020600020905b81548152906001019060200180831161183157829003601f168201915b50505050508152505090508083838151811061186c5761186c6126c0565b6020026020010181905250508080611883906126a7565b915050611544565b50919050565b60008381526020819052604090206060906001600582015460ff1660038111156118bd576118bd611d3e565b1461190a5760405162461bcd60e51b815260206004820152601760248201527f46696c652075706c6f6164206e6f7420616374697665640000000000000000006044820152606401610300565b60028101546001600160401b031661195a5760405162461bcd60e51b8152602060048201526013602482015272119a5b1948191bd95cc81b9bdd08195e1a5cdd606a1b6044820152606401610300565b6002810154600160401b90046001600160401b031684106119bd5760405162461bcd60e51b815260206004820152601860248201527f537461727420696e646578206f7574206f662072616e676500000000000000006044820152606401610300565b60008311611a0d5760405162461bcd60e51b815260206004820152601f60248201527f4c696d6974206d7573742062652067726561746572207468616e207a65726f006044820152606401610300565b6002810154600160801b90046001600160401b0316421115611a645760405162461bcd60e51b815260206004820152601060248201526f119a5b19481a185cc8195e1c1a5c995960821b6044820152606401610300565b6002810154600090600160401b90046001600160401b0316611a8685876124fa565b11611a9a57611a9584866124fa565b611ab0565b6002820154600160401b90046001600160401b03165b90506000611abe8683612769565b6001600160401b03811115611ad557611ad5611e7b565b604051908082528060200260200182016040528015611b0857816020015b6060815260200190600190039081611af35790505b509050855b82811015611be9576000818152600a8501602052604090208054611b3090612479565b80601f0160208091040260200160405190810160405280929190818152602001828054611b5c90612479565b8015611ba95780601f10611b7e57610100808354040283529160200191611ba9565b820191906000526020600020905b815481529060010190602001808311611b8c57829003601f168201915b5050505050828883611bbb9190612769565b81518110611bcb57611bcb6126c0565b60200260200101819052508080611be1906126a7565b915050611b0d565b50925050505b9392505050565b604080516101408101825260008082526020820181905291810182905260608082018390526080820183905260a0820181905260c08201529060e0820190815260200160608152602001606081525090565b508054611c5490612479565b6000825580601f10611c64575050565b601f016020900490600052602060002090810190611c829190611c85565b50565b5b80821115611c9a5760008155600101611c86565b5090565b600060208284031215611cb057600080fd5b5035919050565b60608101611ce88284805182526020808201516001600160401b039081169184019190915260409182015116910152565b92915050565b60005b83811015611d09578181015183820152602001611cf1565b50506000910152565b60008151808452611d2a816020860160208601611cee565b601f01601f19169290920160200192915050565b634e487b7160e01b600052602160045260246000fd5b60048110611d7257634e487b7160e01b600052602160045260246000fd5b9052565b80516001600160a01b031682526000610140602083015160208501526040830151611dac60408601826001600160401b03169052565b506060830151611dc760608601826001600160401b03169052565b506080830151611de260808601826001600160401b03169052565b5060a08301518160a0860152611dfa82860182611d12565b91505060c083015184820360c0860152611e148282611d12565b91505060e0830151611e2960e0860182611d54565b506101008084015185830382870152611e428382611d12565b925050506101208084015185830382870152611e5e8382611d12565b9695505050505050565b602081526000611bef6020830184611d76565b634e487b7160e01b600052604160045260246000fd5b60405161014081016001600160401b0381118282101715611eb457611eb4611e7b565b60405290565b604051601f8201601f191681016001600160401b0381118282101715611ee257611ee2611e7b565b604052919050565b60006001600160401b03831115611f0357611f03611e7b565b611f16601f8401601f1916602001611eba565b9050828152838383011115611f2a57600080fd5b828260208301376000602084830101529392505050565b600080600060608486031215611f5657600080fd5b8335925060208401356001600160401b03811115611f7357600080fd5b8401601f81018613611f8457600080fd5b611f9386823560208401611eea565b925050604084013590509250925092565b60006001600160401b03821115611fbd57611fbd611e7b565b5060051b60200190565b80356001600160a01b0381168114611fde57600080fd5b919050565b80356001600160401b0381168114611fde57600080fd5b600082601f83011261200b57600080fd5b611bef83833560208501611eea565b803560048110611fde57600080fd5b6000610140828403121561203c57600080fd5b612044611e91565b905061204f82611fc7565b81526020820135602082015261206760408301611fe3565b604082015261207860608301611fe3565b606082015261208960808301611fe3565b608082015260a08201356001600160401b03808211156120a857600080fd5b6120b485838601611ffa565b60a084015260c08401359150808211156120cd57600080fd5b6120d985838601611ffa565b60c08401526120ea60e0850161201a565b60e08401526101009150818401358181111561210557600080fd5b61211186828701611ffa565b83850152506101209150818401358181111561212c57600080fd5b61213886828701611ffa565b8385015250505092915050565b6000602080838503121561215857600080fd5b82356001600160401b038082111561216f57600080fd5b818501915085601f83011261218357600080fd5b813561219661219182611fa4565b611eba565b81815260059190911b830184019084810190888311156121b557600080fd5b8585015b838110156121ed578035858111156121d15760008081fd5b6121df8b89838a0101612029565b8452509186019186016121b9565b5098975050505050505050565b6020808252825182820181905260009190848201906040850190845b8181101561223257835183529284019291840191600101612216565b50909695505050505050565b6000806040838503121561225157600080fd5b8235915061226160208401611fe3565b90509250929050565b60006020828403121561227c57600080fd5b611bef82611fc7565b6080815260006122986080830185611d76565b9050611bef6020830184805182526020808201516001600160401b039081169184019190915260409182015116910152565b6000602082840312156122dc57600080fd5b81356001600160401b038111156122f257600080fd5b6122fe84828501612029565b949350505050565b6000602080838503121561231957600080fd5b82356001600160401b0381111561232f57600080fd5b8301601f8101851361234057600080fd5b803561234e61219182611fa4565b81815260059190911b8201830190838101908783111561236d57600080fd5b928401925b8284101561238b57833582529284019290840190612372565b979650505050505050565b6000602080830181845280855180835260408601915060408160051b870101925083870160005b828110156123eb57603f198886030184526123d9858351611d76565b945092850192908501906001016123bd565b5092979650505050505050565b60008060006060848603121561240d57600080fd5b505081359360208301359350604090920135919050565b6000602080830181845280855180835260408601915060408160051b870101925083870160005b828110156123eb57603f19888603018452612467858351611d12565b9450928501929085019060010161244b565b600181811c9082168061248d57607f821691505b60208210810361188b57634e487b7160e01b600052602260045260246000fd5b60208082526017908201527f43616c6c6572206973206e6f7420746865206f776e6572000000000000000000604082015260600190565b634e487b7160e01b600052601160045260246000fd5b80820180821115611ce857611ce86124e4565b82815260008251612525816020850160208701611cee565b919091016020019392505050565b601f82111561257d57600081815260208120601f850160051c8101602086101561255a5750805b601f850160051c820191505b8181101561257957828155600101612566565b5050505b505050565b81516001600160401b0381111561259b5761259b611e7b565b6125af816125a98454612479565b84612533565b602080601f8311600181146125e457600084156125cc5750858301515b600019600386901b1c1916600185901b178555612579565b600085815260208120601f198616915b82811015612613578886015182559484019460019091019084016125f4565b50858210156126315787850151600019600388901b60f8161c191681555b5050505050600190811b01905550565b60006001600160401b0380831681810361265d5761265d6124e4565b6001019392505050565b6001600160401b03818116838216019080821115610b9457610b946124e4565b6001600160401b03828116828216039080821115610b9457610b946124e4565b6000600182016126b9576126b96124e4565b5060010190565b634e487b7160e01b600052603260045260246000fd5b60006001600160401b0360c01b808960c01b168352808860c01b166008840152508560108301528451612710816030850160208901611cee565b845190830190612727816030840160208901611cee565b016030810193909352505060500195945050505050565b6040815260006127516040830185611d12565b90506001600160401b03831660208301529392505050565b81810381811115611ce857611ce86124e456fea264697066735822122006d58883595174c83c6ce2e0c117cfadd28fdcf724133dbe1bfdda23b3743dd864736f6c63430008130033","linkReferences":{}},"methodIdentifiers":{"deleteFile(bytes32)":"6ab799f1","downloadFile(bytes32,uint256,uint256)":"fab91940","getFileInfo(bytes32)":"52f7347b","getFileProgress(bytes32)":"46da5178","getFilesInfo(bytes32[])":"eb070e7e","lockFile(bytes32)":"9b26b2a8","mKeyToFileInfo(bytes32)":"c652793d","owner()":"8da5cb5b","pushFileInfo((address,bytes32,uint64,uint64,uint64,string,string,uint8,string,string))":"ca7e3cd4","pushFileInfos((address,bytes32,uint64,uint64,uint64,string,string,uint8,string,string)[])":"6e0c19b1","renewTime(bytes32,uint64)":"91c03370","service()":"d598d4c9","setService(address)":"bf8bdac1","uploadChunk(bytes32,bytes,bytes32)":"5f95c07b"},"id":23}