{"abi":[{"type":"constructor","inputs":[],"stateMutability":"payable"},{"type":"function","name":"deleteFile","inputs":[{"name":"fileKey","type":"bytes32","internalType":"bytes32"}],"outputs":[],"stateMutability":"nonpayable"},{"type":"function","name":"downloadFile","inputs":[{"name":"fileKey","type":"bytes32","internalType":"bytes32"},{"name":"start","type":"uint256","internalType":"uint256"},{"name":"limit","type":"uint256","internalType":"uint256"}],"outputs":[{"name":"","type":"bytes[]","internalType":"bytes[]"}],"stateMutability":"view"},{"type":"function","name":"getFileInfo","inputs":[{"name":"fileKey","type":"bytes32","internalType":"bytes32"}],"outputs":[{"name":"","type":"tuple","internalType":"struct Info","components":[{"name":"owner","type":"address","internalType":"address"},{"name":"hash","type":"bytes32","internalType":"bytes32"},{"name":"contentLen","type":"uint64","internalType":"uint64"},{"name":"totalChunks","type":"uint64","internalType":"uint64"},{"name":"expireTime","type":"uint64","internalType":"uint64"},{"name":"name","type":"string","internalType":"string"},{"name":"ext","type":"string","internalType":"string"},{"name":"status","type":"uint8","internalType":"enum FileStatus"},{"name":"contentDisposition","type":"string","internalType":"string"},{"name":"contentID","type":"string","internalType":"string"}]}],"stateMutability":"view"},{"type":"function","name":"getFileKeyFromName","inputs":[{"name":"names","type":"string[]","internalType":"string[]"}],"outputs":[{"name":"","type":"bytes32[]","internalType":"bytes32[]"}],"stateMutability":"view"},{"type":"function","name":"getFileProgress","inputs":[{"name":"fileKey","type":"bytes32","internalType":"bytes32"}],"outputs":[{"name":"","type":"tuple","internalType":"struct FileProgress","components":[{"name":"lastChunkHash","type":"bytes32","internalType":"bytes32"},{"name":"processedChunks","type":"uint64","internalType":"uint64"},{"name":"processedLength","type":"uint64","internalType":"uint64"}]}],"stateMutability":"view"},{"type":"function","name":"getFilesInfo","inputs":[{"name":"fileKeys","type":"bytes32[]","internalType":"bytes32[]"}],"outputs":[{"name":"infos","type":"tuple[]","internalType":"struct Info[]","components":[{"name":"owner","type":"address","internalType":"address"},{"name":"hash","type":"bytes32","internalType":"bytes32"},{"name":"contentLen","type":"uint64","internalType":"uint64"},{"name":"totalChunks","type":"uint64","internalType":"uint64"},{"name":"expireTime","type":"uint64","internalType":"uint64"},{"name":"name","type":"string","internalType":"string"},{"name":"ext","type":"string","internalType":"string"},{"name":"status","type":"uint8","internalType":"enum FileStatus"},{"name":"contentDisposition","type":"string","internalType":"string"},{"name":"contentID","type":"string","internalType":"string"}]}],"stateMutability":"view"},{"type":"function","name":"lockFile","inputs":[{"name":"fileKey","type":"bytes32","internalType":"bytes32"}],"outputs":[],"stateMutability":"nonpayable"},{"type":"function","name":"mKeyToFileInfo","inputs":[{"name":"","type":"bytes32","internalType":"bytes32"}],"outputs":[{"name":"info","type":"tuple","internalType":"struct Info","components":[{"name":"owner","type":"address","internalType":"address"},{"name":"hash","type":"bytes32","internalType":"bytes32"},{"name":"contentLen","type":"uint64","internalType":"uint64"},{"name":"totalChunks","type":"uint64","internalType":"uint64"},{"name":"expireTime","type":"uint64","internalType":"uint64"},{"name":"name","type":"string","internalType":"string"},{"name":"ext","type":"string","internalType":"string"},{"name":"status","type":"uint8","internalType":"enum FileStatus"},{"name":"contentDisposition","type":"string","internalType":"string"},{"name":"contentID","type":"string","internalType":"string"}]},{"name":"progress","type":"tuple","internalType":"struct FileProgress","components":[{"name":"lastChunkHash","type":"bytes32","internalType":"bytes32"},{"name":"processedChunks","type":"uint64","internalType":"uint64"},{"name":"processedLength","type":"uint64","internalType":"uint64"}]}],"stateMutability":"view"},{"type":"function","name":"mNameToFileKey","inputs":[{"name":"","type":"string","internalType":"string"}],"outputs":[{"name":"","type":"bytes32","internalType":"bytes32"}],"stateMutability":"view"},{"type":"function","name":"owner","inputs":[],"outputs":[{"name":"","type":"address","internalType":"address"}],"stateMutability":"view"},{"type":"function","name":"pushFileInfo","inputs":[{"name":"info","type":"tuple","internalType":"struct Info","components":[{"name":"owner","type":"address","internalType":"address"},{"name":"hash","type":"bytes32","internalType":"bytes32"},{"name":"contentLen","type":"uint64","internalType":"uint64"},{"name":"totalChunks","type":"uint64","internalType":"uint64"},{"name":"expireTime","type":"uint64","internalType":"uint64"},{"name":"name","type":"string","internalType":"string"},{"name":"ext","type":"string","internalType":"string"},{"name":"status","type":"uint8","internalType":"enum FileStatus"},{"name":"contentDisposition","type":"string","internalType":"string"},{"name":"contentID","type":"string","internalType":"string"}]}],"outputs":[{"name":"fileKey","type":"bytes32","internalType":"bytes32"}],"stateMutability":"nonpayable"},{"type":"function","name":"pushFileInfos","inputs":[{"name":"infos","type":"tuple[]","internalType":"struct Info[]","components":[{"name":"owner","type":"address","internalType":"address"},{"name":"hash","type":"bytes32","internalType":"bytes32"},{"name":"contentLen","type":"uint64","internalType":"uint64"},{"name":"totalChunks","type":"uint64","internalType":"uint64"},{"name":"expireTime","type":"uint64","internalType":"uint64"},{"name":"name","type":"string","internalType":"string"},{"name":"ext","type":"string","internalType":"string"},{"name":"status","type":"uint8","internalType":"enum FileStatus"},{"name":"contentDisposition","type":"string","internalType":"string"},{"name":"contentID","type":"string","internalType":"string"}]}],"outputs":[{"name":"","type":"bytes32[]","internalType":"bytes32[]"}],"stateMutability":"nonpayable"},{"type":"function","name":"renewTime","inputs":[{"name":"fileKey","type":"bytes32","internalType":"bytes32"},{"name":"_newExpireTime","type":"uint64","internalType":"uint64"}],"outputs":[],"stateMutability":"nonpayable"},{"type":"function","name":"service","inputs":[],"outputs":[{"name":"","type":"address","internalType":"address"}],"stateMutability":"view"},{"type":"function","name":"setService","inputs":[{"name":"_service","type":"address","internalType":"address"}],"outputs":[],"stateMutability":"nonpayable"},{"type":"function","name":"uploadChunk","inputs":[{"name":"fileKey","type":"bytes32","internalType":"bytes32"},{"name":"chunkData","type":"bytes","internalType":"bytes"},{"name":"chunkHash","type":"bytes32","internalType":"bytes32"}],"outputs":[],"stateMutability":"nonpayable"},{"type":"event","name":"ChunkUploaded","inputs":[{"name":"fileKey","type":"bytes32","indexed":true,"internalType":"bytes32"},{"name":"chunkIndex","type":"uint256","indexed":false,"internalType":"uint256"}],"anonymous":false},{"type":"event","name":"FileAdded","inputs":[{"name":"fileKey","type":"bytes32","indexed":true,"internalType":"bytes32"},{"name":"name","type":"string","indexed":false,"internalType":"string"},{"name":"contentLen","type":"uint64","indexed":false,"internalType":"uint64"}],"anonymous":false},{"type":"event","name":"FileDeleted","inputs":[{"name":"fileKey","type":"bytes32","indexed":true,"internalType":"bytes32"}],"anonymous":false},{"type":"event","name":"FileLocked","inputs":[{"name":"fileKey","type":"bytes32","indexed":true,"internalType":"bytes32"}],"anonymous":false}],"bytecode":{"object":"0x6080604052600380546001600160a01b031916331790556129db806100256000396000f3fe608060405234801561001057600080fd5b50600436106101005760003560e01c8063bf8bdac111610097578063eb070e7e11610066578063eb070e7e1461024f578063edff13af1461026f578063f25671c41461029a578063fab91940146102ad57600080fd5b8063bf8bdac1146101e7578063c652793d146101fa578063ca7e3cd41461021b578063d598d4c91461023c57600080fd5b80636e0c19b1116100d35780636e0c19b1146101765780638da5cb5b1461019657806391c03370146101c15780639b26b2a8146101d457600080fd5b806346da51781461010557806352f7347b1461012e5780635f95c07b1461014e5780636ab799f114610163575b600080fd5b610118610113366004611dd4565b6102cd565b6040516101259190611ded565b60405180910390f35b61014161013c366004611dd4565b6103aa565b6040516101259190611f9e565b61016161015c366004612077565b6106a2565b005b610161610171366004611dd4565b610a0b565b61018961018436600461227b565b610b42565b6040516101259190612330565b6003546101a9906001600160a01b031681565b6040516001600160a01b039091168152602001610125565b6101616101cf366004612374565b610bef565b6101616101e2366004611dd4565b610d36565b6101616101f53660046123a0565b610e5f565b61020d610208366004611dd4565b610eab565b6040516101259291906123bb565b61022e610229366004612400565b6111ce565b604051908152602001610125565b6002546101a9906001600160a01b031681565b61026261025d36600461243c565b611564565b60405161012591906124cc565b61022e61027d36600461252e565b805160208183018101805160018252928201919093012091525481565b6101896102a8366004612562565b61190b565b6102c06102bb366004612605565b6119c7565b6040516101259190612631565b6040805160608101825260008082526020820181905291810191909152600082815260208190526040812090600582015460ff16600381111561031257610312611e74565b1461035d5760405162461bcd60e51b815260206004820152601660248201527546696c652075706c6f6164206e6f742065786973747360501b60448201526064015b60405180910390fd5b5050600090815260208181526040918290208251606081018452600882015481526009909101546001600160401b0380821693830193909352600160401b90049091169181019190915290565b6103b2611d2c565b6000828152602081815260409182902082516101408101845281546001600160a01b0316815260018201549281019290925260028101546001600160401b0380821694840194909452600160401b810484166060840152600160801b9004909216608082015260038201805491929160a08401919061043090612686565b80601f016020809104026020016040519081016040528092919081815260200182805461045c90612686565b80156104a95780601f1061047e576101008083540402835291602001916104a9565b820191906000526020600020905b81548152906001019060200180831161048c57829003601f168201915b505050505081526020016004820180546104c290612686565b80601f01602080910402602001604051908101604052809291908181526020018280546104ee90612686565b801561053b5780601f106105105761010080835404028352916020019161053b565b820191906000526020600020905b81548152906001019060200180831161051e57829003601f168201915b5050509183525050600582015460209091019060ff16600381111561056257610562611e74565b600381111561057357610573611e74565b815260200160068201805461058790612686565b80601f01602080910402602001604051908101604052809291908181526020018280546105b390612686565b80156106005780601f106105d557610100808354040283529160200191610600565b820191906000526020600020905b8154815290600101906020018083116105e357829003601f168201915b5050505050815260200160078201805461061990612686565b80601f016020809104026020016040519081016040528092919081815260200182805461064590612686565b80156106925780601f1061066757610100808354040283529160200191610692565b820191906000526020600020905b81548152906001019060200180831161067557829003601f168201915b5050505050815250509050919050565b600082511180156106b65750612800825111155b6106f75760405162461bcd60e51b8152602060048201526012602482015271496e76616c6964206368756e6b2073697a6560701b6044820152606401610354565b600083815260208190526040902080546001600160a01b0316331461072e5760405162461bcd60e51b8152600401610354906126ba565b6002810154835160098301546001600160401b03928316926107589291600160401b900416612707565b11156107a65760405162461bcd60e51b815260206004820152601960248201527f4368756e6b20657863656564732066696c65206c656e677468000000000000006044820152606401610354565b6000600582015460ff1660038111156107c1576107c1611e74565b1461080e5760405162461bcd60e51b815260206004820152601b60248201527f46696c65206973206e6f74206265696e672070726f63657373656400000000006044820152606401610354565b600881015460405160009161082791869060200161271a565b6040516020818303038152906040528051906020012090508281146108845760405162461bcd60e51b8152602060048201526013602482015272086d0eadcd640d0c2e6d040dad2e6dac2e8c6d606b1b6044820152606401610354565b6008820181905560098201546001600160401b03166000908152600a8301602052604090206108b3858261278f565b506009820180546001600160401b03169060006108cf8361284e565b91906101000a8154816001600160401b0302191690836001600160401b031602179055505083518260080160010160088282829054906101000a90046001600160401b031661091e9190612874565b82546101009290920a6001600160401b0381810219909316918316021790915560098401546002850154600160401b909104821691161490508061097d5750600282015460098301546001600160401b03908116600160401b90920416145b156109ab5760058201805460ff19166001179055600060088301556009820180546001600160801b03191690555b600982015485907f9194bcee830b22b5e81ccd3c7efb4811ca70dfdd9bbfaa1719d15dfc18c6417d906109e9906001906001600160401b0316612894565b6040516001600160401b03909116815260200160405180910390a25050505050565b600081815260208190526040902080546001600160a01b03163314610a425760405162461bcd60e51b8152600401610354906126ba565b6003600582015460ff166003811115610a5d57610a5d611e74565b03610aa15760405162461bcd60e51b8152602060048201526014602482015273119a5b1948185b1c9958591e4819195b195d195960621b6044820152606401610354565b60058101805460ff1916600317905560005b6002820154600160401b90046001600160401b0316811015610afa576000818152600a830160205260408120610ae891611d7e565b80610af2816128b4565b915050610ab3565b506000600882018190556009820180546001600160801b031916905560405183917f88efefb1eaec3d3a0e08ed74bc99a3407d454b5da66112fed68b20d54837ccae91a25050565b6060600082516001600160401b03811115610b5f57610b5f611fb1565b604051908082528060200260200182016040528015610b88578160200160208202803683370190505b50905060005b8351811015610be857610bb9848281518110610bac57610bac6128cd565b60200260200101516111ce565b828281518110610bcb57610bcb6128cd565b602090810291909101015280610be0816128b4565b915050610b8e565b5092915050565b600082815260208190526040902080546001600160a01b03163314610c265760405162461bcd60e51b8152600401610354906126ba565b6003600582015460ff166003811115610c4157610c41611e74565b03610c865760405162461bcd60e51b8152602060048201526015602482015274119a5b19481a185cc81899595b8819195b195d1959605a1b6044820152606401610354565b610c934262015180612707565b826001600160401b031611610d075760405162461bcd60e51b815260206004820152603460248201527f4e6577206578706972652074696d65206d757374206265206174206c6561737460448201527320312064617920696e207468652066757475726560601b6064820152608401610354565b60020180546001600160401b03909216600160801b0267ffffffffffffffff60801b1990921691909117905550565b600081815260208190526040902080546001600160a01b03163314610d6d5760405162461bcd60e51b8152600401610354906126ba565b6001600582015460ff166003811115610d8857610d88611e74565b14610dca5760405162461bcd60e51b815260206004820152601260248201527146696c65206973206e6f742061637469766560701b6044820152606401610354565b6002810154600160801b90046001600160401b0316421115610e215760405162461bcd60e51b815260206004820152601060248201526f119a5b19481a185cc8195e1c1a5c995960821b6044820152606401610354565b60058101805460ff1916600217905560405182907f45987cd84c3c0ec7c3b91dde29affe01363c3777aec1247553883b243174733090600090a25050565b6003546001600160a01b03163314610e895760405162461bcd60e51b8152600401610354906126ba565b600280546001600160a01b0319166001600160a01b0392909216919091179055565b6000602081815291815260409081902081516101408101835281546001600160a01b0316815260018201549381019390935260028101546001600160401b0380821693850193909352600160401b810483166060850152600160801b90049091166080830152600381018054919291839160a0840191610f2a90612686565b80601f0160208091040260200160405190810160405280929190818152602001828054610f5690612686565b8015610fa35780601f10610f7857610100808354040283529160200191610fa3565b820191906000526020600020905b815481529060010190602001808311610f8657829003601f168201915b50505050508152602001600482018054610fbc90612686565b80601f0160208091040260200160405190810160405280929190818152602001828054610fe890612686565b80156110355780601f1061100a57610100808354040283529160200191611035565b820191906000526020600020905b81548152906001019060200180831161101857829003601f168201915b5050509183525050600582015460209091019060ff16600381111561105c5761105c611e74565b600381111561106d5761106d611e74565b815260200160068201805461108190612686565b80601f01602080910402602001604051908101604052809291908181526020018280546110ad90612686565b80156110fa5780601f106110cf576101008083540402835291602001916110fa565b820191906000526020600020905b8154815290600101906020018083116110dd57829003601f168201915b5050505050815260200160078201805461111390612686565b80601f016020809104026020016040519081016040528092919081815260200182805461113f90612686565b801561118c5780601f106111615761010080835404028352916020019161118c565b820191906000526020600020905b81548152906001019060200180831161116f57829003601f168201915b50505091909252505060408051606081018252600885015481526009909401546001600160401b038082166020870152600160401b9091041690840152509082565b60006111dd4262015180612707565b82608001516001600160401b0316116112515760405162461bcd60e51b815260206004820152603060248201527f4578706972652074696d65206d757374206265206174206c656173742031206460448201526f617920696e207468652066757475726560801b6064820152608401610354565b8160400151826080015183602001518460a001518560c0015142604051602001611280969594939291906128e3565b6040516020818303038152906040528051906020012090508060018360a001516040516112ad919061294b565b9081526040805160209281900383019020929092556000838152908190522060010154156113135760405162461bcd60e51b815260206004820152601360248201527246696c6520616c72656164792065786973747360681b6044820152606401610354565b604051806101400160405280336001600160a01b031681526020018360200151815260200183604001516001600160401b0316815260200183606001516001600160401b0316815260200183608001516001600160401b031681526020018360a0015181526020018360c0015181526020016000600381111561139857611398611e74565b81526101008401516020808301919091526101208501516040928301526000848152808252829020835181546001600160a01b039091166001600160a01b031990911617815590830151600182015590820151600282018054606085015160808601516001600160401b03908116600160801b0267ffffffffffffffff60801b19928216600160401b026001600160801b03199094169190951617919091171691909117905560a08201516003820190611452908261278f565b5060c08201516004820190611467908261278f565b5060e082015160058201805460ff1916600183600381111561148b5761148b611e74565b021790555061010082015160068201906114a5908261278f565b5061012082015160078201906114bb908261278f565b5050604080516060810182526000808252602080830182815283850183815287845291839052918490209251600884015590516009909201805491516001600160401b03908116600160401b026001600160801b031990931693169290921717905560a08401518482015191518493507f7f2db28bb9cdbd41f93b3953994de4298cc665dda981f021c84fc9b4b367f11e926115579291612967565b60405180910390a2919050565b606081516001600160401b0381111561157f5761157f611fb1565b6040519080825280602002602001820160405280156115b857816020015b6115a5611d2c565b81526020019060019003908161159d5790505b50905060005b82518110156119055760008060008584815181106115de576115de6128cd565b602090810291909101810151825281810192909252604090810160002081516101408101835281546001600160a01b0316815260018201549381019390935260028101546001600160401b0380821693850193909352600160401b810483166060850152600160801b9004909116608083015260038101805460a08401919061166690612686565b80601f016020809104026020016040519081016040528092919081815260200182805461169290612686565b80156116df5780601f106116b4576101008083540402835291602001916116df565b820191906000526020600020905b8154815290600101906020018083116116c257829003601f168201915b505050505081526020016004820180546116f890612686565b80601f016020809104026020016040519081016040528092919081815260200182805461172490612686565b80156117715780601f1061174657610100808354040283529160200191611771565b820191906000526020600020905b81548152906001019060200180831161175457829003601f168201915b5050509183525050600582015460209091019060ff16600381111561179857611798611e74565b60038111156117a9576117a9611e74565b81526020016006820180546117bd90612686565b80601f01602080910402602001604051908101604052809291908181526020018280546117e990612686565b80156118365780601f1061180b57610100808354040283529160200191611836565b820191906000526020600020905b81548152906001019060200180831161181957829003601f168201915b5050505050815260200160078201805461184f90612686565b80601f016020809104026020016040519081016040528092919081815260200182805461187b90612686565b80156118c85780601f1061189d576101008083540402835291602001916118c8565b820191906000526020600020905b8154815290600101906020018083116118ab57829003601f168201915b5050505050815250509050808383815181106118e6576118e66128cd565b60200260200101819052505080806118fd906128b4565b9150506115be565b50919050565b6060600082516001600160401b0381111561192857611928611fb1565b604051908082528060200260200182016040528015611951578160200160208202803683370190505b50905060005b8351811015610be8576001848281518110611974576119746128cd565b6020026020010151604051611989919061294b565b9081526020016040518091039020548282815181106119aa576119aa6128cd565b6020908102919091010152806119bf816128b4565b915050611957565b60008381526020819052604090206060906001600582015460ff1660038111156119f3576119f3611e74565b14611a405760405162461bcd60e51b815260206004820152601760248201527f46696c652075706c6f6164206e6f7420616374697665640000000000000000006044820152606401610354565b60028101546001600160401b0316611a905760405162461bcd60e51b8152602060048201526013602482015272119a5b1948191bd95cc81b9bdd08195e1a5cdd606a1b6044820152606401610354565b6002810154600160401b90046001600160401b03168410611af35760405162461bcd60e51b815260206004820152601860248201527f537461727420696e646578206f7574206f662072616e676500000000000000006044820152606401610354565b60008311611b435760405162461bcd60e51b815260206004820152601f60248201527f4c696d6974206d7573742062652067726561746572207468616e207a65726f006044820152606401610354565b6002810154600160801b90046001600160401b0316421115611b9a5760405162461bcd60e51b815260206004820152601060248201526f119a5b19481a185cc8195e1c1a5c995960821b6044820152606401610354565b6002810154600090600160401b90046001600160401b0316611bbc8587612707565b11611bd057611bcb8486612707565b611be6565b6002820154600160401b90046001600160401b03165b90506000611bf48683612992565b6001600160401b03811115611c0b57611c0b611fb1565b604051908082528060200260200182016040528015611c3e57816020015b6060815260200190600190039081611c295790505b509050855b82811015611d1f576000818152600a8501602052604090208054611c6690612686565b80601f0160208091040260200160405190810160405280929190818152602001828054611c9290612686565b8015611cdf5780601f10611cb457610100808354040283529160200191611cdf565b820191906000526020600020905b815481529060010190602001808311611cc257829003601f168201915b5050505050828883611cf19190612992565b81518110611d0157611d016128cd565b60200260200101819052508080611d17906128b4565b915050611c43565b50925050505b9392505050565b604080516101408101825260008082526020820181905291810182905260608082018390526080820183905260a0820181905260c08201529060e0820190815260200160608152602001606081525090565b508054611d8a90612686565b6000825580601f10611d9a575050565b601f016020900490600052602060002090810190611db89190611dbb565b50565b5b80821115611dd05760008155600101611dbc565b5090565b600060208284031215611de657600080fd5b5035919050565b60608101611e1e8284805182526020808201516001600160401b039081169184019190915260409182015116910152565b92915050565b60005b83811015611e3f578181015183820152602001611e27565b50506000910152565b60008151808452611e60816020860160208601611e24565b601f01601f19169290920160200192915050565b634e487b7160e01b600052602160045260246000fd5b60048110611ea857634e487b7160e01b600052602160045260246000fd5b9052565b80516001600160a01b031682526000610140602083015160208501526040830151611ee260408601826001600160401b03169052565b506060830151611efd60608601826001600160401b03169052565b506080830151611f1860808601826001600160401b03169052565b5060a08301518160a0860152611f3082860182611e48565b91505060c083015184820360c0860152611f4a8282611e48565b91505060e0830151611f5f60e0860182611e8a565b506101008084015185830382870152611f788382611e48565b925050506101208084015185830382870152611f948382611e48565b9695505050505050565b602081526000611d256020830184611eac565b634e487b7160e01b600052604160045260246000fd5b60405161014081016001600160401b0381118282101715611fea57611fea611fb1565b60405290565b604051601f8201601f191681016001600160401b038111828210171561201857612018611fb1565b604052919050565b60006001600160401b0383111561203957612039611fb1565b61204c601f8401601f1916602001611ff0565b905082815283838301111561206057600080fd5b828260208301376000602084830101529392505050565b60008060006060848603121561208c57600080fd5b8335925060208401356001600160401b038111156120a957600080fd5b8401601f810186136120ba57600080fd5b6120c986823560208401612020565b925050604084013590509250925092565b60006001600160401b038211156120f3576120f3611fb1565b5060051b60200190565b80356001600160a01b038116811461211457600080fd5b919050565b80356001600160401b038116811461211457600080fd5b600082601f83011261214157600080fd5b611d2583833560208501612020565b80356004811061211457600080fd5b6000610140828403121561217257600080fd5b61217a611fc7565b9050612185826120fd565b81526020820135602082015261219d60408301612119565b60408201526121ae60608301612119565b60608201526121bf60808301612119565b608082015260a08201356001600160401b03808211156121de57600080fd5b6121ea85838601612130565b60a084015260c084013591508082111561220357600080fd5b61220f85838601612130565b60c084015261222060e08501612150565b60e08401526101009150818401358181111561223b57600080fd5b61224786828701612130565b83850152506101209150818401358181111561226257600080fd5b61226e86828701612130565b8385015250505092915050565b6000602080838503121561228e57600080fd5b82356001600160401b03808211156122a557600080fd5b818501915085601f8301126122b957600080fd5b81356122cc6122c7826120da565b611ff0565b81815260059190911b830184019084810190888311156122eb57600080fd5b8585015b83811015612323578035858111156123075760008081fd5b6123158b89838a010161215f565b8452509186019186016122ef565b5098975050505050505050565b6020808252825182820181905260009190848201906040850190845b818110156123685783518352928401929184019160010161234c565b50909695505050505050565b6000806040838503121561238757600080fd5b8235915061239760208401612119565b90509250929050565b6000602082840312156123b257600080fd5b611d25826120fd565b6080815260006123ce6080830185611eac565b9050611d256020830184805182526020808201516001600160401b039081169184019190915260409182015116910152565b60006020828403121561241257600080fd5b81356001600160401b0381111561242857600080fd5b6124348482850161215f565b949350505050565b6000602080838503121561244f57600080fd5b82356001600160401b0381111561246557600080fd5b8301601f8101851361247657600080fd5b80356124846122c7826120da565b81815260059190911b820183019083810190878311156124a357600080fd5b928401925b828410156124c1578335825292840192908401906124a8565b979650505050505050565b6000602080830181845280855180835260408601915060408160051b870101925083870160005b8281101561252157603f1988860301845261250f858351611eac565b945092850192908501906001016124f3565b5092979650505050505050565b60006020828403121561254057600080fd5b81356001600160401b0381111561255657600080fd5b61243484828501612130565b6000602080838503121561257557600080fd5b82356001600160401b038082111561258c57600080fd5b818501915085601f8301126125a057600080fd5b81356125ae6122c7826120da565b81815260059190911b830184019084810190888311156125cd57600080fd5b8585015b83811015612323578035858111156125e95760008081fd5b6125f78b89838a0101612130565b8452509186019186016125d1565b60008060006060848603121561261a57600080fd5b505081359360208301359350604090920135919050565b6000602080830181845280855180835260408601915060408160051b870101925083870160005b8281101561252157603f19888603018452612674858351611e48565b94509285019290850190600101612658565b600181811c9082168061269a57607f821691505b60208210810361190557634e487b7160e01b600052602260045260246000fd5b60208082526017908201527f43616c6c6572206973206e6f7420746865206f776e6572000000000000000000604082015260600190565b634e487b7160e01b600052601160045260246000fd5b80820180821115611e1e57611e1e6126f1565b82815260008251612732816020850160208701611e24565b919091016020019392505050565b601f82111561278a57600081815260208120601f850160051c810160208610156127675750805b601f850160051c820191505b8181101561278657828155600101612773565b5050505b505050565b81516001600160401b038111156127a8576127a8611fb1565b6127bc816127b68454612686565b84612740565b602080601f8311600181146127f157600084156127d95750858301515b600019600386901b1c1916600185901b178555612786565b600085815260208120601f198616915b8281101561282057888601518255948401946001909101908401612801565b508582101561283e5787850151600019600388901b60f8161c191681555b5050505050600190811b01905550565b60006001600160401b0380831681810361286a5761286a6126f1565b6001019392505050565b6001600160401b03818116838216019080821115610be857610be86126f1565b6001600160401b03828116828216039080821115610be857610be86126f1565b6000600182016128c6576128c66126f1565b5060010190565b634e487b7160e01b600052603260045260246000fd5b60006001600160401b0360c01b808960c01b168352808860c01b16600884015250856010830152845161291d816030850160208901611e24565b845190830190612934816030840160208901611e24565b016030810193909352505060500195945050505050565b6000825161295d818460208701611e24565b9190910192915050565b60408152600061297a6040830185611e48565b90506001600160401b03831660208301529392505050565b81810381811115611e1e57611e1e6126f156fea264697066735822122010153cee893a438328c058cf0042f3efba65a9b9d6e1d96975c05770f167f60564736f6c63430008130033","linkReferences":{}},"methodIdentifiers":{"deleteFile(bytes32)":"6ab799f1","downloadFile(bytes32,uint256,uint256)":"fab91940","getFileInfo(bytes32)":"52f7347b","getFileKeyFromName(string[])":"f25671c4","getFileProgress(bytes32)":"46da5178","getFilesInfo(bytes32[])":"eb070e7e","lockFile(bytes32)":"9b26b2a8","mKeyToFileInfo(bytes32)":"c652793d","mNameToFileKey(string)":"edff13af","owner()":"8da5cb5b","pushFileInfo((address,bytes32,uint64,uint64,uint64,string,string,uint8,string,string))":"ca7e3cd4","pushFileInfos((address,bytes32,uint64,uint64,uint64,string,string,uint8,string,string)[])":"6e0c19b1","renewTime(bytes32,uint64)":"91c03370","service()":"d598d4c9","setService(address)":"bf8bdac1","uploadChunk(bytes32,bytes,bytes32)":"5f95c07b"},"id":23}