{"abi":[{"type":"constructor","inputs":[],"stateMutability":"payable"},{"type":"function","name":"deleteFile","inputs":[{"name":"fileKey","type":"bytes32","internalType":"bytes32"}],"outputs":[],"stateMutability":"nonpayable"},{"type":"function","name":"downloadFile","inputs":[{"name":"fileKey","type":"bytes32","internalType":"bytes32"},{"name":"start","type":"uint256","internalType":"uint256"},{"name":"limit","type":"uint256","internalType":"uint256"}],"outputs":[{"name":"","type":"bytes[]","internalType":"bytes[]"}],"stateMutability":"view"},{"type":"function","name":"getFileInfo","inputs":[{"name":"fileKey","type":"bytes32","internalType":"bytes32"}],"outputs":[{"name":"","type":"tuple","internalType":"struct Info","components":[{"name":"owner","type":"address","internalType":"address"},{"name":"hash","type":"bytes32","internalType":"bytes32"},{"name":"contentLen","type":"uint64","internalType":"uint64"},{"name":"totalChunks","type":"uint64","internalType":"uint64"},{"name":"expireTime","type":"uint64","internalType":"uint64"},{"name":"name","type":"string","internalType":"string"},{"name":"ext","type":"string","internalType":"string"},{"name":"status","type":"uint8","internalType":"enum FileStatus"},{"name":"contentDisposition","type":"string","internalType":"string"},{"name":"contentID","type":"string","internalType":"string"}]}],"stateMutability":"view"},{"type":"function","name":"getFileProgress","inputs":[{"name":"fileKey","type":"bytes32","internalType":"bytes32"}],"outputs":[{"name":"","type":"tuple","internalType":"struct FileProgress","components":[{"name":"lastChunkHash","type":"bytes32","internalType":"bytes32"},{"name":"processedChunks","type":"uint64","internalType":"uint64"},{"name":"processedLength","type":"uint64","internalType":"uint64"}]}],"stateMutability":"view"},{"type":"function","name":"getFilesInfo","inputs":[{"name":"fileKeys","type":"bytes32[]","internalType":"bytes32[]"}],"outputs":[{"name":"infos","type":"tuple[]","internalType":"struct Info[]","components":[{"name":"owner","type":"address","internalType":"address"},{"name":"hash","type":"bytes32","internalType":"bytes32"},{"name":"contentLen","type":"uint64","internalType":"uint64"},{"name":"totalChunks","type":"uint64","internalType":"uint64"},{"name":"expireTime","type":"uint64","internalType":"uint64"},{"name":"name","type":"string","internalType":"string"},{"name":"ext","type":"string","internalType":"string"},{"name":"status","type":"uint8","internalType":"enum FileStatus"},{"name":"contentDisposition","type":"string","internalType":"string"},{"name":"contentID","type":"string","internalType":"string"}]}],"stateMutability":"view"},{"type":"function","name":"lockFile","inputs":[{"name":"fileKey","type":"bytes32","internalType":"bytes32"}],"outputs":[],"stateMutability":"nonpayable"},{"type":"function","name":"mKeyToFileInfo","inputs":[{"name":"","type":"bytes32","internalType":"bytes32"}],"outputs":[{"name":"info","type":"tuple","internalType":"struct Info","components":[{"name":"owner","type":"address","internalType":"address"},{"name":"hash","type":"bytes32","internalType":"bytes32"},{"name":"contentLen","type":"uint64","internalType":"uint64"},{"name":"totalChunks","type":"uint64","internalType":"uint64"},{"name":"expireTime","type":"uint64","internalType":"uint64"},{"name":"name","type":"string","internalType":"string"},{"name":"ext","type":"string","internalType":"string"},{"name":"status","type":"uint8","internalType":"enum FileStatus"},{"name":"contentDisposition","type":"string","internalType":"string"},{"name":"contentID","type":"string","internalType":"string"}]},{"name":"progress","type":"tuple","internalType":"struct FileProgress","components":[{"name":"lastChunkHash","type":"bytes32","internalType":"bytes32"},{"name":"processedChunks","type":"uint64","internalType":"uint64"},{"name":"processedLength","type":"uint64","internalType":"uint64"}]}],"stateMutability":"view"},{"type":"function","name":"owner","inputs":[],"outputs":[{"name":"","type":"address","internalType":"address"}],"stateMutability":"view"},{"type":"function","name":"pushFileInfo","inputs":[{"name":"info","type":"tuple","internalType":"struct Info","components":[{"name":"owner","type":"address","internalType":"address"},{"name":"hash","type":"bytes32","internalType":"bytes32"},{"name":"contentLen","type":"uint64","internalType":"uint64"},{"name":"totalChunks","type":"uint64","internalType":"uint64"},{"name":"expireTime","type":"uint64","internalType":"uint64"},{"name":"name","type":"string","internalType":"string"},{"name":"ext","type":"string","internalType":"string"},{"name":"status","type":"uint8","internalType":"enum FileStatus"},{"name":"contentDisposition","type":"string","internalType":"string"},{"name":"contentID","type":"string","internalType":"string"}]}],"outputs":[{"name":"fileKey","type":"bytes32","internalType":"bytes32"}],"stateMutability":"nonpayable"},{"type":"function","name":"renewTime","inputs":[{"name":"fileKey","type":"bytes32","internalType":"bytes32"},{"name":"_newExpireTime","type":"uint64","internalType":"uint64"}],"outputs":[],"stateMutability":"nonpayable"},{"type":"function","name":"service","inputs":[],"outputs":[{"name":"","type":"address","internalType":"address"}],"stateMutability":"view"},{"type":"function","name":"setService","inputs":[{"name":"_service","type":"address","internalType":"address"}],"outputs":[],"stateMutability":"nonpayable"},{"type":"function","name":"uploadChunk","inputs":[{"name":"fileKey","type":"bytes32","internalType":"bytes32"},{"name":"chunkData","type":"bytes","internalType":"bytes"},{"name":"chunkHash","type":"bytes32","internalType":"bytes32"}],"outputs":[],"stateMutability":"nonpayable"},{"type":"event","name":"ChunkUploaded","inputs":[{"name":"fileKey","type":"bytes32","indexed":true,"internalType":"bytes32"},{"name":"chunkIndex","type":"uint256","indexed":false,"internalType":"uint256"}],"anonymous":false},{"type":"event","name":"FileAdded","inputs":[{"name":"fileKey","type":"bytes32","indexed":true,"internalType":"bytes32"},{"name":"name","type":"string","indexed":false,"internalType":"string"},{"name":"contentLen","type":"uint64","indexed":false,"internalType":"uint64"}],"anonymous":false},{"type":"event","name":"FileDeleted","inputs":[{"name":"fileKey","type":"bytes32","indexed":true,"internalType":"bytes32"}],"anonymous":false},{"type":"event","name":"FileLocked","inputs":[{"name":"fileKey","type":"bytes32","indexed":true,"internalType":"bytes32"}],"anonymous":false}],"bytecode":{"object":"0x6080604052600280546001600160a01b031916331790556125b0806100256000396000f3fe608060405234801561001057600080fd5b50600436106100cf5760003560e01c80639b26b2a81161008c578063ca7e3cd411610066578063ca7e3cd4146101ca578063d598d4c9146101eb578063eb070e7e146101fe578063fab919401461021e57600080fd5b80639b26b2a814610183578063bf8bdac114610196578063c652793d146101a957600080fd5b806346da5178146100d457806352f7347b146100fd5780635f95c07b1461011d5780636ab799f1146101325780638da5cb5b1461014557806391c0337014610170575b600080fd5b6100e76100e2366004611bb6565b61023e565b6040516100f49190611bcf565b60405180910390f35b61011061010b366004611bb6565b61031b565b6040516100f49190611d80565b61013061012b366004611e59565b610613565b005b610130610140366004611bb6565b61097c565b600254610158906001600160a01b031681565b6040516001600160a01b0390911681526020016100f4565b61013061017e366004611ed8565b610ab3565b610130610191366004611bb6565b610bfa565b6101306101a4366004611f1b565b610d23565b6101bc6101b7366004611bb6565b610d6f565b6040516100f4929190611f36565b6101dd6101d8366004611faa565b611092565b6040519081526020016100f4565b600154610158906001600160a01b031681565b61021161020c3660046120e8565b611402565b6040516100f4919061218d565b61023161022c3660046121ef565b6117a9565b6040516100f4919061221b565b6040805160608101825260008082526020820181905291810191909152600082815260208190526040812090600582015460ff16600381111561028357610283611c56565b146102ce5760405162461bcd60e51b815260206004820152601660248201527546696c652075706c6f6164206e6f742065786973747360501b60448201526064015b60405180910390fd5b5050600090815260208181526040918290208251606081018452600882015481526009909101546001600160401b0380821693830193909352600160401b90049091169181019190915290565b610323611b0e565b6000828152602081815260409182902082516101408101845281546001600160a01b0316815260018201549281019290925260028101546001600160401b0380821694840194909452600160401b810484166060840152600160801b9004909216608082015260038201805491929160a0840191906103a190612270565b80601f01602080910402602001604051908101604052809291908181526020018280546103cd90612270565b801561041a5780601f106103ef5761010080835404028352916020019161041a565b820191906000526020600020905b8154815290600101906020018083116103fd57829003601f168201915b5050505050815260200160048201805461043390612270565b80601f016020809104026020016040519081016040528092919081815260200182805461045f90612270565b80156104ac5780601f10610481576101008083540402835291602001916104ac565b820191906000526020600020905b81548152906001019060200180831161048f57829003601f168201915b5050509183525050600582015460209091019060ff1660038111156104d3576104d3611c56565b60038111156104e4576104e4611c56565b81526020016006820180546104f890612270565b80601f016020809104026020016040519081016040528092919081815260200182805461052490612270565b80156105715780601f1061054657610100808354040283529160200191610571565b820191906000526020600020905b81548152906001019060200180831161055457829003601f168201915b5050505050815260200160078201805461058a90612270565b80601f01602080910402602001604051908101604052809291908181526020018280546105b690612270565b80156106035780601f106105d857610100808354040283529160200191610603565b820191906000526020600020905b8154815290600101906020018083116105e657829003601f168201915b5050505050815250509050919050565b600082511180156106275750612800825111155b6106685760405162461bcd60e51b8152602060048201526012602482015271496e76616c6964206368756e6b2073697a6560701b60448201526064016102c5565b600083815260208190526040902080546001600160a01b0316331461069f5760405162461bcd60e51b81526004016102c5906122a4565b6002810154835160098301546001600160401b03928316926106c99291600160401b9004166122f1565b11156107175760405162461bcd60e51b815260206004820152601960248201527f4368756e6b20657863656564732066696c65206c656e6774680000000000000060448201526064016102c5565b6000600582015460ff16600381111561073257610732611c56565b1461077f5760405162461bcd60e51b815260206004820152601b60248201527f46696c65206973206e6f74206265696e672070726f636573736564000000000060448201526064016102c5565b6008810154604051600091610798918690602001612304565b6040516020818303038152906040528051906020012090508281146107f55760405162461bcd60e51b8152602060048201526013602482015272086d0eadcd640d0c2e6d040dad2e6dac2e8c6d606b1b60448201526064016102c5565b6008820181905560098201546001600160401b03166000908152600a8301602052604090206108248582612379565b506009820180546001600160401b031690600061084083612438565b91906101000a8154816001600160401b0302191690836001600160401b031602179055505083518260080160010160088282829054906101000a90046001600160401b031661088f919061245e565b82546101009290920a6001600160401b0381810219909316918316021790915560098401546002850154600160401b90910482169116149050806108ee5750600282015460098301546001600160401b03908116600160401b90920416145b1561091c5760058201805460ff19166001179055600060088301556009820180546001600160801b03191690555b600982015485907f9194bcee830b22b5e81ccd3c7efb4811ca70dfdd9bbfaa1719d15dfc18c6417d9061095a906001906001600160401b0316612485565b6040516001600160401b03909116815260200160405180910390a25050505050565b600081815260208190526040902080546001600160a01b031633146109b35760405162461bcd60e51b81526004016102c5906122a4565b6003600582015460ff1660038111156109ce576109ce611c56565b03610a125760405162461bcd60e51b8152602060048201526014602482015273119a5b1948185b1c9958591e4819195b195d195960621b60448201526064016102c5565b60058101805460ff1916600317905560005b6002820154600160401b90046001600160401b0316811015610a6b576000818152600a830160205260408120610a5991611b60565b80610a63816124a5565b915050610a24565b506000600882018190556009820180546001600160801b031916905560405183917f88efefb1eaec3d3a0e08ed74bc99a3407d454b5da66112fed68b20d54837ccae91a25050565b600082815260208190526040902080546001600160a01b03163314610aea5760405162461bcd60e51b81526004016102c5906122a4565b6003600582015460ff166003811115610b0557610b05611c56565b03610b4a5760405162461bcd60e51b8152602060048201526015602482015274119a5b19481a185cc81899595b8819195b195d1959605a1b60448201526064016102c5565b610b5742620151806122f1565b826001600160401b031611610bcb5760405162461bcd60e51b815260206004820152603460248201527f4e6577206578706972652074696d65206d757374206265206174206c6561737460448201527320312064617920696e207468652066757475726560601b60648201526084016102c5565b60020180546001600160401b03909216600160801b0267ffffffffffffffff60801b1990921691909117905550565b600081815260208190526040902080546001600160a01b03163314610c315760405162461bcd60e51b81526004016102c5906122a4565b6001600582015460ff166003811115610c4c57610c4c611c56565b14610c8e5760405162461bcd60e51b815260206004820152601260248201527146696c65206973206e6f742061637469766560701b60448201526064016102c5565b6002810154600160801b90046001600160401b0316421115610ce55760405162461bcd60e51b815260206004820152601060248201526f119a5b19481a185cc8195e1c1a5c995960821b60448201526064016102c5565b60058101805460ff1916600217905560405182907f45987cd84c3c0ec7c3b91dde29affe01363c3777aec1247553883b243174733090600090a25050565b6002546001600160a01b03163314610d4d5760405162461bcd60e51b81526004016102c5906122a4565b600180546001600160a01b0319166001600160a01b0392909216919091179055565b6000602081815291815260409081902081516101408101835281546001600160a01b0316815260018201549381019390935260028101546001600160401b0380821693850193909352600160401b810483166060850152600160801b90049091166080830152600381018054919291839160a0840191610dee90612270565b80601f0160208091040260200160405190810160405280929190818152602001828054610e1a90612270565b8015610e675780601f10610e3c57610100808354040283529160200191610e67565b820191906000526020600020905b815481529060010190602001808311610e4a57829003601f168201915b50505050508152602001600482018054610e8090612270565b80601f0160208091040260200160405190810160405280929190818152602001828054610eac90612270565b8015610ef95780601f10610ece57610100808354040283529160200191610ef9565b820191906000526020600020905b815481529060010190602001808311610edc57829003601f168201915b5050509183525050600582015460209091019060ff166003811115610f2057610f20611c56565b6003811115610f3157610f31611c56565b8152602001600682018054610f4590612270565b80601f0160208091040260200160405190810160405280929190818152602001828054610f7190612270565b8015610fbe5780601f10610f9357610100808354040283529160200191610fbe565b820191906000526020600020905b815481529060010190602001808311610fa157829003601f168201915b50505050508152602001600782018054610fd790612270565b80601f016020809104026020016040519081016040528092919081815260200182805461100390612270565b80156110505780601f1061102557610100808354040283529160200191611050565b820191906000526020600020905b81548152906001019060200180831161103357829003601f168201915b50505091909252505060408051606081018252600885015481526009909401546001600160401b038082166020870152600160401b9091041690840152509082565b60006110a142620151806122f1565b82608001516001600160401b0316116111155760405162461bcd60e51b815260206004820152603060248201527f4578706972652074696d65206d757374206265206174206c656173742031206460448201526f617920696e207468652066757475726560801b60648201526084016102c5565b8160400151826080015183602001518460a001518560c0015142604051602001611144969594939291906124be565b60408051601f198184030181529181528151602092830120600081815292839052912060010154909150156111b15760405162461bcd60e51b815260206004820152601360248201527246696c6520616c72656164792065786973747360681b60448201526064016102c5565b604051806101400160405280336001600160a01b031681526020018360200151815260200183604001516001600160401b0316815260200183606001516001600160401b0316815260200183608001516001600160401b031681526020018360a0015181526020018360c0015181526020016000600381111561123657611236611c56565b81526101008401516020808301919091526101208501516040928301526000848152808252829020835181546001600160a01b039091166001600160a01b031990911617815590830151600182015590820151600282018054606085015160808601516001600160401b03908116600160801b0267ffffffffffffffff60801b19928216600160401b026001600160801b03199094169190951617919091171691909117905560a082015160038201906112f09082612379565b5060c082015160048201906113059082612379565b5060e082015160058201805460ff1916600183600381111561132957611329611c56565b021790555061010082015160068201906113439082612379565b5061012082015160078201906113599082612379565b5050604080516060810182526000808252602080830182815283850183815287845291839052918490209251600884015590516009909201805491516001600160401b03908116600160401b026001600160801b031990931693169290921717905560a08401518482015191518493507f7f2db28bb9cdbd41f93b3953994de4298cc665dda981f021c84fc9b4b367f11e926113f59291612526565b60405180910390a2919050565b606081516001600160401b0381111561141d5761141d611d93565b60405190808252806020026020018201604052801561145657816020015b611443611b0e565b81526020019060019003908161143b5790505b50905060005b82518110156117a357600080600085848151811061147c5761147c612551565b602090810291909101810151825281810192909252604090810160002081516101408101835281546001600160a01b0316815260018201549381019390935260028101546001600160401b0380821693850193909352600160401b810483166060850152600160801b9004909116608083015260038101805460a08401919061150490612270565b80601f016020809104026020016040519081016040528092919081815260200182805461153090612270565b801561157d5780601f106115525761010080835404028352916020019161157d565b820191906000526020600020905b81548152906001019060200180831161156057829003601f168201915b5050505050815260200160048201805461159690612270565b80601f01602080910402602001604051908101604052809291908181526020018280546115c290612270565b801561160f5780601f106115e45761010080835404028352916020019161160f565b820191906000526020600020905b8154815290600101906020018083116115f257829003601f168201915b5050509183525050600582015460209091019060ff16600381111561163657611636611c56565b600381111561164757611647611c56565b815260200160068201805461165b90612270565b80601f016020809104026020016040519081016040528092919081815260200182805461168790612270565b80156116d45780601f106116a9576101008083540402835291602001916116d4565b820191906000526020600020905b8154815290600101906020018083116116b757829003601f168201915b505050505081526020016007820180546116ed90612270565b80601f016020809104026020016040519081016040528092919081815260200182805461171990612270565b80156117665780601f1061173b57610100808354040283529160200191611766565b820191906000526020600020905b81548152906001019060200180831161174957829003601f168201915b50505050508152505090508083838151811061178457611784612551565b602002602001018190525050808061179b906124a5565b91505061145c565b50919050565b60008381526020819052604090206060906001600582015460ff1660038111156117d5576117d5611c56565b146118225760405162461bcd60e51b815260206004820152601760248201527f46696c652075706c6f6164206e6f74206163746976656400000000000000000060448201526064016102c5565b60028101546001600160401b03166118725760405162461bcd60e51b8152602060048201526013602482015272119a5b1948191bd95cc81b9bdd08195e1a5cdd606a1b60448201526064016102c5565b6002810154600160401b90046001600160401b031684106118d55760405162461bcd60e51b815260206004820152601860248201527f537461727420696e646578206f7574206f662072616e6765000000000000000060448201526064016102c5565b600083116119255760405162461bcd60e51b815260206004820152601f60248201527f4c696d6974206d7573742062652067726561746572207468616e207a65726f0060448201526064016102c5565b6002810154600160801b90046001600160401b031642111561197c5760405162461bcd60e51b815260206004820152601060248201526f119a5b19481a185cc8195e1c1a5c995960821b60448201526064016102c5565b6002810154600090600160401b90046001600160401b031661199e85876122f1565b116119b2576119ad84866122f1565b6119c8565b6002820154600160401b90046001600160401b03165b905060006119d68683612567565b6001600160401b038111156119ed576119ed611d93565b604051908082528060200260200182016040528015611a2057816020015b6060815260200190600190039081611a0b5790505b509050855b82811015611b01576000818152600a8501602052604090208054611a4890612270565b80601f0160208091040260200160405190810160405280929190818152602001828054611a7490612270565b8015611ac15780601f10611a9657610100808354040283529160200191611ac1565b820191906000526020600020905b815481529060010190602001808311611aa457829003601f168201915b5050505050828883611ad39190612567565b81518110611ae357611ae3612551565b60200260200101819052508080611af9906124a5565b915050611a25565b50925050505b9392505050565b604080516101408101825260008082526020820181905291810182905260608082018390526080820183905260a0820181905260c08201529060e0820190815260200160608152602001606081525090565b508054611b6c90612270565b6000825580601f10611b7c575050565b601f016020900490600052602060002090810190611b9a9190611b9d565b50565b5b80821115611bb25760008155600101611b9e565b5090565b600060208284031215611bc857600080fd5b5035919050565b60608101611c008284805182526020808201516001600160401b039081169184019190915260409182015116910152565b92915050565b60005b83811015611c21578181015183820152602001611c09565b50506000910152565b60008151808452611c42816020860160208601611c06565b601f01601f19169290920160200192915050565b634e487b7160e01b600052602160045260246000fd5b60048110611c8a57634e487b7160e01b600052602160045260246000fd5b9052565b80516001600160a01b031682526000610140602083015160208501526040830151611cc460408601826001600160401b03169052565b506060830151611cdf60608601826001600160401b03169052565b506080830151611cfa60808601826001600160401b03169052565b5060a08301518160a0860152611d1282860182611c2a565b91505060c083015184820360c0860152611d2c8282611c2a565b91505060e0830151611d4160e0860182611c6c565b506101008084015185830382870152611d5a8382611c2a565b925050506101208084015185830382870152611d768382611c2a565b9695505050505050565b602081526000611b076020830184611c8e565b634e487b7160e01b600052604160045260246000fd5b60405161014081016001600160401b0381118282101715611dcc57611dcc611d93565b60405290565b604051601f8201601f191681016001600160401b0381118282101715611dfa57611dfa611d93565b604052919050565b60006001600160401b03831115611e1b57611e1b611d93565b611e2e601f8401601f1916602001611dd2565b9050828152838383011115611e4257600080fd5b828260208301376000602084830101529392505050565b600080600060608486031215611e6e57600080fd5b8335925060208401356001600160401b03811115611e8b57600080fd5b8401601f81018613611e9c57600080fd5b611eab86823560208401611e02565b925050604084013590509250925092565b80356001600160401b0381168114611ed357600080fd5b919050565b60008060408385031215611eeb57600080fd5b82359150611efb60208401611ebc565b90509250929050565b80356001600160a01b0381168114611ed357600080fd5b600060208284031215611f2d57600080fd5b611b0782611f04565b608081526000611f496080830185611c8e565b9050611b076020830184805182526020808201516001600160401b039081169184019190915260409182015116910152565b600082601f830112611f8c57600080fd5b611b0783833560208501611e02565b803560048110611ed357600080fd5b600060208284031215611fbc57600080fd5b81356001600160401b0380821115611fd357600080fd5b908301906101408286031215611fe857600080fd5b611ff0611da9565b611ff983611f04565b81526020830135602082015261201160408401611ebc565b604082015261202260608401611ebc565b606082015261203360808401611ebc565b608082015260a08301358281111561204a57600080fd5b61205687828601611f7b565b60a08301525060c08301358281111561206e57600080fd5b61207a87828601611f7b565b60c08301525061208c60e08401611f9b565b60e082015261010080840135838111156120a557600080fd5b6120b188828701611f7b565b82840152505061012080840135838111156120cb57600080fd5b6120d788828701611f7b565b918301919091525095945050505050565b600060208083850312156120fb57600080fd5b82356001600160401b038082111561211257600080fd5b818501915085601f83011261212657600080fd5b81358181111561213857612138611d93565b8060051b9150612149848301611dd2565b818152918301840191848101908884111561216357600080fd5b938501935b8385101561218157843582529385019390850190612168565b98975050505050505050565b6000602080830181845280855180835260408601915060408160051b870101925083870160005b828110156121e257603f198886030184526121d0858351611c8e565b945092850192908501906001016121b4565b5092979650505050505050565b60008060006060848603121561220457600080fd5b505081359360208301359350604090920135919050565b6000602080830181845280855180835260408601915060408160051b870101925083870160005b828110156121e257603f1988860301845261225e858351611c2a565b94509285019290850190600101612242565b600181811c9082168061228457607f821691505b6020821081036117a357634e487b7160e01b600052602260045260246000fd5b60208082526017908201527f43616c6c6572206973206e6f7420746865206f776e6572000000000000000000604082015260600190565b634e487b7160e01b600052601160045260246000fd5b80820180821115611c0057611c006122db565b8281526000825161231c816020850160208701611c06565b919091016020019392505050565b601f82111561237457600081815260208120601f850160051c810160208610156123515750805b601f850160051c820191505b818110156123705782815560010161235d565b5050505b505050565b81516001600160401b0381111561239257612392611d93565b6123a6816123a08454612270565b8461232a565b602080601f8311600181146123db57600084156123c35750858301515b600019600386901b1c1916600185901b178555612370565b600085815260208120601f198616915b8281101561240a578886015182559484019460019091019084016123eb565b50858210156124285787850151600019600388901b60f8161c191681555b5050505050600190811b01905550565b60006001600160401b03808316818103612454576124546122db565b6001019392505050565b6001600160401b0381811683821601908082111561247e5761247e6122db565b5092915050565b6001600160401b0382811682821603908082111561247e5761247e6122db565b6000600182016124b7576124b76122db565b5060010190565b60006001600160401b0360c01b808960c01b168352808860c01b1660088401525085601083015284516124f8816030850160208901611c06565b84519083019061250f816030840160208901611c06565b016030810193909352505060500195945050505050565b6040815260006125396040830185611c2a565b90506001600160401b03831660208301529392505050565b634e487b7160e01b600052603260045260246000fd5b81810381811115611c0057611c006122db56fea2646970667358221220d8a69e3b8add8bd9512bb6d4c111527a0b5004140eb1ac0e366f8601df97e30164736f6c63430008130033","linkReferences":{}},"methodIdentifiers":{"deleteFile(bytes32)":"6ab799f1","downloadFile(bytes32,uint256,uint256)":"fab91940","getFileInfo(bytes32)":"52f7347b","getFileProgress(bytes32)":"46da5178","getFilesInfo(bytes32[])":"eb070e7e","lockFile(bytes32)":"9b26b2a8","mKeyToFileInfo(bytes32)":"c652793d","owner()":"8da5cb5b","pushFileInfo((address,bytes32,uint64,uint64,uint64,string,string,uint8,string,string))":"ca7e3cd4","renewTime(bytes32,uint64)":"91c03370","service()":"d598d4c9","setService(address)":"bf8bdac1","uploadChunk(bytes32,bytes,bytes32)":"5f95c07b"},"id":27}