{"abi":[{"type":"constructor","inputs":[],"stateMutability":"payable"},{"type":"function","name":"DeleteFile","inputs":[],"outputs":[{"name":"","type":"bool","internalType":"bool"}],"stateMutability":"nonpayable"},{"type":"function","name":"DownloadFiles","inputs":[{"name":"keys","type":"bytes32[]","internalType":"bytes32[]"}],"outputs":[{"name":"","type":"tuple[]","internalType":"struct File[]","components":[{"name":"contentDisposition","type":"string","internalType":"string"},{"name":"contentID","type":"string","internalType":"string"},{"name":"contentType","type":"string","internalType":"string"},{"name":"data","type":"bytes","internalType":"bytes"}]}],"stateMutability":"view"},{"type":"function","name":"GetInfoFile","inputs":[{"name":"key","type":"bytes32","internalType":"bytes32"}],"outputs":[{"name":"info","type":"tuple","internalType":"struct Info","components":[{"name":"hash","type":"bytes32","internalType":"bytes32"},{"name":"contentLen","type":"uint64","internalType":"uint64"},{"name":"expireTime","type":"uint64","internalType":"uint64"}]}],"stateMutability":"view"},{"type":"function","name":"RenewTime","inputs":[{"name":"key","type":"bytes32","internalType":"bytes32"},{"name":"_newExpireTime","type":"uint64","internalType":"uint64"}],"outputs":[],"stateMutability":"nonpayable"},{"type":"function","name":"UploadFiles","inputs":[{"name":"keys","type":"bytes32[]","internalType":"bytes32[]"},{"name":"files","type":"tuple[]","internalType":"struct File[]","components":[{"name":"contentDisposition","type":"string","internalType":"string"},{"name":"contentID","type":"string","internalType":"string"},{"name":"contentType","type":"string","internalType":"string"},{"name":"data","type":"bytes","internalType":"bytes"}]}],"outputs":[],"stateMutability":"nonpayable"},{"type":"function","name":"getImage","inputs":[{"name":"token","type":"address","internalType":"address"}],"outputs":[{"name":"","type":"bytes","internalType":"bytes"}],"stateMutability":"view"},{"type":"function","name":"mKeyToFileInfo","inputs":[{"name":"","type":"bytes32","internalType":"bytes32"}],"outputs":[{"name":"info","type":"tuple","internalType":"struct Info","components":[{"name":"hash","type":"bytes32","internalType":"bytes32"},{"name":"contentLen","type":"uint64","internalType":"uint64"},{"name":"expireTime","type":"uint64","internalType":"uint64"}]},{"name":"file","type":"tuple","internalType":"struct File","components":[{"name":"contentDisposition","type":"string","internalType":"string"},{"name":"contentID","type":"string","internalType":"string"},{"name":"contentType","type":"string","internalType":"string"},{"name":"data","type":"bytes","internalType":"bytes"}]}],"stateMutability":"view"},{"type":"function","name":"owner","inputs":[],"outputs":[{"name":"","type":"address","internalType":"address"}],"stateMutability":"view"},{"type":"function","name":"pushFileInfo","inputs":[{"name":"info","type":"tuple","internalType":"struct Info","components":[{"name":"hash","type":"bytes32","internalType":"bytes32"},{"name":"contentLen","type":"uint64","internalType":"uint64"},{"name":"expireTime","type":"uint64","internalType":"uint64"}]},{"name":"key","type":"bytes32","internalType":"bytes32"}],"outputs":[],"stateMutability":"nonpayable"},{"type":"function","name":"pushFileInfos","inputs":[{"name":"infos","type":"tuple[]","internalType":"struct Info[]","components":[{"name":"hash","type":"bytes32","internalType":"bytes32"},{"name":"contentLen","type":"uint64","internalType":"uint64"},{"name":"expireTime","type":"uint64","internalType":"uint64"}]},{"name":"keys","type":"bytes32[]","internalType":"bytes32[]"}],"outputs":[],"stateMutability":"nonpayable"},{"type":"function","name":"service","inputs":[],"outputs":[{"name":"","type":"address","internalType":"address"}],"stateMutability":"view"},{"type":"function","name":"setService","inputs":[{"name":"_service","type":"address","internalType":"address"}],"outputs":[],"stateMutability":"nonpayable"},{"type":"function","name":"tokenImages","inputs":[{"name":"","type":"address","internalType":"address"}],"outputs":[{"name":"","type":"bytes","internalType":"bytes"}],"stateMutability":"view"},{"type":"function","name":"updateImage","inputs":[{"name":"imageData","type":"bytes","internalType":"bytes"},{"name":"token","type":"address","internalType":"address"}],"outputs":[],"stateMutability":"nonpayable"}],"bytecode":{"object":"0x6080604052600380546001600160a01b03191633179055611a01806100256000396000f3fe608060405234801561001057600080fd5b50600436106100ea5760003560e01c8063afd9f2e61161008c578063c18e36d011610066578063c18e36d01461028c578063c652793d1461029f578063d598d4c9146102c0578063dfafb2bd146102d357600080fd5b8063afd9f2e614610241578063b90b727f14610261578063bf8bdac11461027957600080fd5b80637bb895aa116100c85780637bb895aa146101935780638da5cb5b146101a65780639db64b4e146101d1578063a5bb4de2146101f157600080fd5b806319bf682d146100ef5780632e28b8ba1461016b5780635eadd44314610180575b600080fd5b6101556100fd366004610ffb565b604080516060808201835260008083526020808401829052928401819052938452838252928290208251938401835280548452600101546001600160401b0380821692850192909252600160401b9004169082015290565b6040516101629190611014565b60405180910390f35b61017e6101793660046111c4565b6102e6565b005b61017e61018e366004611285565b6103ad565b61017e6101a136600461131f565b61046e565b6003546101b9906001600160a01b031681565b6040516001600160a01b039091168152602001610162565b6101e46101df36600461149d565b6105ae565b604051610162919061158a565b61017e6101ff3660046115ec565b60009182526020829052604090912060010180546001600160401b03909216600160401b026fffffffffffffffff000000000000000019909216919091179055565b61025461024f36600461162f565b6108ee565b6040516101629190611651565b610269610988565b6040519015158152602001610162565b61017e61028736600461162f565b610b21565b61025461029a36600461162f565b610b93565b6102b26102ad366004610ffb565b610c92565b604051610162929190611664565b6001546101b9906001600160a01b031681565b61017e6102e13660046116a7565b610f2f565b805182511461034e5760405162461bcd60e51b815260206004820152602960248201527f6c656e677468206f66206b65797320616e6420696e666f73206e65656420746f60448201526808189948195c5d585b60ba1b60648201526084015b60405180910390fd5b60005b82518110156103a85761039683828151811061036f5761036f611727565b602002602001015183838151811061038957610389611727565b60200260200101516103ad565b806103a081611753565b915050610351565b505050565b6001546001600160a01b031633146103d75760405162461bcd60e51b81526004016103459061176c565b600081815260208190526040812054900361042257600280546001810182556000919091527f405787fa12a823e0f2b7631cc41b3ba8828b3321ca811111fa75cd3aa3bb5ace018190555b6000908152602081815260409182902083518155908301516001909101805493909201516001600160401b03908116600160401b026001600160801b0319909416911617919091179055565b6001546001600160a01b031633146104985760405162461bcd60e51b81526004016103459061176c565b80518251146104e95760405162461bcd60e51b815260206004820152601e60248201527f6b65797320616e642066696c65732073686f756c6420626520657175616c00006044820152606401610345565b60005b82518110156103a857600080600085848151811061050c5761050c611727565b60200260200101518152602001908152602001600020905082828151811061053657610536611727565b60200260200101518160020160008201518160000190816105579190611823565b506020820151600182019061056c9082611823565b50604082015160028201906105819082611823565b50606082015160038201906105969082611823565b509050505080806105a690611753565b9150506104ec565b6060600082516001600160401b038111156105cb576105cb611045565b60405190808252806020026020018201604052801561062757816020015b6106146040518060800160405280606081526020016060815260200160608152602001606081525090565b8152602001906001900390816105e95790505b50905060005b83518110156108e75760008085838151811061064b5761064b611727565b6020026020010151815260200190815260200160002060020160405180608001604052908160008201805461067f9061179b565b80601f01602080910402602001604051908101604052809291908181526020018280546106ab9061179b565b80156106f85780601f106106cd576101008083540402835291602001916106f8565b820191906000526020600020905b8154815290600101906020018083116106db57829003601f168201915b505050505081526020016001820180546107119061179b565b80601f016020809104026020016040519081016040528092919081815260200182805461073d9061179b565b801561078a5780601f1061075f5761010080835404028352916020019161078a565b820191906000526020600020905b81548152906001019060200180831161076d57829003601f168201915b505050505081526020016002820180546107a39061179b565b80601f01602080910402602001604051908101604052809291908181526020018280546107cf9061179b565b801561081c5780601f106107f15761010080835404028352916020019161081c565b820191906000526020600020905b8154815290600101906020018083116107ff57829003601f168201915b505050505081526020016003820180546108359061179b565b80601f01602080910402602001604051908101604052809291908181526020018280546108619061179b565b80156108ae5780601f10610883576101008083540402835291602001916108ae565b820191906000526020600020905b81548152906001019060200180831161089157829003601f168201915b5050505050815250508282815181106108c9576108c9611727565b602002602001018190525080806108df90611753565b91505061062d565b5092915050565b600460205260009081526040902080546109079061179b565b80601f01602080910402602001604051908101604052809291908181526020018280546109339061179b565b80156109805780601f1061095557610100808354040283529160200191610980565b820191906000526020600020905b81548152906001019060200180831161096357829003601f168201915b505050505081565b6001546000906001600160a01b031633146109b55760405162461bcd60e51b81526004016103459061176c565b60005b600254811015610b195742600080600284815481106109d9576109d9611727565b600091825260208083209091015483528201929092526040019020600101546001600160401b03600160401b909104161015610b075760008060028381548110610a2557610a25611727565b6000918252602080832090910154835282019290925260400181208181556001810180546001600160801b0319169055906002820181610a658282610fa5565b610a73600183016000610fa5565b610a81600283016000610fa5565b610a8f600383016000610fa5565b505060028054909250610aa591506001906118e2565b81548110610ab557610ab5611727565b906000526020600020015460028281548110610ad357610ad3611727565b6000918252602090912001556002805480610af057610af06118f5565b600190038181906000526020600020016000905590555b80610b1181611753565b9150506109b8565b506001905090565b6003546001600160a01b03163314610b715760405162461bcd60e51b81526020600482015260136024820152721bdb9b1e481bdddb995c8818d85b8818d85b1b606a1b6044820152606401610345565b600180546001600160a01b0319166001600160a01b0392909216919091179055565b6001600160a01b038116600090815260046020526040812080546060929190610bbb9061179b565b80601f0160208091040260200160405190810160405280929190818152602001828054610be79061179b565b8015610c345780601f10610c0957610100808354040283529160200191610c34565b820191906000526020600020905b815481529060010190602001808311610c1757829003601f168201915b505050505090506000815111610c8c5760405162461bcd60e51b815260206004820152601d60248201527f4e6f20696d61676520666f756e6420666f72207468697320746f6b656e0000006044820152606401610345565b92915050565b6000602081815291815260409081902081516060810183528154815260018201546001600160401b0380821695830195909552600160401b90049093168383015281516080810190925260028101805491929182908290610cf29061179b565b80601f0160208091040260200160405190810160405280929190818152602001828054610d1e9061179b565b8015610d6b5780601f10610d4057610100808354040283529160200191610d6b565b820191906000526020600020905b815481529060010190602001808311610d4e57829003601f168201915b50505050508152602001600182018054610d849061179b565b80601f0160208091040260200160405190810160405280929190818152602001828054610db09061179b565b8015610dfd5780601f10610dd257610100808354040283529160200191610dfd565b820191906000526020600020905b815481529060010190602001808311610de057829003601f168201915b50505050508152602001600282018054610e169061179b565b80601f0160208091040260200160405190810160405280929190818152602001828054610e429061179b565b8015610e8f5780601f10610e6457610100808354040283529160200191610e8f565b820191906000526020600020905b815481529060010190602001808311610e7257829003601f168201915b50505050508152602001600382018054610ea89061179b565b80601f0160208091040260200160405190810160405280929190818152602001828054610ed49061179b565b8015610f215780601f10610ef657610100808354040283529160200191610f21565b820191906000526020600020905b815481529060010190602001808311610f0457829003601f168201915b505050505081525050905082565b81610f7c5760405162461bcd60e51b815260206004820152601a60248201527f496d61676520646174612063616e6e6f7420626520656d7074790000000000006044820152606401610345565b6001600160a01b0381166000908152600460205260409020610f9f83858361190b565b50505050565b508054610fb19061179b565b6000825580601f10610fc1575050565b601f016020900490600052602060002090810190610fdf9190610fe2565b50565b5b80821115610ff75760008155600101610fe3565b5090565b60006020828403121561100d57600080fd5b5035919050565b60608101610c8c8284805182526020808201516001600160401b039081169184019190915260409182015116910152565b634e487b7160e01b600052604160045260246000fd5b604051608081016001600160401b038111828210171561107d5761107d611045565b60405290565b604051601f8201601f191681016001600160401b03811182821017156110ab576110ab611045565b604052919050565b60006001600160401b038211156110cc576110cc611045565b5060051b60200190565b80356001600160401b03811681146110ed57600080fd5b919050565b60006060828403121561110457600080fd5b604051606081018181106001600160401b038211171561112657611126611045565b6040528235815290508061113c602084016110d6565b602082015261114d604084016110d6565b60408201525092915050565b600082601f83011261116a57600080fd5b8135602061117f61117a836110b3565b611083565b82815260059290921b8401810191818101908684111561119e57600080fd5b8286015b848110156111b957803583529183019183016111a2565b509695505050505050565b600080604083850312156111d757600080fd5b82356001600160401b03808211156111ee57600080fd5b818501915085601f83011261120257600080fd5b8135602061121261117a836110b3565b8281526060928302850182019282820191908a85111561123157600080fd5b958301955b84871015611257576112488b886110f2565b83529586019591830191611236565b509650508601359250508082111561126e57600080fd5b5061127b85828601611159565b9150509250929050565b6000806080838503121561129857600080fd5b6112a284846110f2565b946060939093013593505050565b600082601f8301126112c157600080fd5b81356001600160401b038111156112da576112da611045565b6112ed601f8201601f1916602001611083565b81815284602083860101111561130257600080fd5b816020850160208301376000918101602001919091529392505050565b6000806040838503121561133257600080fd5b82356001600160401b038082111561134957600080fd5b61135586838701611159565b935060209150818501358181111561136c57600080fd5b8501601f8101871361137d57600080fd5b803561138b61117a826110b3565b81815260059190911b820184019084810190898311156113aa57600080fd5b8584015b8381101561148c578035868111156113c557600080fd5b85016080818d03601f190112156113dc5760008081fd5b6113e461105b565b88820135888111156113f65760008081fd5b6114048e8b838601016112b0565b82525060408201358881111561141a5760008081fd5b6114288e8b838601016112b0565b8a83015250606080830135898111156114415760008081fd5b61144f8f8c838701016112b0565b6040840152506080830135898111156114685760008081fd5b6114768f8c838701016112b0565b91830191909152508452509186019186016113ae565b508096505050505050509250929050565b6000602082840312156114af57600080fd5b81356001600160401b038111156114c557600080fd5b6114d184828501611159565b949350505050565b6000815180845260005b818110156114ff576020818501810151868301820152016114e3565b506000602082860101526020601f19601f83011685010191505092915050565b600081516080845261153460808501826114d9565b90506020830151848203602086015261154d82826114d9565b9150506040830151848203604086015261156782826114d9565b9150506060830151848203606086015261158182826114d9565b95945050505050565b6000602080830181845280855180835260408601915060408160051b870101925083870160005b828110156115df57603f198886030184526115cd85835161151f565b945092850192908501906001016115b1565b5092979650505050505050565b600080604083850312156115ff57600080fd5b8235915061160f602084016110d6565b90509250929050565b80356001600160a01b03811681146110ed57600080fd5b60006020828403121561164157600080fd5b61164a82611618565b9392505050565b60208152600061164a60208301846114d9565b6116918184805182526020808201516001600160401b039081169184019190915260409182015116910152565b6080606082015260006114d1608083018461151f565b6000806000604084860312156116bc57600080fd5b83356001600160401b03808211156116d357600080fd5b818601915086601f8301126116e757600080fd5b8135818111156116f657600080fd5b87602082850101111561170857600080fd5b60209283019550935061171e9186019050611618565b90509250925092565b634e487b7160e01b600052603260045260246000fd5b634e487b7160e01b600052601160045260246000fd5b6000600182016117655761176561173d565b5060010190565b6020808252601590820152741bdb9b1e481cd95c9d9a58d94818d85b8818d85b1b605a1b604082015260600190565b600181811c908216806117af57607f821691505b6020821081036117cf57634e487b7160e01b600052602260045260246000fd5b50919050565b601f8211156103a857600081815260208120601f850160051c810160208610156117fc5750805b601f850160051c820191505b8181101561181b57828155600101611808565b505050505050565b81516001600160401b0381111561183c5761183c611045565b6118508161184a845461179b565b846117d5565b602080601f831160018114611885576000841561186d5750858301515b600019600386901b1c1916600185901b17855561181b565b600085815260208120601f198616915b828110156118b457888601518255948401946001909101908401611895565b50858210156118d25787850151600019600388901b60f8161c191681555b5050505050600190811b01905550565b81810381811115610c8c57610c8c61173d565b634e487b7160e01b600052603160045260246000fd5b6001600160401b0383111561192257611922611045565b61193683611930835461179b565b836117d5565b6000601f84116001811461196a57600085156119525750838201355b600019600387901b1c1916600186901b1783556119c4565b600083815260209020601f19861690835b8281101561199b578685013582556020948501946001909201910161197b565b50868210156119b85760001960f88860031b161c19848701351681555b505060018560011b0183555b505050505056fea2646970667358221220371b28aff0beec1cafc513f1814789ed64b5b75c20da009972f91388a3145ebd64736f6c63430008130033","linkReferences":{}},"methodIdentifiers":{"DeleteFile()":"b90b727f","DownloadFiles(bytes32[])":"9db64b4e","GetInfoFile(bytes32)":"19bf682d","RenewTime(bytes32,uint64)":"a5bb4de2","UploadFiles(bytes32[],(string,string,string,bytes)[])":"7bb895aa","getImage(address)":"c18e36d0","mKeyToFileInfo(bytes32)":"c652793d","owner()":"8da5cb5b","pushFileInfo((bytes32,uint64,uint64),bytes32)":"5eadd443","pushFileInfos((bytes32,uint64,uint64)[],bytes32[])":"2e28b8ba","service()":"d598d4c9","setService(address)":"bf8bdac1","tokenImages(address)":"afd9f2e6","updateImage(bytes,address)":"dfafb2bd"},"id":26}