{"abi":[{"type":"constructor","inputs":[],"stateMutability":"payable"},{"type":"function","name":"deleteFile","inputs":[{"name":"fileKey","type":"bytes32","internalType":"bytes32"}],"outputs":[],"stateMutability":"nonpayable"},{"type":"function","name":"downloadFile","inputs":[{"name":"fileKey","type":"bytes32","internalType":"bytes32"},{"name":"start","type":"uint256","internalType":"uint256"},{"name":"limit","type":"uint256","internalType":"uint256"}],"outputs":[{"name":"","type":"bytes[]","internalType":"bytes[]"}],"stateMutability":"view"},{"type":"function","name":"getFileInfo","inputs":[{"name":"fileKey","type":"bytes32","internalType":"bytes32"}],"outputs":[{"name":"","type":"tuple","internalType":"struct Info","components":[{"name":"owner","type":"address","internalType":"address"},{"name":"hash","type":"bytes32","internalType":"bytes32"},{"name":"contentLen","type":"uint64","internalType":"uint64"},{"name":"totalChunks","type":"uint64","internalType":"uint64"},{"name":"expireTime","type":"uint64","internalType":"uint64"},{"name":"name","type":"string","internalType":"string"},{"name":"ext","type":"string","internalType":"string"},{"name":"status","type":"uint8","internalType":"enum FileStatus"},{"name":"contentDisposition","type":"string","internalType":"string"},{"name":"contentID","type":"string","internalType":"string"}]}],"stateMutability":"view"},{"type":"function","name":"getFileKeyFromName","inputs":[{"name":"names","type":"string[]","internalType":"string[]"}],"outputs":[{"name":"","type":"bytes32[]","internalType":"bytes32[]"}],"stateMutability":"view"},{"type":"function","name":"getFileProgress","inputs":[{"name":"fileKey","type":"bytes32","internalType":"bytes32"}],"outputs":[{"name":"","type":"tuple","internalType":"struct FileProgress","components":[{"name":"lastChunkHash","type":"bytes32","internalType":"bytes32"},{"name":"processedChunks","type":"uint64","internalType":"uint64"},{"name":"processedLength","type":"uint64","internalType":"uint64"}]}],"stateMutability":"view"},{"type":"function","name":"getFilesInfo","inputs":[{"name":"fileKeys","type":"bytes32[]","internalType":"bytes32[]"}],"outputs":[{"name":"infos","type":"tuple[]","internalType":"struct Info[]","components":[{"name":"owner","type":"address","internalType":"address"},{"name":"hash","type":"bytes32","internalType":"bytes32"},{"name":"contentLen","type":"uint64","internalType":"uint64"},{"name":"totalChunks","type":"uint64","internalType":"uint64"},{"name":"expireTime","type":"uint64","internalType":"uint64"},{"name":"name","type":"string","internalType":"string"},{"name":"ext","type":"string","internalType":"string"},{"name":"status","type":"uint8","internalType":"enum FileStatus"},{"name":"contentDisposition","type":"string","internalType":"string"},{"name":"contentID","type":"string","internalType":"string"}]}],"stateMutability":"view"},{"type":"function","name":"lockFile","inputs":[{"name":"fileKey","type":"bytes32","internalType":"bytes32"}],"outputs":[],"stateMutability":"nonpayable"},{"type":"function","name":"mKeyToFileInfo","inputs":[{"name":"","type":"bytes32","internalType":"bytes32"}],"outputs":[{"name":"info","type":"tuple","internalType":"struct Info","components":[{"name":"owner","type":"address","internalType":"address"},{"name":"hash","type":"bytes32","internalType":"bytes32"},{"name":"contentLen","type":"uint64","internalType":"uint64"},{"name":"totalChunks","type":"uint64","internalType":"uint64"},{"name":"expireTime","type":"uint64","internalType":"uint64"},{"name":"name","type":"string","internalType":"string"},{"name":"ext","type":"string","internalType":"string"},{"name":"status","type":"uint8","internalType":"enum FileStatus"},{"name":"contentDisposition","type":"string","internalType":"string"},{"name":"contentID","type":"string","internalType":"string"}]},{"name":"progress","type":"tuple","internalType":"struct FileProgress","components":[{"name":"lastChunkHash","type":"bytes32","internalType":"bytes32"},{"name":"processedChunks","type":"uint64","internalType":"uint64"},{"name":"processedLength","type":"uint64","internalType":"uint64"}]}],"stateMutability":"view"},{"type":"function","name":"mNameToFileKey","inputs":[{"name":"","type":"string","internalType":"string"}],"outputs":[{"name":"","type":"bytes32","internalType":"bytes32"}],"stateMutability":"view"},{"type":"function","name":"owner","inputs":[],"outputs":[{"name":"","type":"address","internalType":"address"}],"stateMutability":"view"},{"type":"function","name":"pushFileInfo","inputs":[{"name":"info","type":"tuple","internalType":"struct Info","components":[{"name":"owner","type":"address","internalType":"address"},{"name":"hash","type":"bytes32","internalType":"bytes32"},{"name":"contentLen","type":"uint64","internalType":"uint64"},{"name":"totalChunks","type":"uint64","internalType":"uint64"},{"name":"expireTime","type":"uint64","internalType":"uint64"},{"name":"name","type":"string","internalType":"string"},{"name":"ext","type":"string","internalType":"string"},{"name":"status","type":"uint8","internalType":"enum FileStatus"},{"name":"contentDisposition","type":"string","internalType":"string"},{"name":"contentID","type":"string","internalType":"string"}]}],"outputs":[{"name":"fileKey","type":"bytes32","internalType":"bytes32"}],"stateMutability":"nonpayable"},{"type":"function","name":"pushFileInfos","inputs":[{"name":"infos","type":"tuple[]","internalType":"struct Info[]","components":[{"name":"owner","type":"address","internalType":"address"},{"name":"hash","type":"bytes32","internalType":"bytes32"},{"name":"contentLen","type":"uint64","internalType":"uint64"},{"name":"totalChunks","type":"uint64","internalType":"uint64"},{"name":"expireTime","type":"uint64","internalType":"uint64"},{"name":"name","type":"string","internalType":"string"},{"name":"ext","type":"string","internalType":"string"},{"name":"status","type":"uint8","internalType":"enum FileStatus"},{"name":"contentDisposition","type":"string","internalType":"string"},{"name":"contentID","type":"string","internalType":"string"}]}],"outputs":[{"name":"","type":"bytes32[]","internalType":"bytes32[]"}],"stateMutability":"nonpayable"},{"type":"function","name":"renewTime","inputs":[{"name":"fileKey","type":"bytes32","internalType":"bytes32"},{"name":"_newExpireTime","type":"uint64","internalType":"uint64"}],"outputs":[],"stateMutability":"nonpayable"},{"type":"function","name":"service","inputs":[],"outputs":[{"name":"","type":"address","internalType":"address"}],"stateMutability":"view"},{"type":"function","name":"setService","inputs":[{"name":"_service","type":"address","internalType":"address"}],"outputs":[],"stateMutability":"nonpayable"},{"type":"function","name":"uploadChunk","inputs":[{"name":"fileKey","type":"bytes32","internalType":"bytes32"},{"name":"chunkData","type":"bytes","internalType":"bytes"},{"name":"chunkHash","type":"bytes32","internalType":"bytes32"}],"outputs":[],"stateMutability":"nonpayable"},{"type":"function","name":"uploadChunks","inputs":[{"name":"fileKeys","type":"bytes32[]","internalType":"bytes32[]"},{"name":"chunkDatas","type":"bytes[]","internalType":"bytes[]"},{"name":"chunkHashes","type":"bytes32[]","internalType":"bytes32[]"}],"outputs":[],"stateMutability":"nonpayable"},{"type":"event","name":"ChunkUploaded","inputs":[{"name":"fileKey","type":"bytes32","indexed":true,"internalType":"bytes32"},{"name":"chunkIndex","type":"uint256","indexed":false,"internalType":"uint256"}],"anonymous":false},{"type":"event","name":"FileAdded","inputs":[{"name":"fileKey","type":"bytes32","indexed":true,"internalType":"bytes32"},{"name":"name","type":"string","indexed":false,"internalType":"string"},{"name":"contentLen","type":"uint64","indexed":false,"internalType":"uint64"}],"anonymous":false},{"type":"event","name":"FileDeleted","inputs":[{"name":"fileKey","type":"bytes32","indexed":true,"internalType":"bytes32"}],"anonymous":false},{"type":"event","name":"FileLocked","inputs":[{"name":"fileKey","type":"bytes32","indexed":true,"internalType":"bytes32"}],"anonymous":false}],"bytecode":{"object":"0x6080604052600380546001600160a01b03191633179055612bb5806100256000396000f3fe608060405234801561001057600080fd5b506004361061010b5760003560e01c80639b26b2a8116100a2578063d598d4c911610071578063d598d4c91461025a578063eb070e7e1461026d578063edff13af1461028d578063f25671c4146102b8578063fab91940146102cb57600080fd5b80639b26b2a8146101f2578063bf8bdac114610205578063c652793d14610218578063ca7e3cd41461023957600080fd5b80636e0c19b1116100de5780636e0c19b1146101815780638da5cb5b146101a15780638f73088d146101cc57806391c03370146101df57600080fd5b806346da51781461011057806352f7347b146101395780635f95c07b146101595780636ab799f11461016e575b600080fd5b61012361011e366004611eca565b6102eb565b6040516101309190611ee3565b60405180910390f35b61014c610147366004611eca565b6103c8565b6040516101309190612094565b61016c610167366004612185565b6106c0565b005b61016c61017c366004611eca565b610a29565b61019461018f366004612355565b610b60565b604051610130919061240a565b6003546101b4906001600160a01b031681565b6040516001600160a01b039091168152602001610130565b61016c6101da3660046124b4565b610c0d565b61016c6101ed3660046125aa565b610ce5565b61016c610200366004611eca565b610e2c565b61016c6102133660046125d6565b610f55565b61022b610226366004611eca565b610fa1565b6040516101309291906125f1565b61024c610247366004612636565b6112c4565b604051908152602001610130565b6002546101b4906001600160a01b031681565b61028061027b366004612672565b61165a565b60405161013091906126a6565b61024c61029b366004612708565b805160208183018101805160018252928201919093012091525481565b6101946102c636600461273c565b611a01565b6102de6102d93660046127df565b611abd565b604051610130919061280b565b6040805160608101825260008082526020820181905291810191909152600082815260208190526040812090600582015460ff16600381111561033057610330611f6a565b1461037b5760405162461bcd60e51b815260206004820152601660248201527546696c652075706c6f6164206e6f742065786973747360501b60448201526064015b60405180910390fd5b5050600090815260208181526040918290208251606081018452600882015481526009909101546001600160401b0380821693830193909352600160401b90049091169181019190915290565b6103d0611e22565b6000828152602081815260409182902082516101408101845281546001600160a01b0316815260018201549281019290925260028101546001600160401b0380821694840194909452600160401b810484166060840152600160801b9004909216608082015260038201805491929160a08401919061044e90612860565b80601f016020809104026020016040519081016040528092919081815260200182805461047a90612860565b80156104c75780601f1061049c576101008083540402835291602001916104c7565b820191906000526020600020905b8154815290600101906020018083116104aa57829003601f168201915b505050505081526020016004820180546104e090612860565b80601f016020809104026020016040519081016040528092919081815260200182805461050c90612860565b80156105595780601f1061052e57610100808354040283529160200191610559565b820191906000526020600020905b81548152906001019060200180831161053c57829003601f168201915b5050509183525050600582015460209091019060ff16600381111561058057610580611f6a565b600381111561059157610591611f6a565b81526020016006820180546105a590612860565b80601f01602080910402602001604051908101604052809291908181526020018280546105d190612860565b801561061e5780601f106105f35761010080835404028352916020019161061e565b820191906000526020600020905b81548152906001019060200180831161060157829003601f168201915b5050505050815260200160078201805461063790612860565b80601f016020809104026020016040519081016040528092919081815260200182805461066390612860565b80156106b05780601f10610685576101008083540402835291602001916106b0565b820191906000526020600020905b81548152906001019060200180831161069357829003601f168201915b5050505050815250509050919050565b600082511180156106d45750612800825111155b6107155760405162461bcd60e51b8152602060048201526012602482015271496e76616c6964206368756e6b2073697a6560701b6044820152606401610372565b600083815260208190526040902080546001600160a01b0316331461074c5760405162461bcd60e51b815260040161037290612894565b6002810154835160098301546001600160401b03928316926107769291600160401b9004166128e1565b11156107c45760405162461bcd60e51b815260206004820152601960248201527f4368756e6b20657863656564732066696c65206c656e677468000000000000006044820152606401610372565b6000600582015460ff1660038111156107df576107df611f6a565b1461082c5760405162461bcd60e51b815260206004820152601b60248201527f46696c65206973206e6f74206265696e672070726f63657373656400000000006044820152606401610372565b60088101546040516000916108459186906020016128f4565b6040516020818303038152906040528051906020012090508281146108a25760405162461bcd60e51b8152602060048201526013602482015272086d0eadcd640d0c2e6d040dad2e6dac2e8c6d606b1b6044820152606401610372565b6008820181905560098201546001600160401b03166000908152600a8301602052604090206108d18582612969565b506009820180546001600160401b03169060006108ed83612a28565b91906101000a8154816001600160401b0302191690836001600160401b031602179055505083518260080160010160088282829054906101000a90046001600160401b031661093c9190612a4e565b82546101009290920a6001600160401b0381810219909316918316021790915560098401546002850154600160401b909104821691161490508061099b5750600282015460098301546001600160401b03908116600160401b90920416145b156109c95760058201805460ff19166001179055600060088301556009820180546001600160801b03191690555b600982015485907f9194bcee830b22b5e81ccd3c7efb4811ca70dfdd9bbfaa1719d15dfc18c6417d90610a07906001906001600160401b0316612a6e565b6040516001600160401b03909116815260200160405180910390a25050505050565b600081815260208190526040902080546001600160a01b03163314610a605760405162461bcd60e51b815260040161037290612894565b6003600582015460ff166003811115610a7b57610a7b611f6a565b03610abf5760405162461bcd60e51b8152602060048201526014602482015273119a5b1948185b1c9958591e4819195b195d195960621b6044820152606401610372565b60058101805460ff1916600317905560005b6002820154600160401b90046001600160401b0316811015610b18576000818152600a830160205260408120610b0691611e74565b80610b1081612a8e565b915050610ad1565b506000600882018190556009820180546001600160801b031916905560405183917f88efefb1eaec3d3a0e08ed74bc99a3407d454b5da66112fed68b20d54837ccae91a25050565b6060600082516001600160401b03811115610b7d57610b7d6120a7565b604051908082528060200260200182016040528015610ba6578160200160208202803683370190505b50905060005b8351811015610c0657610bd7848281518110610bca57610bca612aa7565b60200260200101516112c4565b828281518110610be957610be9612aa7565b602090810291909101015280610bfe81612a8e565b915050610bac565b5092915050565b81518351148015610c1f575081518151145b610c6b5760405162461bcd60e51b815260206004820152601d60248201527f6c656e677468206172726179732073686f756c6420626520657175616c0000006044820152606401610372565b60005b8351811015610cdf57610ccd848281518110610c8c57610c8c612aa7565b6020026020010151848381518110610ca657610ca6612aa7565b6020026020010151848481518110610cc057610cc0612aa7565b60200260200101516106c0565b80610cd781612a8e565b915050610c6e565b50505050565b600082815260208190526040902080546001600160a01b03163314610d1c5760405162461bcd60e51b815260040161037290612894565b6003600582015460ff166003811115610d3757610d37611f6a565b03610d7c5760405162461bcd60e51b8152602060048201526015602482015274119a5b19481a185cc81899595b8819195b195d1959605a1b6044820152606401610372565b610d8942620151806128e1565b826001600160401b031611610dfd5760405162461bcd60e51b815260206004820152603460248201527f4e6577206578706972652074696d65206d757374206265206174206c6561737460448201527320312064617920696e207468652066757475726560601b6064820152608401610372565b60020180546001600160401b03909216600160801b0267ffffffffffffffff60801b1990921691909117905550565b600081815260208190526040902080546001600160a01b03163314610e635760405162461bcd60e51b815260040161037290612894565b6001600582015460ff166003811115610e7e57610e7e611f6a565b14610ec05760405162461bcd60e51b815260206004820152601260248201527146696c65206973206e6f742061637469766560701b6044820152606401610372565b6002810154600160801b90046001600160401b0316421115610f175760405162461bcd60e51b815260206004820152601060248201526f119a5b19481a185cc8195e1c1a5c995960821b6044820152606401610372565b60058101805460ff1916600217905560405182907f45987cd84c3c0ec7c3b91dde29affe01363c3777aec1247553883b243174733090600090a25050565b6003546001600160a01b03163314610f7f5760405162461bcd60e51b815260040161037290612894565b600280546001600160a01b0319166001600160a01b0392909216919091179055565b6000602081815291815260409081902081516101408101835281546001600160a01b0316815260018201549381019390935260028101546001600160401b0380821693850193909352600160401b810483166060850152600160801b90049091166080830152600381018054919291839160a084019161102090612860565b80601f016020809104026020016040519081016040528092919081815260200182805461104c90612860565b80156110995780601f1061106e57610100808354040283529160200191611099565b820191906000526020600020905b81548152906001019060200180831161107c57829003601f168201915b505050505081526020016004820180546110b290612860565b80601f01602080910402602001604051908101604052809291908181526020018280546110de90612860565b801561112b5780601f106111005761010080835404028352916020019161112b565b820191906000526020600020905b81548152906001019060200180831161110e57829003601f168201915b5050509183525050600582015460209091019060ff16600381111561115257611152611f6a565b600381111561116357611163611f6a565b815260200160068201805461117790612860565b80601f01602080910402602001604051908101604052809291908181526020018280546111a390612860565b80156111f05780601f106111c5576101008083540402835291602001916111f0565b820191906000526020600020905b8154815290600101906020018083116111d357829003601f168201915b5050505050815260200160078201805461120990612860565b80601f016020809104026020016040519081016040528092919081815260200182805461123590612860565b80156112825780601f1061125757610100808354040283529160200191611282565b820191906000526020600020905b81548152906001019060200180831161126557829003601f168201915b50505091909252505060408051606081018252600885015481526009909401546001600160401b038082166020870152600160401b9091041690840152509082565b60006112d342620151806128e1565b82608001516001600160401b0316116113475760405162461bcd60e51b815260206004820152603060248201527f4578706972652074696d65206d757374206265206174206c656173742031206460448201526f617920696e207468652066757475726560801b6064820152608401610372565b8160400151826080015183602001518460a001518560c001514260405160200161137696959493929190612abd565b6040516020818303038152906040528051906020012090508060018360a001516040516113a39190612b25565b9081526040805160209281900383019020929092556000838152908190522060010154156114095760405162461bcd60e51b815260206004820152601360248201527246696c6520616c72656164792065786973747360681b6044820152606401610372565b604051806101400160405280336001600160a01b031681526020018360200151815260200183604001516001600160401b0316815260200183606001516001600160401b0316815260200183608001516001600160401b031681526020018360a0015181526020018360c0015181526020016000600381111561148e5761148e611f6a565b81526101008401516020808301919091526101208501516040928301526000848152808252829020835181546001600160a01b039091166001600160a01b031990911617815590830151600182015590820151600282018054606085015160808601516001600160401b03908116600160801b0267ffffffffffffffff60801b19928216600160401b026001600160801b03199094169190951617919091171691909117905560a082015160038201906115489082612969565b5060c0820151600482019061155d9082612969565b5060e082015160058201805460ff1916600183600381111561158157611581611f6a565b0217905550610100820151600682019061159b9082612969565b5061012082015160078201906115b19082612969565b5050604080516060810182526000808252602080830182815283850183815287845291839052918490209251600884015590516009909201805491516001600160401b03908116600160401b026001600160801b031990931693169290921717905560a08401518482015191518493507f7f2db28bb9cdbd41f93b3953994de4298cc665dda981f021c84fc9b4b367f11e9261164d9291612b41565b60405180910390a2919050565b606081516001600160401b03811115611675576116756120a7565b6040519080825280602002602001820160405280156116ae57816020015b61169b611e22565b8152602001906001900390816116935790505b50905060005b82518110156119fb5760008060008584815181106116d4576116d4612aa7565b602090810291909101810151825281810192909252604090810160002081516101408101835281546001600160a01b0316815260018201549381019390935260028101546001600160401b0380821693850193909352600160401b810483166060850152600160801b9004909116608083015260038101805460a08401919061175c90612860565b80601f016020809104026020016040519081016040528092919081815260200182805461178890612860565b80156117d55780601f106117aa576101008083540402835291602001916117d5565b820191906000526020600020905b8154815290600101906020018083116117b857829003601f168201915b505050505081526020016004820180546117ee90612860565b80601f016020809104026020016040519081016040528092919081815260200182805461181a90612860565b80156118675780601f1061183c57610100808354040283529160200191611867565b820191906000526020600020905b81548152906001019060200180831161184a57829003601f168201915b5050509183525050600582015460209091019060ff16600381111561188e5761188e611f6a565b600381111561189f5761189f611f6a565b81526020016006820180546118b390612860565b80601f01602080910402602001604051908101604052809291908181526020018280546118df90612860565b801561192c5780601f106119015761010080835404028352916020019161192c565b820191906000526020600020905b81548152906001019060200180831161190f57829003601f168201915b5050505050815260200160078201805461194590612860565b80601f016020809104026020016040519081016040528092919081815260200182805461197190612860565b80156119be5780601f10611993576101008083540402835291602001916119be565b820191906000526020600020905b8154815290600101906020018083116119a157829003601f168201915b5050505050815250509050808383815181106119dc576119dc612aa7565b60200260200101819052505080806119f390612a8e565b9150506116b4565b50919050565b6060600082516001600160401b03811115611a1e57611a1e6120a7565b604051908082528060200260200182016040528015611a47578160200160208202803683370190505b50905060005b8351811015610c06576001848281518110611a6a57611a6a612aa7565b6020026020010151604051611a7f9190612b25565b908152602001604051809103902054828281518110611aa057611aa0612aa7565b602090810291909101015280611ab581612a8e565b915050611a4d565b60008381526020819052604090206060906001600582015460ff166003811115611ae957611ae9611f6a565b14611b365760405162461bcd60e51b815260206004820152601760248201527f46696c652075706c6f6164206e6f7420616374697665640000000000000000006044820152606401610372565b60028101546001600160401b0316611b865760405162461bcd60e51b8152602060048201526013602482015272119a5b1948191bd95cc81b9bdd08195e1a5cdd606a1b6044820152606401610372565b6002810154600160401b90046001600160401b03168410611be95760405162461bcd60e51b815260206004820152601860248201527f537461727420696e646578206f7574206f662072616e676500000000000000006044820152606401610372565b60008311611c395760405162461bcd60e51b815260206004820152601f60248201527f4c696d6974206d7573742062652067726561746572207468616e207a65726f006044820152606401610372565b6002810154600160801b90046001600160401b0316421115611c905760405162461bcd60e51b815260206004820152601060248201526f119a5b19481a185cc8195e1c1a5c995960821b6044820152606401610372565b6002810154600090600160401b90046001600160401b0316611cb285876128e1565b11611cc657611cc184866128e1565b611cdc565b6002820154600160401b90046001600160401b03165b90506000611cea8683612b6c565b6001600160401b03811115611d0157611d016120a7565b604051908082528060200260200182016040528015611d3457816020015b6060815260200190600190039081611d1f5790505b509050855b82811015611e15576000818152600a8501602052604090208054611d5c90612860565b80601f0160208091040260200160405190810160405280929190818152602001828054611d8890612860565b8015611dd55780601f10611daa57610100808354040283529160200191611dd5565b820191906000526020600020905b815481529060010190602001808311611db857829003601f168201915b5050505050828883611de79190612b6c565b81518110611df757611df7612aa7565b60200260200101819052508080611e0d90612a8e565b915050611d39565b50925050505b9392505050565b604080516101408101825260008082526020820181905291810182905260608082018390526080820183905260a0820181905260c08201529060e0820190815260200160608152602001606081525090565b508054611e8090612860565b6000825580601f10611e90575050565b601f016020900490600052602060002090810190611eae9190611eb1565b50565b5b80821115611ec65760008155600101611eb2565b5090565b600060208284031215611edc57600080fd5b5035919050565b60608101611f148284805182526020808201516001600160401b039081169184019190915260409182015116910152565b92915050565b60005b83811015611f35578181015183820152602001611f1d565b50506000910152565b60008151808452611f56816020860160208601611f1a565b601f01601f19169290920160200192915050565b634e487b7160e01b600052602160045260246000fd5b60048110611f9e57634e487b7160e01b600052602160045260246000fd5b9052565b80516001600160a01b031682526000610140602083015160208501526040830151611fd860408601826001600160401b03169052565b506060830151611ff360608601826001600160401b03169052565b50608083015161200e60808601826001600160401b03169052565b5060a08301518160a086015261202682860182611f3e565b91505060c083015184820360c08601526120408282611f3e565b91505060e083015161205560e0860182611f80565b50610100808401518583038287015261206e8382611f3e565b92505050610120808401518583038287015261208a8382611f3e565b9695505050505050565b602081526000611e1b6020830184611fa2565b634e487b7160e01b600052604160045260246000fd5b60405161014081016001600160401b03811182821017156120e0576120e06120a7565b60405290565b604051601f8201601f191681016001600160401b038111828210171561210e5761210e6120a7565b604052919050565b600082601f83011261212757600080fd5b81356001600160401b03811115612140576121406120a7565b612153601f8201601f19166020016120e6565b81815284602083860101111561216857600080fd5b816020850160208301376000918101602001919091529392505050565b60008060006060848603121561219a57600080fd5b8335925060208401356001600160401b038111156121b757600080fd5b6121c386828701612116565b925050604084013590509250925092565b60006001600160401b038211156121ed576121ed6120a7565b5060051b60200190565b80356001600160a01b038116811461220e57600080fd5b919050565b80356001600160401b038116811461220e57600080fd5b80356004811061220e57600080fd5b6000610140828403121561224c57600080fd5b6122546120bd565b905061225f826121f7565b81526020820135602082015261227760408301612213565b604082015261228860608301612213565b606082015261229960808301612213565b608082015260a08201356001600160401b03808211156122b857600080fd5b6122c485838601612116565b60a084015260c08401359150808211156122dd57600080fd5b6122e985838601612116565b60c08401526122fa60e0850161222a565b60e08401526101009150818401358181111561231557600080fd5b61232186828701612116565b83850152506101209150818401358181111561233c57600080fd5b61234886828701612116565b8385015250505092915050565b6000602080838503121561236857600080fd5b82356001600160401b038082111561237f57600080fd5b818501915085601f83011261239357600080fd5b81356123a66123a1826121d4565b6120e6565b81815260059190911b830184019084810190888311156123c557600080fd5b8585015b838110156123fd578035858111156123e15760008081fd5b6123ef8b89838a0101612239565b8452509186019186016123c9565b5098975050505050505050565b6020808252825182820181905260009190848201906040850190845b8181101561244257835183529284019291840191600101612426565b50909695505050505050565b600082601f83011261245f57600080fd5b8135602061246f6123a1836121d4565b82815260059290921b8401810191818101908684111561248e57600080fd5b8286015b848110156124a95780358352918301918301612492565b509695505050505050565b6000806000606084860312156124c957600080fd5b83356001600160401b03808211156124e057600080fd5b6124ec8783880161244e565b945060209150818601358181111561250357600080fd5b8601601f8101881361251457600080fd5b80356125226123a1826121d4565b81815260059190911b8201840190848101908a83111561254157600080fd5b8584015b838110156125795780358681111561255d5760008081fd5b61256b8d8983890101612116565b845250918601918601612545565b509650505050604086013591508082111561259357600080fd5b506125a08682870161244e565b9150509250925092565b600080604083850312156125bd57600080fd5b823591506125cd60208401612213565b90509250929050565b6000602082840312156125e857600080fd5b611e1b826121f7565b6080815260006126046080830185611fa2565b9050611e1b6020830184805182526020808201516001600160401b039081169184019190915260409182015116910152565b60006020828403121561264857600080fd5b81356001600160401b0381111561265e57600080fd5b61266a84828501612239565b949350505050565b60006020828403121561268457600080fd5b81356001600160401b0381111561269a57600080fd5b61266a8482850161244e565b6000602080830181845280855180835260408601915060408160051b870101925083870160005b828110156126fb57603f198886030184526126e9858351611fa2565b945092850192908501906001016126cd565b5092979650505050505050565b60006020828403121561271a57600080fd5b81356001600160401b0381111561273057600080fd5b61266a84828501612116565b6000602080838503121561274f57600080fd5b82356001600160401b038082111561276657600080fd5b818501915085601f83011261277a57600080fd5b81356127886123a1826121d4565b81815260059190911b830184019084810190888311156127a757600080fd5b8585015b838110156123fd578035858111156127c35760008081fd5b6127d18b89838a0101612116565b8452509186019186016127ab565b6000806000606084860312156127f457600080fd5b505081359360208301359350604090920135919050565b6000602080830181845280855180835260408601915060408160051b870101925083870160005b828110156126fb57603f1988860301845261284e858351611f3e565b94509285019290850190600101612832565b600181811c9082168061287457607f821691505b6020821081036119fb57634e487b7160e01b600052602260045260246000fd5b60208082526017908201527f43616c6c6572206973206e6f7420746865206f776e6572000000000000000000604082015260600190565b634e487b7160e01b600052601160045260246000fd5b80820180821115611f1457611f146128cb565b8281526000825161290c816020850160208701611f1a565b919091016020019392505050565b601f82111561296457600081815260208120601f850160051c810160208610156129415750805b601f850160051c820191505b818110156129605782815560010161294d565b5050505b505050565b81516001600160401b03811115612982576129826120a7565b612996816129908454612860565b8461291a565b602080601f8311600181146129cb57600084156129b35750858301515b600019600386901b1c1916600185901b178555612960565b600085815260208120601f198616915b828110156129fa578886015182559484019460019091019084016129db565b5085821015612a185787850151600019600388901b60f8161c191681555b5050505050600190811b01905550565b60006001600160401b03808316818103612a4457612a446128cb565b6001019392505050565b6001600160401b03818116838216019080821115610c0657610c066128cb565b6001600160401b03828116828216039080821115610c0657610c066128cb565b600060018201612aa057612aa06128cb565b5060010190565b634e487b7160e01b600052603260045260246000fd5b60006001600160401b0360c01b808960c01b168352808860c01b166008840152508560108301528451612af7816030850160208901611f1a565b845190830190612b0e816030840160208901611f1a565b016030810193909352505060500195945050505050565b60008251612b37818460208701611f1a565b9190910192915050565b604081526000612b546040830185611f3e565b90506001600160401b03831660208301529392505050565b81810381811115611f1457611f146128cb56fea2646970667358221220b53a56d48036ccf44b737fe6d692fb3c313e3c7a04c4123e4e7ac6121ccdfc8764736f6c63430008130033","linkReferences":{}},"methodIdentifiers":{"deleteFile(bytes32)":"6ab799f1","downloadFile(bytes32,uint256,uint256)":"fab91940","getFileInfo(bytes32)":"52f7347b","getFileKeyFromName(string[])":"f25671c4","getFileProgress(bytes32)":"46da5178","getFilesInfo(bytes32[])":"eb070e7e","lockFile(bytes32)":"9b26b2a8","mKeyToFileInfo(bytes32)":"c652793d","mNameToFileKey(string)":"edff13af","owner()":"8da5cb5b","pushFileInfo((address,bytes32,uint64,uint64,uint64,string,string,uint8,string,string))":"ca7e3cd4","pushFileInfos((address,bytes32,uint64,uint64,uint64,string,string,uint8,string,string)[])":"6e0c19b1","renewTime(bytes32,uint64)":"91c03370","service()":"d598d4c9","setService(address)":"bf8bdac1","uploadChunk(bytes32,bytes,bytes32)":"5f95c07b","uploadChunks(bytes32[],bytes[],bytes32[])":"8f73088d"},"id":27}