{"abi":[{"type":"constructor","inputs":[],"stateMutability":"payable"},{"type":"function","name":"AddNoti","inputs":[{"name":"params","type":"tuple","internalType":"struct NotiParams","components":[{"name":"title","type":"string","internalType":"string"},{"name":"body","type":"string","internalType":"string"}]},{"name":"_to","type":"address","internalType":"address"}],"outputs":[{"name":"","type":"bool","internalType":"bool"}],"stateMutability":"nonpayable"},{"type":"function","name":"SetAdmin","inputs":[{"name":"_newAdmin","type":"address","internalType":"address"},{"name":"add","type":"bool","internalType":"bool"}],"outputs":[],"stateMutability":"nonpayable"},{"type":"function","name":"addSystemDApp","inputs":[{"name":"dapp","type":"address","internalType":"address"}],"outputs":[],"stateMutability":"nonpayable"},{"type":"function","name":"getAllDAppsPermissionByUser","inputs":[{"name":"_user","type":"address","internalType":"address"}],"outputs":[{"name":"list","type":"address[]","internalType":"address[]"}],"stateMutability":"view"},{"type":"function","name":"getAllSystemDApps","inputs":[],"outputs":[{"name":"","type":"address[]","internalType":"address[]"}],"stateMutability":"view"},{"type":"function","name":"isAdmin","inputs":[{"name":"","type":"address","internalType":"address"}],"outputs":[{"name":"","type":"bool","internalType":"bool"}],"stateMutability":"view"},{"type":"function","name":"mDappUserToPermission","inputs":[{"name":"","type":"address","internalType":"address"},{"name":"","type":"address","internalType":"address"}],"outputs":[{"name":"","type":"bool","internalType":"bool"}],"stateMutability":"view"},{"type":"function","name":"mSystemDApps","inputs":[{"name":"","type":"address","internalType":"address"}],"outputs":[{"name":"","type":"bool","internalType":"bool"}],"stateMutability":"view"},{"type":"function","name":"mUserToDApps","inputs":[{"name":"","type":"address","internalType":"address"},{"name":"","type":"uint256","internalType":"uint256"}],"outputs":[{"name":"","type":"address","internalType":"address"}],"stateMutability":"view"},{"type":"function","name":"owner","inputs":[],"outputs":[{"name":"","type":"address","internalType":"address"}],"stateMutability":"view"},{"type":"function","name":"registerDeviceToken","inputs":[{"name":"dapp","type":"address","internalType":"address"},{"name":"encryptedToken","type":"string","internalType":"string"},{"name":"_platform","type":"uint8","internalType":"enum PlatformEnum"}],"outputs":[],"stateMutability":"nonpayable"},{"type":"function","name":"removeSystemDApp","inputs":[{"name":"dapp","type":"address","internalType":"address"}],"outputs":[],"stateMutability":"nonpayable"},{"type":"function","name":"revokeDAppPermission","inputs":[{"name":"dapp","type":"address","internalType":"address"}],"outputs":[],"stateMutability":"nonpayable"},{"type":"function","name":"systemDApps","inputs":[{"name":"","type":"uint256","internalType":"uint256"}],"outputs":[{"name":"","type":"address","internalType":"address"}],"stateMutability":"view"},{"type":"event","name":"DeviceTokenRegistered","inputs":[{"name":"dapp","type":"address","indexed":true,"internalType":"address"},{"name":"user","type":"address","indexed":true,"internalType":"address"},{"name":"encryptedToken","type":"string","indexed":false,"internalType":"string"},{"name":"platform","type":"uint8","indexed":false,"internalType":"uint8"}],"anonymous":false},{"type":"event","name":"NotificationSent","inputs":[{"name":"dapp","type":"address","indexed":true,"internalType":"address"},{"name":"user","type":"address","indexed":true,"internalType":"address"},{"name":"title","type":"string","indexed":false,"internalType":"string"},{"name":"body","type":"string","indexed":false,"internalType":"string"},{"name":"atTime","type":"uint256","indexed":false,"internalType":"uint256"}],"anonymous":false}],"bytecode":{"object":"0x60806040908152600080546001600160a01b0319163390811782558152600560205220805460ff19166001179055610ec88061003c6000396000f3fe608060405234801561001057600080fd5b50600436106100ea5760003560e01c80637effb4631161008c578063e7cd138511610066578063e7cd138514610217578063f8dbc9e81461022c578063fe4772611461023f578063ff10f0861461025257600080fd5b80637effb463146101de5780638da5cb5b146101f1578063d895af3d1461020457600080fd5b806333158b13116100c857806333158b131461017557806335c48ef61461018a57806355a5194b1461019d578063564c2298146101b057600080fd5b806315f4f823146100ef578063192de59a1461012757806324d7806c14610152575b600080fd5b6101126100fd3660046109ff565b60026020526000908152604090205460ff1681565b60405190151581526020015b60405180910390f35b61013a610135366004610a21565b610265565b6040516001600160a01b03909116815260200161011e565b6101126101603660046109ff565b60056020526000908152604090205460ff1681565b6101886101833660046109ff565b61029d565b005b61013a610198366004610a4b565b61045d565b6101886101ab366004610a64565b610487565b6101126101be366004610aa0565b600160209081526000928352604080842090915290825290205460ff1681565b6101886101ec3660046109ff565b6104f9565b60005461013a906001600160a01b031681565b610188610212366004610ad3565b61064e565b61021f61070d565b60405161011e9190610b6d565b61021f61023a3660046109ff565b61076f565b61011261024d366004610c5d565b610850565b6101886102603660046109ff565b610949565b6004602052816000526040600020818154811061028157600080fd5b6000918252602090912001546001600160a01b03169150829050565b6001600160a01b038116600090815260016020908152604080832033845290915290205460ff166103275760405162461bcd60e51b815260206004820152602960248201527f44657669636520746f6b656e206e6f74207265676973746572656420666f722060448201526807468697320444170760bc1b60648201526084015b60405180910390fd5b6001600160a01b03811660009081526001602090815260408083203384528252808320805460ff1916905560049091528120905b81548110156104585781818154811061037657610376610d0e565b6000918252602090912001546001600160a01b039081169084160361041457815482906103a590600190610d3a565b815481106103b5576103b5610d0e565b9060005260206000200160009054906101000a90046001600160a01b03168282815481106103e5576103e5610d0e565b9060005260206000200160006101000a8154816001600160a01b0302191690836001600160a01b031602179055505b8180548061042457610424610d53565b600082815260209020810160001990810180546001600160a01b03191690550190558061045081610d69565b91505061035b565b505050565b6003818154811061046d57600080fd5b6000918252602090912001546001600160a01b0316905081565b6000546001600160a01b031633146104ce5760405162461bcd60e51b815260206004820152600a60248201526937b7363c9037bbb732b960b11b604482015260640161031e565b6001600160a01b03919091166000908152600560205260409020805460ff1916911515919091179055565b3360009081526005602052604090205460ff16151560011461052d5760405162461bcd60e51b815260040161031e90610d82565b6001600160a01b0381166000908152600260205260408120805460ff191690555b60035481101561064a576003818154811061056b5761056b610d0e565b6000918252602090912001546001600160a01b0390811690831603610605576003805461059a90600190610d3a565b815481106105aa576105aa610d0e565b600091825260209091200154600380546001600160a01b0390921691839081106105d6576105d6610d0e565b9060005260206000200160006101000a8154816001600160a01b0302191690836001600160a01b031602179055505b600380548061061657610616610d53565b600082815260209020810160001990810180546001600160a01b03191690550190558061064281610d69565b91505061054e565b5050565b6001600160a01b0384166000818152600160208181526040808420338086529252909220805460ff19169091179055907f5823619587beb5fa20e5571f107471a637e72721a9719da0fc8c26d5ae85b63e85858560028111156106b3576106b3610dc4565b6040516106c293929190610dda565b60405180910390a350503360009081526004602090815260408220805460018101825590835291200180546001600160a01b0319166001600160a01b03939093169290921790915550565b6060600380548060200260200160405190810160405280929190818152602001828054801561076557602002820191906000526020600020905b81546001600160a01b03168152600190910190602001808311610747575b5050505050905090565b6001600160a01b038116600090815260046020526040902080546060919067ffffffffffffffff8111156107a5576107a5610bba565b6040519080825280602002602001820160405280156107ce578160200160208202803683370190505b50915060005b8154811015610849578181815481106107ef576107ef610d0e565b9060005260206000200160009054906101000a90046001600160a01b031683828151811061081f5761081f610d0e565b6001600160a01b03909216602092830291909101909101528061084181610d69565b9150506107d4565b5050919050565b33600090815260026020526040812054829060ff168061089357503360009081526001602090815260408083206001600160a01b038516845290915290205460ff165b6108f15760405162461bcd60e51b815260206004820152602960248201527f44417070206e6f7420617574686f72697a656420746f2073656e64206e6f74696044820152686669636174696f6e7360b81b606482015260840161031e565b835160208501516040516001600160a01b0386169233927f88bfbf59f1056861b7a45a80f3a65d9fd26efcaf5cd77ac42dc88d2da5f5cbca926109379291904290610e5c565b60405180910390a35060019392505050565b3360009081526005602052604090205460ff16151560011461097d5760405162461bcd60e51b815260040161031e90610d82565b6001600160a01b03166000818152600260205260408120805460ff191660019081179091556003805491820181559091527fc2575a0e9e593c00f959f8c92f12db2869c3395a3b0502d05e2516446f71f85b0180546001600160a01b0319169091179055565b80356001600160a01b03811681146109fa57600080fd5b919050565b600060208284031215610a1157600080fd5b610a1a826109e3565b9392505050565b60008060408385031215610a3457600080fd5b610a3d836109e3565b946020939093013593505050565b600060208284031215610a5d57600080fd5b5035919050565b60008060408385031215610a7757600080fd5b610a80836109e3565b915060208301358015158114610a9557600080fd5b809150509250929050565b60008060408385031215610ab357600080fd5b610abc836109e3565b9150610aca602084016109e3565b90509250929050565b60008060008060608587031215610ae957600080fd5b610af2856109e3565b9350602085013567ffffffffffffffff80821115610b0f57600080fd5b818701915087601f830112610b2357600080fd5b813581811115610b3257600080fd5b886020828501011115610b4457600080fd5b602083019550809450505050604085013560038110610b6257600080fd5b939692955090935050565b6020808252825182820181905260009190848201906040850190845b81811015610bae5783516001600160a01b031683529284019291840191600101610b89565b50909695505050505050565b634e487b7160e01b600052604160045260246000fd5b600082601f830112610be157600080fd5b813567ffffffffffffffff80821115610bfc57610bfc610bba565b604051601f8301601f19908116603f01168101908282118183101715610c2457610c24610bba565b81604052838152866020858801011115610c3d57600080fd5b836020870160208301376000602085830101528094505050505092915050565b60008060408385031215610c7057600080fd5b823567ffffffffffffffff80821115610c8857600080fd5b9084019060408287031215610c9c57600080fd5b604051604081018181108382111715610cb757610cb7610bba565b604052823582811115610cc957600080fd5b610cd588828601610bd0565b825250602083013582811115610cea57600080fd5b610cf688828601610bd0565b602083015250809450505050610aca602084016109e3565b634e487b7160e01b600052603260045260246000fd5b634e487b7160e01b600052601160045260246000fd5b81810381811115610d4d57610d4d610d24565b92915050565b634e487b7160e01b600052603160045260246000fd5b600060018201610d7b57610d7b610d24565b5060010190565b60208082526022908201527f4f6e6c792061646d696e2063616e20706572666f726d2074686973206163746960408201526137b760f11b606082015260800190565b634e487b7160e01b600052602160045260246000fd5b604081528260408201528284606083013760006060848301015260006060601f19601f860116830101905060ff83166020830152949350505050565b6000815180845260005b81811015610e3c57602081850181015186830182015201610e20565b506000602082860101526020601f19601f83011685010191505092915050565b606081526000610e6f6060830186610e16565b8281036020840152610e818186610e16565b91505082604083015294935050505056fea2646970667358221220fa2d1d8aba972f5dfcc92e7a9881a58091c62146afe5406a82beb84942cf377064736f6c63430008130033","linkReferences":{}},"methodIdentifiers":{"AddNoti((string,string),address)":"fe477261","SetAdmin(address,bool)":"55a5194b","addSystemDApp(address)":"ff10f086","getAllDAppsPermissionByUser(address)":"f8dbc9e8","getAllSystemDApps()":"e7cd1385","isAdmin(address)":"24d7806c","mDappUserToPermission(address,address)":"564c2298","mSystemDApps(address)":"15f4f823","mUserToDApps(address,uint256)":"192de59a","owner()":"8da5cb5b","registerDeviceToken(address,string,uint8)":"d895af3d","removeSystemDApp(address)":"7effb463","revokeDAppPermission(address)":"33158b13","systemDApps(uint256)":"35c48ef6"},"id":26}