{"abi":[{"type":"constructor","inputs":[{"name":"_masterEmailStorage","type":"address","internalType":"address"}],"stateMutability":"payable"},{"type":"function","name":"count","inputs":[],"outputs":[{"name":"","type":"uint64","internalType":"uint64"}],"stateMutability":"view"},{"type":"function","name":"createEmailStorage","inputs":[],"outputs":[{"name":"","type":"address","internalType":"address"}],"stateMutability":"nonpayable"},{"type":"function","name":"getEmailStorageBySender","inputs":[{"name":"sender","type":"address","internalType":"address"}],"outputs":[{"name":"","type":"address","internalType":"address"}],"stateMutability":"view"},{"type":"function","name":"init","inputs":[{"name":"clone","type":"address","internalType":"address"}],"outputs":[],"stateMutability":"nonpayable"},{"type":"function","name":"mEmailStorage","inputs":[{"name":"","type":"uint256","internalType":"uint256"}],"outputs":[{"name":"","type":"address","internalType":"address"}],"stateMutability":"view"},{"type":"function","name":"masterEmailStorage","inputs":[],"outputs":[{"name":"","type":"address","internalType":"address"}],"stateMutability":"view"},{"type":"function","name":"noti","inputs":[],"outputs":[{"name":"","type":"address","internalType":"address"}],"stateMutability":"view"},{"type":"function","name":"owner","inputs":[],"outputs":[{"name":"","type":"address","internalType":"address"}],"stateMutability":"view"},{"type":"function","name":"renounceOwnership","inputs":[],"outputs":[],"stateMutability":"nonpayable"},{"type":"function","name":"service","inputs":[],"outputs":[{"name":"","type":"address","internalType":"address"}],"stateMutability":"view"},{"type":"function","name":"setNoti","inputs":[{"name":"_noti","type":"address","internalType":"address"}],"outputs":[],"stateMutability":"nonpayable"},{"type":"function","name":"setService","inputs":[{"name":"_service","type":"address","internalType":"address"}],"outputs":[],"stateMutability":"nonpayable"},{"type":"function","name":"transferOwnership","inputs":[{"name":"newOwner","type":"address","internalType":"address"}],"outputs":[],"stateMutability":"nonpayable"},{"type":"event","name":"EmailStorageCreated","inputs":[{"name":"sender","type":"address","indexed":true,"internalType":"address"},{"name":"emailStorage","type":"address","indexed":false,"internalType":"address"}],"anonymous":false},{"type":"event","name":"OwnershipTransferred","inputs":[{"name":"previousOwner","type":"address","indexed":true,"internalType":"address"},{"name":"newOwner","type":"address","indexed":true,"internalType":"address"}],"anonymous":false}],"bytecode":{"object":"0x6080604052604051610b26380380610b2683398101604081905261002291610109565b61002b336100b9565b6001600160a01b0381166100945760405162461bcd60e51b815260206004820152602660248201527f4d617374657220636f6e74726163742063616e6e6f74206265207a65726f206160448201526564647265737360d01b606482015260840160405180910390fd5b600580546001600160a01b0319166001600160a01b0392909216919091179055610139565b600080546001600160a01b038381166001600160a01b0319831681178455604051919092169283917f8be0079c531659141344cd1fd0a4f28419497f9722a3daafe3b4186f6b6457e09190a35050565b60006020828403121561011b57600080fd5b81516001600160a01b038116811461013257600080fd5b9392505050565b6109de806101486000396000f3fe608060405234801561001057600080fd5b50600436106100cf5760003560e01c80638da5cb5b1161008c578063d598d4c911610066578063d598d4c9146101da578063e99ed449146101f4578063ebfa51e0146101fc578063f2fde38b1461020f57600080fd5b80638da5cb5b1461018a578063a6439c321461019b578063bf8bdac1146101c757600080fd5b806306661abd146100d4578063185bafb91461010657806319ab453c146101475780634e482bfe1461015c5780636fb9bbed1461016f578063715018a614610182575b600080fd5b6003546100e89067ffffffffffffffff1681565b60405167ffffffffffffffff90911681526020015b60405180910390f35b61012f6101143660046108e7565b6002602052600090815260409020546001600160a01b031681565b6040516001600160a01b0390911681526020016100fd565b61015a610155366004610900565b610222565b005b60055461012f906001600160a01b031681565b60045461012f906001600160a01b031681565b61015a610343565b6000546001600160a01b031661012f565b61012f6101a9366004610900565b6001600160a01b039081166000908152600160205260409020541690565b61015a6101d5366004610900565b610357565b60035461012f90600160401b90046001600160a01b031681565b61012f61042c565b61015a61020a366004610900565b61058a565b61015a61021d366004610900565b61065a565b600354600160401b90046001600160a01b031661027c5760405162461bcd60e51b81526020600482015260136024820152721cd95c9d9a58d9481b9bdd081cd95d081e595d606a1b60448201526064015b60405180910390fd5b6004546001600160a01b03166102c75760405162461bcd60e51b815260206004820152601060248201526f1b9bdd1a481b9bdd081cd95d081e595d60821b6044820152606401610273565b6003546004805460405163c0c53b8b60e01b815233928101929092526001600160a01b03600160401b90930483166024830152821660448201529082169063c0c53b8b90606401600060405180830381600087803b15801561032857600080fd5b505af115801561033c573d6000803e3d6000fd5b5050505050565b61034b6106d3565b610355600061072d565b565b61035f6106d3565b6001600160a01b0381166103b55760405162461bcd60e51b815260206004820152601e60248201527f5365727669636520616464726573732063616e6e6f74206265207a65726f00006044820152606401610273565b6003805468010000000000000000600160e01b031916600160401b6001600160a01b0384160217905560015b60035467ffffffffffffffff16811161042857600081815260026020526040902054610416906001600160a01b03168361077d565b8061042081610946565b9150506103e1565b5050565b336000908152600160205260408120546001600160a01b0316156104a15760405162461bcd60e51b815260206004820152602660248201527f456d61696c53746f7261676520616c72656164792065786973747320666f722060448201526539b2b73232b960d11b6064820152608401610273565b6005546000906104b9906001600160a01b03166107dc565b33600090815260016020526040812080546001600160a01b0319166001600160a01b0384161790556003805492935067ffffffffffffffff90921691906104ff8361095f565b82546101009290920a67ffffffffffffffff8181021990931691831602179091556003541660009081526002602090815260409182902080546001600160a01b0319166001600160a01b03861690811790915591519182523392507fb38488193b2dd0c4ea37059b9cd30b33bb8ec8df975c2058b17e93bf25e86c25910160405180910390a2919050565b6105926106d3565b6001600160a01b0381166105f45760405162461bcd60e51b815260206004820152602360248201527f4e6f74696669636174696f6e20616464726573732063616e6e6f74206265207a60448201526265726f60e81b6064820152608401610273565b600480546001600160a01b0319166001600160a01b03831617905560015b60035467ffffffffffffffff1681101561042857600081815260026020526040902054610648906001600160a01b031683610876565b8061065281610946565b915050610612565b6106626106d3565b6001600160a01b0381166106c75760405162461bcd60e51b815260206004820152602660248201527f4f776e61626c653a206e6577206f776e657220697320746865207a65726f206160448201526564647265737360d01b6064820152608401610273565b6106d08161072d565b50565b6000546001600160a01b031633146103555760405162461bcd60e51b815260206004820181905260248201527f4f776e61626c653a2063616c6c6572206973206e6f7420746865206f776e65726044820152606401610273565b600080546001600160a01b038381166001600160a01b0319831681178455604051919092169283917f8be0079c531659141344cd1fd0a4f28419497f9722a3daafe3b4186f6b6457e09190a35050565b60405163bf8bdac160e01b81526001600160a01b03828116600483015283169063bf8bdac190602401600060405180830381600087803b1580156107c057600080fd5b505af11580156107d4573d6000803e3d6000fd5b505050505050565b6000763d602d80600a3d3981f3363d3d373d3d3d363d730000008260601b60e81c176000526e5af43d82803e903d91602b57fd5bf38260781b17602052603760096000f090506001600160a01b0381166108715760405162461bcd60e51b8152602060048201526016602482015275115490cc4c4d8dce8818dc99585d194819985a5b195960521b6044820152606401610273565b919050565b60405163df9ef75360e01b81526001600160a01b03828116600483015283169063df9ef753906024016020604051808303816000875af11580156108be573d6000803e3d6000fd5b505050506040513d601f19601f820116820180604052508101906108e29190610986565b505050565b6000602082840312156108f957600080fd5b5035919050565b60006020828403121561091257600080fd5b81356001600160a01b038116811461092957600080fd5b9392505050565b634e487b7160e01b600052601160045260246000fd5b60006001820161095857610958610930565b5060010190565b600067ffffffffffffffff80831681810361097c5761097c610930565b6001019392505050565b60006020828403121561099857600080fd5b8151801515811461092957600080fdfea264697066735822122066ad18c0972274da27d27ec023abb39b6ebc22bbb1276ef4ac47a93a33750d6364736f6c63430008130033","linkReferences":{}},"methodIdentifiers":{"count()":"06661abd","createEmailStorage()":"e99ed449","getEmailStorageBySender(address)":"a6439c32","init(address)":"19ab453c","mEmailStorage(uint256)":"185bafb9","masterEmailStorage()":"4e482bfe","noti()":"6fb9bbed","owner()":"8da5cb5b","renounceOwnership()":"715018a6","service()":"d598d4c9","setNoti(address)":"ebfa51e0","setService(address)":"bf8bdac1","transferOwnership(address)":"f2fde38b"},"id":30}