{"abi":[{"type":"constructor","inputs":[{"name":"_masterEmailStorage","type":"address","internalType":"address"}],"stateMutability":"payable"},{"type":"function","name":"count","inputs":[],"outputs":[{"name":"","type":"uint64","internalType":"uint64"}],"stateMutability":"view"},{"type":"function","name":"createEmailStorage","inputs":[],"outputs":[{"name":"","type":"address","internalType":"address"}],"stateMutability":"nonpayable"},{"type":"function","name":"getEmailStorageBySender","inputs":[{"name":"sender","type":"address","internalType":"address"}],"outputs":[{"name":"","type":"address","internalType":"address"}],"stateMutability":"view"},{"type":"function","name":"init","inputs":[{"name":"clone","type":"address","internalType":"address"}],"outputs":[],"stateMutability":"nonpayable"},{"type":"function","name":"mEmailStorage","inputs":[{"name":"","type":"uint256","internalType":"uint256"}],"outputs":[{"name":"","type":"address","internalType":"address"}],"stateMutability":"view"},{"type":"function","name":"masterEmailStorage","inputs":[],"outputs":[{"name":"","type":"address","internalType":"address"}],"stateMutability":"view"},{"type":"function","name":"noti","inputs":[],"outputs":[{"name":"","type":"address","internalType":"address"}],"stateMutability":"view"},{"type":"function","name":"owner","inputs":[],"outputs":[{"name":"","type":"address","internalType":"address"}],"stateMutability":"view"},{"type":"function","name":"renounceOwnership","inputs":[],"outputs":[],"stateMutability":"nonpayable"},{"type":"function","name":"service","inputs":[],"outputs":[{"name":"","type":"address","internalType":"address"}],"stateMutability":"view"},{"type":"function","name":"setNoti","inputs":[{"name":"_noti","type":"address","internalType":"address"}],"outputs":[],"stateMutability":"nonpayable"},{"type":"function","name":"setService","inputs":[{"name":"_service","type":"address","internalType":"address"}],"outputs":[],"stateMutability":"nonpayable"},{"type":"function","name":"transferOwnership","inputs":[{"name":"newOwner","type":"address","internalType":"address"}],"outputs":[],"stateMutability":"nonpayable"},{"type":"event","name":"EmailStorageCreated","inputs":[{"name":"sender","type":"address","indexed":true,"internalType":"address"},{"name":"emailStorage","type":"address","indexed":false,"internalType":"address"}],"anonymous":false},{"type":"event","name":"OwnershipTransferred","inputs":[{"name":"previousOwner","type":"address","indexed":true,"internalType":"address"},{"name":"newOwner","type":"address","indexed":true,"internalType":"address"}],"anonymous":false}],"bytecode":{"object":"0x6080604052604051610e46380380610e4683398101604081905261002291610109565b61002b336100b9565b6001600160a01b0381166100945760405162461bcd60e51b815260206004820152602660248201527f4d617374657220636f6e74726163742063616e6e6f74206265207a65726f206160448201526564647265737360d01b606482015260840160405180910390fd5b600580546001600160a01b0319166001600160a01b0392909216919091179055610139565b600080546001600160a01b038381166001600160a01b0319831681178455604051919092169283917f8be0079c531659141344cd1fd0a4f28419497f9722a3daafe3b4186f6b6457e09190a35050565b60006020828403121561011b57600080fd5b81516001600160a01b038116811461013257600080fd5b9392505050565b610cfe806101486000396000f3fe608060405234801561001057600080fd5b50600436106100cf5760003560e01c80638da5cb5b1161008c578063d598d4c911610066578063d598d4c9146101da578063e99ed449146101f4578063ebfa51e0146101fc578063f2fde38b1461020f57600080fd5b80638da5cb5b1461018a578063a6439c321461019b578063bf8bdac1146101c757600080fd5b806306661abd146100d4578063185bafb91461010657806319ab453c146101475780634e482bfe1461015c5780636fb9bbed1461016f578063715018a614610182575b600080fd5b6003546100e89067ffffffffffffffff1681565b60405167ffffffffffffffff90911681526020015b60405180910390f35b61012f610114366004610af3565b6002602052600090815260409020546001600160a01b031681565b6040516001600160a01b0390911681526020016100fd565b61015a610155366004610b0c565b610222565b005b60055461012f906001600160a01b031681565b60045461012f906001600160a01b031681565b61015a610343565b6000546001600160a01b031661012f565b61012f6101a9366004610b0c565b6001600160a01b039081166000908152600160205260409020541690565b61015a6101d5366004610b0c565b610357565b60035461012f90600160401b90046001600160a01b031681565b61012f61042c565b61015a61020a366004610b0c565b61058a565b61015a61021d366004610b0c565b61065a565b600354600160401b90046001600160a01b031661027c5760405162461bcd60e51b81526020600482015260136024820152721cd95c9d9a58d9481b9bdd081cd95d081e595d606a1b60448201526064015b60405180910390fd5b6004546001600160a01b03166102c75760405162461bcd60e51b815260206004820152601060248201526f1b9bdd1a481b9bdd081cd95d081e595d60821b6044820152606401610273565b6003546004805460405163c0c53b8b60e01b815233928101929092526001600160a01b03600160401b90930483166024830152821660448201529082169063c0c53b8b90606401600060405180830381600087803b15801561032857600080fd5b505af115801561033c573d6000803e3d6000fd5b5050505050565b61034b6106d3565b610355600061072d565b565b61035f6106d3565b6001600160a01b0381166103b55760405162461bcd60e51b815260206004820152601e60248201527f5365727669636520616464726573732063616e6e6f74206265207a65726f00006044820152606401610273565b6003805468010000000000000000600160e01b031916600160401b6001600160a01b0384160217905560015b60035467ffffffffffffffff16811161042857600081815260026020526040902054610416906001600160a01b03168361077d565b8061042081610b52565b9150506103e1565b5050565b336000908152600160205260408120546001600160a01b0316156104a15760405162461bcd60e51b815260206004820152602660248201527f456d61696c53746f7261676520616c72656164792065786973747320666f722060448201526539b2b73232b960d11b6064820152608401610273565b6005546000906104b9906001600160a01b03166108f5565b33600090815260016020526040812080546001600160a01b0319166001600160a01b0384161790556003805492935067ffffffffffffffff90921691906104ff83610b6b565b82546101009290920a67ffffffffffffffff8181021990931691831602179091556003541660009081526002602090815260409182902080546001600160a01b0319166001600160a01b03861690811790915591519182523392507fb38488193b2dd0c4ea37059b9cd30b33bb8ec8df975c2058b17e93bf25e86c25910160405180910390a2919050565b6105926106d3565b6001600160a01b0381166105f45760405162461bcd60e51b815260206004820152602360248201527f4e6f74696669636174696f6e20616464726573732063616e6e6f74206265207a60448201526265726f60e81b6064820152608401610273565b600480546001600160a01b0319166001600160a01b03831617905560015b60035467ffffffffffffffff1681101561042857600081815260026020526040902054610648906001600160a01b03168361098f565b8061065281610b52565b915050610612565b6106626106d3565b6001600160a01b0381166106c75760405162461bcd60e51b815260206004820152602660248201527f4f776e61626c653a206e6577206f776e657220697320746865207a65726f206160448201526564647265737360d01b6064820152608401610273565b6106d08161072d565b50565b6000546001600160a01b031633146103555760405162461bcd60e51b815260206004820181905260248201527f4f776e61626c653a2063616c6c6572206973206e6f7420746865206f776e65726044820152606401610273565b600080546001600160a01b038381166001600160a01b0319831681178455604051919092169283917f8be0079c531659141344cd1fd0a4f28419497f9722a3daafe3b4186f6b6457e09190a35050565b6001600160a01b0382166107d35760405162461bcd60e51b815260206004820152601c60248201527f496e76616c696420456d61696c53746f726167652061646472657373000000006044820152606401610273565b6001600160a01b0381166108295760405162461bcd60e51b815260206004820152601760248201527f496e76616c6964207365727669636520616464726573730000000000000000006044820152606401610273565b6040516001600160a01b038281166024830152600091829185169060440160408051601f198184030181529181526020820180516001600160e01b031663bf8bdac160e01b1790525161087c9190610bb6565b6000604051808303816000865af19150503d80600081146108b9576040519150601f19603f3d011682016040523d82523d6000602084013e6108be565b606091505b5091509150816108ef5760006108d382610a8e565b90508060405162461bcd60e51b81526004016102739190610bd2565b50505050565b6000763d602d80600a3d3981f3363d3d373d3d3d363d730000008260601b60e81c176000526e5af43d82803e903d91602b57fd5bf38260781b17602052603760096000f090506001600160a01b03811661098a5760405162461bcd60e51b8152602060048201526016602482015275115490cc4c4d8dce8818dc99585d194819985a5b195960521b6044820152606401610273565b919050565b6001600160a01b0382166109e55760405162461bcd60e51b815260206004820152601c60248201527f496e76616c696420456d61696c53746f726167652061646472657373000000006044820152606401610273565b6001600160a01b038116610a3b5760405162461bcd60e51b815260206004820152601c60248201527f496e76616c6964206e6f74696669636174696f6e2061646472657373000000006044820152606401610273565b6040516001600160a01b038281166024830152600091829185169060440160408051601f198184030181529181526020820180516001600160e01b031663df9ef75360e01b1790525161087c9190610bb6565b6060604482511015610ad357505060408051808201909152601d81527f5472616e73616374696f6e2072657665727465642073696c656e746c79000000602082015290565b60048201915081806020019051810190610aed9190610c1b565b92915050565b600060208284031215610b0557600080fd5b5035919050565b600060208284031215610b1e57600080fd5b81356001600160a01b0381168114610b3557600080fd5b9392505050565b634e487b7160e01b600052601160045260246000fd5b600060018201610b6457610b64610b3c565b5060010190565b600067ffffffffffffffff808316818103610b8857610b88610b3c565b6001019392505050565b60005b83811015610bad578181015183820152602001610b95565b50506000910152565b60008251610bc8818460208701610b92565b9190910192915050565b6020815260008251806020840152610bf1816040850160208701610b92565b601f01601f19169190910160400192915050565b634e487b7160e01b600052604160045260246000fd5b600060208284031215610c2d57600080fd5b815167ffffffffffffffff80821115610c4557600080fd5b818401915084601f830112610c5957600080fd5b815181811115610c6b57610c6b610c05565b604051601f8201601f19908116603f01168101908382118183101715610c9357610c93610c05565b81604052828152876020848701011115610cac57600080fd5b610cbd836020830160208801610b92565b97965050505050505056fea2646970667358221220be067745977d8a577af0ca17ff092aa0090c583d60bf308fab952bbd0706bf4e64736f6c63430008130033","linkReferences":{}},"methodIdentifiers":{"count()":"06661abd","createEmailStorage()":"e99ed449","getEmailStorageBySender(address)":"a6439c32","init(address)":"19ab453c","mEmailStorage(uint256)":"185bafb9","masterEmailStorage()":"4e482bfe","noti()":"6fb9bbed","owner()":"8da5cb5b","renounceOwnership()":"715018a6","service()":"d598d4c9","setNoti(address)":"ebfa51e0","setService(address)":"bf8bdac1","transferOwnership(address)":"f2fde38b"},"id":33}