{"abi":[{"type":"constructor","inputs":[],"stateMutability":"payable"},{"type":"function","name":"REPO_NOTI_SMC","inputs":[],"outputs":[{"name":"","type":"string","internalType":"string"}],"stateMutability":"view"},{"type":"function","name":"createEmail","inputs":[{"name":"sender","type":"string","internalType":"string"},{"name":"subject","type":"string","internalType":"string"},{"name":"body","type":"string","internalType":"string"},{"name":"_fileKeys","type":"bytes32[]","internalType":"bytes32[]"},{"name":"createdAt","type":"uint64","internalType":"uint64"}],"outputs":[{"name":"","type":"uint256","internalType":"uint256"}],"stateMutability":"nonpayable"},{"type":"function","name":"emailCounter","inputs":[],"outputs":[{"name":"","type":"uint256","internalType":"uint256"}],"stateMutability":"view"},{"type":"function","name":"fileSc","inputs":[],"outputs":[{"name":"","type":"address","internalType":"address"}],"stateMutability":"view"},{"type":"function","name":"getAllEmailInfos","inputs":[],"outputs":[{"name":"","type":"tuple[]","internalType":"struct EmailInfo[]","components":[{"name":"subject","type":"string","internalType":"string"},{"name":"from","type":"string","internalType":"string"},{"name":"createdAt","type":"uint64","internalType":"uint64"},{"name":"isRead","type":"uint8","internalType":"uint8"},{"name":"fileKeys","type":"bytes32[]","internalType":"bytes32[]"}]}],"stateMutability":"view"},{"type":"function","name":"getEmail","inputs":[{"name":"emailID","type":"uint256","internalType":"uint256"}],"outputs":[{"name":"","type":"tuple","internalType":"struct Email","components":[{"name":"info","type":"tuple","internalType":"struct EmailInfo","components":[{"name":"subject","type":"string","internalType":"string"},{"name":"from","type":"string","internalType":"string"},{"name":"createdAt","type":"uint64","internalType":"uint64"},{"name":"isRead","type":"uint8","internalType":"uint8"},{"name":"fileKeys","type":"bytes32[]","internalType":"bytes32[]"}]},{"name":"body","type":"string","internalType":"string"}]}],"stateMutability":"nonpayable"},{"type":"function","name":"getEmailInfos","inputs":[{"name":"startIndex","type":"uint256","internalType":"uint256"},{"name":"count","type":"uint256","internalType":"uint256"}],"outputs":[{"name":"","type":"tuple[]","internalType":"struct EmailInfo[]","components":[{"name":"subject","type":"string","internalType":"string"},{"name":"from","type":"string","internalType":"string"},{"name":"createdAt","type":"uint64","internalType":"uint64"},{"name":"isRead","type":"uint8","internalType":"uint8"},{"name":"fileKeys","type":"bytes32[]","internalType":"bytes32[]"}]}],"stateMutability":"view"},{"type":"function","name":"initialize","inputs":[{"name":"_storageOwner","type":"address","internalType":"address"},{"name":"_service","type":"address","internalType":"address"},{"name":"_notification","type":"address","internalType":"address"}],"outputs":[],"stateMutability":"nonpayable"},{"type":"function","name":"notiSMC","inputs":[],"outputs":[{"name":"","type":"address","internalType":"contract INoti"}],"stateMutability":"view"},{"type":"function","name":"owner","inputs":[],"outputs":[{"name":"","type":"address","internalType":"address"}],"stateMutability":"view"},{"type":"function","name":"service","inputs":[],"outputs":[{"name":"","type":"address","internalType":"address"}],"stateMutability":"view"},{"type":"function","name":"setFileSMC","inputs":[{"name":"_fileSc","type":"address","internalType":"address"}],"outputs":[],"stateMutability":"nonpayable"},{"type":"function","name":"setNotificationSMC","inputs":[{"name":"_notiSMCAddress","type":"address","internalType":"address"}],"outputs":[{"name":"","type":"bool","internalType":"bool"}],"stateMutability":"nonpayable"},{"type":"function","name":"setService","inputs":[{"name":"_service","type":"address","internalType":"address"}],"outputs":[],"stateMutability":"nonpayable"},{"type":"function","name":"setStorageOwner","inputs":[{"name":"_storageOwner","type":"address","internalType":"address"}],"outputs":[],"stateMutability":"nonpayable"},{"type":"function","name":"storageOwner","inputs":[],"outputs":[{"name":"","type":"address","internalType":"address"}],"stateMutability":"view"},{"type":"event","name":"EmailCreated","inputs":[{"name":"emailID","type":"uint256","indexed":false,"internalType":"uint256"},{"name":"subject","type":"string","indexed":false,"internalType":"string"},{"name":"creator","type":"string","indexed":true,"internalType":"string"}],"anonymous":false},{"type":"event","name":"NotificationFailed","inputs":[{"name":"reason","type":"string","indexed":false,"internalType":"string"}],"anonymous":false}],"bytecode":{"object":"0x60c060405260046080908152631350525360e21b60a052600590620000259082620000d1565b506200019d565b634e487b7160e01b600052604160045260246000fd5b600181811c908216806200005757607f821691505b6020821081036200007857634e487b7160e01b600052602260045260246000fd5b50919050565b601f821115620000cc57600081815260208120601f850160051c81016020861015620000a75750805b601f850160051c820191505b81811015620000c857828155600101620000b3565b5050505b505050565b81516001600160401b03811115620000ed57620000ed6200002c565b6200010581620000fe845462000042565b846200007e565b602080601f8311600181146200013d5760008415620001245750858301515b600019600386901b1c1916600185901b178555620000c8565b600085815260208120601f198616915b828110156200016e578886015182559484019460019091019084016200014d565b50858210156200018d5787850151600019600388901b60f8161c191681555b5050505050600190811b01905550565b61197c80620001ad6000396000f3fe608060405234801561001057600080fd5b50600436106101005760003560e01c8063c0c53b8b11610097578063d9231a0f11610066578063d9231a0f1461021b578063df9ef75314610230578063e6c3a06314610253578063ffb45e191461026657600080fd5b8063c0c53b8b146101cb578063c47964ea146101de578063d0006777146101f1578063d598d4c91461020857600080fd5b80638da5cb5b116100d35780638da5cb5b1461017057806393cb189014610183578063972fe8bc14610198578063bf8bdac1146101b857600080fd5b80631f8864ac14610105578063472c540c1461011a57806356f9f8851461012d57806381fd552f1461015d575b600080fd5b6101186101133660046111a7565b610279565b005b6101186101283660046111a7565b6102ce565b600354610140906001600160a01b031681565b6040516001600160a01b0390911681526020015b60405180910390f35b600254610140906001600160a01b031681565b600454610140906001600160a01b031681565b61018b61031a565b60405161015491906112b7565b6101ab6101a6366004611319565b6105ae565b6040516101549190611332565b6101186101c63660046111a7565b6108d1565b6101186101d9366004611374565b61091d565b600654610140906001600160a01b031681565b6101fa60075481565b604051908152602001610154565b600154610140906001600160a01b031681565b6102236109b8565b60405161015491906113b7565b61024361023e3660046111a7565b610a46565b6040519015158152602001610154565b61018b6102613660046113ca565b610a98565b6101fa6102743660046114b8565b610ddf565b6004546001600160a01b031633146102ac5760405162461bcd60e51b81526004016102a3906115da565b60405180910390fd5b600280546001600160a01b0319166001600160a01b0392909216919091179055565b6004546001600160a01b031633146102f85760405162461bcd60e51b81526004016102a3906115da565b600380546001600160a01b0319166001600160a01b0392909216919091179055565b6002546060906001600160a01b031633146103475760405162461bcd60e51b81526004016102a3906115fe565b600060075460016103589190611655565b6001600160401b0381111561036f5761036f6113ec565b6040519080825280602002602001820160405280156103a857816020015b610395611135565b81526020019060019003908161038d5790505b50905060005b6007548110156105a75760008181526020819052604090819020815160a081019092528054829082906103e090611668565b80601f016020809104026020016040519081016040528092919081815260200182805461040c90611668565b80156104595780601f1061042e57610100808354040283529160200191610459565b820191906000526020600020905b81548152906001019060200180831161043c57829003601f168201915b5050505050815260200160018201805461047290611668565b80601f016020809104026020016040519081016040528092919081815260200182805461049e90611668565b80156104eb5780601f106104c0576101008083540402835291602001916104eb565b820191906000526020600020905b8154815290600101906020018083116104ce57829003601f168201915b505050918352505060028201546001600160401b038116602080840191909152600160401b90910460ff16604080840191909152600384018054825181850281018501909352808352606090940193919290919083018282801561056e57602002820191906000526020600020905b81548152602001906001019080831161055a575b505050505081525050828281518110610589576105896116a2565b6020026020010181905250808061059f906116b8565b9150506103ae565b5090505b90565b6105b6611170565b6002546001600160a01b031633146105e05760405162461bcd60e51b81526004016102a3906115fe565b6007548211156106295760405162461bcd60e51b8152602060048201526014602482015273115b585a5b08191bd95cc81b9bdd08195e1a5cdd60621b60448201526064016102a3565b600082815260208190526040812060028101549091600160401b90910460ff16900361066a5760028101805468ff00000000000000001916600160401b1790555b60008381526020819052604090819020815160e0810183528154909283919082019083908290829061069b90611668565b80601f01602080910402602001604051908101604052809291908181526020018280546106c790611668565b80156107145780601f106106e957610100808354040283529160200191610714565b820191906000526020600020905b8154815290600101906020018083116106f757829003601f168201915b5050505050815260200160018201805461072d90611668565b80601f016020809104026020016040519081016040528092919081815260200182805461075990611668565b80156107a65780601f1061077b576101008083540402835291602001916107a6565b820191906000526020600020905b81548152906001019060200180831161078957829003601f168201915b505050918352505060028201546001600160401b038116602080840191909152600160401b90910460ff16604080840191909152600384018054825181850281018501909352808352606090940193919290919083018282801561082957602002820191906000526020600020905b815481526020019060010190808311610815575b505050505081525050815260200160048201805461084690611668565b80601f016020809104026020016040519081016040528092919081815260200182805461087290611668565b80156108bf5780601f10610894576101008083540402835291602001916108bf565b820191906000526020600020905b8154815290600101906020018083116108a257829003601f168201915b5050505050815250509150505b919050565b6004546001600160a01b031633146108fb5760405162461bcd60e51b81526004016102a3906115da565b600180546001600160a01b0319166001600160a01b0392909216919091179055565b6002546001600160a01b03161561096c5760405162461bcd60e51b8152602060048201526013602482015272105b1c9958591e481a5b9a5d1a585b1a5e9959606a1b60448201526064016102a3565b600280546001600160a01b039485166001600160a01b03199182161790915560018054938516938216939093179092556006805491909316908216179091556004805490911633179055565b600580546109c590611668565b80601f01602080910402602001604051908101604052809291908181526020018280546109f190611668565b8015610a3e5780601f10610a1357610100808354040283529160200191610a3e565b820191906000526020600020905b815481529060010190602001808311610a2157829003601f168201915b505050505081565b6004546000906001600160a01b03163314610a735760405162461bcd60e51b81526004016102a3906115da565b50600680546001600160a01b0383166001600160a01b03199091161790556001919050565b60606007546001610aa99190611655565b8310610af75760405162461bcd60e51b815260206004820152601860248201527f537461727420696e646578206f7574206f662072616e6765000000000000000060448201526064016102a3565b60148210610b3c5760405162461bcd60e51b8152602060048201526012602482015271436f756e74206f7574206f662072616e676560701b60448201526064016102a3565b6000610b488385611655565b90506007546001610b599190611655565b811115610b7157600754610b6e906001611655565b90505b6000610b7d85836116d1565b6001600160401b03811115610b9457610b946113ec565b604051908082528060200260200182016040528015610bcd57816020015b610bba611135565b815260200190600190039081610bb25790505b509050845b82811015610dd45760008181526020819052604090819020815160a08101909252805482908290610c0290611668565b80601f0160208091040260200160405190810160405280929190818152602001828054610c2e90611668565b8015610c7b5780601f10610c5057610100808354040283529160200191610c7b565b820191906000526020600020905b815481529060010190602001808311610c5e57829003601f168201915b50505050508152602001600182018054610c9490611668565b80601f0160208091040260200160405190810160405280929190818152602001828054610cc090611668565b8015610d0d5780601f10610ce257610100808354040283529160200191610d0d565b820191906000526020600020905b815481529060010190602001808311610cf057829003601f168201915b505050918352505060028201546001600160401b038116602080840191909152600160401b90910460ff166040808401919091526003840180548251818502810185019093528083526060909401939192909190830182828015610d9057602002820191906000526020600020905b815481526020019060010190808311610d7c575b505050505081525050828783610da691906116d1565b81518110610db657610db66116a2565b60200260200101819052508080610dcc906116b8565b915050610bd2565b509150505b92915050565b6001546000906001600160a01b03163314610e345760405162461bcd60e51b81526020600482015260156024820152741bdb9b1e481cd95c9d9a58d94818d85b8818d85b1b605a1b60448201526064016102a3565b600754600090815260208190526040902080610e508782611733565b5060018101610e5f8882611733565b5060048101610e6e8682611733565b5060028101805467ffffffffffffffff19166001600160401b03851617905560005b8451811015610ee35781600001600301858281518110610eb257610eb26116a2565b6020908102919091018101518254600181018455600093845291909220015580610edb816116b8565b915050610e90565b5060078054906000610ef4836116b8565b919050555086604051610f0791906117f2565b60405180910390207f8ae5a1e1c537ffec7f7fd763f2308750bf96dcc204486d50272999253e2bc5ee60075488604051610f4292919061180e565b60405180910390a26006546001600160a01b03161561111b576040805180820182526060808252602080830191825283518085018552600e81526d13595d185b9bd9194b515b585a5b60921b918101919091528252889052600654600254925163fe47726160e01b815291926001600160a01b039182169263fe47726192610fd192869291169060040161182f565b6020604051808303816000875af192505050801561100c575060408051601f3d908101601f1916820190925261100991810190611880565b60015b611117576110186118a2565b806308c379a003611074575061102c6118bd565b806110375750611076565b7ff02169154244d3db80e8ce9737610df8db8de5d3344f5e8f3b4b916c4fd8f4228160405161106691906113b7565b60405180910390a150611119565b505b3d8080156110a0576040519150601f19603f3d011682016040523d82523d6000602084013e6110a5565b606091505b507ff02169154244d3db80e8ce9737610df8db8de5d3344f5e8f3b4b916c4fd8f4226040516110669060208082526029908201527f4e6f74696669636174696f6e206661696c65642064756520746f20756e6b6e6f6040820152683bb71032b93937b91760b91b606082015260800190565b505b505b600160075461112a91906116d1565b979650505050505050565b6040518060a00160405280606081526020016060815260200160006001600160401b03168152602001600060ff168152602001606081525090565b6040518060400160405280611183611135565b8152602001606081525090565b80356001600160a01b03811681146108cc57600080fd5b6000602082840312156111b957600080fd5b6111c282611190565b9392505050565b60005b838110156111e45781810151838201526020016111cc565b50506000910152565b600081518084526112058160208601602086016111c9565b601f01601f19169290920160200192915050565b6000815160a0845261122e60a08501826111ed565b90506020808401518583038287015261124783826111ed565b9250506001600160401b03604085015116604086015260ff60608501511660608601526080840151858303608087015282815180855283850191508383019450600092505b808310156112ac578451825293830193600192909201919083019061128c565b509695505050505050565b6000602080830181845280855180835260408601915060408160051b870101925083870160005b8281101561130c57603f198886030184526112fa858351611219565b945092850192908501906001016112de565b5092979650505050505050565b60006020828403121561132b57600080fd5b5035919050565b60208152600082516040602084015261134e6060840182611219565b90506020840151601f1984830301604085015261136b82826111ed565b95945050505050565b60008060006060848603121561138957600080fd5b61139284611190565b92506113a060208501611190565b91506113ae60408501611190565b90509250925092565b6020815260006111c260208301846111ed565b600080604083850312156113dd57600080fd5b50508035926020909101359150565b634e487b7160e01b600052604160045260246000fd5b601f8201601f191681016001600160401b0381118282101715611427576114276113ec565b6040525050565b600082601f83011261143f57600080fd5b81356001600160401b03811115611458576114586113ec565b60405161146f601f8301601f191660200182611402565b81815284602083860101111561148457600080fd5b816020850160208301376000918101602001919091529392505050565b80356001600160401b03811681146108cc57600080fd5b600080600080600060a086880312156114d057600080fd5b85356001600160401b03808211156114e757600080fd5b6114f389838a0161142e565b965060209150818801358181111561150a57600080fd5b6115168a828b0161142e565b96505060408801358181111561152b57600080fd5b6115378a828b0161142e565b95505060608801358181111561154c57600080fd5b8801601f81018a1361155d57600080fd5b80358281111561156f5761156f6113ec565b8060051b925060405161158485850182611402565b8181529282018401928481018c85111561159d57600080fd5b928501925b848410156115b957833581529285019285016115a2565b5080965050505050506115ce608087016114a1565b90509295509295909350565b6020808252600a908201526937b7363c9037bbb732b960b11b604082015260600190565b60208082526021908201527f6f6e6c7920456d61696c2053746f72616765204f776e65722063616e2063616c6040820152601b60fa1b606082015260800190565b634e487b7160e01b600052601160045260246000fd5b80820180821115610dd957610dd961163f565b600181811c9082168061167c57607f821691505b60208210810361169c57634e487b7160e01b600052602260045260246000fd5b50919050565b634e487b7160e01b600052603260045260246000fd5b6000600182016116ca576116ca61163f565b5060010190565b81810381811115610dd957610dd961163f565b601f82111561172e57600081815260208120601f850160051c8101602086101561170b5750805b601f850160051c820191505b8181101561172a57828155600101611717565b5050505b505050565b81516001600160401b0381111561174c5761174c6113ec565b6117608161175a8454611668565b846116e4565b602080601f831160018114611795576000841561177d5750858301515b600019600386901b1c1916600185901b17855561172a565b600085815260208120601f198616915b828110156117c4578886015182559484019460019091019084016117a5565b50858210156117e25787850151600019600388901b60f8161c191681555b5050505050600190811b01905550565b600082516118048184602087016111c9565b9190910192915050565b82815260406020820152600061182760408301846111ed565b949350505050565b604081526000835160408084015261184a60808401826111ed565b90506020850151603f1984830301606085015261186782826111ed565b9250505060018060a01b03831660208301529392505050565b60006020828403121561189257600080fd5b815180151581146111c257600080fd5b600060033d11156105ab5760046000803e5060005160e01c90565b600060443d10156118cb5790565b6040516003193d81016004833e81513d6001600160401b0381602484011181841117156118fa57505050505090565b82850191508151818111156119125750505050505090565b843d870101602082850101111561192c5750505050505090565b61193b60208286010187611402565b50909594505050505056fea2646970667358221220a952f09222fe555b79e46b2828848f68e5281c78b925b6a734d9988095a9e1ed64736f6c63430008130033","linkReferences":{}},"methodIdentifiers":{"REPO_NOTI_SMC()":"d9231a0f","createEmail(string,string,string,bytes32[],uint64)":"ffb45e19","emailCounter()":"d0006777","fileSc()":"56f9f885","getAllEmailInfos()":"93cb1890","getEmail(uint256)":"972fe8bc","getEmailInfos(uint256,uint256)":"e6c3a063","initialize(address,address,address)":"c0c53b8b","notiSMC()":"c47964ea","owner()":"8da5cb5b","service()":"d598d4c9","setFileSMC(address)":"472c540c","setNotificationSMC(address)":"df9ef753","setService(address)":"bf8bdac1","setStorageOwner(address)":"1f8864ac","storageOwner()":"81fd552f"},"id":31}