{"abi":[{"type":"constructor","inputs":[],"stateMutability":"payable"},{"type":"function","name":"REPO_NOTI_SMC","inputs":[],"outputs":[{"name":"","type":"string","internalType":"string"}],"stateMutability":"view"},{"type":"function","name":"createEmail","inputs":[{"name":"sender","type":"string","internalType":"string"},{"name":"subject","type":"string","internalType":"string"},{"name":"body","type":"string","internalType":"string"},{"name":"_fileKeys","type":"bytes32[]","internalType":"bytes32[]"},{"name":"createdAt","type":"uint64","internalType":"uint64"}],"outputs":[{"name":"","type":"uint256","internalType":"uint256"}],"stateMutability":"nonpayable"},{"type":"function","name":"emailCounter","inputs":[],"outputs":[{"name":"","type":"uint256","internalType":"uint256"}],"stateMutability":"view"},{"type":"function","name":"fileSc","inputs":[],"outputs":[{"name":"","type":"address","internalType":"address"}],"stateMutability":"view"},{"type":"function","name":"getAllEmailInfos","inputs":[],"outputs":[{"name":"","type":"tuple[]","internalType":"struct EmailInfo[]","components":[{"name":"subject","type":"string","internalType":"string"},{"name":"from","type":"string","internalType":"string"},{"name":"createdAt","type":"uint64","internalType":"uint64"},{"name":"isRead","type":"uint8","internalType":"uint8"},{"name":"fileKeys","type":"bytes32[]","internalType":"bytes32[]"},{"name":"discription","type":"string","internalType":"string"}]}],"stateMutability":"view"},{"type":"function","name":"getEmail","inputs":[{"name":"emailID","type":"uint256","internalType":"uint256"}],"outputs":[{"name":"","type":"tuple","internalType":"struct Email","components":[{"name":"info","type":"tuple","internalType":"struct EmailInfo","components":[{"name":"subject","type":"string","internalType":"string"},{"name":"from","type":"string","internalType":"string"},{"name":"createdAt","type":"uint64","internalType":"uint64"},{"name":"isRead","type":"uint8","internalType":"uint8"},{"name":"fileKeys","type":"bytes32[]","internalType":"bytes32[]"},{"name":"discription","type":"string","internalType":"string"}]},{"name":"body","type":"string","internalType":"string"}]}],"stateMutability":"nonpayable"},{"type":"function","name":"getEmailInfos","inputs":[{"name":"startIndex","type":"uint256","internalType":"uint256"},{"name":"count","type":"uint256","internalType":"uint256"}],"outputs":[{"name":"","type":"tuple[]","internalType":"struct EmailInfo[]","components":[{"name":"subject","type":"string","internalType":"string"},{"name":"from","type":"string","internalType":"string"},{"name":"createdAt","type":"uint64","internalType":"uint64"},{"name":"isRead","type":"uint8","internalType":"uint8"},{"name":"fileKeys","type":"bytes32[]","internalType":"bytes32[]"},{"name":"discription","type":"string","internalType":"string"}]}],"stateMutability":"view"},{"type":"function","name":"initialize","inputs":[{"name":"_storageOwner","type":"address","internalType":"address"},{"name":"_service","type":"address","internalType":"address"},{"name":"_notification","type":"address","internalType":"address"}],"outputs":[],"stateMutability":"nonpayable"},{"type":"function","name":"isOwner","inputs":[{"name":"","type":"address","internalType":"address"}],"outputs":[{"name":"","type":"bool","internalType":"bool"}],"stateMutability":"view"},{"type":"function","name":"notiSMC","inputs":[],"outputs":[{"name":"","type":"address","internalType":"address"}],"stateMutability":"view"},{"type":"function","name":"service","inputs":[],"outputs":[{"name":"","type":"address","internalType":"address"}],"stateMutability":"view"},{"type":"function","name":"setFileSMC","inputs":[{"name":"_fileSc","type":"address","internalType":"address"}],"outputs":[],"stateMutability":"nonpayable"},{"type":"function","name":"setNotificationSMC","inputs":[{"name":"_notiSMCAddress","type":"address","internalType":"address"}],"outputs":[],"stateMutability":"nonpayable"},{"type":"function","name":"setService","inputs":[{"name":"_service","type":"address","internalType":"address"}],"outputs":[],"stateMutability":"nonpayable"},{"type":"function","name":"setStorageOwner","inputs":[{"name":"_storageOwner","type":"address","internalType":"address"}],"outputs":[],"stateMutability":"nonpayable"},{"type":"function","name":"storageOwner","inputs":[],"outputs":[{"name":"","type":"address","internalType":"address"}],"stateMutability":"view"},{"type":"event","name":"EmailCreated","inputs":[{"name":"emailID","type":"uint256","indexed":false,"internalType":"uint256"},{"name":"subject","type":"string","indexed":false,"internalType":"string"},{"name":"creator","type":"string","indexed":true,"internalType":"string"}],"anonymous":false},{"type":"event","name":"NotificationFailed","inputs":[{"name":"reason","type":"string","indexed":false,"internalType":"string"}],"anonymous":false}],"bytecode":{"object":"0x60c060405260046080908152631350525360e21b60a052600690620000259082620000d1565b506200019d565b634e487b7160e01b600052604160045260246000fd5b600181811c908216806200005757607f821691505b6020821081036200007857634e487b7160e01b600052602260045260246000fd5b50919050565b601f821115620000cc57600081815260208120601f850160051c81016020861015620000a75750805b601f850160051c820191505b81811015620000c857828155600101620000b3565b5050505b505050565b81516001600160401b03811115620000ed57620000ed6200002c565b6200010581620000fe845462000042565b846200007e565b602080601f8311600181146200013d5760008415620001245750858301515b600019600386901b1c1916600185901b178555620000c8565b600085815260208120601f198616915b828110156200016e578886015182559484019460019091019084016200014d565b50858210156200018d5787850151600019600388901b60f8161c191681555b5050505050600190811b01905550565b611ba080620001ad6000396000f3fe608060405234801561001057600080fd5b50600436106101005760003560e01c8063c0c53b8b11610097578063d9231a0f11610066578063d9231a0f1461023b578063df9ef75314610250578063e6c3a06314610263578063ffb45e191461027657600080fd5b8063c0c53b8b146101eb578063c47964ea146101fe578063d000677714610211578063d598d4c91461022857600080fd5b806381fd552f116100d357806381fd552f1461019057806393cb1890146101a3578063972fe8bc146101b8578063bf8bdac1146101d857600080fd5b80631f8864ac146101055780632f54bf6e1461011a578063472c540c1461015257806356f9f88514610165575b600080fd5b6101186101133660046113bc565b610289565b005b61013d6101283660046113bc565b60056020526000908152604090205460ff1681565b60405190151581526020015b60405180910390f35b6101186101603660046113bc565b6102e3565b600454610178906001600160a01b031681565b6040516001600160a01b039091168152602001610149565b600354610178906001600160a01b031681565b6101ab610334565b60405161014991906114db565b6101cb6101c636600461153d565b610699565b6040516101499190611556565b6101186101e63660046113bc565b610a4f565b6101186101f9366004611598565b610aa0565b600154610178906001600160a01b031681565b61021a60075481565b604051908152602001610149565b600254610178906001600160a01b031681565b610243610b59565b60405161014991906115db565b61011861025e3660046113bc565b610be7565b6101ab6102713660046115ee565b610c38565b61021a6102843660046116dc565b610fed565b3360009081526005602052604090205460ff166102c15760405162461bcd60e51b81526004016102b8906117fe565b60405180910390fd5b600380546001600160a01b0319166001600160a01b0392909216919091179055565b3360009081526005602052604090205460ff166103125760405162461bcd60e51b81526004016102b8906117fe565b600480546001600160a01b0319166001600160a01b0392909216919091179055565b6003546060906001600160a01b031633146103615760405162461bcd60e51b81526004016102b890611822565b6000600754116103ac5760405162461bcd60e51b81526020600482015260166024820152751d1a195c99481a5cc81b9bdd08185b9e48195b585a5b60521b60448201526064016102b8565b60006007546001600160401b038111156103c8576103c8611610565b60405190808252806020026020018201604052801561040157816020015b6103ee611343565b8152602001906001900390816103e65790505b50905060005b6007548110156106925760008181526020819052604090819020815160c0810190925280548290829061043990611863565b80601f016020809104026020016040519081016040528092919081815260200182805461046590611863565b80156104b25780601f10610487576101008083540402835291602001916104b2565b820191906000526020600020905b81548152906001019060200180831161049557829003601f168201915b505050505081526020016001820180546104cb90611863565b80601f01602080910402602001604051908101604052809291908181526020018280546104f790611863565b80156105445780601f1061051957610100808354040283529160200191610544565b820191906000526020600020905b81548152906001019060200180831161052757829003601f168201915b505050918352505060028201546001600160401b038116602080840191909152600160401b90910460ff1660408084019190915260038401805482518185028101850190935280835260609094019391929091908301828280156105c757602002820191906000526020600020905b8154815260200190600101908083116105b3575b505050505081526020016004820180546105e090611863565b80601f016020809104026020016040519081016040528092919081815260200182805461060c90611863565b80156106595780601f1061062e57610100808354040283529160200191610659565b820191906000526020600020905b81548152906001019060200180831161063c57829003601f168201915b5050505050815250508282815181106106745761067461189d565b6020026020010181905250808061068a906118c9565b915050610407565b5090505b90565b6106a1611385565b6003546001600160a01b031633146106cb5760405162461bcd60e51b81526004016102b890611822565b6007548211156107145760405162461bcd60e51b8152602060048201526014602482015273115b585a5b08191bd95cc81b9bdd08195e1a5cdd60621b60448201526064016102b8565b600082815260208190526040812060028101549091600160401b90910460ff1690036107555760028101805468ff00000000000000001916600160401b1790555b600083815260208190526040908190208151610100810183528154909283919082019083908290829061078790611863565b80601f01602080910402602001604051908101604052809291908181526020018280546107b390611863565b80156108005780601f106107d557610100808354040283529160200191610800565b820191906000526020600020905b8154815290600101906020018083116107e357829003601f168201915b5050505050815260200160018201805461081990611863565b80601f016020809104026020016040519081016040528092919081815260200182805461084590611863565b80156108925780601f1061086757610100808354040283529160200191610892565b820191906000526020600020905b81548152906001019060200180831161087557829003601f168201915b505050918352505060028201546001600160401b038116602080840191909152600160401b90910460ff16604080840191909152600384018054825181850281018501909352808352606090940193919290919083018282801561091557602002820191906000526020600020905b815481526020019060010190808311610901575b5050505050815260200160048201805461092e90611863565b80601f016020809104026020016040519081016040528092919081815260200182805461095a90611863565b80156109a75780601f1061097c576101008083540402835291602001916109a7565b820191906000526020600020905b81548152906001019060200180831161098a57829003601f168201915b50505050508152505081526020016005820180546109c490611863565b80601f01602080910402602001604051908101604052809291908181526020018280546109f090611863565b8015610a3d5780601f10610a1257610100808354040283529160200191610a3d565b820191906000526020600020905b815481529060010190602001808311610a2057829003601f168201915b5050505050815250509150505b919050565b3360009081526005602052604090205460ff16610a7e5760405162461bcd60e51b81526004016102b8906117fe565b600280546001600160a01b0319166001600160a01b0392909216919091179055565b6003546001600160a01b031615610aef5760405162461bcd60e51b8152602060048201526013602482015272105b1c9958591e481a5b9a5d1a585b1a5e9959606a1b60448201526064016102b8565b600380546001600160a01b03199081166001600160a01b03958616908117909255600280548216948616949094179093556001805490931691909316178155600091825260056020526040808320805460ff19908116841790915533845292208054909216179055565b60068054610b6690611863565b80601f0160208091040260200160405190810160405280929190818152602001828054610b9290611863565b8015610bdf5780601f10610bb457610100808354040283529160200191610bdf565b820191906000526020600020905b815481529060010190602001808311610bc257829003601f168201915b505050505081565b3360009081526005602052604090205460ff16610c165760405162461bcd60e51b81526004016102b8906117fe565b600180546001600160a01b0319166001600160a01b0392909216919091179055565b60606007548310610c8b5760405162461bcd60e51b815260206004820152601860248201527f537461727420696e646578206f7574206f662072616e6765000000000000000060448201526064016102b8565b60148210610cd05760405162461bcd60e51b8152602060048201526012602482015271436f756e74206f7574206f662072616e676560701b60448201526064016102b8565b6000610cdc83856118e2565b9050600754811115610ced57506007545b6000610cf985836118f5565b6001600160401b03811115610d1057610d10611610565b604051908082528060200260200182016040528015610d4957816020015b610d36611343565b815260200190600190039081610d2e5790505b509050845b82811015610fe25760008181526020819052604090819020815160c08101909252805482908290610d7e90611863565b80601f0160208091040260200160405190810160405280929190818152602001828054610daa90611863565b8015610df75780601f10610dcc57610100808354040283529160200191610df7565b820191906000526020600020905b815481529060010190602001808311610dda57829003601f168201915b50505050508152602001600182018054610e1090611863565b80601f0160208091040260200160405190810160405280929190818152602001828054610e3c90611863565b8015610e895780601f10610e5e57610100808354040283529160200191610e89565b820191906000526020600020905b815481529060010190602001808311610e6c57829003601f168201915b505050918352505060028201546001600160401b038116602080840191909152600160401b90910460ff166040808401919091526003840180548251818502810185019093528083526060909401939192909190830182828015610f0c57602002820191906000526020600020905b815481526020019060010190808311610ef8575b50505050508152602001600482018054610f2590611863565b80601f0160208091040260200160405190810160405280929190818152602001828054610f5190611863565b8015610f9e5780601f10610f7357610100808354040283529160200191610f9e565b820191906000526020600020905b815481529060010190602001808311610f8157829003601f168201915b505050505081525050828783610fb491906118f5565b81518110610fc457610fc461189d565b60200260200101819052508080610fda906118c9565b915050610d4e565b509150505b92915050565b6002546000906001600160a01b031633146110425760405162461bcd60e51b81526020600482015260156024820152741bdb9b1e481cd95c9d9a58d94818d85b8818d85b1b605a1b60448201526064016102b8565b60075460009081526020819052604090208061105e8782611957565b506001810161106d8882611957565b506005810161107c8682611957565b5060028101805467ffffffffffffffff19166001600160401b03851617905560005b84518110156110f157816000016003018582815181106110c0576110c061189d565b60209081029190910181015182546001810184556000938452919092200155806110e9816118c9565b91505061109e565b5060078054906000611102836118c9565b9190505550866040516111159190611a16565b60405180910390207f8ae5a1e1c537ffec7f7fd763f2308750bf96dcc204486d50272999253e2bc5ee60075488604051611150929190611a32565b60405180910390a26001546001600160a01b031615611329576040805180820182526060808252602080830191825283518085018552600e81526d13595d185b9bd9194b515b585a5b60921b918101919091528252889052600154600354925163fe47726160e01b815291926001600160a01b039182169263fe477261926111df928692911690600401611a53565b6020604051808303816000875af192505050801561121a575060408051601f3d908101601f1916820190925261121791810190611aa4565b60015b61132557611226611ac6565b806308c379a003611282575061123a611ae1565b806112455750611284565b7ff02169154244d3db80e8ce9737610df8db8de5d3344f5e8f3b4b916c4fd8f4228160405161127491906115db565b60405180910390a150611327565b505b3d8080156112ae576040519150601f19603f3d011682016040523d82523d6000602084013e6112b3565b606091505b507ff02169154244d3db80e8ce9737610df8db8de5d3344f5e8f3b4b916c4fd8f4226040516112749060208082526029908201527f4e6f74696669636174696f6e206661696c65642064756520746f20756e6b6e6f6040820152683bb71032b93937b91760b91b606082015260800190565b505b505b600160075461133891906118f5565b979650505050505050565b6040518060c00160405280606081526020016060815260200160006001600160401b03168152602001600060ff16815260200160608152602001606081525090565b6040518060400160405280611398611343565b8152602001606081525090565b80356001600160a01b0381168114610a4a57600080fd5b6000602082840312156113ce57600080fd5b6113d7826113a5565b9392505050565b60005b838110156113f95781810151838201526020016113e1565b50506000910152565b6000815180845261141a8160208601602086016113de565b601f01601f19169290920160200192915050565b6000815160c0845261144360c0850182611402565b90506020808401518583038287015261145c8382611402565b9250506001600160401b03604085015116604086015260ff60608501511660608601526080840151858303608087015282815180855283850191508383019450600092505b808310156114c157845182529383019360019290920191908301906114a1565b5060a0860151935086810360a08801526113388185611402565b6000602080830181845280855180835260408601915060408160051b870101925083870160005b8281101561153057603f1988860301845261151e85835161142e565b94509285019290850190600101611502565b5092979650505050505050565b60006020828403121561154f57600080fd5b5035919050565b602081526000825160406020840152611572606084018261142e565b90506020840151601f1984830301604085015261158f8282611402565b95945050505050565b6000806000606084860312156115ad57600080fd5b6115b6846113a5565b92506115c4602085016113a5565b91506115d2604085016113a5565b90509250925092565b6020815260006113d76020830184611402565b6000806040838503121561160157600080fd5b50508035926020909101359150565b634e487b7160e01b600052604160045260246000fd5b601f8201601f191681016001600160401b038111828210171561164b5761164b611610565b6040525050565b600082601f83011261166357600080fd5b81356001600160401b0381111561167c5761167c611610565b604051611693601f8301601f191660200182611626565b8181528460208386010111156116a857600080fd5b816020850160208301376000918101602001919091529392505050565b80356001600160401b0381168114610a4a57600080fd5b600080600080600060a086880312156116f457600080fd5b85356001600160401b038082111561170b57600080fd5b61171789838a01611652565b965060209150818801358181111561172e57600080fd5b61173a8a828b01611652565b96505060408801358181111561174f57600080fd5b61175b8a828b01611652565b95505060608801358181111561177057600080fd5b8801601f81018a1361178157600080fd5b80358281111561179357611793611610565b8060051b92506040516117a885850182611626565b8181529282018401928481018c8511156117c157600080fd5b928501925b848410156117dd57833581529285019285016117c6565b5080965050505050506117f2608087016116c5565b90509295509295909350565b6020808252600a908201526937b7363c9037bbb732b960b11b604082015260600190565b60208082526021908201527f6f6e6c7920456d61696c2053746f72616765204f776e65722063616e2063616c6040820152601b60fa1b606082015260800190565b600181811c9082168061187757607f821691505b60208210810361189757634e487b7160e01b600052602260045260246000fd5b50919050565b634e487b7160e01b600052603260045260246000fd5b634e487b7160e01b600052601160045260246000fd5b6000600182016118db576118db6118b3565b5060010190565b80820180821115610fe757610fe76118b3565b81810381811115610fe757610fe76118b3565b601f82111561195257600081815260208120601f850160051c8101602086101561192f5750805b601f850160051c820191505b8181101561194e5782815560010161193b565b5050505b505050565b81516001600160401b0381111561197057611970611610565b6119848161197e8454611863565b84611908565b602080601f8311600181146119b957600084156119a15750858301515b600019600386901b1c1916600185901b17855561194e565b600085815260208120601f198616915b828110156119e8578886015182559484019460019091019084016119c9565b5085821015611a065787850151600019600388901b60f8161c191681555b5050505050600190811b01905550565b60008251611a288184602087016113de565b9190910192915050565b828152604060208201526000611a4b6040830184611402565b949350505050565b6040815260008351604080840152611a6e6080840182611402565b90506020850151603f19848303016060850152611a8b8282611402565b9250505060018060a01b03831660208301529392505050565b600060208284031215611ab657600080fd5b815180151581146113d757600080fd5b600060033d11156106965760046000803e5060005160e01c90565b600060443d1015611aef5790565b6040516003193d81016004833e81513d6001600160401b038160248401118184111715611b1e57505050505090565b8285019150815181811115611b365750505050505090565b843d8701016020828501011115611b505750505050505090565b611b5f60208286010187611626565b50909594505050505056fea2646970667358221220f68a8eba406fd15aafee822fa69042a2100cc4f6250a5b833de054bbc1deefb264736f6c63430008130033","linkReferences":{}},"methodIdentifiers":{"REPO_NOTI_SMC()":"d9231a0f","createEmail(string,string,string,bytes32[],uint64)":"ffb45e19","emailCounter()":"d0006777","fileSc()":"56f9f885","getAllEmailInfos()":"93cb1890","getEmail(uint256)":"972fe8bc","getEmailInfos(uint256,uint256)":"e6c3a063","initialize(address,address,address)":"c0c53b8b","isOwner(address)":"2f54bf6e","notiSMC()":"c47964ea","service()":"d598d4c9","setFileSMC(address)":"472c540c","setNotificationSMC(address)":"df9ef753","setService(address)":"bf8bdac1","setStorageOwner(address)":"1f8864ac","storageOwner()":"81fd552f"},"id":34}