{
	"contracts/src/file.sol": {
		"Files": {
			"abi": [
				{
					"inputs": [],
					"stateMutability": "payable",
					"type": "constructor"
				},
				{
					"anonymous": false,
					"inputs": [
						{
							"indexed": true,
							"internalType": "bytes32",
							"name": "fileKey",
							"type": "bytes32"
						},
						{
							"indexed": false,
							"internalType": "uint256",
							"name": "chunkIndex",
							"type": "uint256"
						}
					],
					"name": "ChunkUploaded",
					"type": "event"
				},
				{
					"anonymous": false,
					"inputs": [
						{
							"indexed": true,
							"internalType": "bytes32",
							"name": "fileKey",
							"type": "bytes32"
						},
						{
							"indexed": false,
							"internalType": "string",
							"name": "name",
							"type": "string"
						},
						{
							"indexed": false,
							"internalType": "uint64",
							"name": "contentLen",
							"type": "uint64"
						}
					],
					"name": "FileAdded",
					"type": "event"
				},
				{
					"anonymous": false,
					"inputs": [
						{
							"indexed": true,
							"internalType": "bytes32",
							"name": "fileKey",
							"type": "bytes32"
						}
					],
					"name": "FileDeleted",
					"type": "event"
				},
				{
					"anonymous": false,
					"inputs": [
						{
							"indexed": true,
							"internalType": "bytes32",
							"name": "fileKey",
							"type": "bytes32"
						}
					],
					"name": "FileLocked",
					"type": "event"
				},
				{
					"inputs": [
						{
							"internalType": "bytes32",
							"name": "fileKey",
							"type": "bytes32"
						}
					],
					"name": "deleteFile",
					"outputs": [],
					"stateMutability": "nonpayable",
					"type": "function"
				},
				{
					"inputs": [
						{
							"internalType": "bytes32",
							"name": "fileKey",
							"type": "bytes32"
						},
						{
							"internalType": "uint256",
							"name": "start",
							"type": "uint256"
						},
						{
							"internalType": "uint256",
							"name": "limit",
							"type": "uint256"
						}
					],
					"name": "downloadFile",
					"outputs": [
						{
							"internalType": "bytes[]",
							"name": "",
							"type": "bytes[]"
						}
					],
					"stateMutability": "view",
					"type": "function"
				},
				{
					"inputs": [
						{
							"internalType": "bytes32",
							"name": "fileKey",
							"type": "bytes32"
						}
					],
					"name": "getFileInfo",
					"outputs": [
						{
							"components": [
								{
									"internalType": "address",
									"name": "owner",
									"type": "address"
								},
								{
									"internalType": "bytes32",
									"name": "hash",
									"type": "bytes32"
								},
								{
									"internalType": "uint64",
									"name": "contentLen",
									"type": "uint64"
								},
								{
									"internalType": "uint64",
									"name": "totalChunks",
									"type": "uint64"
								},
								{
									"internalType": "uint64",
									"name": "expireTime",
									"type": "uint64"
								},
								{
									"internalType": "string",
									"name": "name",
									"type": "string"
								},
								{
									"internalType": "string",
									"name": "ext",
									"type": "string"
								},
								{
									"internalType": "enum FileStatus",
									"name": "status",
									"type": "uint8"
								},
								{
									"internalType": "string",
									"name": "contentDisposition",
									"type": "string"
								},
								{
									"internalType": "string",
									"name": "contentID",
									"type": "string"
								}
							],
							"internalType": "struct Info",
							"name": "",
							"type": "tuple"
						}
					],
					"stateMutability": "view",
					"type": "function"
				},
				{
					"inputs": [
						{
							"internalType": "string[]",
							"name": "names",
							"type": "string[]"
						}
					],
					"name": "getFileKeyFromName",
					"outputs": [
						{
							"internalType": "bytes32[]",
							"name": "",
							"type": "bytes32[]"
						}
					],
					"stateMutability": "view",
					"type": "function"
				},
				{
					"inputs": [
						{
							"internalType": "bytes32",
							"name": "fileKey",
							"type": "bytes32"
						}
					],
					"name": "getFileProgress",
					"outputs": [
						{
							"components": [
								{
									"internalType": "bytes32",
									"name": "lastChunkHash",
									"type": "bytes32"
								},
								{
									"internalType": "uint64",
									"name": "processedChunks",
									"type": "uint64"
								},
								{
									"internalType": "uint64",
									"name": "processedLength",
									"type": "uint64"
								}
							],
							"internalType": "struct FileProgress",
							"name": "",
							"type": "tuple"
						}
					],
					"stateMutability": "view",
					"type": "function"
				},
				{
					"inputs": [
						{
							"internalType": "bytes32[]",
							"name": "fileKeys",
							"type": "bytes32[]"
						}
					],
					"name": "getFilesInfo",
					"outputs": [
						{
							"components": [
								{
									"internalType": "address",
									"name": "owner",
									"type": "address"
								},
								{
									"internalType": "bytes32",
									"name": "hash",
									"type": "bytes32"
								},
								{
									"internalType": "uint64",
									"name": "contentLen",
									"type": "uint64"
								},
								{
									"internalType": "uint64",
									"name": "totalChunks",
									"type": "uint64"
								},
								{
									"internalType": "uint64",
									"name": "expireTime",
									"type": "uint64"
								},
								{
									"internalType": "string",
									"name": "name",
									"type": "string"
								},
								{
									"internalType": "string",
									"name": "ext",
									"type": "string"
								},
								{
									"internalType": "enum FileStatus",
									"name": "status",
									"type": "uint8"
								},
								{
									"internalType": "string",
									"name": "contentDisposition",
									"type": "string"
								},
								{
									"internalType": "string",
									"name": "contentID",
									"type": "string"
								}
							],
							"internalType": "struct Info[]",
							"name": "infos",
							"type": "tuple[]"
						}
					],
					"stateMutability": "view",
					"type": "function"
				},
				{
					"inputs": [
						{
							"internalType": "bytes32",
							"name": "fileKey",
							"type": "bytes32"
						}
					],
					"name": "lockFile",
					"outputs": [],
					"stateMutability": "nonpayable",
					"type": "function"
				},
				{
					"inputs": [
						{
							"internalType": "bytes32",
							"name": "",
							"type": "bytes32"
						}
					],
					"name": "mKeyToFileInfo",
					"outputs": [
						{
							"components": [
								{
									"internalType": "address",
									"name": "owner",
									"type": "address"
								},
								{
									"internalType": "bytes32",
									"name": "hash",
									"type": "bytes32"
								},
								{
									"internalType": "uint64",
									"name": "contentLen",
									"type": "uint64"
								},
								{
									"internalType": "uint64",
									"name": "totalChunks",
									"type": "uint64"
								},
								{
									"internalType": "uint64",
									"name": "expireTime",
									"type": "uint64"
								},
								{
									"internalType": "string",
									"name": "name",
									"type": "string"
								},
								{
									"internalType": "string",
									"name": "ext",
									"type": "string"
								},
								{
									"internalType": "enum FileStatus",
									"name": "status",
									"type": "uint8"
								},
								{
									"internalType": "string",
									"name": "contentDisposition",
									"type": "string"
								},
								{
									"internalType": "string",
									"name": "contentID",
									"type": "string"
								}
							],
							"internalType": "struct Info",
							"name": "info",
							"type": "tuple"
						},
						{
							"components": [
								{
									"internalType": "bytes32",
									"name": "lastChunkHash",
									"type": "bytes32"
								},
								{
									"internalType": "uint64",
									"name": "processedChunks",
									"type": "uint64"
								},
								{
									"internalType": "uint64",
									"name": "processedLength",
									"type": "uint64"
								}
							],
							"internalType": "struct FileProgress",
							"name": "progress",
							"type": "tuple"
						}
					],
					"stateMutability": "view",
					"type": "function"
				},
				{
					"inputs": [
						{
							"internalType": "string",
							"name": "",
							"type": "string"
						}
					],
					"name": "mNameToFileKey",
					"outputs": [
						{
							"internalType": "bytes32",
							"name": "",
							"type": "bytes32"
						}
					],
					"stateMutability": "view",
					"type": "function"
				},
				{
					"inputs": [],
					"name": "owner",
					"outputs": [
						{
							"internalType": "address",
							"name": "",
							"type": "address"
						}
					],
					"stateMutability": "view",
					"type": "function"
				},
				{
					"inputs": [
						{
							"components": [
								{
									"internalType": "address",
									"name": "owner",
									"type": "address"
								},
								{
									"internalType": "bytes32",
									"name": "hash",
									"type": "bytes32"
								},
								{
									"internalType": "uint64",
									"name": "contentLen",
									"type": "uint64"
								},
								{
									"internalType": "uint64",
									"name": "totalChunks",
									"type": "uint64"
								},
								{
									"internalType": "uint64",
									"name": "expireTime",
									"type": "uint64"
								},
								{
									"internalType": "string",
									"name": "name",
									"type": "string"
								},
								{
									"internalType": "string",
									"name": "ext",
									"type": "string"
								},
								{
									"internalType": "enum FileStatus",
									"name": "status",
									"type": "uint8"
								},
								{
									"internalType": "string",
									"name": "contentDisposition",
									"type": "string"
								},
								{
									"internalType": "string",
									"name": "contentID",
									"type": "string"
								}
							],
							"internalType": "struct Info",
							"name": "info",
							"type": "tuple"
						}
					],
					"name": "pushFileInfo",
					"outputs": [
						{
							"internalType": "bytes32",
							"name": "fileKey",
							"type": "bytes32"
						}
					],
					"stateMutability": "nonpayable",
					"type": "function"
				},
				{
					"inputs": [
						{
							"components": [
								{
									"internalType": "address",
									"name": "owner",
									"type": "address"
								},
								{
									"internalType": "bytes32",
									"name": "hash",
									"type": "bytes32"
								},
								{
									"internalType": "uint64",
									"name": "contentLen",
									"type": "uint64"
								},
								{
									"internalType": "uint64",
									"name": "totalChunks",
									"type": "uint64"
								},
								{
									"internalType": "uint64",
									"name": "expireTime",
									"type": "uint64"
								},
								{
									"internalType": "string",
									"name": "name",
									"type": "string"
								},
								{
									"internalType": "string",
									"name": "ext",
									"type": "string"
								},
								{
									"internalType": "enum FileStatus",
									"name": "status",
									"type": "uint8"
								},
								{
									"internalType": "string",
									"name": "contentDisposition",
									"type": "string"
								},
								{
									"internalType": "string",
									"name": "contentID",
									"type": "string"
								}
							],
							"internalType": "struct Info[]",
							"name": "infos",
							"type": "tuple[]"
						}
					],
					"name": "pushFileInfos",
					"outputs": [
						{
							"internalType": "bytes32[]",
							"name": "",
							"type": "bytes32[]"
						}
					],
					"stateMutability": "nonpayable",
					"type": "function"
				},
				{
					"inputs": [
						{
							"internalType": "bytes32",
							"name": "fileKey",
							"type": "bytes32"
						},
						{
							"internalType": "uint64",
							"name": "_newExpireTime",
							"type": "uint64"
						}
					],
					"name": "renewTime",
					"outputs": [],
					"stateMutability": "nonpayable",
					"type": "function"
				},
				{
					"inputs": [],
					"name": "service",
					"outputs": [
						{
							"internalType": "address",
							"name": "",
							"type": "address"
						}
					],
					"stateMutability": "view",
					"type": "function"
				},
				{
					"inputs": [
						{
							"internalType": "address",
							"name": "_service",
							"type": "address"
						}
					],
					"name": "setService",
					"outputs": [],
					"stateMutability": "nonpayable",
					"type": "function"
				},
				{
					"inputs": [
						{
							"internalType": "bytes32",
							"name": "fileKey",
							"type": "bytes32"
						},
						{
							"internalType": "bytes",
							"name": "chunkData",
							"type": "bytes"
						},
						{
							"internalType": "bytes32",
							"name": "chunkHash",
							"type": "bytes32"
						}
					],
					"name": "uploadChunk",
					"outputs": [],
					"stateMutability": "nonpayable",
					"type": "function"
				},
				{
					"inputs": [
						{
							"internalType": "bytes32[]",
							"name": "fileKeys",
							"type": "bytes32[]"
						},
						{
							"internalType": "bytes[]",
							"name": "chunkDatas",
							"type": "bytes[]"
						},
						{
							"internalType": "bytes32[]",
							"name": "chunkHashes",
							"type": "bytes32[]"
						}
					],
					"name": "uploadChunks",
					"outputs": [],
					"stateMutability": "nonpayable",
					"type": "function"
				}
			],
			"devdoc": {
				"kind": "dev",
				"methods": {},
				"version": 1
			},
			"evm": {
				"assembly": "    /* \"contracts/src/file.sol\":97:7502  contract Files {... */\n  mstore(0x40, 0x80)\n    /* \"contracts/src/file.sol\":789:799  msg.sender */\n  caller\n    /* \"contracts/src/file.sol\":781:786  owner */\n  0x03\n  0x00\n    /* \"contracts/src/file.sol\":781:799  owner = msg.sender */\n  0x0100\n  exp\n  dup2\n  sload\n  dup2\n  0xffffffffffffffffffffffffffffffffffffffff\n  mul\n  not\n  and\n  swap1\n  dup4\n  0xffffffffffffffffffffffffffffffffffffffff\n  and\n  mul\n  or\n  swap1\n  sstore\n  pop\n    /* \"contracts/src/file.sol\":97:7502  contract Files {... */\n  dataSize(sub_0)\n  dup1\n  dataOffset(sub_0)\n  0x00\n  codecopy\n  0x00\n  return\nstop\n\nsub_0: assembly {\n        /* \"contracts/src/file.sol\":97:7502  contract Files {... */\n      mstore(0x40, 0x80)\n      callvalue\n      dup1\n      iszero\n      tag_1\n      jumpi\n      0x00\n      dup1\n      revert\n    tag_1:\n      pop\n      jumpi(tag_2, lt(calldatasize, 0x04))\n      shr(0xe0, calldataload(0x00))\n      dup1\n      0x9b26b2a8\n      gt\n      tag_20\n      jumpi\n      dup1\n      0xd598d4c9\n      gt\n      tag_21\n      jumpi\n      dup1\n      0xd598d4c9\n      eq\n      tag_15\n      jumpi\n      dup1\n      0xeb070e7e\n      eq\n      tag_16\n      jumpi\n      dup1\n      0xedff13af\n      eq\n      tag_17\n      jumpi\n      dup1\n      0xf25671c4\n      eq\n      tag_18\n      jumpi\n      dup1\n      0xfab91940\n      eq\n      tag_19\n      jumpi\n      jump(tag_2)\n    tag_21:\n      dup1\n      0x9b26b2a8\n      eq\n      tag_11\n      jumpi\n      dup1\n      0xbf8bdac1\n      eq\n      tag_12\n      jumpi\n      dup1\n      0xc652793d\n      eq\n      tag_13\n      jumpi\n      dup1\n      0xca7e3cd4\n      eq\n      tag_14\n      jumpi\n      jump(tag_2)\n    tag_20:\n      dup1\n      0x6e0c19b1\n      gt\n      tag_22\n      jumpi\n      dup1\n      0x6e0c19b1\n      eq\n      tag_7\n      jumpi\n      dup1\n      0x8da5cb5b\n      eq\n      tag_8\n      jumpi\n      dup1\n      0x8f73088d\n      eq\n      tag_9\n      jumpi\n      dup1\n      0x91c03370\n      eq\n      tag_10\n      jumpi\n      jump(tag_2)\n    tag_22:\n      dup1\n      0x46da5178\n      eq\n      tag_3\n      jumpi\n      dup1\n      0x52f7347b\n      eq\n      tag_4\n      jumpi\n      dup1\n      0x5f95c07b\n      eq\n      tag_5\n      jumpi\n      dup1\n      0x6ab799f1\n      eq\n      tag_6\n      jumpi\n    tag_2:\n      0x00\n      dup1\n      revert\n        /* \"contracts/src/file.sol\":6150:6436  function getFileProgress(bytes32 fileKey) external view returns (FileProgress memory) {... */\n    tag_3:\n      tag_23\n      0x04\n      dup1\n      calldatasize\n      sub\n      dup2\n      add\n      swap1\n      tag_24\n      swap2\n      swap1\n      tag_25\n      jump\t// in\n    tag_24:\n      tag_26\n      jump\t// in\n    tag_23:\n      mload(0x40)\n      tag_27\n      swap2\n      swap1\n      tag_28\n      jump\t// in\n    tag_27:\n      mload(0x40)\n      dup1\n      swap2\n      sub\n      swap1\n      return\n        /* \"contracts/src/file.sol\":5713:5839  function getFileInfo(bytes32 fileKey) external view returns (Info memory) {... */\n    tag_4:\n      tag_29\n      0x04\n      dup1\n      calldatasize\n      sub\n      dup2\n      add\n      swap1\n      tag_30\n      swap2\n      swap1\n      tag_25\n      jump\t// in\n    tag_30:\n      tag_31\n      jump\t// in\n    tag_29:\n      mload(0x40)\n      tag_32\n      swap2\n      swap1\n      tag_33\n      jump\t// in\n    tag_32:\n      mload(0x40)\n      dup1\n      swap2\n      sub\n      swap1\n      return\n        /* \"contracts/src/file.sol\":3065:4325  function uploadChunk(bytes32 fileKey, bytes memory chunkData, bytes32 chunkHash) public {... */\n    tag_5:\n      tag_34\n      0x04\n      dup1\n      calldatasize\n      sub\n      dup2\n      add\n      swap1\n      tag_35\n      swap2\n      swap1\n      tag_36\n      jump\t// in\n    tag_35:\n      tag_37\n      jump\t// in\n    tag_34:\n      stop\n        /* \"contracts/src/file.sol\":4759:5245  function deleteFile(bytes32 fileKey) external {... */\n    tag_6:\n      tag_38\n      0x04\n      dup1\n      calldatasize\n      sub\n      dup2\n      add\n      swap1\n      tag_39\n      swap2\n      swap1\n      tag_25\n      jump\t// in\n    tag_39:\n      tag_40\n      jump\t// in\n    tag_38:\n      stop\n        /* \"contracts/src/file.sol\":914:1196  function pushFileInfos(... */\n    tag_7:\n      tag_41\n      0x04\n      dup1\n      calldatasize\n      sub\n      dup2\n      add\n      swap1\n      tag_42\n      swap2\n      swap1\n      tag_43\n      jump\t// in\n    tag_42:\n      tag_44\n      jump\t// in\n    tag_41:\n      mload(0x40)\n      tag_45\n      swap2\n      swap1\n      tag_46\n      jump\t// in\n    tag_45:\n      mload(0x40)\n      dup1\n      swap2\n      sub\n      swap1\n      return\n        /* \"contracts/src/file.sol\":500:520  address public owner */\n    tag_8:\n      tag_47\n      tag_48\n      jump\t// in\n    tag_47:\n      mload(0x40)\n      tag_49\n      swap2\n      swap1\n      tag_50\n      jump\t// in\n    tag_49:\n      mload(0x40)\n      dup1\n      swap2\n      sub\n      swap1\n      return\n        /* \"contracts/src/file.sol\":2681:3060  function uploadChunks(bytes32[] memory fileKeys, bytes[] memory chunkDatas, bytes32[] memory chunkHashes) external {... */\n    tag_9:\n      tag_51\n      0x04\n      dup1\n      calldatasize\n      sub\n      dup2\n      add\n      swap1\n      tag_52\n      swap2\n      swap1\n      tag_53\n      jump\t// in\n    tag_52:\n      tag_54\n      jump\t// in\n    tag_51:\n      stop\n        /* \"contracts/src/file.sol\":5251:5704  function renewTime(bytes32 fileKey, uint64 _newExpireTime) external {... */\n    tag_10:\n      tag_55\n      0x04\n      dup1\n      calldatasize\n      sub\n      dup2\n      add\n      swap1\n      tag_56\n      swap2\n      swap1\n      tag_57\n      jump\t// in\n    tag_56:\n      tag_58\n      jump\t// in\n    tag_55:\n      stop\n        /* \"contracts/src/file.sol\":4331:4753  function lockFile(bytes32 fileKey) external {... */\n    tag_11:\n      tag_59\n      0x04\n      dup1\n      calldatasize\n      sub\n      dup2\n      add\n      swap1\n      tag_60\n      swap2\n      swap1\n      tag_25\n      jump\t// in\n    tag_60:\n      tag_61\n      jump\t// in\n    tag_59:\n      stop\n        /* \"contracts/src/file.sol\":812:904  function setService(address _service) external onlyOwner {... */\n    tag_12:\n      tag_62\n      0x04\n      dup1\n      calldatasize\n      sub\n      dup2\n      add\n      swap1\n      tag_63\n      swap2\n      swap1\n      tag_64\n      jump\t// in\n    tag_63:\n      tag_65\n      jump\t// in\n    tag_62:\n      stop\n        /* \"contracts/src/file.sol\":362:412  mapping(bytes32 => FileInfo) public mKeyToFileInfo */\n    tag_13:\n      tag_66\n      0x04\n      dup1\n      calldatasize\n      sub\n      dup2\n      add\n      swap1\n      tag_67\n      swap2\n      swap1\n      tag_25\n      jump\t// in\n    tag_67:\n      tag_68\n      jump\t// in\n    tag_66:\n      mload(0x40)\n      tag_69\n      swap3\n      swap2\n      swap1\n      tag_70\n      jump\t// in\n    tag_69:\n      mload(0x40)\n      dup1\n      swap2\n      sub\n      swap1\n      return\n        /* \"contracts/src/file.sol\":1202:2369  function pushFileInfo(Info memory info) public returns (bytes32 fileKey) {... */\n    tag_14:\n      tag_71\n      0x04\n      dup1\n      calldatasize\n      sub\n      dup2\n      add\n      swap1\n      tag_72\n      swap2\n      swap1\n      tag_73\n      jump\t// in\n    tag_72:\n      tag_74\n      jump\t// in\n    tag_71:\n      mload(0x40)\n      tag_75\n      swap2\n      swap1\n      tag_76\n      jump\t// in\n    tag_75:\n      mload(0x40)\n      dup1\n      swap2\n      sub\n      swap1\n      return\n        /* \"contracts/src/file.sol\":472:494  address public service */\n    tag_15:\n      tag_77\n      tag_78\n      jump\t// in\n    tag_77:\n      mload(0x40)\n      tag_79\n      swap2\n      swap1\n      tag_50\n      jump\t// in\n    tag_79:\n      mload(0x40)\n      dup1\n      swap2\n      sub\n      swap1\n      return\n        /* \"contracts/src/file.sol\":5845:6144  function getFilesInfo(bytes32[] memory fileKeys) external view returns(Info[] memory infos ){... */\n    tag_16:\n      tag_80\n      0x04\n      dup1\n      calldatasize\n      sub\n      dup2\n      add\n      swap1\n      tag_81\n      swap2\n      swap1\n      tag_82\n      jump\t// in\n    tag_81:\n      tag_83\n      jump\t// in\n    tag_80:\n      mload(0x40)\n      tag_84\n      swap2\n      swap1\n      tag_85\n      jump\t// in\n    tag_84:\n      mload(0x40)\n      dup1\n      swap2\n      sub\n      swap1\n      return\n        /* \"contracts/src/file.sol\":418:466  mapping(string => bytes32) public mNameToFileKey */\n    tag_17:\n      tag_86\n      0x04\n      dup1\n      calldatasize\n      sub\n      dup2\n      add\n      swap1\n      tag_87\n      swap2\n      swap1\n      tag_88\n      jump\t// in\n    tag_87:\n      tag_89\n      jump\t// in\n    tag_86:\n      mload(0x40)\n      tag_90\n      swap2\n      swap1\n      tag_76\n      jump\t// in\n    tag_90:\n      mload(0x40)\n      dup1\n      swap2\n      sub\n      swap1\n      return\n        /* \"contracts/src/file.sol\":2379:2676  function getFileKeyFromName(string[] memory names) view external returns(bytes32[] memory ){... */\n    tag_18:\n      tag_91\n      0x04\n      dup1\n      calldatasize\n      sub\n      dup2\n      add\n      swap1\n      tag_92\n      swap2\n      swap1\n      tag_93\n      jump\t// in\n    tag_92:\n      tag_94\n      jump\t// in\n    tag_91:\n      mload(0x40)\n      tag_95\n      swap2\n      swap1\n      tag_46\n      jump\t// in\n    tag_95:\n      mload(0x40)\n      dup1\n      swap2\n      sub\n      swap1\n      return\n        /* \"contracts/src/file.sol\":6490:7497  function downloadFile(... */\n    tag_19:\n      tag_96\n      0x04\n      dup1\n      calldatasize\n      sub\n      dup2\n      add\n      swap1\n      tag_97\n      swap2\n      swap1\n      tag_98\n      jump\t// in\n    tag_97:\n      tag_99\n      jump\t// in\n    tag_96:\n      mload(0x40)\n      tag_100\n      swap2\n      swap1\n      tag_101\n      jump\t// in\n    tag_100:\n      mload(0x40)\n      dup1\n      swap2\n      sub\n      swap1\n      return\n        /* \"contracts/src/file.sol\":6150:6436  function getFileProgress(bytes32 fileKey) external view returns (FileProgress memory) {... */\n    tag_26:\n        /* \"contracts/src/file.sol\":6215:6234  FileProgress memory */\n      tag_102\n      tag_103\n      jump\t// in\n    tag_102:\n        /* \"contracts/src/file.sol\":6246:6267  FileInfo storage file */\n      0x00\n        /* \"contracts/src/file.sol\":6270:6284  mKeyToFileInfo */\n      dup1\n        /* \"contracts/src/file.sol\":6270:6293  mKeyToFileInfo[fileKey] */\n      0x00\n        /* \"contracts/src/file.sol\":6285:6292  fileKey */\n      dup5\n        /* \"contracts/src/file.sol\":6270:6293  mKeyToFileInfo[fileKey] */\n      dup2\n      mstore\n      0x20\n      add\n      swap1\n      dup2\n      mstore\n      0x20\n      add\n      0x00\n      keccak256\n        /* \"contracts/src/file.sol\":6246:6293  FileInfo storage file = mKeyToFileInfo[fileKey] */\n      swap1\n      pop\n        /* \"contracts/src/file.sol\":6331:6352  FileStatus.Processing */\n      0x00\n        /* \"contracts/src/file.sol\":6311:6352  file.info.status == FileStatus.Processing */\n      0x03\n      dup2\n      gt\n      iszero\n      tag_105\n      jumpi\n      tag_106\n      tag_107\n      jump\t// in\n    tag_106:\n    tag_105:\n        /* \"contracts/src/file.sol\":6311:6315  file */\n      dup2\n        /* \"contracts/src/file.sol\":6311:6320  file.info */\n      0x00\n      add\n        /* \"contracts/src/file.sol\":6311:6327  file.info.status */\n      0x05\n      add\n      0x00\n      swap1\n      sload\n      swap1\n      0x0100\n      exp\n      swap1\n      div\n      0xff\n      and\n        /* \"contracts/src/file.sol\":6311:6352  file.info.status == FileStatus.Processing */\n      0x03\n      dup2\n      gt\n      iszero\n      tag_108\n      jumpi\n      tag_109\n      tag_107\n      jump\t// in\n    tag_109:\n    tag_108:\n      eq\n        /* \"contracts/src/file.sol\":6303:6379  require(file.info.status == FileStatus.Processing, \"File upload not exists\") */\n      tag_110\n      jumpi\n      mload(0x40)\n      0x08c379a000000000000000000000000000000000000000000000000000000000\n      dup2\n      mstore\n      0x04\n      add\n      tag_111\n      swap1\n      tag_112\n      jump\t// in\n    tag_111:\n      mload(0x40)\n      dup1\n      swap2\n      sub\n      swap1\n      revert\n    tag_110:\n        /* \"contracts/src/file.sol\":6397:6411  mKeyToFileInfo */\n      0x00\n        /* \"contracts/src/file.sol\":6397:6420  mKeyToFileInfo[fileKey] */\n      dup1\n        /* \"contracts/src/file.sol\":6412:6419  fileKey */\n      dup5\n        /* \"contracts/src/file.sol\":6397:6420  mKeyToFileInfo[fileKey] */\n      dup2\n      mstore\n      0x20\n      add\n      swap1\n      dup2\n      mstore\n      0x20\n      add\n      0x00\n      keccak256\n        /* \"contracts/src/file.sol\":6397:6429  mKeyToFileInfo[fileKey].progress */\n      0x08\n      add\n        /* \"contracts/src/file.sol\":6390:6429  return mKeyToFileInfo[fileKey].progress */\n      mload(0x40)\n      dup1\n      0x60\n      add\n      0x40\n      mstore\n      swap1\n      dup2\n      0x00\n      dup3\n      add\n      sload\n      dup2\n      mstore\n      0x20\n      add\n      0x01\n      dup3\n      add\n      0x00\n      swap1\n      sload\n      swap1\n      0x0100\n      exp\n      swap1\n      div\n      0xffffffffffffffff\n      and\n      0xffffffffffffffff\n      and\n      0xffffffffffffffff\n      and\n      dup2\n      mstore\n      0x20\n      add\n      0x01\n      dup3\n      add\n      0x08\n      swap1\n      sload\n      swap1\n      0x0100\n      exp\n      swap1\n      div\n      0xffffffffffffffff\n      and\n      0xffffffffffffffff\n      and\n      0xffffffffffffffff\n      and\n      dup2\n      mstore\n      pop\n      pop\n      swap2\n      pop\n      pop\n        /* \"contracts/src/file.sol\":6150:6436  function getFileProgress(bytes32 fileKey) external view returns (FileProgress memory) {... */\n      swap2\n      swap1\n      pop\n      jump\t// out\n        /* \"contracts/src/file.sol\":5713:5839  function getFileInfo(bytes32 fileKey) external view returns (Info memory) {... */\n    tag_31:\n        /* \"contracts/src/file.sol\":5774:5785  Info memory */\n      tag_113\n      tag_114\n      jump\t// in\n    tag_113:\n        /* \"contracts/src/file.sol\":5804:5818  mKeyToFileInfo */\n      0x00\n        /* \"contracts/src/file.sol\":5804:5827  mKeyToFileInfo[fileKey] */\n      dup1\n        /* \"contracts/src/file.sol\":5819:5826  fileKey */\n      dup4\n        /* \"contracts/src/file.sol\":5804:5827  mKeyToFileInfo[fileKey] */\n      dup2\n      mstore\n      0x20\n      add\n      swap1\n      dup2\n      mstore\n      0x20\n      add\n      0x00\n      keccak256\n        /* \"contracts/src/file.sol\":5804:5832  mKeyToFileInfo[fileKey].info */\n      0x00\n      add\n        /* \"contracts/src/file.sol\":5797:5832  return mKeyToFileInfo[fileKey].info */\n      mload(0x40)\n      dup1\n      0x0140\n      add\n      0x40\n      mstore\n      swap1\n      dup2\n      0x00\n      dup3\n      add\n      0x00\n      swap1\n      sload\n      swap1\n      0x0100\n      exp\n      swap1\n      div\n      0xffffffffffffffffffffffffffffffffffffffff\n      and\n      0xffffffffffffffffffffffffffffffffffffffff\n      and\n      0xffffffffffffffffffffffffffffffffffffffff\n      and\n      dup2\n      mstore\n      0x20\n      add\n      0x01\n      dup3\n      add\n      sload\n      dup2\n      mstore\n      0x20\n      add\n      0x02\n      dup3\n      add\n      0x00\n      swap1\n      sload\n      swap1\n      0x0100\n      exp\n      swap1\n      div\n      0xffffffffffffffff\n      and\n      0xffffffffffffffff\n      and\n      0xffffffffffffffff\n      and\n      dup2\n      mstore\n      0x20\n      add\n      0x02\n      dup3\n      add\n      0x08\n      swap1\n      sload\n      swap1\n      0x0100\n      exp\n      swap1\n      div\n      0xffffffffffffffff\n      and\n      0xffffffffffffffff\n      and\n      0xffffffffffffffff\n      and\n      dup2\n      mstore\n      0x20\n      add\n      0x02\n      dup3\n      add\n      0x10\n      swap1\n      sload\n      swap1\n      0x0100\n      exp\n      swap1\n      div\n      0xffffffffffffffff\n      and\n      0xffffffffffffffff\n      and\n      0xffffffffffffffff\n      and\n      dup2\n      mstore\n      0x20\n      add\n      0x03\n      dup3\n      add\n      dup1\n      sload\n      tag_116\n      swap1\n      tag_117\n      jump\t// in\n    tag_116:\n      dup1\n      0x1f\n      add\n      0x20\n      dup1\n      swap2\n      div\n      mul\n      0x20\n      add\n      mload(0x40)\n      swap1\n      dup2\n      add\n      0x40\n      mstore\n      dup1\n      swap3\n      swap2\n      swap1\n      dup2\n      dup2\n      mstore\n      0x20\n      add\n      dup3\n      dup1\n      sload\n      tag_118\n      swap1\n      tag_117\n      jump\t// in\n    tag_118:\n      dup1\n      iszero\n      tag_119\n      jumpi\n      dup1\n      0x1f\n      lt\n      tag_120\n      jumpi\n      0x0100\n      dup1\n      dup4\n      sload\n      div\n      mul\n      dup4\n      mstore\n      swap2\n      0x20\n      add\n      swap2\n      jump(tag_119)\n    tag_120:\n      dup3\n      add\n      swap2\n      swap1\n      0x00\n      mstore\n      keccak256(0x00, 0x20)\n      swap1\n    tag_121:\n      dup2\n      sload\n      dup2\n      mstore\n      swap1\n      0x01\n      add\n      swap1\n      0x20\n      add\n      dup1\n      dup4\n      gt\n      tag_121\n      jumpi\n      dup3\n      swap1\n      sub\n      0x1f\n      and\n      dup3\n      add\n      swap2\n    tag_119:\n      pop\n      pop\n      pop\n      pop\n      pop\n      dup2\n      mstore\n      0x20\n      add\n      0x04\n      dup3\n      add\n      dup1\n      sload\n      tag_122\n      swap1\n      tag_117\n      jump\t// in\n    tag_122:\n      dup1\n      0x1f\n      add\n      0x20\n      dup1\n      swap2\n      div\n      mul\n      0x20\n      add\n      mload(0x40)\n      swap1\n      dup2\n      add\n      0x40\n      mstore\n      dup1\n      swap3\n      swap2\n      swap1\n      dup2\n      dup2\n      mstore\n      0x20\n      add\n      dup3\n      dup1\n      sload\n      tag_123\n      swap1\n      tag_117\n      jump\t// in\n    tag_123:\n      dup1\n      iszero\n      tag_124\n      jumpi\n      dup1\n      0x1f\n      lt\n      tag_125\n      jumpi\n      0x0100\n      dup1\n      dup4\n      sload\n      div\n      mul\n      dup4\n      mstore\n      swap2\n      0x20\n      add\n      swap2\n      jump(tag_124)\n    tag_125:\n      dup3\n      add\n      swap2\n      swap1\n      0x00\n      mstore\n      keccak256(0x00, 0x20)\n      swap1\n    tag_126:\n      dup2\n      sload\n      dup2\n      mstore\n      swap1\n      0x01\n      add\n      swap1\n      0x20\n      add\n      dup1\n      dup4\n      gt\n      tag_126\n      jumpi\n      dup3\n      swap1\n      sub\n      0x1f\n      and\n      dup3\n      add\n      swap2\n    tag_124:\n      pop\n      pop\n      pop\n      pop\n      pop\n      dup2\n      mstore\n      0x20\n      add\n      0x05\n      dup3\n      add\n      0x00\n      swap1\n      sload\n      swap1\n      0x0100\n      exp\n      swap1\n      div\n      0xff\n      and\n      0x03\n      dup2\n      gt\n      iszero\n      tag_127\n      jumpi\n      tag_128\n      tag_107\n      jump\t// in\n    tag_128:\n    tag_127:\n      0x03\n      dup2\n      gt\n      iszero\n      tag_129\n      jumpi\n      tag_130\n      tag_107\n      jump\t// in\n    tag_130:\n    tag_129:\n      dup2\n      mstore\n      0x20\n      add\n      0x06\n      dup3\n      add\n      dup1\n      sload\n      tag_131\n      swap1\n      tag_117\n      jump\t// in\n    tag_131:\n      dup1\n      0x1f\n      add\n      0x20\n      dup1\n      swap2\n      div\n      mul\n      0x20\n      add\n      mload(0x40)\n      swap1\n      dup2\n      add\n      0x40\n      mstore\n      dup1\n      swap3\n      swap2\n      swap1\n      dup2\n      dup2\n      mstore\n      0x20\n      add\n      dup3\n      dup1\n      sload\n      tag_132\n      swap1\n      tag_117\n      jump\t// in\n    tag_132:\n      dup1\n      iszero\n      tag_133\n      jumpi\n      dup1\n      0x1f\n      lt\n      tag_134\n      jumpi\n      0x0100\n      dup1\n      dup4\n      sload\n      div\n      mul\n      dup4\n      mstore\n      swap2\n      0x20\n      add\n      swap2\n      jump(tag_133)\n    tag_134:\n      dup3\n      add\n      swap2\n      swap1\n      0x00\n      mstore\n      keccak256(0x00, 0x20)\n      swap1\n    tag_135:\n      dup2\n      sload\n      dup2\n      mstore\n      swap1\n      0x01\n      add\n      swap1\n      0x20\n      add\n      dup1\n      dup4\n      gt\n      tag_135\n      jumpi\n      dup3\n      swap1\n      sub\n      0x1f\n      and\n      dup3\n      add\n      swap2\n    tag_133:\n      pop\n      pop\n      pop\n      pop\n      pop\n      dup2\n      mstore\n      0x20\n      add\n      0x07\n      dup3\n      add\n      dup1\n      sload\n      tag_136\n      swap1\n      tag_117\n      jump\t// in\n    tag_136:\n      dup1\n      0x1f\n      add\n      0x20\n      dup1\n      swap2\n      div\n      mul\n      0x20\n      add\n      mload(0x40)\n      swap1\n      dup2\n      add\n      0x40\n      mstore\n      dup1\n      swap3\n      swap2\n      swap1\n      dup2\n      dup2\n      mstore\n      0x20\n      add\n      dup3\n      dup1\n      sload\n      tag_137\n      swap1\n      tag_117\n      jump\t// in\n    tag_137:\n      dup1\n      iszero\n      tag_138\n      jumpi\n      dup1\n      0x1f\n      lt\n      tag_139\n      jumpi\n      0x0100\n      dup1\n      dup4\n      sload\n      div\n      mul\n      dup4\n      mstore\n      swap2\n      0x20\n      add\n      swap2\n      jump(tag_138)\n    tag_139:\n      dup3\n      add\n      swap2\n      swap1\n      0x00\n      mstore\n      keccak256(0x00, 0x20)\n      swap1\n    tag_140:\n      dup2\n      sload\n      dup2\n      mstore\n      swap1\n      0x01\n      add\n      swap1\n      0x20\n      add\n      dup1\n      dup4\n      gt\n      tag_140\n      jumpi\n      dup3\n      swap1\n      sub\n      0x1f\n      and\n      dup3\n      add\n      swap2\n    tag_138:\n      pop\n      pop\n      pop\n      pop\n      pop\n      dup2\n      mstore\n      pop\n      pop\n      swap1\n      pop\n        /* \"contracts/src/file.sol\":5713:5839  function getFileInfo(bytes32 fileKey) external view returns (Info memory) {... */\n      swap2\n      swap1\n      pop\n      jump\t// out\n        /* \"contracts/src/file.sol\":3065:4325  function uploadChunk(bytes32 fileKey, bytes memory chunkData, bytes32 chunkHash) public {... */\n    tag_37:\n        /* \"contracts/src/file.sol\":3190:3191  0 */\n      0x00\n        /* \"contracts/src/file.sol\":3171:3180  chunkData */\n      dup3\n        /* \"contracts/src/file.sol\":3171:3187  chunkData.length */\n      mload\n        /* \"contracts/src/file.sol\":3171:3191  chunkData.length > 0 */\n      gt\n        /* \"contracts/src/file.sol\":3171:3224  chunkData.length > 0 && chunkData.length <= 10 * 1024 */\n      dup1\n      iszero\n      tag_142\n      jumpi\n      pop\n        /* \"contracts/src/file.sol\":3215:3224  10 * 1024 */\n      0x2800\n        /* \"contracts/src/file.sol\":3195:3204  chunkData */\n      dup3\n        /* \"contracts/src/file.sol\":3195:3211  chunkData.length */\n      mload\n        /* \"contracts/src/file.sol\":3195:3224  chunkData.length <= 10 * 1024 */\n      gt\n      iszero\n        /* \"contracts/src/file.sol\":3171:3224  chunkData.length > 0 && chunkData.length <= 10 * 1024 */\n    tag_142:\n        /* \"contracts/src/file.sol\":3163:3247  require(chunkData.length > 0 && chunkData.length <= 10 * 1024, \"Invalid chunk size\") */\n      tag_143\n      jumpi\n      mload(0x40)\n      0x08c379a000000000000000000000000000000000000000000000000000000000\n      dup2\n      mstore\n      0x04\n      add\n      tag_144\n      swap1\n      tag_145\n      jump\t// in\n    tag_144:\n      mload(0x40)\n      dup1\n      swap2\n      sub\n      swap1\n      revert\n    tag_143:\n        /* \"contracts/src/file.sol\":3266:3287  FileInfo storage file */\n      0x00\n        /* \"contracts/src/file.sol\":3290:3304  mKeyToFileInfo */\n      dup1\n        /* \"contracts/src/file.sol\":3290:3313  mKeyToFileInfo[fileKey] */\n      0x00\n        /* \"contracts/src/file.sol\":3305:3312  fileKey */\n      dup6\n        /* \"contracts/src/file.sol\":3290:3313  mKeyToFileInfo[fileKey] */\n      dup2\n      mstore\n      0x20\n      add\n      swap1\n      dup2\n      mstore\n      0x20\n      add\n      0x00\n      keccak256\n        /* \"contracts/src/file.sol\":3266:3313  FileInfo storage file = mKeyToFileInfo[fileKey] */\n      swap1\n      pop\n        /* \"contracts/src/file.sol\":3350:3360  msg.sender */\n      caller\n        /* \"contracts/src/file.sol\":3331:3360  file.info.owner == msg.sender */\n      0xffffffffffffffffffffffffffffffffffffffff\n      and\n        /* \"contracts/src/file.sol\":3331:3335  file */\n      dup2\n        /* \"contracts/src/file.sol\":3331:3340  file.info */\n      0x00\n      add\n        /* \"contracts/src/file.sol\":3331:3346  file.info.owner */\n      0x00\n      add\n      0x00\n      swap1\n      sload\n      swap1\n      0x0100\n      exp\n      swap1\n      div\n      0xffffffffffffffffffffffffffffffffffffffff\n      and\n        /* \"contracts/src/file.sol\":3331:3360  file.info.owner == msg.sender */\n      0xffffffffffffffffffffffffffffffffffffffff\n      and\n      eq\n        /* \"contracts/src/file.sol\":3323:3388  require(file.info.owner == msg.sender, \"Caller is not the owner\") */\n      tag_146\n      jumpi\n      mload(0x40)\n      0x08c379a000000000000000000000000000000000000000000000000000000000\n      dup2\n      mstore\n      0x04\n      add\n      tag_147\n      swap1\n      tag_148\n      jump\t// in\n    tag_147:\n      mload(0x40)\n      dup1\n      swap2\n      sub\n      swap1\n      revert\n    tag_146:\n        /* \"contracts/src/file.sol\":3458:3462  file */\n      dup1\n        /* \"contracts/src/file.sol\":3458:3467  file.info */\n      0x00\n      add\n        /* \"contracts/src/file.sol\":3458:3478  file.info.contentLen */\n      0x02\n      add\n      0x00\n      swap1\n      sload\n      swap1\n      0x0100\n      exp\n      swap1\n      div\n      0xffffffffffffffff\n      and\n        /* \"contracts/src/file.sol\":3406:3478  file.progress.processedLength + chunkData.length <= file.info.contentLen */\n      0xffffffffffffffff\n      and\n        /* \"contracts/src/file.sol\":3438:3447  chunkData */\n      dup4\n        /* \"contracts/src/file.sol\":3438:3454  chunkData.length */\n      mload\n        /* \"contracts/src/file.sol\":3406:3410  file */\n      dup3\n        /* \"contracts/src/file.sol\":3406:3419  file.progress */\n      0x08\n      add\n        /* \"contracts/src/file.sol\":3406:3435  file.progress.processedLength */\n      0x01\n      add\n      0x08\n      swap1\n      sload\n      swap1\n      0x0100\n      exp\n      swap1\n      div\n      0xffffffffffffffff\n      and\n        /* \"contracts/src/file.sol\":3406:3454  file.progress.processedLength + chunkData.length */\n      0xffffffffffffffff\n      and\n      tag_149\n      swap2\n      swap1\n      tag_150\n      jump\t// in\n    tag_149:\n        /* \"contracts/src/file.sol\":3406:3478  file.progress.processedLength + chunkData.length <= file.info.contentLen */\n      gt\n      iszero\n        /* \"contracts/src/file.sol\":3398:3508  require(file.progress.processedLength + chunkData.length <= file.info.contentLen, \"Chunk exceeds file length\") */\n      tag_151\n      jumpi\n      mload(0x40)\n      0x08c379a000000000000000000000000000000000000000000000000000000000\n      dup2\n      mstore\n      0x04\n      add\n      tag_152\n      swap1\n      tag_153\n      jump\t// in\n    tag_152:\n      mload(0x40)\n      dup1\n      swap2\n      sub\n      swap1\n      revert\n    tag_151:\n        /* \"contracts/src/file.sol\":3546:3567  FileStatus.Processing */\n      0x00\n        /* \"contracts/src/file.sol\":3526:3567  file.info.status == FileStatus.Processing */\n      0x03\n      dup2\n      gt\n      iszero\n      tag_154\n      jumpi\n      tag_155\n      tag_107\n      jump\t// in\n    tag_155:\n    tag_154:\n        /* \"contracts/src/file.sol\":3526:3530  file */\n      dup2\n        /* \"contracts/src/file.sol\":3526:3535  file.info */\n      0x00\n      add\n        /* \"contracts/src/file.sol\":3526:3542  file.info.status */\n      0x05\n      add\n      0x00\n      swap1\n      sload\n      swap1\n      0x0100\n      exp\n      swap1\n      div\n      0xff\n      and\n        /* \"contracts/src/file.sol\":3526:3567  file.info.status == FileStatus.Processing */\n      0x03\n      dup2\n      gt\n      iszero\n      tag_156\n      jumpi\n      tag_157\n      tag_107\n      jump\t// in\n    tag_157:\n    tag_156:\n      eq\n        /* \"contracts/src/file.sol\":3518:3599  require(file.info.status == FileStatus.Processing, \"File is not being processed\") */\n      tag_158\n      jumpi\n      mload(0x40)\n      0x08c379a000000000000000000000000000000000000000000000000000000000\n      dup2\n      mstore\n      0x04\n      add\n      tag_159\n      swap1\n      tag_160\n      jump\t// in\n    tag_159:\n      mload(0x40)\n      dup1\n      swap2\n      sub\n      swap1\n      revert\n    tag_158:\n        /* \"contracts/src/file.sol\":3618:3643  bytes32 computedChunkHash */\n      0x00\n        /* \"contracts/src/file.sol\":3673:3677  file */\n      dup2\n        /* \"contracts/src/file.sol\":3673:3686  file.progress */\n      0x08\n      add\n        /* \"contracts/src/file.sol\":3673:3700  file.progress.lastChunkHash */\n      0x00\n      add\n      sload\n        /* \"contracts/src/file.sol\":3702:3711  chunkData */\n      dup5\n        /* \"contracts/src/file.sol\":3656:3712  abi.encodePacked(file.progress.lastChunkHash, chunkData) */\n      add(0x20, mload(0x40))\n      tag_161\n      swap3\n      swap2\n      swap1\n      tag_162\n      jump\t// in\n    tag_161:\n      mload(0x40)\n      0x20\n      dup2\n      dup4\n      sub\n      sub\n      dup2\n      mstore\n      swap1\n      0x40\n      mstore\n        /* \"contracts/src/file.sol\":3646:3713  keccak256(abi.encodePacked(file.progress.lastChunkHash, chunkData)) */\n      dup1\n      mload\n      swap1\n      0x20\n      add\n      keccak256\n        /* \"contracts/src/file.sol\":3618:3713  bytes32 computedChunkHash = keccak256(abi.encodePacked(file.progress.lastChunkHash, chunkData)) */\n      swap1\n      pop\n        /* \"contracts/src/file.sol\":3752:3761  chunkHash */\n      dup3\n        /* \"contracts/src/file.sol\":3731:3748  computedChunkHash */\n      dup2\n        /* \"contracts/src/file.sol\":3731:3761  computedChunkHash == chunkHash */\n      eq\n        /* \"contracts/src/file.sol\":3723:3785  require(computedChunkHash == chunkHash, \"Chunk hash mismatch\") */\n      tag_163\n      jumpi\n      mload(0x40)\n      0x08c379a000000000000000000000000000000000000000000000000000000000\n      dup2\n      mstore\n      0x04\n      add\n      tag_164\n      swap1\n      tag_165\n      jump\t// in\n    tag_164:\n      mload(0x40)\n      dup1\n      swap2\n      sub\n      swap1\n      revert\n    tag_163:\n        /* \"contracts/src/file.sol\":3826:3843  computedChunkHash */\n      dup1\n        /* \"contracts/src/file.sol\":3796:3800  file */\n      dup3\n        /* \"contracts/src/file.sol\":3796:3809  file.progress */\n      0x08\n      add\n        /* \"contracts/src/file.sol\":3796:3823  file.progress.lastChunkHash */\n      0x00\n      add\n        /* \"contracts/src/file.sol\":3796:3843  file.progress.lastChunkHash = computedChunkHash */\n      dup2\n      swap1\n      sstore\n      pop\n        /* \"contracts/src/file.sol\":3898:3907  chunkData */\n      dup4\n        /* \"contracts/src/file.sol\":3853:3857  file */\n      dup3\n        /* \"contracts/src/file.sol\":3853:3864  file.chunks */\n      0x0a\n      add\n        /* \"contracts/src/file.sol\":3853:3895  file.chunks[file.progress.processedChunks] */\n      0x00\n        /* \"contracts/src/file.sol\":3865:3869  file */\n      dup5\n        /* \"contracts/src/file.sol\":3865:3878  file.progress */\n      0x08\n      add\n        /* \"contracts/src/file.sol\":3865:3894  file.progress.processedChunks */\n      0x01\n      add\n      0x00\n      swap1\n      sload\n      swap1\n      0x0100\n      exp\n      swap1\n      div\n      0xffffffffffffffff\n      and\n        /* \"contracts/src/file.sol\":3853:3895  file.chunks[file.progress.processedChunks] */\n      0xffffffffffffffff\n      and\n      dup2\n      mstore\n      0x20\n      add\n      swap1\n      dup2\n      mstore\n      0x20\n      add\n      0x00\n      keccak256\n        /* \"contracts/src/file.sol\":3853:3907  file.chunks[file.progress.processedChunks] = chunkData */\n      swap1\n      dup2\n      tag_166\n      swap2\n      swap1\n      tag_167\n      jump\t// in\n    tag_166:\n      pop\n        /* \"contracts/src/file.sol\":3917:3921  file */\n      dup2\n        /* \"contracts/src/file.sol\":3917:3930  file.progress */\n      0x08\n      add\n        /* \"contracts/src/file.sol\":3917:3946  file.progress.processedChunks */\n      0x01\n      add\n      0x00\n        /* \"contracts/src/file.sol\":3917:3948  file.progress.processedChunks++ */\n      dup2\n      dup2\n      swap1\n      sload\n      swap1\n      0x0100\n      exp\n      swap1\n      div\n      0xffffffffffffffff\n      and\n      dup1\n      swap3\n      swap2\n      swap1\n      tag_168\n      swap1\n      tag_169\n      jump\t// in\n    tag_168:\n      swap2\n      swap1\n      0x0100\n      exp\n      dup2\n      sload\n      dup2\n      0xffffffffffffffff\n      mul\n      not\n      and\n      swap1\n      dup4\n      0xffffffffffffffff\n      and\n      mul\n      or\n      swap1\n      sstore\n      pop\n      pop\n        /* \"contracts/src/file.sol\":3998:4007  chunkData */\n      dup4\n        /* \"contracts/src/file.sol\":3998:4014  chunkData.length */\n      mload\n        /* \"contracts/src/file.sol\":3958:3962  file */\n      dup3\n        /* \"contracts/src/file.sol\":3958:3971  file.progress */\n      0x08\n      add\n        /* \"contracts/src/file.sol\":3958:3987  file.progress.processedLength */\n      0x01\n      add\n      0x08\n        /* \"contracts/src/file.sol\":3958:4015  file.progress.processedLength += uint64(chunkData.length) */\n      dup3\n      dup3\n      dup3\n      swap1\n      sload\n      swap1\n      0x0100\n      exp\n      swap1\n      div\n      0xffffffffffffffff\n      and\n      tag_170\n      swap2\n      swap1\n      tag_171\n      jump\t// in\n    tag_170:\n      swap3\n      pop\n      0x0100\n      exp\n      dup2\n      sload\n      dup2\n      0xffffffffffffffff\n      mul\n      not\n      and\n      swap1\n      dup4\n      0xffffffffffffffff\n      and\n      mul\n      or\n      swap1\n      sstore\n      pop\n        /* \"contracts/src/file.sol\":4054:4058  file */\n      dup2\n        /* \"contracts/src/file.sol\":4054:4067  file.progress */\n      0x08\n      add\n        /* \"contracts/src/file.sol\":4054:4083  file.progress.processedLength */\n      0x01\n      add\n      0x08\n      swap1\n      sload\n      swap1\n      0x0100\n      exp\n      swap1\n      div\n      0xffffffffffffffff\n      and\n        /* \"contracts/src/file.sol\":4030:4083  file.info.contentLen == file.progress.processedLength */\n      0xffffffffffffffff\n      and\n        /* \"contracts/src/file.sol\":4030:4034  file */\n      dup3\n        /* \"contracts/src/file.sol\":4030:4039  file.info */\n      0x00\n      add\n        /* \"contracts/src/file.sol\":4030:4050  file.info.contentLen */\n      0x02\n      add\n      0x00\n      swap1\n      sload\n      swap1\n      0x0100\n      exp\n      swap1\n      div\n      0xffffffffffffffff\n      and\n        /* \"contracts/src/file.sol\":4030:4083  file.info.contentLen == file.progress.processedLength */\n      0xffffffffffffffff\n      and\n      eq\n        /* \"contracts/src/file.sol\":4030:4141  file.info.contentLen == file.progress.processedLength || file.progress.processedChunks == file.info.totalChunks */\n      dup1\n      tag_172\n      jumpi\n      pop\n        /* \"contracts/src/file.sol\":4120:4124  file */\n      dup2\n        /* \"contracts/src/file.sol\":4120:4129  file.info */\n      0x00\n      add\n        /* \"contracts/src/file.sol\":4120:4141  file.info.totalChunks */\n      0x02\n      add\n      0x08\n      swap1\n      sload\n      swap1\n      0x0100\n      exp\n      swap1\n      div\n      0xffffffffffffffff\n      and\n        /* \"contracts/src/file.sol\":4087:4141  file.progress.processedChunks == file.info.totalChunks */\n      0xffffffffffffffff\n      and\n        /* \"contracts/src/file.sol\":4087:4091  file */\n      dup3\n        /* \"contracts/src/file.sol\":4087:4100  file.progress */\n      0x08\n      add\n        /* \"contracts/src/file.sol\":4087:4116  file.progress.processedChunks */\n      0x01\n      add\n      0x00\n      swap1\n      sload\n      swap1\n      0x0100\n      exp\n      swap1\n      div\n      0xffffffffffffffff\n      and\n        /* \"contracts/src/file.sol\":4087:4141  file.progress.processedChunks == file.info.totalChunks */\n      0xffffffffffffffff\n      and\n      eq\n        /* \"contracts/src/file.sol\":4030:4141  file.info.contentLen == file.progress.processedLength || file.progress.processedChunks == file.info.totalChunks */\n    tag_172:\n        /* \"contracts/src/file.sol\":4026:4238  if (file.info.contentLen == file.progress.processedLength || file.progress.processedChunks == file.info.totalChunks) {... */\n      iszero\n      tag_173\n      jumpi\n        /* \"contracts/src/file.sol\":4176:4193  FileStatus.Active */\n      0x01\n        /* \"contracts/src/file.sol\":4157:4161  file */\n      dup3\n        /* \"contracts/src/file.sol\":4157:4166  file.info */\n      0x00\n      add\n        /* \"contracts/src/file.sol\":4157:4173  file.info.status */\n      0x05\n      add\n      0x00\n        /* \"contracts/src/file.sol\":4157:4193  file.info.status = FileStatus.Active */\n      0x0100\n      exp\n      dup2\n      sload\n      dup2\n      0xff\n      mul\n      not\n      and\n      swap1\n      dup4\n      0x03\n      dup2\n      gt\n      iszero\n      tag_174\n      jumpi\n      tag_175\n      tag_107\n      jump\t// in\n    tag_175:\n    tag_174:\n      mul\n      or\n      swap1\n      sstore\n      pop\n        /* \"contracts/src/file.sol\":4214:4218  file */\n      dup2\n        /* \"contracts/src/file.sol\":4214:4227  file.progress */\n      0x08\n      add\n      0x00\n        /* \"contracts/src/file.sol\":4207:4227  delete file.progress */\n      dup1\n      dup3\n      add\n      0x00\n      swap1\n      sstore\n      0x01\n      dup3\n      add\n      exp(0x0100, 0x00)\n      dup2\n      sload\n      swap1\n      0xffffffffffffffff\n      mul\n      not\n      and\n      swap1\n      sstore\n      0x01\n      dup3\n      add\n      exp(0x0100, 0x08)\n      dup2\n      sload\n      swap1\n      0xffffffffffffffff\n      mul\n      not\n      and\n      swap1\n      sstore\n      pop\n      pop\n        /* \"contracts/src/file.sol\":4026:4238  if (file.info.contentLen == file.progress.processedLength || file.progress.processedChunks == file.info.totalChunks) {... */\n    tag_173:\n        /* \"contracts/src/file.sol\":4275:4282  fileKey */\n      dup5\n        /* \"contracts/src/file.sol\":4261:4318  ChunkUploaded(fileKey, file.progress.processedChunks - 1) */\n      0x9194bcee830b22b5e81ccd3c7efb4811ca70dfdd9bbfaa1719d15dfc18c6417d\n        /* \"contracts/src/file.sol\":4316:4317  1 */\n      0x01\n        /* \"contracts/src/file.sol\":4284:4288  file */\n      dup5\n        /* \"contracts/src/file.sol\":4284:4297  file.progress */\n      0x08\n      add\n        /* \"contracts/src/file.sol\":4284:4313  file.progress.processedChunks */\n      0x01\n      add\n      0x00\n      swap1\n      sload\n      swap1\n      0x0100\n      exp\n      swap1\n      div\n      0xffffffffffffffff\n      and\n        /* \"contracts/src/file.sol\":4284:4317  file.progress.processedChunks - 1 */\n      tag_176\n      swap2\n      swap1\n      tag_177\n      jump\t// in\n    tag_176:\n        /* \"contracts/src/file.sol\":4261:4318  ChunkUploaded(fileKey, file.progress.processedChunks - 1) */\n      mload(0x40)\n      tag_178\n      swap2\n      swap1\n      tag_179\n      jump\t// in\n    tag_178:\n      mload(0x40)\n      dup1\n      swap2\n      sub\n      swap1\n      log2\n        /* \"contracts/src/file.sol\":3153:4325  {... */\n      pop\n      pop\n        /* \"contracts/src/file.sol\":3065:4325  function uploadChunk(bytes32 fileKey, bytes memory chunkData, bytes32 chunkHash) public {... */\n      pop\n      pop\n      pop\n      jump\t// out\n        /* \"contracts/src/file.sol\":4759:5245  function deleteFile(bytes32 fileKey) external {... */\n    tag_40:\n        /* \"contracts/src/file.sol\":4815:4836  FileInfo storage file */\n      0x00\n        /* \"contracts/src/file.sol\":4839:4853  mKeyToFileInfo */\n      dup1\n        /* \"contracts/src/file.sol\":4839:4862  mKeyToFileInfo[fileKey] */\n      0x00\n        /* \"contracts/src/file.sol\":4854:4861  fileKey */\n      dup4\n        /* \"contracts/src/file.sol\":4839:4862  mKeyToFileInfo[fileKey] */\n      dup2\n      mstore\n      0x20\n      add\n      swap1\n      dup2\n      mstore\n      0x20\n      add\n      0x00\n      keccak256\n        /* \"contracts/src/file.sol\":4815:4862  FileInfo storage file = mKeyToFileInfo[fileKey] */\n      swap1\n      pop\n        /* \"contracts/src/file.sol\":4899:4909  msg.sender */\n      caller\n        /* \"contracts/src/file.sol\":4880:4909  file.info.owner == msg.sender */\n      0xffffffffffffffffffffffffffffffffffffffff\n      and\n        /* \"contracts/src/file.sol\":4880:4884  file */\n      dup2\n        /* \"contracts/src/file.sol\":4880:4889  file.info */\n      0x00\n      add\n        /* \"contracts/src/file.sol\":4880:4895  file.info.owner */\n      0x00\n      add\n      0x00\n      swap1\n      sload\n      swap1\n      0x0100\n      exp\n      swap1\n      div\n      0xffffffffffffffffffffffffffffffffffffffff\n      and\n        /* \"contracts/src/file.sol\":4880:4909  file.info.owner == msg.sender */\n      0xffffffffffffffffffffffffffffffffffffffff\n      and\n      eq\n        /* \"contracts/src/file.sol\":4872:4937  require(file.info.owner == msg.sender, \"Caller is not the owner\") */\n      tag_181\n      jumpi\n      mload(0x40)\n      0x08c379a000000000000000000000000000000000000000000000000000000000\n      dup2\n      mstore\n      0x04\n      add\n      tag_182\n      swap1\n      tag_148\n      jump\t// in\n    tag_182:\n      mload(0x40)\n      dup1\n      swap2\n      sub\n      swap1\n      revert\n    tag_181:\n        /* \"contracts/src/file.sol\":4975:4993  FileStatus.Deleted */\n      0x03\n        /* \"contracts/src/file.sol\":4955:4993  file.info.status != FileStatus.Deleted */\n      dup1\n      dup2\n      gt\n      iszero\n      tag_183\n      jumpi\n      tag_184\n      tag_107\n      jump\t// in\n    tag_184:\n    tag_183:\n        /* \"contracts/src/file.sol\":4955:4959  file */\n      dup2\n        /* \"contracts/src/file.sol\":4955:4964  file.info */\n      0x00\n      add\n        /* \"contracts/src/file.sol\":4955:4971  file.info.status */\n      0x05\n      add\n      0x00\n      swap1\n      sload\n      swap1\n      0x0100\n      exp\n      swap1\n      div\n      0xff\n      and\n        /* \"contracts/src/file.sol\":4955:4993  file.info.status != FileStatus.Deleted */\n      0x03\n      dup2\n      gt\n      iszero\n      tag_185\n      jumpi\n      tag_186\n      tag_107\n      jump\t// in\n    tag_186:\n    tag_185:\n      sub\n        /* \"contracts/src/file.sol\":4947:5018  require(file.info.status != FileStatus.Deleted, \"File already deleted\") */\n      tag_187\n      jumpi\n      mload(0x40)\n      0x08c379a000000000000000000000000000000000000000000000000000000000\n      dup2\n      mstore\n      0x04\n      add\n      tag_188\n      swap1\n      tag_189\n      jump\t// in\n    tag_188:\n      mload(0x40)\n      dup1\n      swap2\n      sub\n      swap1\n      revert\n    tag_187:\n        /* \"contracts/src/file.sol\":5048:5066  FileStatus.Deleted */\n      0x03\n        /* \"contracts/src/file.sol\":5029:5033  file */\n      dup2\n        /* \"contracts/src/file.sol\":5029:5038  file.info */\n      0x00\n      add\n        /* \"contracts/src/file.sol\":5029:5045  file.info.status */\n      0x05\n      add\n      0x00\n        /* \"contracts/src/file.sol\":5029:5066  file.info.status = FileStatus.Deleted */\n      0x0100\n      exp\n      dup2\n      sload\n      dup2\n      0xff\n      mul\n      not\n      and\n      swap1\n      dup4\n      0x03\n      dup2\n      gt\n      iszero\n      tag_190\n      jumpi\n      tag_191\n      tag_107\n      jump\t// in\n    tag_191:\n    tag_190:\n      mul\n      or\n      swap1\n      sstore\n      pop\n        /* \"contracts/src/file.sol\":5081:5090  uint256 i */\n      0x00\n        /* \"contracts/src/file.sol\":5076:5174  for (uint256 i = 0; i < file.info.totalChunks; i++) {... */\n    tag_192:\n        /* \"contracts/src/file.sol\":5100:5104  file */\n      dup2\n        /* \"contracts/src/file.sol\":5100:5109  file.info */\n      0x00\n      add\n        /* \"contracts/src/file.sol\":5100:5121  file.info.totalChunks */\n      0x02\n      add\n      0x08\n      swap1\n      sload\n      swap1\n      0x0100\n      exp\n      swap1\n      div\n      0xffffffffffffffff\n      and\n        /* \"contracts/src/file.sol\":5096:5121  i < file.info.totalChunks */\n      0xffffffffffffffff\n      and\n        /* \"contracts/src/file.sol\":5096:5097  i */\n      dup2\n        /* \"contracts/src/file.sol\":5096:5121  i < file.info.totalChunks */\n      lt\n        /* \"contracts/src/file.sol\":5076:5174  for (uint256 i = 0; i < file.info.totalChunks; i++) {... */\n      iszero\n      tag_193\n      jumpi\n        /* \"contracts/src/file.sol\":5149:5153  file */\n      dup2\n        /* \"contracts/src/file.sol\":5149:5160  file.chunks */\n      0x0a\n      add\n        /* \"contracts/src/file.sol\":5149:5163  file.chunks[i] */\n      0x00\n        /* \"contracts/src/file.sol\":5161:5162  i */\n      dup3\n        /* \"contracts/src/file.sol\":5149:5163  file.chunks[i] */\n      dup2\n      mstore\n      0x20\n      add\n      swap1\n      dup2\n      mstore\n      0x20\n      add\n      0x00\n      keccak256\n      0x00\n        /* \"contracts/src/file.sol\":5142:5163  delete file.chunks[i] */\n      tag_195\n      swap2\n      swap1\n      tag_196\n      jump\t// in\n    tag_195:\n        /* \"contracts/src/file.sol\":5123:5126  i++ */\n      dup1\n      dup1\n      tag_197\n      swap1\n      tag_198\n      jump\t// in\n    tag_197:\n      swap2\n      pop\n      pop\n        /* \"contracts/src/file.sol\":5076:5174  for (uint256 i = 0; i < file.info.totalChunks; i++) {... */\n      jump(tag_192)\n    tag_193:\n      pop\n        /* \"contracts/src/file.sol\":5190:5194  file */\n      dup1\n        /* \"contracts/src/file.sol\":5190:5203  file.progress */\n      0x08\n      add\n      0x00\n        /* \"contracts/src/file.sol\":5183:5203  delete file.progress */\n      dup1\n      dup3\n      add\n      0x00\n      swap1\n      sstore\n      0x01\n      dup3\n      add\n      exp(0x0100, 0x00)\n      dup2\n      sload\n      swap1\n      0xffffffffffffffff\n      mul\n      not\n      and\n      swap1\n      sstore\n      0x01\n      dup3\n      add\n      exp(0x0100, 0x08)\n      dup2\n      sload\n      swap1\n      0xffffffffffffffff\n      mul\n      not\n      and\n      swap1\n      sstore\n      pop\n      pop\n        /* \"contracts/src/file.sol\":5230:5237  fileKey */\n      dup2\n        /* \"contracts/src/file.sol\":5218:5238  FileDeleted(fileKey) */\n      0x88efefb1eaec3d3a0e08ed74bc99a3407d454b5da66112fed68b20d54837ccae\n      mload(0x40)\n      mload(0x40)\n      dup1\n      swap2\n      sub\n      swap1\n      log2\n        /* \"contracts/src/file.sol\":4805:5245  {... */\n      pop\n        /* \"contracts/src/file.sol\":4759:5245  function deleteFile(bytes32 fileKey) external {... */\n      pop\n      jump\t// out\n        /* \"contracts/src/file.sol\":914:1196  function pushFileInfos(... */\n    tag_44:\n        /* \"contracts/src/file.sol\":988:1004  bytes32[] memory */\n      0x60\n        /* \"contracts/src/file.sol\":1015:1036  bytes32[] memory keys */\n      0x00\n        /* \"contracts/src/file.sol\":1053:1058  infos */\n      dup3\n        /* \"contracts/src/file.sol\":1053:1065  infos.length */\n      mload\n        /* \"contracts/src/file.sol\":1039:1066  new bytes32[](infos.length) */\n      0xffffffffffffffff\n      dup2\n      gt\n      iszero\n      tag_200\n      jumpi\n      tag_201\n      tag_202\n      jump\t// in\n    tag_201:\n    tag_200:\n      mload(0x40)\n      swap1\n      dup1\n      dup3\n      mstore\n      dup1\n      0x20\n      mul\n      0x20\n      add\n      dup3\n      add\n      0x40\n      mstore\n      dup1\n      iszero\n      tag_203\n      jumpi\n      dup2\n      0x20\n      add\n      0x20\n      dup3\n      mul\n      dup1\n      calldatasize\n      dup4\n      calldatacopy\n      dup1\n      dup3\n      add\n      swap2\n      pop\n      pop\n      swap1\n      pop\n    tag_203:\n      pop\n        /* \"contracts/src/file.sol\":1015:1066  bytes32[] memory keys = new bytes32[](infos.length) */\n      swap1\n      pop\n        /* \"contracts/src/file.sol\":1080:1089  uint256 i */\n      0x00\n        /* \"contracts/src/file.sol\":1076:1169  for(uint256 i; i< infos.length; i++){... */\n    tag_204:\n        /* \"contracts/src/file.sol\":1094:1099  infos */\n      dup4\n        /* \"contracts/src/file.sol\":1094:1106  infos.length */\n      mload\n        /* \"contracts/src/file.sol\":1091:1092  i */\n      dup2\n        /* \"contracts/src/file.sol\":1091:1106  i< infos.length */\n      lt\n        /* \"contracts/src/file.sol\":1076:1169  for(uint256 i; i< infos.length; i++){... */\n      iszero\n      tag_205\n      jumpi\n        /* \"contracts/src/file.sol\":1136:1158  pushFileInfo(infos[i]) */\n      tag_207\n        /* \"contracts/src/file.sol\":1149:1154  infos */\n      dup5\n        /* \"contracts/src/file.sol\":1155:1156  i */\n      dup3\n        /* \"contracts/src/file.sol\":1149:1157  infos[i] */\n      dup2\n      mload\n      dup2\n      lt\n      tag_208\n      jumpi\n      tag_209\n      tag_210\n      jump\t// in\n    tag_209:\n    tag_208:\n      0x20\n      mul\n      0x20\n      add\n      add\n      mload\n        /* \"contracts/src/file.sol\":1136:1148  pushFileInfo */\n      tag_74\n        /* \"contracts/src/file.sol\":1136:1158  pushFileInfo(infos[i]) */\n      jump\t// in\n    tag_207:\n        /* \"contracts/src/file.sol\":1126:1130  keys */\n      dup3\n        /* \"contracts/src/file.sol\":1131:1132  i */\n      dup3\n        /* \"contracts/src/file.sol\":1126:1133  keys[i] */\n      dup2\n      mload\n      dup2\n      lt\n      tag_211\n      jumpi\n      tag_212\n      tag_210\n      jump\t// in\n    tag_212:\n    tag_211:\n      0x20\n      mul\n      0x20\n      add\n      add\n        /* \"contracts/src/file.sol\":1126:1158  keys[i] = pushFileInfo(infos[i]) */\n      dup2\n      dup2\n      mstore\n      pop\n      pop\n        /* \"contracts/src/file.sol\":1108:1111  i++ */\n      dup1\n      dup1\n      tag_213\n      swap1\n      tag_198\n      jump\t// in\n    tag_213:\n      swap2\n      pop\n      pop\n        /* \"contracts/src/file.sol\":1076:1169  for(uint256 i; i< infos.length; i++){... */\n      jump(tag_204)\n    tag_205:\n      pop\n        /* \"contracts/src/file.sol\":1185:1189  keys */\n      dup1\n        /* \"contracts/src/file.sol\":1178:1189  return keys */\n      swap2\n      pop\n      pop\n        /* \"contracts/src/file.sol\":914:1196  function pushFileInfos(... */\n      swap2\n      swap1\n      pop\n      jump\t// out\n        /* \"contracts/src/file.sol\":500:520  address public owner */\n    tag_48:\n      0x03\n      0x00\n      swap1\n      sload\n      swap1\n      0x0100\n      exp\n      swap1\n      div\n      0xffffffffffffffffffffffffffffffffffffffff\n      and\n      dup2\n      jump\t// out\n        /* \"contracts/src/file.sol\":2681:3060  function uploadChunks(bytes32[] memory fileKeys, bytes[] memory chunkDatas, bytes32[] memory chunkHashes) external {... */\n    tag_54:\n        /* \"contracts/src/file.sol\":2833:2843  chunkDatas */\n      dup2\n        /* \"contracts/src/file.sol\":2833:2850  chunkDatas.length */\n      mload\n        /* \"contracts/src/file.sol\":2814:2822  fileKeys */\n      dup4\n        /* \"contracts/src/file.sol\":2814:2829  fileKeys.length */\n      mload\n        /* \"contracts/src/file.sol\":2814:2850  fileKeys.length == chunkDatas.length */\n      eq\n        /* \"contracts/src/file.sol\":2814:2893  fileKeys.length == chunkDatas.length && chunkHashes.length == chunkDatas.length */\n      dup1\n      iszero\n      tag_215\n      jumpi\n      pop\n        /* \"contracts/src/file.sol\":2876:2886  chunkDatas */\n      dup2\n        /* \"contracts/src/file.sol\":2876:2893  chunkDatas.length */\n      mload\n        /* \"contracts/src/file.sol\":2854:2865  chunkHashes */\n      dup2\n        /* \"contracts/src/file.sol\":2854:2872  chunkHashes.length */\n      mload\n        /* \"contracts/src/file.sol\":2854:2893  chunkHashes.length == chunkDatas.length */\n      eq\n        /* \"contracts/src/file.sol\":2814:2893  fileKeys.length == chunkDatas.length && chunkHashes.length == chunkDatas.length */\n    tag_215:\n        /* \"contracts/src/file.sol\":2806:2927  require(fileKeys.length == chunkDatas.length && chunkHashes.length == chunkDatas.length,\"length arrays should be equal\" ) */\n      tag_216\n      jumpi\n      mload(0x40)\n      0x08c379a000000000000000000000000000000000000000000000000000000000\n      dup2\n      mstore\n      0x04\n      add\n      tag_217\n      swap1\n      tag_218\n      jump\t// in\n    tag_217:\n      mload(0x40)\n      dup1\n      swap2\n      sub\n      swap1\n      revert\n    tag_216:\n        /* \"contracts/src/file.sol\":2941:2950  uint256 i */\n      0x00\n        /* \"contracts/src/file.sol\":2937:3054  for(uint256 i; i<fileKeys.length; i++){... */\n    tag_219:\n        /* \"contracts/src/file.sol\":2954:2962  fileKeys */\n      dup4\n        /* \"contracts/src/file.sol\":2954:2969  fileKeys.length */\n      mload\n        /* \"contracts/src/file.sol\":2952:2953  i */\n      dup2\n        /* \"contracts/src/file.sol\":2952:2969  i<fileKeys.length */\n      lt\n        /* \"contracts/src/file.sol\":2937:3054  for(uint256 i; i<fileKeys.length; i++){... */\n      iszero\n      tag_220\n      jumpi\n        /* \"contracts/src/file.sol\":2989:3043  uploadChunk(fileKeys[i],chunkDatas[i], chunkHashes[i]) */\n      tag_222\n        /* \"contracts/src/file.sol\":3001:3009  fileKeys */\n      dup5\n        /* \"contracts/src/file.sol\":3010:3011  i */\n      dup3\n        /* \"contracts/src/file.sol\":3001:3012  fileKeys[i] */\n      dup2\n      mload\n      dup2\n      lt\n      tag_223\n      jumpi\n      tag_224\n      tag_210\n      jump\t// in\n    tag_224:\n    tag_223:\n      0x20\n      mul\n      0x20\n      add\n      add\n      mload\n        /* \"contracts/src/file.sol\":3013:3023  chunkDatas */\n      dup5\n        /* \"contracts/src/file.sol\":3024:3025  i */\n      dup4\n        /* \"contracts/src/file.sol\":3013:3026  chunkDatas[i] */\n      dup2\n      mload\n      dup2\n      lt\n      tag_225\n      jumpi\n      tag_226\n      tag_210\n      jump\t// in\n    tag_226:\n    tag_225:\n      0x20\n      mul\n      0x20\n      add\n      add\n      mload\n        /* \"contracts/src/file.sol\":3028:3039  chunkHashes */\n      dup5\n        /* \"contracts/src/file.sol\":3040:3041  i */\n      dup5\n        /* \"contracts/src/file.sol\":3028:3042  chunkHashes[i] */\n      dup2\n      mload\n      dup2\n      lt\n      tag_227\n      jumpi\n      tag_228\n      tag_210\n      jump\t// in\n    tag_228:\n    tag_227:\n      0x20\n      mul\n      0x20\n      add\n      add\n      mload\n        /* \"contracts/src/file.sol\":2989:3000  uploadChunk */\n      tag_37\n        /* \"contracts/src/file.sol\":2989:3043  uploadChunk(fileKeys[i],chunkDatas[i], chunkHashes[i]) */\n      jump\t// in\n    tag_222:\n        /* \"contracts/src/file.sol\":2971:2974  i++ */\n      dup1\n      dup1\n      tag_229\n      swap1\n      tag_198\n      jump\t// in\n    tag_229:\n      swap2\n      pop\n      pop\n        /* \"contracts/src/file.sol\":2937:3054  for(uint256 i; i<fileKeys.length; i++){... */\n      jump(tag_219)\n    tag_220:\n      pop\n        /* \"contracts/src/file.sol\":2681:3060  function uploadChunks(bytes32[] memory fileKeys, bytes[] memory chunkDatas, bytes32[] memory chunkHashes) external {... */\n      pop\n      pop\n      pop\n      jump\t// out\n        /* \"contracts/src/file.sol\":5251:5704  function renewTime(bytes32 fileKey, uint64 _newExpireTime) external {... */\n    tag_58:\n        /* \"contracts/src/file.sol\":5329:5350  FileInfo storage file */\n      0x00\n        /* \"contracts/src/file.sol\":5353:5367  mKeyToFileInfo */\n      dup1\n        /* \"contracts/src/file.sol\":5353:5376  mKeyToFileInfo[fileKey] */\n      0x00\n        /* \"contracts/src/file.sol\":5368:5375  fileKey */\n      dup5\n        /* \"contracts/src/file.sol\":5353:5376  mKeyToFileInfo[fileKey] */\n      dup2\n      mstore\n      0x20\n      add\n      swap1\n      dup2\n      mstore\n      0x20\n      add\n      0x00\n      keccak256\n        /* \"contracts/src/file.sol\":5329:5376  FileInfo storage file = mKeyToFileInfo[fileKey] */\n      swap1\n      pop\n        /* \"contracts/src/file.sol\":5413:5423  msg.sender */\n      caller\n        /* \"contracts/src/file.sol\":5394:5423  file.info.owner == msg.sender */\n      0xffffffffffffffffffffffffffffffffffffffff\n      and\n        /* \"contracts/src/file.sol\":5394:5398  file */\n      dup2\n        /* \"contracts/src/file.sol\":5394:5403  file.info */\n      0x00\n      add\n        /* \"contracts/src/file.sol\":5394:5409  file.info.owner */\n      0x00\n      add\n      0x00\n      swap1\n      sload\n      swap1\n      0x0100\n      exp\n      swap1\n      div\n      0xffffffffffffffffffffffffffffffffffffffff\n      and\n        /* \"contracts/src/file.sol\":5394:5423  file.info.owner == msg.sender */\n      0xffffffffffffffffffffffffffffffffffffffff\n      and\n      eq\n        /* \"contracts/src/file.sol\":5386:5451  require(file.info.owner == msg.sender, \"Caller is not the owner\") */\n      tag_231\n      jumpi\n      mload(0x40)\n      0x08c379a000000000000000000000000000000000000000000000000000000000\n      dup2\n      mstore\n      0x04\n      add\n      tag_232\n      swap1\n      tag_148\n      jump\t// in\n    tag_232:\n      mload(0x40)\n      dup1\n      swap2\n      sub\n      swap1\n      revert\n    tag_231:\n        /* \"contracts/src/file.sol\":5489:5507  FileStatus.Deleted */\n      0x03\n        /* \"contracts/src/file.sol\":5469:5507  file.info.status != FileStatus.Deleted */\n      dup1\n      dup2\n      gt\n      iszero\n      tag_233\n      jumpi\n      tag_234\n      tag_107\n      jump\t// in\n    tag_234:\n    tag_233:\n        /* \"contracts/src/file.sol\":5469:5473  file */\n      dup2\n        /* \"contracts/src/file.sol\":5469:5478  file.info */\n      0x00\n      add\n        /* \"contracts/src/file.sol\":5469:5485  file.info.status */\n      0x05\n      add\n      0x00\n      swap1\n      sload\n      swap1\n      0x0100\n      exp\n      swap1\n      div\n      0xff\n      and\n        /* \"contracts/src/file.sol\":5469:5507  file.info.status != FileStatus.Deleted */\n      0x03\n      dup2\n      gt\n      iszero\n      tag_235\n      jumpi\n      tag_236\n      tag_107\n      jump\t// in\n    tag_236:\n    tag_235:\n      sub\n        /* \"contracts/src/file.sol\":5461:5533  require(file.info.status != FileStatus.Deleted, \"File has been deleted\") */\n      tag_237\n      jumpi\n      mload(0x40)\n      0x08c379a000000000000000000000000000000000000000000000000000000000\n      dup2\n      mstore\n      0x04\n      add\n      tag_238\n      swap1\n      tag_239\n      jump\t// in\n    tag_238:\n      mload(0x40)\n      dup1\n      swap2\n      sub\n      swap1\n      revert\n    tag_237:\n        /* \"contracts/src/file.sol\":5586:5592  1 days */\n      0x015180\n        /* \"contracts/src/file.sol\":5568:5583  block.timestamp */\n      timestamp\n        /* \"contracts/src/file.sol\":5568:5592  block.timestamp + 1 days */\n      tag_240\n      swap2\n      swap1\n      tag_150\n      jump\t// in\n    tag_240:\n        /* \"contracts/src/file.sol\":5551:5565  _newExpireTime */\n      dup3\n        /* \"contracts/src/file.sol\":5551:5592  _newExpireTime > block.timestamp + 1 days */\n      0xffffffffffffffff\n      and\n      gt\n        /* \"contracts/src/file.sol\":5543:5649  require(_newExpireTime > block.timestamp + 1 days, \"New expire time must be at least 1 day in the future\") */\n      tag_241\n      jumpi\n      mload(0x40)\n      0x08c379a000000000000000000000000000000000000000000000000000000000\n      dup2\n      mstore\n      0x04\n      add\n      tag_242\n      swap1\n      tag_243\n      jump\t// in\n    tag_242:\n      mload(0x40)\n      dup1\n      swap2\n      sub\n      swap1\n      revert\n    tag_241:\n        /* \"contracts/src/file.sol\":5683:5697  _newExpireTime */\n      dup2\n        /* \"contracts/src/file.sol\":5660:5664  file */\n      dup2\n        /* \"contracts/src/file.sol\":5660:5669  file.info */\n      0x00\n      add\n        /* \"contracts/src/file.sol\":5660:5680  file.info.expireTime */\n      0x02\n      add\n      0x10\n        /* \"contracts/src/file.sol\":5660:5697  file.info.expireTime = _newExpireTime */\n      0x0100\n      exp\n      dup2\n      sload\n      dup2\n      0xffffffffffffffff\n      mul\n      not\n      and\n      swap1\n      dup4\n      0xffffffffffffffff\n      and\n      mul\n      or\n      swap1\n      sstore\n      pop\n        /* \"contracts/src/file.sol\":5319:5704  {... */\n      pop\n        /* \"contracts/src/file.sol\":5251:5704  function renewTime(bytes32 fileKey, uint64 _newExpireTime) external {... */\n      pop\n      pop\n      jump\t// out\n        /* \"contracts/src/file.sol\":4331:4753  function lockFile(bytes32 fileKey) external {... */\n    tag_61:\n        /* \"contracts/src/file.sol\":4385:4406  FileInfo storage file */\n      0x00\n        /* \"contracts/src/file.sol\":4409:4423  mKeyToFileInfo */\n      dup1\n        /* \"contracts/src/file.sol\":4409:4432  mKeyToFileInfo[fileKey] */\n      0x00\n        /* \"contracts/src/file.sol\":4424:4431  fileKey */\n      dup4\n        /* \"contracts/src/file.sol\":4409:4432  mKeyToFileInfo[fileKey] */\n      dup2\n      mstore\n      0x20\n      add\n      swap1\n      dup2\n      mstore\n      0x20\n      add\n      0x00\n      keccak256\n        /* \"contracts/src/file.sol\":4385:4432  FileInfo storage file = mKeyToFileInfo[fileKey] */\n      swap1\n      pop\n        /* \"contracts/src/file.sol\":4469:4479  msg.sender */\n      caller\n        /* \"contracts/src/file.sol\":4450:4479  file.info.owner == msg.sender */\n      0xffffffffffffffffffffffffffffffffffffffff\n      and\n        /* \"contracts/src/file.sol\":4450:4454  file */\n      dup2\n        /* \"contracts/src/file.sol\":4450:4459  file.info */\n      0x00\n      add\n        /* \"contracts/src/file.sol\":4450:4465  file.info.owner */\n      0x00\n      add\n      0x00\n      swap1\n      sload\n      swap1\n      0x0100\n      exp\n      swap1\n      div\n      0xffffffffffffffffffffffffffffffffffffffff\n      and\n        /* \"contracts/src/file.sol\":4450:4479  file.info.owner == msg.sender */\n      0xffffffffffffffffffffffffffffffffffffffff\n      and\n      eq\n        /* \"contracts/src/file.sol\":4442:4507  require(file.info.owner == msg.sender, \"Caller is not the owner\") */\n      tag_245\n      jumpi\n      mload(0x40)\n      0x08c379a000000000000000000000000000000000000000000000000000000000\n      dup2\n      mstore\n      0x04\n      add\n      tag_246\n      swap1\n      tag_148\n      jump\t// in\n    tag_246:\n      mload(0x40)\n      dup1\n      swap2\n      sub\n      swap1\n      revert\n    tag_245:\n        /* \"contracts/src/file.sol\":4545:4562  FileStatus.Active */\n      0x01\n        /* \"contracts/src/file.sol\":4525:4562  file.info.status == FileStatus.Active */\n      0x03\n      dup2\n      gt\n      iszero\n      tag_247\n      jumpi\n      tag_248\n      tag_107\n      jump\t// in\n    tag_248:\n    tag_247:\n        /* \"contracts/src/file.sol\":4525:4529  file */\n      dup2\n        /* \"contracts/src/file.sol\":4525:4534  file.info */\n      0x00\n      add\n        /* \"contracts/src/file.sol\":4525:4541  file.info.status */\n      0x05\n      add\n      0x00\n      swap1\n      sload\n      swap1\n      0x0100\n      exp\n      swap1\n      div\n      0xff\n      and\n        /* \"contracts/src/file.sol\":4525:4562  file.info.status == FileStatus.Active */\n      0x03\n      dup2\n      gt\n      iszero\n      tag_249\n      jumpi\n      tag_250\n      tag_107\n      jump\t// in\n    tag_250:\n    tag_249:\n      eq\n        /* \"contracts/src/file.sol\":4517:4585  require(file.info.status == FileStatus.Active, \"File is not active\") */\n      tag_251\n      jumpi\n      mload(0x40)\n      0x08c379a000000000000000000000000000000000000000000000000000000000\n      dup2\n      mstore\n      0x04\n      add\n      tag_252\n      swap1\n      tag_253\n      jump\t// in\n    tag_252:\n      mload(0x40)\n      dup1\n      swap2\n      sub\n      swap1\n      revert\n    tag_251:\n        /* \"contracts/src/file.sol\":4622:4626  file */\n      dup1\n        /* \"contracts/src/file.sol\":4622:4631  file.info */\n      0x00\n      add\n        /* \"contracts/src/file.sol\":4622:4642  file.info.expireTime */\n      0x02\n      add\n      0x10\n      swap1\n      sload\n      swap1\n      0x0100\n      exp\n      swap1\n      div\n      0xffffffffffffffff\n      and\n        /* \"contracts/src/file.sol\":4603:4642  block.timestamp <= file.info.expireTime */\n      0xffffffffffffffff\n      and\n        /* \"contracts/src/file.sol\":4603:4618  block.timestamp */\n      timestamp\n        /* \"contracts/src/file.sol\":4603:4642  block.timestamp <= file.info.expireTime */\n      gt\n      iszero\n        /* \"contracts/src/file.sol\":4595:4663  require(block.timestamp <= file.info.expireTime, \"File has expired\") */\n      tag_254\n      jumpi\n      mload(0x40)\n      0x08c379a000000000000000000000000000000000000000000000000000000000\n      dup2\n      mstore\n      0x04\n      add\n      tag_255\n      swap1\n      tag_256\n      jump\t// in\n    tag_255:\n      mload(0x40)\n      dup1\n      swap2\n      sub\n      swap1\n      revert\n    tag_254:\n        /* \"contracts/src/file.sol\":4693:4712  FileStatus.Deactive */\n      0x02\n        /* \"contracts/src/file.sol\":4674:4678  file */\n      dup2\n        /* \"contracts/src/file.sol\":4674:4683  file.info */\n      0x00\n      add\n        /* \"contracts/src/file.sol\":4674:4690  file.info.status */\n      0x05\n      add\n      0x00\n        /* \"contracts/src/file.sol\":4674:4712  file.info.status = FileStatus.Deactive */\n      0x0100\n      exp\n      dup2\n      sload\n      dup2\n      0xff\n      mul\n      not\n      and\n      swap1\n      dup4\n      0x03\n      dup2\n      gt\n      iszero\n      tag_257\n      jumpi\n      tag_258\n      tag_107\n      jump\t// in\n    tag_258:\n    tag_257:\n      mul\n      or\n      swap1\n      sstore\n      pop\n        /* \"contracts/src/file.sol\":4738:4745  fileKey */\n      dup2\n        /* \"contracts/src/file.sol\":4727:4746  FileLocked(fileKey) */\n      0x45987cd84c3c0ec7c3b91dde29affe01363c3777aec1247553883b2431747330\n      mload(0x40)\n      mload(0x40)\n      dup1\n      swap2\n      sub\n      swap1\n      log2\n        /* \"contracts/src/file.sol\":4375:4753  {... */\n      pop\n        /* \"contracts/src/file.sol\":4331:4753  function lockFile(bytes32 fileKey) external {... */\n      pop\n      jump\t// out\n        /* \"contracts/src/file.sol\":812:904  function setService(address _service) external onlyOwner {... */\n    tag_65:\n        /* \"contracts/src/file.sol\":578:583  owner */\n      0x03\n      0x00\n      swap1\n      sload\n      swap1\n      0x0100\n      exp\n      swap1\n      div\n      0xffffffffffffffffffffffffffffffffffffffff\n      and\n        /* \"contracts/src/file.sol\":564:583  msg.sender == owner */\n      0xffffffffffffffffffffffffffffffffffffffff\n      and\n        /* \"contracts/src/file.sol\":564:574  msg.sender */\n      caller\n        /* \"contracts/src/file.sol\":564:583  msg.sender == owner */\n      0xffffffffffffffffffffffffffffffffffffffff\n      and\n      eq\n        /* \"contracts/src/file.sol\":556:611  require(msg.sender == owner, \"Caller is not the owner\") */\n      tag_260\n      jumpi\n      mload(0x40)\n      0x08c379a000000000000000000000000000000000000000000000000000000000\n      dup2\n      mstore\n      0x04\n      add\n      tag_261\n      swap1\n      tag_148\n      jump\t// in\n    tag_261:\n      mload(0x40)\n      dup1\n      swap2\n      sub\n      swap1\n      revert\n    tag_260:\n        /* \"contracts/src/file.sol\":889:897  _service */\n      dup1\n        /* \"contracts/src/file.sol\":879:886  service */\n      0x02\n      0x00\n        /* \"contracts/src/file.sol\":879:897  service = _service */\n      0x0100\n      exp\n      dup2\n      sload\n      dup2\n      0xffffffffffffffffffffffffffffffffffffffff\n      mul\n      not\n      and\n      swap1\n      dup4\n      0xffffffffffffffffffffffffffffffffffffffff\n      and\n      mul\n      or\n      swap1\n      sstore\n      pop\n        /* \"contracts/src/file.sol\":812:904  function setService(address _service) external onlyOwner {... */\n      pop\n      jump\t// out\n        /* \"contracts/src/file.sol\":362:412  mapping(bytes32 => FileInfo) public mKeyToFileInfo */\n    tag_68:\n      mstore(0x20, 0x00)\n      dup1\n      0x00\n      mstore\n      keccak256(0x00, 0x40)\n      0x00\n      swap2\n      pop\n      swap1\n      pop\n      dup1\n      0x00\n      add\n      mload(0x40)\n      dup1\n      0x0140\n      add\n      0x40\n      mstore\n      swap1\n      dup2\n      0x00\n      dup3\n      add\n      0x00\n      swap1\n      sload\n      swap1\n      0x0100\n      exp\n      swap1\n      div\n      0xffffffffffffffffffffffffffffffffffffffff\n      and\n      0xffffffffffffffffffffffffffffffffffffffff\n      and\n      0xffffffffffffffffffffffffffffffffffffffff\n      and\n      dup2\n      mstore\n      0x20\n      add\n      0x01\n      dup3\n      add\n      sload\n      dup2\n      mstore\n      0x20\n      add\n      0x02\n      dup3\n      add\n      0x00\n      swap1\n      sload\n      swap1\n      0x0100\n      exp\n      swap1\n      div\n      0xffffffffffffffff\n      and\n      0xffffffffffffffff\n      and\n      0xffffffffffffffff\n      and\n      dup2\n      mstore\n      0x20\n      add\n      0x02\n      dup3\n      add\n      0x08\n      swap1\n      sload\n      swap1\n      0x0100\n      exp\n      swap1\n      div\n      0xffffffffffffffff\n      and\n      0xffffffffffffffff\n      and\n      0xffffffffffffffff\n      and\n      dup2\n      mstore\n      0x20\n      add\n      0x02\n      dup3\n      add\n      0x10\n      swap1\n      sload\n      swap1\n      0x0100\n      exp\n      swap1\n      div\n      0xffffffffffffffff\n      and\n      0xffffffffffffffff\n      and\n      0xffffffffffffffff\n      and\n      dup2\n      mstore\n      0x20\n      add\n      0x03\n      dup3\n      add\n      dup1\n      sload\n      tag_263\n      swap1\n      tag_117\n      jump\t// in\n    tag_263:\n      dup1\n      0x1f\n      add\n      0x20\n      dup1\n      swap2\n      div\n      mul\n      0x20\n      add\n      mload(0x40)\n      swap1\n      dup2\n      add\n      0x40\n      mstore\n      dup1\n      swap3\n      swap2\n      swap1\n      dup2\n      dup2\n      mstore\n      0x20\n      add\n      dup3\n      dup1\n      sload\n      tag_264\n      swap1\n      tag_117\n      jump\t// in\n    tag_264:\n      dup1\n      iszero\n      tag_265\n      jumpi\n      dup1\n      0x1f\n      lt\n      tag_266\n      jumpi\n      0x0100\n      dup1\n      dup4\n      sload\n      div\n      mul\n      dup4\n      mstore\n      swap2\n      0x20\n      add\n      swap2\n      jump(tag_265)\n    tag_266:\n      dup3\n      add\n      swap2\n      swap1\n      0x00\n      mstore\n      keccak256(0x00, 0x20)\n      swap1\n    tag_267:\n      dup2\n      sload\n      dup2\n      mstore\n      swap1\n      0x01\n      add\n      swap1\n      0x20\n      add\n      dup1\n      dup4\n      gt\n      tag_267\n      jumpi\n      dup3\n      swap1\n      sub\n      0x1f\n      and\n      dup3\n      add\n      swap2\n    tag_265:\n      pop\n      pop\n      pop\n      pop\n      pop\n      dup2\n      mstore\n      0x20\n      add\n      0x04\n      dup3\n      add\n      dup1\n      sload\n      tag_268\n      swap1\n      tag_117\n      jump\t// in\n    tag_268:\n      dup1\n      0x1f\n      add\n      0x20\n      dup1\n      swap2\n      div\n      mul\n      0x20\n      add\n      mload(0x40)\n      swap1\n      dup2\n      add\n      0x40\n      mstore\n      dup1\n      swap3\n      swap2\n      swap1\n      dup2\n      dup2\n      mstore\n      0x20\n      add\n      dup3\n      dup1\n      sload\n      tag_269\n      swap1\n      tag_117\n      jump\t// in\n    tag_269:\n      dup1\n      iszero\n      tag_270\n      jumpi\n      dup1\n      0x1f\n      lt\n      tag_271\n      jumpi\n      0x0100\n      dup1\n      dup4\n      sload\n      div\n      mul\n      dup4\n      mstore\n      swap2\n      0x20\n      add\n      swap2\n      jump(tag_270)\n    tag_271:\n      dup3\n      add\n      swap2\n      swap1\n      0x00\n      mstore\n      keccak256(0x00, 0x20)\n      swap1\n    tag_272:\n      dup2\n      sload\n      dup2\n      mstore\n      swap1\n      0x01\n      add\n      swap1\n      0x20\n      add\n      dup1\n      dup4\n      gt\n      tag_272\n      jumpi\n      dup3\n      swap1\n      sub\n      0x1f\n      and\n      dup3\n      add\n      swap2\n    tag_270:\n      pop\n      pop\n      pop\n      pop\n      pop\n      dup2\n      mstore\n      0x20\n      add\n      0x05\n      dup3\n      add\n      0x00\n      swap1\n      sload\n      swap1\n      0x0100\n      exp\n      swap1\n      div\n      0xff\n      and\n      0x03\n      dup2\n      gt\n      iszero\n      tag_273\n      jumpi\n      tag_274\n      tag_107\n      jump\t// in\n    tag_274:\n    tag_273:\n      0x03\n      dup2\n      gt\n      iszero\n      tag_275\n      jumpi\n      tag_276\n      tag_107\n      jump\t// in\n    tag_276:\n    tag_275:\n      dup2\n      mstore\n      0x20\n      add\n      0x06\n      dup3\n      add\n      dup1\n      sload\n      tag_277\n      swap1\n      tag_117\n      jump\t// in\n    tag_277:\n      dup1\n      0x1f\n      add\n      0x20\n      dup1\n      swap2\n      div\n      mul\n      0x20\n      add\n      mload(0x40)\n      swap1\n      dup2\n      add\n      0x40\n      mstore\n      dup1\n      swap3\n      swap2\n      swap1\n      dup2\n      dup2\n      mstore\n      0x20\n      add\n      dup3\n      dup1\n      sload\n      tag_278\n      swap1\n      tag_117\n      jump\t// in\n    tag_278:\n      dup1\n      iszero\n      tag_279\n      jumpi\n      dup1\n      0x1f\n      lt\n      tag_280\n      jumpi\n      0x0100\n      dup1\n      dup4\n      sload\n      div\n      mul\n      dup4\n      mstore\n      swap2\n      0x20\n      add\n      swap2\n      jump(tag_279)\n    tag_280:\n      dup3\n      add\n      swap2\n      swap1\n      0x00\n      mstore\n      keccak256(0x00, 0x20)\n      swap1\n    tag_281:\n      dup2\n      sload\n      dup2\n      mstore\n      swap1\n      0x01\n      add\n      swap1\n      0x20\n      add\n      dup1\n      dup4\n      gt\n      tag_281\n      jumpi\n      dup3\n      swap1\n      sub\n      0x1f\n      and\n      dup3\n      add\n      swap2\n    tag_279:\n      pop\n      pop\n      pop\n      pop\n      pop\n      dup2\n      mstore\n      0x20\n      add\n      0x07\n      dup3\n      add\n      dup1\n      sload\n      tag_282\n      swap1\n      tag_117\n      jump\t// in\n    tag_282:\n      dup1\n      0x1f\n      add\n      0x20\n      dup1\n      swap2\n      div\n      mul\n      0x20\n      add\n      mload(0x40)\n      swap1\n      dup2\n      add\n      0x40\n      mstore\n      dup1\n      swap3\n      swap2\n      swap1\n      dup2\n      dup2\n      mstore\n      0x20\n      add\n      dup3\n      dup1\n      sload\n      tag_283\n      swap1\n      tag_117\n      jump\t// in\n    tag_283:\n      dup1\n      iszero\n      tag_284\n      jumpi\n      dup1\n      0x1f\n      lt\n      tag_285\n      jumpi\n      0x0100\n      dup1\n      dup4\n      sload\n      div\n      mul\n      dup4\n      mstore\n      swap2\n      0x20\n      add\n      swap2\n      jump(tag_284)\n    tag_285:\n      dup3\n      add\n      swap2\n      swap1\n      0x00\n      mstore\n      keccak256(0x00, 0x20)\n      swap1\n    tag_286:\n      dup2\n      sload\n      dup2\n      mstore\n      swap1\n      0x01\n      add\n      swap1\n      0x20\n      add\n      dup1\n      dup4\n      gt\n      tag_286\n      jumpi\n      dup3\n      swap1\n      sub\n      0x1f\n      and\n      dup3\n      add\n      swap2\n    tag_284:\n      pop\n      pop\n      pop\n      pop\n      pop\n      dup2\n      mstore\n      pop\n      pop\n      swap1\n      dup1\n      0x08\n      add\n      mload(0x40)\n      dup1\n      0x60\n      add\n      0x40\n      mstore\n      swap1\n      dup2\n      0x00\n      dup3\n      add\n      sload\n      dup2\n      mstore\n      0x20\n      add\n      0x01\n      dup3\n      add\n      0x00\n      swap1\n      sload\n      swap1\n      0x0100\n      exp\n      swap1\n      div\n      0xffffffffffffffff\n      and\n      0xffffffffffffffff\n      and\n      0xffffffffffffffff\n      and\n      dup2\n      mstore\n      0x20\n      add\n      0x01\n      dup3\n      add\n      0x08\n      swap1\n      sload\n      swap1\n      0x0100\n      exp\n      swap1\n      div\n      0xffffffffffffffff\n      and\n      0xffffffffffffffff\n      and\n      0xffffffffffffffff\n      and\n      dup2\n      mstore\n      pop\n      pop\n      swap1\n      pop\n      dup3\n      jump\t// out\n        /* \"contracts/src/file.sol\":1202:2369  function pushFileInfo(Info memory info) public returns (bytes32 fileKey) {... */\n    tag_74:\n        /* \"contracts/src/file.sol\":1258:1273  bytes32 fileKey */\n      0x00\n        /* \"contracts/src/file.sol\":1329:1335  1 days */\n      0x015180\n        /* \"contracts/src/file.sol\":1311:1326  block.timestamp */\n      timestamp\n        /* \"contracts/src/file.sol\":1311:1335  block.timestamp + 1 days */\n      tag_288\n      swap2\n      swap1\n      tag_150\n      jump\t// in\n    tag_288:\n        /* \"contracts/src/file.sol\":1293:1297  info */\n      dup3\n        /* \"contracts/src/file.sol\":1293:1308  info.expireTime */\n      0x80\n      add\n      mload\n        /* \"contracts/src/file.sol\":1293:1335  info.expireTime > block.timestamp + 1 days */\n      0xffffffffffffffff\n      and\n      gt\n        /* \"contracts/src/file.sol\":1285:1388  require(info.expireTime > block.timestamp + 1 days, \"Expire time must be at least 1 day in the future\") */\n      tag_289\n      jumpi\n      mload(0x40)\n      0x08c379a000000000000000000000000000000000000000000000000000000000\n      dup2\n      mstore\n      0x04\n      add\n      tag_290\n      swap1\n      tag_291\n      jump\t// in\n    tag_290:\n      mload(0x40)\n      dup1\n      swap2\n      sub\n      swap1\n      revert\n    tag_289:\n        /* \"contracts/src/file.sol\":1448:1452  info */\n      dup2\n        /* \"contracts/src/file.sol\":1448:1463  info.contentLen */\n      0x40\n      add\n      mload\n        /* \"contracts/src/file.sol\":1465:1469  info */\n      dup3\n        /* \"contracts/src/file.sol\":1465:1480  info.expireTime */\n      0x80\n      add\n      mload\n        /* \"contracts/src/file.sol\":1482:1486  info */\n      dup4\n        /* \"contracts/src/file.sol\":1482:1491  info.hash */\n      0x20\n      add\n      mload\n        /* \"contracts/src/file.sol\":1493:1497  info */\n      dup5\n        /* \"contracts/src/file.sol\":1493:1502  info.name */\n      0xa0\n      add\n      mload\n        /* \"contracts/src/file.sol\":1504:1508  info */\n      dup6\n        /* \"contracts/src/file.sol\":1504:1512  info.ext */\n      0xc0\n      add\n      mload\n        /* \"contracts/src/file.sol\":1514:1529  block.timestamp */\n      timestamp\n        /* \"contracts/src/file.sol\":1431:1530  abi.encodePacked(info.contentLen, info.expireTime, info.hash, info.name, info.ext, block.timestamp) */\n      add(0x20, mload(0x40))\n      tag_292\n      swap7\n      swap6\n      swap5\n      swap4\n      swap3\n      swap2\n      swap1\n      tag_293\n      jump\t// in\n    tag_292:\n      mload(0x40)\n      0x20\n      dup2\n      dup4\n      sub\n      sub\n      dup2\n      mstore\n      swap1\n      0x40\n      mstore\n        /* \"contracts/src/file.sol\":1408:1540  keccak256(... */\n      dup1\n      mload\n      swap1\n      0x20\n      add\n      keccak256\n        /* \"contracts/src/file.sol\":1398:1540  fileKey = keccak256(... */\n      swap1\n      pop\n        /* \"contracts/src/file.sol\":1578:1585  fileKey */\n      dup1\n        /* \"contracts/src/file.sol\":1550:1564  mNameToFileKey */\n      0x01\n        /* \"contracts/src/file.sol\":1565:1569  info */\n      dup4\n        /* \"contracts/src/file.sol\":1565:1574  info.name */\n      0xa0\n      add\n      mload\n        /* \"contracts/src/file.sol\":1550:1575  mNameToFileKey[info.name] */\n      mload(0x40)\n      tag_294\n      swap2\n      swap1\n      tag_295\n      jump\t// in\n    tag_294:\n      swap1\n      dup2\n      mstore\n      0x20\n      add\n      mload(0x40)\n      dup1\n      swap2\n      sub\n      swap1\n      keccak256\n        /* \"contracts/src/file.sol\":1550:1585  mNameToFileKey[info.name] = fileKey */\n      dup2\n      swap1\n      sstore\n      pop\n        /* \"contracts/src/file.sol\":1640:1641  0 */\n      0x00\n        /* \"contracts/src/file.sol\":1603:1641  mKeyToFileInfo[fileKey].info.hash == 0 */\n      dup1\n      shl\n        /* \"contracts/src/file.sol\":1603:1617  mKeyToFileInfo */\n      0x00\n        /* \"contracts/src/file.sol\":1603:1626  mKeyToFileInfo[fileKey] */\n      dup1\n        /* \"contracts/src/file.sol\":1618:1625  fileKey */\n      dup4\n        /* \"contracts/src/file.sol\":1603:1626  mKeyToFileInfo[fileKey] */\n      dup2\n      mstore\n      0x20\n      add\n      swap1\n      dup2\n      mstore\n      0x20\n      add\n      0x00\n      keccak256\n        /* \"contracts/src/file.sol\":1603:1631  mKeyToFileInfo[fileKey].info */\n      0x00\n      add\n        /* \"contracts/src/file.sol\":1603:1636  mKeyToFileInfo[fileKey].info.hash */\n      0x01\n      add\n      sload\n        /* \"contracts/src/file.sol\":1603:1641  mKeyToFileInfo[fileKey].info.hash == 0 */\n      eq\n        /* \"contracts/src/file.sol\":1595:1665  require(mKeyToFileInfo[fileKey].info.hash == 0, \"File already exists\") */\n      tag_296\n      jumpi\n      mload(0x40)\n      0x08c379a000000000000000000000000000000000000000000000000000000000\n      dup2\n      mstore\n      0x04\n      add\n      tag_297\n      swap1\n      tag_298\n      jump\t// in\n    tag_297:\n      mload(0x40)\n      dup1\n      swap2\n      sub\n      swap1\n      revert\n    tag_296:\n        /* \"contracts/src/file.sol\":1707:2103  Info({... */\n      mload(0x40)\n      dup1\n      0x0140\n      add\n      0x40\n      mstore\n      dup1\n        /* \"contracts/src/file.sol\":1733:1743  msg.sender */\n      caller\n        /* \"contracts/src/file.sol\":1707:2103  Info({... */\n      0xffffffffffffffffffffffffffffffffffffffff\n      and\n      dup2\n      mstore\n      0x20\n      add\n        /* \"contracts/src/file.sol\":1763:1767  info */\n      dup4\n        /* \"contracts/src/file.sol\":1763:1772  info.hash */\n      0x20\n      add\n      mload\n        /* \"contracts/src/file.sol\":1707:2103  Info({... */\n      dup2\n      mstore\n      0x20\n      add\n        /* \"contracts/src/file.sol\":1798:1802  info */\n      dup4\n        /* \"contracts/src/file.sol\":1798:1813  info.contentLen */\n      0x40\n      add\n      mload\n        /* \"contracts/src/file.sol\":1707:2103  Info({... */\n      0xffffffffffffffff\n      and\n      dup2\n      mstore\n      0x20\n      add\n        /* \"contracts/src/file.sol\":1840:1844  info */\n      dup4\n        /* \"contracts/src/file.sol\":1840:1856  info.totalChunks */\n      0x60\n      add\n      mload\n        /* \"contracts/src/file.sol\":1707:2103  Info({... */\n      0xffffffffffffffff\n      and\n      dup2\n      mstore\n      0x20\n      add\n        /* \"contracts/src/file.sol\":1882:1886  info */\n      dup4\n        /* \"contracts/src/file.sol\":1882:1897  info.expireTime */\n      0x80\n      add\n      mload\n        /* \"contracts/src/file.sol\":1707:2103  Info({... */\n      0xffffffffffffffff\n      and\n      dup2\n      mstore\n      0x20\n      add\n        /* \"contracts/src/file.sol\":1917:1921  info */\n      dup4\n        /* \"contracts/src/file.sol\":1917:1926  info.name */\n      0xa0\n      add\n      mload\n        /* \"contracts/src/file.sol\":1707:2103  Info({... */\n      dup2\n      mstore\n      0x20\n      add\n        /* \"contracts/src/file.sol\":1945:1949  info */\n      dup4\n        /* \"contracts/src/file.sol\":1945:1953  info.ext */\n      0xc0\n      add\n      mload\n        /* \"contracts/src/file.sol\":1707:2103  Info({... */\n      dup2\n      mstore\n      0x20\n      add\n        /* \"contracts/src/file.sol\":1975:1996  FileStatus.Processing */\n      0x00\n        /* \"contracts/src/file.sol\":1707:2103  Info({... */\n      0x03\n      dup2\n      gt\n      iszero\n      tag_299\n      jumpi\n      tag_300\n      tag_107\n      jump\t// in\n    tag_300:\n    tag_299:\n      dup2\n      mstore\n      0x20\n      add\n        /* \"contracts/src/file.sol\":2030:2034  info */\n      dup4\n        /* \"contracts/src/file.sol\":2030:2053  info.contentDisposition */\n      0x0100\n      add\n      mload\n        /* \"contracts/src/file.sol\":1707:2103  Info({... */\n      dup2\n      mstore\n      0x20\n      add\n        /* \"contracts/src/file.sol\":2078:2082  info */\n      dup4\n        /* \"contracts/src/file.sol\":2078:2092  info.contentID */\n      0x0120\n      add\n      mload\n        /* \"contracts/src/file.sol\":1707:2103  Info({... */\n      dup2\n      mstore\n      pop\n        /* \"contracts/src/file.sol\":1676:1690  mKeyToFileInfo */\n      0x00\n        /* \"contracts/src/file.sol\":1676:1699  mKeyToFileInfo[fileKey] */\n      dup1\n        /* \"contracts/src/file.sol\":1691:1698  fileKey */\n      dup4\n        /* \"contracts/src/file.sol\":1676:1699  mKeyToFileInfo[fileKey] */\n      dup2\n      mstore\n      0x20\n      add\n      swap1\n      dup2\n      mstore\n      0x20\n      add\n      0x00\n      keccak256\n        /* \"contracts/src/file.sol\":1676:1704  mKeyToFileInfo[fileKey].info */\n      0x00\n      add\n        /* \"contracts/src/file.sol\":1676:2103  mKeyToFileInfo[fileKey].info = Info({... */\n      0x00\n      dup3\n      add\n      mload\n      dup2\n      0x00\n      add\n      exp(0x0100, 0x00)\n      dup2\n      sload\n      dup2\n      0xffffffffffffffffffffffffffffffffffffffff\n      mul\n      not\n      and\n      swap1\n      dup4\n      0xffffffffffffffffffffffffffffffffffffffff\n      and\n      mul\n      or\n      swap1\n      sstore\n      pop\n      0x20\n      dup3\n      add\n      mload\n      dup2\n      0x01\n      add\n      sstore\n      0x40\n      dup3\n      add\n      mload\n      dup2\n      0x02\n      add\n      exp(0x0100, 0x00)\n      dup2\n      sload\n      dup2\n      0xffffffffffffffff\n      mul\n      not\n      and\n      swap1\n      dup4\n      0xffffffffffffffff\n      and\n      mul\n      or\n      swap1\n      sstore\n      pop\n      0x60\n      dup3\n      add\n      mload\n      dup2\n      0x02\n      add\n      exp(0x0100, 0x08)\n      dup2\n      sload\n      dup2\n      0xffffffffffffffff\n      mul\n      not\n      and\n      swap1\n      dup4\n      0xffffffffffffffff\n      and\n      mul\n      or\n      swap1\n      sstore\n      pop\n      0x80\n      dup3\n      add\n      mload\n      dup2\n      0x02\n      add\n      exp(0x0100, 0x10)\n      dup2\n      sload\n      dup2\n      0xffffffffffffffff\n      mul\n      not\n      and\n      swap1\n      dup4\n      0xffffffffffffffff\n      and\n      mul\n      or\n      swap1\n      sstore\n      pop\n      0xa0\n      dup3\n      add\n      mload\n      dup2\n      0x03\n      add\n      swap1\n      dup2\n      tag_301\n      swap2\n      swap1\n      tag_302\n      jump\t// in\n    tag_301:\n      pop\n      0xc0\n      dup3\n      add\n      mload\n      dup2\n      0x04\n      add\n      swap1\n      dup2\n      tag_303\n      swap2\n      swap1\n      tag_302\n      jump\t// in\n    tag_303:\n      pop\n      0xe0\n      dup3\n      add\n      mload\n      dup2\n      0x05\n      add\n      exp(0x0100, 0x00)\n      dup2\n      sload\n      dup2\n      0xff\n      mul\n      not\n      and\n      swap1\n      dup4\n      0x03\n      dup2\n      gt\n      iszero\n      tag_304\n      jumpi\n      tag_305\n      tag_107\n      jump\t// in\n    tag_305:\n    tag_304:\n      mul\n      or\n      swap1\n      sstore\n      pop\n      0x0100\n      dup3\n      add\n      mload\n      dup2\n      0x06\n      add\n      swap1\n      dup2\n      tag_306\n      swap2\n      swap1\n      tag_302\n      jump\t// in\n    tag_306:\n      pop\n      0x0120\n      dup3\n      add\n      mload\n      dup2\n      0x07\n      add\n      swap1\n      dup2\n      tag_307\n      swap2\n      swap1\n      tag_302\n      jump\t// in\n    tag_307:\n      pop\n      swap1\n      pop\n      pop\n        /* \"contracts/src/file.sol\":2149:2276  FileProgress({... */\n      mload(0x40)\n      dup1\n      0x60\n      add\n      0x40\n      mstore\n      dup1\n        /* \"contracts/src/file.sol\":2199:2200  0 */\n      0x00\n        /* \"contracts/src/file.sol\":2191:2201  bytes32(0) */\n      dup1\n      shl\n        /* \"contracts/src/file.sol\":2149:2276  FileProgress({... */\n      dup2\n      mstore\n      0x20\n      add\n        /* \"contracts/src/file.sol\":2232:2233  0 */\n      0x00\n        /* \"contracts/src/file.sol\":2149:2276  FileProgress({... */\n      0xffffffffffffffff\n      and\n      dup2\n      mstore\n      0x20\n      add\n        /* \"contracts/src/file.sol\":2264:2265  0 */\n      0x00\n        /* \"contracts/src/file.sol\":2149:2276  FileProgress({... */\n      0xffffffffffffffff\n      and\n      dup2\n      mstore\n      pop\n        /* \"contracts/src/file.sol\":2114:2128  mKeyToFileInfo */\n      0x00\n        /* \"contracts/src/file.sol\":2114:2137  mKeyToFileInfo[fileKey] */\n      dup1\n        /* \"contracts/src/file.sol\":2129:2136  fileKey */\n      dup4\n        /* \"contracts/src/file.sol\":2114:2137  mKeyToFileInfo[fileKey] */\n      dup2\n      mstore\n      0x20\n      add\n      swap1\n      dup2\n      mstore\n      0x20\n      add\n      0x00\n      keccak256\n        /* \"contracts/src/file.sol\":2114:2146  mKeyToFileInfo[fileKey].progress */\n      0x08\n      add\n        /* \"contracts/src/file.sol\":2114:2276  mKeyToFileInfo[fileKey].progress = FileProgress({... */\n      0x00\n      dup3\n      add\n      mload\n      dup2\n      0x00\n      add\n      sstore\n      0x20\n      dup3\n      add\n      mload\n      dup2\n      0x01\n      add\n      exp(0x0100, 0x00)\n      dup2\n      sload\n      dup2\n      0xffffffffffffffff\n      mul\n      not\n      and\n      swap1\n      dup4\n      0xffffffffffffffff\n      and\n      mul\n      or\n      swap1\n      sstore\n      pop\n      0x40\n      dup3\n      add\n      mload\n      dup2\n      0x01\n      add\n      exp(0x0100, 0x08)\n      dup2\n      sload\n      dup2\n      0xffffffffffffffff\n      mul\n      not\n      and\n      swap1\n      dup4\n      0xffffffffffffffff\n      and\n      mul\n      or\n      swap1\n      sstore\n      pop\n      swap1\n      pop\n      pop\n        /* \"contracts/src/file.sol\":2302:2309  fileKey */\n      dup1\n        /* \"contracts/src/file.sol\":2292:2338  FileAdded(fileKey, info.name, info.contentLen) */\n      0x7f2db28bb9cdbd41f93b3953994de4298cc665dda981f021c84fc9b4b367f11e\n        /* \"contracts/src/file.sol\":2311:2315  info */\n      dup4\n        /* \"contracts/src/file.sol\":2311:2320  info.name */\n      0xa0\n      add\n      mload\n        /* \"contracts/src/file.sol\":2322:2326  info */\n      dup5\n        /* \"contracts/src/file.sol\":2322:2337  info.contentLen */\n      0x40\n      add\n      mload\n        /* \"contracts/src/file.sol\":2292:2338  FileAdded(fileKey, info.name, info.contentLen) */\n      mload(0x40)\n      tag_308\n      swap3\n      swap2\n      swap1\n      tag_309\n      jump\t// in\n    tag_308:\n      mload(0x40)\n      dup1\n      swap2\n      sub\n      swap1\n      log2\n        /* \"contracts/src/file.sol\":1202:2369  function pushFileInfo(Info memory info) public returns (bytes32 fileKey) {... */\n      swap2\n      swap1\n      pop\n      jump\t// out\n        /* \"contracts/src/file.sol\":472:494  address public service */\n    tag_78:\n      0x02\n      0x00\n      swap1\n      sload\n      swap1\n      0x0100\n      exp\n      swap1\n      div\n      0xffffffffffffffffffffffffffffffffffffffff\n      and\n      dup2\n      jump\t// out\n        /* \"contracts/src/file.sol\":5845:6144  function getFilesInfo(bytes32[] memory fileKeys) external view returns(Info[] memory infos ){... */\n    tag_83:\n        /* \"contracts/src/file.sol\":5916:5935  Info[] memory infos */\n      0x60\n        /* \"contracts/src/file.sol\":5966:5974  fileKeys */\n      dup2\n        /* \"contracts/src/file.sol\":5966:5981  fileKeys.length */\n      mload\n        /* \"contracts/src/file.sol\":5955:5982  new Info[](fileKeys.length) */\n      0xffffffffffffffff\n      dup2\n      gt\n      iszero\n      tag_311\n      jumpi\n      tag_312\n      tag_202\n      jump\t// in\n    tag_312:\n    tag_311:\n      mload(0x40)\n      swap1\n      dup1\n      dup3\n      mstore\n      dup1\n      0x20\n      mul\n      0x20\n      add\n      dup3\n      add\n      0x40\n      mstore\n      dup1\n      iszero\n      tag_313\n      jumpi\n      dup2\n      0x20\n      add\n    tag_314:\n      tag_315\n      tag_114\n      jump\t// in\n    tag_315:\n      dup2\n      mstore\n      0x20\n      add\n      swap1\n      0x01\n      swap1\n      sub\n      swap1\n      dup2\n      tag_314\n      jumpi\n      swap1\n      pop\n    tag_313:\n      pop\n        /* \"contracts/src/file.sol\":5947:5982  infos = new Info[](fileKeys.length) */\n      swap1\n      pop\n        /* \"contracts/src/file.sol\":5996:6005  uint256 i */\n      0x00\n        /* \"contracts/src/file.sol\":5992:6138  for(uint256 i=0; i< fileKeys.length; i++){... */\n    tag_316:\n        /* \"contracts/src/file.sol\":6012:6020  fileKeys */\n      dup3\n        /* \"contracts/src/file.sol\":6012:6027  fileKeys.length */\n      mload\n        /* \"contracts/src/file.sol\":6009:6010  i */\n      dup2\n        /* \"contracts/src/file.sol\":6009:6027  i< fileKeys.length */\n      lt\n        /* \"contracts/src/file.sol\":5992:6138  for(uint256 i=0; i< fileKeys.length; i++){... */\n      iszero\n      tag_317\n      jumpi\n        /* \"contracts/src/file.sol\":6047:6063  Info memory info */\n      0x00\n        /* \"contracts/src/file.sol\":6066:6080  mKeyToFileInfo */\n      dup1\n        /* \"contracts/src/file.sol\":6066:6093  mKeyToFileInfo[fileKeys[i]] */\n      0x00\n        /* \"contracts/src/file.sol\":6081:6089  fileKeys */\n      dup6\n        /* \"contracts/src/file.sol\":6090:6091  i */\n      dup5\n        /* \"contracts/src/file.sol\":6081:6092  fileKeys[i] */\n      dup2\n      mload\n      dup2\n      lt\n      tag_319\n      jumpi\n      tag_320\n      tag_210\n      jump\t// in\n    tag_320:\n    tag_319:\n      0x20\n      mul\n      0x20\n      add\n      add\n      mload\n        /* \"contracts/src/file.sol\":6066:6093  mKeyToFileInfo[fileKeys[i]] */\n      dup2\n      mstore\n      0x20\n      add\n      swap1\n      dup2\n      mstore\n      0x20\n      add\n      0x00\n      keccak256\n        /* \"contracts/src/file.sol\":6066:6098  mKeyToFileInfo[fileKeys[i]].info */\n      0x00\n      add\n        /* \"contracts/src/file.sol\":6047:6098  Info memory info = mKeyToFileInfo[fileKeys[i]].info */\n      mload(0x40)\n      dup1\n      0x0140\n      add\n      0x40\n      mstore\n      swap1\n      dup2\n      0x00\n      dup3\n      add\n      0x00\n      swap1\n      sload\n      swap1\n      0x0100\n      exp\n      swap1\n      div\n      0xffffffffffffffffffffffffffffffffffffffff\n      and\n      0xffffffffffffffffffffffffffffffffffffffff\n      and\n      0xffffffffffffffffffffffffffffffffffffffff\n      and\n      dup2\n      mstore\n      0x20\n      add\n      0x01\n      dup3\n      add\n      sload\n      dup2\n      mstore\n      0x20\n      add\n      0x02\n      dup3\n      add\n      0x00\n      swap1\n      sload\n      swap1\n      0x0100\n      exp\n      swap1\n      div\n      0xffffffffffffffff\n      and\n      0xffffffffffffffff\n      and\n      0xffffffffffffffff\n      and\n      dup2\n      mstore\n      0x20\n      add\n      0x02\n      dup3\n      add\n      0x08\n      swap1\n      sload\n      swap1\n      0x0100\n      exp\n      swap1\n      div\n      0xffffffffffffffff\n      and\n      0xffffffffffffffff\n      and\n      0xffffffffffffffff\n      and\n      dup2\n      mstore\n      0x20\n      add\n      0x02\n      dup3\n      add\n      0x10\n      swap1\n      sload\n      swap1\n      0x0100\n      exp\n      swap1\n      div\n      0xffffffffffffffff\n      and\n      0xffffffffffffffff\n      and\n      0xffffffffffffffff\n      and\n      dup2\n      mstore\n      0x20\n      add\n      0x03\n      dup3\n      add\n      dup1\n      sload\n      tag_321\n      swap1\n      tag_117\n      jump\t// in\n    tag_321:\n      dup1\n      0x1f\n      add\n      0x20\n      dup1\n      swap2\n      div\n      mul\n      0x20\n      add\n      mload(0x40)\n      swap1\n      dup2\n      add\n      0x40\n      mstore\n      dup1\n      swap3\n      swap2\n      swap1\n      dup2\n      dup2\n      mstore\n      0x20\n      add\n      dup3\n      dup1\n      sload\n      tag_322\n      swap1\n      tag_117\n      jump\t// in\n    tag_322:\n      dup1\n      iszero\n      tag_323\n      jumpi\n      dup1\n      0x1f\n      lt\n      tag_324\n      jumpi\n      0x0100\n      dup1\n      dup4\n      sload\n      div\n      mul\n      dup4\n      mstore\n      swap2\n      0x20\n      add\n      swap2\n      jump(tag_323)\n    tag_324:\n      dup3\n      add\n      swap2\n      swap1\n      0x00\n      mstore\n      keccak256(0x00, 0x20)\n      swap1\n    tag_325:\n      dup2\n      sload\n      dup2\n      mstore\n      swap1\n      0x01\n      add\n      swap1\n      0x20\n      add\n      dup1\n      dup4\n      gt\n      tag_325\n      jumpi\n      dup3\n      swap1\n      sub\n      0x1f\n      and\n      dup3\n      add\n      swap2\n    tag_323:\n      pop\n      pop\n      pop\n      pop\n      pop\n      dup2\n      mstore\n      0x20\n      add\n      0x04\n      dup3\n      add\n      dup1\n      sload\n      tag_326\n      swap1\n      tag_117\n      jump\t// in\n    tag_326:\n      dup1\n      0x1f\n      add\n      0x20\n      dup1\n      swap2\n      div\n      mul\n      0x20\n      add\n      mload(0x40)\n      swap1\n      dup2\n      add\n      0x40\n      mstore\n      dup1\n      swap3\n      swap2\n      swap1\n      dup2\n      dup2\n      mstore\n      0x20\n      add\n      dup3\n      dup1\n      sload\n      tag_327\n      swap1\n      tag_117\n      jump\t// in\n    tag_327:\n      dup1\n      iszero\n      tag_328\n      jumpi\n      dup1\n      0x1f\n      lt\n      tag_329\n      jumpi\n      0x0100\n      dup1\n      dup4\n      sload\n      div\n      mul\n      dup4\n      mstore\n      swap2\n      0x20\n      add\n      swap2\n      jump(tag_328)\n    tag_329:\n      dup3\n      add\n      swap2\n      swap1\n      0x00\n      mstore\n      keccak256(0x00, 0x20)\n      swap1\n    tag_330:\n      dup2\n      sload\n      dup2\n      mstore\n      swap1\n      0x01\n      add\n      swap1\n      0x20\n      add\n      dup1\n      dup4\n      gt\n      tag_330\n      jumpi\n      dup3\n      swap1\n      sub\n      0x1f\n      and\n      dup3\n      add\n      swap2\n    tag_328:\n      pop\n      pop\n      pop\n      pop\n      pop\n      dup2\n      mstore\n      0x20\n      add\n      0x05\n      dup3\n      add\n      0x00\n      swap1\n      sload\n      swap1\n      0x0100\n      exp\n      swap1\n      div\n      0xff\n      and\n      0x03\n      dup2\n      gt\n      iszero\n      tag_331\n      jumpi\n      tag_332\n      tag_107\n      jump\t// in\n    tag_332:\n    tag_331:\n      0x03\n      dup2\n      gt\n      iszero\n      tag_333\n      jumpi\n      tag_334\n      tag_107\n      jump\t// in\n    tag_334:\n    tag_333:\n      dup2\n      mstore\n      0x20\n      add\n      0x06\n      dup3\n      add\n      dup1\n      sload\n      tag_335\n      swap1\n      tag_117\n      jump\t// in\n    tag_335:\n      dup1\n      0x1f\n      add\n      0x20\n      dup1\n      swap2\n      div\n      mul\n      0x20\n      add\n      mload(0x40)\n      swap1\n      dup2\n      add\n      0x40\n      mstore\n      dup1\n      swap3\n      swap2\n      swap1\n      dup2\n      dup2\n      mstore\n      0x20\n      add\n      dup3\n      dup1\n      sload\n      tag_336\n      swap1\n      tag_117\n      jump\t// in\n    tag_336:\n      dup1\n      iszero\n      tag_337\n      jumpi\n      dup1\n      0x1f\n      lt\n      tag_338\n      jumpi\n      0x0100\n      dup1\n      dup4\n      sload\n      div\n      mul\n      dup4\n      mstore\n      swap2\n      0x20\n      add\n      swap2\n      jump(tag_337)\n    tag_338:\n      dup3\n      add\n      swap2\n      swap1\n      0x00\n      mstore\n      keccak256(0x00, 0x20)\n      swap1\n    tag_339:\n      dup2\n      sload\n      dup2\n      mstore\n      swap1\n      0x01\n      add\n      swap1\n      0x20\n      add\n      dup1\n      dup4\n      gt\n      tag_339\n      jumpi\n      dup3\n      swap1\n      sub\n      0x1f\n      and\n      dup3\n      add\n      swap2\n    tag_337:\n      pop\n      pop\n      pop\n      pop\n      pop\n      dup2\n      mstore\n      0x20\n      add\n      0x07\n      dup3\n      add\n      dup1\n      sload\n      tag_340\n      swap1\n      tag_117\n      jump\t// in\n    tag_340:\n      dup1\n      0x1f\n      add\n      0x20\n      dup1\n      swap2\n      div\n      mul\n      0x20\n      add\n      mload(0x40)\n      swap1\n      dup2\n      add\n      0x40\n      mstore\n      dup1\n      swap3\n      swap2\n      swap1\n      dup2\n      dup2\n      mstore\n      0x20\n      add\n      dup3\n      dup1\n      sload\n      tag_341\n      swap1\n      tag_117\n      jump\t// in\n    tag_341:\n      dup1\n      iszero\n      tag_342\n      jumpi\n      dup1\n      0x1f\n      lt\n      tag_343\n      jumpi\n      0x0100\n      dup1\n      dup4\n      sload\n      div\n      mul\n      dup4\n      mstore\n      swap2\n      0x20\n      add\n      swap2\n      jump(tag_342)\n    tag_343:\n      dup3\n      add\n      swap2\n      swap1\n      0x00\n      mstore\n      keccak256(0x00, 0x20)\n      swap1\n    tag_344:\n      dup2\n      sload\n      dup2\n      mstore\n      swap1\n      0x01\n      add\n      swap1\n      0x20\n      add\n      dup1\n      dup4\n      gt\n      tag_344\n      jumpi\n      dup3\n      swap1\n      sub\n      0x1f\n      and\n      dup3\n      add\n      swap2\n    tag_342:\n      pop\n      pop\n      pop\n      pop\n      pop\n      dup2\n      mstore\n      pop\n      pop\n      swap1\n      pop\n        /* \"contracts/src/file.sol\":6123:6127  info */\n      dup1\n        /* \"contracts/src/file.sol\":6112:6117  infos */\n      dup4\n        /* \"contracts/src/file.sol\":6118:6119  i */\n      dup4\n        /* \"contracts/src/file.sol\":6112:6120  infos[i] */\n      dup2\n      mload\n      dup2\n      lt\n      tag_345\n      jumpi\n      tag_346\n      tag_210\n      jump\t// in\n    tag_346:\n    tag_345:\n      0x20\n      mul\n      0x20\n      add\n      add\n        /* \"contracts/src/file.sol\":6112:6127  infos[i] = info */\n      dup2\n      swap1\n      mstore\n      pop\n        /* \"contracts/src/file.sol\":6033:6138  {... */\n      pop\n        /* \"contracts/src/file.sol\":6029:6032  i++ */\n      dup1\n      dup1\n      tag_347\n      swap1\n      tag_198\n      jump\t// in\n    tag_347:\n      swap2\n      pop\n      pop\n        /* \"contracts/src/file.sol\":5992:6138  for(uint256 i=0; i< fileKeys.length; i++){... */\n      jump(tag_316)\n    tag_317:\n      pop\n        /* \"contracts/src/file.sol\":5845:6144  function getFilesInfo(bytes32[] memory fileKeys) external view returns(Info[] memory infos ){... */\n      swap2\n      swap1\n      pop\n      jump\t// out\n        /* \"contracts/src/file.sol\":418:466  mapping(string => bytes32) public mNameToFileKey */\n    tag_89:\n      0x01\n      dup2\n      dup1\n      mload\n      0x20\n      dup2\n      add\n      dup3\n      add\n      dup1\n      mload\n      dup5\n      dup3\n      mstore\n      0x20\n      dup4\n      add\n      0x20\n      dup6\n      add\n      keccak256\n      dup2\n      dup4\n      mstore\n      dup1\n      swap6\n      pop\n      pop\n      pop\n      pop\n      pop\n      pop\n      0x00\n      swap2\n      pop\n      swap1\n      pop\n      sload\n      dup2\n      jump\t// out\n        /* \"contracts/src/file.sol\":2379:2676  function getFileKeyFromName(string[] memory names) view external returns(bytes32[] memory ){... */\n    tag_94:\n        /* \"contracts/src/file.sol\":2452:2468  bytes32[] memory */\n      0x60\n        /* \"contracts/src/file.sol\":2480:2505  bytes32[] memory filekeys */\n      0x00\n        /* \"contracts/src/file.sol\":2522:2527  names */\n      dup3\n        /* \"contracts/src/file.sol\":2522:2534  names.length */\n      mload\n        /* \"contracts/src/file.sol\":2508:2535  new bytes32[](names.length) */\n      0xffffffffffffffff\n      dup2\n      gt\n      iszero\n      tag_349\n      jumpi\n      tag_350\n      tag_202\n      jump\t// in\n    tag_350:\n    tag_349:\n      mload(0x40)\n      swap1\n      dup1\n      dup3\n      mstore\n      dup1\n      0x20\n      mul\n      0x20\n      add\n      dup3\n      add\n      0x40\n      mstore\n      dup1\n      iszero\n      tag_351\n      jumpi\n      dup2\n      0x20\n      add\n      0x20\n      dup3\n      mul\n      dup1\n      calldatasize\n      dup4\n      calldatacopy\n      dup1\n      dup3\n      add\n      swap2\n      pop\n      pop\n      swap1\n      pop\n    tag_351:\n      pop\n        /* \"contracts/src/file.sol\":2480:2535  bytes32[] memory filekeys = new bytes32[](names.length) */\n      swap1\n      pop\n        /* \"contracts/src/file.sol\":2550:2559  uint256 i */\n      0x00\n        /* \"contracts/src/file.sol\":2545:2645  for (uint256 i;i < names.length; i++){... */\n    tag_352:\n        /* \"contracts/src/file.sol\":2564:2569  names */\n      dup4\n        /* \"contracts/src/file.sol\":2564:2576  names.length */\n      mload\n        /* \"contracts/src/file.sol\":2560:2561  i */\n      dup2\n        /* \"contracts/src/file.sol\":2560:2576  i < names.length */\n      lt\n        /* \"contracts/src/file.sol\":2545:2645  for (uint256 i;i < names.length; i++){... */\n      iszero\n      tag_353\n      jumpi\n        /* \"contracts/src/file.sol\":2610:2624  mNameToFileKey */\n      0x01\n        /* \"contracts/src/file.sol\":2625:2630  names */\n      dup5\n        /* \"contracts/src/file.sol\":2631:2632  i */\n      dup3\n        /* \"contracts/src/file.sol\":2625:2633  names[i] */\n      dup2\n      mload\n      dup2\n      lt\n      tag_355\n      jumpi\n      tag_356\n      tag_210\n      jump\t// in\n    tag_356:\n    tag_355:\n      0x20\n      mul\n      0x20\n      add\n      add\n      mload\n        /* \"contracts/src/file.sol\":2610:2634  mNameToFileKey[names[i]] */\n      mload(0x40)\n      tag_357\n      swap2\n      swap1\n      tag_295\n      jump\t// in\n    tag_357:\n      swap1\n      dup2\n      mstore\n      0x20\n      add\n      mload(0x40)\n      dup1\n      swap2\n      sub\n      swap1\n      keccak256\n      sload\n        /* \"contracts/src/file.sol\":2596:2604  filekeys */\n      dup3\n        /* \"contracts/src/file.sol\":2605:2606  i */\n      dup3\n        /* \"contracts/src/file.sol\":2596:2607  filekeys[i] */\n      dup2\n      mload\n      dup2\n      lt\n      tag_358\n      jumpi\n      tag_359\n      tag_210\n      jump\t// in\n    tag_359:\n    tag_358:\n      0x20\n      mul\n      0x20\n      add\n      add\n        /* \"contracts/src/file.sol\":2596:2634  filekeys[i] = mNameToFileKey[names[i]] */\n      dup2\n      dup2\n      mstore\n      pop\n      pop\n        /* \"contracts/src/file.sol\":2578:2581  i++ */\n      dup1\n      dup1\n      tag_360\n      swap1\n      tag_198\n      jump\t// in\n    tag_360:\n      swap2\n      pop\n      pop\n        /* \"contracts/src/file.sol\":2545:2645  for (uint256 i;i < names.length; i++){... */\n      jump(tag_352)\n    tag_353:\n      pop\n        /* \"contracts/src/file.sol\":2661:2669  filekeys */\n      dup1\n        /* \"contracts/src/file.sol\":2654:2669  return filekeys */\n      swap2\n      pop\n      pop\n        /* \"contracts/src/file.sol\":2379:2676  function getFileKeyFromName(string[] memory names) view external returns(bytes32[] memory ){... */\n      swap2\n      swap1\n      pop\n      jump\t// out\n        /* \"contracts/src/file.sol\":6490:7497  function downloadFile(... */\n    tag_99:\n        /* \"contracts/src/file.sol\":6612:6626  bytes[] memory */\n      0x60\n        /* \"contracts/src/file.sol\":6638:6659  FileInfo storage file */\n      0x00\n        /* \"contracts/src/file.sol\":6662:6676  mKeyToFileInfo */\n      dup1\n        /* \"contracts/src/file.sol\":6662:6685  mKeyToFileInfo[fileKey] */\n      0x00\n        /* \"contracts/src/file.sol\":6677:6684  fileKey */\n      dup7\n        /* \"contracts/src/file.sol\":6662:6685  mKeyToFileInfo[fileKey] */\n      dup2\n      mstore\n      0x20\n      add\n      swap1\n      dup2\n      mstore\n      0x20\n      add\n      0x00\n      keccak256\n        /* \"contracts/src/file.sol\":6638:6685  FileInfo storage file = mKeyToFileInfo[fileKey] */\n      swap1\n      pop\n        /* \"contracts/src/file.sol\":6723:6740  FileStatus.Active */\n      0x01\n        /* \"contracts/src/file.sol\":6703:6740  file.info.status == FileStatus.Active */\n      0x03\n      dup2\n      gt\n      iszero\n      tag_362\n      jumpi\n      tag_363\n      tag_107\n      jump\t// in\n    tag_363:\n    tag_362:\n        /* \"contracts/src/file.sol\":6703:6707  file */\n      dup2\n        /* \"contracts/src/file.sol\":6703:6712  file.info */\n      0x00\n      add\n        /* \"contracts/src/file.sol\":6703:6719  file.info.status */\n      0x05\n      add\n      0x00\n      swap1\n      sload\n      swap1\n      0x0100\n      exp\n      swap1\n      div\n      0xff\n      and\n        /* \"contracts/src/file.sol\":6703:6740  file.info.status == FileStatus.Active */\n      0x03\n      dup2\n      gt\n      iszero\n      tag_364\n      jumpi\n      tag_365\n      tag_107\n      jump\t// in\n    tag_365:\n    tag_364:\n      eq\n        /* \"contracts/src/file.sol\":6695:6768  require(file.info.status == FileStatus.Active, \"File upload not actived\") */\n      tag_366\n      jumpi\n      mload(0x40)\n      0x08c379a000000000000000000000000000000000000000000000000000000000\n      dup2\n      mstore\n      0x04\n      add\n      tag_367\n      swap1\n      tag_368\n      jump\t// in\n    tag_367:\n      mload(0x40)\n      dup1\n      swap2\n      sub\n      swap1\n      revert\n    tag_366:\n        /* \"contracts/src/file.sol\":6809:6810  0 */\n      0x00\n        /* \"contracts/src/file.sol\":6786:6790  file */\n      dup2\n        /* \"contracts/src/file.sol\":6786:6795  file.info */\n      0x00\n      add\n        /* \"contracts/src/file.sol\":6786:6806  file.info.contentLen */\n      0x02\n      add\n      0x00\n      swap1\n      sload\n      swap1\n      0x0100\n      exp\n      swap1\n      div\n      0xffffffffffffffff\n      and\n        /* \"contracts/src/file.sol\":6786:6810  file.info.contentLen > 0 */\n      0xffffffffffffffff\n      and\n      gt\n        /* \"contracts/src/file.sol\":6778:6834  require(file.info.contentLen > 0, \"File does not exist\") */\n      tag_369\n      jumpi\n      mload(0x40)\n      0x08c379a000000000000000000000000000000000000000000000000000000000\n      dup2\n      mstore\n      0x04\n      add\n      tag_370\n      swap1\n      tag_371\n      jump\t// in\n    tag_370:\n      mload(0x40)\n      dup1\n      swap2\n      sub\n      swap1\n      revert\n    tag_369:\n        /* \"contracts/src/file.sol\":6860:6864  file */\n      dup1\n        /* \"contracts/src/file.sol\":6860:6869  file.info */\n      0x00\n      add\n        /* \"contracts/src/file.sol\":6860:6881  file.info.totalChunks */\n      0x02\n      add\n      0x08\n      swap1\n      sload\n      swap1\n      0x0100\n      exp\n      swap1\n      div\n      0xffffffffffffffff\n      and\n        /* \"contracts/src/file.sol\":6852:6881  start < file.info.totalChunks */\n      0xffffffffffffffff\n      and\n        /* \"contracts/src/file.sol\":6852:6857  start */\n      dup5\n        /* \"contracts/src/file.sol\":6852:6881  start < file.info.totalChunks */\n      lt\n        /* \"contracts/src/file.sol\":6844:6910  require(start < file.info.totalChunks, \"Start index out of range\") */\n      tag_372\n      jumpi\n      mload(0x40)\n      0x08c379a000000000000000000000000000000000000000000000000000000000\n      dup2\n      mstore\n      0x04\n      add\n      tag_373\n      swap1\n      tag_374\n      jump\t// in\n    tag_373:\n      mload(0x40)\n      dup1\n      swap2\n      sub\n      swap1\n      revert\n    tag_372:\n        /* \"contracts/src/file.sol\":6936:6937  0 */\n      0x00\n        /* \"contracts/src/file.sol\":6928:6933  limit */\n      dup4\n        /* \"contracts/src/file.sol\":6928:6937  limit > 0 */\n      gt\n        /* \"contracts/src/file.sol\":6920:6973  require(limit > 0, \"Limit must be greater than zero\") */\n      tag_375\n      jumpi\n      mload(0x40)\n      0x08c379a000000000000000000000000000000000000000000000000000000000\n      dup2\n      mstore\n      0x04\n      add\n      tag_376\n      swap1\n      tag_377\n      jump\t// in\n    tag_376:\n      mload(0x40)\n      dup1\n      swap2\n      sub\n      swap1\n      revert\n    tag_375:\n        /* \"contracts/src/file.sol\":7010:7014  file */\n      dup1\n        /* \"contracts/src/file.sol\":7010:7019  file.info */\n      0x00\n      add\n        /* \"contracts/src/file.sol\":7010:7030  file.info.expireTime */\n      0x02\n      add\n      0x10\n      swap1\n      sload\n      swap1\n      0x0100\n      exp\n      swap1\n      div\n      0xffffffffffffffff\n      and\n        /* \"contracts/src/file.sol\":6991:7030  block.timestamp <= file.info.expireTime */\n      0xffffffffffffffff\n      and\n        /* \"contracts/src/file.sol\":6991:7006  block.timestamp */\n      timestamp\n        /* \"contracts/src/file.sol\":6991:7030  block.timestamp <= file.info.expireTime */\n      gt\n      iszero\n        /* \"contracts/src/file.sol\":6983:7051  require(block.timestamp <= file.info.expireTime, \"File has expired\") */\n      tag_378\n      jumpi\n      mload(0x40)\n      0x08c379a000000000000000000000000000000000000000000000000000000000\n      dup2\n      mstore\n      0x04\n      add\n      tag_379\n      swap1\n      tag_256\n      jump\t// in\n    tag_379:\n      mload(0x40)\n      dup1\n      swap2\n      sub\n      swap1\n      revert\n    tag_378:\n        /* \"contracts/src/file.sol\":7128:7139  uint256 end */\n      0x00\n        /* \"contracts/src/file.sol\":7158:7162  file */\n      dup2\n        /* \"contracts/src/file.sol\":7158:7167  file.info */\n      0x00\n      add\n        /* \"contracts/src/file.sol\":7158:7179  file.info.totalChunks */\n      0x02\n      add\n      0x08\n      swap1\n      sload\n      swap1\n      0x0100\n      exp\n      swap1\n      div\n      0xffffffffffffffff\n      and\n        /* \"contracts/src/file.sol\":7142:7179  start + limit > file.info.totalChunks */\n      0xffffffffffffffff\n      and\n        /* \"contracts/src/file.sol\":7150:7155  limit */\n      dup5\n        /* \"contracts/src/file.sol\":7142:7147  start */\n      dup7\n        /* \"contracts/src/file.sol\":7142:7155  start + limit */\n      tag_380\n      swap2\n      swap1\n      tag_150\n      jump\t// in\n    tag_380:\n        /* \"contracts/src/file.sol\":7142:7179  start + limit > file.info.totalChunks */\n      gt\n        /* \"contracts/src/file.sol\":7142:7243  start + limit > file.info.totalChunks... */\n      tag_381\n      jumpi\n        /* \"contracts/src/file.sol\":7238:7243  limit */\n      dup4\n        /* \"contracts/src/file.sol\":7230:7235  start */\n      dup6\n        /* \"contracts/src/file.sol\":7230:7243  start + limit */\n      tag_382\n      swap2\n      swap1\n      tag_150\n      jump\t// in\n    tag_382:\n        /* \"contracts/src/file.sol\":7142:7243  start + limit > file.info.totalChunks... */\n      jump(tag_383)\n    tag_381:\n        /* \"contracts/src/file.sol\":7194:7198  file */\n      dup2\n        /* \"contracts/src/file.sol\":7194:7203  file.info */\n      0x00\n      add\n        /* \"contracts/src/file.sol\":7194:7215  file.info.totalChunks */\n      0x02\n      add\n      0x08\n      swap1\n      sload\n      swap1\n      0x0100\n      exp\n      swap1\n      div\n      0xffffffffffffffff\n      and\n        /* \"contracts/src/file.sol\":7142:7243  start + limit > file.info.totalChunks... */\n      0xffffffffffffffff\n      and\n    tag_383:\n        /* \"contracts/src/file.sol\":7128:7243  uint256 end = start + limit > file.info.totalChunks... */\n      swap1\n      pop\n        /* \"contracts/src/file.sol\":7302:7326  bytes[] memory chunkData */\n      0x00\n        /* \"contracts/src/file.sol\":7347:7352  start */\n      dup6\n        /* \"contracts/src/file.sol\":7341:7344  end */\n      dup3\n        /* \"contracts/src/file.sol\":7341:7352  end - start */\n      tag_384\n      swap2\n      swap1\n      tag_385\n      jump\t// in\n    tag_384:\n        /* \"contracts/src/file.sol\":7329:7353  new bytes[](end - start) */\n      0xffffffffffffffff\n      dup2\n      gt\n      iszero\n      tag_386\n      jumpi\n      tag_387\n      tag_202\n      jump\t// in\n    tag_387:\n    tag_386:\n      mload(0x40)\n      swap1\n      dup1\n      dup3\n      mstore\n      dup1\n      0x20\n      mul\n      0x20\n      add\n      dup3\n      add\n      0x40\n      mstore\n      dup1\n      iszero\n      tag_388\n      jumpi\n      dup2\n      0x20\n      add\n    tag_389:\n      0x60\n      dup2\n      mstore\n      0x20\n      add\n      swap1\n      0x01\n      swap1\n      sub\n      swap1\n      dup2\n      tag_389\n      jumpi\n      swap1\n      pop\n    tag_388:\n      pop\n        /* \"contracts/src/file.sol\":7302:7353  bytes[] memory chunkData = new bytes[](end - start) */\n      swap1\n      pop\n        /* \"contracts/src/file.sol\":7369:7378  uint256 i */\n      0x00\n        /* \"contracts/src/file.sol\":7381:7386  start */\n      dup7\n        /* \"contracts/src/file.sol\":7369:7386  uint256 i = start */\n      swap1\n      pop\n        /* \"contracts/src/file.sol\":7364:7464  for (uint256 i = start; i < end; i++) {... */\n    tag_390:\n        /* \"contracts/src/file.sol\":7392:7395  end */\n      dup3\n        /* \"contracts/src/file.sol\":7388:7389  i */\n      dup2\n        /* \"contracts/src/file.sol\":7388:7395  i < end */\n      lt\n        /* \"contracts/src/file.sol\":7364:7464  for (uint256 i = start; i < end; i++) {... */\n      iszero\n      tag_391\n      jumpi\n        /* \"contracts/src/file.sol\":7439:7443  file */\n      dup4\n        /* \"contracts/src/file.sol\":7439:7450  file.chunks */\n      0x0a\n      add\n        /* \"contracts/src/file.sol\":7439:7453  file.chunks[i] */\n      0x00\n        /* \"contracts/src/file.sol\":7451:7452  i */\n      dup3\n        /* \"contracts/src/file.sol\":7439:7453  file.chunks[i] */\n      dup2\n      mstore\n      0x20\n      add\n      swap1\n      dup2\n      mstore\n      0x20\n      add\n      0x00\n      keccak256\n        /* \"contracts/src/file.sol\":7416:7453  chunkData[i - start] = file.chunks[i] */\n      dup1\n      sload\n      tag_393\n      swap1\n      tag_117\n      jump\t// in\n    tag_393:\n      dup1\n      0x1f\n      add\n      0x20\n      dup1\n      swap2\n      div\n      mul\n      0x20\n      add\n      mload(0x40)\n      swap1\n      dup2\n      add\n      0x40\n      mstore\n      dup1\n      swap3\n      swap2\n      swap1\n      dup2\n      dup2\n      mstore\n      0x20\n      add\n      dup3\n      dup1\n      sload\n      tag_394\n      swap1\n      tag_117\n      jump\t// in\n    tag_394:\n      dup1\n      iszero\n      tag_395\n      jumpi\n      dup1\n      0x1f\n      lt\n      tag_396\n      jumpi\n      0x0100\n      dup1\n      dup4\n      sload\n      div\n      mul\n      dup4\n      mstore\n      swap2\n      0x20\n      add\n      swap2\n      jump(tag_395)\n    tag_396:\n      dup3\n      add\n      swap2\n      swap1\n      0x00\n      mstore\n      keccak256(0x00, 0x20)\n      swap1\n    tag_397:\n      dup2\n      sload\n      dup2\n      mstore\n      swap1\n      0x01\n      add\n      swap1\n      0x20\n      add\n      dup1\n      dup4\n      gt\n      tag_397\n      jumpi\n      dup3\n      swap1\n      sub\n      0x1f\n      and\n      dup3\n      add\n      swap2\n    tag_395:\n      pop\n      pop\n      pop\n      pop\n      pop\n        /* \"contracts/src/file.sol\":7416:7425  chunkData */\n      dup3\n        /* \"contracts/src/file.sol\":7430:7435  start */\n      dup9\n        /* \"contracts/src/file.sol\":7426:7427  i */\n      dup4\n        /* \"contracts/src/file.sol\":7426:7435  i - start */\n      tag_398\n      swap2\n      swap1\n      tag_385\n      jump\t// in\n    tag_398:\n        /* \"contracts/src/file.sol\":7416:7436  chunkData[i - start] */\n      dup2\n      mload\n      dup2\n      lt\n      tag_399\n      jumpi\n      tag_400\n      tag_210\n      jump\t// in\n    tag_400:\n    tag_399:\n      0x20\n      mul\n      0x20\n      add\n      add\n        /* \"contracts/src/file.sol\":7416:7453  chunkData[i - start] = file.chunks[i] */\n      dup2\n      swap1\n      mstore\n      pop\n        /* \"contracts/src/file.sol\":7397:7400  i++ */\n      dup1\n      dup1\n      tag_401\n      swap1\n      tag_198\n      jump\t// in\n    tag_401:\n      swap2\n      pop\n      pop\n        /* \"contracts/src/file.sol\":7364:7464  for (uint256 i = start; i < end; i++) {... */\n      jump(tag_390)\n    tag_391:\n      pop\n        /* \"contracts/src/file.sol\":7481:7490  chunkData */\n      dup1\n        /* \"contracts/src/file.sol\":7474:7490  return chunkData */\n      swap4\n      pop\n      pop\n      pop\n      pop\n        /* \"contracts/src/file.sol\":6490:7497  function downloadFile(... */\n      swap4\n      swap3\n      pop\n      pop\n      pop\n      jump\t// out\n    tag_103:\n      mload(0x40)\n      dup1\n      0x60\n      add\n      0x40\n      mstore\n      dup1\n      0x00\n      dup1\n      not\n      and\n      dup2\n      mstore\n      0x20\n      add\n      and(0xffffffffffffffff, 0x00)\n      dup2\n      mstore\n      0x20\n      add\n      and(0xffffffffffffffff, 0x00)\n      dup2\n      mstore\n      pop\n      swap1\n      jump\t// out\n    tag_114:\n      mload(0x40)\n      dup1\n      0x0140\n      add\n      0x40\n      mstore\n      dup1\n      and(0xffffffffffffffffffffffffffffffffffffffff, 0x00)\n      dup2\n      mstore\n      0x20\n      add\n      0x00\n      dup1\n      not\n      and\n      dup2\n      mstore\n      0x20\n      add\n      and(0xffffffffffffffff, 0x00)\n      dup2\n      mstore\n      0x20\n      add\n      and(0xffffffffffffffff, 0x00)\n      dup2\n      mstore\n      0x20\n      add\n      and(0xffffffffffffffff, 0x00)\n      dup2\n      mstore\n      0x20\n      add\n      0x60\n      dup2\n      mstore\n      0x20\n      add\n      0x60\n      dup2\n      mstore\n      0x20\n      add\n      0x00\n      0x03\n      dup2\n      gt\n      iszero\n      tag_402\n      jumpi\n      tag_403\n      tag_107\n      jump\t// in\n    tag_403:\n    tag_402:\n      dup2\n      mstore\n      0x20\n      add\n      0x60\n      dup2\n      mstore\n      0x20\n      add\n      0x60\n      dup2\n      mstore\n      pop\n      swap1\n      jump\t// out\n    tag_196:\n      pop\n      dup1\n      sload\n      tag_404\n      swap1\n      tag_117\n      jump\t// in\n    tag_404:\n      0x00\n      dup3\n      sstore\n      dup1\n      0x1f\n      lt\n      tag_406\n      jumpi\n      pop\n      jump(tag_405)\n    tag_406:\n      0x1f\n      add\n      0x20\n      swap1\n      div\n      swap1\n      0x00\n      mstore\n      keccak256(0x00, 0x20)\n      swap1\n      dup2\n      add\n      swap1\n      tag_407\n      swap2\n      swap1\n      tag_408\n      jump\t// in\n    tag_407:\n    tag_405:\n      pop\n      jump\t// out\n    tag_408:\n    tag_409:\n      dup1\n      dup3\n      gt\n      iszero\n      tag_410\n      jumpi\n      0x00\n      dup2\n      0x00\n      swap1\n      sstore\n      pop\n      0x01\n      add\n      jump(tag_409)\n    tag_410:\n      pop\n      swap1\n      jump\t// out\n        /* \"#utility.yul\":7:82   */\n    tag_411:\n        /* \"#utility.yul\":40:46   */\n      0x00\n        /* \"#utility.yul\":73:75   */\n      0x40\n        /* \"#utility.yul\":67:76   */\n      mload\n        /* \"#utility.yul\":57:76   */\n      swap1\n      pop\n        /* \"#utility.yul\":7:82   */\n      swap1\n      jump\t// out\n        /* \"#utility.yul\":88:205   */\n    tag_412:\n        /* \"#utility.yul\":197:198   */\n      0x00\n        /* \"#utility.yul\":194:195   */\n      dup1\n        /* \"#utility.yul\":187:199   */\n      revert\n        /* \"#utility.yul\":211:328   */\n    tag_413:\n        /* \"#utility.yul\":320:321   */\n      0x00\n        /* \"#utility.yul\":317:318   */\n      dup1\n        /* \"#utility.yul\":310:322   */\n      revert\n        /* \"#utility.yul\":334:411   */\n    tag_414:\n        /* \"#utility.yul\":371:378   */\n      0x00\n        /* \"#utility.yul\":400:405   */\n      dup2\n        /* \"#utility.yul\":389:405   */\n      swap1\n      pop\n        /* \"#utility.yul\":334:411   */\n      swap2\n      swap1\n      pop\n      jump\t// out\n        /* \"#utility.yul\":417:539   */\n    tag_415:\n        /* \"#utility.yul\":490:514   */\n      tag_571\n        /* \"#utility.yul\":508:513   */\n      dup2\n        /* \"#utility.yul\":490:514   */\n      tag_414\n      jump\t// in\n    tag_571:\n        /* \"#utility.yul\":483:488   */\n      dup2\n        /* \"#utility.yul\":480:515   */\n      eq\n        /* \"#utility.yul\":470:533   */\n      tag_572\n      jumpi\n        /* \"#utility.yul\":529:530   */\n      0x00\n        /* \"#utility.yul\":526:527   */\n      dup1\n        /* \"#utility.yul\":519:531   */\n      revert\n        /* \"#utility.yul\":470:533   */\n    tag_572:\n        /* \"#utility.yul\":417:539   */\n      pop\n      jump\t// out\n        /* \"#utility.yul\":545:684   */\n    tag_416:\n        /* \"#utility.yul\":591:596   */\n      0x00\n        /* \"#utility.yul\":629:635   */\n      dup2\n        /* \"#utility.yul\":616:636   */\n      calldataload\n        /* \"#utility.yul\":607:636   */\n      swap1\n      pop\n        /* \"#utility.yul\":645:678   */\n      tag_574\n        /* \"#utility.yul\":672:677   */\n      dup2\n        /* \"#utility.yul\":645:678   */\n      tag_415\n      jump\t// in\n    tag_574:\n        /* \"#utility.yul\":545:684   */\n      swap3\n      swap2\n      pop\n      pop\n      jump\t// out\n        /* \"#utility.yul\":690:1019   */\n    tag_25:\n        /* \"#utility.yul\":749:755   */\n      0x00\n        /* \"#utility.yul\":798:800   */\n      0x20\n        /* \"#utility.yul\":786:795   */\n      dup3\n        /* \"#utility.yul\":777:784   */\n      dup5\n        /* \"#utility.yul\":773:796   */\n      sub\n        /* \"#utility.yul\":769:801   */\n      slt\n        /* \"#utility.yul\":766:885   */\n      iszero\n      tag_576\n      jumpi\n        /* \"#utility.yul\":804:883   */\n      tag_577\n      tag_412\n      jump\t// in\n    tag_577:\n        /* \"#utility.yul\":766:885   */\n    tag_576:\n        /* \"#utility.yul\":924:925   */\n      0x00\n        /* \"#utility.yul\":949:1002   */\n      tag_578\n        /* \"#utility.yul\":994:1001   */\n      dup5\n        /* \"#utility.yul\":985:991   */\n      dup3\n        /* \"#utility.yul\":974:983   */\n      dup6\n        /* \"#utility.yul\":970:992   */\n      add\n        /* \"#utility.yul\":949:1002   */\n      tag_416\n      jump\t// in\n    tag_578:\n        /* \"#utility.yul\":939:1002   */\n      swap2\n      pop\n        /* \"#utility.yul\":895:1012   */\n      pop\n        /* \"#utility.yul\":690:1019   */\n      swap3\n      swap2\n      pop\n      pop\n      jump\t// out\n        /* \"#utility.yul\":1025:1133   */\n    tag_417:\n        /* \"#utility.yul\":1102:1126   */\n      tag_580\n        /* \"#utility.yul\":1120:1125   */\n      dup2\n        /* \"#utility.yul\":1102:1126   */\n      tag_414\n      jump\t// in\n    tag_580:\n        /* \"#utility.yul\":1097:1100   */\n      dup3\n        /* \"#utility.yul\":1090:1127   */\n      mstore\n        /* \"#utility.yul\":1025:1133   */\n      pop\n      pop\n      jump\t// out\n        /* \"#utility.yul\":1139:1240   */\n    tag_418:\n        /* \"#utility.yul\":1175:1182   */\n      0x00\n        /* \"#utility.yul\":1215:1233   */\n      0xffffffffffffffff\n        /* \"#utility.yul\":1208:1213   */\n      dup3\n        /* \"#utility.yul\":1204:1234   */\n      and\n        /* \"#utility.yul\":1193:1234   */\n      swap1\n      pop\n        /* \"#utility.yul\":1139:1240   */\n      swap2\n      swap1\n      pop\n      jump\t// out\n        /* \"#utility.yul\":1246:1351   */\n    tag_419:\n        /* \"#utility.yul\":1321:1344   */\n      tag_583\n        /* \"#utility.yul\":1338:1343   */\n      dup2\n        /* \"#utility.yul\":1321:1344   */\n      tag_418\n      jump\t// in\n    tag_583:\n        /* \"#utility.yul\":1316:1319   */\n      dup3\n        /* \"#utility.yul\":1309:1345   */\n      mstore\n        /* \"#utility.yul\":1246:1351   */\n      pop\n      pop\n      jump\t// out\n        /* \"#utility.yul\":1407:2123   */\n    tag_420:\n        /* \"#utility.yul\":1562:1566   */\n      0x60\n        /* \"#utility.yul\":1557:1560   */\n      dup3\n        /* \"#utility.yul\":1553:1567   */\n      add\n        /* \"#utility.yul\":1658:1662   */\n      0x00\n        /* \"#utility.yul\":1651:1656   */\n      dup3\n        /* \"#utility.yul\":1647:1663   */\n      add\n        /* \"#utility.yul\":1641:1664   */\n      mload\n        /* \"#utility.yul\":1677:1740   */\n      tag_585\n        /* \"#utility.yul\":1734:1738   */\n      0x00\n        /* \"#utility.yul\":1729:1732   */\n      dup6\n        /* \"#utility.yul\":1725:1739   */\n      add\n        /* \"#utility.yul\":1711:1723   */\n      dup3\n        /* \"#utility.yul\":1677:1740   */\n      tag_417\n      jump\t// in\n    tag_585:\n        /* \"#utility.yul\":1577:1750   */\n      pop\n        /* \"#utility.yul\":1843:1847   */\n      0x20\n        /* \"#utility.yul\":1836:1841   */\n      dup3\n        /* \"#utility.yul\":1832:1848   */\n      add\n        /* \"#utility.yul\":1826:1849   */\n      mload\n        /* \"#utility.yul\":1862:1923   */\n      tag_586\n        /* \"#utility.yul\":1917:1921   */\n      0x20\n        /* \"#utility.yul\":1912:1915   */\n      dup6\n        /* \"#utility.yul\":1908:1922   */\n      add\n        /* \"#utility.yul\":1894:1906   */\n      dup3\n        /* \"#utility.yul\":1862:1923   */\n      tag_419\n      jump\t// in\n    tag_586:\n        /* \"#utility.yul\":1760:1933   */\n      pop\n        /* \"#utility.yul\":2026:2030   */\n      0x40\n        /* \"#utility.yul\":2019:2024   */\n      dup3\n        /* \"#utility.yul\":2015:2031   */\n      add\n        /* \"#utility.yul\":2009:2032   */\n      mload\n        /* \"#utility.yul\":2045:2106   */\n      tag_587\n        /* \"#utility.yul\":2100:2104   */\n      0x40\n        /* \"#utility.yul\":2095:2098   */\n      dup6\n        /* \"#utility.yul\":2091:2105   */\n      add\n        /* \"#utility.yul\":2077:2089   */\n      dup3\n        /* \"#utility.yul\":2045:2106   */\n      tag_419\n      jump\t// in\n    tag_587:\n        /* \"#utility.yul\":1943:2116   */\n      pop\n        /* \"#utility.yul\":1531:2123   */\n      pop\n        /* \"#utility.yul\":1407:2123   */\n      pop\n      pop\n      jump\t// out\n        /* \"#utility.yul\":2129:2467   */\n    tag_28:\n        /* \"#utility.yul\":2280:2284   */\n      0x00\n        /* \"#utility.yul\":2318:2320   */\n      0x60\n        /* \"#utility.yul\":2307:2316   */\n      dup3\n        /* \"#utility.yul\":2303:2321   */\n      add\n        /* \"#utility.yul\":2295:2321   */\n      swap1\n      pop\n        /* \"#utility.yul\":2331:2460   */\n      tag_589\n        /* \"#utility.yul\":2457:2458   */\n      0x00\n        /* \"#utility.yul\":2446:2455   */\n      dup4\n        /* \"#utility.yul\":2442:2459   */\n      add\n        /* \"#utility.yul\":2433:2439   */\n      dup5\n        /* \"#utility.yul\":2331:2460   */\n      tag_420\n      jump\t// in\n    tag_589:\n        /* \"#utility.yul\":2129:2467   */\n      swap3\n      swap2\n      pop\n      pop\n      jump\t// out\n        /* \"#utility.yul\":2473:2599   */\n    tag_421:\n        /* \"#utility.yul\":2510:2517   */\n      0x00\n        /* \"#utility.yul\":2550:2592   */\n      0xffffffffffffffffffffffffffffffffffffffff\n        /* \"#utility.yul\":2543:2548   */\n      dup3\n        /* \"#utility.yul\":2539:2593   */\n      and\n        /* \"#utility.yul\":2528:2593   */\n      swap1\n      pop\n        /* \"#utility.yul\":2473:2599   */\n      swap2\n      swap1\n      pop\n      jump\t// out\n        /* \"#utility.yul\":2605:2701   */\n    tag_422:\n        /* \"#utility.yul\":2642:2649   */\n      0x00\n        /* \"#utility.yul\":2671:2695   */\n      tag_592\n        /* \"#utility.yul\":2689:2694   */\n      dup3\n        /* \"#utility.yul\":2671:2695   */\n      tag_421\n      jump\t// in\n    tag_592:\n        /* \"#utility.yul\":2660:2695   */\n      swap1\n      pop\n        /* \"#utility.yul\":2605:2701   */\n      swap2\n      swap1\n      pop\n      jump\t// out\n        /* \"#utility.yul\":2707:2815   */\n    tag_423:\n        /* \"#utility.yul\":2784:2808   */\n      tag_594\n        /* \"#utility.yul\":2802:2807   */\n      dup2\n        /* \"#utility.yul\":2784:2808   */\n      tag_422\n      jump\t// in\n    tag_594:\n        /* \"#utility.yul\":2779:2782   */\n      dup3\n        /* \"#utility.yul\":2772:2809   */\n      mstore\n        /* \"#utility.yul\":2707:2815   */\n      pop\n      pop\n      jump\t// out\n        /* \"#utility.yul\":2821:2920   */\n    tag_424:\n        /* \"#utility.yul\":2873:2879   */\n      0x00\n        /* \"#utility.yul\":2907:2912   */\n      dup2\n        /* \"#utility.yul\":2901:2913   */\n      mload\n        /* \"#utility.yul\":2891:2913   */\n      swap1\n      pop\n        /* \"#utility.yul\":2821:2920   */\n      swap2\n      swap1\n      pop\n      jump\t// out\n        /* \"#utility.yul\":2926:3085   */\n    tag_425:\n        /* \"#utility.yul\":3000:3011   */\n      0x00\n        /* \"#utility.yul\":3034:3040   */\n      dup3\n        /* \"#utility.yul\":3029:3032   */\n      dup3\n        /* \"#utility.yul\":3022:3041   */\n      mstore\n        /* \"#utility.yul\":3074:3078   */\n      0x20\n        /* \"#utility.yul\":3069:3072   */\n      dup3\n        /* \"#utility.yul\":3065:3079   */\n      add\n        /* \"#utility.yul\":3050:3079   */\n      swap1\n      pop\n        /* \"#utility.yul\":2926:3085   */\n      swap3\n      swap2\n      pop\n      pop\n      jump\t// out\n        /* \"#utility.yul\":3091:3337   */\n    tag_426:\n        /* \"#utility.yul\":3172:3173   */\n      0x00\n        /* \"#utility.yul\":3182:3295   */\n    tag_598:\n        /* \"#utility.yul\":3196:3202   */\n      dup4\n        /* \"#utility.yul\":3193:3194   */\n      dup2\n        /* \"#utility.yul\":3190:3203   */\n      lt\n        /* \"#utility.yul\":3182:3295   */\n      iszero\n      tag_600\n      jumpi\n        /* \"#utility.yul\":3281:3282   */\n      dup1\n        /* \"#utility.yul\":3276:3279   */\n      dup3\n        /* \"#utility.yul\":3272:3283   */\n      add\n        /* \"#utility.yul\":3266:3284   */\n      mload\n        /* \"#utility.yul\":3262:3263   */\n      dup2\n        /* \"#utility.yul\":3257:3260   */\n      dup5\n        /* \"#utility.yul\":3253:3264   */\n      add\n        /* \"#utility.yul\":3246:3285   */\n      mstore\n        /* \"#utility.yul\":3218:3220   */\n      0x20\n        /* \"#utility.yul\":3215:3216   */\n      dup2\n        /* \"#utility.yul\":3211:3221   */\n      add\n        /* \"#utility.yul\":3206:3221   */\n      swap1\n      pop\n        /* \"#utility.yul\":3182:3295   */\n      jump(tag_598)\n    tag_600:\n        /* \"#utility.yul\":3329:3330   */\n      0x00\n        /* \"#utility.yul\":3320:3326   */\n      dup5\n        /* \"#utility.yul\":3315:3318   */\n      dup5\n        /* \"#utility.yul\":3311:3327   */\n      add\n        /* \"#utility.yul\":3304:3331   */\n      mstore\n        /* \"#utility.yul\":3153:3337   */\n      pop\n        /* \"#utility.yul\":3091:3337   */\n      pop\n      pop\n      pop\n      jump\t// out\n        /* \"#utility.yul\":3343:3445   */\n    tag_427:\n        /* \"#utility.yul\":3384:3390   */\n      0x00\n        /* \"#utility.yul\":3435:3437   */\n      0x1f\n        /* \"#utility.yul\":3431:3438   */\n      not\n        /* \"#utility.yul\":3426:3428   */\n      0x1f\n        /* \"#utility.yul\":3419:3424   */\n      dup4\n        /* \"#utility.yul\":3415:3429   */\n      add\n        /* \"#utility.yul\":3411:3439   */\n      and\n        /* \"#utility.yul\":3401:3439   */\n      swap1\n      pop\n        /* \"#utility.yul\":3343:3445   */\n      swap2\n      swap1\n      pop\n      jump\t// out\n        /* \"#utility.yul\":3451:3808   */\n    tag_428:\n        /* \"#utility.yul\":3529:3532   */\n      0x00\n        /* \"#utility.yul\":3557:3596   */\n      tag_603\n        /* \"#utility.yul\":3590:3595   */\n      dup3\n        /* \"#utility.yul\":3557:3596   */\n      tag_424\n      jump\t// in\n    tag_603:\n        /* \"#utility.yul\":3612:3673   */\n      tag_604\n        /* \"#utility.yul\":3666:3672   */\n      dup2\n        /* \"#utility.yul\":3661:3664   */\n      dup6\n        /* \"#utility.yul\":3612:3673   */\n      tag_425\n      jump\t// in\n    tag_604:\n        /* \"#utility.yul\":3605:3673   */\n      swap4\n      pop\n        /* \"#utility.yul\":3682:3747   */\n      tag_605\n        /* \"#utility.yul\":3740:3746   */\n      dup2\n        /* \"#utility.yul\":3735:3738   */\n      dup6\n        /* \"#utility.yul\":3728:3732   */\n      0x20\n        /* \"#utility.yul\":3721:3726   */\n      dup7\n        /* \"#utility.yul\":3717:3733   */\n      add\n        /* \"#utility.yul\":3682:3747   */\n      tag_426\n      jump\t// in\n    tag_605:\n        /* \"#utility.yul\":3772:3801   */\n      tag_606\n        /* \"#utility.yul\":3794:3800   */\n      dup2\n        /* \"#utility.yul\":3772:3801   */\n      tag_427\n      jump\t// in\n    tag_606:\n        /* \"#utility.yul\":3767:3770   */\n      dup5\n        /* \"#utility.yul\":3763:3802   */\n      add\n        /* \"#utility.yul\":3756:3802   */\n      swap2\n      pop\n        /* \"#utility.yul\":3533:3808   */\n      pop\n        /* \"#utility.yul\":3451:3808   */\n      swap3\n      swap2\n      pop\n      pop\n      jump\t// out\n        /* \"#utility.yul\":3814:3994   */\n    tag_107:\n        /* \"#utility.yul\":3862:3939   */\n      0x4e487b7100000000000000000000000000000000000000000000000000000000\n        /* \"#utility.yul\":3859:3860   */\n      0x00\n        /* \"#utility.yul\":3852:3940   */\n      mstore\n        /* \"#utility.yul\":3959:3963   */\n      0x21\n        /* \"#utility.yul\":3956:3957   */\n      0x04\n        /* \"#utility.yul\":3949:3964   */\n      mstore\n        /* \"#utility.yul\":3983:3987   */\n      0x24\n        /* \"#utility.yul\":3980:3981   */\n      0x00\n        /* \"#utility.yul\":3973:3988   */\n      revert\n        /* \"#utility.yul\":4000:4119   */\n    tag_429:\n        /* \"#utility.yul\":4087:4088   */\n      0x04\n        /* \"#utility.yul\":4080:4085   */\n      dup2\n        /* \"#utility.yul\":4077:4089   */\n      lt\n        /* \"#utility.yul\":4067:4113   */\n      tag_609\n      jumpi\n        /* \"#utility.yul\":4093:4111   */\n      tag_610\n      tag_107\n      jump\t// in\n    tag_610:\n        /* \"#utility.yul\":4067:4113   */\n    tag_609:\n        /* \"#utility.yul\":4000:4119   */\n      pop\n      jump\t// out\n        /* \"#utility.yul\":4125:4264   */\n    tag_430:\n        /* \"#utility.yul\":4176:4183   */\n      0x00\n        /* \"#utility.yul\":4205:4210   */\n      dup2\n        /* \"#utility.yul\":4194:4210   */\n      swap1\n      pop\n        /* \"#utility.yul\":4211:4258   */\n      tag_612\n        /* \"#utility.yul\":4252:4257   */\n      dup3\n        /* \"#utility.yul\":4211:4258   */\n      tag_429\n      jump\t// in\n    tag_612:\n        /* \"#utility.yul\":4125:4264   */\n      swap2\n      swap1\n      pop\n      jump\t// out\n        /* \"#utility.yul\":4270:4409   */\n    tag_431:\n        /* \"#utility.yul\":4332:4341   */\n      0x00\n        /* \"#utility.yul\":4365:4403   */\n      tag_614\n        /* \"#utility.yul\":4397:4402   */\n      dup3\n        /* \"#utility.yul\":4365:4403   */\n      tag_430\n      jump\t// in\n    tag_614:\n        /* \"#utility.yul\":4352:4403   */\n      swap1\n      pop\n        /* \"#utility.yul\":4270:4409   */\n      swap2\n      swap1\n      pop\n      jump\t// out\n        /* \"#utility.yul\":4415:4560   */\n    tag_432:\n        /* \"#utility.yul\":4504:4553   */\n      tag_616\n        /* \"#utility.yul\":4547:4552   */\n      dup2\n        /* \"#utility.yul\":4504:4553   */\n      tag_431\n      jump\t// in\n    tag_616:\n        /* \"#utility.yul\":4499:4502   */\n      dup3\n        /* \"#utility.yul\":4492:4554   */\n      mstore\n        /* \"#utility.yul\":4415:4560   */\n      pop\n      pop\n      jump\t// out\n        /* \"#utility.yul\":4600:6859   */\n    tag_433:\n        /* \"#utility.yul\":4711:4714   */\n      0x00\n        /* \"#utility.yul\":4747:4753   */\n      0x0140\n        /* \"#utility.yul\":4742:4745   */\n      dup4\n        /* \"#utility.yul\":4738:4754   */\n      add\n        /* \"#utility.yul\":4837:4841   */\n      0x00\n        /* \"#utility.yul\":4830:4835   */\n      dup4\n        /* \"#utility.yul\":4826:4842   */\n      add\n        /* \"#utility.yul\":4820:4843   */\n      mload\n        /* \"#utility.yul\":4856:4919   */\n      tag_618\n        /* \"#utility.yul\":4913:4917   */\n      0x00\n        /* \"#utility.yul\":4908:4911   */\n      dup7\n        /* \"#utility.yul\":4904:4918   */\n      add\n        /* \"#utility.yul\":4890:4902   */\n      dup3\n        /* \"#utility.yul\":4856:4919   */\n      tag_423\n      jump\t// in\n    tag_618:\n        /* \"#utility.yul\":4764:4929   */\n      pop\n        /* \"#utility.yul\":5011:5015   */\n      0x20\n        /* \"#utility.yul\":5004:5009   */\n      dup4\n        /* \"#utility.yul\":5000:5016   */\n      add\n        /* \"#utility.yul\":4994:5017   */\n      mload\n        /* \"#utility.yul\":5030:5093   */\n      tag_619\n        /* \"#utility.yul\":5087:5091   */\n      0x20\n        /* \"#utility.yul\":5082:5085   */\n      dup7\n        /* \"#utility.yul\":5078:5092   */\n      add\n        /* \"#utility.yul\":5064:5076   */\n      dup3\n        /* \"#utility.yul\":5030:5093   */\n      tag_417\n      jump\t// in\n    tag_619:\n        /* \"#utility.yul\":4939:5103   */\n      pop\n        /* \"#utility.yul\":5191:5195   */\n      0x40\n        /* \"#utility.yul\":5184:5189   */\n      dup4\n        /* \"#utility.yul\":5180:5196   */\n      add\n        /* \"#utility.yul\":5174:5197   */\n      mload\n        /* \"#utility.yul\":5210:5271   */\n      tag_620\n        /* \"#utility.yul\":5265:5269   */\n      0x40\n        /* \"#utility.yul\":5260:5263   */\n      dup7\n        /* \"#utility.yul\":5256:5270   */\n      add\n        /* \"#utility.yul\":5242:5254   */\n      dup3\n        /* \"#utility.yul\":5210:5271   */\n      tag_419\n      jump\t// in\n    tag_620:\n        /* \"#utility.yul\":5113:5281   */\n      pop\n        /* \"#utility.yul\":5370:5374   */\n      0x60\n        /* \"#utility.yul\":5363:5368   */\n      dup4\n        /* \"#utility.yul\":5359:5375   */\n      add\n        /* \"#utility.yul\":5353:5376   */\n      mload\n        /* \"#utility.yul\":5389:5450   */\n      tag_621\n        /* \"#utility.yul\":5444:5448   */\n      0x60\n        /* \"#utility.yul\":5439:5442   */\n      dup7\n        /* \"#utility.yul\":5435:5449   */\n      add\n        /* \"#utility.yul\":5421:5433   */\n      dup3\n        /* \"#utility.yul\":5389:5450   */\n      tag_419\n      jump\t// in\n    tag_621:\n        /* \"#utility.yul\":5291:5460   */\n      pop\n        /* \"#utility.yul\":5548:5552   */\n      0x80\n        /* \"#utility.yul\":5541:5546   */\n      dup4\n        /* \"#utility.yul\":5537:5553   */\n      add\n        /* \"#utility.yul\":5531:5554   */\n      mload\n        /* \"#utility.yul\":5567:5628   */\n      tag_622\n        /* \"#utility.yul\":5622:5626   */\n      0x80\n        /* \"#utility.yul\":5617:5620   */\n      dup7\n        /* \"#utility.yul\":5613:5627   */\n      add\n        /* \"#utility.yul\":5599:5611   */\n      dup3\n        /* \"#utility.yul\":5567:5628   */\n      tag_419\n      jump\t// in\n    tag_622:\n        /* \"#utility.yul\":5470:5638   */\n      pop\n        /* \"#utility.yul\":5720:5724   */\n      0xa0\n        /* \"#utility.yul\":5713:5718   */\n      dup4\n        /* \"#utility.yul\":5709:5725   */\n      add\n        /* \"#utility.yul\":5703:5726   */\n      mload\n        /* \"#utility.yul\":5773:5776   */\n      dup5\n        /* \"#utility.yul\":5767:5771   */\n      dup3\n        /* \"#utility.yul\":5763:5777   */\n      sub\n        /* \"#utility.yul\":5756:5760   */\n      0xa0\n        /* \"#utility.yul\":5751:5754   */\n      dup7\n        /* \"#utility.yul\":5747:5761   */\n      add\n        /* \"#utility.yul\":5740:5778   */\n      mstore\n        /* \"#utility.yul\":5799:5872   */\n      tag_623\n        /* \"#utility.yul\":5867:5871   */\n      dup3\n        /* \"#utility.yul\":5853:5865   */\n      dup3\n        /* \"#utility.yul\":5799:5872   */\n      tag_428\n      jump\t// in\n    tag_623:\n        /* \"#utility.yul\":5791:5872   */\n      swap2\n      pop\n        /* \"#utility.yul\":5648:5883   */\n      pop\n        /* \"#utility.yul\":5964:5968   */\n      0xc0\n        /* \"#utility.yul\":5957:5962   */\n      dup4\n        /* \"#utility.yul\":5953:5969   */\n      add\n        /* \"#utility.yul\":5947:5970   */\n      mload\n        /* \"#utility.yul\":6017:6020   */\n      dup5\n        /* \"#utility.yul\":6011:6015   */\n      dup3\n        /* \"#utility.yul\":6007:6021   */\n      sub\n        /* \"#utility.yul\":6000:6004   */\n      0xc0\n        /* \"#utility.yul\":5995:5998   */\n      dup7\n        /* \"#utility.yul\":5991:6005   */\n      add\n        /* \"#utility.yul\":5984:6022   */\n      mstore\n        /* \"#utility.yul\":6043:6116   */\n      tag_624\n        /* \"#utility.yul\":6111:6115   */\n      dup3\n        /* \"#utility.yul\":6097:6109   */\n      dup3\n        /* \"#utility.yul\":6043:6116   */\n      tag_428\n      jump\t// in\n    tag_624:\n        /* \"#utility.yul\":6035:6116   */\n      swap2\n      pop\n        /* \"#utility.yul\":5893:6127   */\n      pop\n        /* \"#utility.yul\":6211:6215   */\n      0xe0\n        /* \"#utility.yul\":6204:6209   */\n      dup4\n        /* \"#utility.yul\":6200:6216   */\n      add\n        /* \"#utility.yul\":6194:6217   */\n      mload\n        /* \"#utility.yul\":6230:6305   */\n      tag_625\n        /* \"#utility.yul\":6299:6303   */\n      0xe0\n        /* \"#utility.yul\":6294:6297   */\n      dup7\n        /* \"#utility.yul\":6290:6304   */\n      add\n        /* \"#utility.yul\":6276:6288   */\n      dup3\n        /* \"#utility.yul\":6230:6305   */\n      tag_432\n      jump\t// in\n    tag_625:\n        /* \"#utility.yul\":6137:6315   */\n      pop\n        /* \"#utility.yul\":6411:6417   */\n      0x0100\n        /* \"#utility.yul\":6404:6409   */\n      dup4\n        /* \"#utility.yul\":6400:6418   */\n      add\n        /* \"#utility.yul\":6394:6419   */\n      mload\n        /* \"#utility.yul\":6468:6471   */\n      dup5\n        /* \"#utility.yul\":6462:6466   */\n      dup3\n        /* \"#utility.yul\":6458:6472   */\n      sub\n        /* \"#utility.yul\":6449:6455   */\n      0x0100\n        /* \"#utility.yul\":6444:6447   */\n      dup7\n        /* \"#utility.yul\":6440:6456   */\n      add\n        /* \"#utility.yul\":6433:6473   */\n      mstore\n        /* \"#utility.yul\":6494:6567   */\n      tag_626\n        /* \"#utility.yul\":6562:6566   */\n      dup3\n        /* \"#utility.yul\":6548:6560   */\n      dup3\n        /* \"#utility.yul\":6494:6567   */\n      tag_428\n      jump\t// in\n    tag_626:\n        /* \"#utility.yul\":6486:6567   */\n      swap2\n      pop\n        /* \"#utility.yul\":6325:6578   */\n      pop\n        /* \"#utility.yul\":6665:6671   */\n      0x0120\n        /* \"#utility.yul\":6658:6663   */\n      dup4\n        /* \"#utility.yul\":6654:6672   */\n      add\n        /* \"#utility.yul\":6648:6673   */\n      mload\n        /* \"#utility.yul\":6722:6725   */\n      dup5\n        /* \"#utility.yul\":6716:6720   */\n      dup3\n        /* \"#utility.yul\":6712:6726   */\n      sub\n        /* \"#utility.yul\":6703:6709   */\n      0x0120\n        /* \"#utility.yul\":6698:6701   */\n      dup7\n        /* \"#utility.yul\":6694:6710   */\n      add\n        /* \"#utility.yul\":6687:6727   */\n      mstore\n        /* \"#utility.yul\":6748:6821   */\n      tag_627\n        /* \"#utility.yul\":6816:6820   */\n      dup3\n        /* \"#utility.yul\":6802:6814   */\n      dup3\n        /* \"#utility.yul\":6748:6821   */\n      tag_428\n      jump\t// in\n    tag_627:\n        /* \"#utility.yul\":6740:6821   */\n      swap2\n      pop\n        /* \"#utility.yul\":6588:6832   */\n      pop\n        /* \"#utility.yul\":6849:6853   */\n      dup1\n        /* \"#utility.yul\":6842:6853   */\n      swap2\n      pop\n        /* \"#utility.yul\":4716:6859   */\n      pop\n        /* \"#utility.yul\":4600:6859   */\n      swap3\n      swap2\n      pop\n      pop\n      jump\t// out\n        /* \"#utility.yul\":6865:7222   */\n    tag_33:\n        /* \"#utility.yul\":7000:7004   */\n      0x00\n        /* \"#utility.yul\":7038:7040   */\n      0x20\n        /* \"#utility.yul\":7027:7036   */\n      dup3\n        /* \"#utility.yul\":7023:7041   */\n      add\n        /* \"#utility.yul\":7015:7041   */\n      swap1\n      pop\n        /* \"#utility.yul\":7087:7096   */\n      dup2\n        /* \"#utility.yul\":7081:7085   */\n      dup2\n        /* \"#utility.yul\":7077:7097   */\n      sub\n        /* \"#utility.yul\":7073:7074   */\n      0x00\n        /* \"#utility.yul\":7062:7071   */\n      dup4\n        /* \"#utility.yul\":7058:7075   */\n      add\n        /* \"#utility.yul\":7051:7098   */\n      mstore\n        /* \"#utility.yul\":7115:7215   */\n      tag_629\n        /* \"#utility.yul\":7210:7214   */\n      dup2\n        /* \"#utility.yul\":7201:7207   */\n      dup5\n        /* \"#utility.yul\":7115:7215   */\n      tag_433\n      jump\t// in\n    tag_629:\n        /* \"#utility.yul\":7107:7215   */\n      swap1\n      pop\n        /* \"#utility.yul\":6865:7222   */\n      swap3\n      swap2\n      pop\n      pop\n      jump\t// out\n        /* \"#utility.yul\":7228:7345   */\n    tag_434:\n        /* \"#utility.yul\":7337:7338   */\n      0x00\n        /* \"#utility.yul\":7334:7335   */\n      dup1\n        /* \"#utility.yul\":7327:7339   */\n      revert\n        /* \"#utility.yul\":7351:7468   */\n    tag_435:\n        /* \"#utility.yul\":7460:7461   */\n      0x00\n        /* \"#utility.yul\":7457:7458   */\n      dup1\n        /* \"#utility.yul\":7450:7462   */\n      revert\n        /* \"#utility.yul\":7474:7654   */\n    tag_202:\n        /* \"#utility.yul\":7522:7599   */\n      0x4e487b7100000000000000000000000000000000000000000000000000000000\n        /* \"#utility.yul\":7519:7520   */\n      0x00\n        /* \"#utility.yul\":7512:7600   */\n      mstore\n        /* \"#utility.yul\":7619:7623   */\n      0x41\n        /* \"#utility.yul\":7616:7617   */\n      0x04\n        /* \"#utility.yul\":7609:7624   */\n      mstore\n        /* \"#utility.yul\":7643:7647   */\n      0x24\n        /* \"#utility.yul\":7640:7641   */\n      0x00\n        /* \"#utility.yul\":7633:7648   */\n      revert\n        /* \"#utility.yul\":7660:7941   */\n    tag_436:\n        /* \"#utility.yul\":7743:7770   */\n      tag_634\n        /* \"#utility.yul\":7765:7769   */\n      dup3\n        /* \"#utility.yul\":7743:7770   */\n      tag_427\n      jump\t// in\n    tag_634:\n        /* \"#utility.yul\":7735:7741   */\n      dup2\n        /* \"#utility.yul\":7731:7771   */\n      add\n        /* \"#utility.yul\":7873:7879   */\n      dup2\n        /* \"#utility.yul\":7861:7871   */\n      dup2\n        /* \"#utility.yul\":7858:7880   */\n      lt\n        /* \"#utility.yul\":7837:7855   */\n      0xffffffffffffffff\n        /* \"#utility.yul\":7825:7835   */\n      dup3\n        /* \"#utility.yul\":7822:7856   */\n      gt\n        /* \"#utility.yul\":7819:7881   */\n      or\n        /* \"#utility.yul\":7816:7904   */\n      iszero\n      tag_635\n      jumpi\n        /* \"#utility.yul\":7884:7902   */\n      tag_636\n      tag_202\n      jump\t// in\n    tag_636:\n        /* \"#utility.yul\":7816:7904   */\n    tag_635:\n        /* \"#utility.yul\":7924:7934   */\n      dup1\n        /* \"#utility.yul\":7920:7922   */\n      0x40\n        /* \"#utility.yul\":7913:7935   */\n      mstore\n        /* \"#utility.yul\":7703:7941   */\n      pop\n        /* \"#utility.yul\":7660:7941   */\n      pop\n      pop\n      jump\t// out\n        /* \"#utility.yul\":7947:8076   */\n    tag_437:\n        /* \"#utility.yul\":7981:7987   */\n      0x00\n        /* \"#utility.yul\":8008:8028   */\n      tag_638\n      tag_411\n      jump\t// in\n    tag_638:\n        /* \"#utility.yul\":7998:8028   */\n      swap1\n      pop\n        /* \"#utility.yul\":8037:8070   */\n      tag_639\n        /* \"#utility.yul\":8065:8069   */\n      dup3\n        /* \"#utility.yul\":8057:8063   */\n      dup3\n        /* \"#utility.yul\":8037:8070   */\n      tag_436\n      jump\t// in\n    tag_639:\n        /* \"#utility.yul\":7947:8076   */\n      swap2\n      swap1\n      pop\n      jump\t// out\n        /* \"#utility.yul\":8082:8389   */\n    tag_438:\n        /* \"#utility.yul\":8143:8147   */\n      0x00\n        /* \"#utility.yul\":8233:8251   */\n      0xffffffffffffffff\n        /* \"#utility.yul\":8225:8231   */\n      dup3\n        /* \"#utility.yul\":8222:8252   */\n      gt\n        /* \"#utility.yul\":8219:8275   */\n      iszero\n      tag_641\n      jumpi\n        /* \"#utility.yul\":8255:8273   */\n      tag_642\n      tag_202\n      jump\t// in\n    tag_642:\n        /* \"#utility.yul\":8219:8275   */\n    tag_641:\n        /* \"#utility.yul\":8293:8322   */\n      tag_643\n        /* \"#utility.yul\":8315:8321   */\n      dup3\n        /* \"#utility.yul\":8293:8322   */\n      tag_427\n      jump\t// in\n    tag_643:\n        /* \"#utility.yul\":8285:8322   */\n      swap1\n      pop\n        /* \"#utility.yul\":8377:8381   */\n      0x20\n        /* \"#utility.yul\":8371:8375   */\n      dup2\n        /* \"#utility.yul\":8367:8382   */\n      add\n        /* \"#utility.yul\":8359:8382   */\n      swap1\n      pop\n        /* \"#utility.yul\":8082:8389   */\n      swap2\n      swap1\n      pop\n      jump\t// out\n        /* \"#utility.yul\":8395:8541   */\n    tag_439:\n        /* \"#utility.yul\":8492:8498   */\n      dup3\n        /* \"#utility.yul\":8487:8490   */\n      dup2\n        /* \"#utility.yul\":8482:8485   */\n      dup4\n        /* \"#utility.yul\":8469:8499   */\n      calldatacopy\n        /* \"#utility.yul\":8533:8534   */\n      0x00\n        /* \"#utility.yul\":8524:8530   */\n      dup4\n        /* \"#utility.yul\":8519:8522   */\n      dup4\n        /* \"#utility.yul\":8515:8531   */\n      add\n        /* \"#utility.yul\":8508:8535   */\n      mstore\n        /* \"#utility.yul\":8395:8541   */\n      pop\n      pop\n      pop\n      jump\t// out\n        /* \"#utility.yul\":8547:8970   */\n    tag_440:\n        /* \"#utility.yul\":8624:8629   */\n      0x00\n        /* \"#utility.yul\":8649:8714   */\n      tag_646\n        /* \"#utility.yul\":8665:8713   */\n      tag_647\n        /* \"#utility.yul\":8706:8712   */\n      dup5\n        /* \"#utility.yul\":8665:8713   */\n      tag_438\n      jump\t// in\n    tag_647:\n        /* \"#utility.yul\":8649:8714   */\n      tag_437\n      jump\t// in\n    tag_646:\n        /* \"#utility.yul\":8640:8714   */\n      swap1\n      pop\n        /* \"#utility.yul\":8737:8743   */\n      dup3\n        /* \"#utility.yul\":8730:8735   */\n      dup2\n        /* \"#utility.yul\":8723:8744   */\n      mstore\n        /* \"#utility.yul\":8775:8779   */\n      0x20\n        /* \"#utility.yul\":8768:8773   */\n      dup2\n        /* \"#utility.yul\":8764:8780   */\n      add\n        /* \"#utility.yul\":8813:8816   */\n      dup5\n        /* \"#utility.yul\":8804:8810   */\n      dup5\n        /* \"#utility.yul\":8799:8802   */\n      dup5\n        /* \"#utility.yul\":8795:8811   */\n      add\n        /* \"#utility.yul\":8792:8817   */\n      gt\n        /* \"#utility.yul\":8789:8901   */\n      iszero\n      tag_648\n      jumpi\n        /* \"#utility.yul\":8820:8899   */\n      tag_649\n      tag_435\n      jump\t// in\n    tag_649:\n        /* \"#utility.yul\":8789:8901   */\n    tag_648:\n        /* \"#utility.yul\":8910:8964   */\n      tag_650\n        /* \"#utility.yul\":8957:8963   */\n      dup5\n        /* \"#utility.yul\":8952:8955   */\n      dup3\n        /* \"#utility.yul\":8947:8950   */\n      dup6\n        /* \"#utility.yul\":8910:8964   */\n      tag_439\n      jump\t// in\n    tag_650:\n        /* \"#utility.yul\":8630:8970   */\n      pop\n        /* \"#utility.yul\":8547:8970   */\n      swap4\n      swap3\n      pop\n      pop\n      pop\n      jump\t// out\n        /* \"#utility.yul\":8989:9327   */\n    tag_441:\n        /* \"#utility.yul\":9044:9049   */\n      0x00\n        /* \"#utility.yul\":9093:9096   */\n      dup3\n        /* \"#utility.yul\":9086:9090   */\n      0x1f\n        /* \"#utility.yul\":9078:9084   */\n      dup4\n        /* \"#utility.yul\":9074:9091   */\n      add\n        /* \"#utility.yul\":9070:9097   */\n      slt\n        /* \"#utility.yul\":9060:9182   */\n      tag_652\n      jumpi\n        /* \"#utility.yul\":9101:9180   */\n      tag_653\n      tag_434\n      jump\t// in\n    tag_653:\n        /* \"#utility.yul\":9060:9182   */\n    tag_652:\n        /* \"#utility.yul\":9218:9224   */\n      dup2\n        /* \"#utility.yul\":9205:9225   */\n      calldataload\n        /* \"#utility.yul\":9243:9321   */\n      tag_654\n        /* \"#utility.yul\":9317:9320   */\n      dup5\n        /* \"#utility.yul\":9309:9315   */\n      dup3\n        /* \"#utility.yul\":9302:9306   */\n      0x20\n        /* \"#utility.yul\":9294:9300   */\n      dup7\n        /* \"#utility.yul\":9290:9307   */\n      add\n        /* \"#utility.yul\":9243:9321   */\n      tag_440\n      jump\t// in\n    tag_654:\n        /* \"#utility.yul\":9234:9321   */\n      swap2\n      pop\n        /* \"#utility.yul\":9050:9327   */\n      pop\n        /* \"#utility.yul\":8989:9327   */\n      swap3\n      swap2\n      pop\n      pop\n      jump\t// out\n        /* \"#utility.yul\":9333:10130   */\n    tag_36:\n        /* \"#utility.yul\":9419:9425   */\n      0x00\n        /* \"#utility.yul\":9427:9433   */\n      dup1\n        /* \"#utility.yul\":9435:9441   */\n      0x00\n        /* \"#utility.yul\":9484:9486   */\n      0x60\n        /* \"#utility.yul\":9472:9481   */\n      dup5\n        /* \"#utility.yul\":9463:9470   */\n      dup7\n        /* \"#utility.yul\":9459:9482   */\n      sub\n        /* \"#utility.yul\":9455:9487   */\n      slt\n        /* \"#utility.yul\":9452:9571   */\n      iszero\n      tag_656\n      jumpi\n        /* \"#utility.yul\":9490:9569   */\n      tag_657\n      tag_412\n      jump\t// in\n    tag_657:\n        /* \"#utility.yul\":9452:9571   */\n    tag_656:\n        /* \"#utility.yul\":9610:9611   */\n      0x00\n        /* \"#utility.yul\":9635:9688   */\n      tag_658\n        /* \"#utility.yul\":9680:9687   */\n      dup7\n        /* \"#utility.yul\":9671:9677   */\n      dup3\n        /* \"#utility.yul\":9660:9669   */\n      dup8\n        /* \"#utility.yul\":9656:9678   */\n      add\n        /* \"#utility.yul\":9635:9688   */\n      tag_416\n      jump\t// in\n    tag_658:\n        /* \"#utility.yul\":9625:9688   */\n      swap4\n      pop\n        /* \"#utility.yul\":9581:9698   */\n      pop\n        /* \"#utility.yul\":9765:9767   */\n      0x20\n        /* \"#utility.yul\":9754:9763   */\n      dup5\n        /* \"#utility.yul\":9750:9768   */\n      add\n        /* \"#utility.yul\":9737:9769   */\n      calldataload\n        /* \"#utility.yul\":9796:9814   */\n      0xffffffffffffffff\n        /* \"#utility.yul\":9788:9794   */\n      dup2\n        /* \"#utility.yul\":9785:9815   */\n      gt\n        /* \"#utility.yul\":9782:9899   */\n      iszero\n      tag_659\n      jumpi\n        /* \"#utility.yul\":9818:9897   */\n      tag_660\n      tag_413\n      jump\t// in\n    tag_660:\n        /* \"#utility.yul\":9782:9899   */\n    tag_659:\n        /* \"#utility.yul\":9923:9985   */\n      tag_661\n        /* \"#utility.yul\":9977:9984   */\n      dup7\n        /* \"#utility.yul\":9968:9974   */\n      dup3\n        /* \"#utility.yul\":9957:9966   */\n      dup8\n        /* \"#utility.yul\":9953:9975   */\n      add\n        /* \"#utility.yul\":9923:9985   */\n      tag_441\n      jump\t// in\n    tag_661:\n        /* \"#utility.yul\":9913:9985   */\n      swap3\n      pop\n        /* \"#utility.yul\":9708:9995   */\n      pop\n        /* \"#utility.yul\":10034:10036   */\n      0x40\n        /* \"#utility.yul\":10060:10113   */\n      tag_662\n        /* \"#utility.yul\":10105:10112   */\n      dup7\n        /* \"#utility.yul\":10096:10102   */\n      dup3\n        /* \"#utility.yul\":10085:10094   */\n      dup8\n        /* \"#utility.yul\":10081:10103   */\n      add\n        /* \"#utility.yul\":10060:10113   */\n      tag_416\n      jump\t// in\n    tag_662:\n        /* \"#utility.yul\":10050:10113   */\n      swap2\n      pop\n        /* \"#utility.yul\":10005:10123   */\n      pop\n        /* \"#utility.yul\":9333:10130   */\n      swap3\n      pop\n      swap3\n      pop\n      swap3\n      jump\t// out\n        /* \"#utility.yul\":10136:10468   */\n    tag_442:\n        /* \"#utility.yul\":10234:10238   */\n      0x00\n        /* \"#utility.yul\":10324:10342   */\n      0xffffffffffffffff\n        /* \"#utility.yul\":10316:10322   */\n      dup3\n        /* \"#utility.yul\":10313:10343   */\n      gt\n        /* \"#utility.yul\":10310:10366   */\n      iszero\n      tag_664\n      jumpi\n        /* \"#utility.yul\":10346:10364   */\n      tag_665\n      tag_202\n      jump\t// in\n    tag_665:\n        /* \"#utility.yul\":10310:10366   */\n    tag_664:\n        /* \"#utility.yul\":10396:10400   */\n      0x20\n        /* \"#utility.yul\":10388:10394   */\n      dup3\n        /* \"#utility.yul\":10384:10401   */\n      mul\n        /* \"#utility.yul\":10376:10401   */\n      swap1\n      pop\n        /* \"#utility.yul\":10456:10460   */\n      0x20\n        /* \"#utility.yul\":10450:10454   */\n      dup2\n        /* \"#utility.yul\":10446:10461   */\n      add\n        /* \"#utility.yul\":10438:10461   */\n      swap1\n      pop\n        /* \"#utility.yul\":10136:10468   */\n      swap2\n      swap1\n      pop\n      jump\t// out\n        /* \"#utility.yul\":10474:10591   */\n    tag_443:\n        /* \"#utility.yul\":10583:10584   */\n      0x00\n        /* \"#utility.yul\":10580:10581   */\n      dup1\n        /* \"#utility.yul\":10573:10585   */\n      revert\n        /* \"#utility.yul\":10597:10714   */\n    tag_444:\n        /* \"#utility.yul\":10706:10707   */\n      0x00\n        /* \"#utility.yul\":10703:10704   */\n      dup1\n        /* \"#utility.yul\":10696:10708   */\n      revert\n        /* \"#utility.yul\":10720:10837   */\n    tag_445:\n        /* \"#utility.yul\":10829:10830   */\n      0x00\n        /* \"#utility.yul\":10826:10827   */\n      dup1\n        /* \"#utility.yul\":10819:10831   */\n      revert\n        /* \"#utility.yul\":10843:10965   */\n    tag_446:\n        /* \"#utility.yul\":10916:10940   */\n      tag_670\n        /* \"#utility.yul\":10934:10939   */\n      dup2\n        /* \"#utility.yul\":10916:10940   */\n      tag_422\n      jump\t// in\n    tag_670:\n        /* \"#utility.yul\":10909:10914   */\n      dup2\n        /* \"#utility.yul\":10906:10941   */\n      eq\n        /* \"#utility.yul\":10896:10959   */\n      tag_671\n      jumpi\n        /* \"#utility.yul\":10955:10956   */\n      0x00\n        /* \"#utility.yul\":10952:10953   */\n      dup1\n        /* \"#utility.yul\":10945:10957   */\n      revert\n        /* \"#utility.yul\":10896:10959   */\n    tag_671:\n        /* \"#utility.yul\":10843:10965   */\n      pop\n      jump\t// out\n        /* \"#utility.yul\":10971:11110   */\n    tag_447:\n        /* \"#utility.yul\":11017:11022   */\n      0x00\n        /* \"#utility.yul\":11055:11061   */\n      dup2\n        /* \"#utility.yul\":11042:11062   */\n      calldataload\n        /* \"#utility.yul\":11033:11062   */\n      swap1\n      pop\n        /* \"#utility.yul\":11071:11104   */\n      tag_673\n        /* \"#utility.yul\":11098:11103   */\n      dup2\n        /* \"#utility.yul\":11071:11104   */\n      tag_446\n      jump\t// in\n    tag_673:\n        /* \"#utility.yul\":10971:11110   */\n      swap3\n      swap2\n      pop\n      pop\n      jump\t// out\n        /* \"#utility.yul\":11116:11236   */\n    tag_448:\n        /* \"#utility.yul\":11188:11211   */\n      tag_675\n        /* \"#utility.yul\":11205:11210   */\n      dup2\n        /* \"#utility.yul\":11188:11211   */\n      tag_418\n      jump\t// in\n    tag_675:\n        /* \"#utility.yul\":11181:11186   */\n      dup2\n        /* \"#utility.yul\":11178:11212   */\n      eq\n        /* \"#utility.yul\":11168:11230   */\n      tag_676\n      jumpi\n        /* \"#utility.yul\":11226:11227   */\n      0x00\n        /* \"#utility.yul\":11223:11224   */\n      dup1\n        /* \"#utility.yul\":11216:11228   */\n      revert\n        /* \"#utility.yul\":11168:11230   */\n    tag_676:\n        /* \"#utility.yul\":11116:11236   */\n      pop\n      jump\t// out\n        /* \"#utility.yul\":11242:11379   */\n    tag_449:\n        /* \"#utility.yul\":11287:11292   */\n      0x00\n        /* \"#utility.yul\":11325:11331   */\n      dup2\n        /* \"#utility.yul\":11312:11332   */\n      calldataload\n        /* \"#utility.yul\":11303:11332   */\n      swap1\n      pop\n        /* \"#utility.yul\":11341:11373   */\n      tag_678\n        /* \"#utility.yul\":11367:11372   */\n      dup2\n        /* \"#utility.yul\":11341:11373   */\n      tag_448\n      jump\t// in\n    tag_678:\n        /* \"#utility.yul\":11242:11379   */\n      swap3\n      swap2\n      pop\n      pop\n      jump\t// out\n        /* \"#utility.yul\":11385:11693   */\n    tag_450:\n        /* \"#utility.yul\":11447:11451   */\n      0x00\n        /* \"#utility.yul\":11537:11555   */\n      0xffffffffffffffff\n        /* \"#utility.yul\":11529:11535   */\n      dup3\n        /* \"#utility.yul\":11526:11556   */\n      gt\n        /* \"#utility.yul\":11523:11579   */\n      iszero\n      tag_680\n      jumpi\n        /* \"#utility.yul\":11559:11577   */\n      tag_681\n      tag_202\n      jump\t// in\n    tag_681:\n        /* \"#utility.yul\":11523:11579   */\n    tag_680:\n        /* \"#utility.yul\":11597:11626   */\n      tag_682\n        /* \"#utility.yul\":11619:11625   */\n      dup3\n        /* \"#utility.yul\":11597:11626   */\n      tag_427\n      jump\t// in\n    tag_682:\n        /* \"#utility.yul\":11589:11626   */\n      swap1\n      pop\n        /* \"#utility.yul\":11681:11685   */\n      0x20\n        /* \"#utility.yul\":11675:11679   */\n      dup2\n        /* \"#utility.yul\":11671:11686   */\n      add\n        /* \"#utility.yul\":11663:11686   */\n      swap1\n      pop\n        /* \"#utility.yul\":11385:11693   */\n      swap2\n      swap1\n      pop\n      jump\t// out\n        /* \"#utility.yul\":11699:12124   */\n    tag_451:\n        /* \"#utility.yul\":11777:11782   */\n      0x00\n        /* \"#utility.yul\":11802:11868   */\n      tag_684\n        /* \"#utility.yul\":11818:11867   */\n      tag_685\n        /* \"#utility.yul\":11860:11866   */\n      dup5\n        /* \"#utility.yul\":11818:11867   */\n      tag_450\n      jump\t// in\n    tag_685:\n        /* \"#utility.yul\":11802:11868   */\n      tag_437\n      jump\t// in\n    tag_684:\n        /* \"#utility.yul\":11793:11868   */\n      swap1\n      pop\n        /* \"#utility.yul\":11891:11897   */\n      dup3\n        /* \"#utility.yul\":11884:11889   */\n      dup2\n        /* \"#utility.yul\":11877:11898   */\n      mstore\n        /* \"#utility.yul\":11929:11933   */\n      0x20\n        /* \"#utility.yul\":11922:11927   */\n      dup2\n        /* \"#utility.yul\":11918:11934   */\n      add\n        /* \"#utility.yul\":11967:11970   */\n      dup5\n        /* \"#utility.yul\":11958:11964   */\n      dup5\n        /* \"#utility.yul\":11953:11956   */\n      dup5\n        /* \"#utility.yul\":11949:11965   */\n      add\n        /* \"#utility.yul\":11946:11971   */\n      gt\n        /* \"#utility.yul\":11943:12055   */\n      iszero\n      tag_686\n      jumpi\n        /* \"#utility.yul\":11974:12053   */\n      tag_687\n      tag_435\n      jump\t// in\n    tag_687:\n        /* \"#utility.yul\":11943:12055   */\n    tag_686:\n        /* \"#utility.yul\":12064:12118   */\n      tag_688\n        /* \"#utility.yul\":12111:12117   */\n      dup5\n        /* \"#utility.yul\":12106:12109   */\n      dup3\n        /* \"#utility.yul\":12101:12104   */\n      dup6\n        /* \"#utility.yul\":12064:12118   */\n      tag_439\n      jump\t// in\n    tag_688:\n        /* \"#utility.yul\":11783:12124   */\n      pop\n        /* \"#utility.yul\":11699:12124   */\n      swap4\n      swap3\n      pop\n      pop\n      pop\n      jump\t// out\n        /* \"#utility.yul\":12144:12484   */\n    tag_452:\n        /* \"#utility.yul\":12200:12205   */\n      0x00\n        /* \"#utility.yul\":12249:12252   */\n      dup3\n        /* \"#utility.yul\":12242:12246   */\n      0x1f\n        /* \"#utility.yul\":12234:12240   */\n      dup4\n        /* \"#utility.yul\":12230:12247   */\n      add\n        /* \"#utility.yul\":12226:12253   */\n      slt\n        /* \"#utility.yul\":12216:12338   */\n      tag_690\n      jumpi\n        /* \"#utility.yul\":12257:12336   */\n      tag_691\n      tag_434\n      jump\t// in\n    tag_691:\n        /* \"#utility.yul\":12216:12338   */\n    tag_690:\n        /* \"#utility.yul\":12374:12380   */\n      dup2\n        /* \"#utility.yul\":12361:12381   */\n      calldataload\n        /* \"#utility.yul\":12399:12478   */\n      tag_692\n        /* \"#utility.yul\":12474:12477   */\n      dup5\n        /* \"#utility.yul\":12466:12472   */\n      dup3\n        /* \"#utility.yul\":12459:12463   */\n      0x20\n        /* \"#utility.yul\":12451:12457   */\n      dup7\n        /* \"#utility.yul\":12447:12464   */\n      add\n        /* \"#utility.yul\":12399:12478   */\n      tag_451\n      jump\t// in\n    tag_692:\n        /* \"#utility.yul\":12390:12478   */\n      swap2\n      pop\n        /* \"#utility.yul\":12206:12484   */\n      pop\n        /* \"#utility.yul\":12144:12484   */\n      swap3\n      swap2\n      pop\n      pop\n      jump\t// out\n        /* \"#utility.yul\":12490:12603   */\n    tag_453:\n        /* \"#utility.yul\":12577:12578   */\n      0x04\n        /* \"#utility.yul\":12570:12575   */\n      dup2\n        /* \"#utility.yul\":12567:12579   */\n      lt\n        /* \"#utility.yul\":12557:12597   */\n      tag_694\n      jumpi\n        /* \"#utility.yul\":12593:12594   */\n      0x00\n        /* \"#utility.yul\":12590:12591   */\n      dup1\n        /* \"#utility.yul\":12583:12595   */\n      revert\n        /* \"#utility.yul\":12557:12597   */\n    tag_694:\n        /* \"#utility.yul\":12490:12603   */\n      pop\n      jump\t// out\n        /* \"#utility.yul\":12609:12776   */\n    tag_454:\n        /* \"#utility.yul\":12669:12674   */\n      0x00\n        /* \"#utility.yul\":12707:12713   */\n      dup2\n        /* \"#utility.yul\":12694:12714   */\n      calldataload\n        /* \"#utility.yul\":12685:12714   */\n      swap1\n      pop\n        /* \"#utility.yul\":12723:12770   */\n      tag_696\n        /* \"#utility.yul\":12764:12769   */\n      dup2\n        /* \"#utility.yul\":12723:12770   */\n      tag_453\n      jump\t// in\n    tag_696:\n        /* \"#utility.yul\":12609:12776   */\n      swap3\n      swap2\n      pop\n      pop\n      jump\t// out\n        /* \"#utility.yul\":12801:15404   */\n    tag_455:\n        /* \"#utility.yul\":12871:12876   */\n      0x00\n        /* \"#utility.yul\":12915:12921   */\n      0x0140\n        /* \"#utility.yul\":12903:12912   */\n      dup3\n        /* \"#utility.yul\":12898:12901   */\n      dup5\n        /* \"#utility.yul\":12894:12913   */\n      sub\n        /* \"#utility.yul\":12890:12922   */\n      slt\n        /* \"#utility.yul\":12887:13006   */\n      iszero\n      tag_698\n      jumpi\n        /* \"#utility.yul\":12925:13004   */\n      tag_699\n      tag_444\n      jump\t// in\n    tag_699:\n        /* \"#utility.yul\":12887:13006   */\n    tag_698:\n        /* \"#utility.yul\":13024:13047   */\n      tag_700\n        /* \"#utility.yul\":13040:13046   */\n      0x0140\n        /* \"#utility.yul\":13024:13047   */\n      tag_437\n      jump\t// in\n    tag_700:\n        /* \"#utility.yul\":13015:13047   */\n      swap1\n      pop\n        /* \"#utility.yul\":13107:13108   */\n      0x00\n        /* \"#utility.yul\":13147:13196   */\n      tag_701\n        /* \"#utility.yul\":13192:13195   */\n      dup5\n        /* \"#utility.yul\":13183:13189   */\n      dup3\n        /* \"#utility.yul\":13172:13181   */\n      dup6\n        /* \"#utility.yul\":13168:13190   */\n      add\n        /* \"#utility.yul\":13147:13196   */\n      tag_447\n      jump\t// in\n    tag_701:\n        /* \"#utility.yul\":13140:13144   */\n      0x00\n        /* \"#utility.yul\":13133:13138   */\n      dup4\n        /* \"#utility.yul\":13129:13145   */\n      add\n        /* \"#utility.yul\":13122:13197   */\n      mstore\n        /* \"#utility.yul\":13057:13208   */\n      pop\n        /* \"#utility.yul\":13267:13269   */\n      0x20\n        /* \"#utility.yul\":13308:13357   */\n      tag_702\n        /* \"#utility.yul\":13353:13356   */\n      dup5\n        /* \"#utility.yul\":13344:13350   */\n      dup3\n        /* \"#utility.yul\":13333:13342   */\n      dup6\n        /* \"#utility.yul\":13329:13351   */\n      add\n        /* \"#utility.yul\":13308:13357   */\n      tag_416\n      jump\t// in\n    tag_702:\n        /* \"#utility.yul\":13301:13305   */\n      0x20\n        /* \"#utility.yul\":13294:13299   */\n      dup4\n        /* \"#utility.yul\":13290:13306   */\n      add\n        /* \"#utility.yul\":13283:13358   */\n      mstore\n        /* \"#utility.yul\":13218:13369   */\n      pop\n        /* \"#utility.yul\":13434:13436   */\n      0x40\n        /* \"#utility.yul\":13475:13523   */\n      tag_703\n        /* \"#utility.yul\":13519:13522   */\n      dup5\n        /* \"#utility.yul\":13510:13516   */\n      dup3\n        /* \"#utility.yul\":13499:13508   */\n      dup6\n        /* \"#utility.yul\":13495:13517   */\n      add\n        /* \"#utility.yul\":13475:13523   */\n      tag_449\n      jump\t// in\n    tag_703:\n        /* \"#utility.yul\":13468:13472   */\n      0x40\n        /* \"#utility.yul\":13461:13466   */\n      dup4\n        /* \"#utility.yul\":13457:13473   */\n      add\n        /* \"#utility.yul\":13450:13524   */\n      mstore\n        /* \"#utility.yul\":13379:13535   */\n      pop\n        /* \"#utility.yul\":13601:13603   */\n      0x60\n        /* \"#utility.yul\":13642:13690   */\n      tag_704\n        /* \"#utility.yul\":13686:13689   */\n      dup5\n        /* \"#utility.yul\":13677:13683   */\n      dup3\n        /* \"#utility.yul\":13666:13675   */\n      dup6\n        /* \"#utility.yul\":13662:13684   */\n      add\n        /* \"#utility.yul\":13642:13690   */\n      tag_449\n      jump\t// in\n    tag_704:\n        /* \"#utility.yul\":13635:13639   */\n      0x60\n        /* \"#utility.yul\":13628:13633   */\n      dup4\n        /* \"#utility.yul\":13624:13640   */\n      add\n        /* \"#utility.yul\":13617:13691   */\n      mstore\n        /* \"#utility.yul\":13545:13702   */\n      pop\n        /* \"#utility.yul\":13767:13770   */\n      0x80\n        /* \"#utility.yul\":13809:13857   */\n      tag_705\n        /* \"#utility.yul\":13853:13856   */\n      dup5\n        /* \"#utility.yul\":13844:13850   */\n      dup3\n        /* \"#utility.yul\":13833:13842   */\n      dup6\n        /* \"#utility.yul\":13829:13851   */\n      add\n        /* \"#utility.yul\":13809:13857   */\n      tag_449\n      jump\t// in\n    tag_705:\n        /* \"#utility.yul\":13802:13806   */\n      0x80\n        /* \"#utility.yul\":13795:13800   */\n      dup4\n        /* \"#utility.yul\":13791:13807   */\n      add\n        /* \"#utility.yul\":13784:13858   */\n      mstore\n        /* \"#utility.yul\":13712:13869   */\n      pop\n        /* \"#utility.yul\":13956:13959   */\n      0xa0\n        /* \"#utility.yul\":13945:13954   */\n      dup3\n        /* \"#utility.yul\":13941:13960   */\n      add\n        /* \"#utility.yul\":13928:13961   */\n      calldataload\n        /* \"#utility.yul\":13988:14006   */\n      0xffffffffffffffff\n        /* \"#utility.yul\":13980:13986   */\n      dup2\n        /* \"#utility.yul\":13977:14007   */\n      gt\n        /* \"#utility.yul\":13974:14091   */\n      iszero\n      tag_706\n      jumpi\n        /* \"#utility.yul\":14010:14089   */\n      tag_707\n      tag_445\n      jump\t// in\n    tag_707:\n        /* \"#utility.yul\":13974:14091   */\n    tag_706:\n        /* \"#utility.yul\":14130:14189   */\n      tag_708\n        /* \"#utility.yul\":14185:14188   */\n      dup5\n        /* \"#utility.yul\":14176:14182   */\n      dup3\n        /* \"#utility.yul\":14165:14174   */\n      dup6\n        /* \"#utility.yul\":14161:14183   */\n      add\n        /* \"#utility.yul\":14130:14189   */\n      tag_452\n      jump\t// in\n    tag_708:\n        /* \"#utility.yul\":14123:14127   */\n      0xa0\n        /* \"#utility.yul\":14116:14121   */\n      dup4\n        /* \"#utility.yul\":14112:14128   */\n      add\n        /* \"#utility.yul\":14105:14190   */\n      mstore\n        /* \"#utility.yul\":13879:14201   */\n      pop\n        /* \"#utility.yul\":14287:14290   */\n      0xc0\n        /* \"#utility.yul\":14276:14285   */\n      dup3\n        /* \"#utility.yul\":14272:14291   */\n      add\n        /* \"#utility.yul\":14259:14292   */\n      calldataload\n        /* \"#utility.yul\":14319:14337   */\n      0xffffffffffffffff\n        /* \"#utility.yul\":14311:14317   */\n      dup2\n        /* \"#utility.yul\":14308:14338   */\n      gt\n        /* \"#utility.yul\":14305:14422   */\n      iszero\n      tag_709\n      jumpi\n        /* \"#utility.yul\":14341:14420   */\n      tag_710\n      tag_445\n      jump\t// in\n    tag_710:\n        /* \"#utility.yul\":14305:14422   */\n    tag_709:\n        /* \"#utility.yul\":14461:14520   */\n      tag_711\n        /* \"#utility.yul\":14516:14519   */\n      dup5\n        /* \"#utility.yul\":14507:14513   */\n      dup3\n        /* \"#utility.yul\":14496:14505   */\n      dup6\n        /* \"#utility.yul\":14492:14514   */\n      add\n        /* \"#utility.yul\":14461:14520   */\n      tag_452\n      jump\t// in\n    tag_711:\n        /* \"#utility.yul\":14454:14458   */\n      0xc0\n        /* \"#utility.yul\":14447:14452   */\n      dup4\n        /* \"#utility.yul\":14443:14459   */\n      add\n        /* \"#utility.yul\":14436:14521   */\n      mstore\n        /* \"#utility.yul\":14211:14532   */\n      pop\n        /* \"#utility.yul\":14593:14596   */\n      0xe0\n        /* \"#utility.yul\":14635:14698   */\n      tag_712\n        /* \"#utility.yul\":14694:14697   */\n      dup5\n        /* \"#utility.yul\":14685:14691   */\n      dup3\n        /* \"#utility.yul\":14674:14683   */\n      dup6\n        /* \"#utility.yul\":14670:14692   */\n      add\n        /* \"#utility.yul\":14635:14698   */\n      tag_454\n      jump\t// in\n    tag_712:\n        /* \"#utility.yul\":14628:14632   */\n      0xe0\n        /* \"#utility.yul\":14621:14626   */\n      dup4\n        /* \"#utility.yul\":14617:14633   */\n      add\n        /* \"#utility.yul\":14610:14699   */\n      mstore\n        /* \"#utility.yul\":14542:14710   */\n      pop\n        /* \"#utility.yul\":14811:14814   */\n      0x0100\n        /* \"#utility.yul\":14800:14809   */\n      dup3\n        /* \"#utility.yul\":14796:14815   */\n      add\n        /* \"#utility.yul\":14783:14816   */\n      calldataload\n        /* \"#utility.yul\":14843:14861   */\n      0xffffffffffffffff\n        /* \"#utility.yul\":14835:14841   */\n      dup2\n        /* \"#utility.yul\":14832:14862   */\n      gt\n        /* \"#utility.yul\":14829:14946   */\n      iszero\n      tag_713\n      jumpi\n        /* \"#utility.yul\":14865:14944   */\n      tag_714\n      tag_445\n      jump\t// in\n    tag_714:\n        /* \"#utility.yul\":14829:14946   */\n    tag_713:\n        /* \"#utility.yul\":14987:15046   */\n      tag_715\n        /* \"#utility.yul\":15042:15045   */\n      dup5\n        /* \"#utility.yul\":15033:15039   */\n      dup3\n        /* \"#utility.yul\":15022:15031   */\n      dup6\n        /* \"#utility.yul\":15018:15040   */\n      add\n        /* \"#utility.yul\":14987:15046   */\n      tag_452\n      jump\t// in\n    tag_715:\n        /* \"#utility.yul\":14978:14984   */\n      0x0100\n        /* \"#utility.yul\":14971:14976   */\n      dup4\n        /* \"#utility.yul\":14967:14985   */\n      add\n        /* \"#utility.yul\":14960:15047   */\n      mstore\n        /* \"#utility.yul\":14720:15058   */\n      pop\n        /* \"#utility.yul\":15150:15153   */\n      0x0120\n        /* \"#utility.yul\":15139:15148   */\n      dup3\n        /* \"#utility.yul\":15135:15154   */\n      add\n        /* \"#utility.yul\":15122:15155   */\n      calldataload\n        /* \"#utility.yul\":15182:15200   */\n      0xffffffffffffffff\n        /* \"#utility.yul\":15174:15180   */\n      dup2\n        /* \"#utility.yul\":15171:15201   */\n      gt\n        /* \"#utility.yul\":15168:15285   */\n      iszero\n      tag_716\n      jumpi\n        /* \"#utility.yul\":15204:15283   */\n      tag_717\n      tag_445\n      jump\t// in\n    tag_717:\n        /* \"#utility.yul\":15168:15285   */\n    tag_716:\n        /* \"#utility.yul\":15326:15385   */\n      tag_718\n        /* \"#utility.yul\":15381:15384   */\n      dup5\n        /* \"#utility.yul\":15372:15378   */\n      dup3\n        /* \"#utility.yul\":15361:15370   */\n      dup6\n        /* \"#utility.yul\":15357:15379   */\n      add\n        /* \"#utility.yul\":15326:15385   */\n      tag_452\n      jump\t// in\n    tag_718:\n        /* \"#utility.yul\":15317:15323   */\n      0x0120\n        /* \"#utility.yul\":15310:15315   */\n      dup4\n        /* \"#utility.yul\":15306:15324   */\n      add\n        /* \"#utility.yul\":15299:15386   */\n      mstore\n        /* \"#utility.yul\":15068:15397   */\n      pop\n        /* \"#utility.yul\":12801:15404   */\n      swap3\n      swap2\n      pop\n      pop\n      jump\t// out\n        /* \"#utility.yul\":15431:16409   */\n    tag_456:\n        /* \"#utility.yul\":15548:15553   */\n      0x00\n        /* \"#utility.yul\":15573:15675   */\n      tag_720\n        /* \"#utility.yul\":15589:15674   */\n      tag_721\n        /* \"#utility.yul\":15667:15673   */\n      dup5\n        /* \"#utility.yul\":15589:15674   */\n      tag_442\n      jump\t// in\n    tag_721:\n        /* \"#utility.yul\":15573:15675   */\n      tag_437\n      jump\t// in\n    tag_720:\n        /* \"#utility.yul\":15564:15675   */\n      swap1\n      pop\n        /* \"#utility.yul\":15695:15700   */\n      dup1\n        /* \"#utility.yul\":15724:15730   */\n      dup4\n        /* \"#utility.yul\":15717:15722   */\n      dup3\n        /* \"#utility.yul\":15710:15731   */\n      mstore\n        /* \"#utility.yul\":15758:15762   */\n      0x20\n        /* \"#utility.yul\":15751:15756   */\n      dup3\n        /* \"#utility.yul\":15747:15763   */\n      add\n        /* \"#utility.yul\":15740:15763   */\n      swap1\n      pop\n        /* \"#utility.yul\":15811:15815   */\n      0x20\n        /* \"#utility.yul\":15803:15809   */\n      dup5\n        /* \"#utility.yul\":15799:15816   */\n      mul\n        /* \"#utility.yul\":15791:15797   */\n      dup4\n        /* \"#utility.yul\":15787:15817   */\n      add\n        /* \"#utility.yul\":15840:15843   */\n      dup6\n        /* \"#utility.yul\":15832:15838   */\n      dup2\n        /* \"#utility.yul\":15829:15844   */\n      gt\n        /* \"#utility.yul\":15826:15948   */\n      iszero\n      tag_722\n      jumpi\n        /* \"#utility.yul\":15859:15938   */\n      tag_723\n      tag_443\n      jump\t// in\n    tag_723:\n        /* \"#utility.yul\":15826:15948   */\n    tag_722:\n        /* \"#utility.yul\":15974:15980   */\n      dup4\n        /* \"#utility.yul\":15957:16403   */\n    tag_724:\n        /* \"#utility.yul\":15991:15997   */\n      dup2\n        /* \"#utility.yul\":15986:15989   */\n      dup2\n        /* \"#utility.yul\":15983:15998   */\n      lt\n        /* \"#utility.yul\":15957:16403   */\n      iszero\n      tag_726\n      jumpi\n        /* \"#utility.yul\":16080:16083   */\n      dup1\n        /* \"#utility.yul\":16067:16084   */\n      calldataload\n        /* \"#utility.yul\":16116:16134   */\n      0xffffffffffffffff\n        /* \"#utility.yul\":16103:16114   */\n      dup2\n        /* \"#utility.yul\":16100:16135   */\n      gt\n        /* \"#utility.yul\":16097:16219   */\n      iszero\n      tag_727\n      jumpi\n        /* \"#utility.yul\":16138:16217   */\n      tag_728\n      tag_434\n      jump\t// in\n    tag_728:\n        /* \"#utility.yul\":16097:16219   */\n    tag_727:\n        /* \"#utility.yul\":16262:16273   */\n      dup1\n        /* \"#utility.yul\":16254:16260   */\n      dup7\n        /* \"#utility.yul\":16250:16274   */\n      add\n        /* \"#utility.yul\":16300:16358   */\n      tag_729\n        /* \"#utility.yul\":16354:16357   */\n      dup10\n        /* \"#utility.yul\":16342:16352   */\n      dup3\n        /* \"#utility.yul\":16300:16358   */\n      tag_455\n      jump\t// in\n    tag_729:\n        /* \"#utility.yul\":16295:16298   */\n      dup6\n        /* \"#utility.yul\":16288:16359   */\n      mstore\n        /* \"#utility.yul\":16388:16392   */\n      0x20\n        /* \"#utility.yul\":16383:16386   */\n      dup6\n        /* \"#utility.yul\":16379:16393   */\n      add\n        /* \"#utility.yul\":16372:16393   */\n      swap5\n      pop\n        /* \"#utility.yul\":16033:16403   */\n      pop\n      pop\n        /* \"#utility.yul\":16017:16021   */\n      0x20\n        /* \"#utility.yul\":16012:16015   */\n      dup2\n        /* \"#utility.yul\":16008:16022   */\n      add\n        /* \"#utility.yul\":16001:16022   */\n      swap1\n      pop\n        /* \"#utility.yul\":15957:16403   */\n      jump(tag_724)\n    tag_726:\n        /* \"#utility.yul\":15961:15982   */\n      pop\n        /* \"#utility.yul\":15554:16409   */\n      pop\n      pop\n        /* \"#utility.yul\":15431:16409   */\n      swap4\n      swap3\n      pop\n      pop\n      pop\n      jump\t// out\n        /* \"#utility.yul\":16436:16848   */\n    tag_457:\n        /* \"#utility.yul\":16528:16533   */\n      0x00\n        /* \"#utility.yul\":16577:16580   */\n      dup3\n        /* \"#utility.yul\":16570:16574   */\n      0x1f\n        /* \"#utility.yul\":16562:16568   */\n      dup4\n        /* \"#utility.yul\":16558:16575   */\n      add\n        /* \"#utility.yul\":16554:16581   */\n      slt\n        /* \"#utility.yul\":16544:16666   */\n      tag_731\n      jumpi\n        /* \"#utility.yul\":16585:16664   */\n      tag_732\n      tag_434\n      jump\t// in\n    tag_732:\n        /* \"#utility.yul\":16544:16666   */\n    tag_731:\n        /* \"#utility.yul\":16702:16708   */\n      dup2\n        /* \"#utility.yul\":16689:16709   */\n      calldataload\n        /* \"#utility.yul\":16727:16842   */\n      tag_733\n        /* \"#utility.yul\":16838:16841   */\n      dup5\n        /* \"#utility.yul\":16830:16836   */\n      dup3\n        /* \"#utility.yul\":16823:16827   */\n      0x20\n        /* \"#utility.yul\":16815:16821   */\n      dup7\n        /* \"#utility.yul\":16811:16828   */\n      add\n        /* \"#utility.yul\":16727:16842   */\n      tag_456\n      jump\t// in\n    tag_733:\n        /* \"#utility.yul\":16718:16842   */\n      swap2\n      pop\n        /* \"#utility.yul\":16534:16848   */\n      pop\n        /* \"#utility.yul\":16436:16848   */\n      swap3\n      swap2\n      pop\n      pop\n      jump\t// out\n        /* \"#utility.yul\":16854:17435   */\n    tag_43:\n        /* \"#utility.yul\":16959:16965   */\n      0x00\n        /* \"#utility.yul\":17008:17010   */\n      0x20\n        /* \"#utility.yul\":16996:17005   */\n      dup3\n        /* \"#utility.yul\":16987:16994   */\n      dup5\n        /* \"#utility.yul\":16983:17006   */\n      sub\n        /* \"#utility.yul\":16979:17011   */\n      slt\n        /* \"#utility.yul\":16976:17095   */\n      iszero\n      tag_735\n      jumpi\n        /* \"#utility.yul\":17014:17093   */\n      tag_736\n      tag_412\n      jump\t// in\n    tag_736:\n        /* \"#utility.yul\":16976:17095   */\n    tag_735:\n        /* \"#utility.yul\":17162:17163   */\n      0x00\n        /* \"#utility.yul\":17151:17160   */\n      dup3\n        /* \"#utility.yul\":17147:17164   */\n      add\n        /* \"#utility.yul\":17134:17165   */\n      calldataload\n        /* \"#utility.yul\":17192:17210   */\n      0xffffffffffffffff\n        /* \"#utility.yul\":17184:17190   */\n      dup2\n        /* \"#utility.yul\":17181:17211   */\n      gt\n        /* \"#utility.yul\":17178:17295   */\n      iszero\n      tag_737\n      jumpi\n        /* \"#utility.yul\":17214:17293   */\n      tag_738\n      tag_413\n      jump\t// in\n    tag_738:\n        /* \"#utility.yul\":17178:17295   */\n    tag_737:\n        /* \"#utility.yul\":17319:17418   */\n      tag_739\n        /* \"#utility.yul\":17410:17417   */\n      dup5\n        /* \"#utility.yul\":17401:17407   */\n      dup3\n        /* \"#utility.yul\":17390:17399   */\n      dup6\n        /* \"#utility.yul\":17386:17408   */\n      add\n        /* \"#utility.yul\":17319:17418   */\n      tag_457\n      jump\t// in\n    tag_739:\n        /* \"#utility.yul\":17309:17418   */\n      swap2\n      pop\n        /* \"#utility.yul\":17105:17428   */\n      pop\n        /* \"#utility.yul\":16854:17435   */\n      swap3\n      swap2\n      pop\n      pop\n      jump\t// out\n        /* \"#utility.yul\":17441:17555   */\n    tag_458:\n        /* \"#utility.yul\":17508:17514   */\n      0x00\n        /* \"#utility.yul\":17542:17547   */\n      dup2\n        /* \"#utility.yul\":17536:17548   */\n      mload\n        /* \"#utility.yul\":17526:17548   */\n      swap1\n      pop\n        /* \"#utility.yul\":17441:17555   */\n      swap2\n      swap1\n      pop\n      jump\t// out\n        /* \"#utility.yul\":17561:17745   */\n    tag_459:\n        /* \"#utility.yul\":17660:17671   */\n      0x00\n        /* \"#utility.yul\":17694:17700   */\n      dup3\n        /* \"#utility.yul\":17689:17692   */\n      dup3\n        /* \"#utility.yul\":17682:17701   */\n      mstore\n        /* \"#utility.yul\":17734:17738   */\n      0x20\n        /* \"#utility.yul\":17729:17732   */\n      dup3\n        /* \"#utility.yul\":17725:17739   */\n      add\n        /* \"#utility.yul\":17710:17739   */\n      swap1\n      pop\n        /* \"#utility.yul\":17561:17745   */\n      swap3\n      swap2\n      pop\n      pop\n      jump\t// out\n        /* \"#utility.yul\":17751:17883   */\n    tag_460:\n        /* \"#utility.yul\":17818:17822   */\n      0x00\n        /* \"#utility.yul\":17841:17844   */\n      dup2\n        /* \"#utility.yul\":17833:17844   */\n      swap1\n      pop\n        /* \"#utility.yul\":17871:17875   */\n      0x20\n        /* \"#utility.yul\":17866:17869   */\n      dup3\n        /* \"#utility.yul\":17862:17876   */\n      add\n        /* \"#utility.yul\":17854:17876   */\n      swap1\n      pop\n        /* \"#utility.yul\":17751:17883   */\n      swap2\n      swap1\n      pop\n      jump\t// out\n        /* \"#utility.yul\":17889:18068   */\n    tag_461:\n        /* \"#utility.yul\":17958:17968   */\n      0x00\n        /* \"#utility.yul\":17979:18025   */\n      tag_744\n        /* \"#utility.yul\":18021:18024   */\n      dup4\n        /* \"#utility.yul\":18013:18019   */\n      dup4\n        /* \"#utility.yul\":17979:18025   */\n      tag_417\n      jump\t// in\n    tag_744:\n        /* \"#utility.yul\":18057:18061   */\n      0x20\n        /* \"#utility.yul\":18052:18055   */\n      dup4\n        /* \"#utility.yul\":18048:18062   */\n      add\n        /* \"#utility.yul\":18034:18062   */\n      swap1\n      pop\n        /* \"#utility.yul\":17889:18068   */\n      swap3\n      swap2\n      pop\n      pop\n      jump\t// out\n        /* \"#utility.yul\":18074:18187   */\n    tag_462:\n        /* \"#utility.yul\":18144:18148   */\n      0x00\n        /* \"#utility.yul\":18176:18180   */\n      0x20\n        /* \"#utility.yul\":18171:18174   */\n      dup3\n        /* \"#utility.yul\":18167:18181   */\n      add\n        /* \"#utility.yul\":18159:18181   */\n      swap1\n      pop\n        /* \"#utility.yul\":18074:18187   */\n      swap2\n      swap1\n      pop\n      jump\t// out\n        /* \"#utility.yul\":18223:18955   */\n    tag_463:\n        /* \"#utility.yul\":18342:18345   */\n      0x00\n        /* \"#utility.yul\":18371:18425   */\n      tag_747\n        /* \"#utility.yul\":18419:18424   */\n      dup3\n        /* \"#utility.yul\":18371:18425   */\n      tag_458\n      jump\t// in\n    tag_747:\n        /* \"#utility.yul\":18441:18527   */\n      tag_748\n        /* \"#utility.yul\":18520:18526   */\n      dup2\n        /* \"#utility.yul\":18515:18518   */\n      dup6\n        /* \"#utility.yul\":18441:18527   */\n      tag_459\n      jump\t// in\n    tag_748:\n        /* \"#utility.yul\":18434:18527   */\n      swap4\n      pop\n        /* \"#utility.yul\":18551:18607   */\n      tag_749\n        /* \"#utility.yul\":18601:18606   */\n      dup4\n        /* \"#utility.yul\":18551:18607   */\n      tag_460\n      jump\t// in\n    tag_749:\n        /* \"#utility.yul\":18630:18637   */\n      dup1\n        /* \"#utility.yul\":18661:18662   */\n      0x00\n        /* \"#utility.yul\":18646:18930   */\n    tag_750:\n        /* \"#utility.yul\":18671:18677   */\n      dup4\n        /* \"#utility.yul\":18668:18669   */\n      dup2\n        /* \"#utility.yul\":18665:18678   */\n      lt\n        /* \"#utility.yul\":18646:18930   */\n      iszero\n      tag_752\n      jumpi\n        /* \"#utility.yul\":18747:18753   */\n      dup2\n        /* \"#utility.yul\":18741:18754   */\n      mload\n        /* \"#utility.yul\":18774:18837   */\n      tag_753\n        /* \"#utility.yul\":18833:18836   */\n      dup9\n        /* \"#utility.yul\":18818:18831   */\n      dup3\n        /* \"#utility.yul\":18774:18837   */\n      tag_461\n      jump\t// in\n    tag_753:\n        /* \"#utility.yul\":18767:18837   */\n      swap8\n      pop\n        /* \"#utility.yul\":18860:18920   */\n      tag_754\n        /* \"#utility.yul\":18913:18919   */\n      dup4\n        /* \"#utility.yul\":18860:18920   */\n      tag_462\n      jump\t// in\n    tag_754:\n        /* \"#utility.yul\":18850:18920   */\n      swap3\n      pop\n        /* \"#utility.yul\":18706:18930   */\n      pop\n        /* \"#utility.yul\":18693:18694   */\n      0x01\n        /* \"#utility.yul\":18690:18691   */\n      dup2\n        /* \"#utility.yul\":18686:18695   */\n      add\n        /* \"#utility.yul\":18681:18695   */\n      swap1\n      pop\n        /* \"#utility.yul\":18646:18930   */\n      jump(tag_750)\n    tag_752:\n        /* \"#utility.yul\":18650:18664   */\n      pop\n        /* \"#utility.yul\":18946:18949   */\n      dup6\n        /* \"#utility.yul\":18939:18949   */\n      swap4\n      pop\n        /* \"#utility.yul\":18347:18955   */\n      pop\n      pop\n      pop\n        /* \"#utility.yul\":18223:18955   */\n      swap3\n      swap2\n      pop\n      pop\n      jump\t// out\n        /* \"#utility.yul\":18961:19334   */\n    tag_46:\n        /* \"#utility.yul\":19104:19108   */\n      0x00\n        /* \"#utility.yul\":19142:19144   */\n      0x20\n        /* \"#utility.yul\":19131:19140   */\n      dup3\n        /* \"#utility.yul\":19127:19145   */\n      add\n        /* \"#utility.yul\":19119:19145   */\n      swap1\n      pop\n        /* \"#utility.yul\":19191:19200   */\n      dup2\n        /* \"#utility.yul\":19185:19189   */\n      dup2\n        /* \"#utility.yul\":19181:19201   */\n      sub\n        /* \"#utility.yul\":19177:19178   */\n      0x00\n        /* \"#utility.yul\":19166:19175   */\n      dup4\n        /* \"#utility.yul\":19162:19179   */\n      add\n        /* \"#utility.yul\":19155:19202   */\n      mstore\n        /* \"#utility.yul\":19219:19327   */\n      tag_756\n        /* \"#utility.yul\":19322:19326   */\n      dup2\n        /* \"#utility.yul\":19313:19319   */\n      dup5\n        /* \"#utility.yul\":19219:19327   */\n      tag_463\n      jump\t// in\n    tag_756:\n        /* \"#utility.yul\":19211:19327   */\n      swap1\n      pop\n        /* \"#utility.yul\":18961:19334   */\n      swap3\n      swap2\n      pop\n      pop\n      jump\t// out\n        /* \"#utility.yul\":19340:19458   */\n    tag_464:\n        /* \"#utility.yul\":19427:19451   */\n      tag_758\n        /* \"#utility.yul\":19445:19450   */\n      dup2\n        /* \"#utility.yul\":19427:19451   */\n      tag_422\n      jump\t// in\n    tag_758:\n        /* \"#utility.yul\":19422:19425   */\n      dup3\n        /* \"#utility.yul\":19415:19452   */\n      mstore\n        /* \"#utility.yul\":19340:19458   */\n      pop\n      pop\n      jump\t// out\n        /* \"#utility.yul\":19464:19686   */\n    tag_50:\n        /* \"#utility.yul\":19557:19561   */\n      0x00\n        /* \"#utility.yul\":19595:19597   */\n      0x20\n        /* \"#utility.yul\":19584:19593   */\n      dup3\n        /* \"#utility.yul\":19580:19598   */\n      add\n        /* \"#utility.yul\":19572:19598   */\n      swap1\n      pop\n        /* \"#utility.yul\":19608:19679   */\n      tag_760\n        /* \"#utility.yul\":19676:19677   */\n      0x00\n        /* \"#utility.yul\":19665:19674   */\n      dup4\n        /* \"#utility.yul\":19661:19678   */\n      add\n        /* \"#utility.yul\":19652:19658   */\n      dup5\n        /* \"#utility.yul\":19608:19679   */\n      tag_464\n      jump\t// in\n    tag_760:\n        /* \"#utility.yul\":19464:19686   */\n      swap3\n      swap2\n      pop\n      pop\n      jump\t// out\n        /* \"#utility.yul\":19692:20003   */\n    tag_465:\n        /* \"#utility.yul\":19769:19773   */\n      0x00\n        /* \"#utility.yul\":19859:19877   */\n      0xffffffffffffffff\n        /* \"#utility.yul\":19851:19857   */\n      dup3\n        /* \"#utility.yul\":19848:19878   */\n      gt\n        /* \"#utility.yul\":19845:19901   */\n      iszero\n      tag_762\n      jumpi\n        /* \"#utility.yul\":19881:19899   */\n      tag_763\n      tag_202\n      jump\t// in\n    tag_763:\n        /* \"#utility.yul\":19845:19901   */\n    tag_762:\n        /* \"#utility.yul\":19931:19935   */\n      0x20\n        /* \"#utility.yul\":19923:19929   */\n      dup3\n        /* \"#utility.yul\":19919:19936   */\n      mul\n        /* \"#utility.yul\":19911:19936   */\n      swap1\n      pop\n        /* \"#utility.yul\":19991:19995   */\n      0x20\n        /* \"#utility.yul\":19985:19989   */\n      dup2\n        /* \"#utility.yul\":19981:19996   */\n      add\n        /* \"#utility.yul\":19973:19996   */\n      swap1\n      pop\n        /* \"#utility.yul\":19692:20003   */\n      swap2\n      swap1\n      pop\n      jump\t// out\n        /* \"#utility.yul\":20026:20736   */\n    tag_466:\n        /* \"#utility.yul\":20122:20127   */\n      0x00\n        /* \"#utility.yul\":20147:20228   */\n      tag_765\n        /* \"#utility.yul\":20163:20227   */\n      tag_766\n        /* \"#utility.yul\":20220:20226   */\n      dup5\n        /* \"#utility.yul\":20163:20227   */\n      tag_465\n      jump\t// in\n    tag_766:\n        /* \"#utility.yul\":20147:20228   */\n      tag_437\n      jump\t// in\n    tag_765:\n        /* \"#utility.yul\":20138:20228   */\n      swap1\n      pop\n        /* \"#utility.yul\":20248:20253   */\n      dup1\n        /* \"#utility.yul\":20277:20283   */\n      dup4\n        /* \"#utility.yul\":20270:20275   */\n      dup3\n        /* \"#utility.yul\":20263:20284   */\n      mstore\n        /* \"#utility.yul\":20311:20315   */\n      0x20\n        /* \"#utility.yul\":20304:20309   */\n      dup3\n        /* \"#utility.yul\":20300:20316   */\n      add\n        /* \"#utility.yul\":20293:20316   */\n      swap1\n      pop\n        /* \"#utility.yul\":20364:20368   */\n      0x20\n        /* \"#utility.yul\":20356:20362   */\n      dup5\n        /* \"#utility.yul\":20352:20369   */\n      mul\n        /* \"#utility.yul\":20344:20350   */\n      dup4\n        /* \"#utility.yul\":20340:20370   */\n      add\n        /* \"#utility.yul\":20393:20396   */\n      dup6\n        /* \"#utility.yul\":20385:20391   */\n      dup2\n        /* \"#utility.yul\":20382:20397   */\n      gt\n        /* \"#utility.yul\":20379:20501   */\n      iszero\n      tag_767\n      jumpi\n        /* \"#utility.yul\":20412:20491   */\n      tag_768\n      tag_443\n      jump\t// in\n    tag_768:\n        /* \"#utility.yul\":20379:20501   */\n    tag_767:\n        /* \"#utility.yul\":20527:20533   */\n      dup4\n        /* \"#utility.yul\":20510:20730   */\n    tag_769:\n        /* \"#utility.yul\":20544:20550   */\n      dup2\n        /* \"#utility.yul\":20539:20542   */\n      dup2\n        /* \"#utility.yul\":20536:20551   */\n      lt\n        /* \"#utility.yul\":20510:20730   */\n      iszero\n      tag_771\n      jumpi\n        /* \"#utility.yul\":20619:20622   */\n      dup1\n        /* \"#utility.yul\":20648:20685   */\n      tag_772\n        /* \"#utility.yul\":20681:20684   */\n      dup9\n        /* \"#utility.yul\":20669:20679   */\n      dup3\n        /* \"#utility.yul\":20648:20685   */\n      tag_416\n      jump\t// in\n    tag_772:\n        /* \"#utility.yul\":20643:20646   */\n      dup5\n        /* \"#utility.yul\":20636:20686   */\n      mstore\n        /* \"#utility.yul\":20715:20719   */\n      0x20\n        /* \"#utility.yul\":20710:20713   */\n      dup5\n        /* \"#utility.yul\":20706:20720   */\n      add\n        /* \"#utility.yul\":20699:20720   */\n      swap4\n      pop\n        /* \"#utility.yul\":20586:20730   */\n      pop\n        /* \"#utility.yul\":20570:20574   */\n      0x20\n        /* \"#utility.yul\":20565:20568   */\n      dup2\n        /* \"#utility.yul\":20561:20575   */\n      add\n        /* \"#utility.yul\":20554:20575   */\n      swap1\n      pop\n        /* \"#utility.yul\":20510:20730   */\n      jump(tag_769)\n    tag_771:\n        /* \"#utility.yul\":20514:20535   */\n      pop\n        /* \"#utility.yul\":20128:20736   */\n      pop\n      pop\n        /* \"#utility.yul\":20026:20736   */\n      swap4\n      swap3\n      pop\n      pop\n      pop\n      jump\t// out\n        /* \"#utility.yul\":20759:21129   */\n    tag_467:\n        /* \"#utility.yul\":20830:20835   */\n      0x00\n        /* \"#utility.yul\":20879:20882   */\n      dup3\n        /* \"#utility.yul\":20872:20876   */\n      0x1f\n        /* \"#utility.yul\":20864:20870   */\n      dup4\n        /* \"#utility.yul\":20860:20877   */\n      add\n        /* \"#utility.yul\":20856:20883   */\n      slt\n        /* \"#utility.yul\":20846:20968   */\n      tag_774\n      jumpi\n        /* \"#utility.yul\":20887:20966   */\n      tag_775\n      tag_434\n      jump\t// in\n    tag_775:\n        /* \"#utility.yul\":20846:20968   */\n    tag_774:\n        /* \"#utility.yul\":21004:21010   */\n      dup2\n        /* \"#utility.yul\":20991:21011   */\n      calldataload\n        /* \"#utility.yul\":21029:21123   */\n      tag_776\n        /* \"#utility.yul\":21119:21122   */\n      dup5\n        /* \"#utility.yul\":21111:21117   */\n      dup3\n        /* \"#utility.yul\":21104:21108   */\n      0x20\n        /* \"#utility.yul\":21096:21102   */\n      dup7\n        /* \"#utility.yul\":21092:21109   */\n      add\n        /* \"#utility.yul\":21029:21123   */\n      tag_466\n      jump\t// in\n    tag_776:\n        /* \"#utility.yul\":21020:21123   */\n      swap2\n      pop\n        /* \"#utility.yul\":20836:21129   */\n      pop\n        /* \"#utility.yul\":20759:21129   */\n      swap3\n      swap2\n      pop\n      pop\n      jump\t// out\n        /* \"#utility.yul\":21135:21455   */\n    tag_468:\n        /* \"#utility.yul\":21221:21225   */\n      0x00\n        /* \"#utility.yul\":21311:21329   */\n      0xffffffffffffffff\n        /* \"#utility.yul\":21303:21309   */\n      dup3\n        /* \"#utility.yul\":21300:21330   */\n      gt\n        /* \"#utility.yul\":21297:21353   */\n      iszero\n      tag_778\n      jumpi\n        /* \"#utility.yul\":21333:21351   */\n      tag_779\n      tag_202\n      jump\t// in\n    tag_779:\n        /* \"#utility.yul\":21297:21353   */\n    tag_778:\n        /* \"#utility.yul\":21383:21387   */\n      0x20\n        /* \"#utility.yul\":21375:21381   */\n      dup3\n        /* \"#utility.yul\":21371:21388   */\n      mul\n        /* \"#utility.yul\":21363:21388   */\n      swap1\n      pop\n        /* \"#utility.yul\":21443:21447   */\n      0x20\n        /* \"#utility.yul\":21437:21441   */\n      dup2\n        /* \"#utility.yul\":21433:21448   */\n      add\n        /* \"#utility.yul\":21425:21448   */\n      swap1\n      pop\n        /* \"#utility.yul\":21135:21455   */\n      swap2\n      swap1\n      pop\n      jump\t// out\n        /* \"#utility.yul\":21476:22418   */\n    tag_469:\n        /* \"#utility.yul\":21581:21586   */\n      0x00\n        /* \"#utility.yul\":21606:21696   */\n      tag_781\n        /* \"#utility.yul\":21622:21695   */\n      tag_782\n        /* \"#utility.yul\":21688:21694   */\n      dup5\n        /* \"#utility.yul\":21622:21695   */\n      tag_468\n      jump\t// in\n    tag_782:\n        /* \"#utility.yul\":21606:21696   */\n      tag_437\n      jump\t// in\n    tag_781:\n        /* \"#utility.yul\":21597:21696   */\n      swap1\n      pop\n        /* \"#utility.yul\":21716:21721   */\n      dup1\n        /* \"#utility.yul\":21745:21751   */\n      dup4\n        /* \"#utility.yul\":21738:21743   */\n      dup3\n        /* \"#utility.yul\":21731:21752   */\n      mstore\n        /* \"#utility.yul\":21779:21783   */\n      0x20\n        /* \"#utility.yul\":21772:21777   */\n      dup3\n        /* \"#utility.yul\":21768:21784   */\n      add\n        /* \"#utility.yul\":21761:21784   */\n      swap1\n      pop\n        /* \"#utility.yul\":21832:21836   */\n      0x20\n        /* \"#utility.yul\":21824:21830   */\n      dup5\n        /* \"#utility.yul\":21820:21837   */\n      mul\n        /* \"#utility.yul\":21812:21818   */\n      dup4\n        /* \"#utility.yul\":21808:21838   */\n      add\n        /* \"#utility.yul\":21861:21864   */\n      dup6\n        /* \"#utility.yul\":21853:21859   */\n      dup2\n        /* \"#utility.yul\":21850:21865   */\n      gt\n        /* \"#utility.yul\":21847:21969   */\n      iszero\n      tag_783\n      jumpi\n        /* \"#utility.yul\":21880:21959   */\n      tag_784\n      tag_443\n      jump\t// in\n    tag_784:\n        /* \"#utility.yul\":21847:21969   */\n    tag_783:\n        /* \"#utility.yul\":21995:22001   */\n      dup4\n        /* \"#utility.yul\":21978:22412   */\n    tag_785:\n        /* \"#utility.yul\":22012:22018   */\n      dup2\n        /* \"#utility.yul\":22007:22010   */\n      dup2\n        /* \"#utility.yul\":22004:22019   */\n      lt\n        /* \"#utility.yul\":21978:22412   */\n      iszero\n      tag_787\n      jumpi\n        /* \"#utility.yul\":22101:22104   */\n      dup1\n        /* \"#utility.yul\":22088:22105   */\n      calldataload\n        /* \"#utility.yul\":22137:22155   */\n      0xffffffffffffffff\n        /* \"#utility.yul\":22124:22135   */\n      dup2\n        /* \"#utility.yul\":22121:22156   */\n      gt\n        /* \"#utility.yul\":22118:22240   */\n      iszero\n      tag_788\n      jumpi\n        /* \"#utility.yul\":22159:22238   */\n      tag_789\n      tag_434\n      jump\t// in\n    tag_789:\n        /* \"#utility.yul\":22118:22240   */\n    tag_788:\n        /* \"#utility.yul\":22283:22294   */\n      dup1\n        /* \"#utility.yul\":22275:22281   */\n      dup7\n        /* \"#utility.yul\":22271:22295   */\n      add\n        /* \"#utility.yul\":22321:22367   */\n      tag_790\n        /* \"#utility.yul\":22363:22366   */\n      dup10\n        /* \"#utility.yul\":22351:22361   */\n      dup3\n        /* \"#utility.yul\":22321:22367   */\n      tag_441\n      jump\t// in\n    tag_790:\n        /* \"#utility.yul\":22316:22319   */\n      dup6\n        /* \"#utility.yul\":22309:22368   */\n      mstore\n        /* \"#utility.yul\":22397:22401   */\n      0x20\n        /* \"#utility.yul\":22392:22395   */\n      dup6\n        /* \"#utility.yul\":22388:22402   */\n      add\n        /* \"#utility.yul\":22381:22402   */\n      swap5\n      pop\n        /* \"#utility.yul\":22054:22412   */\n      pop\n      pop\n        /* \"#utility.yul\":22038:22042   */\n      0x20\n        /* \"#utility.yul\":22033:22036   */\n      dup2\n        /* \"#utility.yul\":22029:22043   */\n      add\n        /* \"#utility.yul\":22022:22043   */\n      swap1\n      pop\n        /* \"#utility.yul\":21978:22412   */\n      jump(tag_785)\n    tag_787:\n        /* \"#utility.yul\":21982:22003   */\n      pop\n        /* \"#utility.yul\":21587:22418   */\n      pop\n      pop\n        /* \"#utility.yul\":21476:22418   */\n      swap4\n      swap3\n      pop\n      pop\n      pop\n      jump\t// out\n        /* \"#utility.yul\":22439:22827   */\n    tag_470:\n        /* \"#utility.yul\":22519:22524   */\n      0x00\n        /* \"#utility.yul\":22568:22571   */\n      dup3\n        /* \"#utility.yul\":22561:22565   */\n      0x1f\n        /* \"#utility.yul\":22553:22559   */\n      dup4\n        /* \"#utility.yul\":22549:22566   */\n      add\n        /* \"#utility.yul\":22545:22572   */\n      slt\n        /* \"#utility.yul\":22535:22657   */\n      tag_792\n      jumpi\n        /* \"#utility.yul\":22576:22655   */\n      tag_793\n      tag_434\n      jump\t// in\n    tag_793:\n        /* \"#utility.yul\":22535:22657   */\n    tag_792:\n        /* \"#utility.yul\":22693:22699   */\n      dup2\n        /* \"#utility.yul\":22680:22700   */\n      calldataload\n        /* \"#utility.yul\":22718:22821   */\n      tag_794\n        /* \"#utility.yul\":22817:22820   */\n      dup5\n        /* \"#utility.yul\":22809:22815   */\n      dup3\n        /* \"#utility.yul\":22802:22806   */\n      0x20\n        /* \"#utility.yul\":22794:22800   */\n      dup7\n        /* \"#utility.yul\":22790:22807   */\n      add\n        /* \"#utility.yul\":22718:22821   */\n      tag_469\n      jump\t// in\n    tag_794:\n        /* \"#utility.yul\":22709:22821   */\n      swap2\n      pop\n        /* \"#utility.yul\":22525:22827   */\n      pop\n        /* \"#utility.yul\":22439:22827   */\n      swap3\n      swap2\n      pop\n      pop\n      jump\t// out\n        /* \"#utility.yul\":22833:24100   */\n    tag_53:\n        /* \"#utility.yul\":22994:23000   */\n      0x00\n        /* \"#utility.yul\":23002:23008   */\n      dup1\n        /* \"#utility.yul\":23010:23016   */\n      0x00\n        /* \"#utility.yul\":23059:23061   */\n      0x60\n        /* \"#utility.yul\":23047:23056   */\n      dup5\n        /* \"#utility.yul\":23038:23045   */\n      dup7\n        /* \"#utility.yul\":23034:23057   */\n      sub\n        /* \"#utility.yul\":23030:23062   */\n      slt\n        /* \"#utility.yul\":23027:23146   */\n      iszero\n      tag_796\n      jumpi\n        /* \"#utility.yul\":23065:23144   */\n      tag_797\n      tag_412\n      jump\t// in\n    tag_797:\n        /* \"#utility.yul\":23027:23146   */\n    tag_796:\n        /* \"#utility.yul\":23213:23214   */\n      0x00\n        /* \"#utility.yul\":23202:23211   */\n      dup5\n        /* \"#utility.yul\":23198:23215   */\n      add\n        /* \"#utility.yul\":23185:23216   */\n      calldataload\n        /* \"#utility.yul\":23243:23261   */\n      0xffffffffffffffff\n        /* \"#utility.yul\":23235:23241   */\n      dup2\n        /* \"#utility.yul\":23232:23262   */\n      gt\n        /* \"#utility.yul\":23229:23346   */\n      iszero\n      tag_798\n      jumpi\n        /* \"#utility.yul\":23265:23344   */\n      tag_799\n      tag_413\n      jump\t// in\n    tag_799:\n        /* \"#utility.yul\":23229:23346   */\n    tag_798:\n        /* \"#utility.yul\":23370:23448   */\n      tag_800\n        /* \"#utility.yul\":23440:23447   */\n      dup7\n        /* \"#utility.yul\":23431:23437   */\n      dup3\n        /* \"#utility.yul\":23420:23429   */\n      dup8\n        /* \"#utility.yul\":23416:23438   */\n      add\n        /* \"#utility.yul\":23370:23448   */\n      tag_467\n      jump\t// in\n    tag_800:\n        /* \"#utility.yul\":23360:23448   */\n      swap4\n      pop\n        /* \"#utility.yul\":23156:23458   */\n      pop\n        /* \"#utility.yul\":23525:23527   */\n      0x20\n        /* \"#utility.yul\":23514:23523   */\n      dup5\n        /* \"#utility.yul\":23510:23528   */\n      add\n        /* \"#utility.yul\":23497:23529   */\n      calldataload\n        /* \"#utility.yul\":23556:23574   */\n      0xffffffffffffffff\n        /* \"#utility.yul\":23548:23554   */\n      dup2\n        /* \"#utility.yul\":23545:23575   */\n      gt\n        /* \"#utility.yul\":23542:23659   */\n      iszero\n      tag_801\n      jumpi\n        /* \"#utility.yul\":23578:23657   */\n      tag_802\n      tag_413\n      jump\t// in\n    tag_802:\n        /* \"#utility.yul\":23542:23659   */\n    tag_801:\n        /* \"#utility.yul\":23683:23770   */\n      tag_803\n        /* \"#utility.yul\":23762:23769   */\n      dup7\n        /* \"#utility.yul\":23753:23759   */\n      dup3\n        /* \"#utility.yul\":23742:23751   */\n      dup8\n        /* \"#utility.yul\":23738:23760   */\n      add\n        /* \"#utility.yul\":23683:23770   */\n      tag_470\n      jump\t// in\n    tag_803:\n        /* \"#utility.yul\":23673:23770   */\n      swap3\n      pop\n        /* \"#utility.yul\":23468:23780   */\n      pop\n        /* \"#utility.yul\":23847:23849   */\n      0x40\n        /* \"#utility.yul\":23836:23845   */\n      dup5\n        /* \"#utility.yul\":23832:23850   */\n      add\n        /* \"#utility.yul\":23819:23851   */\n      calldataload\n        /* \"#utility.yul\":23878:23896   */\n      0xffffffffffffffff\n        /* \"#utility.yul\":23870:23876   */\n      dup2\n        /* \"#utility.yul\":23867:23897   */\n      gt\n        /* \"#utility.yul\":23864:23981   */\n      iszero\n      tag_804\n      jumpi\n        /* \"#utility.yul\":23900:23979   */\n      tag_805\n      tag_413\n      jump\t// in\n    tag_805:\n        /* \"#utility.yul\":23864:23981   */\n    tag_804:\n        /* \"#utility.yul\":24005:24083   */\n      tag_806\n        /* \"#utility.yul\":24075:24082   */\n      dup7\n        /* \"#utility.yul\":24066:24072   */\n      dup3\n        /* \"#utility.yul\":24055:24064   */\n      dup8\n        /* \"#utility.yul\":24051:24073   */\n      add\n        /* \"#utility.yul\":24005:24083   */\n      tag_467\n      jump\t// in\n    tag_806:\n        /* \"#utility.yul\":23995:24083   */\n      swap2\n      pop\n        /* \"#utility.yul\":23790:24093   */\n      pop\n        /* \"#utility.yul\":22833:24100   */\n      swap3\n      pop\n      swap3\n      pop\n      swap3\n      jump\t// out\n        /* \"#utility.yul\":24106:24578   */\n    tag_57:\n        /* \"#utility.yul\":24173:24179   */\n      0x00\n        /* \"#utility.yul\":24181:24187   */\n      dup1\n        /* \"#utility.yul\":24230:24232   */\n      0x40\n        /* \"#utility.yul\":24218:24227   */\n      dup4\n        /* \"#utility.yul\":24209:24216   */\n      dup6\n        /* \"#utility.yul\":24205:24228   */\n      sub\n        /* \"#utility.yul\":24201:24233   */\n      slt\n        /* \"#utility.yul\":24198:24317   */\n      iszero\n      tag_808\n      jumpi\n        /* \"#utility.yul\":24236:24315   */\n      tag_809\n      tag_412\n      jump\t// in\n    tag_809:\n        /* \"#utility.yul\":24198:24317   */\n    tag_808:\n        /* \"#utility.yul\":24356:24357   */\n      0x00\n        /* \"#utility.yul\":24381:24434   */\n      tag_810\n        /* \"#utility.yul\":24426:24433   */\n      dup6\n        /* \"#utility.yul\":24417:24423   */\n      dup3\n        /* \"#utility.yul\":24406:24415   */\n      dup7\n        /* \"#utility.yul\":24402:24424   */\n      add\n        /* \"#utility.yul\":24381:24434   */\n      tag_416\n      jump\t// in\n    tag_810:\n        /* \"#utility.yul\":24371:24434   */\n      swap3\n      pop\n        /* \"#utility.yul\":24327:24444   */\n      pop\n        /* \"#utility.yul\":24483:24485   */\n      0x20\n        /* \"#utility.yul\":24509:24561   */\n      tag_811\n        /* \"#utility.yul\":24553:24560   */\n      dup6\n        /* \"#utility.yul\":24544:24550   */\n      dup3\n        /* \"#utility.yul\":24533:24542   */\n      dup7\n        /* \"#utility.yul\":24529:24551   */\n      add\n        /* \"#utility.yul\":24509:24561   */\n      tag_449\n      jump\t// in\n    tag_811:\n        /* \"#utility.yul\":24499:24561   */\n      swap2\n      pop\n        /* \"#utility.yul\":24454:24571   */\n      pop\n        /* \"#utility.yul\":24106:24578   */\n      swap3\n      pop\n      swap3\n      swap1\n      pop\n      jump\t// out\n        /* \"#utility.yul\":24584:24913   */\n    tag_64:\n        /* \"#utility.yul\":24643:24649   */\n      0x00\n        /* \"#utility.yul\":24692:24694   */\n      0x20\n        /* \"#utility.yul\":24680:24689   */\n      dup3\n        /* \"#utility.yul\":24671:24678   */\n      dup5\n        /* \"#utility.yul\":24667:24690   */\n      sub\n        /* \"#utility.yul\":24663:24695   */\n      slt\n        /* \"#utility.yul\":24660:24779   */\n      iszero\n      tag_813\n      jumpi\n        /* \"#utility.yul\":24698:24777   */\n      tag_814\n      tag_412\n      jump\t// in\n    tag_814:\n        /* \"#utility.yul\":24660:24779   */\n    tag_813:\n        /* \"#utility.yul\":24818:24819   */\n      0x00\n        /* \"#utility.yul\":24843:24896   */\n      tag_815\n        /* \"#utility.yul\":24888:24895   */\n      dup5\n        /* \"#utility.yul\":24879:24885   */\n      dup3\n        /* \"#utility.yul\":24868:24877   */\n      dup6\n        /* \"#utility.yul\":24864:24886   */\n      add\n        /* \"#utility.yul\":24843:24896   */\n      tag_447\n      jump\t// in\n    tag_815:\n        /* \"#utility.yul\":24833:24896   */\n      swap2\n      pop\n        /* \"#utility.yul\":24789:24906   */\n      pop\n        /* \"#utility.yul\":24584:24913   */\n      swap3\n      swap2\n      pop\n      pop\n      jump\t// out\n        /* \"#utility.yul\":24919:25503   */\n    tag_70:\n        /* \"#utility.yul\":25140:25144   */\n      0x00\n        /* \"#utility.yul\":25178:25181   */\n      0x80\n        /* \"#utility.yul\":25167:25176   */\n      dup3\n        /* \"#utility.yul\":25163:25182   */\n      add\n        /* \"#utility.yul\":25155:25182   */\n      swap1\n      pop\n        /* \"#utility.yul\":25228:25237   */\n      dup2\n        /* \"#utility.yul\":25222:25226   */\n      dup2\n        /* \"#utility.yul\":25218:25238   */\n      sub\n        /* \"#utility.yul\":25214:25215   */\n      0x00\n        /* \"#utility.yul\":25203:25212   */\n      dup4\n        /* \"#utility.yul\":25199:25216   */\n      add\n        /* \"#utility.yul\":25192:25239   */\n      mstore\n        /* \"#utility.yul\":25256:25356   */\n      tag_817\n        /* \"#utility.yul\":25351:25355   */\n      dup2\n        /* \"#utility.yul\":25342:25348   */\n      dup6\n        /* \"#utility.yul\":25256:25356   */\n      tag_433\n      jump\t// in\n    tag_817:\n        /* \"#utility.yul\":25248:25356   */\n      swap1\n      pop\n        /* \"#utility.yul\":25366:25496   */\n      tag_818\n        /* \"#utility.yul\":25492:25494   */\n      0x20\n        /* \"#utility.yul\":25481:25490   */\n      dup4\n        /* \"#utility.yul\":25477:25495   */\n      add\n        /* \"#utility.yul\":25468:25474   */\n      dup5\n        /* \"#utility.yul\":25366:25496   */\n      tag_420\n      jump\t// in\n    tag_818:\n        /* \"#utility.yul\":24919:25503   */\n      swap4\n      swap3\n      pop\n      pop\n      pop\n      jump\t// out\n        /* \"#utility.yul\":25509:26040   */\n    tag_73:\n        /* \"#utility.yul\":25589:25595   */\n      0x00\n        /* \"#utility.yul\":25638:25640   */\n      0x20\n        /* \"#utility.yul\":25626:25635   */\n      dup3\n        /* \"#utility.yul\":25617:25624   */\n      dup5\n        /* \"#utility.yul\":25613:25636   */\n      sub\n        /* \"#utility.yul\":25609:25641   */\n      slt\n        /* \"#utility.yul\":25606:25725   */\n      iszero\n      tag_820\n      jumpi\n        /* \"#utility.yul\":25644:25723   */\n      tag_821\n      tag_412\n      jump\t// in\n    tag_821:\n        /* \"#utility.yul\":25606:25725   */\n    tag_820:\n        /* \"#utility.yul\":25792:25793   */\n      0x00\n        /* \"#utility.yul\":25781:25790   */\n      dup3\n        /* \"#utility.yul\":25777:25794   */\n      add\n        /* \"#utility.yul\":25764:25795   */\n      calldataload\n        /* \"#utility.yul\":25822:25840   */\n      0xffffffffffffffff\n        /* \"#utility.yul\":25814:25820   */\n      dup2\n        /* \"#utility.yul\":25811:25841   */\n      gt\n        /* \"#utility.yul\":25808:25925   */\n      iszero\n      tag_822\n      jumpi\n        /* \"#utility.yul\":25844:25923   */\n      tag_823\n      tag_413\n      jump\t// in\n    tag_823:\n        /* \"#utility.yul\":25808:25925   */\n    tag_822:\n        /* \"#utility.yul\":25949:26023   */\n      tag_824\n        /* \"#utility.yul\":26015:26022   */\n      dup5\n        /* \"#utility.yul\":26006:26012   */\n      dup3\n        /* \"#utility.yul\":25995:26004   */\n      dup6\n        /* \"#utility.yul\":25991:26013   */\n      add\n        /* \"#utility.yul\":25949:26023   */\n      tag_455\n      jump\t// in\n    tag_824:\n        /* \"#utility.yul\":25939:26023   */\n      swap2\n      pop\n        /* \"#utility.yul\":25735:26033   */\n      pop\n        /* \"#utility.yul\":25509:26040   */\n      swap3\n      swap2\n      pop\n      pop\n      jump\t// out\n        /* \"#utility.yul\":26046:26164   */\n    tag_471:\n        /* \"#utility.yul\":26133:26157   */\n      tag_826\n        /* \"#utility.yul\":26151:26156   */\n      dup2\n        /* \"#utility.yul\":26133:26157   */\n      tag_414\n      jump\t// in\n    tag_826:\n        /* \"#utility.yul\":26128:26131   */\n      dup3\n        /* \"#utility.yul\":26121:26158   */\n      mstore\n        /* \"#utility.yul\":26046:26164   */\n      pop\n      pop\n      jump\t// out\n        /* \"#utility.yul\":26170:26392   */\n    tag_76:\n        /* \"#utility.yul\":26263:26267   */\n      0x00\n        /* \"#utility.yul\":26301:26303   */\n      0x20\n        /* \"#utility.yul\":26290:26299   */\n      dup3\n        /* \"#utility.yul\":26286:26304   */\n      add\n        /* \"#utility.yul\":26278:26304   */\n      swap1\n      pop\n        /* \"#utility.yul\":26314:26385   */\n      tag_828\n        /* \"#utility.yul\":26382:26383   */\n      0x00\n        /* \"#utility.yul\":26371:26380   */\n      dup4\n        /* \"#utility.yul\":26367:26384   */\n      add\n        /* \"#utility.yul\":26358:26364   */\n      dup5\n        /* \"#utility.yul\":26314:26385   */\n      tag_471\n      jump\t// in\n    tag_828:\n        /* \"#utility.yul\":26170:26392   */\n      swap3\n      swap2\n      pop\n      pop\n      jump\t// out\n        /* \"#utility.yul\":26398:26937   */\n    tag_82:\n        /* \"#utility.yul\":26482:26488   */\n      0x00\n        /* \"#utility.yul\":26531:26533   */\n      0x20\n        /* \"#utility.yul\":26519:26528   */\n      dup3\n        /* \"#utility.yul\":26510:26517   */\n      dup5\n        /* \"#utility.yul\":26506:26529   */\n      sub\n        /* \"#utility.yul\":26502:26534   */\n      slt\n        /* \"#utility.yul\":26499:26618   */\n      iszero\n      tag_830\n      jumpi\n        /* \"#utility.yul\":26537:26616   */\n      tag_831\n      tag_412\n      jump\t// in\n    tag_831:\n        /* \"#utility.yul\":26499:26618   */\n    tag_830:\n        /* \"#utility.yul\":26685:26686   */\n      0x00\n        /* \"#utility.yul\":26674:26683   */\n      dup3\n        /* \"#utility.yul\":26670:26687   */\n      add\n        /* \"#utility.yul\":26657:26688   */\n      calldataload\n        /* \"#utility.yul\":26715:26733   */\n      0xffffffffffffffff\n        /* \"#utility.yul\":26707:26713   */\n      dup2\n        /* \"#utility.yul\":26704:26734   */\n      gt\n        /* \"#utility.yul\":26701:26818   */\n      iszero\n      tag_832\n      jumpi\n        /* \"#utility.yul\":26737:26816   */\n      tag_833\n      tag_413\n      jump\t// in\n    tag_833:\n        /* \"#utility.yul\":26701:26818   */\n    tag_832:\n        /* \"#utility.yul\":26842:26920   */\n      tag_834\n        /* \"#utility.yul\":26912:26919   */\n      dup5\n        /* \"#utility.yul\":26903:26909   */\n      dup3\n        /* \"#utility.yul\":26892:26901   */\n      dup6\n        /* \"#utility.yul\":26888:26910   */\n      add\n        /* \"#utility.yul\":26842:26920   */\n      tag_467\n      jump\t// in\n    tag_834:\n        /* \"#utility.yul\":26832:26920   */\n      swap2\n      pop\n        /* \"#utility.yul\":26628:26930   */\n      pop\n        /* \"#utility.yul\":26398:26937   */\n      swap3\n      swap2\n      pop\n      pop\n      jump\t// out\n        /* \"#utility.yul\":26943:27078   */\n    tag_472:\n        /* \"#utility.yul\":27031:27037   */\n      0x00\n        /* \"#utility.yul\":27065:27070   */\n      dup2\n        /* \"#utility.yul\":27059:27071   */\n      mload\n        /* \"#utility.yul\":27049:27071   */\n      swap1\n      pop\n        /* \"#utility.yul\":26943:27078   */\n      swap2\n      swap1\n      pop\n      jump\t// out\n        /* \"#utility.yul\":27084:27289   */\n    tag_473:\n        /* \"#utility.yul\":27204:27215   */\n      0x00\n        /* \"#utility.yul\":27238:27244   */\n      dup3\n        /* \"#utility.yul\":27233:27236   */\n      dup3\n        /* \"#utility.yul\":27226:27245   */\n      mstore\n        /* \"#utility.yul\":27278:27282   */\n      0x20\n        /* \"#utility.yul\":27273:27276   */\n      dup3\n        /* \"#utility.yul\":27269:27283   */\n      add\n        /* \"#utility.yul\":27254:27283   */\n      swap1\n      pop\n        /* \"#utility.yul\":27084:27289   */\n      swap3\n      swap2\n      pop\n      pop\n      jump\t// out\n        /* \"#utility.yul\":27295:27448   */\n    tag_474:\n        /* \"#utility.yul\":27383:27387   */\n      0x00\n        /* \"#utility.yul\":27406:27409   */\n      dup2\n        /* \"#utility.yul\":27398:27409   */\n      swap1\n      pop\n        /* \"#utility.yul\":27436:27440   */\n      0x20\n        /* \"#utility.yul\":27431:27434   */\n      dup3\n        /* \"#utility.yul\":27427:27441   */\n      add\n        /* \"#utility.yul\":27419:27441   */\n      swap1\n      pop\n        /* \"#utility.yul\":27295:27448   */\n      swap2\n      swap1\n      pop\n      jump\t// out\n        /* \"#utility.yul\":27488:29737   */\n    tag_475:\n        /* \"#utility.yul\":27589:27592   */\n      0x00\n        /* \"#utility.yul\":27625:27631   */\n      0x0140\n        /* \"#utility.yul\":27620:27623   */\n      dup4\n        /* \"#utility.yul\":27616:27632   */\n      add\n        /* \"#utility.yul\":27715:27719   */\n      0x00\n        /* \"#utility.yul\":27708:27713   */\n      dup4\n        /* \"#utility.yul\":27704:27720   */\n      add\n        /* \"#utility.yul\":27698:27721   */\n      mload\n        /* \"#utility.yul\":27734:27797   */\n      tag_839\n        /* \"#utility.yul\":27791:27795   */\n      0x00\n        /* \"#utility.yul\":27786:27789   */\n      dup7\n        /* \"#utility.yul\":27782:27796   */\n      add\n        /* \"#utility.yul\":27768:27780   */\n      dup3\n        /* \"#utility.yul\":27734:27797   */\n      tag_423\n      jump\t// in\n    tag_839:\n        /* \"#utility.yul\":27642:27807   */\n      pop\n        /* \"#utility.yul\":27889:27893   */\n      0x20\n        /* \"#utility.yul\":27882:27887   */\n      dup4\n        /* \"#utility.yul\":27878:27894   */\n      add\n        /* \"#utility.yul\":27872:27895   */\n      mload\n        /* \"#utility.yul\":27908:27971   */\n      tag_840\n        /* \"#utility.yul\":27965:27969   */\n      0x20\n        /* \"#utility.yul\":27960:27963   */\n      dup7\n        /* \"#utility.yul\":27956:27970   */\n      add\n        /* \"#utility.yul\":27942:27954   */\n      dup3\n        /* \"#utility.yul\":27908:27971   */\n      tag_417\n      jump\t// in\n    tag_840:\n        /* \"#utility.yul\":27817:27981   */\n      pop\n        /* \"#utility.yul\":28069:28073   */\n      0x40\n        /* \"#utility.yul\":28062:28067   */\n      dup4\n        /* \"#utility.yul\":28058:28074   */\n      add\n        /* \"#utility.yul\":28052:28075   */\n      mload\n        /* \"#utility.yul\":28088:28149   */\n      tag_841\n        /* \"#utility.yul\":28143:28147   */\n      0x40\n        /* \"#utility.yul\":28138:28141   */\n      dup7\n        /* \"#utility.yul\":28134:28148   */\n      add\n        /* \"#utility.yul\":28120:28132   */\n      dup3\n        /* \"#utility.yul\":28088:28149   */\n      tag_419\n      jump\t// in\n    tag_841:\n        /* \"#utility.yul\":27991:28159   */\n      pop\n        /* \"#utility.yul\":28248:28252   */\n      0x60\n        /* \"#utility.yul\":28241:28246   */\n      dup4\n        /* \"#utility.yul\":28237:28253   */\n      add\n        /* \"#utility.yul\":28231:28254   */\n      mload\n        /* \"#utility.yul\":28267:28328   */\n      tag_842\n        /* \"#utility.yul\":28322:28326   */\n      0x60\n        /* \"#utility.yul\":28317:28320   */\n      dup7\n        /* \"#utility.yul\":28313:28327   */\n      add\n        /* \"#utility.yul\":28299:28311   */\n      dup3\n        /* \"#utility.yul\":28267:28328   */\n      tag_419\n      jump\t// in\n    tag_842:\n        /* \"#utility.yul\":28169:28338   */\n      pop\n        /* \"#utility.yul\":28426:28430   */\n      0x80\n        /* \"#utility.yul\":28419:28424   */\n      dup4\n        /* \"#utility.yul\":28415:28431   */\n      add\n        /* \"#utility.yul\":28409:28432   */\n      mload\n        /* \"#utility.yul\":28445:28506   */\n      tag_843\n        /* \"#utility.yul\":28500:28504   */\n      0x80\n        /* \"#utility.yul\":28495:28498   */\n      dup7\n        /* \"#utility.yul\":28491:28505   */\n      add\n        /* \"#utility.yul\":28477:28489   */\n      dup3\n        /* \"#utility.yul\":28445:28506   */\n      tag_419\n      jump\t// in\n    tag_843:\n        /* \"#utility.yul\":28348:28516   */\n      pop\n        /* \"#utility.yul\":28598:28602   */\n      0xa0\n        /* \"#utility.yul\":28591:28596   */\n      dup4\n        /* \"#utility.yul\":28587:28603   */\n      add\n        /* \"#utility.yul\":28581:28604   */\n      mload\n        /* \"#utility.yul\":28651:28654   */\n      dup5\n        /* \"#utility.yul\":28645:28649   */\n      dup3\n        /* \"#utility.yul\":28641:28655   */\n      sub\n        /* \"#utility.yul\":28634:28638   */\n      0xa0\n        /* \"#utility.yul\":28629:28632   */\n      dup7\n        /* \"#utility.yul\":28625:28639   */\n      add\n        /* \"#utility.yul\":28618:28656   */\n      mstore\n        /* \"#utility.yul\":28677:28750   */\n      tag_844\n        /* \"#utility.yul\":28745:28749   */\n      dup3\n        /* \"#utility.yul\":28731:28743   */\n      dup3\n        /* \"#utility.yul\":28677:28750   */\n      tag_428\n      jump\t// in\n    tag_844:\n        /* \"#utility.yul\":28669:28750   */\n      swap2\n      pop\n        /* \"#utility.yul\":28526:28761   */\n      pop\n        /* \"#utility.yul\":28842:28846   */\n      0xc0\n        /* \"#utility.yul\":28835:28840   */\n      dup4\n        /* \"#utility.yul\":28831:28847   */\n      add\n        /* \"#utility.yul\":28825:28848   */\n      mload\n        /* \"#utility.yul\":28895:28898   */\n      dup5\n        /* \"#utility.yul\":28889:28893   */\n      dup3\n        /* \"#utility.yul\":28885:28899   */\n      sub\n        /* \"#utility.yul\":28878:28882   */\n      0xc0\n        /* \"#utility.yul\":28873:28876   */\n      dup7\n        /* \"#utility.yul\":28869:28883   */\n      add\n        /* \"#utility.yul\":28862:28900   */\n      mstore\n        /* \"#utility.yul\":28921:28994   */\n      tag_845\n        /* \"#utility.yul\":28989:28993   */\n      dup3\n        /* \"#utility.yul\":28975:28987   */\n      dup3\n        /* \"#utility.yul\":28921:28994   */\n      tag_428\n      jump\t// in\n    tag_845:\n        /* \"#utility.yul\":28913:28994   */\n      swap2\n      pop\n        /* \"#utility.yul\":28771:29005   */\n      pop\n        /* \"#utility.yul\":29089:29093   */\n      0xe0\n        /* \"#utility.yul\":29082:29087   */\n      dup4\n        /* \"#utility.yul\":29078:29094   */\n      add\n        /* \"#utility.yul\":29072:29095   */\n      mload\n        /* \"#utility.yul\":29108:29183   */\n      tag_846\n        /* \"#utility.yul\":29177:29181   */\n      0xe0\n        /* \"#utility.yul\":29172:29175   */\n      dup7\n        /* \"#utility.yul\":29168:29182   */\n      add\n        /* \"#utility.yul\":29154:29166   */\n      dup3\n        /* \"#utility.yul\":29108:29183   */\n      tag_432\n      jump\t// in\n    tag_846:\n        /* \"#utility.yul\":29015:29193   */\n      pop\n        /* \"#utility.yul\":29289:29295   */\n      0x0100\n        /* \"#utility.yul\":29282:29287   */\n      dup4\n        /* \"#utility.yul\":29278:29296   */\n      add\n        /* \"#utility.yul\":29272:29297   */\n      mload\n        /* \"#utility.yul\":29346:29349   */\n      dup5\n        /* \"#utility.yul\":29340:29344   */\n      dup3\n        /* \"#utility.yul\":29336:29350   */\n      sub\n        /* \"#utility.yul\":29327:29333   */\n      0x0100\n        /* \"#utility.yul\":29322:29325   */\n      dup7\n        /* \"#utility.yul\":29318:29334   */\n      add\n        /* \"#utility.yul\":29311:29351   */\n      mstore\n        /* \"#utility.yul\":29372:29445   */\n      tag_847\n        /* \"#utility.yul\":29440:29444   */\n      dup3\n        /* \"#utility.yul\":29426:29438   */\n      dup3\n        /* \"#utility.yul\":29372:29445   */\n      tag_428\n      jump\t// in\n    tag_847:\n        /* \"#utility.yul\":29364:29445   */\n      swap2\n      pop\n        /* \"#utility.yul\":29203:29456   */\n      pop\n        /* \"#utility.yul\":29543:29549   */\n      0x0120\n        /* \"#utility.yul\":29536:29541   */\n      dup4\n        /* \"#utility.yul\":29532:29550   */\n      add\n        /* \"#utility.yul\":29526:29551   */\n      mload\n        /* \"#utility.yul\":29600:29603   */\n      dup5\n        /* \"#utility.yul\":29594:29598   */\n      dup3\n        /* \"#utility.yul\":29590:29604   */\n      sub\n        /* \"#utility.yul\":29581:29587   */\n      0x0120\n        /* \"#utility.yul\":29576:29579   */\n      dup7\n        /* \"#utility.yul\":29572:29588   */\n      add\n        /* \"#utility.yul\":29565:29605   */\n      mstore\n        /* \"#utility.yul\":29626:29699   */\n      tag_848\n        /* \"#utility.yul\":29694:29698   */\n      dup3\n        /* \"#utility.yul\":29680:29692   */\n      dup3\n        /* \"#utility.yul\":29626:29699   */\n      tag_428\n      jump\t// in\n    tag_848:\n        /* \"#utility.yul\":29618:29699   */\n      swap2\n      pop\n        /* \"#utility.yul\":29466:29710   */\n      pop\n        /* \"#utility.yul\":29727:29731   */\n      dup1\n        /* \"#utility.yul\":29720:29731   */\n      swap2\n      pop\n        /* \"#utility.yul\":27594:29737   */\n      pop\n        /* \"#utility.yul\":27488:29737   */\n      swap3\n      swap2\n      pop\n      pop\n      jump\t// out\n        /* \"#utility.yul\":29743:29983   */\n    tag_476:\n        /* \"#utility.yul\":29854:29864   */\n      0x00\n        /* \"#utility.yul\":29889:29977   */\n      tag_850\n        /* \"#utility.yul\":29973:29976   */\n      dup4\n        /* \"#utility.yul\":29965:29971   */\n      dup4\n        /* \"#utility.yul\":29889:29977   */\n      tag_475\n      jump\t// in\n    tag_850:\n        /* \"#utility.yul\":29875:29977   */\n      swap1\n      pop\n        /* \"#utility.yul\":29743:29983   */\n      swap3\n      swap2\n      pop\n      pop\n      jump\t// out\n        /* \"#utility.yul\":29989:30123   */\n    tag_477:\n        /* \"#utility.yul\":30080:30084   */\n      0x00\n        /* \"#utility.yul\":30112:30116   */\n      0x20\n        /* \"#utility.yul\":30107:30110   */\n      dup3\n        /* \"#utility.yul\":30103:30117   */\n      add\n        /* \"#utility.yul\":30095:30117   */\n      swap1\n      pop\n        /* \"#utility.yul\":29989:30123   */\n      swap2\n      swap1\n      pop\n      jump\t// out\n        /* \"#utility.yul\":30167:31246   */\n    tag_478:\n        /* \"#utility.yul\":30328:30331   */\n      0x00\n        /* \"#utility.yul\":30357:30432   */\n      tag_853\n        /* \"#utility.yul\":30426:30431   */\n      dup3\n        /* \"#utility.yul\":30357:30432   */\n      tag_472\n      jump\t// in\n    tag_853:\n        /* \"#utility.yul\":30448:30555   */\n      tag_854\n        /* \"#utility.yul\":30548:30554   */\n      dup2\n        /* \"#utility.yul\":30543:30546   */\n      dup6\n        /* \"#utility.yul\":30448:30555   */\n      tag_473\n      jump\t// in\n    tag_854:\n        /* \"#utility.yul\":30441:30555   */\n      swap4\n      pop\n        /* \"#utility.yul\":30581:30584   */\n      dup4\n        /* \"#utility.yul\":30626:30630   */\n      0x20\n        /* \"#utility.yul\":30618:30624   */\n      dup3\n        /* \"#utility.yul\":30614:30631   */\n      mul\n        /* \"#utility.yul\":30609:30612   */\n      dup6\n        /* \"#utility.yul\":30605:30632   */\n      add\n        /* \"#utility.yul\":30656:30733   */\n      tag_855\n        /* \"#utility.yul\":30727:30732   */\n      dup6\n        /* \"#utility.yul\":30656:30733   */\n      tag_474\n      jump\t// in\n    tag_855:\n        /* \"#utility.yul\":30756:30763   */\n      dup1\n        /* \"#utility.yul\":30787:30788   */\n      0x00\n        /* \"#utility.yul\":30772:31201   */\n    tag_856:\n        /* \"#utility.yul\":30797:30803   */\n      dup6\n        /* \"#utility.yul\":30794:30795   */\n      dup2\n        /* \"#utility.yul\":30791:30804   */\n      lt\n        /* \"#utility.yul\":30772:31201   */\n      iszero\n      tag_858\n      jumpi\n        /* \"#utility.yul\":30868:30877   */\n      dup5\n        /* \"#utility.yul\":30862:30866   */\n      dup5\n        /* \"#utility.yul\":30858:30878   */\n      sub\n        /* \"#utility.yul\":30853:30856   */\n      dup10\n        /* \"#utility.yul\":30846:30879   */\n      mstore\n        /* \"#utility.yul\":30919:30925   */\n      dup2\n        /* \"#utility.yul\":30913:30926   */\n      mload\n        /* \"#utility.yul\":30947:31053   */\n      tag_859\n        /* \"#utility.yul\":31048:31052   */\n      dup6\n        /* \"#utility.yul\":31033:31046   */\n      dup3\n        /* \"#utility.yul\":30947:31053   */\n      tag_476\n      jump\t// in\n    tag_859:\n        /* \"#utility.yul\":30939:31053   */\n      swap5\n      pop\n        /* \"#utility.yul\":31076:31157   */\n      tag_860\n        /* \"#utility.yul\":31150:31156   */\n      dup4\n        /* \"#utility.yul\":31076:31157   */\n      tag_477\n      jump\t// in\n    tag_860:\n        /* \"#utility.yul\":31066:31157   */\n      swap3\n      pop\n        /* \"#utility.yul\":31186:31190   */\n      0x20\n        /* \"#utility.yul\":31181:31184   */\n      dup11\n        /* \"#utility.yul\":31177:31191   */\n      add\n        /* \"#utility.yul\":31170:31191   */\n      swap10\n      pop\n        /* \"#utility.yul\":30832:31201   */\n      pop\n        /* \"#utility.yul\":30819:30820   */\n      0x01\n        /* \"#utility.yul\":30816:30817   */\n      dup2\n        /* \"#utility.yul\":30812:30821   */\n      add\n        /* \"#utility.yul\":30807:30821   */\n      swap1\n      pop\n        /* \"#utility.yul\":30772:31201   */\n      jump(tag_856)\n    tag_858:\n        /* \"#utility.yul\":30776:30790   */\n      pop\n        /* \"#utility.yul\":31217:31221   */\n      dup3\n        /* \"#utility.yul\":31210:31221   */\n      swap8\n      pop\n        /* \"#utility.yul\":31237:31240   */\n      dup8\n        /* \"#utility.yul\":31230:31240   */\n      swap6\n      pop\n        /* \"#utility.yul\":30333:31246   */\n      pop\n      pop\n      pop\n      pop\n      pop\n        /* \"#utility.yul\":30167:31246   */\n      swap3\n      swap2\n      pop\n      pop\n      jump\t// out\n        /* \"#utility.yul\":31252:31709   */\n    tag_85:\n        /* \"#utility.yul\":31437:31441   */\n      0x00\n        /* \"#utility.yul\":31475:31477   */\n      0x20\n        /* \"#utility.yul\":31464:31473   */\n      dup3\n        /* \"#utility.yul\":31460:31478   */\n      add\n        /* \"#utility.yul\":31452:31478   */\n      swap1\n      pop\n        /* \"#utility.yul\":31524:31533   */\n      dup2\n        /* \"#utility.yul\":31518:31522   */\n      dup2\n        /* \"#utility.yul\":31514:31534   */\n      sub\n        /* \"#utility.yul\":31510:31511   */\n      0x00\n        /* \"#utility.yul\":31499:31508   */\n      dup4\n        /* \"#utility.yul\":31495:31512   */\n      add\n        /* \"#utility.yul\":31488:31535   */\n      mstore\n        /* \"#utility.yul\":31552:31702   */\n      tag_862\n        /* \"#utility.yul\":31697:31701   */\n      dup2\n        /* \"#utility.yul\":31688:31694   */\n      dup5\n        /* \"#utility.yul\":31552:31702   */\n      tag_478\n      jump\t// in\n    tag_862:\n        /* \"#utility.yul\":31544:31702   */\n      swap1\n      pop\n        /* \"#utility.yul\":31252:31709   */\n      swap3\n      swap2\n      pop\n      pop\n      jump\t// out\n        /* \"#utility.yul\":31715:32224   */\n    tag_88:\n        /* \"#utility.yul\":31784:31790   */\n      0x00\n        /* \"#utility.yul\":31833:31835   */\n      0x20\n        /* \"#utility.yul\":31821:31830   */\n      dup3\n        /* \"#utility.yul\":31812:31819   */\n      dup5\n        /* \"#utility.yul\":31808:31831   */\n      sub\n        /* \"#utility.yul\":31804:31836   */\n      slt\n        /* \"#utility.yul\":31801:31920   */\n      iszero\n      tag_864\n      jumpi\n        /* \"#utility.yul\":31839:31918   */\n      tag_865\n      tag_412\n      jump\t// in\n    tag_865:\n        /* \"#utility.yul\":31801:31920   */\n    tag_864:\n        /* \"#utility.yul\":31987:31988   */\n      0x00\n        /* \"#utility.yul\":31976:31985   */\n      dup3\n        /* \"#utility.yul\":31972:31989   */\n      add\n        /* \"#utility.yul\":31959:31990   */\n      calldataload\n        /* \"#utility.yul\":32017:32035   */\n      0xffffffffffffffff\n        /* \"#utility.yul\":32009:32015   */\n      dup2\n        /* \"#utility.yul\":32006:32036   */\n      gt\n        /* \"#utility.yul\":32003:32120   */\n      iszero\n      tag_866\n      jumpi\n        /* \"#utility.yul\":32039:32118   */\n      tag_867\n      tag_413\n      jump\t// in\n    tag_867:\n        /* \"#utility.yul\":32003:32120   */\n    tag_866:\n        /* \"#utility.yul\":32144:32207   */\n      tag_868\n        /* \"#utility.yul\":32199:32206   */\n      dup5\n        /* \"#utility.yul\":32190:32196   */\n      dup3\n        /* \"#utility.yul\":32179:32188   */\n      dup6\n        /* \"#utility.yul\":32175:32197   */\n      add\n        /* \"#utility.yul\":32144:32207   */\n      tag_452\n      jump\t// in\n    tag_868:\n        /* \"#utility.yul\":32134:32207   */\n      swap2\n      pop\n        /* \"#utility.yul\":31930:32217   */\n      pop\n        /* \"#utility.yul\":31715:32224   */\n      swap3\n      swap2\n      pop\n      pop\n      jump\t// out\n        /* \"#utility.yul\":32230:32551   */\n    tag_479:\n        /* \"#utility.yul\":32317:32321   */\n      0x00\n        /* \"#utility.yul\":32407:32425   */\n      0xffffffffffffffff\n        /* \"#utility.yul\":32399:32405   */\n      dup3\n        /* \"#utility.yul\":32396:32426   */\n      gt\n        /* \"#utility.yul\":32393:32449   */\n      iszero\n      tag_870\n      jumpi\n        /* \"#utility.yul\":32429:32447   */\n      tag_871\n      tag_202\n      jump\t// in\n    tag_871:\n        /* \"#utility.yul\":32393:32449   */\n    tag_870:\n        /* \"#utility.yul\":32479:32483   */\n      0x20\n        /* \"#utility.yul\":32471:32477   */\n      dup3\n        /* \"#utility.yul\":32467:32484   */\n      mul\n        /* \"#utility.yul\":32459:32484   */\n      swap1\n      pop\n        /* \"#utility.yul\":32539:32543   */\n      0x20\n        /* \"#utility.yul\":32533:32537   */\n      dup2\n        /* \"#utility.yul\":32529:32544   */\n      add\n        /* \"#utility.yul\":32521:32544   */\n      swap1\n      pop\n        /* \"#utility.yul\":32230:32551   */\n      swap2\n      swap1\n      pop\n      jump\t// out\n        /* \"#utility.yul\":32573:33518   */\n    tag_480:\n        /* \"#utility.yul\":32679:32684   */\n      0x00\n        /* \"#utility.yul\":32704:32795   */\n      tag_873\n        /* \"#utility.yul\":32720:32794   */\n      tag_874\n        /* \"#utility.yul\":32787:32793   */\n      dup5\n        /* \"#utility.yul\":32720:32794   */\n      tag_479\n      jump\t// in\n    tag_874:\n        /* \"#utility.yul\":32704:32795   */\n      tag_437\n      jump\t// in\n    tag_873:\n        /* \"#utility.yul\":32695:32795   */\n      swap1\n      pop\n        /* \"#utility.yul\":32815:32820   */\n      dup1\n        /* \"#utility.yul\":32844:32850   */\n      dup4\n        /* \"#utility.yul\":32837:32842   */\n      dup3\n        /* \"#utility.yul\":32830:32851   */\n      mstore\n        /* \"#utility.yul\":32878:32882   */\n      0x20\n        /* \"#utility.yul\":32871:32876   */\n      dup3\n        /* \"#utility.yul\":32867:32883   */\n      add\n        /* \"#utility.yul\":32860:32883   */\n      swap1\n      pop\n        /* \"#utility.yul\":32931:32935   */\n      0x20\n        /* \"#utility.yul\":32923:32929   */\n      dup5\n        /* \"#utility.yul\":32919:32936   */\n      mul\n        /* \"#utility.yul\":32911:32917   */\n      dup4\n        /* \"#utility.yul\":32907:32937   */\n      add\n        /* \"#utility.yul\":32960:32963   */\n      dup6\n        /* \"#utility.yul\":32952:32958   */\n      dup2\n        /* \"#utility.yul\":32949:32964   */\n      gt\n        /* \"#utility.yul\":32946:33068   */\n      iszero\n      tag_875\n      jumpi\n        /* \"#utility.yul\":32979:33058   */\n      tag_876\n      tag_443\n      jump\t// in\n    tag_876:\n        /* \"#utility.yul\":32946:33068   */\n    tag_875:\n        /* \"#utility.yul\":33094:33100   */\n      dup4\n        /* \"#utility.yul\":33077:33512   */\n    tag_877:\n        /* \"#utility.yul\":33111:33117   */\n      dup2\n        /* \"#utility.yul\":33106:33109   */\n      dup2\n        /* \"#utility.yul\":33103:33118   */\n      lt\n        /* \"#utility.yul\":33077:33512   */\n      iszero\n      tag_879\n      jumpi\n        /* \"#utility.yul\":33200:33203   */\n      dup1\n        /* \"#utility.yul\":33187:33204   */\n      calldataload\n        /* \"#utility.yul\":33236:33254   */\n      0xffffffffffffffff\n        /* \"#utility.yul\":33223:33234   */\n      dup2\n        /* \"#utility.yul\":33220:33255   */\n      gt\n        /* \"#utility.yul\":33217:33339   */\n      iszero\n      tag_880\n      jumpi\n        /* \"#utility.yul\":33258:33337   */\n      tag_881\n      tag_434\n      jump\t// in\n    tag_881:\n        /* \"#utility.yul\":33217:33339   */\n    tag_880:\n        /* \"#utility.yul\":33382:33393   */\n      dup1\n        /* \"#utility.yul\":33374:33380   */\n      dup7\n        /* \"#utility.yul\":33370:33394   */\n      add\n        /* \"#utility.yul\":33420:33467   */\n      tag_882\n        /* \"#utility.yul\":33463:33466   */\n      dup10\n        /* \"#utility.yul\":33451:33461   */\n      dup3\n        /* \"#utility.yul\":33420:33467   */\n      tag_452\n      jump\t// in\n    tag_882:\n        /* \"#utility.yul\":33415:33418   */\n      dup6\n        /* \"#utility.yul\":33408:33468   */\n      mstore\n        /* \"#utility.yul\":33497:33501   */\n      0x20\n        /* \"#utility.yul\":33492:33495   */\n      dup6\n        /* \"#utility.yul\":33488:33502   */\n      add\n        /* \"#utility.yul\":33481:33502   */\n      swap5\n      pop\n        /* \"#utility.yul\":33153:33512   */\n      pop\n      pop\n        /* \"#utility.yul\":33137:33141   */\n      0x20\n        /* \"#utility.yul\":33132:33135   */\n      dup2\n        /* \"#utility.yul\":33128:33142   */\n      add\n        /* \"#utility.yul\":33121:33142   */\n      swap1\n      pop\n        /* \"#utility.yul\":33077:33512   */\n      jump(tag_877)\n    tag_879:\n        /* \"#utility.yul\":33081:33102   */\n      pop\n        /* \"#utility.yul\":32685:33518   */\n      pop\n      pop\n        /* \"#utility.yul\":32573:33518   */\n      swap4\n      swap3\n      pop\n      pop\n      pop\n      jump\t// out\n        /* \"#utility.yul\":33540:33930   */\n    tag_481:\n        /* \"#utility.yul\":33621:33626   */\n      0x00\n        /* \"#utility.yul\":33670:33673   */\n      dup3\n        /* \"#utility.yul\":33663:33667   */\n      0x1f\n        /* \"#utility.yul\":33655:33661   */\n      dup4\n        /* \"#utility.yul\":33651:33668   */\n      add\n        /* \"#utility.yul\":33647:33674   */\n      slt\n        /* \"#utility.yul\":33637:33759   */\n      tag_884\n      jumpi\n        /* \"#utility.yul\":33678:33757   */\n      tag_885\n      tag_434\n      jump\t// in\n    tag_885:\n        /* \"#utility.yul\":33637:33759   */\n    tag_884:\n        /* \"#utility.yul\":33795:33801   */\n      dup2\n        /* \"#utility.yul\":33782:33802   */\n      calldataload\n        /* \"#utility.yul\":33820:33924   */\n      tag_886\n        /* \"#utility.yul\":33920:33923   */\n      dup5\n        /* \"#utility.yul\":33912:33918   */\n      dup3\n        /* \"#utility.yul\":33905:33909   */\n      0x20\n        /* \"#utility.yul\":33897:33903   */\n      dup7\n        /* \"#utility.yul\":33893:33910   */\n      add\n        /* \"#utility.yul\":33820:33924   */\n      tag_480\n      jump\t// in\n    tag_886:\n        /* \"#utility.yul\":33811:33924   */\n      swap2\n      pop\n        /* \"#utility.yul\":33627:33930   */\n      pop\n        /* \"#utility.yul\":33540:33930   */\n      swap3\n      swap2\n      pop\n      pop\n      jump\t// out\n        /* \"#utility.yul\":33936:34495   */\n    tag_93:\n        /* \"#utility.yul\":34030:34036   */\n      0x00\n        /* \"#utility.yul\":34079:34081   */\n      0x20\n        /* \"#utility.yul\":34067:34076   */\n      dup3\n        /* \"#utility.yul\":34058:34065   */\n      dup5\n        /* \"#utility.yul\":34054:34077   */\n      sub\n        /* \"#utility.yul\":34050:34082   */\n      slt\n        /* \"#utility.yul\":34047:34166   */\n      iszero\n      tag_888\n      jumpi\n        /* \"#utility.yul\":34085:34164   */\n      tag_889\n      tag_412\n      jump\t// in\n    tag_889:\n        /* \"#utility.yul\":34047:34166   */\n    tag_888:\n        /* \"#utility.yul\":34233:34234   */\n      0x00\n        /* \"#utility.yul\":34222:34231   */\n      dup3\n        /* \"#utility.yul\":34218:34235   */\n      add\n        /* \"#utility.yul\":34205:34236   */\n      calldataload\n        /* \"#utility.yul\":34263:34281   */\n      0xffffffffffffffff\n        /* \"#utility.yul\":34255:34261   */\n      dup2\n        /* \"#utility.yul\":34252:34282   */\n      gt\n        /* \"#utility.yul\":34249:34366   */\n      iszero\n      tag_890\n      jumpi\n        /* \"#utility.yul\":34285:34364   */\n      tag_891\n      tag_413\n      jump\t// in\n    tag_891:\n        /* \"#utility.yul\":34249:34366   */\n    tag_890:\n        /* \"#utility.yul\":34390:34478   */\n      tag_892\n        /* \"#utility.yul\":34470:34477   */\n      dup5\n        /* \"#utility.yul\":34461:34467   */\n      dup3\n        /* \"#utility.yul\":34450:34459   */\n      dup6\n        /* \"#utility.yul\":34446:34468   */\n      add\n        /* \"#utility.yul\":34390:34478   */\n      tag_481\n      jump\t// in\n    tag_892:\n        /* \"#utility.yul\":34380:34478   */\n      swap2\n      pop\n        /* \"#utility.yul\":34176:34488   */\n      pop\n        /* \"#utility.yul\":33936:34495   */\n      swap3\n      swap2\n      pop\n      pop\n      jump\t// out\n        /* \"#utility.yul\":34501:34578   */\n    tag_482:\n        /* \"#utility.yul\":34538:34545   */\n      0x00\n        /* \"#utility.yul\":34567:34572   */\n      dup2\n        /* \"#utility.yul\":34556:34572   */\n      swap1\n      pop\n        /* \"#utility.yul\":34501:34578   */\n      swap2\n      swap1\n      pop\n      jump\t// out\n        /* \"#utility.yul\":34584:34706   */\n    tag_483:\n        /* \"#utility.yul\":34657:34681   */\n      tag_895\n        /* \"#utility.yul\":34675:34680   */\n      dup2\n        /* \"#utility.yul\":34657:34681   */\n      tag_482\n      jump\t// in\n    tag_895:\n        /* \"#utility.yul\":34650:34655   */\n      dup2\n        /* \"#utility.yul\":34647:34682   */\n      eq\n        /* \"#utility.yul\":34637:34700   */\n      tag_896\n      jumpi\n        /* \"#utility.yul\":34696:34697   */\n      0x00\n        /* \"#utility.yul\":34693:34694   */\n      dup1\n        /* \"#utility.yul\":34686:34698   */\n      revert\n        /* \"#utility.yul\":34637:34700   */\n    tag_896:\n        /* \"#utility.yul\":34584:34706   */\n      pop\n      jump\t// out\n        /* \"#utility.yul\":34712:34851   */\n    tag_484:\n        /* \"#utility.yul\":34758:34763   */\n      0x00\n        /* \"#utility.yul\":34796:34802   */\n      dup2\n        /* \"#utility.yul\":34783:34803   */\n      calldataload\n        /* \"#utility.yul\":34774:34803   */\n      swap1\n      pop\n        /* \"#utility.yul\":34812:34845   */\n      tag_898\n        /* \"#utility.yul\":34839:34844   */\n      dup2\n        /* \"#utility.yul\":34812:34845   */\n      tag_483\n      jump\t// in\n    tag_898:\n        /* \"#utility.yul\":34712:34851   */\n      swap3\n      swap2\n      pop\n      pop\n      jump\t// out\n        /* \"#utility.yul\":34857:35476   */\n    tag_98:\n        /* \"#utility.yul\":34934:34940   */\n      0x00\n        /* \"#utility.yul\":34942:34948   */\n      dup1\n        /* \"#utility.yul\":34950:34956   */\n      0x00\n        /* \"#utility.yul\":34999:35001   */\n      0x60\n        /* \"#utility.yul\":34987:34996   */\n      dup5\n        /* \"#utility.yul\":34978:34985   */\n      dup7\n        /* \"#utility.yul\":34974:34997   */\n      sub\n        /* \"#utility.yul\":34970:35002   */\n      slt\n        /* \"#utility.yul\":34967:35086   */\n      iszero\n      tag_900\n      jumpi\n        /* \"#utility.yul\":35005:35084   */\n      tag_901\n      tag_412\n      jump\t// in\n    tag_901:\n        /* \"#utility.yul\":34967:35086   */\n    tag_900:\n        /* \"#utility.yul\":35125:35126   */\n      0x00\n        /* \"#utility.yul\":35150:35203   */\n      tag_902\n        /* \"#utility.yul\":35195:35202   */\n      dup7\n        /* \"#utility.yul\":35186:35192   */\n      dup3\n        /* \"#utility.yul\":35175:35184   */\n      dup8\n        /* \"#utility.yul\":35171:35193   */\n      add\n        /* \"#utility.yul\":35150:35203   */\n      tag_416\n      jump\t// in\n    tag_902:\n        /* \"#utility.yul\":35140:35203   */\n      swap4\n      pop\n        /* \"#utility.yul\":35096:35213   */\n      pop\n        /* \"#utility.yul\":35252:35254   */\n      0x20\n        /* \"#utility.yul\":35278:35331   */\n      tag_903\n        /* \"#utility.yul\":35323:35330   */\n      dup7\n        /* \"#utility.yul\":35314:35320   */\n      dup3\n        /* \"#utility.yul\":35303:35312   */\n      dup8\n        /* \"#utility.yul\":35299:35321   */\n      add\n        /* \"#utility.yul\":35278:35331   */\n      tag_484\n      jump\t// in\n    tag_903:\n        /* \"#utility.yul\":35268:35331   */\n      swap3\n      pop\n        /* \"#utility.yul\":35223:35341   */\n      pop\n        /* \"#utility.yul\":35380:35382   */\n      0x40\n        /* \"#utility.yul\":35406:35459   */\n      tag_904\n        /* \"#utility.yul\":35451:35458   */\n      dup7\n        /* \"#utility.yul\":35442:35448   */\n      dup3\n        /* \"#utility.yul\":35431:35440   */\n      dup8\n        /* \"#utility.yul\":35427:35449   */\n      add\n        /* \"#utility.yul\":35406:35459   */\n      tag_484\n      jump\t// in\n    tag_904:\n        /* \"#utility.yul\":35396:35459   */\n      swap2\n      pop\n        /* \"#utility.yul\":35351:35469   */\n      pop\n        /* \"#utility.yul\":34857:35476   */\n      swap3\n      pop\n      swap3\n      pop\n      swap3\n      jump\t// out\n        /* \"#utility.yul\":35482:35605   */\n    tag_485:\n        /* \"#utility.yul\":35558:35564   */\n      0x00\n        /* \"#utility.yul\":35592:35597   */\n      dup2\n        /* \"#utility.yul\":35586:35598   */\n      mload\n        /* \"#utility.yul\":35576:35598   */\n      swap1\n      pop\n        /* \"#utility.yul\":35482:35605   */\n      swap2\n      swap1\n      pop\n      jump\t// out\n        /* \"#utility.yul\":35611:35804   */\n    tag_486:\n        /* \"#utility.yul\":35719:35730   */\n      0x00\n        /* \"#utility.yul\":35753:35759   */\n      dup3\n        /* \"#utility.yul\":35748:35751   */\n      dup3\n        /* \"#utility.yul\":35741:35760   */\n      mstore\n        /* \"#utility.yul\":35793:35797   */\n      0x20\n        /* \"#utility.yul\":35788:35791   */\n      dup3\n        /* \"#utility.yul\":35784:35798   */\n      add\n        /* \"#utility.yul\":35769:35798   */\n      swap1\n      pop\n        /* \"#utility.yul\":35611:35804   */\n      swap3\n      swap2\n      pop\n      pop\n      jump\t// out\n        /* \"#utility.yul\":35810:35951   */\n    tag_487:\n        /* \"#utility.yul\":35886:35890   */\n      0x00\n        /* \"#utility.yul\":35909:35912   */\n      dup2\n        /* \"#utility.yul\":35901:35912   */\n      swap1\n      pop\n        /* \"#utility.yul\":35939:35943   */\n      0x20\n        /* \"#utility.yul\":35934:35937   */\n      dup3\n        /* \"#utility.yul\":35930:35944   */\n      add\n        /* \"#utility.yul\":35922:35944   */\n      swap1\n      pop\n        /* \"#utility.yul\":35810:35951   */\n      swap2\n      swap1\n      pop\n      jump\t// out\n        /* \"#utility.yul\":35957:36055   */\n    tag_488:\n        /* \"#utility.yul\":36008:36014   */\n      0x00\n        /* \"#utility.yul\":36042:36047   */\n      dup2\n        /* \"#utility.yul\":36036:36048   */\n      mload\n        /* \"#utility.yul\":36026:36048   */\n      swap1\n      pop\n        /* \"#utility.yul\":35957:36055   */\n      swap2\n      swap1\n      pop\n      jump\t// out\n        /* \"#utility.yul\":36061:36219   */\n    tag_489:\n        /* \"#utility.yul\":36134:36145   */\n      0x00\n        /* \"#utility.yul\":36168:36174   */\n      dup3\n        /* \"#utility.yul\":36163:36166   */\n      dup3\n        /* \"#utility.yul\":36156:36175   */\n      mstore\n        /* \"#utility.yul\":36208:36212   */\n      0x20\n        /* \"#utility.yul\":36203:36206   */\n      dup3\n        /* \"#utility.yul\":36199:36213   */\n      add\n        /* \"#utility.yul\":36184:36213   */\n      swap1\n      pop\n        /* \"#utility.yul\":36061:36219   */\n      swap3\n      swap2\n      pop\n      pop\n      jump\t// out\n        /* \"#utility.yul\":36225:36578   */\n    tag_490:\n        /* \"#utility.yul\":36301:36304   */\n      0x00\n        /* \"#utility.yul\":36329:36367   */\n      tag_911\n        /* \"#utility.yul\":36361:36366   */\n      dup3\n        /* \"#utility.yul\":36329:36367   */\n      tag_488\n      jump\t// in\n    tag_911:\n        /* \"#utility.yul\":36383:36443   */\n      tag_912\n        /* \"#utility.yul\":36436:36442   */\n      dup2\n        /* \"#utility.yul\":36431:36434   */\n      dup6\n        /* \"#utility.yul\":36383:36443   */\n      tag_489\n      jump\t// in\n    tag_912:\n        /* \"#utility.yul\":36376:36443   */\n      swap4\n      pop\n        /* \"#utility.yul\":36452:36517   */\n      tag_913\n        /* \"#utility.yul\":36510:36516   */\n      dup2\n        /* \"#utility.yul\":36505:36508   */\n      dup6\n        /* \"#utility.yul\":36498:36502   */\n      0x20\n        /* \"#utility.yul\":36491:36496   */\n      dup7\n        /* \"#utility.yul\":36487:36503   */\n      add\n        /* \"#utility.yul\":36452:36517   */\n      tag_426\n      jump\t// in\n    tag_913:\n        /* \"#utility.yul\":36542:36571   */\n      tag_914\n        /* \"#utility.yul\":36564:36570   */\n      dup2\n        /* \"#utility.yul\":36542:36571   */\n      tag_427\n      jump\t// in\n    tag_914:\n        /* \"#utility.yul\":36537:36540   */\n      dup5\n        /* \"#utility.yul\":36533:36572   */\n      add\n        /* \"#utility.yul\":36526:36572   */\n      swap2\n      pop\n        /* \"#utility.yul\":36305:36578   */\n      pop\n        /* \"#utility.yul\":36225:36578   */\n      swap3\n      swap2\n      pop\n      pop\n      jump\t// out\n        /* \"#utility.yul\":36584:36776   */\n    tag_491:\n        /* \"#utility.yul\":36671:36681   */\n      0x00\n        /* \"#utility.yul\":36706:36770   */\n      tag_916\n        /* \"#utility.yul\":36766:36769   */\n      dup4\n        /* \"#utility.yul\":36758:36764   */\n      dup4\n        /* \"#utility.yul\":36706:36770   */\n      tag_490\n      jump\t// in\n    tag_916:\n        /* \"#utility.yul\":36692:36770   */\n      swap1\n      pop\n        /* \"#utility.yul\":36584:36776   */\n      swap3\n      swap2\n      pop\n      pop\n      jump\t// out\n        /* \"#utility.yul\":36782:36904   */\n    tag_492:\n        /* \"#utility.yul\":36861:36865   */\n      0x00\n        /* \"#utility.yul\":36893:36897   */\n      0x20\n        /* \"#utility.yul\":36888:36891   */\n      dup3\n        /* \"#utility.yul\":36884:36898   */\n      add\n        /* \"#utility.yul\":36876:36898   */\n      swap1\n      pop\n        /* \"#utility.yul\":36782:36904   */\n      swap2\n      swap1\n      pop\n      jump\t// out\n        /* \"#utility.yul\":36936:37919   */\n    tag_493:\n        /* \"#utility.yul\":37073:37076   */\n      0x00\n        /* \"#utility.yul\":37102:37165   */\n      tag_919\n        /* \"#utility.yul\":37159:37164   */\n      dup3\n        /* \"#utility.yul\":37102:37165   */\n      tag_485\n      jump\t// in\n    tag_919:\n        /* \"#utility.yul\":37181:37276   */\n      tag_920\n        /* \"#utility.yul\":37269:37275   */\n      dup2\n        /* \"#utility.yul\":37264:37267   */\n      dup6\n        /* \"#utility.yul\":37181:37276   */\n      tag_486\n      jump\t// in\n    tag_920:\n        /* \"#utility.yul\":37174:37276   */\n      swap4\n      pop\n        /* \"#utility.yul\":37302:37305   */\n      dup4\n        /* \"#utility.yul\":37347:37351   */\n      0x20\n        /* \"#utility.yul\":37339:37345   */\n      dup3\n        /* \"#utility.yul\":37335:37352   */\n      mul\n        /* \"#utility.yul\":37330:37333   */\n      dup6\n        /* \"#utility.yul\":37326:37353   */\n      add\n        /* \"#utility.yul\":37377:37442   */\n      tag_921\n        /* \"#utility.yul\":37436:37441   */\n      dup6\n        /* \"#utility.yul\":37377:37442   */\n      tag_487\n      jump\t// in\n    tag_921:\n        /* \"#utility.yul\":37465:37472   */\n      dup1\n        /* \"#utility.yul\":37496:37497   */\n      0x00\n        /* \"#utility.yul\":37481:37874   */\n    tag_922:\n        /* \"#utility.yul\":37506:37512   */\n      dup6\n        /* \"#utility.yul\":37503:37504   */\n      dup2\n        /* \"#utility.yul\":37500:37513   */\n      lt\n        /* \"#utility.yul\":37481:37874   */\n      iszero\n      tag_924\n      jumpi\n        /* \"#utility.yul\":37577:37586   */\n      dup5\n        /* \"#utility.yul\":37571:37575   */\n      dup5\n        /* \"#utility.yul\":37567:37587   */\n      sub\n        /* \"#utility.yul\":37562:37565   */\n      dup10\n        /* \"#utility.yul\":37555:37588   */\n      mstore\n        /* \"#utility.yul\":37628:37634   */\n      dup2\n        /* \"#utility.yul\":37622:37635   */\n      mload\n        /* \"#utility.yul\":37656:37738   */\n      tag_925\n        /* \"#utility.yul\":37733:37737   */\n      dup6\n        /* \"#utility.yul\":37718:37731   */\n      dup3\n        /* \"#utility.yul\":37656:37738   */\n      tag_491\n      jump\t// in\n    tag_925:\n        /* \"#utility.yul\":37648:37738   */\n      swap5\n      pop\n        /* \"#utility.yul\":37761:37830   */\n      tag_926\n        /* \"#utility.yul\":37823:37829   */\n      dup4\n        /* \"#utility.yul\":37761:37830   */\n      tag_492\n      jump\t// in\n    tag_926:\n        /* \"#utility.yul\":37751:37830   */\n      swap3\n      pop\n        /* \"#utility.yul\":37859:37863   */\n      0x20\n        /* \"#utility.yul\":37854:37857   */\n      dup11\n        /* \"#utility.yul\":37850:37864   */\n      add\n        /* \"#utility.yul\":37843:37864   */\n      swap10\n      pop\n        /* \"#utility.yul\":37541:37874   */\n      pop\n        /* \"#utility.yul\":37528:37529   */\n      0x01\n        /* \"#utility.yul\":37525:37526   */\n      dup2\n        /* \"#utility.yul\":37521:37530   */\n      add\n        /* \"#utility.yul\":37516:37530   */\n      swap1\n      pop\n        /* \"#utility.yul\":37481:37874   */\n      jump(tag_922)\n    tag_924:\n        /* \"#utility.yul\":37485:37499   */\n      pop\n        /* \"#utility.yul\":37890:37894   */\n      dup3\n        /* \"#utility.yul\":37883:37894   */\n      swap8\n      pop\n        /* \"#utility.yul\":37910:37913   */\n      dup8\n        /* \"#utility.yul\":37903:37913   */\n      swap6\n      pop\n        /* \"#utility.yul\":37078:37919   */\n      pop\n      pop\n      pop\n      pop\n      pop\n        /* \"#utility.yul\":36936:37919   */\n      swap3\n      swap2\n      pop\n      pop\n      jump\t// out\n        /* \"#utility.yul\":37925:38334   */\n    tag_101:\n        /* \"#utility.yul\":38086:38090   */\n      0x00\n        /* \"#utility.yul\":38124:38126   */\n      0x20\n        /* \"#utility.yul\":38113:38122   */\n      dup3\n        /* \"#utility.yul\":38109:38127   */\n      add\n        /* \"#utility.yul\":38101:38127   */\n      swap1\n      pop\n        /* \"#utility.yul\":38173:38182   */\n      dup2\n        /* \"#utility.yul\":38167:38171   */\n      dup2\n        /* \"#utility.yul\":38163:38183   */\n      sub\n        /* \"#utility.yul\":38159:38160   */\n      0x00\n        /* \"#utility.yul\":38148:38157   */\n      dup4\n        /* \"#utility.yul\":38144:38161   */\n      add\n        /* \"#utility.yul\":38137:38184   */\n      mstore\n        /* \"#utility.yul\":38201:38327   */\n      tag_928\n        /* \"#utility.yul\":38322:38326   */\n      dup2\n        /* \"#utility.yul\":38313:38319   */\n      dup5\n        /* \"#utility.yul\":38201:38327   */\n      tag_493\n      jump\t// in\n    tag_928:\n        /* \"#utility.yul\":38193:38327   */\n      swap1\n      pop\n        /* \"#utility.yul\":37925:38334   */\n      swap3\n      swap2\n      pop\n      pop\n      jump\t// out\n        /* \"#utility.yul\":38340:38509   */\n    tag_494:\n        /* \"#utility.yul\":38424:38435   */\n      0x00\n        /* \"#utility.yul\":38458:38464   */\n      dup3\n        /* \"#utility.yul\":38453:38456   */\n      dup3\n        /* \"#utility.yul\":38446:38465   */\n      mstore\n        /* \"#utility.yul\":38498:38502   */\n      0x20\n        /* \"#utility.yul\":38493:38496   */\n      dup3\n        /* \"#utility.yul\":38489:38503   */\n      add\n        /* \"#utility.yul\":38474:38503   */\n      swap1\n      pop\n        /* \"#utility.yul\":38340:38509   */\n      swap3\n      swap2\n      pop\n      pop\n      jump\t// out\n        /* \"#utility.yul\":38515:38687   */\n    tag_495:\n        /* \"#utility.yul\":38655:38679   */\n      0x46696c652075706c6f6164206e6f742065786973747300000000000000000000\n        /* \"#utility.yul\":38651:38652   */\n      0x00\n        /* \"#utility.yul\":38643:38649   */\n      dup3\n        /* \"#utility.yul\":38639:38653   */\n      add\n        /* \"#utility.yul\":38632:38680   */\n      mstore\n        /* \"#utility.yul\":38515:38687   */\n      pop\n      jump\t// out\n        /* \"#utility.yul\":38693:39059   */\n    tag_496:\n        /* \"#utility.yul\":38835:38838   */\n      0x00\n        /* \"#utility.yul\":38856:38923   */\n      tag_932\n        /* \"#utility.yul\":38920:38922   */\n      0x16\n        /* \"#utility.yul\":38915:38918   */\n      dup4\n        /* \"#utility.yul\":38856:38923   */\n      tag_494\n      jump\t// in\n    tag_932:\n        /* \"#utility.yul\":38849:38923   */\n      swap2\n      pop\n        /* \"#utility.yul\":38932:39025   */\n      tag_933\n        /* \"#utility.yul\":39021:39024   */\n      dup3\n        /* \"#utility.yul\":38932:39025   */\n      tag_495\n      jump\t// in\n    tag_933:\n        /* \"#utility.yul\":39050:39052   */\n      0x20\n        /* \"#utility.yul\":39045:39048   */\n      dup3\n        /* \"#utility.yul\":39041:39053   */\n      add\n        /* \"#utility.yul\":39034:39053   */\n      swap1\n      pop\n        /* \"#utility.yul\":38693:39059   */\n      swap2\n      swap1\n      pop\n      jump\t// out\n        /* \"#utility.yul\":39065:39484   */\n    tag_112:\n        /* \"#utility.yul\":39231:39235   */\n      0x00\n        /* \"#utility.yul\":39269:39271   */\n      0x20\n        /* \"#utility.yul\":39258:39267   */\n      dup3\n        /* \"#utility.yul\":39254:39272   */\n      add\n        /* \"#utility.yul\":39246:39272   */\n      swap1\n      pop\n        /* \"#utility.yul\":39318:39327   */\n      dup2\n        /* \"#utility.yul\":39312:39316   */\n      dup2\n        /* \"#utility.yul\":39308:39328   */\n      sub\n        /* \"#utility.yul\":39304:39305   */\n      0x00\n        /* \"#utility.yul\":39293:39302   */\n      dup4\n        /* \"#utility.yul\":39289:39306   */\n      add\n        /* \"#utility.yul\":39282:39329   */\n      mstore\n        /* \"#utility.yul\":39346:39477   */\n      tag_935\n        /* \"#utility.yul\":39472:39476   */\n      dup2\n        /* \"#utility.yul\":39346:39477   */\n      tag_496\n      jump\t// in\n    tag_935:\n        /* \"#utility.yul\":39338:39477   */\n      swap1\n      pop\n        /* \"#utility.yul\":39065:39484   */\n      swap2\n      swap1\n      pop\n      jump\t// out\n        /* \"#utility.yul\":39490:39670   */\n    tag_497:\n        /* \"#utility.yul\":39538:39615   */\n      0x4e487b7100000000000000000000000000000000000000000000000000000000\n        /* \"#utility.yul\":39535:39536   */\n      0x00\n        /* \"#utility.yul\":39528:39616   */\n      mstore\n        /* \"#utility.yul\":39635:39639   */\n      0x22\n        /* \"#utility.yul\":39632:39633   */\n      0x04\n        /* \"#utility.yul\":39625:39640   */\n      mstore\n        /* \"#utility.yul\":39659:39663   */\n      0x24\n        /* \"#utility.yul\":39656:39657   */\n      0x00\n        /* \"#utility.yul\":39649:39664   */\n      revert\n        /* \"#utility.yul\":39676:39996   */\n    tag_117:\n        /* \"#utility.yul\":39720:39726   */\n      0x00\n        /* \"#utility.yul\":39757:39758   */\n      0x02\n        /* \"#utility.yul\":39751:39755   */\n      dup3\n        /* \"#utility.yul\":39747:39759   */\n      div\n        /* \"#utility.yul\":39737:39759   */\n      swap1\n      pop\n        /* \"#utility.yul\":39804:39805   */\n      0x01\n        /* \"#utility.yul\":39798:39802   */\n      dup3\n        /* \"#utility.yul\":39794:39806   */\n      and\n        /* \"#utility.yul\":39825:39843   */\n      dup1\n        /* \"#utility.yul\":39815:39896   */\n      tag_938\n      jumpi\n        /* \"#utility.yul\":39881:39885   */\n      0x7f\n        /* \"#utility.yul\":39873:39879   */\n      dup3\n        /* \"#utility.yul\":39869:39886   */\n      and\n        /* \"#utility.yul\":39859:39886   */\n      swap2\n      pop\n        /* \"#utility.yul\":39815:39896   */\n    tag_938:\n        /* \"#utility.yul\":39943:39945   */\n      0x20\n        /* \"#utility.yul\":39935:39941   */\n      dup3\n        /* \"#utility.yul\":39932:39946   */\n      lt\n        /* \"#utility.yul\":39912:39930   */\n      dup2\n        /* \"#utility.yul\":39909:39947   */\n      sub\n        /* \"#utility.yul\":39906:39990   */\n      tag_939\n      jumpi\n        /* \"#utility.yul\":39962:39980   */\n      tag_940\n      tag_497\n      jump\t// in\n    tag_940:\n        /* \"#utility.yul\":39906:39990   */\n    tag_939:\n        /* \"#utility.yul\":39727:39996   */\n      pop\n        /* \"#utility.yul\":39676:39996   */\n      swap2\n      swap1\n      pop\n      jump\t// out\n        /* \"#utility.yul\":40002:40170   */\n    tag_498:\n        /* \"#utility.yul\":40142:40162   */\n      0x496e76616c6964206368756e6b2073697a650000000000000000000000000000\n        /* \"#utility.yul\":40138:40139   */\n      0x00\n        /* \"#utility.yul\":40130:40136   */\n      dup3\n        /* \"#utility.yul\":40126:40140   */\n      add\n        /* \"#utility.yul\":40119:40163   */\n      mstore\n        /* \"#utility.yul\":40002:40170   */\n      pop\n      jump\t// out\n        /* \"#utility.yul\":40176:40542   */\n    tag_499:\n        /* \"#utility.yul\":40318:40321   */\n      0x00\n        /* \"#utility.yul\":40339:40406   */\n      tag_943\n        /* \"#utility.yul\":40403:40405   */\n      0x12\n        /* \"#utility.yul\":40398:40401   */\n      dup4\n        /* \"#utility.yul\":40339:40406   */\n      tag_494\n      jump\t// in\n    tag_943:\n        /* \"#utility.yul\":40332:40406   */\n      swap2\n      pop\n        /* \"#utility.yul\":40415:40508   */\n      tag_944\n        /* \"#utility.yul\":40504:40507   */\n      dup3\n        /* \"#utility.yul\":40415:40508   */\n      tag_498\n      jump\t// in\n    tag_944:\n        /* \"#utility.yul\":40533:40535   */\n      0x20\n        /* \"#utility.yul\":40528:40531   */\n      dup3\n        /* \"#utility.yul\":40524:40536   */\n      add\n        /* \"#utility.yul\":40517:40536   */\n      swap1\n      pop\n        /* \"#utility.yul\":40176:40542   */\n      swap2\n      swap1\n      pop\n      jump\t// out\n        /* \"#utility.yul\":40548:40967   */\n    tag_145:\n        /* \"#utility.yul\":40714:40718   */\n      0x00\n        /* \"#utility.yul\":40752:40754   */\n      0x20\n        /* \"#utility.yul\":40741:40750   */\n      dup3\n        /* \"#utility.yul\":40737:40755   */\n      add\n        /* \"#utility.yul\":40729:40755   */\n      swap1\n      pop\n        /* \"#utility.yul\":40801:40810   */\n      dup2\n        /* \"#utility.yul\":40795:40799   */\n      dup2\n        /* \"#utility.yul\":40791:40811   */\n      sub\n        /* \"#utility.yul\":40787:40788   */\n      0x00\n        /* \"#utility.yul\":40776:40785   */\n      dup4\n        /* \"#utility.yul\":40772:40789   */\n      add\n        /* \"#utility.yul\":40765:40812   */\n      mstore\n        /* \"#utility.yul\":40829:40960   */\n      tag_946\n        /* \"#utility.yul\":40955:40959   */\n      dup2\n        /* \"#utility.yul\":40829:40960   */\n      tag_499\n      jump\t// in\n    tag_946:\n        /* \"#utility.yul\":40821:40960   */\n      swap1\n      pop\n        /* \"#utility.yul\":40548:40967   */\n      swap2\n      swap1\n      pop\n      jump\t// out\n        /* \"#utility.yul\":40973:41146   */\n    tag_500:\n        /* \"#utility.yul\":41113:41138   */\n      0x43616c6c6572206973206e6f7420746865206f776e6572000000000000000000\n        /* \"#utility.yul\":41109:41110   */\n      0x00\n        /* \"#utility.yul\":41101:41107   */\n      dup3\n        /* \"#utility.yul\":41097:41111   */\n      add\n        /* \"#utility.yul\":41090:41139   */\n      mstore\n        /* \"#utility.yul\":40973:41146   */\n      pop\n      jump\t// out\n        /* \"#utility.yul\":41152:41518   */\n    tag_501:\n        /* \"#utility.yul\":41294:41297   */\n      0x00\n        /* \"#utility.yul\":41315:41382   */\n      tag_949\n        /* \"#utility.yul\":41379:41381   */\n      0x17\n        /* \"#utility.yul\":41374:41377   */\n      dup4\n        /* \"#utility.yul\":41315:41382   */\n      tag_494\n      jump\t// in\n    tag_949:\n        /* \"#utility.yul\":41308:41382   */\n      swap2\n      pop\n        /* \"#utility.yul\":41391:41484   */\n      tag_950\n        /* \"#utility.yul\":41480:41483   */\n      dup3\n        /* \"#utility.yul\":41391:41484   */\n      tag_500\n      jump\t// in\n    tag_950:\n        /* \"#utility.yul\":41509:41511   */\n      0x20\n        /* \"#utility.yul\":41504:41507   */\n      dup3\n        /* \"#utility.yul\":41500:41512   */\n      add\n        /* \"#utility.yul\":41493:41512   */\n      swap1\n      pop\n        /* \"#utility.yul\":41152:41518   */\n      swap2\n      swap1\n      pop\n      jump\t// out\n        /* \"#utility.yul\":41524:41943   */\n    tag_148:\n        /* \"#utility.yul\":41690:41694   */\n      0x00\n        /* \"#utility.yul\":41728:41730   */\n      0x20\n        /* \"#utility.yul\":41717:41726   */\n      dup3\n        /* \"#utility.yul\":41713:41731   */\n      add\n        /* \"#utility.yul\":41705:41731   */\n      swap1\n      pop\n        /* \"#utility.yul\":41777:41786   */\n      dup2\n        /* \"#utility.yul\":41771:41775   */\n      dup2\n        /* \"#utility.yul\":41767:41787   */\n      sub\n        /* \"#utility.yul\":41763:41764   */\n      0x00\n        /* \"#utility.yul\":41752:41761   */\n      dup4\n        /* \"#utility.yul\":41748:41765   */\n      add\n        /* \"#utility.yul\":41741:41788   */\n      mstore\n        /* \"#utility.yul\":41805:41936   */\n      tag_952\n        /* \"#utility.yul\":41931:41935   */\n      dup2\n        /* \"#utility.yul\":41805:41936   */\n      tag_501\n      jump\t// in\n    tag_952:\n        /* \"#utility.yul\":41797:41936   */\n      swap1\n      pop\n        /* \"#utility.yul\":41524:41943   */\n      swap2\n      swap1\n      pop\n      jump\t// out\n        /* \"#utility.yul\":41949:42129   */\n    tag_502:\n        /* \"#utility.yul\":41997:42074   */\n      0x4e487b7100000000000000000000000000000000000000000000000000000000\n        /* \"#utility.yul\":41994:41995   */\n      0x00\n        /* \"#utility.yul\":41987:42075   */\n      mstore\n        /* \"#utility.yul\":42094:42098   */\n      0x11\n        /* \"#utility.yul\":42091:42092   */\n      0x04\n        /* \"#utility.yul\":42084:42099   */\n      mstore\n        /* \"#utility.yul\":42118:42122   */\n      0x24\n        /* \"#utility.yul\":42115:42116   */\n      0x00\n        /* \"#utility.yul\":42108:42123   */\n      revert\n        /* \"#utility.yul\":42135:42326   */\n    tag_150:\n        /* \"#utility.yul\":42175:42178   */\n      0x00\n        /* \"#utility.yul\":42194:42214   */\n      tag_955\n        /* \"#utility.yul\":42212:42213   */\n      dup3\n        /* \"#utility.yul\":42194:42214   */\n      tag_482\n      jump\t// in\n    tag_955:\n        /* \"#utility.yul\":42189:42214   */\n      swap2\n      pop\n        /* \"#utility.yul\":42228:42248   */\n      tag_956\n        /* \"#utility.yul\":42246:42247   */\n      dup4\n        /* \"#utility.yul\":42228:42248   */\n      tag_482\n      jump\t// in\n    tag_956:\n        /* \"#utility.yul\":42223:42248   */\n      swap3\n      pop\n        /* \"#utility.yul\":42271:42272   */\n      dup3\n        /* \"#utility.yul\":42268:42269   */\n      dup3\n        /* \"#utility.yul\":42264:42273   */\n      add\n        /* \"#utility.yul\":42257:42273   */\n      swap1\n      pop\n        /* \"#utility.yul\":42292:42295   */\n      dup1\n        /* \"#utility.yul\":42289:42290   */\n      dup3\n        /* \"#utility.yul\":42286:42296   */\n      gt\n        /* \"#utility.yul\":42283:42319   */\n      iszero\n      tag_957\n      jumpi\n        /* \"#utility.yul\":42299:42317   */\n      tag_958\n      tag_502\n      jump\t// in\n    tag_958:\n        /* \"#utility.yul\":42283:42319   */\n    tag_957:\n        /* \"#utility.yul\":42135:42326   */\n      swap3\n      swap2\n      pop\n      pop\n      jump\t// out\n        /* \"#utility.yul\":42332:42507   */\n    tag_503:\n        /* \"#utility.yul\":42472:42499   */\n      0x4368756e6b20657863656564732066696c65206c656e67746800000000000000\n        /* \"#utility.yul\":42468:42469   */\n      0x00\n        /* \"#utility.yul\":42460:42466   */\n      dup3\n        /* \"#utility.yul\":42456:42470   */\n      add\n        /* \"#utility.yul\":42449:42500   */\n      mstore\n        /* \"#utility.yul\":42332:42507   */\n      pop\n      jump\t// out\n        /* \"#utility.yul\":42513:42879   */\n    tag_504:\n        /* \"#utility.yul\":42655:42658   */\n      0x00\n        /* \"#utility.yul\":42676:42743   */\n      tag_961\n        /* \"#utility.yul\":42740:42742   */\n      0x19\n        /* \"#utility.yul\":42735:42738   */\n      dup4\n        /* \"#utility.yul\":42676:42743   */\n      tag_494\n      jump\t// in\n    tag_961:\n        /* \"#utility.yul\":42669:42743   */\n      swap2\n      pop\n        /* \"#utility.yul\":42752:42845   */\n      tag_962\n        /* \"#utility.yul\":42841:42844   */\n      dup3\n        /* \"#utility.yul\":42752:42845   */\n      tag_503\n      jump\t// in\n    tag_962:\n        /* \"#utility.yul\":42870:42872   */\n      0x20\n        /* \"#utility.yul\":42865:42868   */\n      dup3\n        /* \"#utility.yul\":42861:42873   */\n      add\n        /* \"#utility.yul\":42854:42873   */\n      swap1\n      pop\n        /* \"#utility.yul\":42513:42879   */\n      swap2\n      swap1\n      pop\n      jump\t// out\n        /* \"#utility.yul\":42885:43304   */\n    tag_153:\n        /* \"#utility.yul\":43051:43055   */\n      0x00\n        /* \"#utility.yul\":43089:43091   */\n      0x20\n        /* \"#utility.yul\":43078:43087   */\n      dup3\n        /* \"#utility.yul\":43074:43092   */\n      add\n        /* \"#utility.yul\":43066:43092   */\n      swap1\n      pop\n        /* \"#utility.yul\":43138:43147   */\n      dup2\n        /* \"#utility.yul\":43132:43136   */\n      dup2\n        /* \"#utility.yul\":43128:43148   */\n      sub\n        /* \"#utility.yul\":43124:43125   */\n      0x00\n        /* \"#utility.yul\":43113:43122   */\n      dup4\n        /* \"#utility.yul\":43109:43126   */\n      add\n        /* \"#utility.yul\":43102:43149   */\n      mstore\n        /* \"#utility.yul\":43166:43297   */\n      tag_964\n        /* \"#utility.yul\":43292:43296   */\n      dup2\n        /* \"#utility.yul\":43166:43297   */\n      tag_504\n      jump\t// in\n    tag_964:\n        /* \"#utility.yul\":43158:43297   */\n      swap1\n      pop\n        /* \"#utility.yul\":42885:43304   */\n      swap2\n      swap1\n      pop\n      jump\t// out\n        /* \"#utility.yul\":43310:43487   */\n    tag_505:\n        /* \"#utility.yul\":43450:43479   */\n      0x46696c65206973206e6f74206265696e672070726f6365737365640000000000\n        /* \"#utility.yul\":43446:43447   */\n      0x00\n        /* \"#utility.yul\":43438:43444   */\n      dup3\n        /* \"#utility.yul\":43434:43448   */\n      add\n        /* \"#utility.yul\":43427:43480   */\n      mstore\n        /* \"#utility.yul\":43310:43487   */\n      pop\n      jump\t// out\n        /* \"#utility.yul\":43493:43859   */\n    tag_506:\n        /* \"#utility.yul\":43635:43638   */\n      0x00\n        /* \"#utility.yul\":43656:43723   */\n      tag_967\n        /* \"#utility.yul\":43720:43722   */\n      0x1b\n        /* \"#utility.yul\":43715:43718   */\n      dup4\n        /* \"#utility.yul\":43656:43723   */\n      tag_494\n      jump\t// in\n    tag_967:\n        /* \"#utility.yul\":43649:43723   */\n      swap2\n      pop\n        /* \"#utility.yul\":43732:43825   */\n      tag_968\n        /* \"#utility.yul\":43821:43824   */\n      dup3\n        /* \"#utility.yul\":43732:43825   */\n      tag_505\n      jump\t// in\n    tag_968:\n        /* \"#utility.yul\":43850:43852   */\n      0x20\n        /* \"#utility.yul\":43845:43848   */\n      dup3\n        /* \"#utility.yul\":43841:43853   */\n      add\n        /* \"#utility.yul\":43834:43853   */\n      swap1\n      pop\n        /* \"#utility.yul\":43493:43859   */\n      swap2\n      swap1\n      pop\n      jump\t// out\n        /* \"#utility.yul\":43865:44284   */\n    tag_160:\n        /* \"#utility.yul\":44031:44035   */\n      0x00\n        /* \"#utility.yul\":44069:44071   */\n      0x20\n        /* \"#utility.yul\":44058:44067   */\n      dup3\n        /* \"#utility.yul\":44054:44072   */\n      add\n        /* \"#utility.yul\":44046:44072   */\n      swap1\n      pop\n        /* \"#utility.yul\":44118:44127   */\n      dup2\n        /* \"#utility.yul\":44112:44116   */\n      dup2\n        /* \"#utility.yul\":44108:44128   */\n      sub\n        /* \"#utility.yul\":44104:44105   */\n      0x00\n        /* \"#utility.yul\":44093:44102   */\n      dup4\n        /* \"#utility.yul\":44089:44106   */\n      add\n        /* \"#utility.yul\":44082:44129   */\n      mstore\n        /* \"#utility.yul\":44146:44277   */\n      tag_970\n        /* \"#utility.yul\":44272:44276   */\n      dup2\n        /* \"#utility.yul\":44146:44277   */\n      tag_506\n      jump\t// in\n    tag_970:\n        /* \"#utility.yul\":44138:44277   */\n      swap1\n      pop\n        /* \"#utility.yul\":43865:44284   */\n      swap2\n      swap1\n      pop\n      jump\t// out\n        /* \"#utility.yul\":44290:44369   */\n    tag_507:\n        /* \"#utility.yul\":44329:44336   */\n      0x00\n        /* \"#utility.yul\":44358:44363   */\n      dup2\n        /* \"#utility.yul\":44347:44363   */\n      swap1\n      pop\n        /* \"#utility.yul\":44290:44369   */\n      swap2\n      swap1\n      pop\n      jump\t// out\n        /* \"#utility.yul\":44375:44532   */\n    tag_508:\n        /* \"#utility.yul\":44480:44525   */\n      tag_973\n        /* \"#utility.yul\":44500:44524   */\n      tag_974\n        /* \"#utility.yul\":44518:44523   */\n      dup3\n        /* \"#utility.yul\":44500:44524   */\n      tag_414\n      jump\t// in\n    tag_974:\n        /* \"#utility.yul\":44480:44525   */\n      tag_507\n      jump\t// in\n    tag_973:\n        /* \"#utility.yul\":44475:44478   */\n      dup3\n        /* \"#utility.yul\":44468:44526   */\n      mstore\n        /* \"#utility.yul\":44375:44532   */\n      pop\n      pop\n      jump\t// out\n        /* \"#utility.yul\":44538:44685   */\n    tag_509:\n        /* \"#utility.yul\":44639:44650   */\n      0x00\n        /* \"#utility.yul\":44676:44679   */\n      dup2\n        /* \"#utility.yul\":44661:44679   */\n      swap1\n      pop\n        /* \"#utility.yul\":44538:44685   */\n      swap3\n      swap2\n      pop\n      pop\n      jump\t// out\n        /* \"#utility.yul\":44691:45077   */\n    tag_510:\n        /* \"#utility.yul\":44795:44798   */\n      0x00\n        /* \"#utility.yul\":44823:44861   */\n      tag_977\n        /* \"#utility.yul\":44855:44860   */\n      dup3\n        /* \"#utility.yul\":44823:44861   */\n      tag_488\n      jump\t// in\n    tag_977:\n        /* \"#utility.yul\":44877:44965   */\n      tag_978\n        /* \"#utility.yul\":44958:44964   */\n      dup2\n        /* \"#utility.yul\":44953:44956   */\n      dup6\n        /* \"#utility.yul\":44877:44965   */\n      tag_509\n      jump\t// in\n    tag_978:\n        /* \"#utility.yul\":44870:44965   */\n      swap4\n      pop\n        /* \"#utility.yul\":44974:45039   */\n      tag_979\n        /* \"#utility.yul\":45032:45038   */\n      dup2\n        /* \"#utility.yul\":45027:45030   */\n      dup6\n        /* \"#utility.yul\":45020:45024   */\n      0x20\n        /* \"#utility.yul\":45013:45018   */\n      dup7\n        /* \"#utility.yul\":45009:45025   */\n      add\n        /* \"#utility.yul\":44974:45039   */\n      tag_426\n      jump\t// in\n    tag_979:\n        /* \"#utility.yul\":45064:45070   */\n      dup1\n        /* \"#utility.yul\":45059:45062   */\n      dup5\n        /* \"#utility.yul\":45055:45071   */\n      add\n        /* \"#utility.yul\":45048:45071   */\n      swap2\n      pop\n        /* \"#utility.yul\":44799:45077   */\n      pop\n        /* \"#utility.yul\":44691:45077   */\n      swap3\n      swap2\n      pop\n      pop\n      jump\t// out\n        /* \"#utility.yul\":45083:45495   */\n    tag_162:\n        /* \"#utility.yul\":45241:45244   */\n      0x00\n        /* \"#utility.yul\":45256:45331   */\n      tag_981\n        /* \"#utility.yul\":45327:45330   */\n      dup3\n        /* \"#utility.yul\":45318:45324   */\n      dup6\n        /* \"#utility.yul\":45256:45331   */\n      tag_508\n      jump\t// in\n    tag_981:\n        /* \"#utility.yul\":45356:45358   */\n      0x20\n        /* \"#utility.yul\":45351:45354   */\n      dup3\n        /* \"#utility.yul\":45347:45359   */\n      add\n        /* \"#utility.yul\":45340:45359   */\n      swap2\n      pop\n        /* \"#utility.yul\":45376:45469   */\n      tag_982\n        /* \"#utility.yul\":45465:45468   */\n      dup3\n        /* \"#utility.yul\":45456:45462   */\n      dup5\n        /* \"#utility.yul\":45376:45469   */\n      tag_510\n      jump\t// in\n    tag_982:\n        /* \"#utility.yul\":45369:45469   */\n      swap2\n      pop\n        /* \"#utility.yul\":45486:45489   */\n      dup2\n        /* \"#utility.yul\":45479:45489   */\n      swap1\n      pop\n        /* \"#utility.yul\":45083:45495   */\n      swap4\n      swap3\n      pop\n      pop\n      pop\n      jump\t// out\n        /* \"#utility.yul\":45501:45670   */\n    tag_511:\n        /* \"#utility.yul\":45641:45662   */\n      0x4368756e6b2068617368206d69736d6174636800000000000000000000000000\n        /* \"#utility.yul\":45637:45638   */\n      0x00\n        /* \"#utility.yul\":45629:45635   */\n      dup3\n        /* \"#utility.yul\":45625:45639   */\n      add\n        /* \"#utility.yul\":45618:45663   */\n      mstore\n        /* \"#utility.yul\":45501:45670   */\n      pop\n      jump\t// out\n        /* \"#utility.yul\":45676:46042   */\n    tag_512:\n        /* \"#utility.yul\":45818:45821   */\n      0x00\n        /* \"#utility.yul\":45839:45906   */\n      tag_985\n        /* \"#utility.yul\":45903:45905   */\n      0x13\n        /* \"#utility.yul\":45898:45901   */\n      dup4\n        /* \"#utility.yul\":45839:45906   */\n      tag_494\n      jump\t// in\n    tag_985:\n        /* \"#utility.yul\":45832:45906   */\n      swap2\n      pop\n        /* \"#utility.yul\":45915:46008   */\n      tag_986\n        /* \"#utility.yul\":46004:46007   */\n      dup3\n        /* \"#utility.yul\":45915:46008   */\n      tag_511\n      jump\t// in\n    tag_986:\n        /* \"#utility.yul\":46033:46035   */\n      0x20\n        /* \"#utility.yul\":46028:46031   */\n      dup3\n        /* \"#utility.yul\":46024:46036   */\n      add\n        /* \"#utility.yul\":46017:46036   */\n      swap1\n      pop\n        /* \"#utility.yul\":45676:46042   */\n      swap2\n      swap1\n      pop\n      jump\t// out\n        /* \"#utility.yul\":46048:46467   */\n    tag_165:\n        /* \"#utility.yul\":46214:46218   */\n      0x00\n        /* \"#utility.yul\":46252:46254   */\n      0x20\n        /* \"#utility.yul\":46241:46250   */\n      dup3\n        /* \"#utility.yul\":46237:46255   */\n      add\n        /* \"#utility.yul\":46229:46255   */\n      swap1\n      pop\n        /* \"#utility.yul\":46301:46310   */\n      dup2\n        /* \"#utility.yul\":46295:46299   */\n      dup2\n        /* \"#utility.yul\":46291:46311   */\n      sub\n        /* \"#utility.yul\":46287:46288   */\n      0x00\n        /* \"#utility.yul\":46276:46285   */\n      dup4\n        /* \"#utility.yul\":46272:46289   */\n      add\n        /* \"#utility.yul\":46265:46312   */\n      mstore\n        /* \"#utility.yul\":46329:46460   */\n      tag_988\n        /* \"#utility.yul\":46455:46459   */\n      dup2\n        /* \"#utility.yul\":46329:46460   */\n      tag_512\n      jump\t// in\n    tag_988:\n        /* \"#utility.yul\":46321:46460   */\n      swap1\n      pop\n        /* \"#utility.yul\":46048:46467   */\n      swap2\n      swap1\n      pop\n      jump\t// out\n        /* \"#utility.yul\":46473:46613   */\n    tag_513:\n        /* \"#utility.yul\":46521:46525   */\n      0x00\n        /* \"#utility.yul\":46544:46547   */\n      dup2\n        /* \"#utility.yul\":46536:46547   */\n      swap1\n      pop\n        /* \"#utility.yul\":46567:46570   */\n      dup2\n        /* \"#utility.yul\":46564:46565   */\n      0x00\n        /* \"#utility.yul\":46557:46571   */\n      mstore\n        /* \"#utility.yul\":46601:46605   */\n      0x20\n        /* \"#utility.yul\":46598:46599   */\n      0x00\n        /* \"#utility.yul\":46588:46606   */\n      keccak256\n        /* \"#utility.yul\":46580:46606   */\n      swap1\n      pop\n        /* \"#utility.yul\":46473:46613   */\n      swap2\n      swap1\n      pop\n      jump\t// out\n        /* \"#utility.yul\":46619:46712   */\n    tag_514:\n        /* \"#utility.yul\":46656:46662   */\n      0x00\n        /* \"#utility.yul\":46703:46705   */\n      0x20\n        /* \"#utility.yul\":46698:46700   */\n      0x1f\n        /* \"#utility.yul\":46691:46696   */\n      dup4\n        /* \"#utility.yul\":46687:46701   */\n      add\n        /* \"#utility.yul\":46683:46706   */\n      div\n        /* \"#utility.yul\":46673:46706   */\n      swap1\n      pop\n        /* \"#utility.yul\":46619:46712   */\n      swap2\n      swap1\n      pop\n      jump\t// out\n        /* \"#utility.yul\":46718:46825   */\n    tag_515:\n        /* \"#utility.yul\":46762:46770   */\n      0x00\n        /* \"#utility.yul\":46812:46817   */\n      dup3\n        /* \"#utility.yul\":46806:46810   */\n      dup3\n        /* \"#utility.yul\":46802:46818   */\n      shl\n        /* \"#utility.yul\":46781:46818   */\n      swap1\n      pop\n        /* \"#utility.yul\":46718:46825   */\n      swap3\n      swap2\n      pop\n      pop\n      jump\t// out\n        /* \"#utility.yul\":46831:47224   */\n    tag_516:\n        /* \"#utility.yul\":46900:46906   */\n      0x00\n        /* \"#utility.yul\":46950:46951   */\n      0x08\n        /* \"#utility.yul\":46938:46948   */\n      dup4\n        /* \"#utility.yul\":46934:46952   */\n      mul\n        /* \"#utility.yul\":46973:47070   */\n      tag_993\n        /* \"#utility.yul\":47003:47069   */\n      0xffffffffffffffffffffffffffffffffffffffffffffffffffffffffffffffff\n        /* \"#utility.yul\":46992:47001   */\n      dup3\n        /* \"#utility.yul\":46973:47070   */\n      tag_515\n      jump\t// in\n    tag_993:\n        /* \"#utility.yul\":47091:47130   */\n      tag_994\n        /* \"#utility.yul\":47121:47129   */\n      dup7\n        /* \"#utility.yul\":47110:47119   */\n      dup4\n        /* \"#utility.yul\":47091:47130   */\n      tag_515\n      jump\t// in\n    tag_994:\n        /* \"#utility.yul\":47079:47130   */\n      swap6\n      pop\n        /* \"#utility.yul\":47163:47167   */\n      dup1\n        /* \"#utility.yul\":47159:47168   */\n      not\n        /* \"#utility.yul\":47152:47157   */\n      dup5\n        /* \"#utility.yul\":47148:47169   */\n      and\n        /* \"#utility.yul\":47139:47169   */\n      swap4\n      pop\n        /* \"#utility.yul\":47212:47216   */\n      dup1\n        /* \"#utility.yul\":47202:47210   */\n      dup7\n        /* \"#utility.yul\":47198:47217   */\n      and\n        /* \"#utility.yul\":47191:47196   */\n      dup5\n        /* \"#utility.yul\":47188:47218   */\n      or\n        /* \"#utility.yul\":47178:47218   */\n      swap3\n      pop\n        /* \"#utility.yul\":46907:47224   */\n      pop\n      pop\n        /* \"#utility.yul\":46831:47224   */\n      swap4\n      swap3\n      pop\n      pop\n      pop\n      jump\t// out\n        /* \"#utility.yul\":47230:47290   */\n    tag_517:\n        /* \"#utility.yul\":47258:47261   */\n      0x00\n        /* \"#utility.yul\":47279:47284   */\n      dup2\n        /* \"#utility.yul\":47272:47284   */\n      swap1\n      pop\n        /* \"#utility.yul\":47230:47290   */\n      swap2\n      swap1\n      pop\n      jump\t// out\n        /* \"#utility.yul\":47296:47438   */\n    tag_518:\n        /* \"#utility.yul\":47346:47355   */\n      0x00\n        /* \"#utility.yul\":47379:47432   */\n      tag_997\n        /* \"#utility.yul\":47397:47431   */\n      tag_998\n        /* \"#utility.yul\":47406:47430   */\n      tag_999\n        /* \"#utility.yul\":47424:47429   */\n      dup5\n        /* \"#utility.yul\":47406:47430   */\n      tag_482\n      jump\t// in\n    tag_999:\n        /* \"#utility.yul\":47397:47431   */\n      tag_517\n      jump\t// in\n    tag_998:\n        /* \"#utility.yul\":47379:47432   */\n      tag_482\n      jump\t// in\n    tag_997:\n        /* \"#utility.yul\":47366:47432   */\n      swap1\n      pop\n        /* \"#utility.yul\":47296:47438   */\n      swap2\n      swap1\n      pop\n      jump\t// out\n        /* \"#utility.yul\":47444:47519   */\n    tag_519:\n        /* \"#utility.yul\":47487:47490   */\n      0x00\n        /* \"#utility.yul\":47508:47513   */\n      dup2\n        /* \"#utility.yul\":47501:47513   */\n      swap1\n      pop\n        /* \"#utility.yul\":47444:47519   */\n      swap2\n      swap1\n      pop\n      jump\t// out\n        /* \"#utility.yul\":47525:47794   */\n    tag_520:\n        /* \"#utility.yul\":47635:47674   */\n      tag_1002\n        /* \"#utility.yul\":47666:47673   */\n      dup4\n        /* \"#utility.yul\":47635:47674   */\n      tag_518\n      jump\t// in\n    tag_1002:\n        /* \"#utility.yul\":47696:47787   */\n      tag_1003\n        /* \"#utility.yul\":47745:47786   */\n      tag_1004\n        /* \"#utility.yul\":47769:47785   */\n      dup3\n        /* \"#utility.yul\":47745:47786   */\n      tag_519\n      jump\t// in\n    tag_1004:\n        /* \"#utility.yul\":47737:47743   */\n      dup5\n        /* \"#utility.yul\":47730:47734   */\n      dup5\n        /* \"#utility.yul\":47724:47735   */\n      sload\n        /* \"#utility.yul\":47696:47787   */\n      tag_516\n      jump\t// in\n    tag_1003:\n        /* \"#utility.yul\":47690:47694   */\n      dup3\n        /* \"#utility.yul\":47683:47788   */\n      sstore\n        /* \"#utility.yul\":47601:47794   */\n      pop\n        /* \"#utility.yul\":47525:47794   */\n      pop\n      pop\n      pop\n      jump\t// out\n        /* \"#utility.yul\":47800:47873   */\n    tag_521:\n        /* \"#utility.yul\":47845:47848   */\n      0x00\n        /* \"#utility.yul\":47800:47873   */\n      swap1\n      jump\t// out\n        /* \"#utility.yul\":47879:48068   */\n    tag_522:\n        /* \"#utility.yul\":47956:47988   */\n      tag_1007\n      tag_521\n      jump\t// in\n    tag_1007:\n        /* \"#utility.yul\":47997:48062   */\n      tag_1008\n        /* \"#utility.yul\":48055:48061   */\n      dup2\n        /* \"#utility.yul\":48047:48053   */\n      dup5\n        /* \"#utility.yul\":48041:48045   */\n      dup5\n        /* \"#utility.yul\":47997:48062   */\n      tag_520\n      jump\t// in\n    tag_1008:\n        /* \"#utility.yul\":47932:48068   */\n      pop\n        /* \"#utility.yul\":47879:48068   */\n      pop\n      pop\n      jump\t// out\n        /* \"#utility.yul\":48074:48260   */\n    tag_523:\n        /* \"#utility.yul\":48134:48254   */\n    tag_1010:\n        /* \"#utility.yul\":48151:48154   */\n      dup2\n        /* \"#utility.yul\":48144:48149   */\n      dup2\n        /* \"#utility.yul\":48141:48155   */\n      lt\n        /* \"#utility.yul\":48134:48254   */\n      iszero\n      tag_1012\n      jumpi\n        /* \"#utility.yul\":48205:48244   */\n      tag_1013\n        /* \"#utility.yul\":48242:48243   */\n      0x00\n        /* \"#utility.yul\":48235:48240   */\n      dup3\n        /* \"#utility.yul\":48205:48244   */\n      tag_522\n      jump\t// in\n    tag_1013:\n        /* \"#utility.yul\":48178:48179   */\n      0x01\n        /* \"#utility.yul\":48171:48176   */\n      dup2\n        /* \"#utility.yul\":48167:48180   */\n      add\n        /* \"#utility.yul\":48158:48180   */\n      swap1\n      pop\n        /* \"#utility.yul\":48134:48254   */\n      jump(tag_1010)\n    tag_1012:\n        /* \"#utility.yul\":48074:48260   */\n      pop\n      pop\n      jump\t// out\n        /* \"#utility.yul\":48266:48807   */\n    tag_524:\n        /* \"#utility.yul\":48366:48368   */\n      0x1f\n        /* \"#utility.yul\":48361:48364   */\n      dup3\n        /* \"#utility.yul\":48358:48369   */\n      gt\n        /* \"#utility.yul\":48355:48800   */\n      iszero\n      tag_1015\n      jumpi\n        /* \"#utility.yul\":48400:48437   */\n      tag_1016\n        /* \"#utility.yul\":48431:48436   */\n      dup2\n        /* \"#utility.yul\":48400:48437   */\n      tag_513\n      jump\t// in\n    tag_1016:\n        /* \"#utility.yul\":48483:48512   */\n      tag_1017\n        /* \"#utility.yul\":48501:48511   */\n      dup5\n        /* \"#utility.yul\":48483:48512   */\n      tag_514\n      jump\t// in\n    tag_1017:\n        /* \"#utility.yul\":48473:48481   */\n      dup2\n        /* \"#utility.yul\":48469:48513   */\n      add\n        /* \"#utility.yul\":48666:48668   */\n      0x20\n        /* \"#utility.yul\":48654:48664   */\n      dup6\n        /* \"#utility.yul\":48651:48669   */\n      lt\n        /* \"#utility.yul\":48648:48697   */\n      iszero\n      tag_1018\n      jumpi\n        /* \"#utility.yul\":48687:48695   */\n      dup2\n        /* \"#utility.yul\":48672:48695   */\n      swap1\n      pop\n        /* \"#utility.yul\":48648:48697   */\n    tag_1018:\n        /* \"#utility.yul\":48710:48790   */\n      tag_1019\n        /* \"#utility.yul\":48766:48788   */\n      tag_1020\n        /* \"#utility.yul\":48784:48787   */\n      dup6\n        /* \"#utility.yul\":48766:48788   */\n      tag_514\n      jump\t// in\n    tag_1020:\n        /* \"#utility.yul\":48756:48764   */\n      dup4\n        /* \"#utility.yul\":48752:48789   */\n      add\n        /* \"#utility.yul\":48739:48750   */\n      dup3\n        /* \"#utility.yul\":48710:48790   */\n      tag_523\n      jump\t// in\n    tag_1019:\n        /* \"#utility.yul\":48370:48800   */\n      pop\n      pop\n        /* \"#utility.yul\":48355:48800   */\n    tag_1015:\n        /* \"#utility.yul\":48266:48807   */\n      pop\n      pop\n      pop\n      jump\t// out\n        /* \"#utility.yul\":48813:48930   */\n    tag_525:\n        /* \"#utility.yul\":48867:48875   */\n      0x00\n        /* \"#utility.yul\":48917:48922   */\n      dup3\n        /* \"#utility.yul\":48911:48915   */\n      dup3\n        /* \"#utility.yul\":48907:48923   */\n      shr\n        /* \"#utility.yul\":48886:48923   */\n      swap1\n      pop\n        /* \"#utility.yul\":48813:48930   */\n      swap3\n      swap2\n      pop\n      pop\n      jump\t// out\n        /* \"#utility.yul\":48936:49105   */\n    tag_526:\n        /* \"#utility.yul\":48980:48986   */\n      0x00\n        /* \"#utility.yul\":49013:49064   */\n      tag_1023\n        /* \"#utility.yul\":49061:49062   */\n      0x00\n        /* \"#utility.yul\":49057:49063   */\n      not\n        /* \"#utility.yul\":49049:49054   */\n      dup5\n        /* \"#utility.yul\":49046:49047   */\n      0x08\n        /* \"#utility.yul\":49042:49055   */\n      mul\n        /* \"#utility.yul\":49013:49064   */\n      tag_525\n      jump\t// in\n    tag_1023:\n        /* \"#utility.yul\":49009:49065   */\n      not\n        /* \"#utility.yul\":49094:49098   */\n      dup1\n        /* \"#utility.yul\":49088:49092   */\n      dup4\n        /* \"#utility.yul\":49084:49099   */\n      and\n        /* \"#utility.yul\":49074:49099   */\n      swap2\n      pop\n        /* \"#utility.yul\":48987:49105   */\n      pop\n        /* \"#utility.yul\":48936:49105   */\n      swap3\n      swap2\n      pop\n      pop\n      jump\t// out\n        /* \"#utility.yul\":49110:49405   */\n    tag_527:\n        /* \"#utility.yul\":49186:49190   */\n      0x00\n        /* \"#utility.yul\":49332:49361   */\n      tag_1025\n        /* \"#utility.yul\":49357:49360   */\n      dup4\n        /* \"#utility.yul\":49351:49355   */\n      dup4\n        /* \"#utility.yul\":49332:49361   */\n      tag_526\n      jump\t// in\n    tag_1025:\n        /* \"#utility.yul\":49324:49361   */\n      swap2\n      pop\n        /* \"#utility.yul\":49394:49397   */\n      dup3\n        /* \"#utility.yul\":49391:49392   */\n      0x02\n        /* \"#utility.yul\":49387:49398   */\n      mul\n        /* \"#utility.yul\":49381:49385   */\n      dup3\n        /* \"#utility.yul\":49378:49399   */\n      or\n        /* \"#utility.yul\":49370:49399   */\n      swap1\n      pop\n        /* \"#utility.yul\":49110:49405   */\n      swap3\n      swap2\n      pop\n      pop\n      jump\t// out\n        /* \"#utility.yul\":49410:50800   */\n    tag_167:\n        /* \"#utility.yul\":49525:49561   */\n      tag_1027\n        /* \"#utility.yul\":49557:49560   */\n      dup3\n        /* \"#utility.yul\":49525:49561   */\n      tag_488\n      jump\t// in\n    tag_1027:\n        /* \"#utility.yul\":49626:49644   */\n      0xffffffffffffffff\n        /* \"#utility.yul\":49618:49624   */\n      dup2\n        /* \"#utility.yul\":49615:49645   */\n      gt\n        /* \"#utility.yul\":49612:49668   */\n      iszero\n      tag_1028\n      jumpi\n        /* \"#utility.yul\":49648:49666   */\n      tag_1029\n      tag_202\n      jump\t// in\n    tag_1029:\n        /* \"#utility.yul\":49612:49668   */\n    tag_1028:\n        /* \"#utility.yul\":49692:49730   */\n      tag_1030\n        /* \"#utility.yul\":49724:49728   */\n      dup3\n        /* \"#utility.yul\":49718:49729   */\n      sload\n        /* \"#utility.yul\":49692:49730   */\n      tag_117\n      jump\t// in\n    tag_1030:\n        /* \"#utility.yul\":49777:49843   */\n      tag_1031\n        /* \"#utility.yul\":49836:49842   */\n      dup3\n        /* \"#utility.yul\":49828:49834   */\n      dup3\n        /* \"#utility.yul\":49822:49826   */\n      dup6\n        /* \"#utility.yul\":49777:49843   */\n      tag_524\n      jump\t// in\n    tag_1031:\n        /* \"#utility.yul\":49870:49871   */\n      0x00\n        /* \"#utility.yul\":49894:49898   */\n      0x20\n        /* \"#utility.yul\":49881:49898   */\n      swap1\n      pop\n        /* \"#utility.yul\":49926:49928   */\n      0x1f\n        /* \"#utility.yul\":49918:49924   */\n      dup4\n        /* \"#utility.yul\":49915:49929   */\n      gt\n        /* \"#utility.yul\":49943:49944   */\n      0x01\n        /* \"#utility.yul\":49938:50555   */\n      dup2\n      eq\n      tag_1033\n      jumpi\n        /* \"#utility.yul\":50599:50600   */\n      0x00\n        /* \"#utility.yul\":50616:50622   */\n      dup5\n        /* \"#utility.yul\":50613:50690   */\n      iszero\n      tag_1034\n      jumpi\n        /* \"#utility.yul\":50665:50674   */\n      dup3\n        /* \"#utility.yul\":50660:50663   */\n      dup8\n        /* \"#utility.yul\":50656:50675   */\n      add\n        /* \"#utility.yul\":50650:50676   */\n      mload\n        /* \"#utility.yul\":50641:50676   */\n      swap1\n      pop\n        /* \"#utility.yul\":50613:50690   */\n    tag_1034:\n        /* \"#utility.yul\":50716:50783   */\n      tag_1035\n        /* \"#utility.yul\":50776:50782   */\n      dup6\n        /* \"#utility.yul\":50769:50774   */\n      dup3\n        /* \"#utility.yul\":50716:50783   */\n      tag_527\n      jump\t// in\n    tag_1035:\n        /* \"#utility.yul\":50710:50714   */\n      dup7\n        /* \"#utility.yul\":50703:50784   */\n      sstore\n        /* \"#utility.yul\":50572:50794   */\n      pop\n        /* \"#utility.yul\":49908:50794   */\n      jump(tag_1032)\n        /* \"#utility.yul\":49938:50555   */\n    tag_1033:\n        /* \"#utility.yul\":49990:49994   */\n      0x1f\n        /* \"#utility.yul\":49986:49995   */\n      not\n        /* \"#utility.yul\":49978:49984   */\n      dup5\n        /* \"#utility.yul\":49974:49996   */\n      and\n        /* \"#utility.yul\":50024:50060   */\n      tag_1036\n        /* \"#utility.yul\":50055:50059   */\n      dup7\n        /* \"#utility.yul\":50024:50060   */\n      tag_513\n      jump\t// in\n    tag_1036:\n        /* \"#utility.yul\":50082:50083   */\n      0x00\n        /* \"#utility.yul\":50096:50304   */\n    tag_1037:\n        /* \"#utility.yul\":50110:50117   */\n      dup3\n        /* \"#utility.yul\":50107:50108   */\n      dup2\n        /* \"#utility.yul\":50104:50118   */\n      lt\n        /* \"#utility.yul\":50096:50304   */\n      iszero\n      tag_1039\n      jumpi\n        /* \"#utility.yul\":50189:50198   */\n      dup5\n        /* \"#utility.yul\":50184:50187   */\n      dup10\n        /* \"#utility.yul\":50180:50199   */\n      add\n        /* \"#utility.yul\":50174:50200   */\n      mload\n        /* \"#utility.yul\":50166:50172   */\n      dup3\n        /* \"#utility.yul\":50159:50201   */\n      sstore\n        /* \"#utility.yul\":50240:50241   */\n      0x01\n        /* \"#utility.yul\":50232:50238   */\n      dup3\n        /* \"#utility.yul\":50228:50242   */\n      add\n        /* \"#utility.yul\":50218:50242   */\n      swap2\n      pop\n        /* \"#utility.yul\":50287:50289   */\n      0x20\n        /* \"#utility.yul\":50276:50285   */\n      dup6\n        /* \"#utility.yul\":50272:50290   */\n      add\n        /* \"#utility.yul\":50259:50290   */\n      swap5\n      pop\n        /* \"#utility.yul\":50133:50137   */\n      0x20\n        /* \"#utility.yul\":50130:50131   */\n      dup2\n        /* \"#utility.yul\":50126:50138   */\n      add\n        /* \"#utility.yul\":50121:50138   */\n      swap1\n      pop\n        /* \"#utility.yul\":50096:50304   */\n      jump(tag_1037)\n    tag_1039:\n        /* \"#utility.yul\":50332:50338   */\n      dup7\n        /* \"#utility.yul\":50323:50330   */\n      dup4\n        /* \"#utility.yul\":50320:50339   */\n      lt\n        /* \"#utility.yul\":50317:50496   */\n      iszero\n      tag_1040\n      jumpi\n        /* \"#utility.yul\":50390:50399   */\n      dup5\n        /* \"#utility.yul\":50385:50388   */\n      dup10\n        /* \"#utility.yul\":50381:50400   */\n      add\n        /* \"#utility.yul\":50375:50401   */\n      mload\n        /* \"#utility.yul\":50433:50481   */\n      tag_1041\n        /* \"#utility.yul\":50475:50479   */\n      0x1f\n        /* \"#utility.yul\":50467:50473   */\n      dup10\n        /* \"#utility.yul\":50463:50480   */\n      and\n        /* \"#utility.yul\":50452:50461   */\n      dup3\n        /* \"#utility.yul\":50433:50481   */\n      tag_526\n      jump\t// in\n    tag_1041:\n        /* \"#utility.yul\":50425:50431   */\n      dup4\n        /* \"#utility.yul\":50418:50482   */\n      sstore\n        /* \"#utility.yul\":50340:50496   */\n      pop\n        /* \"#utility.yul\":50317:50496   */\n    tag_1040:\n        /* \"#utility.yul\":50542:50543   */\n      0x01\n        /* \"#utility.yul\":50538:50539   */\n      0x02\n        /* \"#utility.yul\":50530:50536   */\n      dup9\n        /* \"#utility.yul\":50526:50540   */\n      mul\n        /* \"#utility.yul\":50522:50544   */\n      add\n        /* \"#utility.yul\":50516:50520   */\n      dup9\n        /* \"#utility.yul\":50509:50545   */\n      sstore\n        /* \"#utility.yul\":49945:50555   */\n      pop\n      pop\n      pop\n        /* \"#utility.yul\":49908:50794   */\n    tag_1032:\n      pop\n        /* \"#utility.yul\":49500:50800   */\n      pop\n      pop\n      pop\n        /* \"#utility.yul\":49410:50800   */\n      pop\n      pop\n      jump\t// out\n        /* \"#utility.yul\":50806:50989   */\n    tag_169:\n        /* \"#utility.yul\":50844:50847   */\n      0x00\n        /* \"#utility.yul\":50867:50890   */\n      tag_1043\n        /* \"#utility.yul\":50884:50889   */\n      dup3\n        /* \"#utility.yul\":50867:50890   */\n      tag_418\n      jump\t// in\n    tag_1043:\n        /* \"#utility.yul\":50858:50890   */\n      swap2\n      pop\n        /* \"#utility.yul\":50912:50930   */\n      0xffffffffffffffff\n        /* \"#utility.yul\":50905:50910   */\n      dup3\n        /* \"#utility.yul\":50902:50931   */\n      sub\n        /* \"#utility.yul\":50899:50954   */\n      tag_1044\n      jumpi\n        /* \"#utility.yul\":50934:50952   */\n      tag_1045\n      tag_502\n      jump\t// in\n    tag_1045:\n        /* \"#utility.yul\":50899:50954   */\n    tag_1044:\n        /* \"#utility.yul\":50981:50982   */\n      0x01\n        /* \"#utility.yul\":50974:50979   */\n      dup3\n        /* \"#utility.yul\":50970:50983   */\n      add\n        /* \"#utility.yul\":50963:50983   */\n      swap1\n      pop\n        /* \"#utility.yul\":50806:50989   */\n      swap2\n      swap1\n      pop\n      jump\t// out\n        /* \"#utility.yul\":50995:51200   */\n    tag_171:\n        /* \"#utility.yul\":51034:51037   */\n      0x00\n        /* \"#utility.yul\":51053:51072   */\n      tag_1047\n        /* \"#utility.yul\":51070:51071   */\n      dup3\n        /* \"#utility.yul\":51053:51072   */\n      tag_418\n      jump\t// in\n    tag_1047:\n        /* \"#utility.yul\":51048:51072   */\n      swap2\n      pop\n        /* \"#utility.yul\":51086:51105   */\n      tag_1048\n        /* \"#utility.yul\":51103:51104   */\n      dup4\n        /* \"#utility.yul\":51086:51105   */\n      tag_418\n      jump\t// in\n    tag_1048:\n        /* \"#utility.yul\":51081:51105   */\n      swap3\n      pop\n        /* \"#utility.yul\":51128:51129   */\n      dup3\n        /* \"#utility.yul\":51125:51126   */\n      dup3\n        /* \"#utility.yul\":51121:51130   */\n      add\n        /* \"#utility.yul\":51114:51130   */\n      swap1\n      pop\n        /* \"#utility.yul\":51151:51169   */\n      0xffffffffffffffff\n        /* \"#utility.yul\":51146:51149   */\n      dup2\n        /* \"#utility.yul\":51143:51170   */\n      gt\n        /* \"#utility.yul\":51140:51193   */\n      iszero\n      tag_1049\n      jumpi\n        /* \"#utility.yul\":51173:51191   */\n      tag_1050\n      tag_502\n      jump\t// in\n    tag_1050:\n        /* \"#utility.yul\":51140:51193   */\n    tag_1049:\n        /* \"#utility.yul\":50995:51200   */\n      swap3\n      swap2\n      pop\n      pop\n      jump\t// out\n        /* \"#utility.yul\":51206:51414   */\n    tag_177:\n        /* \"#utility.yul\":51245:51249   */\n      0x00\n        /* \"#utility.yul\":51265:51284   */\n      tag_1052\n        /* \"#utility.yul\":51282:51283   */\n      dup3\n        /* \"#utility.yul\":51265:51284   */\n      tag_418\n      jump\t// in\n    tag_1052:\n        /* \"#utility.yul\":51260:51284   */\n      swap2\n      pop\n        /* \"#utility.yul\":51298:51317   */\n      tag_1053\n        /* \"#utility.yul\":51315:51316   */\n      dup4\n        /* \"#utility.yul\":51298:51317   */\n      tag_418\n      jump\t// in\n    tag_1053:\n        /* \"#utility.yul\":51293:51317   */\n      swap3\n      pop\n        /* \"#utility.yul\":51341:51342   */\n      dup3\n        /* \"#utility.yul\":51338:51339   */\n      dup3\n        /* \"#utility.yul\":51334:51343   */\n      sub\n        /* \"#utility.yul\":51326:51343   */\n      swap1\n      pop\n        /* \"#utility.yul\":51365:51383   */\n      0xffffffffffffffff\n        /* \"#utility.yul\":51359:51363   */\n      dup2\n        /* \"#utility.yul\":51356:51384   */\n      gt\n        /* \"#utility.yul\":51353:51407   */\n      iszero\n      tag_1054\n      jumpi\n        /* \"#utility.yul\":51387:51405   */\n      tag_1055\n      tag_502\n      jump\t// in\n    tag_1055:\n        /* \"#utility.yul\":51353:51407   */\n    tag_1054:\n        /* \"#utility.yul\":51206:51414   */\n      swap3\n      swap2\n      pop\n      pop\n      jump\t// out\n        /* \"#utility.yul\":51420:51560   */\n    tag_528:\n        /* \"#utility.yul\":51469:51478   */\n      0x00\n        /* \"#utility.yul\":51502:51554   */\n      tag_1057\n        /* \"#utility.yul\":51520:51553   */\n      tag_1058\n        /* \"#utility.yul\":51529:51552   */\n      tag_1059\n        /* \"#utility.yul\":51546:51551   */\n      dup5\n        /* \"#utility.yul\":51529:51552   */\n      tag_418\n      jump\t// in\n    tag_1059:\n        /* \"#utility.yul\":51520:51553   */\n      tag_517\n      jump\t// in\n    tag_1058:\n        /* \"#utility.yul\":51502:51554   */\n      tag_482\n      jump\t// in\n    tag_1057:\n        /* \"#utility.yul\":51489:51554   */\n      swap1\n      pop\n        /* \"#utility.yul\":51420:51560   */\n      swap2\n      swap1\n      pop\n      jump\t// out\n        /* \"#utility.yul\":51566:51695   */\n    tag_529:\n        /* \"#utility.yul\":51652:51688   */\n      tag_1061\n        /* \"#utility.yul\":51682:51687   */\n      dup2\n        /* \"#utility.yul\":51652:51688   */\n      tag_528\n      jump\t// in\n    tag_1061:\n        /* \"#utility.yul\":51647:51650   */\n      dup3\n        /* \"#utility.yul\":51640:51689   */\n      mstore\n        /* \"#utility.yul\":51566:51695   */\n      pop\n      pop\n      jump\t// out\n        /* \"#utility.yul\":51701:51921   */\n    tag_179:\n        /* \"#utility.yul\":51793:51797   */\n      0x00\n        /* \"#utility.yul\":51831:51833   */\n      0x20\n        /* \"#utility.yul\":51820:51829   */\n      dup3\n        /* \"#utility.yul\":51816:51834   */\n      add\n        /* \"#utility.yul\":51808:51834   */\n      swap1\n      pop\n        /* \"#utility.yul\":51844:51914   */\n      tag_1063\n        /* \"#utility.yul\":51911:51912   */\n      0x00\n        /* \"#utility.yul\":51900:51909   */\n      dup4\n        /* \"#utility.yul\":51896:51913   */\n      add\n        /* \"#utility.yul\":51887:51893   */\n      dup5\n        /* \"#utility.yul\":51844:51914   */\n      tag_529\n      jump\t// in\n    tag_1063:\n        /* \"#utility.yul\":51701:51921   */\n      swap3\n      swap2\n      pop\n      pop\n      jump\t// out\n        /* \"#utility.yul\":51927:52097   */\n    tag_530:\n        /* \"#utility.yul\":52067:52089   */\n      0x46696c6520616c72656164792064656c65746564000000000000000000000000\n        /* \"#utility.yul\":52063:52064   */\n      0x00\n        /* \"#utility.yul\":52055:52061   */\n      dup3\n        /* \"#utility.yul\":52051:52065   */\n      add\n        /* \"#utility.yul\":52044:52090   */\n      mstore\n        /* \"#utility.yul\":51927:52097   */\n      pop\n      jump\t// out\n        /* \"#utility.yul\":52103:52469   */\n    tag_531:\n        /* \"#utility.yul\":52245:52248   */\n      0x00\n        /* \"#utility.yul\":52266:52333   */\n      tag_1066\n        /* \"#utility.yul\":52330:52332   */\n      0x14\n        /* \"#utility.yul\":52325:52328   */\n      dup4\n        /* \"#utility.yul\":52266:52333   */\n      tag_494\n      jump\t// in\n    tag_1066:\n        /* \"#utility.yul\":52259:52333   */\n      swap2\n      pop\n        /* \"#utility.yul\":52342:52435   */\n      tag_1067\n        /* \"#utility.yul\":52431:52434   */\n      dup3\n        /* \"#utility.yul\":52342:52435   */\n      tag_530\n      jump\t// in\n    tag_1067:\n        /* \"#utility.yul\":52460:52462   */\n      0x20\n        /* \"#utility.yul\":52455:52458   */\n      dup3\n        /* \"#utility.yul\":52451:52463   */\n      add\n        /* \"#utility.yul\":52444:52463   */\n      swap1\n      pop\n        /* \"#utility.yul\":52103:52469   */\n      swap2\n      swap1\n      pop\n      jump\t// out\n        /* \"#utility.yul\":52475:52894   */\n    tag_189:\n        /* \"#utility.yul\":52641:52645   */\n      0x00\n        /* \"#utility.yul\":52679:52681   */\n      0x20\n        /* \"#utility.yul\":52668:52677   */\n      dup3\n        /* \"#utility.yul\":52664:52682   */\n      add\n        /* \"#utility.yul\":52656:52682   */\n      swap1\n      pop\n        /* \"#utility.yul\":52728:52737   */\n      dup2\n        /* \"#utility.yul\":52722:52726   */\n      dup2\n        /* \"#utility.yul\":52718:52738   */\n      sub\n        /* \"#utility.yul\":52714:52715   */\n      0x00\n        /* \"#utility.yul\":52703:52712   */\n      dup4\n        /* \"#utility.yul\":52699:52716   */\n      add\n        /* \"#utility.yul\":52692:52739   */\n      mstore\n        /* \"#utility.yul\":52756:52887   */\n      tag_1069\n        /* \"#utility.yul\":52882:52886   */\n      dup2\n        /* \"#utility.yul\":52756:52887   */\n      tag_531\n      jump\t// in\n    tag_1069:\n        /* \"#utility.yul\":52748:52887   */\n      swap1\n      pop\n        /* \"#utility.yul\":52475:52894   */\n      swap2\n      swap1\n      pop\n      jump\t// out\n        /* \"#utility.yul\":52900:53133   */\n    tag_198:\n        /* \"#utility.yul\":52939:52942   */\n      0x00\n        /* \"#utility.yul\":52962:52986   */\n      tag_1071\n        /* \"#utility.yul\":52980:52985   */\n      dup3\n        /* \"#utility.yul\":52962:52986   */\n      tag_482\n      jump\t// in\n    tag_1071:\n        /* \"#utility.yul\":52953:52986   */\n      swap2\n      pop\n        /* \"#utility.yul\":53008:53074   */\n      0xffffffffffffffffffffffffffffffffffffffffffffffffffffffffffffffff\n        /* \"#utility.yul\":53001:53006   */\n      dup3\n        /* \"#utility.yul\":52998:53075   */\n      sub\n        /* \"#utility.yul\":52995:53098   */\n      tag_1072\n      jumpi\n        /* \"#utility.yul\":53078:53096   */\n      tag_1073\n      tag_502\n      jump\t// in\n    tag_1073:\n        /* \"#utility.yul\":52995:53098   */\n    tag_1072:\n        /* \"#utility.yul\":53125:53126   */\n      0x01\n        /* \"#utility.yul\":53118:53123   */\n      dup3\n        /* \"#utility.yul\":53114:53127   */\n      add\n        /* \"#utility.yul\":53107:53127   */\n      swap1\n      pop\n        /* \"#utility.yul\":52900:53133   */\n      swap2\n      swap1\n      pop\n      jump\t// out\n        /* \"#utility.yul\":53139:53319   */\n    tag_210:\n        /* \"#utility.yul\":53187:53264   */\n      0x4e487b7100000000000000000000000000000000000000000000000000000000\n        /* \"#utility.yul\":53184:53185   */\n      0x00\n        /* \"#utility.yul\":53177:53265   */\n      mstore\n        /* \"#utility.yul\":53284:53288   */\n      0x32\n        /* \"#utility.yul\":53281:53282   */\n      0x04\n        /* \"#utility.yul\":53274:53289   */\n      mstore\n        /* \"#utility.yul\":53308:53312   */\n      0x24\n        /* \"#utility.yul\":53305:53306   */\n      0x00\n        /* \"#utility.yul\":53298:53313   */\n      revert\n        /* \"#utility.yul\":53325:53504   */\n    tag_532:\n        /* \"#utility.yul\":53465:53496   */\n      0x6c656e677468206172726179732073686f756c6420626520657175616c000000\n        /* \"#utility.yul\":53461:53462   */\n      0x00\n        /* \"#utility.yul\":53453:53459   */\n      dup3\n        /* \"#utility.yul\":53449:53463   */\n      add\n        /* \"#utility.yul\":53442:53497   */\n      mstore\n        /* \"#utility.yul\":53325:53504   */\n      pop\n      jump\t// out\n        /* \"#utility.yul\":53510:53876   */\n    tag_533:\n        /* \"#utility.yul\":53652:53655   */\n      0x00\n        /* \"#utility.yul\":53673:53740   */\n      tag_1077\n        /* \"#utility.yul\":53737:53739   */\n      0x1d\n        /* \"#utility.yul\":53732:53735   */\n      dup4\n        /* \"#utility.yul\":53673:53740   */\n      tag_494\n      jump\t// in\n    tag_1077:\n        /* \"#utility.yul\":53666:53740   */\n      swap2\n      pop\n        /* \"#utility.yul\":53749:53842   */\n      tag_1078\n        /* \"#utility.yul\":53838:53841   */\n      dup3\n        /* \"#utility.yul\":53749:53842   */\n      tag_532\n      jump\t// in\n    tag_1078:\n        /* \"#utility.yul\":53867:53869   */\n      0x20\n        /* \"#utility.yul\":53862:53865   */\n      dup3\n        /* \"#utility.yul\":53858:53870   */\n      add\n        /* \"#utility.yul\":53851:53870   */\n      swap1\n      pop\n        /* \"#utility.yul\":53510:53876   */\n      swap2\n      swap1\n      pop\n      jump\t// out\n        /* \"#utility.yul\":53882:54301   */\n    tag_218:\n        /* \"#utility.yul\":54048:54052   */\n      0x00\n        /* \"#utility.yul\":54086:54088   */\n      0x20\n        /* \"#utility.yul\":54075:54084   */\n      dup3\n        /* \"#utility.yul\":54071:54089   */\n      add\n        /* \"#utility.yul\":54063:54089   */\n      swap1\n      pop\n        /* \"#utility.yul\":54135:54144   */\n      dup2\n        /* \"#utility.yul\":54129:54133   */\n      dup2\n        /* \"#utility.yul\":54125:54145   */\n      sub\n        /* \"#utility.yul\":54121:54122   */\n      0x00\n        /* \"#utility.yul\":54110:54119   */\n      dup4\n        /* \"#utility.yul\":54106:54123   */\n      add\n        /* \"#utility.yul\":54099:54146   */\n      mstore\n        /* \"#utility.yul\":54163:54294   */\n      tag_1080\n        /* \"#utility.yul\":54289:54293   */\n      dup2\n        /* \"#utility.yul\":54163:54294   */\n      tag_533\n      jump\t// in\n    tag_1080:\n        /* \"#utility.yul\":54155:54294   */\n      swap1\n      pop\n        /* \"#utility.yul\":53882:54301   */\n      swap2\n      swap1\n      pop\n      jump\t// out\n        /* \"#utility.yul\":54307:54478   */\n    tag_534:\n        /* \"#utility.yul\":54447:54470   */\n      0x46696c6520686173206265656e2064656c657465640000000000000000000000\n        /* \"#utility.yul\":54443:54444   */\n      0x00\n        /* \"#utility.yul\":54435:54441   */\n      dup3\n        /* \"#utility.yul\":54431:54445   */\n      add\n        /* \"#utility.yul\":54424:54471   */\n      mstore\n        /* \"#utility.yul\":54307:54478   */\n      pop\n      jump\t// out\n        /* \"#utility.yul\":54484:54850   */\n    tag_535:\n        /* \"#utility.yul\":54626:54629   */\n      0x00\n        /* \"#utility.yul\":54647:54714   */\n      tag_1083\n        /* \"#utility.yul\":54711:54713   */\n      0x15\n        /* \"#utility.yul\":54706:54709   */\n      dup4\n        /* \"#utility.yul\":54647:54714   */\n      tag_494\n      jump\t// in\n    tag_1083:\n        /* \"#utility.yul\":54640:54714   */\n      swap2\n      pop\n        /* \"#utility.yul\":54723:54816   */\n      tag_1084\n        /* \"#utility.yul\":54812:54815   */\n      dup3\n        /* \"#utility.yul\":54723:54816   */\n      tag_534\n      jump\t// in\n    tag_1084:\n        /* \"#utility.yul\":54841:54843   */\n      0x20\n        /* \"#utility.yul\":54836:54839   */\n      dup3\n        /* \"#utility.yul\":54832:54844   */\n      add\n        /* \"#utility.yul\":54825:54844   */\n      swap1\n      pop\n        /* \"#utility.yul\":54484:54850   */\n      swap2\n      swap1\n      pop\n      jump\t// out\n        /* \"#utility.yul\":54856:55275   */\n    tag_239:\n        /* \"#utility.yul\":55022:55026   */\n      0x00\n        /* \"#utility.yul\":55060:55062   */\n      0x20\n        /* \"#utility.yul\":55049:55058   */\n      dup3\n        /* \"#utility.yul\":55045:55063   */\n      add\n        /* \"#utility.yul\":55037:55063   */\n      swap1\n      pop\n        /* \"#utility.yul\":55109:55118   */\n      dup2\n        /* \"#utility.yul\":55103:55107   */\n      dup2\n        /* \"#utility.yul\":55099:55119   */\n      sub\n        /* \"#utility.yul\":55095:55096   */\n      0x00\n        /* \"#utility.yul\":55084:55093   */\n      dup4\n        /* \"#utility.yul\":55080:55097   */\n      add\n        /* \"#utility.yul\":55073:55120   */\n      mstore\n        /* \"#utility.yul\":55137:55268   */\n      tag_1086\n        /* \"#utility.yul\":55263:55267   */\n      dup2\n        /* \"#utility.yul\":55137:55268   */\n      tag_535\n      jump\t// in\n    tag_1086:\n        /* \"#utility.yul\":55129:55268   */\n      swap1\n      pop\n        /* \"#utility.yul\":54856:55275   */\n      swap2\n      swap1\n      pop\n      jump\t// out\n        /* \"#utility.yul\":55281:55520   */\n    tag_536:\n        /* \"#utility.yul\":55421:55455   */\n      0x4e6577206578706972652074696d65206d757374206265206174206c65617374\n        /* \"#utility.yul\":55417:55418   */\n      0x00\n        /* \"#utility.yul\":55409:55415   */\n      dup3\n        /* \"#utility.yul\":55405:55419   */\n      add\n        /* \"#utility.yul\":55398:55456   */\n      mstore\n        /* \"#utility.yul\":55490:55512   */\n      0x20312064617920696e2074686520667574757265000000000000000000000000\n        /* \"#utility.yul\":55485:55487   */\n      0x20\n        /* \"#utility.yul\":55477:55483   */\n      dup3\n        /* \"#utility.yul\":55473:55488   */\n      add\n        /* \"#utility.yul\":55466:55513   */\n      mstore\n        /* \"#utility.yul\":55281:55520   */\n      pop\n      jump\t// out\n        /* \"#utility.yul\":55526:55892   */\n    tag_537:\n        /* \"#utility.yul\":55668:55671   */\n      0x00\n        /* \"#utility.yul\":55689:55756   */\n      tag_1089\n        /* \"#utility.yul\":55753:55755   */\n      0x34\n        /* \"#utility.yul\":55748:55751   */\n      dup4\n        /* \"#utility.yul\":55689:55756   */\n      tag_494\n      jump\t// in\n    tag_1089:\n        /* \"#utility.yul\":55682:55756   */\n      swap2\n      pop\n        /* \"#utility.yul\":55765:55858   */\n      tag_1090\n        /* \"#utility.yul\":55854:55857   */\n      dup3\n        /* \"#utility.yul\":55765:55858   */\n      tag_536\n      jump\t// in\n    tag_1090:\n        /* \"#utility.yul\":55883:55885   */\n      0x40\n        /* \"#utility.yul\":55878:55881   */\n      dup3\n        /* \"#utility.yul\":55874:55886   */\n      add\n        /* \"#utility.yul\":55867:55886   */\n      swap1\n      pop\n        /* \"#utility.yul\":55526:55892   */\n      swap2\n      swap1\n      pop\n      jump\t// out\n        /* \"#utility.yul\":55898:56317   */\n    tag_243:\n        /* \"#utility.yul\":56064:56068   */\n      0x00\n        /* \"#utility.yul\":56102:56104   */\n      0x20\n        /* \"#utility.yul\":56091:56100   */\n      dup3\n        /* \"#utility.yul\":56087:56105   */\n      add\n        /* \"#utility.yul\":56079:56105   */\n      swap1\n      pop\n        /* \"#utility.yul\":56151:56160   */\n      dup2\n        /* \"#utility.yul\":56145:56149   */\n      dup2\n        /* \"#utility.yul\":56141:56161   */\n      sub\n        /* \"#utility.yul\":56137:56138   */\n      0x00\n        /* \"#utility.yul\":56126:56135   */\n      dup4\n        /* \"#utility.yul\":56122:56139   */\n      add\n        /* \"#utility.yul\":56115:56162   */\n      mstore\n        /* \"#utility.yul\":56179:56310   */\n      tag_1092\n        /* \"#utility.yul\":56305:56309   */\n      dup2\n        /* \"#utility.yul\":56179:56310   */\n      tag_537\n      jump\t// in\n    tag_1092:\n        /* \"#utility.yul\":56171:56310   */\n      swap1\n      pop\n        /* \"#utility.yul\":55898:56317   */\n      swap2\n      swap1\n      pop\n      jump\t// out\n        /* \"#utility.yul\":56323:56491   */\n    tag_538:\n        /* \"#utility.yul\":56463:56483   */\n      0x46696c65206973206e6f74206163746976650000000000000000000000000000\n        /* \"#utility.yul\":56459:56460   */\n      0x00\n        /* \"#utility.yul\":56451:56457   */\n      dup3\n        /* \"#utility.yul\":56447:56461   */\n      add\n        /* \"#utility.yul\":56440:56484   */\n      mstore\n        /* \"#utility.yul\":56323:56491   */\n      pop\n      jump\t// out\n        /* \"#utility.yul\":56497:56863   */\n    tag_539:\n        /* \"#utility.yul\":56639:56642   */\n      0x00\n        /* \"#utility.yul\":56660:56727   */\n      tag_1095\n        /* \"#utility.yul\":56724:56726   */\n      0x12\n        /* \"#utility.yul\":56719:56722   */\n      dup4\n        /* \"#utility.yul\":56660:56727   */\n      tag_494\n      jump\t// in\n    tag_1095:\n        /* \"#utility.yul\":56653:56727   */\n      swap2\n      pop\n        /* \"#utility.yul\":56736:56829   */\n      tag_1096\n        /* \"#utility.yul\":56825:56828   */\n      dup3\n        /* \"#utility.yul\":56736:56829   */\n      tag_538\n      jump\t// in\n    tag_1096:\n        /* \"#utility.yul\":56854:56856   */\n      0x20\n        /* \"#utility.yul\":56849:56852   */\n      dup3\n        /* \"#utility.yul\":56845:56857   */\n      add\n        /* \"#utility.yul\":56838:56857   */\n      swap1\n      pop\n        /* \"#utility.yul\":56497:56863   */\n      swap2\n      swap1\n      pop\n      jump\t// out\n        /* \"#utility.yul\":56869:57288   */\n    tag_253:\n        /* \"#utility.yul\":57035:57039   */\n      0x00\n        /* \"#utility.yul\":57073:57075   */\n      0x20\n        /* \"#utility.yul\":57062:57071   */\n      dup3\n        /* \"#utility.yul\":57058:57076   */\n      add\n        /* \"#utility.yul\":57050:57076   */\n      swap1\n      pop\n        /* \"#utility.yul\":57122:57131   */\n      dup2\n        /* \"#utility.yul\":57116:57120   */\n      dup2\n        /* \"#utility.yul\":57112:57132   */\n      sub\n        /* \"#utility.yul\":57108:57109   */\n      0x00\n        /* \"#utility.yul\":57097:57106   */\n      dup4\n        /* \"#utility.yul\":57093:57110   */\n      add\n        /* \"#utility.yul\":57086:57133   */\n      mstore\n        /* \"#utility.yul\":57150:57281   */\n      tag_1098\n        /* \"#utility.yul\":57276:57280   */\n      dup2\n        /* \"#utility.yul\":57150:57281   */\n      tag_539\n      jump\t// in\n    tag_1098:\n        /* \"#utility.yul\":57142:57281   */\n      swap1\n      pop\n        /* \"#utility.yul\":56869:57288   */\n      swap2\n      swap1\n      pop\n      jump\t// out\n        /* \"#utility.yul\":57294:57460   */\n    tag_540:\n        /* \"#utility.yul\":57434:57452   */\n      0x46696c6520686173206578706972656400000000000000000000000000000000\n        /* \"#utility.yul\":57430:57431   */\n      0x00\n        /* \"#utility.yul\":57422:57428   */\n      dup3\n        /* \"#utility.yul\":57418:57432   */\n      add\n        /* \"#utility.yul\":57411:57453   */\n      mstore\n        /* \"#utility.yul\":57294:57460   */\n      pop\n      jump\t// out\n        /* \"#utility.yul\":57466:57832   */\n    tag_541:\n        /* \"#utility.yul\":57608:57611   */\n      0x00\n        /* \"#utility.yul\":57629:57696   */\n      tag_1101\n        /* \"#utility.yul\":57693:57695   */\n      0x10\n        /* \"#utility.yul\":57688:57691   */\n      dup4\n        /* \"#utility.yul\":57629:57696   */\n      tag_494\n      jump\t// in\n    tag_1101:\n        /* \"#utility.yul\":57622:57696   */\n      swap2\n      pop\n        /* \"#utility.yul\":57705:57798   */\n      tag_1102\n        /* \"#utility.yul\":57794:57797   */\n      dup3\n        /* \"#utility.yul\":57705:57798   */\n      tag_540\n      jump\t// in\n    tag_1102:\n        /* \"#utility.yul\":57823:57825   */\n      0x20\n        /* \"#utility.yul\":57818:57821   */\n      dup3\n        /* \"#utility.yul\":57814:57826   */\n      add\n        /* \"#utility.yul\":57807:57826   */\n      swap1\n      pop\n        /* \"#utility.yul\":57466:57832   */\n      swap2\n      swap1\n      pop\n      jump\t// out\n        /* \"#utility.yul\":57838:58257   */\n    tag_256:\n        /* \"#utility.yul\":58004:58008   */\n      0x00\n        /* \"#utility.yul\":58042:58044   */\n      0x20\n        /* \"#utility.yul\":58031:58040   */\n      dup3\n        /* \"#utility.yul\":58027:58045   */\n      add\n        /* \"#utility.yul\":58019:58045   */\n      swap1\n      pop\n        /* \"#utility.yul\":58091:58100   */\n      dup2\n        /* \"#utility.yul\":58085:58089   */\n      dup2\n        /* \"#utility.yul\":58081:58101   */\n      sub\n        /* \"#utility.yul\":58077:58078   */\n      0x00\n        /* \"#utility.yul\":58066:58075   */\n      dup4\n        /* \"#utility.yul\":58062:58079   */\n      add\n        /* \"#utility.yul\":58055:58102   */\n      mstore\n        /* \"#utility.yul\":58119:58250   */\n      tag_1104\n        /* \"#utility.yul\":58245:58249   */\n      dup2\n        /* \"#utility.yul\":58119:58250   */\n      tag_541\n      jump\t// in\n    tag_1104:\n        /* \"#utility.yul\":58111:58250   */\n      swap1\n      pop\n        /* \"#utility.yul\":57838:58257   */\n      swap2\n      swap1\n      pop\n      jump\t// out\n        /* \"#utility.yul\":58263:58498   */\n    tag_542:\n        /* \"#utility.yul\":58403:58437   */\n      0x4578706972652074696d65206d757374206265206174206c6561737420312064\n        /* \"#utility.yul\":58399:58400   */\n      0x00\n        /* \"#utility.yul\":58391:58397   */\n      dup3\n        /* \"#utility.yul\":58387:58401   */\n      add\n        /* \"#utility.yul\":58380:58438   */\n      mstore\n        /* \"#utility.yul\":58472:58490   */\n      0x617920696e207468652066757475726500000000000000000000000000000000\n        /* \"#utility.yul\":58467:58469   */\n      0x20\n        /* \"#utility.yul\":58459:58465   */\n      dup3\n        /* \"#utility.yul\":58455:58470   */\n      add\n        /* \"#utility.yul\":58448:58491   */\n      mstore\n        /* \"#utility.yul\":58263:58498   */\n      pop\n      jump\t// out\n        /* \"#utility.yul\":58504:58870   */\n    tag_543:\n        /* \"#utility.yul\":58646:58649   */\n      0x00\n        /* \"#utility.yul\":58667:58734   */\n      tag_1107\n        /* \"#utility.yul\":58731:58733   */\n      0x30\n        /* \"#utility.yul\":58726:58729   */\n      dup4\n        /* \"#utility.yul\":58667:58734   */\n      tag_494\n      jump\t// in\n    tag_1107:\n        /* \"#utility.yul\":58660:58734   */\n      swap2\n      pop\n        /* \"#utility.yul\":58743:58836   */\n      tag_1108\n        /* \"#utility.yul\":58832:58835   */\n      dup3\n        /* \"#utility.yul\":58743:58836   */\n      tag_542\n      jump\t// in\n    tag_1108:\n        /* \"#utility.yul\":58861:58863   */\n      0x40\n        /* \"#utility.yul\":58856:58859   */\n      dup3\n        /* \"#utility.yul\":58852:58864   */\n      add\n        /* \"#utility.yul\":58845:58864   */\n      swap1\n      pop\n        /* \"#utility.yul\":58504:58870   */\n      swap2\n      swap1\n      pop\n      jump\t// out\n        /* \"#utility.yul\":58876:59295   */\n    tag_291:\n        /* \"#utility.yul\":59042:59046   */\n      0x00\n        /* \"#utility.yul\":59080:59082   */\n      0x20\n        /* \"#utility.yul\":59069:59078   */\n      dup3\n        /* \"#utility.yul\":59065:59083   */\n      add\n        /* \"#utility.yul\":59057:59083   */\n      swap1\n      pop\n        /* \"#utility.yul\":59129:59138   */\n      dup2\n        /* \"#utility.yul\":59123:59127   */\n      dup2\n        /* \"#utility.yul\":59119:59139   */\n      sub\n        /* \"#utility.yul\":59115:59116   */\n      0x00\n        /* \"#utility.yul\":59104:59113   */\n      dup4\n        /* \"#utility.yul\":59100:59117   */\n      add\n        /* \"#utility.yul\":59093:59140   */\n      mstore\n        /* \"#utility.yul\":59157:59288   */\n      tag_1110\n        /* \"#utility.yul\":59283:59287   */\n      dup2\n        /* \"#utility.yul\":59157:59288   */\n      tag_543\n      jump\t// in\n    tag_1110:\n        /* \"#utility.yul\":59149:59288   */\n      swap1\n      pop\n        /* \"#utility.yul\":58876:59295   */\n      swap2\n      swap1\n      pop\n      jump\t// out\n        /* \"#utility.yul\":59301:59397   */\n    tag_544:\n        /* \"#utility.yul\":59335:59343   */\n      0x00\n        /* \"#utility.yul\":59384:59389   */\n      dup2\n        /* \"#utility.yul\":59379:59382   */\n      0xc0\n        /* \"#utility.yul\":59375:59390   */\n      shl\n        /* \"#utility.yul\":59354:59390   */\n      swap1\n      pop\n        /* \"#utility.yul\":59301:59397   */\n      swap2\n      swap1\n      pop\n      jump\t// out\n        /* \"#utility.yul\":59403:59497   */\n    tag_545:\n        /* \"#utility.yul\":59441:59448   */\n      0x00\n        /* \"#utility.yul\":59470:59491   */\n      tag_1113\n        /* \"#utility.yul\":59485:59490   */\n      dup3\n        /* \"#utility.yul\":59470:59491   */\n      tag_544\n      jump\t// in\n    tag_1113:\n        /* \"#utility.yul\":59459:59491   */\n      swap1\n      pop\n        /* \"#utility.yul\":59403:59497   */\n      swap2\n      swap1\n      pop\n      jump\t// out\n        /* \"#utility.yul\":59503:59656   */\n    tag_546:\n        /* \"#utility.yul\":59606:59649   */\n      tag_1115\n        /* \"#utility.yul\":59625:59648   */\n      tag_1116\n        /* \"#utility.yul\":59642:59647   */\n      dup3\n        /* \"#utility.yul\":59625:59648   */\n      tag_418\n      jump\t// in\n    tag_1116:\n        /* \"#utility.yul\":59606:59649   */\n      tag_545\n      jump\t// in\n    tag_1115:\n        /* \"#utility.yul\":59601:59604   */\n      dup3\n        /* \"#utility.yul\":59594:59650   */\n      mstore\n        /* \"#utility.yul\":59503:59656   */\n      pop\n      pop\n      jump\t// out\n        /* \"#utility.yul\":59662:59810   */\n    tag_547:\n        /* \"#utility.yul\":59764:59775   */\n      0x00\n        /* \"#utility.yul\":59801:59804   */\n      dup2\n        /* \"#utility.yul\":59786:59804   */\n      swap1\n      pop\n        /* \"#utility.yul\":59662:59810   */\n      swap3\n      swap2\n      pop\n      pop\n      jump\t// out\n        /* \"#utility.yul\":59816:60206   */\n    tag_548:\n        /* \"#utility.yul\":59922:59925   */\n      0x00\n        /* \"#utility.yul\":59950:59989   */\n      tag_1119\n        /* \"#utility.yul\":59983:59988   */\n      dup3\n        /* \"#utility.yul\":59950:59989   */\n      tag_424\n      jump\t// in\n    tag_1119:\n        /* \"#utility.yul\":60005:60094   */\n      tag_1120\n        /* \"#utility.yul\":60087:60093   */\n      dup2\n        /* \"#utility.yul\":60082:60085   */\n      dup6\n        /* \"#utility.yul\":60005:60094   */\n      tag_547\n      jump\t// in\n    tag_1120:\n        /* \"#utility.yul\":59998:60094   */\n      swap4\n      pop\n        /* \"#utility.yul\":60103:60168   */\n      tag_1121\n        /* \"#utility.yul\":60161:60167   */\n      dup2\n        /* \"#utility.yul\":60156:60159   */\n      dup6\n        /* \"#utility.yul\":60149:60153   */\n      0x20\n        /* \"#utility.yul\":60142:60147   */\n      dup7\n        /* \"#utility.yul\":60138:60154   */\n      add\n        /* \"#utility.yul\":60103:60168   */\n      tag_426\n      jump\t// in\n    tag_1121:\n        /* \"#utility.yul\":60193:60199   */\n      dup1\n        /* \"#utility.yul\":60188:60191   */\n      dup5\n        /* \"#utility.yul\":60184:60200   */\n      add\n        /* \"#utility.yul\":60177:60200   */\n      swap2\n      pop\n        /* \"#utility.yul\":59926:60206   */\n      pop\n        /* \"#utility.yul\":59816:60206   */\n      swap3\n      swap2\n      pop\n      pop\n      jump\t// out\n        /* \"#utility.yul\":60212:60291   */\n    tag_549:\n        /* \"#utility.yul\":60251:60258   */\n      0x00\n        /* \"#utility.yul\":60280:60285   */\n      dup2\n        /* \"#utility.yul\":60269:60285   */\n      swap1\n      pop\n        /* \"#utility.yul\":60212:60291   */\n      swap2\n      swap1\n      pop\n      jump\t// out\n        /* \"#utility.yul\":60297:60454   */\n    tag_550:\n        /* \"#utility.yul\":60402:60447   */\n      tag_1124\n        /* \"#utility.yul\":60422:60446   */\n      tag_1125\n        /* \"#utility.yul\":60440:60445   */\n      dup3\n        /* \"#utility.yul\":60422:60446   */\n      tag_482\n      jump\t// in\n    tag_1125:\n        /* \"#utility.yul\":60402:60447   */\n      tag_549\n      jump\t// in\n    tag_1124:\n        /* \"#utility.yul\":60397:60400   */\n      dup3\n        /* \"#utility.yul\":60390:60448   */\n      mstore\n        /* \"#utility.yul\":60297:60454   */\n      pop\n      pop\n      jump\t// out\n        /* \"#utility.yul\":60460:61449   */\n    tag_293:\n        /* \"#utility.yul\":60748:60751   */\n      0x00\n        /* \"#utility.yul\":60763:60836   */\n      tag_1127\n        /* \"#utility.yul\":60832:60835   */\n      dup3\n        /* \"#utility.yul\":60823:60829   */\n      dup10\n        /* \"#utility.yul\":60763:60836   */\n      tag_546\n      jump\t// in\n    tag_1127:\n        /* \"#utility.yul\":60861:60862   */\n      0x08\n        /* \"#utility.yul\":60856:60859   */\n      dup3\n        /* \"#utility.yul\":60852:60863   */\n      add\n        /* \"#utility.yul\":60845:60863   */\n      swap2\n      pop\n        /* \"#utility.yul\":60873:60946   */\n      tag_1128\n        /* \"#utility.yul\":60942:60945   */\n      dup3\n        /* \"#utility.yul\":60933:60939   */\n      dup9\n        /* \"#utility.yul\":60873:60946   */\n      tag_546\n      jump\t// in\n    tag_1128:\n        /* \"#utility.yul\":60971:60972   */\n      0x08\n        /* \"#utility.yul\":60966:60969   */\n      dup3\n        /* \"#utility.yul\":60962:60973   */\n      add\n        /* \"#utility.yul\":60955:60973   */\n      swap2\n      pop\n        /* \"#utility.yul\":60983:61058   */\n      tag_1129\n        /* \"#utility.yul\":61054:61057   */\n      dup3\n        /* \"#utility.yul\":61045:61051   */\n      dup8\n        /* \"#utility.yul\":60983:61058   */\n      tag_508\n      jump\t// in\n    tag_1129:\n        /* \"#utility.yul\":61083:61085   */\n      0x20\n        /* \"#utility.yul\":61078:61081   */\n      dup3\n        /* \"#utility.yul\":61074:61086   */\n      add\n        /* \"#utility.yul\":61067:61086   */\n      swap2\n      pop\n        /* \"#utility.yul\":61103:61198   */\n      tag_1130\n        /* \"#utility.yul\":61194:61197   */\n      dup3\n        /* \"#utility.yul\":61185:61191   */\n      dup7\n        /* \"#utility.yul\":61103:61198   */\n      tag_548\n      jump\t// in\n    tag_1130:\n        /* \"#utility.yul\":61096:61198   */\n      swap2\n      pop\n        /* \"#utility.yul\":61215:61310   */\n      tag_1131\n        /* \"#utility.yul\":61306:61309   */\n      dup3\n        /* \"#utility.yul\":61297:61303   */\n      dup6\n        /* \"#utility.yul\":61215:61310   */\n      tag_548\n      jump\t// in\n    tag_1131:\n        /* \"#utility.yul\":61208:61310   */\n      swap2\n      pop\n        /* \"#utility.yul\":61320:61395   */\n      tag_1132\n        /* \"#utility.yul\":61391:61394   */\n      dup3\n        /* \"#utility.yul\":61382:61388   */\n      dup5\n        /* \"#utility.yul\":61320:61395   */\n      tag_550\n      jump\t// in\n    tag_1132:\n        /* \"#utility.yul\":61420:61422   */\n      0x20\n        /* \"#utility.yul\":61415:61418   */\n      dup3\n        /* \"#utility.yul\":61411:61423   */\n      add\n        /* \"#utility.yul\":61404:61423   */\n      swap2\n      pop\n        /* \"#utility.yul\":61440:61443   */\n      dup2\n        /* \"#utility.yul\":61433:61443   */\n      swap1\n      pop\n        /* \"#utility.yul\":60460:61449   */\n      swap8\n      swap7\n      pop\n      pop\n      pop\n      pop\n      pop\n      pop\n      pop\n      jump\t// out\n        /* \"#utility.yul\":61455:61730   */\n    tag_295:\n        /* \"#utility.yul\":61587:61590   */\n      0x00\n        /* \"#utility.yul\":61609:61704   */\n      tag_1134\n        /* \"#utility.yul\":61700:61703   */\n      dup3\n        /* \"#utility.yul\":61691:61697   */\n      dup5\n        /* \"#utility.yul\":61609:61704   */\n      tag_548\n      jump\t// in\n    tag_1134:\n        /* \"#utility.yul\":61602:61704   */\n      swap2\n      pop\n        /* \"#utility.yul\":61721:61724   */\n      dup2\n        /* \"#utility.yul\":61714:61724   */\n      swap1\n      pop\n        /* \"#utility.yul\":61455:61730   */\n      swap3\n      swap2\n      pop\n      pop\n      jump\t// out\n        /* \"#utility.yul\":61736:61905   */\n    tag_551:\n        /* \"#utility.yul\":61876:61897   */\n      0x46696c6520616c72656164792065786973747300000000000000000000000000\n        /* \"#utility.yul\":61872:61873   */\n      0x00\n        /* \"#utility.yul\":61864:61870   */\n      dup3\n        /* \"#utility.yul\":61860:61874   */\n      add\n        /* \"#utility.yul\":61853:61898   */\n      mstore\n        /* \"#utility.yul\":61736:61905   */\n      pop\n      jump\t// out\n        /* \"#utility.yul\":61911:62277   */\n    tag_552:\n        /* \"#utility.yul\":62053:62056   */\n      0x00\n        /* \"#utility.yul\":62074:62141   */\n      tag_1137\n        /* \"#utility.yul\":62138:62140   */\n      0x13\n        /* \"#utility.yul\":62133:62136   */\n      dup4\n        /* \"#utility.yul\":62074:62141   */\n      tag_494\n      jump\t// in\n    tag_1137:\n        /* \"#utility.yul\":62067:62141   */\n      swap2\n      pop\n        /* \"#utility.yul\":62150:62243   */\n      tag_1138\n        /* \"#utility.yul\":62239:62242   */\n      dup3\n        /* \"#utility.yul\":62150:62243   */\n      tag_551\n      jump\t// in\n    tag_1138:\n        /* \"#utility.yul\":62268:62270   */\n      0x20\n        /* \"#utility.yul\":62263:62266   */\n      dup3\n        /* \"#utility.yul\":62259:62271   */\n      add\n        /* \"#utility.yul\":62252:62271   */\n      swap1\n      pop\n        /* \"#utility.yul\":61911:62277   */\n      swap2\n      swap1\n      pop\n      jump\t// out\n        /* \"#utility.yul\":62283:62702   */\n    tag_298:\n        /* \"#utility.yul\":62449:62453   */\n      0x00\n        /* \"#utility.yul\":62487:62489   */\n      0x20\n        /* \"#utility.yul\":62476:62485   */\n      dup3\n        /* \"#utility.yul\":62472:62490   */\n      add\n        /* \"#utility.yul\":62464:62490   */\n      swap1\n      pop\n        /* \"#utility.yul\":62536:62545   */\n      dup2\n        /* \"#utility.yul\":62530:62534   */\n      dup2\n        /* \"#utility.yul\":62526:62546   */\n      sub\n        /* \"#utility.yul\":62522:62523   */\n      0x00\n        /* \"#utility.yul\":62511:62520   */\n      dup4\n        /* \"#utility.yul\":62507:62524   */\n      add\n        /* \"#utility.yul\":62500:62547   */\n      mstore\n        /* \"#utility.yul\":62564:62695   */\n      tag_1140\n        /* \"#utility.yul\":62690:62694   */\n      dup2\n        /* \"#utility.yul\":62564:62695   */\n      tag_552\n      jump\t// in\n    tag_1140:\n        /* \"#utility.yul\":62556:62695   */\n      swap1\n      pop\n        /* \"#utility.yul\":62283:62702   */\n      swap2\n      swap1\n      pop\n      jump\t// out\n        /* \"#utility.yul\":62708:62849   */\n    tag_553:\n        /* \"#utility.yul\":62757:62761   */\n      0x00\n        /* \"#utility.yul\":62780:62783   */\n      dup2\n        /* \"#utility.yul\":62772:62783   */\n      swap1\n      pop\n        /* \"#utility.yul\":62803:62806   */\n      dup2\n        /* \"#utility.yul\":62800:62801   */\n      0x00\n        /* \"#utility.yul\":62793:62807   */\n      mstore\n        /* \"#utility.yul\":62837:62841   */\n      0x20\n        /* \"#utility.yul\":62834:62835   */\n      0x00\n        /* \"#utility.yul\":62824:62842   */\n      keccak256\n        /* \"#utility.yul\":62816:62842   */\n      swap1\n      pop\n        /* \"#utility.yul\":62708:62849   */\n      swap2\n      swap1\n      pop\n      jump\t// out\n        /* \"#utility.yul\":62855:63398   */\n    tag_554:\n        /* \"#utility.yul\":62956:62958   */\n      0x1f\n        /* \"#utility.yul\":62951:62954   */\n      dup3\n        /* \"#utility.yul\":62948:62959   */\n      gt\n        /* \"#utility.yul\":62945:63391   */\n      iszero\n      tag_1143\n      jumpi\n        /* \"#utility.yul\":62990:63028   */\n      tag_1144\n        /* \"#utility.yul\":63022:63027   */\n      dup2\n        /* \"#utility.yul\":62990:63028   */\n      tag_553\n      jump\t// in\n    tag_1144:\n        /* \"#utility.yul\":63074:63103   */\n      tag_1145\n        /* \"#utility.yul\":63092:63102   */\n      dup5\n        /* \"#utility.yul\":63074:63103   */\n      tag_514\n      jump\t// in\n    tag_1145:\n        /* \"#utility.yul\":63064:63072   */\n      dup2\n        /* \"#utility.yul\":63060:63104   */\n      add\n        /* \"#utility.yul\":63257:63259   */\n      0x20\n        /* \"#utility.yul\":63245:63255   */\n      dup6\n        /* \"#utility.yul\":63242:63260   */\n      lt\n        /* \"#utility.yul\":63239:63288   */\n      iszero\n      tag_1146\n      jumpi\n        /* \"#utility.yul\":63278:63286   */\n      dup2\n        /* \"#utility.yul\":63263:63286   */\n      swap1\n      pop\n        /* \"#utility.yul\":63239:63288   */\n    tag_1146:\n        /* \"#utility.yul\":63301:63381   */\n      tag_1147\n        /* \"#utility.yul\":63357:63379   */\n      tag_1148\n        /* \"#utility.yul\":63375:63378   */\n      dup6\n        /* \"#utility.yul\":63357:63379   */\n      tag_514\n      jump\t// in\n    tag_1148:\n        /* \"#utility.yul\":63347:63355   */\n      dup4\n        /* \"#utility.yul\":63343:63380   */\n      add\n        /* \"#utility.yul\":63330:63341   */\n      dup3\n        /* \"#utility.yul\":63301:63381   */\n      tag_523\n      jump\t// in\n    tag_1147:\n        /* \"#utility.yul\":62960:63391   */\n      pop\n      pop\n        /* \"#utility.yul\":62945:63391   */\n    tag_1143:\n        /* \"#utility.yul\":62855:63398   */\n      pop\n      pop\n      pop\n      jump\t// out\n        /* \"#utility.yul\":63404:64799   */\n    tag_302:\n        /* \"#utility.yul\":63521:63558   */\n      tag_1150\n        /* \"#utility.yul\":63554:63557   */\n      dup3\n        /* \"#utility.yul\":63521:63558   */\n      tag_424\n      jump\t// in\n    tag_1150:\n        /* \"#utility.yul\":63623:63641   */\n      0xffffffffffffffff\n        /* \"#utility.yul\":63615:63621   */\n      dup2\n        /* \"#utility.yul\":63612:63642   */\n      gt\n        /* \"#utility.yul\":63609:63665   */\n      iszero\n      tag_1151\n      jumpi\n        /* \"#utility.yul\":63645:63663   */\n      tag_1152\n      tag_202\n      jump\t// in\n    tag_1152:\n        /* \"#utility.yul\":63609:63665   */\n    tag_1151:\n        /* \"#utility.yul\":63689:63727   */\n      tag_1153\n        /* \"#utility.yul\":63721:63725   */\n      dup3\n        /* \"#utility.yul\":63715:63726   */\n      sload\n        /* \"#utility.yul\":63689:63727   */\n      tag_117\n      jump\t// in\n    tag_1153:\n        /* \"#utility.yul\":63774:63841   */\n      tag_1154\n        /* \"#utility.yul\":63834:63840   */\n      dup3\n        /* \"#utility.yul\":63826:63832   */\n      dup3\n        /* \"#utility.yul\":63820:63824   */\n      dup6\n        /* \"#utility.yul\":63774:63841   */\n      tag_554\n      jump\t// in\n    tag_1154:\n        /* \"#utility.yul\":63868:63869   */\n      0x00\n        /* \"#utility.yul\":63892:63896   */\n      0x20\n        /* \"#utility.yul\":63879:63896   */\n      swap1\n      pop\n        /* \"#utility.yul\":63924:63926   */\n      0x1f\n        /* \"#utility.yul\":63916:63922   */\n      dup4\n        /* \"#utility.yul\":63913:63927   */\n      gt\n        /* \"#utility.yul\":63941:63942   */\n      0x01\n        /* \"#utility.yul\":63936:64554   */\n      dup2\n      eq\n      tag_1156\n      jumpi\n        /* \"#utility.yul\":64598:64599   */\n      0x00\n        /* \"#utility.yul\":64615:64621   */\n      dup5\n        /* \"#utility.yul\":64612:64689   */\n      iszero\n      tag_1157\n      jumpi\n        /* \"#utility.yul\":64664:64673   */\n      dup3\n        /* \"#utility.yul\":64659:64662   */\n      dup8\n        /* \"#utility.yul\":64655:64674   */\n      add\n        /* \"#utility.yul\":64649:64675   */\n      mload\n        /* \"#utility.yul\":64640:64675   */\n      swap1\n      pop\n        /* \"#utility.yul\":64612:64689   */\n    tag_1157:\n        /* \"#utility.yul\":64715:64782   */\n      tag_1158\n        /* \"#utility.yul\":64775:64781   */\n      dup6\n        /* \"#utility.yul\":64768:64773   */\n      dup3\n        /* \"#utility.yul\":64715:64782   */\n      tag_527\n      jump\t// in\n    tag_1158:\n        /* \"#utility.yul\":64709:64713   */\n      dup7\n        /* \"#utility.yul\":64702:64783   */\n      sstore\n        /* \"#utility.yul\":64571:64793   */\n      pop\n        /* \"#utility.yul\":63906:64793   */\n      jump(tag_1155)\n        /* \"#utility.yul\":63936:64554   */\n    tag_1156:\n        /* \"#utility.yul\":63988:63992   */\n      0x1f\n        /* \"#utility.yul\":63984:63993   */\n      not\n        /* \"#utility.yul\":63976:63982   */\n      dup5\n        /* \"#utility.yul\":63972:63994   */\n      and\n        /* \"#utility.yul\":64022:64059   */\n      tag_1159\n        /* \"#utility.yul\":64054:64058   */\n      dup7\n        /* \"#utility.yul\":64022:64059   */\n      tag_553\n      jump\t// in\n    tag_1159:\n        /* \"#utility.yul\":64081:64082   */\n      0x00\n        /* \"#utility.yul\":64095:64303   */\n    tag_1160:\n        /* \"#utility.yul\":64109:64116   */\n      dup3\n        /* \"#utility.yul\":64106:64107   */\n      dup2\n        /* \"#utility.yul\":64103:64117   */\n      lt\n        /* \"#utility.yul\":64095:64303   */\n      iszero\n      tag_1162\n      jumpi\n        /* \"#utility.yul\":64188:64197   */\n      dup5\n        /* \"#utility.yul\":64183:64186   */\n      dup10\n        /* \"#utility.yul\":64179:64198   */\n      add\n        /* \"#utility.yul\":64173:64199   */\n      mload\n        /* \"#utility.yul\":64165:64171   */\n      dup3\n        /* \"#utility.yul\":64158:64200   */\n      sstore\n        /* \"#utility.yul\":64239:64240   */\n      0x01\n        /* \"#utility.yul\":64231:64237   */\n      dup3\n        /* \"#utility.yul\":64227:64241   */\n      add\n        /* \"#utility.yul\":64217:64241   */\n      swap2\n      pop\n        /* \"#utility.yul\":64286:64288   */\n      0x20\n        /* \"#utility.yul\":64275:64284   */\n      dup6\n        /* \"#utility.yul\":64271:64289   */\n      add\n        /* \"#utility.yul\":64258:64289   */\n      swap5\n      pop\n        /* \"#utility.yul\":64132:64136   */\n      0x20\n        /* \"#utility.yul\":64129:64130   */\n      dup2\n        /* \"#utility.yul\":64125:64137   */\n      add\n        /* \"#utility.yul\":64120:64137   */\n      swap1\n      pop\n        /* \"#utility.yul\":64095:64303   */\n      jump(tag_1160)\n    tag_1162:\n        /* \"#utility.yul\":64331:64337   */\n      dup7\n        /* \"#utility.yul\":64322:64329   */\n      dup4\n        /* \"#utility.yul\":64319:64338   */\n      lt\n        /* \"#utility.yul\":64316:64495   */\n      iszero\n      tag_1163\n      jumpi\n        /* \"#utility.yul\":64389:64398   */\n      dup5\n        /* \"#utility.yul\":64384:64387   */\n      dup10\n        /* \"#utility.yul\":64380:64399   */\n      add\n        /* \"#utility.yul\":64374:64400   */\n      mload\n        /* \"#utility.yul\":64432:64480   */\n      tag_1164\n        /* \"#utility.yul\":64474:64478   */\n      0x1f\n        /* \"#utility.yul\":64466:64472   */\n      dup10\n        /* \"#utility.yul\":64462:64479   */\n      and\n        /* \"#utility.yul\":64451:64460   */\n      dup3\n        /* \"#utility.yul\":64432:64480   */\n      tag_526\n      jump\t// in\n    tag_1164:\n        /* \"#utility.yul\":64424:64430   */\n      dup4\n        /* \"#utility.yul\":64417:64481   */\n      sstore\n        /* \"#utility.yul\":64339:64495   */\n      pop\n        /* \"#utility.yul\":64316:64495   */\n    tag_1163:\n        /* \"#utility.yul\":64541:64542   */\n      0x01\n        /* \"#utility.yul\":64537:64538   */\n      0x02\n        /* \"#utility.yul\":64529:64535   */\n      dup9\n        /* \"#utility.yul\":64525:64539   */\n      mul\n        /* \"#utility.yul\":64521:64543   */\n      add\n        /* \"#utility.yul\":64515:64519   */\n      dup9\n        /* \"#utility.yul\":64508:64544   */\n      sstore\n        /* \"#utility.yul\":63943:64554   */\n      pop\n      pop\n      pop\n        /* \"#utility.yul\":63906:64793   */\n    tag_1155:\n      pop\n        /* \"#utility.yul\":63496:64799   */\n      pop\n      pop\n      pop\n        /* \"#utility.yul\":63404:64799   */\n      pop\n      pop\n      jump\t// out\n        /* \"#utility.yul\":64805:65182   */\n    tag_555:\n        /* \"#utility.yul\":64893:64896   */\n      0x00\n        /* \"#utility.yul\":64921:64960   */\n      tag_1166\n        /* \"#utility.yul\":64954:64959   */\n      dup3\n        /* \"#utility.yul\":64921:64960   */\n      tag_424\n      jump\t// in\n    tag_1166:\n        /* \"#utility.yul\":64976:65047   */\n      tag_1167\n        /* \"#utility.yul\":65040:65046   */\n      dup2\n        /* \"#utility.yul\":65035:65038   */\n      dup6\n        /* \"#utility.yul\":64976:65047   */\n      tag_494\n      jump\t// in\n    tag_1167:\n        /* \"#utility.yul\":64969:65047   */\n      swap4\n      pop\n        /* \"#utility.yul\":65056:65121   */\n      tag_1168\n        /* \"#utility.yul\":65114:65120   */\n      dup2\n        /* \"#utility.yul\":65109:65112   */\n      dup6\n        /* \"#utility.yul\":65102:65106   */\n      0x20\n        /* \"#utility.yul\":65095:65100   */\n      dup7\n        /* \"#utility.yul\":65091:65107   */\n      add\n        /* \"#utility.yul\":65056:65121   */\n      tag_426\n      jump\t// in\n    tag_1168:\n        /* \"#utility.yul\":65146:65175   */\n      tag_1169\n        /* \"#utility.yul\":65168:65174   */\n      dup2\n        /* \"#utility.yul\":65146:65175   */\n      tag_427\n      jump\t// in\n    tag_1169:\n        /* \"#utility.yul\":65141:65144   */\n      dup5\n        /* \"#utility.yul\":65137:65176   */\n      add\n        /* \"#utility.yul\":65130:65176   */\n      swap2\n      pop\n        /* \"#utility.yul\":64897:65182   */\n      pop\n        /* \"#utility.yul\":64805:65182   */\n      swap3\n      swap2\n      pop\n      pop\n      jump\t// out\n        /* \"#utility.yul\":65188:65303   */\n    tag_556:\n        /* \"#utility.yul\":65273:65296   */\n      tag_1171\n        /* \"#utility.yul\":65290:65295   */\n      dup2\n        /* \"#utility.yul\":65273:65296   */\n      tag_418\n      jump\t// in\n    tag_1171:\n        /* \"#utility.yul\":65268:65271   */\n      dup3\n        /* \"#utility.yul\":65261:65297   */\n      mstore\n        /* \"#utility.yul\":65188:65303   */\n      pop\n      pop\n      jump\t// out\n        /* \"#utility.yul\":65309:65728   */\n    tag_309:\n        /* \"#utility.yul\":65448:65452   */\n      0x00\n        /* \"#utility.yul\":65486:65488   */\n      0x40\n        /* \"#utility.yul\":65475:65484   */\n      dup3\n        /* \"#utility.yul\":65471:65489   */\n      add\n        /* \"#utility.yul\":65463:65489   */\n      swap1\n      pop\n        /* \"#utility.yul\":65535:65544   */\n      dup2\n        /* \"#utility.yul\":65529:65533   */\n      dup2\n        /* \"#utility.yul\":65525:65545   */\n      sub\n        /* \"#utility.yul\":65521:65522   */\n      0x00\n        /* \"#utility.yul\":65510:65519   */\n      dup4\n        /* \"#utility.yul\":65506:65523   */\n      add\n        /* \"#utility.yul\":65499:65546   */\n      mstore\n        /* \"#utility.yul\":65563:65641   */\n      tag_1173\n        /* \"#utility.yul\":65636:65640   */\n      dup2\n        /* \"#utility.yul\":65627:65633   */\n      dup6\n        /* \"#utility.yul\":65563:65641   */\n      tag_555\n      jump\t// in\n    tag_1173:\n        /* \"#utility.yul\":65555:65641   */\n      swap1\n      pop\n        /* \"#utility.yul\":65651:65721   */\n      tag_1174\n        /* \"#utility.yul\":65717:65719   */\n      0x20\n        /* \"#utility.yul\":65706:65715   */\n      dup4\n        /* \"#utility.yul\":65702:65720   */\n      add\n        /* \"#utility.yul\":65693:65699   */\n      dup5\n        /* \"#utility.yul\":65651:65721   */\n      tag_556\n      jump\t// in\n    tag_1174:\n        /* \"#utility.yul\":65309:65728   */\n      swap4\n      swap3\n      pop\n      pop\n      pop\n      jump\t// out\n        /* \"#utility.yul\":65734:65907   */\n    tag_557:\n        /* \"#utility.yul\":65874:65899   */\n      0x46696c652075706c6f6164206e6f742061637469766564000000000000000000\n        /* \"#utility.yul\":65870:65871   */\n      0x00\n        /* \"#utility.yul\":65862:65868   */\n      dup3\n        /* \"#utility.yul\":65858:65872   */\n      add\n        /* \"#utility.yul\":65851:65900   */\n      mstore\n        /* \"#utility.yul\":65734:65907   */\n      pop\n      jump\t// out\n        /* \"#utility.yul\":65913:66279   */\n    tag_558:\n        /* \"#utility.yul\":66055:66058   */\n      0x00\n        /* \"#utility.yul\":66076:66143   */\n      tag_1177\n        /* \"#utility.yul\":66140:66142   */\n      0x17\n        /* \"#utility.yul\":66135:66138   */\n      dup4\n        /* \"#utility.yul\":66076:66143   */\n      tag_494\n      jump\t// in\n    tag_1177:\n        /* \"#utility.yul\":66069:66143   */\n      swap2\n      pop\n        /* \"#utility.yul\":66152:66245   */\n      tag_1178\n        /* \"#utility.yul\":66241:66244   */\n      dup3\n        /* \"#utility.yul\":66152:66245   */\n      tag_557\n      jump\t// in\n    tag_1178:\n        /* \"#utility.yul\":66270:66272   */\n      0x20\n        /* \"#utility.yul\":66265:66268   */\n      dup3\n        /* \"#utility.yul\":66261:66273   */\n      add\n        /* \"#utility.yul\":66254:66273   */\n      swap1\n      pop\n        /* \"#utility.yul\":65913:66279   */\n      swap2\n      swap1\n      pop\n      jump\t// out\n        /* \"#utility.yul\":66285:66704   */\n    tag_368:\n        /* \"#utility.yul\":66451:66455   */\n      0x00\n        /* \"#utility.yul\":66489:66491   */\n      0x20\n        /* \"#utility.yul\":66478:66487   */\n      dup3\n        /* \"#utility.yul\":66474:66492   */\n      add\n        /* \"#utility.yul\":66466:66492   */\n      swap1\n      pop\n        /* \"#utility.yul\":66538:66547   */\n      dup2\n        /* \"#utility.yul\":66532:66536   */\n      dup2\n        /* \"#utility.yul\":66528:66548   */\n      sub\n        /* \"#utility.yul\":66524:66525   */\n      0x00\n        /* \"#utility.yul\":66513:66522   */\n      dup4\n        /* \"#utility.yul\":66509:66526   */\n      add\n        /* \"#utility.yul\":66502:66549   */\n      mstore\n        /* \"#utility.yul\":66566:66697   */\n      tag_1180\n        /* \"#utility.yul\":66692:66696   */\n      dup2\n        /* \"#utility.yul\":66566:66697   */\n      tag_558\n      jump\t// in\n    tag_1180:\n        /* \"#utility.yul\":66558:66697   */\n      swap1\n      pop\n        /* \"#utility.yul\":66285:66704   */\n      swap2\n      swap1\n      pop\n      jump\t// out\n        /* \"#utility.yul\":66710:66879   */\n    tag_559:\n        /* \"#utility.yul\":66850:66871   */\n      0x46696c6520646f6573206e6f7420657869737400000000000000000000000000\n        /* \"#utility.yul\":66846:66847   */\n      0x00\n        /* \"#utility.yul\":66838:66844   */\n      dup3\n        /* \"#utility.yul\":66834:66848   */\n      add\n        /* \"#utility.yul\":66827:66872   */\n      mstore\n        /* \"#utility.yul\":66710:66879   */\n      pop\n      jump\t// out\n        /* \"#utility.yul\":66885:67251   */\n    tag_560:\n        /* \"#utility.yul\":67027:67030   */\n      0x00\n        /* \"#utility.yul\":67048:67115   */\n      tag_1183\n        /* \"#utility.yul\":67112:67114   */\n      0x13\n        /* \"#utility.yul\":67107:67110   */\n      dup4\n        /* \"#utility.yul\":67048:67115   */\n      tag_494\n      jump\t// in\n    tag_1183:\n        /* \"#utility.yul\":67041:67115   */\n      swap2\n      pop\n        /* \"#utility.yul\":67124:67217   */\n      tag_1184\n        /* \"#utility.yul\":67213:67216   */\n      dup3\n        /* \"#utility.yul\":67124:67217   */\n      tag_559\n      jump\t// in\n    tag_1184:\n        /* \"#utility.yul\":67242:67244   */\n      0x20\n        /* \"#utility.yul\":67237:67240   */\n      dup3\n        /* \"#utility.yul\":67233:67245   */\n      add\n        /* \"#utility.yul\":67226:67245   */\n      swap1\n      pop\n        /* \"#utility.yul\":66885:67251   */\n      swap2\n      swap1\n      pop\n      jump\t// out\n        /* \"#utility.yul\":67257:67676   */\n    tag_371:\n        /* \"#utility.yul\":67423:67427   */\n      0x00\n        /* \"#utility.yul\":67461:67463   */\n      0x20\n        /* \"#utility.yul\":67450:67459   */\n      dup3\n        /* \"#utility.yul\":67446:67464   */\n      add\n        /* \"#utility.yul\":67438:67464   */\n      swap1\n      pop\n        /* \"#utility.yul\":67510:67519   */\n      dup2\n        /* \"#utility.yul\":67504:67508   */\n      dup2\n        /* \"#utility.yul\":67500:67520   */\n      sub\n        /* \"#utility.yul\":67496:67497   */\n      0x00\n        /* \"#utility.yul\":67485:67494   */\n      dup4\n        /* \"#utility.yul\":67481:67498   */\n      add\n        /* \"#utility.yul\":67474:67521   */\n      mstore\n        /* \"#utility.yul\":67538:67669   */\n      tag_1186\n        /* \"#utility.yul\":67664:67668   */\n      dup2\n        /* \"#utility.yul\":67538:67669   */\n      tag_560\n      jump\t// in\n    tag_1186:\n        /* \"#utility.yul\":67530:67669   */\n      swap1\n      pop\n        /* \"#utility.yul\":67257:67676   */\n      swap2\n      swap1\n      pop\n      jump\t// out\n        /* \"#utility.yul\":67682:67856   */\n    tag_561:\n        /* \"#utility.yul\":67822:67848   */\n      0x537461727420696e646578206f7574206f662072616e67650000000000000000\n        /* \"#utility.yul\":67818:67819   */\n      0x00\n        /* \"#utility.yul\":67810:67816   */\n      dup3\n        /* \"#utility.yul\":67806:67820   */\n      add\n        /* \"#utility.yul\":67799:67849   */\n      mstore\n        /* \"#utility.yul\":67682:67856   */\n      pop\n      jump\t// out\n        /* \"#utility.yul\":67862:68228   */\n    tag_562:\n        /* \"#utility.yul\":68004:68007   */\n      0x00\n        /* \"#utility.yul\":68025:68092   */\n      tag_1189\n        /* \"#utility.yul\":68089:68091   */\n      0x18\n        /* \"#utility.yul\":68084:68087   */\n      dup4\n        /* \"#utility.yul\":68025:68092   */\n      tag_494\n      jump\t// in\n    tag_1189:\n        /* \"#utility.yul\":68018:68092   */\n      swap2\n      pop\n        /* \"#utility.yul\":68101:68194   */\n      tag_1190\n        /* \"#utility.yul\":68190:68193   */\n      dup3\n        /* \"#utility.yul\":68101:68194   */\n      tag_561\n      jump\t// in\n    tag_1190:\n        /* \"#utility.yul\":68219:68221   */\n      0x20\n        /* \"#utility.yul\":68214:68217   */\n      dup3\n        /* \"#utility.yul\":68210:68222   */\n      add\n        /* \"#utility.yul\":68203:68222   */\n      swap1\n      pop\n        /* \"#utility.yul\":67862:68228   */\n      swap2\n      swap1\n      pop\n      jump\t// out\n        /* \"#utility.yul\":68234:68653   */\n    tag_374:\n        /* \"#utility.yul\":68400:68404   */\n      0x00\n        /* \"#utility.yul\":68438:68440   */\n      0x20\n        /* \"#utility.yul\":68427:68436   */\n      dup3\n        /* \"#utility.yul\":68423:68441   */\n      add\n        /* \"#utility.yul\":68415:68441   */\n      swap1\n      pop\n        /* \"#utility.yul\":68487:68496   */\n      dup2\n        /* \"#utility.yul\":68481:68485   */\n      dup2\n        /* \"#utility.yul\":68477:68497   */\n      sub\n        /* \"#utility.yul\":68473:68474   */\n      0x00\n        /* \"#utility.yul\":68462:68471   */\n      dup4\n        /* \"#utility.yul\":68458:68475   */\n      add\n        /* \"#utility.yul\":68451:68498   */\n      mstore\n        /* \"#utility.yul\":68515:68646   */\n      tag_1192\n        /* \"#utility.yul\":68641:68645   */\n      dup2\n        /* \"#utility.yul\":68515:68646   */\n      tag_562\n      jump\t// in\n    tag_1192:\n        /* \"#utility.yul\":68507:68646   */\n      swap1\n      pop\n        /* \"#utility.yul\":68234:68653   */\n      swap2\n      swap1\n      pop\n      jump\t// out\n        /* \"#utility.yul\":68659:68840   */\n    tag_563:\n        /* \"#utility.yul\":68799:68832   */\n      0x4c696d6974206d7573742062652067726561746572207468616e207a65726f00\n        /* \"#utility.yul\":68795:68796   */\n      0x00\n        /* \"#utility.yul\":68787:68793   */\n      dup3\n        /* \"#utility.yul\":68783:68797   */\n      add\n        /* \"#utility.yul\":68776:68833   */\n      mstore\n        /* \"#utility.yul\":68659:68840   */\n      pop\n      jump\t// out\n        /* \"#utility.yul\":68846:69212   */\n    tag_564:\n        /* \"#utility.yul\":68988:68991   */\n      0x00\n        /* \"#utility.yul\":69009:69076   */\n      tag_1195\n        /* \"#utility.yul\":69073:69075   */\n      0x1f\n        /* \"#utility.yul\":69068:69071   */\n      dup4\n        /* \"#utility.yul\":69009:69076   */\n      tag_494\n      jump\t// in\n    tag_1195:\n        /* \"#utility.yul\":69002:69076   */\n      swap2\n      pop\n        /* \"#utility.yul\":69085:69178   */\n      tag_1196\n        /* \"#utility.yul\":69174:69177   */\n      dup3\n        /* \"#utility.yul\":69085:69178   */\n      tag_563\n      jump\t// in\n    tag_1196:\n        /* \"#utility.yul\":69203:69205   */\n      0x20\n        /* \"#utility.yul\":69198:69201   */\n      dup3\n        /* \"#utility.yul\":69194:69206   */\n      add\n        /* \"#utility.yul\":69187:69206   */\n      swap1\n      pop\n        /* \"#utility.yul\":68846:69212   */\n      swap2\n      swap1\n      pop\n      jump\t// out\n        /* \"#utility.yul\":69218:69637   */\n    tag_377:\n        /* \"#utility.yul\":69384:69388   */\n      0x00\n        /* \"#utility.yul\":69422:69424   */\n      0x20\n        /* \"#utility.yul\":69411:69420   */\n      dup3\n        /* \"#utility.yul\":69407:69425   */\n      add\n        /* \"#utility.yul\":69399:69425   */\n      swap1\n      pop\n        /* \"#utility.yul\":69471:69480   */\n      dup2\n        /* \"#utility.yul\":69465:69469   */\n      dup2\n        /* \"#utility.yul\":69461:69481   */\n      sub\n        /* \"#utility.yul\":69457:69458   */\n      0x00\n        /* \"#utility.yul\":69446:69455   */\n      dup4\n        /* \"#utility.yul\":69442:69459   */\n      add\n        /* \"#utility.yul\":69435:69482   */\n      mstore\n        /* \"#utility.yul\":69499:69630   */\n      tag_1198\n        /* \"#utility.yul\":69625:69629   */\n      dup2\n        /* \"#utility.yul\":69499:69630   */\n      tag_564\n      jump\t// in\n    tag_1198:\n        /* \"#utility.yul\":69491:69630   */\n      swap1\n      pop\n        /* \"#utility.yul\":69218:69637   */\n      swap2\n      swap1\n      pop\n      jump\t// out\n        /* \"#utility.yul\":69643:69837   */\n    tag_385:\n        /* \"#utility.yul\":69683:69687   */\n      0x00\n        /* \"#utility.yul\":69703:69723   */\n      tag_1200\n        /* \"#utility.yul\":69721:69722   */\n      dup3\n        /* \"#utility.yul\":69703:69723   */\n      tag_482\n      jump\t// in\n    tag_1200:\n        /* \"#utility.yul\":69698:69723   */\n      swap2\n      pop\n        /* \"#utility.yul\":69737:69757   */\n      tag_1201\n        /* \"#utility.yul\":69755:69756   */\n      dup4\n        /* \"#utility.yul\":69737:69757   */\n      tag_482\n      jump\t// in\n    tag_1201:\n        /* \"#utility.yul\":69732:69757   */\n      swap3\n      pop\n        /* \"#utility.yul\":69781:69782   */\n      dup3\n        /* \"#utility.yul\":69778:69779   */\n      dup3\n        /* \"#utility.yul\":69774:69783   */\n      sub\n        /* \"#utility.yul\":69766:69783   */\n      swap1\n      pop\n        /* \"#utility.yul\":69805:69806   */\n      dup2\n        /* \"#utility.yul\":69799:69803   */\n      dup2\n        /* \"#utility.yul\":69796:69807   */\n      gt\n        /* \"#utility.yul\":69793:69830   */\n      iszero\n      tag_1202\n      jumpi\n        /* \"#utility.yul\":69810:69828   */\n      tag_1203\n      tag_502\n      jump\t// in\n    tag_1203:\n        /* \"#utility.yul\":69793:69830   */\n    tag_1202:\n        /* \"#utility.yul\":69643:69837   */\n      swap3\n      swap2\n      pop\n      pop\n      jump\t// out\n\n    auxdata: 0xa26469706673582212204c83d4a2e1b5987532c43cefcf7b8e67ccb8225b3449255ec0792f6559a8533464736f6c63430008130033\n}\n",
				"bytecode": {
					"linkReferences": {},
					"object": "608060405233600360006101000a81548173ffffffffffffffffffffffffffffffffffffffff021916908373ffffffffffffffffffffffffffffffffffffffff160217905550614b75806100546000396000f3fe608060405234801561001057600080fd5b506004361061010b5760003560e01c80639b26b2a8116100a2578063d598d4c911610071578063d598d4c9146102c7578063eb070e7e146102e5578063edff13af14610315578063f25671c414610345578063fab91940146103755761010b565b80639b26b2a81461022e578063bf8bdac11461024a578063c652793d14610266578063ca7e3cd4146102975761010b565b80636e0c19b1116100de5780636e0c19b1146101a85780638da5cb5b146101d85780638f73088d146101f657806391c03370146102125761010b565b806346da51781461011057806352f7347b146101405780635f95c07b146101705780636ab799f11461018c575b600080fd5b61012a60048036038101906101259190612911565b6103a5565b60405161013791906129b2565b60405180910390f35b61015a60048036038101906101559190612911565b6104d4565b6040516101679190612c04565b60405180910390f35b61018a60048036038101906101859190612d5b565b61087d565b005b6101a660048036038101906101a19190612911565b610d7e565b005b6101c260048036038101906101bd919061313e565b610fae565b6040516101cf9190613236565b60405180910390f35b6101e0611069565b6040516101ed9190613267565b60405180910390f35b610210600480360381019061020b9190613426565b61108f565b005b61022c600480360381019061022791906134cd565b61115e565b005b61024860048036038101906102439190612911565b611310565b005b610264600480360381019061025f919061350d565b6114ff565b005b610280600480360381019061027b9190612911565b6115d3565b60405161028e92919061353a565b60405180910390f35b6102b160048036038101906102ac919061356a565b6119f3565b6040516102be91906135c2565b60405180910390f35b6102cf611e48565b6040516102dc9190613267565b60405180910390f35b6102ff60048036038101906102fa91906135dd565b611e6e565b60405161030c91906137d7565b60405180910390f35b61032f600480360381019061032a91906137f9565b6122c4565b60405161033c91906135c2565b60405180910390f35b61035f600480360381019061035a9190613923565b6122f2565b60405161036c9190613236565b60405180910390f35b61038f600480360381019061038a91906139a2565b6123c3565b60405161039c9190613b0c565b60405180910390f35b6103ad612796565b60008060008481526020019081526020016000209050600060038111156103d7576103d6612a9e565b5b8160000160050160009054906101000a900460ff1660038111156103fe576103fd612a9e565b5b1461043e576040517f08c379a000000000000000000000000000000000000000000000000000000000815260040161043590613b8b565b60405180910390fd5b600080848152602001908152602001600020600801604051806060016040529081600082015481526020016001820160009054906101000a900467ffffffffffffffff1667ffffffffffffffff1667ffffffffffffffff1681526020016001820160089054906101000a900467ffffffffffffffff1667ffffffffffffffff1667ffffffffffffffff1681525050915050919050565b6104dc6127ce565b600080838152602001908152602001600020600001604051806101400160405290816000820160009054906101000a900473ffffffffffffffffffffffffffffffffffffffff1673ffffffffffffffffffffffffffffffffffffffff1673ffffffffffffffffffffffffffffffffffffffff168152602001600182015481526020016002820160009054906101000a900467ffffffffffffffff1667ffffffffffffffff1667ffffffffffffffff1681526020016002820160089054906101000a900467ffffffffffffffff1667ffffffffffffffff1667ffffffffffffffff1681526020016002820160109054906101000a900467ffffffffffffffff1667ffffffffffffffff1667ffffffffffffffff16815260200160038201805461060390613bda565b80601f016020809104026020016040519081016040528092919081815260200182805461062f90613bda565b801561067c5780601f106106515761010080835404028352916020019161067c565b820191906000526020600020905b81548152906001019060200180831161065f57829003601f168201915b5050505050815260200160048201805461069590613bda565b80601f01602080910402602001604051908101604052809291908181526020018280546106c190613bda565b801561070e5780601f106106e35761010080835404028352916020019161070e565b820191906000526020600020905b8154815290600101906020018083116106f157829003601f168201915b505050505081526020016005820160009054906101000a900460ff16600381111561073c5761073b612a9e565b5b600381111561074e5761074d612a9e565b5b815260200160068201805461076290613bda565b80601f016020809104026020016040519081016040528092919081815260200182805461078e90613bda565b80156107db5780601f106107b0576101008083540402835291602001916107db565b820191906000526020600020905b8154815290600101906020018083116107be57829003601f168201915b505050505081526020016007820180546107f490613bda565b80601f016020809104026020016040519081016040528092919081815260200182805461082090613bda565b801561086d5780601f106108425761010080835404028352916020019161086d565b820191906000526020600020905b81548152906001019060200180831161085057829003601f168201915b5050505050815250509050919050565b600082511180156108915750612800825111155b6108d0576040517f08c379a00000000000000000000000000000000000000000000000000000000081526004016108c790613c57565b60405180910390fd5b600080600085815260200190815260200160002090503373ffffffffffffffffffffffffffffffffffffffff168160000160000160009054906101000a900473ffffffffffffffffffffffffffffffffffffffff1673ffffffffffffffffffffffffffffffffffffffff161461097b576040517f08c379a000000000000000000000000000000000000000000000000000000000815260040161097290613cc3565b60405180910390fd5b8060000160020160009054906101000a900467ffffffffffffffff1667ffffffffffffffff1683518260080160010160089054906101000a900467ffffffffffffffff1667ffffffffffffffff166109d39190613d12565b1115610a14576040517f08c379a0000000000000000000000000000000000000000000000000000000008152600401610a0b90613d92565b60405180910390fd5b60006003811115610a2857610a27612a9e565b5b8160000160050160009054906101000a900460ff166003811115610a4f57610a4e612a9e565b5b14610a8f576040517f08c379a0000000000000000000000000000000000000000000000000000000008152600401610a8690613dfe565b60405180910390fd5b6000816008016000015484604051602001610aab929190613e7b565b604051602081830303815290604052805190602001209050828114610b05576040517f08c379a0000000000000000000000000000000000000000000000000000000008152600401610afc90613eef565b60405180910390fd5b8082600801600001819055508382600a0160008460080160010160009054906101000a900467ffffffffffffffff1667ffffffffffffffff1681526020019081526020016000209081610b5891906140bb565b5081600801600101600081819054906101000a900467ffffffffffffffff1680929190610b849061418d565b91906101000a81548167ffffffffffffffff021916908367ffffffffffffffff1602179055505083518260080160010160088282829054906101000a900467ffffffffffffffff16610bd691906141bd565b92506101000a81548167ffffffffffffffff021916908367ffffffffffffffff1602179055508160080160010160089054906101000a900467ffffffffffffffff1667ffffffffffffffff168260000160020160009054906101000a900467ffffffffffffffff1667ffffffffffffffff161480610c9d57508160000160020160089054906101000a900467ffffffffffffffff1667ffffffffffffffff168260080160010160009054906101000a900467ffffffffffffffff1667ffffffffffffffff16145b15610d185760018260000160050160006101000a81548160ff02191690836003811115610ccd57610ccc612a9e565b5b0217905550816008016000808201600090556001820160006101000a81549067ffffffffffffffff02191690556001820160086101000a81549067ffffffffffffffff021916905550505b847f9194bcee830b22b5e81ccd3c7efb4811ca70dfdd9bbfaa1719d15dfc18c6417d60018460080160010160009054906101000a900467ffffffffffffffff16610d6291906141f9565b604051610d6f9190614266565b60405180910390a25050505050565b600080600083815260200190815260200160002090503373ffffffffffffffffffffffffffffffffffffffff168160000160000160009054906101000a900473ffffffffffffffffffffffffffffffffffffffff1673ffffffffffffffffffffffffffffffffffffffff1614610e29576040517f08c379a0000000000000000000000000000000000000000000000000000000008152600401610e2090613cc3565b60405180910390fd5b600380811115610e3c57610e3b612a9e565b5b8160000160050160009054906101000a900460ff166003811115610e6357610e62612a9e565b5b03610ea3576040517f08c379a0000000000000000000000000000000000000000000000000000000008152600401610e9a906142cd565b60405180910390fd5b60038160000160050160006101000a81548160ff02191690836003811115610ece57610ecd612a9e565b5b021790555060005b8160000160020160089054906101000a900467ffffffffffffffff1667ffffffffffffffff16811015610f375781600a0160008281526020019081526020016000206000610f24919061286a565b8080610f2f906142ed565b915050610ed6565b50806008016000808201600090556001820160006101000a81549067ffffffffffffffff02191690556001820160086101000a81549067ffffffffffffffff02191690555050817f88efefb1eaec3d3a0e08ed74bc99a3407d454b5da66112fed68b20d54837ccae60405160405180910390a25050565b60606000825167ffffffffffffffff811115610fcd57610fcc612c30565b5b604051908082528060200260200182016040528015610ffb5781602001602082028036833780820191505090505b50905060005b835181101561105f5761102d8482815181106110205761101f614335565b5b60200260200101516119f3565b8282815181106110405761103f614335565b5b6020026020010181815250508080611057906142ed565b915050611001565b5080915050919050565b600360009054906101000a900473ffffffffffffffffffffffffffffffffffffffff1681565b815183511480156110a1575081518151145b6110e0576040517f08c379a00000000000000000000000000000000000000000000000000000000081526004016110d7906143b0565b60405180910390fd5b60005b83518110156111585761114584828151811061110257611101614335565b5b602002602001015184838151811061111d5761111c614335565b5b602002602001015184848151811061113857611137614335565b5b602002602001015161087d565b8080611150906142ed565b9150506110e3565b50505050565b600080600084815260200190815260200160002090503373ffffffffffffffffffffffffffffffffffffffff168160000160000160009054906101000a900473ffffffffffffffffffffffffffffffffffffffff1673ffffffffffffffffffffffffffffffffffffffff1614611209576040517f08c379a000000000000000000000000000000000000000000000000000000000815260040161120090613cc3565b60405180910390fd5b60038081111561121c5761121b612a9e565b5b8160000160050160009054906101000a900460ff16600381111561124357611242612a9e565b5b03611283576040517f08c379a000000000000000000000000000000000000000000000000000000000815260040161127a9061441c565b60405180910390fd5b62015180426112929190613d12565b8267ffffffffffffffff16116112dd576040517f08c379a00000000000000000000000000000000000000000000000000000000081526004016112d4906144ae565b60405180910390fd5b818160000160020160106101000a81548167ffffffffffffffff021916908367ffffffffffffffff160217905550505050565b600080600083815260200190815260200160002090503373ffffffffffffffffffffffffffffffffffffffff168160000160000160009054906101000a900473ffffffffffffffffffffffffffffffffffffffff1673ffffffffffffffffffffffffffffffffffffffff16146113bb576040517f08c379a00000000000000000000000000000000000000000000000000000000081526004016113b290613cc3565b60405180910390fd5b600160038111156113cf576113ce612a9e565b5b8160000160050160009054906101000a900460ff1660038111156113f6576113f5612a9e565b5b14611436576040517f08c379a000000000000000000000000000000000000000000000000000000000815260040161142d9061451a565b60405180910390fd5b8060000160020160109054906101000a900467ffffffffffffffff1667ffffffffffffffff1642111561149e576040517f08c379a000000000000000000000000000000000000000000000000000000000815260040161149590614586565b60405180910390fd5b60028160000160050160006101000a81548160ff021916908360038111156114c9576114c8612a9e565b5b0217905550817f45987cd84c3c0ec7c3b91dde29affe01363c3777aec1247553883b243174733060405160405180910390a25050565b600360009054906101000a900473ffffffffffffffffffffffffffffffffffffffff1673ffffffffffffffffffffffffffffffffffffffff163373ffffffffffffffffffffffffffffffffffffffff161461158f576040517f08c379a000000000000000000000000000000000000000000000000000000000815260040161158690613cc3565b60405180910390fd5b80600260006101000a81548173ffffffffffffffffffffffffffffffffffffffff021916908373ffffffffffffffffffffffffffffffffffffffff16021790555050565b600060205280600052604060002060009150905080600001604051806101400160405290816000820160009054906101000a900473ffffffffffffffffffffffffffffffffffffffff1673ffffffffffffffffffffffffffffffffffffffff1673ffffffffffffffffffffffffffffffffffffffff168152602001600182015481526020016002820160009054906101000a900467ffffffffffffffff1667ffffffffffffffff1667ffffffffffffffff1681526020016002820160089054906101000a900467ffffffffffffffff1667ffffffffffffffff1667ffffffffffffffff1681526020016002820160109054906101000a900467ffffffffffffffff1667ffffffffffffffff1667ffffffffffffffff1681526020016003820180546116fd90613bda565b80601f016020809104026020016040519081016040528092919081815260200182805461172990613bda565b80156117765780601f1061174b57610100808354040283529160200191611776565b820191906000526020600020905b81548152906001019060200180831161175957829003601f168201915b5050505050815260200160048201805461178f90613bda565b80601f01602080910402602001604051908101604052809291908181526020018280546117bb90613bda565b80156118085780601f106117dd57610100808354040283529160200191611808565b820191906000526020600020905b8154815290600101906020018083116117eb57829003601f168201915b505050505081526020016005820160009054906101000a900460ff16600381111561183657611835612a9e565b5b600381111561184857611847612a9e565b5b815260200160068201805461185c90613bda565b80601f016020809104026020016040519081016040528092919081815260200182805461188890613bda565b80156118d55780601f106118aa576101008083540402835291602001916118d5565b820191906000526020600020905b8154815290600101906020018083116118b857829003601f168201915b505050505081526020016007820180546118ee90613bda565b80601f016020809104026020016040519081016040528092919081815260200182805461191a90613bda565b80156119675780601f1061193c57610100808354040283529160200191611967565b820191906000526020600020905b81548152906001019060200180831161194a57829003601f168201915b5050505050815250509080600801604051806060016040529081600082015481526020016001820160009054906101000a900467ffffffffffffffff1667ffffffffffffffff1667ffffffffffffffff1681526020016001820160089054906101000a900467ffffffffffffffff1667ffffffffffffffff1667ffffffffffffffff1681525050905082565b60006201518042611a049190613d12565b826080015167ffffffffffffffff1611611a53576040517f08c379a0000000000000000000000000000000000000000000000000000000008152600401611a4a90614618565b60405180910390fd5b8160400151826080015183602001518460a001518560c0015142604051602001611a82969594939291906146cb565b6040516020818303038152906040528051906020012090508060018360a00151604051611aaf9190614733565b9081526020016040518091039020819055506000801b6000808381526020019081526020016000206000016001015414611b1e576040517f08c379a0000000000000000000000000000000000000000000000000000000008152600401611b1590614796565b60405180910390fd5b6040518061014001604052803373ffffffffffffffffffffffffffffffffffffffff16815260200183602001518152602001836040015167ffffffffffffffff168152602001836060015167ffffffffffffffff168152602001836080015167ffffffffffffffff1681526020018360a0015181526020018360c00151815260200160006003811115611bb457611bb3612a9e565b5b8152602001836101000151815260200183610120015181525060008083815260200190815260200160002060000160008201518160000160006101000a81548173ffffffffffffffffffffffffffffffffffffffff021916908373ffffffffffffffffffffffffffffffffffffffff1602179055506020820151816001015560408201518160020160006101000a81548167ffffffffffffffff021916908367ffffffffffffffff16021790555060608201518160020160086101000a81548167ffffffffffffffff021916908367ffffffffffffffff16021790555060808201518160020160106101000a81548167ffffffffffffffff021916908367ffffffffffffffff16021790555060a0820151816003019081611cd59190614811565b5060c0820151816004019081611ceb9190614811565b5060e08201518160050160006101000a81548160ff02191690836003811115611d1757611d16612a9e565b5b0217905550610100820151816006019081611d329190614811565b50610120820151816007019081611d499190614811565b5090505060405180606001604052806000801b8152602001600067ffffffffffffffff168152602001600067ffffffffffffffff168152506000808381526020019081526020016000206008016000820151816000015560208201518160010160006101000a81548167ffffffffffffffff021916908367ffffffffffffffff16021790555060408201518160010160086101000a81548167ffffffffffffffff021916908367ffffffffffffffff160217905550905050807f7f2db28bb9cdbd41f93b3953994de4298cc665dda981f021c84fc9b4b367f11e8360a001518460400151604051611e3b92919061492b565b60405180910390a2919050565b600260009054906101000a900473ffffffffffffffffffffffffffffffffffffffff1681565b6060815167ffffffffffffffff811115611e8b57611e8a612c30565b5b604051908082528060200260200182016040528015611ec457816020015b611eb16127ce565b815260200190600190039081611ea95790505b50905060005b82518110156122be576000806000858481518110611eeb57611eea614335565b5b60200260200101518152602001908152602001600020600001604051806101400160405290816000820160009054906101000a900473ffffffffffffffffffffffffffffffffffffffff1673ffffffffffffffffffffffffffffffffffffffff1673ffffffffffffffffffffffffffffffffffffffff168152602001600182015481526020016002820160009054906101000a900467ffffffffffffffff1667ffffffffffffffff1667ffffffffffffffff1681526020016002820160089054906101000a900467ffffffffffffffff1667ffffffffffffffff1667ffffffffffffffff1681526020016002820160109054906101000a900467ffffffffffffffff1667ffffffffffffffff1667ffffffffffffffff16815260200160038201805461201690613bda565b80601f016020809104026020016040519081016040528092919081815260200182805461204290613bda565b801561208f5780601f106120645761010080835404028352916020019161208f565b820191906000526020600020905b81548152906001019060200180831161207257829003601f168201915b505050505081526020016004820180546120a890613bda565b80601f01602080910402602001604051908101604052809291908181526020018280546120d490613bda565b80156121215780601f106120f657610100808354040283529160200191612121565b820191906000526020600020905b81548152906001019060200180831161210457829003601f168201915b505050505081526020016005820160009054906101000a900460ff16600381111561214f5761214e612a9e565b5b600381111561216157612160612a9e565b5b815260200160068201805461217590613bda565b80601f01602080910402602001604051908101604052809291908181526020018280546121a190613bda565b80156121ee5780601f106121c3576101008083540402835291602001916121ee565b820191906000526020600020905b8154815290600101906020018083116121d157829003601f168201915b5050505050815260200160078201805461220790613bda565b80601f016020809104026020016040519081016040528092919081815260200182805461223390613bda565b80156122805780601f1061225557610100808354040283529160200191612280565b820191906000526020600020905b81548152906001019060200180831161226357829003601f168201915b50505050508152505090508083838151811061229f5761229e614335565b5b60200260200101819052505080806122b6906142ed565b915050611eca565b50919050565b6001818051602081018201805184825260208301602085012081835280955050505050506000915090505481565b60606000825167ffffffffffffffff81111561231157612310612c30565b5b60405190808252806020026020018201604052801561233f5781602001602082028036833780820191505090505b50905060005b83518110156123b957600184828151811061236357612362614335565b5b60200260200101516040516123789190614733565b90815260200160405180910390205482828151811061239a57612399614335565b5b60200260200101818152505080806123b1906142ed565b915050612345565b5080915050919050565b606060008060008681526020019081526020016000209050600160038111156123ef576123ee612a9e565b5b8160000160050160009054906101000a900460ff16600381111561241657612415612a9e565b5b14612456576040517f08c379a000000000000000000000000000000000000000000000000000000000815260040161244d906149a7565b60405180910390fd5b60008160000160020160009054906101000a900467ffffffffffffffff1667ffffffffffffffff16116124be576040517f08c379a00000000000000000000000000000000000000000000000000000000081526004016124b590614a13565b60405180910390fd5b8060000160020160089054906101000a900467ffffffffffffffff1667ffffffffffffffff168410612525576040517f08c379a000000000000000000000000000000000000000000000000000000000815260040161251c90614a7f565b60405180910390fd5b60008311612568576040517f08c379a000000000000000000000000000000000000000000000000000000000815260040161255f90614aeb565b60405180910390fd5b8060000160020160109054906101000a900467ffffffffffffffff1667ffffffffffffffff164211156125d0576040517f08c379a00000000000000000000000000000000000000000000000000000000081526004016125c790614586565b60405180910390fd5b60008160000160020160089054906101000a900467ffffffffffffffff1667ffffffffffffffff1684866126049190613d12565b1161261a5783856126159190613d12565b612641565b8160000160020160089054906101000a900467ffffffffffffffff1667ffffffffffffffff165b9050600085826126519190614b0b565b67ffffffffffffffff81111561266a57612669612c30565b5b60405190808252806020026020018201604052801561269d57816020015b60608152602001906001900390816126885790505b50905060008690505b828110156127885783600a01600082815260200190815260200160002080546126ce90613bda565b80601f01602080910402602001604051908101604052809291908181526020018280546126fa90613bda565b80156127475780601f1061271c57610100808354040283529160200191612747565b820191906000526020600020905b81548152906001019060200180831161272a57829003601f168201915b50505050508288836127599190614b0b565b8151811061276a57612769614335565b5b60200260200101819052508080612780906142ed565b9150506126a6565b508093505050509392505050565b604051806060016040528060008019168152602001600067ffffffffffffffff168152602001600067ffffffffffffffff1681525090565b604051806101400160405280600073ffffffffffffffffffffffffffffffffffffffff16815260200160008019168152602001600067ffffffffffffffff168152602001600067ffffffffffffffff168152602001600067ffffffffffffffff16815260200160608152602001606081526020016000600381111561285657612855612a9e565b5b815260200160608152602001606081525090565b50805461287690613bda565b6000825580601f1061288857506128a7565b601f0160209004906000526020600020908101906128a691906128aa565b5b50565b5b808211156128c35760008160009055506001016128ab565b5090565b6000604051905090565b600080fd5b600080fd5b6000819050919050565b6128ee816128db565b81146128f957600080fd5b50565b60008135905061290b816128e5565b92915050565b600060208284031215612927576129266128d1565b5b6000612935848285016128fc565b91505092915050565b612947816128db565b82525050565b600067ffffffffffffffff82169050919050565b61296a8161294d565b82525050565b606082016000820151612986600085018261293e565b5060208201516129996020850182612961565b5060408201516129ac6040850182612961565b50505050565b60006060820190506129c76000830184612970565b92915050565b600073ffffffffffffffffffffffffffffffffffffffff82169050919050565b60006129f8826129cd565b9050919050565b612a08816129ed565b82525050565b600081519050919050565b600082825260208201905092915050565b60005b83811015612a48578082015181840152602081019050612a2d565b60008484015250505050565b6000601f19601f8301169050919050565b6000612a7082612a0e565b612a7a8185612a19565b9350612a8a818560208601612a2a565b612a9381612a54565b840191505092915050565b7f4e487b7100000000000000000000000000000000000000000000000000000000600052602160045260246000fd5b60048110612ade57612add612a9e565b5b50565b6000819050612aef82612acd565b919050565b6000612aff82612ae1565b9050919050565b612b0f81612af4565b82525050565b600061014083016000830151612b2e60008601826129ff565b506020830151612b41602086018261293e565b506040830151612b546040860182612961565b506060830151612b676060860182612961565b506080830151612b7a6080860182612961565b5060a083015184820360a0860152612b928282612a65565b91505060c083015184820360c0860152612bac8282612a65565b91505060e0830151612bc160e0860182612b06565b50610100830151848203610100860152612bdb8282612a65565b915050610120830151848203610120860152612bf78282612a65565b9150508091505092915050565b60006020820190508181036000830152612c1e8184612b15565b905092915050565b600080fd5b600080fd5b7f4e487b7100000000000000000000000000000000000000000000000000000000600052604160045260246000fd5b612c6882612a54565b810181811067ffffffffffffffff82111715612c8757612c86612c30565b5b80604052505050565b6000612c9a6128c7565b9050612ca68282612c5f565b919050565b600067ffffffffffffffff821115612cc657612cc5612c30565b5b612ccf82612a54565b9050602081019050919050565b82818337600083830152505050565b6000612cfe612cf984612cab565b612c90565b905082815260208101848484011115612d1a57612d19612c2b565b5b612d25848285612cdc565b509392505050565b600082601f830112612d4257612d41612c26565b5b8135612d52848260208601612ceb565b91505092915050565b600080600060608486031215612d7457612d736128d1565b5b6000612d82868287016128fc565b935050602084013567ffffffffffffffff811115612da357612da26128d6565b5b612daf86828701612d2d565b9250506040612dc0868287016128fc565b9150509250925092565b600067ffffffffffffffff821115612de557612de4612c30565b5b602082029050602081019050919050565b600080fd5b600080fd5b600080fd5b612e0e816129ed565b8114612e1957600080fd5b50565b600081359050612e2b81612e05565b92915050565b612e3a8161294d565b8114612e4557600080fd5b50565b600081359050612e5781612e31565b92915050565b600067ffffffffffffffff821115612e7857612e77612c30565b5b612e8182612a54565b9050602081019050919050565b6000612ea1612e9c84612e5d565b612c90565b905082815260208101848484011115612ebd57612ebc612c2b565b5b612ec8848285612cdc565b509392505050565b600082601f830112612ee557612ee4612c26565b5b8135612ef5848260208601612e8e565b91505092915050565b60048110612f0b57600080fd5b50565b600081359050612f1d81612efe565b92915050565b60006101408284031215612f3a57612f39612dfb565b5b612f45610140612c90565b90506000612f5584828501612e1c565b6000830152506020612f69848285016128fc565b6020830152506040612f7d84828501612e48565b6040830152506060612f9184828501612e48565b6060830152506080612fa584828501612e48565b60808301525060a082013567ffffffffffffffff811115612fc957612fc8612e00565b5b612fd584828501612ed0565b60a08301525060c082013567ffffffffffffffff811115612ff957612ff8612e00565b5b61300584828501612ed0565b60c08301525060e061301984828501612f0e565b60e08301525061010082013567ffffffffffffffff81111561303e5761303d612e00565b5b61304a84828501612ed0565b6101008301525061012082013567ffffffffffffffff8111156130705761306f612e00565b5b61307c84828501612ed0565b6101208301525092915050565b600061309c61309784612dca565b612c90565b905080838252602082019050602084028301858111156130bf576130be612df6565b5b835b8181101561310657803567ffffffffffffffff8111156130e4576130e3612c26565b5b8086016130f18982612f23565b855260208501945050506020810190506130c1565b5050509392505050565b600082601f83011261312557613124612c26565b5b8135613135848260208601613089565b91505092915050565b600060208284031215613154576131536128d1565b5b600082013567ffffffffffffffff811115613172576131716128d6565b5b61317e84828501613110565b91505092915050565b600081519050919050565b600082825260208201905092915050565b6000819050602082019050919050565b60006131bf838361293e565b60208301905092915050565b6000602082019050919050565b60006131e382613187565b6131ed8185613192565b93506131f8836131a3565b8060005b8381101561322957815161321088826131b3565b975061321b836131cb565b9250506001810190506131fc565b5085935050505092915050565b6000602082019050818103600083015261325081846131d8565b905092915050565b613261816129ed565b82525050565b600060208201905061327c6000830184613258565b92915050565b600067ffffffffffffffff82111561329d5761329c612c30565b5b602082029050602081019050919050565b60006132c16132bc84613282565b612c90565b905080838252602082019050602084028301858111156132e4576132e3612df6565b5b835b8181101561330d57806132f988826128fc565b8452602084019350506020810190506132e6565b5050509392505050565b600082601f83011261332c5761332b612c26565b5b813561333c8482602086016132ae565b91505092915050565b600067ffffffffffffffff8211156133605761335f612c30565b5b602082029050602081019050919050565b600061338461337f84613345565b612c90565b905080838252602082019050602084028301858111156133a7576133a6612df6565b5b835b818110156133ee57803567ffffffffffffffff8111156133cc576133cb612c26565b5b8086016133d98982612d2d565b855260208501945050506020810190506133a9565b5050509392505050565b600082601f83011261340d5761340c612c26565b5b813561341d848260208601613371565b91505092915050565b60008060006060848603121561343f5761343e6128d1565b5b600084013567ffffffffffffffff81111561345d5761345c6128d6565b5b61346986828701613317565b935050602084013567ffffffffffffffff81111561348a576134896128d6565b5b613496868287016133f8565b925050604084013567ffffffffffffffff8111156134b7576134b66128d6565b5b6134c386828701613317565b9150509250925092565b600080604083850312156134e4576134e36128d1565b5b60006134f2858286016128fc565b925050602061350385828601612e48565b9150509250929050565b600060208284031215613523576135226128d1565b5b600061353184828501612e1c565b91505092915050565b600060808201905081810360008301526135548185612b15565b90506135636020830184612970565b9392505050565b6000602082840312156135805761357f6128d1565b5b600082013567ffffffffffffffff81111561359e5761359d6128d6565b5b6135aa84828501612f23565b91505092915050565b6135bc816128db565b82525050565b60006020820190506135d760008301846135b3565b92915050565b6000602082840312156135f3576135f26128d1565b5b600082013567ffffffffffffffff811115613611576136106128d6565b5b61361d84828501613317565b91505092915050565b600081519050919050565b600082825260208201905092915050565b6000819050602082019050919050565b60006101408301600083015161366b60008601826129ff565b50602083015161367e602086018261293e565b5060408301516136916040860182612961565b5060608301516136a46060860182612961565b5060808301516136b76080860182612961565b5060a083015184820360a08601526136cf8282612a65565b91505060c083015184820360c08601526136e98282612a65565b91505060e08301516136fe60e0860182612b06565b506101008301518482036101008601526137188282612a65565b9150506101208301518482036101208601526137348282612a65565b9150508091505092915050565b600061374d8383613652565b905092915050565b6000602082019050919050565b600061376d82613626565b6137778185613631565b93508360208202850161378985613642565b8060005b858110156137c557848403895281516137a68582613741565b94506137b183613755565b925060208a0199505060018101905061378d565b50829750879550505050505092915050565b600060208201905081810360008301526137f18184613762565b905092915050565b60006020828403121561380f5761380e6128d1565b5b600082013567ffffffffffffffff81111561382d5761382c6128d6565b5b61383984828501612ed0565b91505092915050565b600067ffffffffffffffff82111561385d5761385c612c30565b5b602082029050602081019050919050565b600061388161387c84613842565b612c90565b905080838252602082019050602084028301858111156138a4576138a3612df6565b5b835b818110156138eb57803567ffffffffffffffff8111156138c9576138c8612c26565b5b8086016138d68982612ed0565b855260208501945050506020810190506138a6565b5050509392505050565b600082601f83011261390a57613909612c26565b5b813561391a84826020860161386e565b91505092915050565b600060208284031215613939576139386128d1565b5b600082013567ffffffffffffffff811115613957576139566128d6565b5b613963848285016138f5565b91505092915050565b6000819050919050565b61397f8161396c565b811461398a57600080fd5b50565b60008135905061399c81613976565b92915050565b6000806000606084860312156139bb576139ba6128d1565b5b60006139c9868287016128fc565b93505060206139da8682870161398d565b92505060406139eb8682870161398d565b9150509250925092565b600081519050919050565b600082825260208201905092915050565b6000819050602082019050919050565b600081519050919050565b600082825260208201905092915050565b6000613a4882613a21565b613a528185613a2c565b9350613a62818560208601612a2a565b613a6b81612a54565b840191505092915050565b6000613a828383613a3d565b905092915050565b6000602082019050919050565b6000613aa2826139f5565b613aac8185613a00565b935083602082028501613abe85613a11565b8060005b85811015613afa5784840389528151613adb8582613a76565b9450613ae683613a8a565b925060208a01995050600181019050613ac2565b50829750879550505050505092915050565b60006020820190508181036000830152613b268184613a97565b905092915050565b600082825260208201905092915050565b7f46696c652075706c6f6164206e6f742065786973747300000000000000000000600082015250565b6000613b75601683613b2e565b9150613b8082613b3f565b602082019050919050565b60006020820190508181036000830152613ba481613b68565b9050919050565b7f4e487b7100000000000000000000000000000000000000000000000000000000600052602260045260246000fd5b60006002820490506001821680613bf257607f821691505b602082108103613c0557613c04613bab565b5b50919050565b7f496e76616c6964206368756e6b2073697a650000000000000000000000000000600082015250565b6000613c41601283613b2e565b9150613c4c82613c0b565b602082019050919050565b60006020820190508181036000830152613c7081613c34565b9050919050565b7f43616c6c6572206973206e6f7420746865206f776e6572000000000000000000600082015250565b6000613cad601783613b2e565b9150613cb882613c77565b602082019050919050565b60006020820190508181036000830152613cdc81613ca0565b9050919050565b7f4e487b7100000000000000000000000000000000000000000000000000000000600052601160045260246000fd5b6000613d1d8261396c565b9150613d288361396c565b9250828201905080821115613d4057613d3f613ce3565b5b92915050565b7f4368756e6b20657863656564732066696c65206c656e67746800000000000000600082015250565b6000613d7c601983613b2e565b9150613d8782613d46565b602082019050919050565b60006020820190508181036000830152613dab81613d6f565b9050919050565b7f46696c65206973206e6f74206265696e672070726f6365737365640000000000600082015250565b6000613de8601b83613b2e565b9150613df382613db2565b602082019050919050565b60006020820190508181036000830152613e1781613ddb565b9050919050565b6000819050919050565b613e39613e34826128db565b613e1e565b82525050565b600081905092915050565b6000613e5582613a21565b613e5f8185613e3f565b9350613e6f818560208601612a2a565b80840191505092915050565b6000613e878285613e28565b602082019150613e978284613e4a565b91508190509392505050565b7f4368756e6b2068617368206d69736d6174636800000000000000000000000000600082015250565b6000613ed9601383613b2e565b9150613ee482613ea3565b602082019050919050565b60006020820190508181036000830152613f0881613ecc565b9050919050565b60008190508160005260206000209050919050565b60006020601f8301049050919050565b600082821b905092915050565b600060088302613f717fffffffffffffffffffffffffffffffffffffffffffffffffffffffffffffffff82613f34565b613f7b8683613f34565b95508019841693508086168417925050509392505050565b6000819050919050565b6000613fb8613fb3613fae8461396c565b613f93565b61396c565b9050919050565b6000819050919050565b613fd283613f9d565b613fe6613fde82613fbf565b848454613f41565b825550505050565b600090565b613ffb613fee565b614006818484613fc9565b505050565b5b8181101561402a5761401f600082613ff3565b60018101905061400c565b5050565b601f82111561406f5761404081613f0f565b61404984613f24565b81016020851015614058578190505b61406c61406485613f24565b83018261400b565b50505b505050565b600082821c905092915050565b600061409260001984600802614074565b1980831691505092915050565b60006140ab8383614081565b9150826002028217905092915050565b6140c482613a21565b67ffffffffffffffff8111156140dd576140dc612c30565b5b6140e78254613bda565b6140f282828561402e565b600060209050601f8311600181146141255760008415614113578287015190505b61411d858261409f565b865550614185565b601f19841661413386613f0f565b60005b8281101561415b57848901518255600182019150602085019450602081019050614136565b868310156141785784890151614174601f891682614081565b8355505b6001600288020188555050505b505050505050565b60006141988261294d565b915067ffffffffffffffff82036141b2576141b1613ce3565b5b600182019050919050565b60006141c88261294d565b91506141d38361294d565b9250828201905067ffffffffffffffff8111156141f3576141f2613ce3565b5b92915050565b60006142048261294d565b915061420f8361294d565b9250828203905067ffffffffffffffff81111561422f5761422e613ce3565b5b92915050565b600061425061424b6142468461294d565b613f93565b61396c565b9050919050565b61426081614235565b82525050565b600060208201905061427b6000830184614257565b92915050565b7f46696c6520616c72656164792064656c65746564000000000000000000000000600082015250565b60006142b7601483613b2e565b91506142c282614281565b602082019050919050565b600060208201905081810360008301526142e6816142aa565b9050919050565b60006142f88261396c565b91507fffffffffffffffffffffffffffffffffffffffffffffffffffffffffffffffff820361432a57614329613ce3565b5b600182019050919050565b7f4e487b7100000000000000000000000000000000000000000000000000000000600052603260045260246000fd5b7f6c656e677468206172726179732073686f756c6420626520657175616c000000600082015250565b600061439a601d83613b2e565b91506143a582614364565b602082019050919050565b600060208201905081810360008301526143c98161438d565b9050919050565b7f46696c6520686173206265656e2064656c657465640000000000000000000000600082015250565b6000614406601583613b2e565b9150614411826143d0565b602082019050919050565b60006020820190508181036000830152614435816143f9565b9050919050565b7f4e6577206578706972652074696d65206d757374206265206174206c6561737460008201527f20312064617920696e2074686520667574757265000000000000000000000000602082015250565b6000614498603483613b2e565b91506144a38261443c565b604082019050919050565b600060208201905081810360008301526144c78161448b565b9050919050565b7f46696c65206973206e6f74206163746976650000000000000000000000000000600082015250565b6000614504601283613b2e565b915061450f826144ce565b602082019050919050565b60006020820190508181036000830152614533816144f7565b9050919050565b7f46696c6520686173206578706972656400000000000000000000000000000000600082015250565b6000614570601083613b2e565b915061457b8261453a565b602082019050919050565b6000602082019050818103600083015261459f81614563565b9050919050565b7f4578706972652074696d65206d757374206265206174206c656173742031206460008201527f617920696e207468652066757475726500000000000000000000000000000000602082015250565b6000614602603083613b2e565b915061460d826145a6565b604082019050919050565b60006020820190508181036000830152614631816145f5565b9050919050565b60008160c01b9050919050565b600061465082614638565b9050919050565b6146686146638261294d565b614645565b82525050565b600081905092915050565b600061468482612a0e565b61468e818561466e565b935061469e818560208601612a2a565b80840191505092915050565b6000819050919050565b6146c56146c08261396c565b6146aa565b82525050565b60006146d78289614657565b6008820191506146e78288614657565b6008820191506146f78287613e28565b6020820191506147078286614679565b91506147138285614679565b915061471f82846146b4565b602082019150819050979650505050505050565b600061473f8284614679565b915081905092915050565b7f46696c6520616c72656164792065786973747300000000000000000000000000600082015250565b6000614780601383613b2e565b915061478b8261474a565b602082019050919050565b600060208201905081810360008301526147af81614773565b9050919050565b60008190508160005260206000209050919050565b601f82111561480c576147dd816147b6565b6147e684613f24565b810160208510156147f5578190505b61480961480185613f24565b83018261400b565b50505b505050565b61481a82612a0e565b67ffffffffffffffff81111561483357614832612c30565b5b61483d8254613bda565b6148488282856147cb565b600060209050601f83116001811461487b5760008415614869578287015190505b614873858261409f565b8655506148db565b601f198416614889866147b6565b60005b828110156148b15784890151825560018201915060208501945060208101905061488c565b868310156148ce57848901516148ca601f891682614081565b8355505b6001600288020188555050505b505050505050565b60006148ee82612a0e565b6148f88185613b2e565b9350614908818560208601612a2a565b61491181612a54565b840191505092915050565b6149258161294d565b82525050565b6000604082019050818103600083015261494581856148e3565b9050614954602083018461491c565b9392505050565b7f46696c652075706c6f6164206e6f742061637469766564000000000000000000600082015250565b6000614991601783613b2e565b915061499c8261495b565b602082019050919050565b600060208201905081810360008301526149c081614984565b9050919050565b7f46696c6520646f6573206e6f7420657869737400000000000000000000000000600082015250565b60006149fd601383613b2e565b9150614a08826149c7565b602082019050919050565b60006020820190508181036000830152614a2c816149f0565b9050919050565b7f537461727420696e646578206f7574206f662072616e67650000000000000000600082015250565b6000614a69601883613b2e565b9150614a7482614a33565b602082019050919050565b60006020820190508181036000830152614a9881614a5c565b9050919050565b7f4c696d6974206d7573742062652067726561746572207468616e207a65726f00600082015250565b6000614ad5601f83613b2e565b9150614ae082614a9f565b602082019050919050565b60006020820190508181036000830152614b0481614ac8565b9050919050565b6000614b168261396c565b9150614b218361396c565b9250828203905081811115614b3957614b38613ce3565b5b9291505056fea26469706673582212204c83d4a2e1b5987532c43cefcf7b8e67ccb8225b3449255ec0792f6559a8533464736f6c63430008130033",
					"opcodes": "PUSH1 0x80 PUSH1 0x40 MSTORE CALLER PUSH1 0x3 PUSH1 0x0 PUSH2 0x100 EXP DUP2 SLOAD DUP2 PUSH20 0xFFFFFFFFFFFFFFFFFFFFFFFFFFFFFFFFFFFFFFFF MUL NOT AND SWAP1 DUP4 PUSH20 0xFFFFFFFFFFFFFFFFFFFFFFFFFFFFFFFFFFFFFFFF AND MUL OR SWAP1 SSTORE POP PUSH2 0x4B75 DUP1 PUSH2 0x54 PUSH1 0x0 CODECOPY PUSH1 0x0 RETURN INVALID PUSH1 0x80 PUSH1 0x40 MSTORE CALLVALUE DUP1 ISZERO PUSH2 0x10 JUMPI PUSH1 0x0 DUP1 REVERT JUMPDEST POP PUSH1 0x4 CALLDATASIZE LT PUSH2 0x10B JUMPI PUSH1 0x0 CALLDATALOAD PUSH1 0xE0 SHR DUP1 PUSH4 0x9B26B2A8 GT PUSH2 0xA2 JUMPI DUP1 PUSH4 0xD598D4C9 GT PUSH2 0x71 JUMPI DUP1 PUSH4 0xD598D4C9 EQ PUSH2 0x2C7 JUMPI DUP1 PUSH4 0xEB070E7E EQ PUSH2 0x2E5 JUMPI DUP1 PUSH4 0xEDFF13AF EQ PUSH2 0x315 JUMPI DUP1 PUSH4 0xF25671C4 EQ PUSH2 0x345 JUMPI DUP1 PUSH4 0xFAB91940 EQ PUSH2 0x375 JUMPI PUSH2 0x10B JUMP JUMPDEST DUP1 PUSH4 0x9B26B2A8 EQ PUSH2 0x22E JUMPI DUP1 PUSH4 0xBF8BDAC1 EQ PUSH2 0x24A JUMPI DUP1 PUSH4 0xC652793D EQ PUSH2 0x266 JUMPI DUP1 PUSH4 0xCA7E3CD4 EQ PUSH2 0x297 JUMPI PUSH2 0x10B JUMP JUMPDEST DUP1 PUSH4 0x6E0C19B1 GT PUSH2 0xDE JUMPI DUP1 PUSH4 0x6E0C19B1 EQ PUSH2 0x1A8 JUMPI DUP1 PUSH4 0x8DA5CB5B EQ PUSH2 0x1D8 JUMPI DUP1 PUSH4 0x8F73088D EQ PUSH2 0x1F6 JUMPI DUP1 PUSH4 0x91C03370 EQ PUSH2 0x212 JUMPI PUSH2 0x10B JUMP JUMPDEST DUP1 PUSH4 0x46DA5178 EQ PUSH2 0x110 JUMPI DUP1 PUSH4 0x52F7347B EQ PUSH2 0x140 JUMPI DUP1 PUSH4 0x5F95C07B EQ PUSH2 0x170 JUMPI DUP1 PUSH4 0x6AB799F1 EQ PUSH2 0x18C JUMPI JUMPDEST PUSH1 0x0 DUP1 REVERT JUMPDEST PUSH2 0x12A PUSH1 0x4 DUP1 CALLDATASIZE SUB DUP2 ADD SWAP1 PUSH2 0x125 SWAP2 SWAP1 PUSH2 0x2911 JUMP JUMPDEST PUSH2 0x3A5 JUMP JUMPDEST PUSH1 0x40 MLOAD PUSH2 0x137 SWAP2 SWAP1 PUSH2 0x29B2 JUMP JUMPDEST PUSH1 0x40 MLOAD DUP1 SWAP2 SUB SWAP1 RETURN JUMPDEST PUSH2 0x15A PUSH1 0x4 DUP1 CALLDATASIZE SUB DUP2 ADD SWAP1 PUSH2 0x155 SWAP2 SWAP1 PUSH2 0x2911 JUMP JUMPDEST PUSH2 0x4D4 JUMP JUMPDEST PUSH1 0x40 MLOAD PUSH2 0x167 SWAP2 SWAP1 PUSH2 0x2C04 JUMP JUMPDEST PUSH1 0x40 MLOAD DUP1 SWAP2 SUB SWAP1 RETURN JUMPDEST PUSH2 0x18A PUSH1 0x4 DUP1 CALLDATASIZE SUB DUP2 ADD SWAP1 PUSH2 0x185 SWAP2 SWAP1 PUSH2 0x2D5B JUMP JUMPDEST PUSH2 0x87D JUMP JUMPDEST STOP JUMPDEST PUSH2 0x1A6 PUSH1 0x4 DUP1 CALLDATASIZE SUB DUP2 ADD SWAP1 PUSH2 0x1A1 SWAP2 SWAP1 PUSH2 0x2911 JUMP JUMPDEST PUSH2 0xD7E JUMP JUMPDEST STOP JUMPDEST PUSH2 0x1C2 PUSH1 0x4 DUP1 CALLDATASIZE SUB DUP2 ADD SWAP1 PUSH2 0x1BD SWAP2 SWAP1 PUSH2 0x313E JUMP JUMPDEST PUSH2 0xFAE JUMP JUMPDEST PUSH1 0x40 MLOAD PUSH2 0x1CF SWAP2 SWAP1 PUSH2 0x3236 JUMP JUMPDEST PUSH1 0x40 MLOAD DUP1 SWAP2 SUB SWAP1 RETURN JUMPDEST PUSH2 0x1E0 PUSH2 0x1069 JUMP JUMPDEST PUSH1 0x40 MLOAD PUSH2 0x1ED SWAP2 SWAP1 PUSH2 0x3267 JUMP JUMPDEST PUSH1 0x40 MLOAD DUP1 SWAP2 SUB SWAP1 RETURN JUMPDEST PUSH2 0x210 PUSH1 0x4 DUP1 CALLDATASIZE SUB DUP2 ADD SWAP1 PUSH2 0x20B SWAP2 SWAP1 PUSH2 0x3426 JUMP JUMPDEST PUSH2 0x108F JUMP JUMPDEST STOP JUMPDEST PUSH2 0x22C PUSH1 0x4 DUP1 CALLDATASIZE SUB DUP2 ADD SWAP1 PUSH2 0x227 SWAP2 SWAP1 PUSH2 0x34CD JUMP JUMPDEST PUSH2 0x115E JUMP JUMPDEST STOP JUMPDEST PUSH2 0x248 PUSH1 0x4 DUP1 CALLDATASIZE SUB DUP2 ADD SWAP1 PUSH2 0x243 SWAP2 SWAP1 PUSH2 0x2911 JUMP JUMPDEST PUSH2 0x1310 JUMP JUMPDEST STOP JUMPDEST PUSH2 0x264 PUSH1 0x4 DUP1 CALLDATASIZE SUB DUP2 ADD SWAP1 PUSH2 0x25F SWAP2 SWAP1 PUSH2 0x350D JUMP JUMPDEST PUSH2 0x14FF JUMP JUMPDEST STOP JUMPDEST PUSH2 0x280 PUSH1 0x4 DUP1 CALLDATASIZE SUB DUP2 ADD SWAP1 PUSH2 0x27B SWAP2 SWAP1 PUSH2 0x2911 JUMP JUMPDEST PUSH2 0x15D3 JUMP JUMPDEST PUSH1 0x40 MLOAD PUSH2 0x28E SWAP3 SWAP2 SWAP1 PUSH2 0x353A JUMP JUMPDEST PUSH1 0x40 MLOAD DUP1 SWAP2 SUB SWAP1 RETURN JUMPDEST PUSH2 0x2B1 PUSH1 0x4 DUP1 CALLDATASIZE SUB DUP2 ADD SWAP1 PUSH2 0x2AC SWAP2 SWAP1 PUSH2 0x356A JUMP JUMPDEST PUSH2 0x19F3 JUMP JUMPDEST PUSH1 0x40 MLOAD PUSH2 0x2BE SWAP2 SWAP1 PUSH2 0x35C2 JUMP JUMPDEST PUSH1 0x40 MLOAD DUP1 SWAP2 SUB SWAP1 RETURN JUMPDEST PUSH2 0x2CF PUSH2 0x1E48 JUMP JUMPDEST PUSH1 0x40 MLOAD PUSH2 0x2DC SWAP2 SWAP1 PUSH2 0x3267 JUMP JUMPDEST PUSH1 0x40 MLOAD DUP1 SWAP2 SUB SWAP1 RETURN JUMPDEST PUSH2 0x2FF PUSH1 0x4 DUP1 CALLDATASIZE SUB DUP2 ADD SWAP1 PUSH2 0x2FA SWAP2 SWAP1 PUSH2 0x35DD JUMP JUMPDEST PUSH2 0x1E6E JUMP JUMPDEST PUSH1 0x40 MLOAD PUSH2 0x30C SWAP2 SWAP1 PUSH2 0x37D7 JUMP JUMPDEST PUSH1 0x40 MLOAD DUP1 SWAP2 SUB SWAP1 RETURN JUMPDEST PUSH2 0x32F PUSH1 0x4 DUP1 CALLDATASIZE SUB DUP2 ADD SWAP1 PUSH2 0x32A SWAP2 SWAP1 PUSH2 0x37F9 JUMP JUMPDEST PUSH2 0x22C4 JUMP JUMPDEST PUSH1 0x40 MLOAD PUSH2 0x33C SWAP2 SWAP1 PUSH2 0x35C2 JUMP JUMPDEST PUSH1 0x40 MLOAD DUP1 SWAP2 SUB SWAP1 RETURN JUMPDEST PUSH2 0x35F PUSH1 0x4 DUP1 CALLDATASIZE SUB DUP2 ADD SWAP1 PUSH2 0x35A SWAP2 SWAP1 PUSH2 0x3923 JUMP JUMPDEST PUSH2 0x22F2 JUMP JUMPDEST PUSH1 0x40 MLOAD PUSH2 0x36C SWAP2 SWAP1 PUSH2 0x3236 JUMP JUMPDEST PUSH1 0x40 MLOAD DUP1 SWAP2 SUB SWAP1 RETURN JUMPDEST PUSH2 0x38F PUSH1 0x4 DUP1 CALLDATASIZE SUB DUP2 ADD SWAP1 PUSH2 0x38A SWAP2 SWAP1 PUSH2 0x39A2 JUMP JUMPDEST PUSH2 0x23C3 JUMP JUMPDEST PUSH1 0x40 MLOAD PUSH2 0x39C SWAP2 SWAP1 PUSH2 0x3B0C JUMP JUMPDEST PUSH1 0x40 MLOAD DUP1 SWAP2 SUB SWAP1 RETURN JUMPDEST PUSH2 0x3AD PUSH2 0x2796 JUMP JUMPDEST PUSH1 0x0 DUP1 PUSH1 0x0 DUP5 DUP2 MSTORE PUSH1 0x20 ADD SWAP1 DUP2 MSTORE PUSH1 0x20 ADD PUSH1 0x0 KECCAK256 SWAP1 POP PUSH1 0x0 PUSH1 0x3 DUP2 GT ISZERO PUSH2 0x3D7 JUMPI PUSH2 0x3D6 PUSH2 0x2A9E JUMP JUMPDEST JUMPDEST DUP2 PUSH1 0x0 ADD PUSH1 0x5 ADD PUSH1 0x0 SWAP1 SLOAD SWAP1 PUSH2 0x100 EXP SWAP1 DIV PUSH1 0xFF AND PUSH1 0x3 DUP2 GT ISZERO PUSH2 0x3FE JUMPI PUSH2 0x3FD PUSH2 0x2A9E JUMP JUMPDEST JUMPDEST EQ PUSH2 0x43E JUMPI PUSH1 0x40 MLOAD PUSH32 0x8C379A000000000000000000000000000000000000000000000000000000000 DUP2 MSTORE PUSH1 0x4 ADD PUSH2 0x435 SWAP1 PUSH2 0x3B8B JUMP JUMPDEST PUSH1 0x40 MLOAD DUP1 SWAP2 SUB SWAP1 REVERT JUMPDEST PUSH1 0x0 DUP1 DUP5 DUP2 MSTORE PUSH1 0x20 ADD SWAP1 DUP2 MSTORE PUSH1 0x20 ADD PUSH1 0x0 KECCAK256 PUSH1 0x8 ADD PUSH1 0x40 MLOAD DUP1 PUSH1 0x60 ADD PUSH1 0x40 MSTORE SWAP1 DUP2 PUSH1 0x0 DUP3 ADD SLOAD DUP2 MSTORE PUSH1 0x20 ADD PUSH1 0x1 DUP3 ADD PUSH1 0x0 SWAP1 SLOAD SWAP1 PUSH2 0x100 EXP SWAP1 DIV PUSH8 0xFFFFFFFFFFFFFFFF AND PUSH8 0xFFFFFFFFFFFFFFFF AND PUSH8 0xFFFFFFFFFFFFFFFF AND DUP2 MSTORE PUSH1 0x20 ADD PUSH1 0x1 DUP3 ADD PUSH1 0x8 SWAP1 SLOAD SWAP1 PUSH2 0x100 EXP SWAP1 DIV PUSH8 0xFFFFFFFFFFFFFFFF AND PUSH8 0xFFFFFFFFFFFFFFFF AND PUSH8 0xFFFFFFFFFFFFFFFF AND DUP2 MSTORE POP POP SWAP2 POP POP SWAP2 SWAP1 POP JUMP JUMPDEST PUSH2 0x4DC PUSH2 0x27CE JUMP JUMPDEST PUSH1 0x0 DUP1 DUP4 DUP2 MSTORE PUSH1 0x20 ADD SWAP1 DUP2 MSTORE PUSH1 0x20 ADD PUSH1 0x0 KECCAK256 PUSH1 0x0 ADD PUSH1 0x40 MLOAD DUP1 PUSH2 0x140 ADD PUSH1 0x40 MSTORE SWAP1 DUP2 PUSH1 0x0 DUP3 ADD PUSH1 0x0 SWAP1 SLOAD SWAP1 PUSH2 0x100 EXP SWAP1 DIV PUSH20 0xFFFFFFFFFFFFFFFFFFFFFFFFFFFFFFFFFFFFFFFF AND PUSH20 0xFFFFFFFFFFFFFFFFFFFFFFFFFFFFFFFFFFFFFFFF AND PUSH20 0xFFFFFFFFFFFFFFFFFFFFFFFFFFFFFFFFFFFFFFFF AND DUP2 MSTORE PUSH1 0x20 ADD PUSH1 0x1 DUP3 ADD SLOAD DUP2 MSTORE PUSH1 0x20 ADD PUSH1 0x2 DUP3 ADD PUSH1 0x0 SWAP1 SLOAD SWAP1 PUSH2 0x100 EXP SWAP1 DIV PUSH8 0xFFFFFFFFFFFFFFFF AND PUSH8 0xFFFFFFFFFFFFFFFF AND PUSH8 0xFFFFFFFFFFFFFFFF AND DUP2 MSTORE PUSH1 0x20 ADD PUSH1 0x2 DUP3 ADD PUSH1 0x8 SWAP1 SLOAD SWAP1 PUSH2 0x100 EXP SWAP1 DIV PUSH8 0xFFFFFFFFFFFFFFFF AND PUSH8 0xFFFFFFFFFFFFFFFF AND PUSH8 0xFFFFFFFFFFFFFFFF AND DUP2 MSTORE PUSH1 0x20 ADD PUSH1 0x2 DUP3 ADD PUSH1 0x10 SWAP1 SLOAD SWAP1 PUSH2 0x100 EXP SWAP1 DIV PUSH8 0xFFFFFFFFFFFFFFFF AND PUSH8 0xFFFFFFFFFFFFFFFF AND PUSH8 0xFFFFFFFFFFFFFFFF AND DUP2 MSTORE PUSH1 0x20 ADD PUSH1 0x3 DUP3 ADD DUP1 SLOAD PUSH2 0x603 SWAP1 PUSH2 0x3BDA JUMP JUMPDEST DUP1 PUSH1 0x1F ADD PUSH1 0x20 DUP1 SWAP2 DIV MUL PUSH1 0x20 ADD PUSH1 0x40 MLOAD SWAP1 DUP2 ADD PUSH1 0x40 MSTORE DUP1 SWAP3 SWAP2 SWAP1 DUP2 DUP2 MSTORE PUSH1 0x20 ADD DUP3 DUP1 SLOAD PUSH2 0x62F SWAP1 PUSH2 0x3BDA JUMP JUMPDEST DUP1 ISZERO PUSH2 0x67C JUMPI DUP1 PUSH1 0x1F LT PUSH2 0x651 JUMPI PUSH2 0x100 DUP1 DUP4 SLOAD DIV MUL DUP4 MSTORE SWAP2 PUSH1 0x20 ADD SWAP2 PUSH2 0x67C JUMP JUMPDEST DUP3 ADD SWAP2 SWAP1 PUSH1 0x0 MSTORE PUSH1 0x20 PUSH1 0x0 KECCAK256 SWAP1 JUMPDEST DUP2 SLOAD DUP2 MSTORE SWAP1 PUSH1 0x1 ADD SWAP1 PUSH1 0x20 ADD DUP1 DUP4 GT PUSH2 0x65F JUMPI DUP3 SWAP1 SUB PUSH1 0x1F AND DUP3 ADD SWAP2 JUMPDEST POP POP POP POP POP DUP2 MSTORE PUSH1 0x20 ADD PUSH1 0x4 DUP3 ADD DUP1 SLOAD PUSH2 0x695 SWAP1 PUSH2 0x3BDA JUMP JUMPDEST DUP1 PUSH1 0x1F ADD PUSH1 0x20 DUP1 SWAP2 DIV MUL PUSH1 0x20 ADD PUSH1 0x40 MLOAD SWAP1 DUP2 ADD PUSH1 0x40 MSTORE DUP1 SWAP3 SWAP2 SWAP1 DUP2 DUP2 MSTORE PUSH1 0x20 ADD DUP3 DUP1 SLOAD PUSH2 0x6C1 SWAP1 PUSH2 0x3BDA JUMP JUMPDEST DUP1 ISZERO PUSH2 0x70E JUMPI DUP1 PUSH1 0x1F LT PUSH2 0x6E3 JUMPI PUSH2 0x100 DUP1 DUP4 SLOAD DIV MUL DUP4 MSTORE SWAP2 PUSH1 0x20 ADD SWAP2 PUSH2 0x70E JUMP JUMPDEST DUP3 ADD SWAP2 SWAP1 PUSH1 0x0 MSTORE PUSH1 0x20 PUSH1 0x0 KECCAK256 SWAP1 JUMPDEST DUP2 SLOAD DUP2 MSTORE SWAP1 PUSH1 0x1 ADD SWAP1 PUSH1 0x20 ADD DUP1 DUP4 GT PUSH2 0x6F1 JUMPI DUP3 SWAP1 SUB PUSH1 0x1F AND DUP3 ADD SWAP2 JUMPDEST POP POP POP POP POP DUP2 MSTORE PUSH1 0x20 ADD PUSH1 0x5 DUP3 ADD PUSH1 0x0 SWAP1 SLOAD SWAP1 PUSH2 0x100 EXP SWAP1 DIV PUSH1 0xFF AND PUSH1 0x3 DUP2 GT ISZERO PUSH2 0x73C JUMPI PUSH2 0x73B PUSH2 0x2A9E JUMP JUMPDEST JUMPDEST PUSH1 0x3 DUP2 GT ISZERO PUSH2 0x74E JUMPI PUSH2 0x74D PUSH2 0x2A9E JUMP JUMPDEST JUMPDEST DUP2 MSTORE PUSH1 0x20 ADD PUSH1 0x6 DUP3 ADD DUP1 SLOAD PUSH2 0x762 SWAP1 PUSH2 0x3BDA JUMP JUMPDEST DUP1 PUSH1 0x1F ADD PUSH1 0x20 DUP1 SWAP2 DIV MUL PUSH1 0x20 ADD PUSH1 0x40 MLOAD SWAP1 DUP2 ADD PUSH1 0x40 MSTORE DUP1 SWAP3 SWAP2 SWAP1 DUP2 DUP2 MSTORE PUSH1 0x20 ADD DUP3 DUP1 SLOAD PUSH2 0x78E SWAP1 PUSH2 0x3BDA JUMP JUMPDEST DUP1 ISZERO PUSH2 0x7DB JUMPI DUP1 PUSH1 0x1F LT PUSH2 0x7B0 JUMPI PUSH2 0x100 DUP1 DUP4 SLOAD DIV MUL DUP4 MSTORE SWAP2 PUSH1 0x20 ADD SWAP2 PUSH2 0x7DB JUMP JUMPDEST DUP3 ADD SWAP2 SWAP1 PUSH1 0x0 MSTORE PUSH1 0x20 PUSH1 0x0 KECCAK256 SWAP1 JUMPDEST DUP2 SLOAD DUP2 MSTORE SWAP1 PUSH1 0x1 ADD SWAP1 PUSH1 0x20 ADD DUP1 DUP4 GT PUSH2 0x7BE JUMPI DUP3 SWAP1 SUB PUSH1 0x1F AND DUP3 ADD SWAP2 JUMPDEST POP POP POP POP POP DUP2 MSTORE PUSH1 0x20 ADD PUSH1 0x7 DUP3 ADD DUP1 SLOAD PUSH2 0x7F4 SWAP1 PUSH2 0x3BDA JUMP JUMPDEST DUP1 PUSH1 0x1F ADD PUSH1 0x20 DUP1 SWAP2 DIV MUL PUSH1 0x20 ADD PUSH1 0x40 MLOAD SWAP1 DUP2 ADD PUSH1 0x40 MSTORE DUP1 SWAP3 SWAP2 SWAP1 DUP2 DUP2 MSTORE PUSH1 0x20 ADD DUP3 DUP1 SLOAD PUSH2 0x820 SWAP1 PUSH2 0x3BDA JUMP JUMPDEST DUP1 ISZERO PUSH2 0x86D JUMPI DUP1 PUSH1 0x1F LT PUSH2 0x842 JUMPI PUSH2 0x100 DUP1 DUP4 SLOAD DIV MUL DUP4 MSTORE SWAP2 PUSH1 0x20 ADD SWAP2 PUSH2 0x86D JUMP JUMPDEST DUP3 ADD SWAP2 SWAP1 PUSH1 0x0 MSTORE PUSH1 0x20 PUSH1 0x0 KECCAK256 SWAP1 JUMPDEST DUP2 SLOAD DUP2 MSTORE SWAP1 PUSH1 0x1 ADD SWAP1 PUSH1 0x20 ADD DUP1 DUP4 GT PUSH2 0x850 JUMPI DUP3 SWAP1 SUB PUSH1 0x1F AND DUP3 ADD SWAP2 JUMPDEST POP POP POP POP POP DUP2 MSTORE POP POP SWAP1 POP SWAP2 SWAP1 POP JUMP JUMPDEST PUSH1 0x0 DUP3 MLOAD GT DUP1 ISZERO PUSH2 0x891 JUMPI POP PUSH2 0x2800 DUP3 MLOAD GT ISZERO JUMPDEST PUSH2 0x8D0 JUMPI PUSH1 0x40 MLOAD PUSH32 0x8C379A000000000000000000000000000000000000000000000000000000000 DUP2 MSTORE PUSH1 0x4 ADD PUSH2 0x8C7 SWAP1 PUSH2 0x3C57 JUMP JUMPDEST PUSH1 0x40 MLOAD DUP1 SWAP2 SUB SWAP1 REVERT JUMPDEST PUSH1 0x0 DUP1 PUSH1 0x0 DUP6 DUP2 MSTORE PUSH1 0x20 ADD SWAP1 DUP2 MSTORE PUSH1 0x20 ADD PUSH1 0x0 KECCAK256 SWAP1 POP CALLER PUSH20 0xFFFFFFFFFFFFFFFFFFFFFFFFFFFFFFFFFFFFFFFF AND DUP2 PUSH1 0x0 ADD PUSH1 0x0 ADD PUSH1 0x0 SWAP1 SLOAD SWAP1 PUSH2 0x100 EXP SWAP1 DIV PUSH20 0xFFFFFFFFFFFFFFFFFFFFFFFFFFFFFFFFFFFFFFFF AND PUSH20 0xFFFFFFFFFFFFFFFFFFFFFFFFFFFFFFFFFFFFFFFF AND EQ PUSH2 0x97B JUMPI PUSH1 0x40 MLOAD PUSH32 0x8C379A000000000000000000000000000000000000000000000000000000000 DUP2 MSTORE PUSH1 0x4 ADD PUSH2 0x972 SWAP1 PUSH2 0x3CC3 JUMP JUMPDEST PUSH1 0x40 MLOAD DUP1 SWAP2 SUB SWAP1 REVERT JUMPDEST DUP1 PUSH1 0x0 ADD PUSH1 0x2 ADD PUSH1 0x0 SWAP1 SLOAD SWAP1 PUSH2 0x100 EXP SWAP1 DIV PUSH8 0xFFFFFFFFFFFFFFFF AND PUSH8 0xFFFFFFFFFFFFFFFF AND DUP4 MLOAD DUP3 PUSH1 0x8 ADD PUSH1 0x1 ADD PUSH1 0x8 SWAP1 SLOAD SWAP1 PUSH2 0x100 EXP SWAP1 DIV PUSH8 0xFFFFFFFFFFFFFFFF AND PUSH8 0xFFFFFFFFFFFFFFFF AND PUSH2 0x9D3 SWAP2 SWAP1 PUSH2 0x3D12 JUMP JUMPDEST GT ISZERO PUSH2 0xA14 JUMPI PUSH1 0x40 MLOAD PUSH32 0x8C379A000000000000000000000000000000000000000000000000000000000 DUP2 MSTORE PUSH1 0x4 ADD PUSH2 0xA0B SWAP1 PUSH2 0x3D92 JUMP JUMPDEST PUSH1 0x40 MLOAD DUP1 SWAP2 SUB SWAP1 REVERT JUMPDEST PUSH1 0x0 PUSH1 0x3 DUP2 GT ISZERO PUSH2 0xA28 JUMPI PUSH2 0xA27 PUSH2 0x2A9E JUMP JUMPDEST JUMPDEST DUP2 PUSH1 0x0 ADD PUSH1 0x5 ADD PUSH1 0x0 SWAP1 SLOAD SWAP1 PUSH2 0x100 EXP SWAP1 DIV PUSH1 0xFF AND PUSH1 0x3 DUP2 GT ISZERO PUSH2 0xA4F JUMPI PUSH2 0xA4E PUSH2 0x2A9E JUMP JUMPDEST JUMPDEST EQ PUSH2 0xA8F JUMPI PUSH1 0x40 MLOAD PUSH32 0x8C379A000000000000000000000000000000000000000000000000000000000 DUP2 MSTORE PUSH1 0x4 ADD PUSH2 0xA86 SWAP1 PUSH2 0x3DFE JUMP JUMPDEST PUSH1 0x40 MLOAD DUP1 SWAP2 SUB SWAP1 REVERT JUMPDEST PUSH1 0x0 DUP2 PUSH1 0x8 ADD PUSH1 0x0 ADD SLOAD DUP5 PUSH1 0x40 MLOAD PUSH1 0x20 ADD PUSH2 0xAAB SWAP3 SWAP2 SWAP1 PUSH2 0x3E7B JUMP JUMPDEST PUSH1 0x40 MLOAD PUSH1 0x20 DUP2 DUP4 SUB SUB DUP2 MSTORE SWAP1 PUSH1 0x40 MSTORE DUP1 MLOAD SWAP1 PUSH1 0x20 ADD KECCAK256 SWAP1 POP DUP3 DUP2 EQ PUSH2 0xB05 JUMPI PUSH1 0x40 MLOAD PUSH32 0x8C379A000000000000000000000000000000000000000000000000000000000 DUP2 MSTORE PUSH1 0x4 ADD PUSH2 0xAFC SWAP1 PUSH2 0x3EEF JUMP JUMPDEST PUSH1 0x40 MLOAD DUP1 SWAP2 SUB SWAP1 REVERT JUMPDEST DUP1 DUP3 PUSH1 0x8 ADD PUSH1 0x0 ADD DUP2 SWAP1 SSTORE POP DUP4 DUP3 PUSH1 0xA ADD PUSH1 0x0 DUP5 PUSH1 0x8 ADD PUSH1 0x1 ADD PUSH1 0x0 SWAP1 SLOAD SWAP1 PUSH2 0x100 EXP SWAP1 DIV PUSH8 0xFFFFFFFFFFFFFFFF AND PUSH8 0xFFFFFFFFFFFFFFFF AND DUP2 MSTORE PUSH1 0x20 ADD SWAP1 DUP2 MSTORE PUSH1 0x20 ADD PUSH1 0x0 KECCAK256 SWAP1 DUP2 PUSH2 0xB58 SWAP2 SWAP1 PUSH2 0x40BB JUMP JUMPDEST POP DUP2 PUSH1 0x8 ADD PUSH1 0x1 ADD PUSH1 0x0 DUP2 DUP2 SWAP1 SLOAD SWAP1 PUSH2 0x100 EXP SWAP1 DIV PUSH8 0xFFFFFFFFFFFFFFFF AND DUP1 SWAP3 SWAP2 SWAP1 PUSH2 0xB84 SWAP1 PUSH2 0x418D JUMP JUMPDEST SWAP2 SWAP1 PUSH2 0x100 EXP DUP2 SLOAD DUP2 PUSH8 0xFFFFFFFFFFFFFFFF MUL NOT AND SWAP1 DUP4 PUSH8 0xFFFFFFFFFFFFFFFF AND MUL OR SWAP1 SSTORE POP POP DUP4 MLOAD DUP3 PUSH1 0x8 ADD PUSH1 0x1 ADD PUSH1 0x8 DUP3 DUP3 DUP3 SWAP1 SLOAD SWAP1 PUSH2 0x100 EXP SWAP1 DIV PUSH8 0xFFFFFFFFFFFFFFFF AND PUSH2 0xBD6 SWAP2 SWAP1 PUSH2 0x41BD JUMP JUMPDEST SWAP3 POP PUSH2 0x100 EXP DUP2 SLOAD DUP2 PUSH8 0xFFFFFFFFFFFFFFFF MUL NOT AND SWAP1 DUP4 PUSH8 0xFFFFFFFFFFFFFFFF AND MUL OR SWAP1 SSTORE POP DUP2 PUSH1 0x8 ADD PUSH1 0x1 ADD PUSH1 0x8 SWAP1 SLOAD SWAP1 PUSH2 0x100 EXP SWAP1 DIV PUSH8 0xFFFFFFFFFFFFFFFF AND PUSH8 0xFFFFFFFFFFFFFFFF AND DUP3 PUSH1 0x0 ADD PUSH1 0x2 ADD PUSH1 0x0 SWAP1 SLOAD SWAP1 PUSH2 0x100 EXP SWAP1 DIV PUSH8 0xFFFFFFFFFFFFFFFF AND PUSH8 0xFFFFFFFFFFFFFFFF AND EQ DUP1 PUSH2 0xC9D JUMPI POP DUP2 PUSH1 0x0 ADD PUSH1 0x2 ADD PUSH1 0x8 SWAP1 SLOAD SWAP1 PUSH2 0x100 EXP SWAP1 DIV PUSH8 0xFFFFFFFFFFFFFFFF AND PUSH8 0xFFFFFFFFFFFFFFFF AND DUP3 PUSH1 0x8 ADD PUSH1 0x1 ADD PUSH1 0x0 SWAP1 SLOAD SWAP1 PUSH2 0x100 EXP SWAP1 DIV PUSH8 0xFFFFFFFFFFFFFFFF AND PUSH8 0xFFFFFFFFFFFFFFFF AND EQ JUMPDEST ISZERO PUSH2 0xD18 JUMPI PUSH1 0x1 DUP3 PUSH1 0x0 ADD PUSH1 0x5 ADD PUSH1 0x0 PUSH2 0x100 EXP DUP2 SLOAD DUP2 PUSH1 0xFF MUL NOT AND SWAP1 DUP4 PUSH1 0x3 DUP2 GT ISZERO PUSH2 0xCCD JUMPI PUSH2 0xCCC PUSH2 0x2A9E JUMP JUMPDEST JUMPDEST MUL OR SWAP1 SSTORE POP DUP2 PUSH1 0x8 ADD PUSH1 0x0 DUP1 DUP3 ADD PUSH1 0x0 SWAP1 SSTORE PUSH1 0x1 DUP3 ADD PUSH1 0x0 PUSH2 0x100 EXP DUP2 SLOAD SWAP1 PUSH8 0xFFFFFFFFFFFFFFFF MUL NOT AND SWAP1 SSTORE PUSH1 0x1 DUP3 ADD PUSH1 0x8 PUSH2 0x100 EXP DUP2 SLOAD SWAP1 PUSH8 0xFFFFFFFFFFFFFFFF MUL NOT AND SWAP1 SSTORE POP POP JUMPDEST DUP5 PUSH32 0x9194BCEE830B22B5E81CCD3C7EFB4811CA70DFDD9BBFAA1719D15DFC18C6417D PUSH1 0x1 DUP5 PUSH1 0x8 ADD PUSH1 0x1 ADD PUSH1 0x0 SWAP1 SLOAD SWAP1 PUSH2 0x100 EXP SWAP1 DIV PUSH8 0xFFFFFFFFFFFFFFFF AND PUSH2 0xD62 SWAP2 SWAP1 PUSH2 0x41F9 JUMP JUMPDEST PUSH1 0x40 MLOAD PUSH2 0xD6F SWAP2 SWAP1 PUSH2 0x4266 JUMP JUMPDEST PUSH1 0x40 MLOAD DUP1 SWAP2 SUB SWAP1 LOG2 POP POP POP POP POP JUMP JUMPDEST PUSH1 0x0 DUP1 PUSH1 0x0 DUP4 DUP2 MSTORE PUSH1 0x20 ADD SWAP1 DUP2 MSTORE PUSH1 0x20 ADD PUSH1 0x0 KECCAK256 SWAP1 POP CALLER PUSH20 0xFFFFFFFFFFFFFFFFFFFFFFFFFFFFFFFFFFFFFFFF AND DUP2 PUSH1 0x0 ADD PUSH1 0x0 ADD PUSH1 0x0 SWAP1 SLOAD SWAP1 PUSH2 0x100 EXP SWAP1 DIV PUSH20 0xFFFFFFFFFFFFFFFFFFFFFFFFFFFFFFFFFFFFFFFF AND PUSH20 0xFFFFFFFFFFFFFFFFFFFFFFFFFFFFFFFFFFFFFFFF AND EQ PUSH2 0xE29 JUMPI PUSH1 0x40 MLOAD PUSH32 0x8C379A000000000000000000000000000000000000000000000000000000000 DUP2 MSTORE PUSH1 0x4 ADD PUSH2 0xE20 SWAP1 PUSH2 0x3CC3 JUMP JUMPDEST PUSH1 0x40 MLOAD DUP1 SWAP2 SUB SWAP1 REVERT JUMPDEST PUSH1 0x3 DUP1 DUP2 GT ISZERO PUSH2 0xE3C JUMPI PUSH2 0xE3B PUSH2 0x2A9E JUMP JUMPDEST JUMPDEST DUP2 PUSH1 0x0 ADD PUSH1 0x5 ADD PUSH1 0x0 SWAP1 SLOAD SWAP1 PUSH2 0x100 EXP SWAP1 DIV PUSH1 0xFF AND PUSH1 0x3 DUP2 GT ISZERO PUSH2 0xE63 JUMPI PUSH2 0xE62 PUSH2 0x2A9E JUMP JUMPDEST JUMPDEST SUB PUSH2 0xEA3 JUMPI PUSH1 0x40 MLOAD PUSH32 0x8C379A000000000000000000000000000000000000000000000000000000000 DUP2 MSTORE PUSH1 0x4 ADD PUSH2 0xE9A SWAP1 PUSH2 0x42CD JUMP JUMPDEST PUSH1 0x40 MLOAD DUP1 SWAP2 SUB SWAP1 REVERT JUMPDEST PUSH1 0x3 DUP2 PUSH1 0x0 ADD PUSH1 0x5 ADD PUSH1 0x0 PUSH2 0x100 EXP DUP2 SLOAD DUP2 PUSH1 0xFF MUL NOT AND SWAP1 DUP4 PUSH1 0x3 DUP2 GT ISZERO PUSH2 0xECE JUMPI PUSH2 0xECD PUSH2 0x2A9E JUMP JUMPDEST JUMPDEST MUL OR SWAP1 SSTORE POP PUSH1 0x0 JUMPDEST DUP2 PUSH1 0x0 ADD PUSH1 0x2 ADD PUSH1 0x8 SWAP1 SLOAD SWAP1 PUSH2 0x100 EXP SWAP1 DIV PUSH8 0xFFFFFFFFFFFFFFFF AND PUSH8 0xFFFFFFFFFFFFFFFF AND DUP2 LT ISZERO PUSH2 0xF37 JUMPI DUP2 PUSH1 0xA ADD PUSH1 0x0 DUP3 DUP2 MSTORE PUSH1 0x20 ADD SWAP1 DUP2 MSTORE PUSH1 0x20 ADD PUSH1 0x0 KECCAK256 PUSH1 0x0 PUSH2 0xF24 SWAP2 SWAP1 PUSH2 0x286A JUMP JUMPDEST DUP1 DUP1 PUSH2 0xF2F SWAP1 PUSH2 0x42ED JUMP JUMPDEST SWAP2 POP POP PUSH2 0xED6 JUMP JUMPDEST POP DUP1 PUSH1 0x8 ADD PUSH1 0x0 DUP1 DUP3 ADD PUSH1 0x0 SWAP1 SSTORE PUSH1 0x1 DUP3 ADD PUSH1 0x0 PUSH2 0x100 EXP DUP2 SLOAD SWAP1 PUSH8 0xFFFFFFFFFFFFFFFF MUL NOT AND SWAP1 SSTORE PUSH1 0x1 DUP3 ADD PUSH1 0x8 PUSH2 0x100 EXP DUP2 SLOAD SWAP1 PUSH8 0xFFFFFFFFFFFFFFFF MUL NOT AND SWAP1 SSTORE POP POP DUP2 PUSH32 0x88EFEFB1EAEC3D3A0E08ED74BC99A3407D454B5DA66112FED68B20D54837CCAE PUSH1 0x40 MLOAD PUSH1 0x40 MLOAD DUP1 SWAP2 SUB SWAP1 LOG2 POP POP JUMP JUMPDEST PUSH1 0x60 PUSH1 0x0 DUP3 MLOAD PUSH8 0xFFFFFFFFFFFFFFFF DUP2 GT ISZERO PUSH2 0xFCD JUMPI PUSH2 0xFCC PUSH2 0x2C30 JUMP JUMPDEST JUMPDEST PUSH1 0x40 MLOAD SWAP1 DUP1 DUP3 MSTORE DUP1 PUSH1 0x20 MUL PUSH1 0x20 ADD DUP3 ADD PUSH1 0x40 MSTORE DUP1 ISZERO PUSH2 0xFFB JUMPI DUP2 PUSH1 0x20 ADD PUSH1 0x20 DUP3 MUL DUP1 CALLDATASIZE DUP4 CALLDATACOPY DUP1 DUP3 ADD SWAP2 POP POP SWAP1 POP JUMPDEST POP SWAP1 POP PUSH1 0x0 JUMPDEST DUP4 MLOAD DUP2 LT ISZERO PUSH2 0x105F JUMPI PUSH2 0x102D DUP5 DUP3 DUP2 MLOAD DUP2 LT PUSH2 0x1020 JUMPI PUSH2 0x101F PUSH2 0x4335 JUMP JUMPDEST JUMPDEST PUSH1 0x20 MUL PUSH1 0x20 ADD ADD MLOAD PUSH2 0x19F3 JUMP JUMPDEST DUP3 DUP3 DUP2 MLOAD DUP2 LT PUSH2 0x1040 JUMPI PUSH2 0x103F PUSH2 0x4335 JUMP JUMPDEST JUMPDEST PUSH1 0x20 MUL PUSH1 0x20 ADD ADD DUP2 DUP2 MSTORE POP POP DUP1 DUP1 PUSH2 0x1057 SWAP1 PUSH2 0x42ED JUMP JUMPDEST SWAP2 POP POP PUSH2 0x1001 JUMP JUMPDEST POP DUP1 SWAP2 POP POP SWAP2 SWAP1 POP JUMP JUMPDEST PUSH1 0x3 PUSH1 0x0 SWAP1 SLOAD SWAP1 PUSH2 0x100 EXP SWAP1 DIV PUSH20 0xFFFFFFFFFFFFFFFFFFFFFFFFFFFFFFFFFFFFFFFF AND DUP2 JUMP JUMPDEST DUP2 MLOAD DUP4 MLOAD EQ DUP1 ISZERO PUSH2 0x10A1 JUMPI POP DUP2 MLOAD DUP2 MLOAD EQ JUMPDEST PUSH2 0x10E0 JUMPI PUSH1 0x40 MLOAD PUSH32 0x8C379A000000000000000000000000000000000000000000000000000000000 DUP2 MSTORE PUSH1 0x4 ADD PUSH2 0x10D7 SWAP1 PUSH2 0x43B0 JUMP JUMPDEST PUSH1 0x40 MLOAD DUP1 SWAP2 SUB SWAP1 REVERT JUMPDEST PUSH1 0x0 JUMPDEST DUP4 MLOAD DUP2 LT ISZERO PUSH2 0x1158 JUMPI PUSH2 0x1145 DUP5 DUP3 DUP2 MLOAD DUP2 LT PUSH2 0x1102 JUMPI PUSH2 0x1101 PUSH2 0x4335 JUMP JUMPDEST JUMPDEST PUSH1 0x20 MUL PUSH1 0x20 ADD ADD MLOAD DUP5 DUP4 DUP2 MLOAD DUP2 LT PUSH2 0x111D JUMPI PUSH2 0x111C PUSH2 0x4335 JUMP JUMPDEST JUMPDEST PUSH1 0x20 MUL PUSH1 0x20 ADD ADD MLOAD DUP5 DUP5 DUP2 MLOAD DUP2 LT PUSH2 0x1138 JUMPI PUSH2 0x1137 PUSH2 0x4335 JUMP JUMPDEST JUMPDEST PUSH1 0x20 MUL PUSH1 0x20 ADD ADD MLOAD PUSH2 0x87D JUMP JUMPDEST DUP1 DUP1 PUSH2 0x1150 SWAP1 PUSH2 0x42ED JUMP JUMPDEST SWAP2 POP POP PUSH2 0x10E3 JUMP JUMPDEST POP POP POP POP JUMP JUMPDEST PUSH1 0x0 DUP1 PUSH1 0x0 DUP5 DUP2 MSTORE PUSH1 0x20 ADD SWAP1 DUP2 MSTORE PUSH1 0x20 ADD PUSH1 0x0 KECCAK256 SWAP1 POP CALLER PUSH20 0xFFFFFFFFFFFFFFFFFFFFFFFFFFFFFFFFFFFFFFFF AND DUP2 PUSH1 0x0 ADD PUSH1 0x0 ADD PUSH1 0x0 SWAP1 SLOAD SWAP1 PUSH2 0x100 EXP SWAP1 DIV PUSH20 0xFFFFFFFFFFFFFFFFFFFFFFFFFFFFFFFFFFFFFFFF AND PUSH20 0xFFFFFFFFFFFFFFFFFFFFFFFFFFFFFFFFFFFFFFFF AND EQ PUSH2 0x1209 JUMPI PUSH1 0x40 MLOAD PUSH32 0x8C379A000000000000000000000000000000000000000000000000000000000 DUP2 MSTORE PUSH1 0x4 ADD PUSH2 0x1200 SWAP1 PUSH2 0x3CC3 JUMP JUMPDEST PUSH1 0x40 MLOAD DUP1 SWAP2 SUB SWAP1 REVERT JUMPDEST PUSH1 0x3 DUP1 DUP2 GT ISZERO PUSH2 0x121C JUMPI PUSH2 0x121B PUSH2 0x2A9E JUMP JUMPDEST JUMPDEST DUP2 PUSH1 0x0 ADD PUSH1 0x5 ADD PUSH1 0x0 SWAP1 SLOAD SWAP1 PUSH2 0x100 EXP SWAP1 DIV PUSH1 0xFF AND PUSH1 0x3 DUP2 GT ISZERO PUSH2 0x1243 JUMPI PUSH2 0x1242 PUSH2 0x2A9E JUMP JUMPDEST JUMPDEST SUB PUSH2 0x1283 JUMPI PUSH1 0x40 MLOAD PUSH32 0x8C379A000000000000000000000000000000000000000000000000000000000 DUP2 MSTORE PUSH1 0x4 ADD PUSH2 0x127A SWAP1 PUSH2 0x441C JUMP JUMPDEST PUSH1 0x40 MLOAD DUP1 SWAP2 SUB SWAP1 REVERT JUMPDEST PUSH3 0x15180 TIMESTAMP PUSH2 0x1292 SWAP2 SWAP1 PUSH2 0x3D12 JUMP JUMPDEST DUP3 PUSH8 0xFFFFFFFFFFFFFFFF AND GT PUSH2 0x12DD JUMPI PUSH1 0x40 MLOAD PUSH32 0x8C379A000000000000000000000000000000000000000000000000000000000 DUP2 MSTORE PUSH1 0x4 ADD PUSH2 0x12D4 SWAP1 PUSH2 0x44AE JUMP JUMPDEST PUSH1 0x40 MLOAD DUP1 SWAP2 SUB SWAP1 REVERT JUMPDEST DUP2 DUP2 PUSH1 0x0 ADD PUSH1 0x2 ADD PUSH1 0x10 PUSH2 0x100 EXP DUP2 SLOAD DUP2 PUSH8 0xFFFFFFFFFFFFFFFF MUL NOT AND SWAP1 DUP4 PUSH8 0xFFFFFFFFFFFFFFFF AND MUL OR SWAP1 SSTORE POP POP POP POP JUMP JUMPDEST PUSH1 0x0 DUP1 PUSH1 0x0 DUP4 DUP2 MSTORE PUSH1 0x20 ADD SWAP1 DUP2 MSTORE PUSH1 0x20 ADD PUSH1 0x0 KECCAK256 SWAP1 POP CALLER PUSH20 0xFFFFFFFFFFFFFFFFFFFFFFFFFFFFFFFFFFFFFFFF AND DUP2 PUSH1 0x0 ADD PUSH1 0x0 ADD PUSH1 0x0 SWAP1 SLOAD SWAP1 PUSH2 0x100 EXP SWAP1 DIV PUSH20 0xFFFFFFFFFFFFFFFFFFFFFFFFFFFFFFFFFFFFFFFF AND PUSH20 0xFFFFFFFFFFFFFFFFFFFFFFFFFFFFFFFFFFFFFFFF AND EQ PUSH2 0x13BB JUMPI PUSH1 0x40 MLOAD PUSH32 0x8C379A000000000000000000000000000000000000000000000000000000000 DUP2 MSTORE PUSH1 0x4 ADD PUSH2 0x13B2 SWAP1 PUSH2 0x3CC3 JUMP JUMPDEST PUSH1 0x40 MLOAD DUP1 SWAP2 SUB SWAP1 REVERT JUMPDEST PUSH1 0x1 PUSH1 0x3 DUP2 GT ISZERO PUSH2 0x13CF JUMPI PUSH2 0x13CE PUSH2 0x2A9E JUMP JUMPDEST JUMPDEST DUP2 PUSH1 0x0 ADD PUSH1 0x5 ADD PUSH1 0x0 SWAP1 SLOAD SWAP1 PUSH2 0x100 EXP SWAP1 DIV PUSH1 0xFF AND PUSH1 0x3 DUP2 GT ISZERO PUSH2 0x13F6 JUMPI PUSH2 0x13F5 PUSH2 0x2A9E JUMP JUMPDEST JUMPDEST EQ PUSH2 0x1436 JUMPI PUSH1 0x40 MLOAD PUSH32 0x8C379A000000000000000000000000000000000000000000000000000000000 DUP2 MSTORE PUSH1 0x4 ADD PUSH2 0x142D SWAP1 PUSH2 0x451A JUMP JUMPDEST PUSH1 0x40 MLOAD DUP1 SWAP2 SUB SWAP1 REVERT JUMPDEST DUP1 PUSH1 0x0 ADD PUSH1 0x2 ADD PUSH1 0x10 SWAP1 SLOAD SWAP1 PUSH2 0x100 EXP SWAP1 DIV PUSH8 0xFFFFFFFFFFFFFFFF AND PUSH8 0xFFFFFFFFFFFFFFFF AND TIMESTAMP GT ISZERO PUSH2 0x149E JUMPI PUSH1 0x40 MLOAD PUSH32 0x8C379A000000000000000000000000000000000000000000000000000000000 DUP2 MSTORE PUSH1 0x4 ADD PUSH2 0x1495 SWAP1 PUSH2 0x4586 JUMP JUMPDEST PUSH1 0x40 MLOAD DUP1 SWAP2 SUB SWAP1 REVERT JUMPDEST PUSH1 0x2 DUP2 PUSH1 0x0 ADD PUSH1 0x5 ADD PUSH1 0x0 PUSH2 0x100 EXP DUP2 SLOAD DUP2 PUSH1 0xFF MUL NOT AND SWAP1 DUP4 PUSH1 0x3 DUP2 GT ISZERO PUSH2 0x14C9 JUMPI PUSH2 0x14C8 PUSH2 0x2A9E JUMP JUMPDEST JUMPDEST MUL OR SWAP1 SSTORE POP DUP2 PUSH32 0x45987CD84C3C0EC7C3B91DDE29AFFE01363C3777AEC1247553883B2431747330 PUSH1 0x40 MLOAD PUSH1 0x40 MLOAD DUP1 SWAP2 SUB SWAP1 LOG2 POP POP JUMP JUMPDEST PUSH1 0x3 PUSH1 0x0 SWAP1 SLOAD SWAP1 PUSH2 0x100 EXP SWAP1 DIV PUSH20 0xFFFFFFFFFFFFFFFFFFFFFFFFFFFFFFFFFFFFFFFF AND PUSH20 0xFFFFFFFFFFFFFFFFFFFFFFFFFFFFFFFFFFFFFFFF AND CALLER PUSH20 0xFFFFFFFFFFFFFFFFFFFFFFFFFFFFFFFFFFFFFFFF AND EQ PUSH2 0x158F JUMPI PUSH1 0x40 MLOAD PUSH32 0x8C379A000000000000000000000000000000000000000000000000000000000 DUP2 MSTORE PUSH1 0x4 ADD PUSH2 0x1586 SWAP1 PUSH2 0x3CC3 JUMP JUMPDEST PUSH1 0x40 MLOAD DUP1 SWAP2 SUB SWAP1 REVERT JUMPDEST DUP1 PUSH1 0x2 PUSH1 0x0 PUSH2 0x100 EXP DUP2 SLOAD DUP2 PUSH20 0xFFFFFFFFFFFFFFFFFFFFFFFFFFFFFFFFFFFFFFFF MUL NOT AND SWAP1 DUP4 PUSH20 0xFFFFFFFFFFFFFFFFFFFFFFFFFFFFFFFFFFFFFFFF AND MUL OR SWAP1 SSTORE POP POP JUMP JUMPDEST PUSH1 0x0 PUSH1 0x20 MSTORE DUP1 PUSH1 0x0 MSTORE PUSH1 0x40 PUSH1 0x0 KECCAK256 PUSH1 0x0 SWAP2 POP SWAP1 POP DUP1 PUSH1 0x0 ADD PUSH1 0x40 MLOAD DUP1 PUSH2 0x140 ADD PUSH1 0x40 MSTORE SWAP1 DUP2 PUSH1 0x0 DUP3 ADD PUSH1 0x0 SWAP1 SLOAD SWAP1 PUSH2 0x100 EXP SWAP1 DIV PUSH20 0xFFFFFFFFFFFFFFFFFFFFFFFFFFFFFFFFFFFFFFFF AND PUSH20 0xFFFFFFFFFFFFFFFFFFFFFFFFFFFFFFFFFFFFFFFF AND PUSH20 0xFFFFFFFFFFFFFFFFFFFFFFFFFFFFFFFFFFFFFFFF AND DUP2 MSTORE PUSH1 0x20 ADD PUSH1 0x1 DUP3 ADD SLOAD DUP2 MSTORE PUSH1 0x20 ADD PUSH1 0x2 DUP3 ADD PUSH1 0x0 SWAP1 SLOAD SWAP1 PUSH2 0x100 EXP SWAP1 DIV PUSH8 0xFFFFFFFFFFFFFFFF AND PUSH8 0xFFFFFFFFFFFFFFFF AND PUSH8 0xFFFFFFFFFFFFFFFF AND DUP2 MSTORE PUSH1 0x20 ADD PUSH1 0x2 DUP3 ADD PUSH1 0x8 SWAP1 SLOAD SWAP1 PUSH2 0x100 EXP SWAP1 DIV PUSH8 0xFFFFFFFFFFFFFFFF AND PUSH8 0xFFFFFFFFFFFFFFFF AND PUSH8 0xFFFFFFFFFFFFFFFF AND DUP2 MSTORE PUSH1 0x20 ADD PUSH1 0x2 DUP3 ADD PUSH1 0x10 SWAP1 SLOAD SWAP1 PUSH2 0x100 EXP SWAP1 DIV PUSH8 0xFFFFFFFFFFFFFFFF AND PUSH8 0xFFFFFFFFFFFFFFFF AND PUSH8 0xFFFFFFFFFFFFFFFF AND DUP2 MSTORE PUSH1 0x20 ADD PUSH1 0x3 DUP3 ADD DUP1 SLOAD PUSH2 0x16FD SWAP1 PUSH2 0x3BDA JUMP JUMPDEST DUP1 PUSH1 0x1F ADD PUSH1 0x20 DUP1 SWAP2 DIV MUL PUSH1 0x20 ADD PUSH1 0x40 MLOAD SWAP1 DUP2 ADD PUSH1 0x40 MSTORE DUP1 SWAP3 SWAP2 SWAP1 DUP2 DUP2 MSTORE PUSH1 0x20 ADD DUP3 DUP1 SLOAD PUSH2 0x1729 SWAP1 PUSH2 0x3BDA JUMP JUMPDEST DUP1 ISZERO PUSH2 0x1776 JUMPI DUP1 PUSH1 0x1F LT PUSH2 0x174B JUMPI PUSH2 0x100 DUP1 DUP4 SLOAD DIV MUL DUP4 MSTORE SWAP2 PUSH1 0x20 ADD SWAP2 PUSH2 0x1776 JUMP JUMPDEST DUP3 ADD SWAP2 SWAP1 PUSH1 0x0 MSTORE PUSH1 0x20 PUSH1 0x0 KECCAK256 SWAP1 JUMPDEST DUP2 SLOAD DUP2 MSTORE SWAP1 PUSH1 0x1 ADD SWAP1 PUSH1 0x20 ADD DUP1 DUP4 GT PUSH2 0x1759 JUMPI DUP3 SWAP1 SUB PUSH1 0x1F AND DUP3 ADD SWAP2 JUMPDEST POP POP POP POP POP DUP2 MSTORE PUSH1 0x20 ADD PUSH1 0x4 DUP3 ADD DUP1 SLOAD PUSH2 0x178F SWAP1 PUSH2 0x3BDA JUMP JUMPDEST DUP1 PUSH1 0x1F ADD PUSH1 0x20 DUP1 SWAP2 DIV MUL PUSH1 0x20 ADD PUSH1 0x40 MLOAD SWAP1 DUP2 ADD PUSH1 0x40 MSTORE DUP1 SWAP3 SWAP2 SWAP1 DUP2 DUP2 MSTORE PUSH1 0x20 ADD DUP3 DUP1 SLOAD PUSH2 0x17BB SWAP1 PUSH2 0x3BDA JUMP JUMPDEST DUP1 ISZERO PUSH2 0x1808 JUMPI DUP1 PUSH1 0x1F LT PUSH2 0x17DD JUMPI PUSH2 0x100 DUP1 DUP4 SLOAD DIV MUL DUP4 MSTORE SWAP2 PUSH1 0x20 ADD SWAP2 PUSH2 0x1808 JUMP JUMPDEST DUP3 ADD SWAP2 SWAP1 PUSH1 0x0 MSTORE PUSH1 0x20 PUSH1 0x0 KECCAK256 SWAP1 JUMPDEST DUP2 SLOAD DUP2 MSTORE SWAP1 PUSH1 0x1 ADD SWAP1 PUSH1 0x20 ADD DUP1 DUP4 GT PUSH2 0x17EB JUMPI DUP3 SWAP1 SUB PUSH1 0x1F AND DUP3 ADD SWAP2 JUMPDEST POP POP POP POP POP DUP2 MSTORE PUSH1 0x20 ADD PUSH1 0x5 DUP3 ADD PUSH1 0x0 SWAP1 SLOAD SWAP1 PUSH2 0x100 EXP SWAP1 DIV PUSH1 0xFF AND PUSH1 0x3 DUP2 GT ISZERO PUSH2 0x1836 JUMPI PUSH2 0x1835 PUSH2 0x2A9E JUMP JUMPDEST JUMPDEST PUSH1 0x3 DUP2 GT ISZERO PUSH2 0x1848 JUMPI PUSH2 0x1847 PUSH2 0x2A9E JUMP JUMPDEST JUMPDEST DUP2 MSTORE PUSH1 0x20 ADD PUSH1 0x6 DUP3 ADD DUP1 SLOAD PUSH2 0x185C SWAP1 PUSH2 0x3BDA JUMP JUMPDEST DUP1 PUSH1 0x1F ADD PUSH1 0x20 DUP1 SWAP2 DIV MUL PUSH1 0x20 ADD PUSH1 0x40 MLOAD SWAP1 DUP2 ADD PUSH1 0x40 MSTORE DUP1 SWAP3 SWAP2 SWAP1 DUP2 DUP2 MSTORE PUSH1 0x20 ADD DUP3 DUP1 SLOAD PUSH2 0x1888 SWAP1 PUSH2 0x3BDA JUMP JUMPDEST DUP1 ISZERO PUSH2 0x18D5 JUMPI DUP1 PUSH1 0x1F LT PUSH2 0x18AA JUMPI PUSH2 0x100 DUP1 DUP4 SLOAD DIV MUL DUP4 MSTORE SWAP2 PUSH1 0x20 ADD SWAP2 PUSH2 0x18D5 JUMP JUMPDEST DUP3 ADD SWAP2 SWAP1 PUSH1 0x0 MSTORE PUSH1 0x20 PUSH1 0x0 KECCAK256 SWAP1 JUMPDEST DUP2 SLOAD DUP2 MSTORE SWAP1 PUSH1 0x1 ADD SWAP1 PUSH1 0x20 ADD DUP1 DUP4 GT PUSH2 0x18B8 JUMPI DUP3 SWAP1 SUB PUSH1 0x1F AND DUP3 ADD SWAP2 JUMPDEST POP POP POP POP POP DUP2 MSTORE PUSH1 0x20 ADD PUSH1 0x7 DUP3 ADD DUP1 SLOAD PUSH2 0x18EE SWAP1 PUSH2 0x3BDA JUMP JUMPDEST DUP1 PUSH1 0x1F ADD PUSH1 0x20 DUP1 SWAP2 DIV MUL PUSH1 0x20 ADD PUSH1 0x40 MLOAD SWAP1 DUP2 ADD PUSH1 0x40 MSTORE DUP1 SWAP3 SWAP2 SWAP1 DUP2 DUP2 MSTORE PUSH1 0x20 ADD DUP3 DUP1 SLOAD PUSH2 0x191A SWAP1 PUSH2 0x3BDA JUMP JUMPDEST DUP1 ISZERO PUSH2 0x1967 JUMPI DUP1 PUSH1 0x1F LT PUSH2 0x193C JUMPI PUSH2 0x100 DUP1 DUP4 SLOAD DIV MUL DUP4 MSTORE SWAP2 PUSH1 0x20 ADD SWAP2 PUSH2 0x1967 JUMP JUMPDEST DUP3 ADD SWAP2 SWAP1 PUSH1 0x0 MSTORE PUSH1 0x20 PUSH1 0x0 KECCAK256 SWAP1 JUMPDEST DUP2 SLOAD DUP2 MSTORE SWAP1 PUSH1 0x1 ADD SWAP1 PUSH1 0x20 ADD DUP1 DUP4 GT PUSH2 0x194A JUMPI DUP3 SWAP1 SUB PUSH1 0x1F AND DUP3 ADD SWAP2 JUMPDEST POP POP POP POP POP DUP2 MSTORE POP POP SWAP1 DUP1 PUSH1 0x8 ADD PUSH1 0x40 MLOAD DUP1 PUSH1 0x60 ADD PUSH1 0x40 MSTORE SWAP1 DUP2 PUSH1 0x0 DUP3 ADD SLOAD DUP2 MSTORE PUSH1 0x20 ADD PUSH1 0x1 DUP3 ADD PUSH1 0x0 SWAP1 SLOAD SWAP1 PUSH2 0x100 EXP SWAP1 DIV PUSH8 0xFFFFFFFFFFFFFFFF AND PUSH8 0xFFFFFFFFFFFFFFFF AND PUSH8 0xFFFFFFFFFFFFFFFF AND DUP2 MSTORE PUSH1 0x20 ADD PUSH1 0x1 DUP3 ADD PUSH1 0x8 SWAP1 SLOAD SWAP1 PUSH2 0x100 EXP SWAP1 DIV PUSH8 0xFFFFFFFFFFFFFFFF AND PUSH8 0xFFFFFFFFFFFFFFFF AND PUSH8 0xFFFFFFFFFFFFFFFF AND DUP2 MSTORE POP POP SWAP1 POP DUP3 JUMP JUMPDEST PUSH1 0x0 PUSH3 0x15180 TIMESTAMP PUSH2 0x1A04 SWAP2 SWAP1 PUSH2 0x3D12 JUMP JUMPDEST DUP3 PUSH1 0x80 ADD MLOAD PUSH8 0xFFFFFFFFFFFFFFFF AND GT PUSH2 0x1A53 JUMPI PUSH1 0x40 MLOAD PUSH32 0x8C379A000000000000000000000000000000000000000000000000000000000 DUP2 MSTORE PUSH1 0x4 ADD PUSH2 0x1A4A SWAP1 PUSH2 0x4618 JUMP JUMPDEST PUSH1 0x40 MLOAD DUP1 SWAP2 SUB SWAP1 REVERT JUMPDEST DUP2 PUSH1 0x40 ADD MLOAD DUP3 PUSH1 0x80 ADD MLOAD DUP4 PUSH1 0x20 ADD MLOAD DUP5 PUSH1 0xA0 ADD MLOAD DUP6 PUSH1 0xC0 ADD MLOAD TIMESTAMP PUSH1 0x40 MLOAD PUSH1 0x20 ADD PUSH2 0x1A82 SWAP7 SWAP6 SWAP5 SWAP4 SWAP3 SWAP2 SWAP1 PUSH2 0x46CB JUMP JUMPDEST PUSH1 0x40 MLOAD PUSH1 0x20 DUP2 DUP4 SUB SUB DUP2 MSTORE SWAP1 PUSH1 0x40 MSTORE DUP1 MLOAD SWAP1 PUSH1 0x20 ADD KECCAK256 SWAP1 POP DUP1 PUSH1 0x1 DUP4 PUSH1 0xA0 ADD MLOAD PUSH1 0x40 MLOAD PUSH2 0x1AAF SWAP2 SWAP1 PUSH2 0x4733 JUMP JUMPDEST SWAP1 DUP2 MSTORE PUSH1 0x20 ADD PUSH1 0x40 MLOAD DUP1 SWAP2 SUB SWAP1 KECCAK256 DUP2 SWAP1 SSTORE POP PUSH1 0x0 DUP1 SHL PUSH1 0x0 DUP1 DUP4 DUP2 MSTORE PUSH1 0x20 ADD SWAP1 DUP2 MSTORE PUSH1 0x20 ADD PUSH1 0x0 KECCAK256 PUSH1 0x0 ADD PUSH1 0x1 ADD SLOAD EQ PUSH2 0x1B1E JUMPI PUSH1 0x40 MLOAD PUSH32 0x8C379A000000000000000000000000000000000000000000000000000000000 DUP2 MSTORE PUSH1 0x4 ADD PUSH2 0x1B15 SWAP1 PUSH2 0x4796 JUMP JUMPDEST PUSH1 0x40 MLOAD DUP1 SWAP2 SUB SWAP1 REVERT JUMPDEST PUSH1 0x40 MLOAD DUP1 PUSH2 0x140 ADD PUSH1 0x40 MSTORE DUP1 CALLER PUSH20 0xFFFFFFFFFFFFFFFFFFFFFFFFFFFFFFFFFFFFFFFF AND DUP2 MSTORE PUSH1 0x20 ADD DUP4 PUSH1 0x20 ADD MLOAD DUP2 MSTORE PUSH1 0x20 ADD DUP4 PUSH1 0x40 ADD MLOAD PUSH8 0xFFFFFFFFFFFFFFFF AND DUP2 MSTORE PUSH1 0x20 ADD DUP4 PUSH1 0x60 ADD MLOAD PUSH8 0xFFFFFFFFFFFFFFFF AND DUP2 MSTORE PUSH1 0x20 ADD DUP4 PUSH1 0x80 ADD MLOAD PUSH8 0xFFFFFFFFFFFFFFFF AND DUP2 MSTORE PUSH1 0x20 ADD DUP4 PUSH1 0xA0 ADD MLOAD DUP2 MSTORE PUSH1 0x20 ADD DUP4 PUSH1 0xC0 ADD MLOAD DUP2 MSTORE PUSH1 0x20 ADD PUSH1 0x0 PUSH1 0x3 DUP2 GT ISZERO PUSH2 0x1BB4 JUMPI PUSH2 0x1BB3 PUSH2 0x2A9E JUMP JUMPDEST JUMPDEST DUP2 MSTORE PUSH1 0x20 ADD DUP4 PUSH2 0x100 ADD MLOAD DUP2 MSTORE PUSH1 0x20 ADD DUP4 PUSH2 0x120 ADD MLOAD DUP2 MSTORE POP PUSH1 0x0 DUP1 DUP4 DUP2 MSTORE PUSH1 0x20 ADD SWAP1 DUP2 MSTORE PUSH1 0x20 ADD PUSH1 0x0 KECCAK256 PUSH1 0x0 ADD PUSH1 0x0 DUP3 ADD MLOAD DUP2 PUSH1 0x0 ADD PUSH1 0x0 PUSH2 0x100 EXP DUP2 SLOAD DUP2 PUSH20 0xFFFFFFFFFFFFFFFFFFFFFFFFFFFFFFFFFFFFFFFF MUL NOT AND SWAP1 DUP4 PUSH20 0xFFFFFFFFFFFFFFFFFFFFFFFFFFFFFFFFFFFFFFFF AND MUL OR SWAP1 SSTORE POP PUSH1 0x20 DUP3 ADD MLOAD DUP2 PUSH1 0x1 ADD SSTORE PUSH1 0x40 DUP3 ADD MLOAD DUP2 PUSH1 0x2 ADD PUSH1 0x0 PUSH2 0x100 EXP DUP2 SLOAD DUP2 PUSH8 0xFFFFFFFFFFFFFFFF MUL NOT AND SWAP1 DUP4 PUSH8 0xFFFFFFFFFFFFFFFF AND MUL OR SWAP1 SSTORE POP PUSH1 0x60 DUP3 ADD MLOAD DUP2 PUSH1 0x2 ADD PUSH1 0x8 PUSH2 0x100 EXP DUP2 SLOAD DUP2 PUSH8 0xFFFFFFFFFFFFFFFF MUL NOT AND SWAP1 DUP4 PUSH8 0xFFFFFFFFFFFFFFFF AND MUL OR SWAP1 SSTORE POP PUSH1 0x80 DUP3 ADD MLOAD DUP2 PUSH1 0x2 ADD PUSH1 0x10 PUSH2 0x100 EXP DUP2 SLOAD DUP2 PUSH8 0xFFFFFFFFFFFFFFFF MUL NOT AND SWAP1 DUP4 PUSH8 0xFFFFFFFFFFFFFFFF AND MUL OR SWAP1 SSTORE POP PUSH1 0xA0 DUP3 ADD MLOAD DUP2 PUSH1 0x3 ADD SWAP1 DUP2 PUSH2 0x1CD5 SWAP2 SWAP1 PUSH2 0x4811 JUMP JUMPDEST POP PUSH1 0xC0 DUP3 ADD MLOAD DUP2 PUSH1 0x4 ADD SWAP1 DUP2 PUSH2 0x1CEB SWAP2 SWAP1 PUSH2 0x4811 JUMP JUMPDEST POP PUSH1 0xE0 DUP3 ADD MLOAD DUP2 PUSH1 0x5 ADD PUSH1 0x0 PUSH2 0x100 EXP DUP2 SLOAD DUP2 PUSH1 0xFF MUL NOT AND SWAP1 DUP4 PUSH1 0x3 DUP2 GT ISZERO PUSH2 0x1D17 JUMPI PUSH2 0x1D16 PUSH2 0x2A9E JUMP JUMPDEST JUMPDEST MUL OR SWAP1 SSTORE POP PUSH2 0x100 DUP3 ADD MLOAD DUP2 PUSH1 0x6 ADD SWAP1 DUP2 PUSH2 0x1D32 SWAP2 SWAP1 PUSH2 0x4811 JUMP JUMPDEST POP PUSH2 0x120 DUP3 ADD MLOAD DUP2 PUSH1 0x7 ADD SWAP1 DUP2 PUSH2 0x1D49 SWAP2 SWAP1 PUSH2 0x4811 JUMP JUMPDEST POP SWAP1 POP POP PUSH1 0x40 MLOAD DUP1 PUSH1 0x60 ADD PUSH1 0x40 MSTORE DUP1 PUSH1 0x0 DUP1 SHL DUP2 MSTORE PUSH1 0x20 ADD PUSH1 0x0 PUSH8 0xFFFFFFFFFFFFFFFF AND DUP2 MSTORE PUSH1 0x20 ADD PUSH1 0x0 PUSH8 0xFFFFFFFFFFFFFFFF AND DUP2 MSTORE POP PUSH1 0x0 DUP1 DUP4 DUP2 MSTORE PUSH1 0x20 ADD SWAP1 DUP2 MSTORE PUSH1 0x20 ADD PUSH1 0x0 KECCAK256 PUSH1 0x8 ADD PUSH1 0x0 DUP3 ADD MLOAD DUP2 PUSH1 0x0 ADD SSTORE PUSH1 0x20 DUP3 ADD MLOAD DUP2 PUSH1 0x1 ADD PUSH1 0x0 PUSH2 0x100 EXP DUP2 SLOAD DUP2 PUSH8 0xFFFFFFFFFFFFFFFF MUL NOT AND SWAP1 DUP4 PUSH8 0xFFFFFFFFFFFFFFFF AND MUL OR SWAP1 SSTORE POP PUSH1 0x40 DUP3 ADD MLOAD DUP2 PUSH1 0x1 ADD PUSH1 0x8 PUSH2 0x100 EXP DUP2 SLOAD DUP2 PUSH8 0xFFFFFFFFFFFFFFFF MUL NOT AND SWAP1 DUP4 PUSH8 0xFFFFFFFFFFFFFFFF AND MUL OR SWAP1 SSTORE POP SWAP1 POP POP DUP1 PUSH32 0x7F2DB28BB9CDBD41F93B3953994DE4298CC665DDA981F021C84FC9B4B367F11E DUP4 PUSH1 0xA0 ADD MLOAD DUP5 PUSH1 0x40 ADD MLOAD PUSH1 0x40 MLOAD PUSH2 0x1E3B SWAP3 SWAP2 SWAP1 PUSH2 0x492B JUMP JUMPDEST PUSH1 0x40 MLOAD DUP1 SWAP2 SUB SWAP1 LOG2 SWAP2 SWAP1 POP JUMP JUMPDEST PUSH1 0x2 PUSH1 0x0 SWAP1 SLOAD SWAP1 PUSH2 0x100 EXP SWAP1 DIV PUSH20 0xFFFFFFFFFFFFFFFFFFFFFFFFFFFFFFFFFFFFFFFF AND DUP2 JUMP JUMPDEST PUSH1 0x60 DUP2 MLOAD PUSH8 0xFFFFFFFFFFFFFFFF DUP2 GT ISZERO PUSH2 0x1E8B JUMPI PUSH2 0x1E8A PUSH2 0x2C30 JUMP JUMPDEST JUMPDEST PUSH1 0x40 MLOAD SWAP1 DUP1 DUP3 MSTORE DUP1 PUSH1 0x20 MUL PUSH1 0x20 ADD DUP3 ADD PUSH1 0x40 MSTORE DUP1 ISZERO PUSH2 0x1EC4 JUMPI DUP2 PUSH1 0x20 ADD JUMPDEST PUSH2 0x1EB1 PUSH2 0x27CE JUMP JUMPDEST DUP2 MSTORE PUSH1 0x20 ADD SWAP1 PUSH1 0x1 SWAP1 SUB SWAP1 DUP2 PUSH2 0x1EA9 JUMPI SWAP1 POP JUMPDEST POP SWAP1 POP PUSH1 0x0 JUMPDEST DUP3 MLOAD DUP2 LT ISZERO PUSH2 0x22BE JUMPI PUSH1 0x0 DUP1 PUSH1 0x0 DUP6 DUP5 DUP2 MLOAD DUP2 LT PUSH2 0x1EEB JUMPI PUSH2 0x1EEA PUSH2 0x4335 JUMP JUMPDEST JUMPDEST PUSH1 0x20 MUL PUSH1 0x20 ADD ADD MLOAD DUP2 MSTORE PUSH1 0x20 ADD SWAP1 DUP2 MSTORE PUSH1 0x20 ADD PUSH1 0x0 KECCAK256 PUSH1 0x0 ADD PUSH1 0x40 MLOAD DUP1 PUSH2 0x140 ADD PUSH1 0x40 MSTORE SWAP1 DUP2 PUSH1 0x0 DUP3 ADD PUSH1 0x0 SWAP1 SLOAD SWAP1 PUSH2 0x100 EXP SWAP1 DIV PUSH20 0xFFFFFFFFFFFFFFFFFFFFFFFFFFFFFFFFFFFFFFFF AND PUSH20 0xFFFFFFFFFFFFFFFFFFFFFFFFFFFFFFFFFFFFFFFF AND PUSH20 0xFFFFFFFFFFFFFFFFFFFFFFFFFFFFFFFFFFFFFFFF AND DUP2 MSTORE PUSH1 0x20 ADD PUSH1 0x1 DUP3 ADD SLOAD DUP2 MSTORE PUSH1 0x20 ADD PUSH1 0x2 DUP3 ADD PUSH1 0x0 SWAP1 SLOAD SWAP1 PUSH2 0x100 EXP SWAP1 DIV PUSH8 0xFFFFFFFFFFFFFFFF AND PUSH8 0xFFFFFFFFFFFFFFFF AND PUSH8 0xFFFFFFFFFFFFFFFF AND DUP2 MSTORE PUSH1 0x20 ADD PUSH1 0x2 DUP3 ADD PUSH1 0x8 SWAP1 SLOAD SWAP1 PUSH2 0x100 EXP SWAP1 DIV PUSH8 0xFFFFFFFFFFFFFFFF AND PUSH8 0xFFFFFFFFFFFFFFFF AND PUSH8 0xFFFFFFFFFFFFFFFF AND DUP2 MSTORE PUSH1 0x20 ADD PUSH1 0x2 DUP3 ADD PUSH1 0x10 SWAP1 SLOAD SWAP1 PUSH2 0x100 EXP SWAP1 DIV PUSH8 0xFFFFFFFFFFFFFFFF AND PUSH8 0xFFFFFFFFFFFFFFFF AND PUSH8 0xFFFFFFFFFFFFFFFF AND DUP2 MSTORE PUSH1 0x20 ADD PUSH1 0x3 DUP3 ADD DUP1 SLOAD PUSH2 0x2016 SWAP1 PUSH2 0x3BDA JUMP JUMPDEST DUP1 PUSH1 0x1F ADD PUSH1 0x20 DUP1 SWAP2 DIV MUL PUSH1 0x20 ADD PUSH1 0x40 MLOAD SWAP1 DUP2 ADD PUSH1 0x40 MSTORE DUP1 SWAP3 SWAP2 SWAP1 DUP2 DUP2 MSTORE PUSH1 0x20 ADD DUP3 DUP1 SLOAD PUSH2 0x2042 SWAP1 PUSH2 0x3BDA JUMP JUMPDEST DUP1 ISZERO PUSH2 0x208F JUMPI DUP1 PUSH1 0x1F LT PUSH2 0x2064 JUMPI PUSH2 0x100 DUP1 DUP4 SLOAD DIV MUL DUP4 MSTORE SWAP2 PUSH1 0x20 ADD SWAP2 PUSH2 0x208F JUMP JUMPDEST DUP3 ADD SWAP2 SWAP1 PUSH1 0x0 MSTORE PUSH1 0x20 PUSH1 0x0 KECCAK256 SWAP1 JUMPDEST DUP2 SLOAD DUP2 MSTORE SWAP1 PUSH1 0x1 ADD SWAP1 PUSH1 0x20 ADD DUP1 DUP4 GT PUSH2 0x2072 JUMPI DUP3 SWAP1 SUB PUSH1 0x1F AND DUP3 ADD SWAP2 JUMPDEST POP POP POP POP POP DUP2 MSTORE PUSH1 0x20 ADD PUSH1 0x4 DUP3 ADD DUP1 SLOAD PUSH2 0x20A8 SWAP1 PUSH2 0x3BDA JUMP JUMPDEST DUP1 PUSH1 0x1F ADD PUSH1 0x20 DUP1 SWAP2 DIV MUL PUSH1 0x20 ADD PUSH1 0x40 MLOAD SWAP1 DUP2 ADD PUSH1 0x40 MSTORE DUP1 SWAP3 SWAP2 SWAP1 DUP2 DUP2 MSTORE PUSH1 0x20 ADD DUP3 DUP1 SLOAD PUSH2 0x20D4 SWAP1 PUSH2 0x3BDA JUMP JUMPDEST DUP1 ISZERO PUSH2 0x2121 JUMPI DUP1 PUSH1 0x1F LT PUSH2 0x20F6 JUMPI PUSH2 0x100 DUP1 DUP4 SLOAD DIV MUL DUP4 MSTORE SWAP2 PUSH1 0x20 ADD SWAP2 PUSH2 0x2121 JUMP JUMPDEST DUP3 ADD SWAP2 SWAP1 PUSH1 0x0 MSTORE PUSH1 0x20 PUSH1 0x0 KECCAK256 SWAP1 JUMPDEST DUP2 SLOAD DUP2 MSTORE SWAP1 PUSH1 0x1 ADD SWAP1 PUSH1 0x20 ADD DUP1 DUP4 GT PUSH2 0x2104 JUMPI DUP3 SWAP1 SUB PUSH1 0x1F AND DUP3 ADD SWAP2 JUMPDEST POP POP POP POP POP DUP2 MSTORE PUSH1 0x20 ADD PUSH1 0x5 DUP3 ADD PUSH1 0x0 SWAP1 SLOAD SWAP1 PUSH2 0x100 EXP SWAP1 DIV PUSH1 0xFF AND PUSH1 0x3 DUP2 GT ISZERO PUSH2 0x214F JUMPI PUSH2 0x214E PUSH2 0x2A9E JUMP JUMPDEST JUMPDEST PUSH1 0x3 DUP2 GT ISZERO PUSH2 0x2161 JUMPI PUSH2 0x2160 PUSH2 0x2A9E JUMP JUMPDEST JUMPDEST DUP2 MSTORE PUSH1 0x20 ADD PUSH1 0x6 DUP3 ADD DUP1 SLOAD PUSH2 0x2175 SWAP1 PUSH2 0x3BDA JUMP JUMPDEST DUP1 PUSH1 0x1F ADD PUSH1 0x20 DUP1 SWAP2 DIV MUL PUSH1 0x20 ADD PUSH1 0x40 MLOAD SWAP1 DUP2 ADD PUSH1 0x40 MSTORE DUP1 SWAP3 SWAP2 SWAP1 DUP2 DUP2 MSTORE PUSH1 0x20 ADD DUP3 DUP1 SLOAD PUSH2 0x21A1 SWAP1 PUSH2 0x3BDA JUMP JUMPDEST DUP1 ISZERO PUSH2 0x21EE JUMPI DUP1 PUSH1 0x1F LT PUSH2 0x21C3 JUMPI PUSH2 0x100 DUP1 DUP4 SLOAD DIV MUL DUP4 MSTORE SWAP2 PUSH1 0x20 ADD SWAP2 PUSH2 0x21EE JUMP JUMPDEST DUP3 ADD SWAP2 SWAP1 PUSH1 0x0 MSTORE PUSH1 0x20 PUSH1 0x0 KECCAK256 SWAP1 JUMPDEST DUP2 SLOAD DUP2 MSTORE SWAP1 PUSH1 0x1 ADD SWAP1 PUSH1 0x20 ADD DUP1 DUP4 GT PUSH2 0x21D1 JUMPI DUP3 SWAP1 SUB PUSH1 0x1F AND DUP3 ADD SWAP2 JUMPDEST POP POP POP POP POP DUP2 MSTORE PUSH1 0x20 ADD PUSH1 0x7 DUP3 ADD DUP1 SLOAD PUSH2 0x2207 SWAP1 PUSH2 0x3BDA JUMP JUMPDEST DUP1 PUSH1 0x1F ADD PUSH1 0x20 DUP1 SWAP2 DIV MUL PUSH1 0x20 ADD PUSH1 0x40 MLOAD SWAP1 DUP2 ADD PUSH1 0x40 MSTORE DUP1 SWAP3 SWAP2 SWAP1 DUP2 DUP2 MSTORE PUSH1 0x20 ADD DUP3 DUP1 SLOAD PUSH2 0x2233 SWAP1 PUSH2 0x3BDA JUMP JUMPDEST DUP1 ISZERO PUSH2 0x2280 JUMPI DUP1 PUSH1 0x1F LT PUSH2 0x2255 JUMPI PUSH2 0x100 DUP1 DUP4 SLOAD DIV MUL DUP4 MSTORE SWAP2 PUSH1 0x20 ADD SWAP2 PUSH2 0x2280 JUMP JUMPDEST DUP3 ADD SWAP2 SWAP1 PUSH1 0x0 MSTORE PUSH1 0x20 PUSH1 0x0 KECCAK256 SWAP1 JUMPDEST DUP2 SLOAD DUP2 MSTORE SWAP1 PUSH1 0x1 ADD SWAP1 PUSH1 0x20 ADD DUP1 DUP4 GT PUSH2 0x2263 JUMPI DUP3 SWAP1 SUB PUSH1 0x1F AND DUP3 ADD SWAP2 JUMPDEST POP POP POP POP POP DUP2 MSTORE POP POP SWAP1 POP DUP1 DUP4 DUP4 DUP2 MLOAD DUP2 LT PUSH2 0x229F JUMPI PUSH2 0x229E PUSH2 0x4335 JUMP JUMPDEST JUMPDEST PUSH1 0x20 MUL PUSH1 0x20 ADD ADD DUP2 SWAP1 MSTORE POP POP DUP1 DUP1 PUSH2 0x22B6 SWAP1 PUSH2 0x42ED JUMP JUMPDEST SWAP2 POP POP PUSH2 0x1ECA JUMP JUMPDEST POP SWAP2 SWAP1 POP JUMP JUMPDEST PUSH1 0x1 DUP2 DUP1 MLOAD PUSH1 0x20 DUP2 ADD DUP3 ADD DUP1 MLOAD DUP5 DUP3 MSTORE PUSH1 0x20 DUP4 ADD PUSH1 0x20 DUP6 ADD KECCAK256 DUP2 DUP4 MSTORE DUP1 SWAP6 POP POP POP POP POP POP PUSH1 0x0 SWAP2 POP SWAP1 POP SLOAD DUP2 JUMP JUMPDEST PUSH1 0x60 PUSH1 0x0 DUP3 MLOAD PUSH8 0xFFFFFFFFFFFFFFFF DUP2 GT ISZERO PUSH2 0x2311 JUMPI PUSH2 0x2310 PUSH2 0x2C30 JUMP JUMPDEST JUMPDEST PUSH1 0x40 MLOAD SWAP1 DUP1 DUP3 MSTORE DUP1 PUSH1 0x20 MUL PUSH1 0x20 ADD DUP3 ADD PUSH1 0x40 MSTORE DUP1 ISZERO PUSH2 0x233F JUMPI DUP2 PUSH1 0x20 ADD PUSH1 0x20 DUP3 MUL DUP1 CALLDATASIZE DUP4 CALLDATACOPY DUP1 DUP3 ADD SWAP2 POP POP SWAP1 POP JUMPDEST POP SWAP1 POP PUSH1 0x0 JUMPDEST DUP4 MLOAD DUP2 LT ISZERO PUSH2 0x23B9 JUMPI PUSH1 0x1 DUP5 DUP3 DUP2 MLOAD DUP2 LT PUSH2 0x2363 JUMPI PUSH2 0x2362 PUSH2 0x4335 JUMP JUMPDEST JUMPDEST PUSH1 0x20 MUL PUSH1 0x20 ADD ADD MLOAD PUSH1 0x40 MLOAD PUSH2 0x2378 SWAP2 SWAP1 PUSH2 0x4733 JUMP JUMPDEST SWAP1 DUP2 MSTORE PUSH1 0x20 ADD PUSH1 0x40 MLOAD DUP1 SWAP2 SUB SWAP1 KECCAK256 SLOAD DUP3 DUP3 DUP2 MLOAD DUP2 LT PUSH2 0x239A JUMPI PUSH2 0x2399 PUSH2 0x4335 JUMP JUMPDEST JUMPDEST PUSH1 0x20 MUL PUSH1 0x20 ADD ADD DUP2 DUP2 MSTORE POP POP DUP1 DUP1 PUSH2 0x23B1 SWAP1 PUSH2 0x42ED JUMP JUMPDEST SWAP2 POP POP PUSH2 0x2345 JUMP JUMPDEST POP DUP1 SWAP2 POP POP SWAP2 SWAP1 POP JUMP JUMPDEST PUSH1 0x60 PUSH1 0x0 DUP1 PUSH1 0x0 DUP7 DUP2 MSTORE PUSH1 0x20 ADD SWAP1 DUP2 MSTORE PUSH1 0x20 ADD PUSH1 0x0 KECCAK256 SWAP1 POP PUSH1 0x1 PUSH1 0x3 DUP2 GT ISZERO PUSH2 0x23EF JUMPI PUSH2 0x23EE PUSH2 0x2A9E JUMP JUMPDEST JUMPDEST DUP2 PUSH1 0x0 ADD PUSH1 0x5 ADD PUSH1 0x0 SWAP1 SLOAD SWAP1 PUSH2 0x100 EXP SWAP1 DIV PUSH1 0xFF AND PUSH1 0x3 DUP2 GT ISZERO PUSH2 0x2416 JUMPI PUSH2 0x2415 PUSH2 0x2A9E JUMP JUMPDEST JUMPDEST EQ PUSH2 0x2456 JUMPI PUSH1 0x40 MLOAD PUSH32 0x8C379A000000000000000000000000000000000000000000000000000000000 DUP2 MSTORE PUSH1 0x4 ADD PUSH2 0x244D SWAP1 PUSH2 0x49A7 JUMP JUMPDEST PUSH1 0x40 MLOAD DUP1 SWAP2 SUB SWAP1 REVERT JUMPDEST PUSH1 0x0 DUP2 PUSH1 0x0 ADD PUSH1 0x2 ADD PUSH1 0x0 SWAP1 SLOAD SWAP1 PUSH2 0x100 EXP SWAP1 DIV PUSH8 0xFFFFFFFFFFFFFFFF AND PUSH8 0xFFFFFFFFFFFFFFFF AND GT PUSH2 0x24BE JUMPI PUSH1 0x40 MLOAD PUSH32 0x8C379A000000000000000000000000000000000000000000000000000000000 DUP2 MSTORE PUSH1 0x4 ADD PUSH2 0x24B5 SWAP1 PUSH2 0x4A13 JUMP JUMPDEST PUSH1 0x40 MLOAD DUP1 SWAP2 SUB SWAP1 REVERT JUMPDEST DUP1 PUSH1 0x0 ADD PUSH1 0x2 ADD PUSH1 0x8 SWAP1 SLOAD SWAP1 PUSH2 0x100 EXP SWAP1 DIV PUSH8 0xFFFFFFFFFFFFFFFF AND PUSH8 0xFFFFFFFFFFFFFFFF AND DUP5 LT PUSH2 0x2525 JUMPI PUSH1 0x40 MLOAD PUSH32 0x8C379A000000000000000000000000000000000000000000000000000000000 DUP2 MSTORE PUSH1 0x4 ADD PUSH2 0x251C SWAP1 PUSH2 0x4A7F JUMP JUMPDEST PUSH1 0x40 MLOAD DUP1 SWAP2 SUB SWAP1 REVERT JUMPDEST PUSH1 0x0 DUP4 GT PUSH2 0x2568 JUMPI PUSH1 0x40 MLOAD PUSH32 0x8C379A000000000000000000000000000000000000000000000000000000000 DUP2 MSTORE PUSH1 0x4 ADD PUSH2 0x255F SWAP1 PUSH2 0x4AEB JUMP JUMPDEST PUSH1 0x40 MLOAD DUP1 SWAP2 SUB SWAP1 REVERT JUMPDEST DUP1 PUSH1 0x0 ADD PUSH1 0x2 ADD PUSH1 0x10 SWAP1 SLOAD SWAP1 PUSH2 0x100 EXP SWAP1 DIV PUSH8 0xFFFFFFFFFFFFFFFF AND PUSH8 0xFFFFFFFFFFFFFFFF AND TIMESTAMP GT ISZERO PUSH2 0x25D0 JUMPI PUSH1 0x40 MLOAD PUSH32 0x8C379A000000000000000000000000000000000000000000000000000000000 DUP2 MSTORE PUSH1 0x4 ADD PUSH2 0x25C7 SWAP1 PUSH2 0x4586 JUMP JUMPDEST PUSH1 0x40 MLOAD DUP1 SWAP2 SUB SWAP1 REVERT JUMPDEST PUSH1 0x0 DUP2 PUSH1 0x0 ADD PUSH1 0x2 ADD PUSH1 0x8 SWAP1 SLOAD SWAP1 PUSH2 0x100 EXP SWAP1 DIV PUSH8 0xFFFFFFFFFFFFFFFF AND PUSH8 0xFFFFFFFFFFFFFFFF AND DUP5 DUP7 PUSH2 0x2604 SWAP2 SWAP1 PUSH2 0x3D12 JUMP JUMPDEST GT PUSH2 0x261A JUMPI DUP4 DUP6 PUSH2 0x2615 SWAP2 SWAP1 PUSH2 0x3D12 JUMP JUMPDEST PUSH2 0x2641 JUMP JUMPDEST DUP2 PUSH1 0x0 ADD PUSH1 0x2 ADD PUSH1 0x8 SWAP1 SLOAD SWAP1 PUSH2 0x100 EXP SWAP1 DIV PUSH8 0xFFFFFFFFFFFFFFFF AND PUSH8 0xFFFFFFFFFFFFFFFF AND JUMPDEST SWAP1 POP PUSH1 0x0 DUP6 DUP3 PUSH2 0x2651 SWAP2 SWAP1 PUSH2 0x4B0B JUMP JUMPDEST PUSH8 0xFFFFFFFFFFFFFFFF DUP2 GT ISZERO PUSH2 0x266A JUMPI PUSH2 0x2669 PUSH2 0x2C30 JUMP JUMPDEST JUMPDEST PUSH1 0x40 MLOAD SWAP1 DUP1 DUP3 MSTORE DUP1 PUSH1 0x20 MUL PUSH1 0x20 ADD DUP3 ADD PUSH1 0x40 MSTORE DUP1 ISZERO PUSH2 0x269D JUMPI DUP2 PUSH1 0x20 ADD JUMPDEST PUSH1 0x60 DUP2 MSTORE PUSH1 0x20 ADD SWAP1 PUSH1 0x1 SWAP1 SUB SWAP1 DUP2 PUSH2 0x2688 JUMPI SWAP1 POP JUMPDEST POP SWAP1 POP PUSH1 0x0 DUP7 SWAP1 POP JUMPDEST DUP3 DUP2 LT ISZERO PUSH2 0x2788 JUMPI DUP4 PUSH1 0xA ADD PUSH1 0x0 DUP3 DUP2 MSTORE PUSH1 0x20 ADD SWAP1 DUP2 MSTORE PUSH1 0x20 ADD PUSH1 0x0 KECCAK256 DUP1 SLOAD PUSH2 0x26CE SWAP1 PUSH2 0x3BDA JUMP JUMPDEST DUP1 PUSH1 0x1F ADD PUSH1 0x20 DUP1 SWAP2 DIV MUL PUSH1 0x20 ADD PUSH1 0x40 MLOAD SWAP1 DUP2 ADD PUSH1 0x40 MSTORE DUP1 SWAP3 SWAP2 SWAP1 DUP2 DUP2 MSTORE PUSH1 0x20 ADD DUP3 DUP1 SLOAD PUSH2 0x26FA SWAP1 PUSH2 0x3BDA JUMP JUMPDEST DUP1 ISZERO PUSH2 0x2747 JUMPI DUP1 PUSH1 0x1F LT PUSH2 0x271C JUMPI PUSH2 0x100 DUP1 DUP4 SLOAD DIV MUL DUP4 MSTORE SWAP2 PUSH1 0x20 ADD SWAP2 PUSH2 0x2747 JUMP JUMPDEST DUP3 ADD SWAP2 SWAP1 PUSH1 0x0 MSTORE PUSH1 0x20 PUSH1 0x0 KECCAK256 SWAP1 JUMPDEST DUP2 SLOAD DUP2 MSTORE SWAP1 PUSH1 0x1 ADD SWAP1 PUSH1 0x20 ADD DUP1 DUP4 GT PUSH2 0x272A JUMPI DUP3 SWAP1 SUB PUSH1 0x1F AND DUP3 ADD SWAP2 JUMPDEST POP POP POP POP POP DUP3 DUP9 DUP4 PUSH2 0x2759 SWAP2 SWAP1 PUSH2 0x4B0B JUMP JUMPDEST DUP2 MLOAD DUP2 LT PUSH2 0x276A JUMPI PUSH2 0x2769 PUSH2 0x4335 JUMP JUMPDEST JUMPDEST PUSH1 0x20 MUL PUSH1 0x20 ADD ADD DUP2 SWAP1 MSTORE POP DUP1 DUP1 PUSH2 0x2780 SWAP1 PUSH2 0x42ED JUMP JUMPDEST SWAP2 POP POP PUSH2 0x26A6 JUMP JUMPDEST POP DUP1 SWAP4 POP POP POP POP SWAP4 SWAP3 POP POP POP JUMP JUMPDEST PUSH1 0x40 MLOAD DUP1 PUSH1 0x60 ADD PUSH1 0x40 MSTORE DUP1 PUSH1 0x0 DUP1 NOT AND DUP2 MSTORE PUSH1 0x20 ADD PUSH1 0x0 PUSH8 0xFFFFFFFFFFFFFFFF AND DUP2 MSTORE PUSH1 0x20 ADD PUSH1 0x0 PUSH8 0xFFFFFFFFFFFFFFFF AND DUP2 MSTORE POP SWAP1 JUMP JUMPDEST PUSH1 0x40 MLOAD DUP1 PUSH2 0x140 ADD PUSH1 0x40 MSTORE DUP1 PUSH1 0x0 PUSH20 0xFFFFFFFFFFFFFFFFFFFFFFFFFFFFFFFFFFFFFFFF AND DUP2 MSTORE PUSH1 0x20 ADD PUSH1 0x0 DUP1 NOT AND DUP2 MSTORE PUSH1 0x20 ADD PUSH1 0x0 PUSH8 0xFFFFFFFFFFFFFFFF AND DUP2 MSTORE PUSH1 0x20 ADD PUSH1 0x0 PUSH8 0xFFFFFFFFFFFFFFFF AND DUP2 MSTORE PUSH1 0x20 ADD PUSH1 0x0 PUSH8 0xFFFFFFFFFFFFFFFF AND DUP2 MSTORE PUSH1 0x20 ADD PUSH1 0x60 DUP2 MSTORE PUSH1 0x20 ADD PUSH1 0x60 DUP2 MSTORE PUSH1 0x20 ADD PUSH1 0x0 PUSH1 0x3 DUP2 GT ISZERO PUSH2 0x2856 JUMPI PUSH2 0x2855 PUSH2 0x2A9E JUMP JUMPDEST JUMPDEST DUP2 MSTORE PUSH1 0x20 ADD PUSH1 0x60 DUP2 MSTORE PUSH1 0x20 ADD PUSH1 0x60 DUP2 MSTORE POP SWAP1 JUMP JUMPDEST POP DUP1 SLOAD PUSH2 0x2876 SWAP1 PUSH2 0x3BDA JUMP JUMPDEST PUSH1 0x0 DUP3 SSTORE DUP1 PUSH1 0x1F LT PUSH2 0x2888 JUMPI POP PUSH2 0x28A7 JUMP JUMPDEST PUSH1 0x1F ADD PUSH1 0x20 SWAP1 DIV SWAP1 PUSH1 0x0 MSTORE PUSH1 0x20 PUSH1 0x0 KECCAK256 SWAP1 DUP2 ADD SWAP1 PUSH2 0x28A6 SWAP2 SWAP1 PUSH2 0x28AA JUMP JUMPDEST JUMPDEST POP JUMP JUMPDEST JUMPDEST DUP1 DUP3 GT ISZERO PUSH2 0x28C3 JUMPI PUSH1 0x0 DUP2 PUSH1 0x0 SWAP1 SSTORE POP PUSH1 0x1 ADD PUSH2 0x28AB JUMP JUMPDEST POP SWAP1 JUMP JUMPDEST PUSH1 0x0 PUSH1 0x40 MLOAD SWAP1 POP SWAP1 JUMP JUMPDEST PUSH1 0x0 DUP1 REVERT JUMPDEST PUSH1 0x0 DUP1 REVERT JUMPDEST PUSH1 0x0 DUP2 SWAP1 POP SWAP2 SWAP1 POP JUMP JUMPDEST PUSH2 0x28EE DUP2 PUSH2 0x28DB JUMP JUMPDEST DUP2 EQ PUSH2 0x28F9 JUMPI PUSH1 0x0 DUP1 REVERT JUMPDEST POP JUMP JUMPDEST PUSH1 0x0 DUP2 CALLDATALOAD SWAP1 POP PUSH2 0x290B DUP2 PUSH2 0x28E5 JUMP JUMPDEST SWAP3 SWAP2 POP POP JUMP JUMPDEST PUSH1 0x0 PUSH1 0x20 DUP3 DUP5 SUB SLT ISZERO PUSH2 0x2927 JUMPI PUSH2 0x2926 PUSH2 0x28D1 JUMP JUMPDEST JUMPDEST PUSH1 0x0 PUSH2 0x2935 DUP5 DUP3 DUP6 ADD PUSH2 0x28FC JUMP JUMPDEST SWAP2 POP POP SWAP3 SWAP2 POP POP JUMP JUMPDEST PUSH2 0x2947 DUP2 PUSH2 0x28DB JUMP JUMPDEST DUP3 MSTORE POP POP JUMP JUMPDEST PUSH1 0x0 PUSH8 0xFFFFFFFFFFFFFFFF DUP3 AND SWAP1 POP SWAP2 SWAP1 POP JUMP JUMPDEST PUSH2 0x296A DUP2 PUSH2 0x294D JUMP JUMPDEST DUP3 MSTORE POP POP JUMP JUMPDEST PUSH1 0x60 DUP3 ADD PUSH1 0x0 DUP3 ADD MLOAD PUSH2 0x2986 PUSH1 0x0 DUP6 ADD DUP3 PUSH2 0x293E JUMP JUMPDEST POP PUSH1 0x20 DUP3 ADD MLOAD PUSH2 0x2999 PUSH1 0x20 DUP6 ADD DUP3 PUSH2 0x2961 JUMP JUMPDEST POP PUSH1 0x40 DUP3 ADD MLOAD PUSH2 0x29AC PUSH1 0x40 DUP6 ADD DUP3 PUSH2 0x2961 JUMP JUMPDEST POP POP POP POP JUMP JUMPDEST PUSH1 0x0 PUSH1 0x60 DUP3 ADD SWAP1 POP PUSH2 0x29C7 PUSH1 0x0 DUP4 ADD DUP5 PUSH2 0x2970 JUMP JUMPDEST SWAP3 SWAP2 POP POP JUMP JUMPDEST PUSH1 0x0 PUSH20 0xFFFFFFFFFFFFFFFFFFFFFFFFFFFFFFFFFFFFFFFF DUP3 AND SWAP1 POP SWAP2 SWAP1 POP JUMP JUMPDEST PUSH1 0x0 PUSH2 0x29F8 DUP3 PUSH2 0x29CD JUMP JUMPDEST SWAP1 POP SWAP2 SWAP1 POP JUMP JUMPDEST PUSH2 0x2A08 DUP2 PUSH2 0x29ED JUMP JUMPDEST DUP3 MSTORE POP POP JUMP JUMPDEST PUSH1 0x0 DUP2 MLOAD SWAP1 POP SWAP2 SWAP1 POP JUMP JUMPDEST PUSH1 0x0 DUP3 DUP3 MSTORE PUSH1 0x20 DUP3 ADD SWAP1 POP SWAP3 SWAP2 POP POP JUMP JUMPDEST PUSH1 0x0 JUMPDEST DUP4 DUP2 LT ISZERO PUSH2 0x2A48 JUMPI DUP1 DUP3 ADD MLOAD DUP2 DUP5 ADD MSTORE PUSH1 0x20 DUP2 ADD SWAP1 POP PUSH2 0x2A2D JUMP JUMPDEST PUSH1 0x0 DUP5 DUP5 ADD MSTORE POP POP POP POP JUMP JUMPDEST PUSH1 0x0 PUSH1 0x1F NOT PUSH1 0x1F DUP4 ADD AND SWAP1 POP SWAP2 SWAP1 POP JUMP JUMPDEST PUSH1 0x0 PUSH2 0x2A70 DUP3 PUSH2 0x2A0E JUMP JUMPDEST PUSH2 0x2A7A DUP2 DUP6 PUSH2 0x2A19 JUMP JUMPDEST SWAP4 POP PUSH2 0x2A8A DUP2 DUP6 PUSH1 0x20 DUP7 ADD PUSH2 0x2A2A JUMP JUMPDEST PUSH2 0x2A93 DUP2 PUSH2 0x2A54 JUMP JUMPDEST DUP5 ADD SWAP2 POP POP SWAP3 SWAP2 POP POP JUMP JUMPDEST PUSH32 0x4E487B7100000000000000000000000000000000000000000000000000000000 PUSH1 0x0 MSTORE PUSH1 0x21 PUSH1 0x4 MSTORE PUSH1 0x24 PUSH1 0x0 REVERT JUMPDEST PUSH1 0x4 DUP2 LT PUSH2 0x2ADE JUMPI PUSH2 0x2ADD PUSH2 0x2A9E JUMP JUMPDEST JUMPDEST POP JUMP JUMPDEST PUSH1 0x0 DUP2 SWAP1 POP PUSH2 0x2AEF DUP3 PUSH2 0x2ACD JUMP JUMPDEST SWAP2 SWAP1 POP JUMP JUMPDEST PUSH1 0x0 PUSH2 0x2AFF DUP3 PUSH2 0x2AE1 JUMP JUMPDEST SWAP1 POP SWAP2 SWAP1 POP JUMP JUMPDEST PUSH2 0x2B0F DUP2 PUSH2 0x2AF4 JUMP JUMPDEST DUP3 MSTORE POP POP JUMP JUMPDEST PUSH1 0x0 PUSH2 0x140 DUP4 ADD PUSH1 0x0 DUP4 ADD MLOAD PUSH2 0x2B2E PUSH1 0x0 DUP7 ADD DUP3 PUSH2 0x29FF JUMP JUMPDEST POP PUSH1 0x20 DUP4 ADD MLOAD PUSH2 0x2B41 PUSH1 0x20 DUP7 ADD DUP3 PUSH2 0x293E JUMP JUMPDEST POP PUSH1 0x40 DUP4 ADD MLOAD PUSH2 0x2B54 PUSH1 0x40 DUP7 ADD DUP3 PUSH2 0x2961 JUMP JUMPDEST POP PUSH1 0x60 DUP4 ADD MLOAD PUSH2 0x2B67 PUSH1 0x60 DUP7 ADD DUP3 PUSH2 0x2961 JUMP JUMPDEST POP PUSH1 0x80 DUP4 ADD MLOAD PUSH2 0x2B7A PUSH1 0x80 DUP7 ADD DUP3 PUSH2 0x2961 JUMP JUMPDEST POP PUSH1 0xA0 DUP4 ADD MLOAD DUP5 DUP3 SUB PUSH1 0xA0 DUP7 ADD MSTORE PUSH2 0x2B92 DUP3 DUP3 PUSH2 0x2A65 JUMP JUMPDEST SWAP2 POP POP PUSH1 0xC0 DUP4 ADD MLOAD DUP5 DUP3 SUB PUSH1 0xC0 DUP7 ADD MSTORE PUSH2 0x2BAC DUP3 DUP3 PUSH2 0x2A65 JUMP JUMPDEST SWAP2 POP POP PUSH1 0xE0 DUP4 ADD MLOAD PUSH2 0x2BC1 PUSH1 0xE0 DUP7 ADD DUP3 PUSH2 0x2B06 JUMP JUMPDEST POP PUSH2 0x100 DUP4 ADD MLOAD DUP5 DUP3 SUB PUSH2 0x100 DUP7 ADD MSTORE PUSH2 0x2BDB DUP3 DUP3 PUSH2 0x2A65 JUMP JUMPDEST SWAP2 POP POP PUSH2 0x120 DUP4 ADD MLOAD DUP5 DUP3 SUB PUSH2 0x120 DUP7 ADD MSTORE PUSH2 0x2BF7 DUP3 DUP3 PUSH2 0x2A65 JUMP JUMPDEST SWAP2 POP POP DUP1 SWAP2 POP POP SWAP3 SWAP2 POP POP JUMP JUMPDEST PUSH1 0x0 PUSH1 0x20 DUP3 ADD SWAP1 POP DUP2 DUP2 SUB PUSH1 0x0 DUP4 ADD MSTORE PUSH2 0x2C1E DUP2 DUP5 PUSH2 0x2B15 JUMP JUMPDEST SWAP1 POP SWAP3 SWAP2 POP POP JUMP JUMPDEST PUSH1 0x0 DUP1 REVERT JUMPDEST PUSH1 0x0 DUP1 REVERT JUMPDEST PUSH32 0x4E487B7100000000000000000000000000000000000000000000000000000000 PUSH1 0x0 MSTORE PUSH1 0x41 PUSH1 0x4 MSTORE PUSH1 0x24 PUSH1 0x0 REVERT JUMPDEST PUSH2 0x2C68 DUP3 PUSH2 0x2A54 JUMP JUMPDEST DUP2 ADD DUP2 DUP2 LT PUSH8 0xFFFFFFFFFFFFFFFF DUP3 GT OR ISZERO PUSH2 0x2C87 JUMPI PUSH2 0x2C86 PUSH2 0x2C30 JUMP JUMPDEST JUMPDEST DUP1 PUSH1 0x40 MSTORE POP POP POP JUMP JUMPDEST PUSH1 0x0 PUSH2 0x2C9A PUSH2 0x28C7 JUMP JUMPDEST SWAP1 POP PUSH2 0x2CA6 DUP3 DUP3 PUSH2 0x2C5F JUMP JUMPDEST SWAP2 SWAP1 POP JUMP JUMPDEST PUSH1 0x0 PUSH8 0xFFFFFFFFFFFFFFFF DUP3 GT ISZERO PUSH2 0x2CC6 JUMPI PUSH2 0x2CC5 PUSH2 0x2C30 JUMP JUMPDEST JUMPDEST PUSH2 0x2CCF DUP3 PUSH2 0x2A54 JUMP JUMPDEST SWAP1 POP PUSH1 0x20 DUP2 ADD SWAP1 POP SWAP2 SWAP1 POP JUMP JUMPDEST DUP3 DUP2 DUP4 CALLDATACOPY PUSH1 0x0 DUP4 DUP4 ADD MSTORE POP POP POP JUMP JUMPDEST PUSH1 0x0 PUSH2 0x2CFE PUSH2 0x2CF9 DUP5 PUSH2 0x2CAB JUMP JUMPDEST PUSH2 0x2C90 JUMP JUMPDEST SWAP1 POP DUP3 DUP2 MSTORE PUSH1 0x20 DUP2 ADD DUP5 DUP5 DUP5 ADD GT ISZERO PUSH2 0x2D1A JUMPI PUSH2 0x2D19 PUSH2 0x2C2B JUMP JUMPDEST JUMPDEST PUSH2 0x2D25 DUP5 DUP3 DUP6 PUSH2 0x2CDC JUMP JUMPDEST POP SWAP4 SWAP3 POP POP POP JUMP JUMPDEST PUSH1 0x0 DUP3 PUSH1 0x1F DUP4 ADD SLT PUSH2 0x2D42 JUMPI PUSH2 0x2D41 PUSH2 0x2C26 JUMP JUMPDEST JUMPDEST DUP2 CALLDATALOAD PUSH2 0x2D52 DUP5 DUP3 PUSH1 0x20 DUP7 ADD PUSH2 0x2CEB JUMP JUMPDEST SWAP2 POP POP SWAP3 SWAP2 POP POP JUMP JUMPDEST PUSH1 0x0 DUP1 PUSH1 0x0 PUSH1 0x60 DUP5 DUP7 SUB SLT ISZERO PUSH2 0x2D74 JUMPI PUSH2 0x2D73 PUSH2 0x28D1 JUMP JUMPDEST JUMPDEST PUSH1 0x0 PUSH2 0x2D82 DUP7 DUP3 DUP8 ADD PUSH2 0x28FC JUMP JUMPDEST SWAP4 POP POP PUSH1 0x20 DUP5 ADD CALLDATALOAD PUSH8 0xFFFFFFFFFFFFFFFF DUP2 GT ISZERO PUSH2 0x2DA3 JUMPI PUSH2 0x2DA2 PUSH2 0x28D6 JUMP JUMPDEST JUMPDEST PUSH2 0x2DAF DUP7 DUP3 DUP8 ADD PUSH2 0x2D2D JUMP JUMPDEST SWAP3 POP POP PUSH1 0x40 PUSH2 0x2DC0 DUP7 DUP3 DUP8 ADD PUSH2 0x28FC JUMP JUMPDEST SWAP2 POP POP SWAP3 POP SWAP3 POP SWAP3 JUMP JUMPDEST PUSH1 0x0 PUSH8 0xFFFFFFFFFFFFFFFF DUP3 GT ISZERO PUSH2 0x2DE5 JUMPI PUSH2 0x2DE4 PUSH2 0x2C30 JUMP JUMPDEST JUMPDEST PUSH1 0x20 DUP3 MUL SWAP1 POP PUSH1 0x20 DUP2 ADD SWAP1 POP SWAP2 SWAP1 POP JUMP JUMPDEST PUSH1 0x0 DUP1 REVERT JUMPDEST PUSH1 0x0 DUP1 REVERT JUMPDEST PUSH1 0x0 DUP1 REVERT JUMPDEST PUSH2 0x2E0E DUP2 PUSH2 0x29ED JUMP JUMPDEST DUP2 EQ PUSH2 0x2E19 JUMPI PUSH1 0x0 DUP1 REVERT JUMPDEST POP JUMP JUMPDEST PUSH1 0x0 DUP2 CALLDATALOAD SWAP1 POP PUSH2 0x2E2B DUP2 PUSH2 0x2E05 JUMP JUMPDEST SWAP3 SWAP2 POP POP JUMP JUMPDEST PUSH2 0x2E3A DUP2 PUSH2 0x294D JUMP JUMPDEST DUP2 EQ PUSH2 0x2E45 JUMPI PUSH1 0x0 DUP1 REVERT JUMPDEST POP JUMP JUMPDEST PUSH1 0x0 DUP2 CALLDATALOAD SWAP1 POP PUSH2 0x2E57 DUP2 PUSH2 0x2E31 JUMP JUMPDEST SWAP3 SWAP2 POP POP JUMP JUMPDEST PUSH1 0x0 PUSH8 0xFFFFFFFFFFFFFFFF DUP3 GT ISZERO PUSH2 0x2E78 JUMPI PUSH2 0x2E77 PUSH2 0x2C30 JUMP JUMPDEST JUMPDEST PUSH2 0x2E81 DUP3 PUSH2 0x2A54 JUMP JUMPDEST SWAP1 POP PUSH1 0x20 DUP2 ADD SWAP1 POP SWAP2 SWAP1 POP JUMP JUMPDEST PUSH1 0x0 PUSH2 0x2EA1 PUSH2 0x2E9C DUP5 PUSH2 0x2E5D JUMP JUMPDEST PUSH2 0x2C90 JUMP JUMPDEST SWAP1 POP DUP3 DUP2 MSTORE PUSH1 0x20 DUP2 ADD DUP5 DUP5 DUP5 ADD GT ISZERO PUSH2 0x2EBD JUMPI PUSH2 0x2EBC PUSH2 0x2C2B JUMP JUMPDEST JUMPDEST PUSH2 0x2EC8 DUP5 DUP3 DUP6 PUSH2 0x2CDC JUMP JUMPDEST POP SWAP4 SWAP3 POP POP POP JUMP JUMPDEST PUSH1 0x0 DUP3 PUSH1 0x1F DUP4 ADD SLT PUSH2 0x2EE5 JUMPI PUSH2 0x2EE4 PUSH2 0x2C26 JUMP JUMPDEST JUMPDEST DUP2 CALLDATALOAD PUSH2 0x2EF5 DUP5 DUP3 PUSH1 0x20 DUP7 ADD PUSH2 0x2E8E JUMP JUMPDEST SWAP2 POP POP SWAP3 SWAP2 POP POP JUMP JUMPDEST PUSH1 0x4 DUP2 LT PUSH2 0x2F0B JUMPI PUSH1 0x0 DUP1 REVERT JUMPDEST POP JUMP JUMPDEST PUSH1 0x0 DUP2 CALLDATALOAD SWAP1 POP PUSH2 0x2F1D DUP2 PUSH2 0x2EFE JUMP JUMPDEST SWAP3 SWAP2 POP POP JUMP JUMPDEST PUSH1 0x0 PUSH2 0x140 DUP3 DUP5 SUB SLT ISZERO PUSH2 0x2F3A JUMPI PUSH2 0x2F39 PUSH2 0x2DFB JUMP JUMPDEST JUMPDEST PUSH2 0x2F45 PUSH2 0x140 PUSH2 0x2C90 JUMP JUMPDEST SWAP1 POP PUSH1 0x0 PUSH2 0x2F55 DUP5 DUP3 DUP6 ADD PUSH2 0x2E1C JUMP JUMPDEST PUSH1 0x0 DUP4 ADD MSTORE POP PUSH1 0x20 PUSH2 0x2F69 DUP5 DUP3 DUP6 ADD PUSH2 0x28FC JUMP JUMPDEST PUSH1 0x20 DUP4 ADD MSTORE POP PUSH1 0x40 PUSH2 0x2F7D DUP5 DUP3 DUP6 ADD PUSH2 0x2E48 JUMP JUMPDEST PUSH1 0x40 DUP4 ADD MSTORE POP PUSH1 0x60 PUSH2 0x2F91 DUP5 DUP3 DUP6 ADD PUSH2 0x2E48 JUMP JUMPDEST PUSH1 0x60 DUP4 ADD MSTORE POP PUSH1 0x80 PUSH2 0x2FA5 DUP5 DUP3 DUP6 ADD PUSH2 0x2E48 JUMP JUMPDEST PUSH1 0x80 DUP4 ADD MSTORE POP PUSH1 0xA0 DUP3 ADD CALLDATALOAD PUSH8 0xFFFFFFFFFFFFFFFF DUP2 GT ISZERO PUSH2 0x2FC9 JUMPI PUSH2 0x2FC8 PUSH2 0x2E00 JUMP JUMPDEST JUMPDEST PUSH2 0x2FD5 DUP5 DUP3 DUP6 ADD PUSH2 0x2ED0 JUMP JUMPDEST PUSH1 0xA0 DUP4 ADD MSTORE POP PUSH1 0xC0 DUP3 ADD CALLDATALOAD PUSH8 0xFFFFFFFFFFFFFFFF DUP2 GT ISZERO PUSH2 0x2FF9 JUMPI PUSH2 0x2FF8 PUSH2 0x2E00 JUMP JUMPDEST JUMPDEST PUSH2 0x3005 DUP5 DUP3 DUP6 ADD PUSH2 0x2ED0 JUMP JUMPDEST PUSH1 0xC0 DUP4 ADD MSTORE POP PUSH1 0xE0 PUSH2 0x3019 DUP5 DUP3 DUP6 ADD PUSH2 0x2F0E JUMP JUMPDEST PUSH1 0xE0 DUP4 ADD MSTORE POP PUSH2 0x100 DUP3 ADD CALLDATALOAD PUSH8 0xFFFFFFFFFFFFFFFF DUP2 GT ISZERO PUSH2 0x303E JUMPI PUSH2 0x303D PUSH2 0x2E00 JUMP JUMPDEST JUMPDEST PUSH2 0x304A DUP5 DUP3 DUP6 ADD PUSH2 0x2ED0 JUMP JUMPDEST PUSH2 0x100 DUP4 ADD MSTORE POP PUSH2 0x120 DUP3 ADD CALLDATALOAD PUSH8 0xFFFFFFFFFFFFFFFF DUP2 GT ISZERO PUSH2 0x3070 JUMPI PUSH2 0x306F PUSH2 0x2E00 JUMP JUMPDEST JUMPDEST PUSH2 0x307C DUP5 DUP3 DUP6 ADD PUSH2 0x2ED0 JUMP JUMPDEST PUSH2 0x120 DUP4 ADD MSTORE POP SWAP3 SWAP2 POP POP JUMP JUMPDEST PUSH1 0x0 PUSH2 0x309C PUSH2 0x3097 DUP5 PUSH2 0x2DCA JUMP JUMPDEST PUSH2 0x2C90 JUMP JUMPDEST SWAP1 POP DUP1 DUP4 DUP3 MSTORE PUSH1 0x20 DUP3 ADD SWAP1 POP PUSH1 0x20 DUP5 MUL DUP4 ADD DUP6 DUP2 GT ISZERO PUSH2 0x30BF JUMPI PUSH2 0x30BE PUSH2 0x2DF6 JUMP JUMPDEST JUMPDEST DUP4 JUMPDEST DUP2 DUP2 LT ISZERO PUSH2 0x3106 JUMPI DUP1 CALLDATALOAD PUSH8 0xFFFFFFFFFFFFFFFF DUP2 GT ISZERO PUSH2 0x30E4 JUMPI PUSH2 0x30E3 PUSH2 0x2C26 JUMP JUMPDEST JUMPDEST DUP1 DUP7 ADD PUSH2 0x30F1 DUP10 DUP3 PUSH2 0x2F23 JUMP JUMPDEST DUP6 MSTORE PUSH1 0x20 DUP6 ADD SWAP5 POP POP POP PUSH1 0x20 DUP2 ADD SWAP1 POP PUSH2 0x30C1 JUMP JUMPDEST POP POP POP SWAP4 SWAP3 POP POP POP JUMP JUMPDEST PUSH1 0x0 DUP3 PUSH1 0x1F DUP4 ADD SLT PUSH2 0x3125 JUMPI PUSH2 0x3124 PUSH2 0x2C26 JUMP JUMPDEST JUMPDEST DUP2 CALLDATALOAD PUSH2 0x3135 DUP5 DUP3 PUSH1 0x20 DUP7 ADD PUSH2 0x3089 JUMP JUMPDEST SWAP2 POP POP SWAP3 SWAP2 POP POP JUMP JUMPDEST PUSH1 0x0 PUSH1 0x20 DUP3 DUP5 SUB SLT ISZERO PUSH2 0x3154 JUMPI PUSH2 0x3153 PUSH2 0x28D1 JUMP JUMPDEST JUMPDEST PUSH1 0x0 DUP3 ADD CALLDATALOAD PUSH8 0xFFFFFFFFFFFFFFFF DUP2 GT ISZERO PUSH2 0x3172 JUMPI PUSH2 0x3171 PUSH2 0x28D6 JUMP JUMPDEST JUMPDEST PUSH2 0x317E DUP5 DUP3 DUP6 ADD PUSH2 0x3110 JUMP JUMPDEST SWAP2 POP POP SWAP3 SWAP2 POP POP JUMP JUMPDEST PUSH1 0x0 DUP2 MLOAD SWAP1 POP SWAP2 SWAP1 POP JUMP JUMPDEST PUSH1 0x0 DUP3 DUP3 MSTORE PUSH1 0x20 DUP3 ADD SWAP1 POP SWAP3 SWAP2 POP POP JUMP JUMPDEST PUSH1 0x0 DUP2 SWAP1 POP PUSH1 0x20 DUP3 ADD SWAP1 POP SWAP2 SWAP1 POP JUMP JUMPDEST PUSH1 0x0 PUSH2 0x31BF DUP4 DUP4 PUSH2 0x293E JUMP JUMPDEST PUSH1 0x20 DUP4 ADD SWAP1 POP SWAP3 SWAP2 POP POP JUMP JUMPDEST PUSH1 0x0 PUSH1 0x20 DUP3 ADD SWAP1 POP SWAP2 SWAP1 POP JUMP JUMPDEST PUSH1 0x0 PUSH2 0x31E3 DUP3 PUSH2 0x3187 JUMP JUMPDEST PUSH2 0x31ED DUP2 DUP6 PUSH2 0x3192 JUMP JUMPDEST SWAP4 POP PUSH2 0x31F8 DUP4 PUSH2 0x31A3 JUMP JUMPDEST DUP1 PUSH1 0x0 JUMPDEST DUP4 DUP2 LT ISZERO PUSH2 0x3229 JUMPI DUP2 MLOAD PUSH2 0x3210 DUP9 DUP3 PUSH2 0x31B3 JUMP JUMPDEST SWAP8 POP PUSH2 0x321B DUP4 PUSH2 0x31CB JUMP JUMPDEST SWAP3 POP POP PUSH1 0x1 DUP2 ADD SWAP1 POP PUSH2 0x31FC JUMP JUMPDEST POP DUP6 SWAP4 POP POP POP POP SWAP3 SWAP2 POP POP JUMP JUMPDEST PUSH1 0x0 PUSH1 0x20 DUP3 ADD SWAP1 POP DUP2 DUP2 SUB PUSH1 0x0 DUP4 ADD MSTORE PUSH2 0x3250 DUP2 DUP5 PUSH2 0x31D8 JUMP JUMPDEST SWAP1 POP SWAP3 SWAP2 POP POP JUMP JUMPDEST PUSH2 0x3261 DUP2 PUSH2 0x29ED JUMP JUMPDEST DUP3 MSTORE POP POP JUMP JUMPDEST PUSH1 0x0 PUSH1 0x20 DUP3 ADD SWAP1 POP PUSH2 0x327C PUSH1 0x0 DUP4 ADD DUP5 PUSH2 0x3258 JUMP JUMPDEST SWAP3 SWAP2 POP POP JUMP JUMPDEST PUSH1 0x0 PUSH8 0xFFFFFFFFFFFFFFFF DUP3 GT ISZERO PUSH2 0x329D JUMPI PUSH2 0x329C PUSH2 0x2C30 JUMP JUMPDEST JUMPDEST PUSH1 0x20 DUP3 MUL SWAP1 POP PUSH1 0x20 DUP2 ADD SWAP1 POP SWAP2 SWAP1 POP JUMP JUMPDEST PUSH1 0x0 PUSH2 0x32C1 PUSH2 0x32BC DUP5 PUSH2 0x3282 JUMP JUMPDEST PUSH2 0x2C90 JUMP JUMPDEST SWAP1 POP DUP1 DUP4 DUP3 MSTORE PUSH1 0x20 DUP3 ADD SWAP1 POP PUSH1 0x20 DUP5 MUL DUP4 ADD DUP6 DUP2 GT ISZERO PUSH2 0x32E4 JUMPI PUSH2 0x32E3 PUSH2 0x2DF6 JUMP JUMPDEST JUMPDEST DUP4 JUMPDEST DUP2 DUP2 LT ISZERO PUSH2 0x330D JUMPI DUP1 PUSH2 0x32F9 DUP9 DUP3 PUSH2 0x28FC JUMP JUMPDEST DUP5 MSTORE PUSH1 0x20 DUP5 ADD SWAP4 POP POP PUSH1 0x20 DUP2 ADD SWAP1 POP PUSH2 0x32E6 JUMP JUMPDEST POP POP POP SWAP4 SWAP3 POP POP POP JUMP JUMPDEST PUSH1 0x0 DUP3 PUSH1 0x1F DUP4 ADD SLT PUSH2 0x332C JUMPI PUSH2 0x332B PUSH2 0x2C26 JUMP JUMPDEST JUMPDEST DUP2 CALLDATALOAD PUSH2 0x333C DUP5 DUP3 PUSH1 0x20 DUP7 ADD PUSH2 0x32AE JUMP JUMPDEST SWAP2 POP POP SWAP3 SWAP2 POP POP JUMP JUMPDEST PUSH1 0x0 PUSH8 0xFFFFFFFFFFFFFFFF DUP3 GT ISZERO PUSH2 0x3360 JUMPI PUSH2 0x335F PUSH2 0x2C30 JUMP JUMPDEST JUMPDEST PUSH1 0x20 DUP3 MUL SWAP1 POP PUSH1 0x20 DUP2 ADD SWAP1 POP SWAP2 SWAP1 POP JUMP JUMPDEST PUSH1 0x0 PUSH2 0x3384 PUSH2 0x337F DUP5 PUSH2 0x3345 JUMP JUMPDEST PUSH2 0x2C90 JUMP JUMPDEST SWAP1 POP DUP1 DUP4 DUP3 MSTORE PUSH1 0x20 DUP3 ADD SWAP1 POP PUSH1 0x20 DUP5 MUL DUP4 ADD DUP6 DUP2 GT ISZERO PUSH2 0x33A7 JUMPI PUSH2 0x33A6 PUSH2 0x2DF6 JUMP JUMPDEST JUMPDEST DUP4 JUMPDEST DUP2 DUP2 LT ISZERO PUSH2 0x33EE JUMPI DUP1 CALLDATALOAD PUSH8 0xFFFFFFFFFFFFFFFF DUP2 GT ISZERO PUSH2 0x33CC JUMPI PUSH2 0x33CB PUSH2 0x2C26 JUMP JUMPDEST JUMPDEST DUP1 DUP7 ADD PUSH2 0x33D9 DUP10 DUP3 PUSH2 0x2D2D JUMP JUMPDEST DUP6 MSTORE PUSH1 0x20 DUP6 ADD SWAP5 POP POP POP PUSH1 0x20 DUP2 ADD SWAP1 POP PUSH2 0x33A9 JUMP JUMPDEST POP POP POP SWAP4 SWAP3 POP POP POP JUMP JUMPDEST PUSH1 0x0 DUP3 PUSH1 0x1F DUP4 ADD SLT PUSH2 0x340D JUMPI PUSH2 0x340C PUSH2 0x2C26 JUMP JUMPDEST JUMPDEST DUP2 CALLDATALOAD PUSH2 0x341D DUP5 DUP3 PUSH1 0x20 DUP7 ADD PUSH2 0x3371 JUMP JUMPDEST SWAP2 POP POP SWAP3 SWAP2 POP POP JUMP JUMPDEST PUSH1 0x0 DUP1 PUSH1 0x0 PUSH1 0x60 DUP5 DUP7 SUB SLT ISZERO PUSH2 0x343F JUMPI PUSH2 0x343E PUSH2 0x28D1 JUMP JUMPDEST JUMPDEST PUSH1 0x0 DUP5 ADD CALLDATALOAD PUSH8 0xFFFFFFFFFFFFFFFF DUP2 GT ISZERO PUSH2 0x345D JUMPI PUSH2 0x345C PUSH2 0x28D6 JUMP JUMPDEST JUMPDEST PUSH2 0x3469 DUP7 DUP3 DUP8 ADD PUSH2 0x3317 JUMP JUMPDEST SWAP4 POP POP PUSH1 0x20 DUP5 ADD CALLDATALOAD PUSH8 0xFFFFFFFFFFFFFFFF DUP2 GT ISZERO PUSH2 0x348A JUMPI PUSH2 0x3489 PUSH2 0x28D6 JUMP JUMPDEST JUMPDEST PUSH2 0x3496 DUP7 DUP3 DUP8 ADD PUSH2 0x33F8 JUMP JUMPDEST SWAP3 POP POP PUSH1 0x40 DUP5 ADD CALLDATALOAD PUSH8 0xFFFFFFFFFFFFFFFF DUP2 GT ISZERO PUSH2 0x34B7 JUMPI PUSH2 0x34B6 PUSH2 0x28D6 JUMP JUMPDEST JUMPDEST PUSH2 0x34C3 DUP7 DUP3 DUP8 ADD PUSH2 0x3317 JUMP JUMPDEST SWAP2 POP POP SWAP3 POP SWAP3 POP SWAP3 JUMP JUMPDEST PUSH1 0x0 DUP1 PUSH1 0x40 DUP4 DUP6 SUB SLT ISZERO PUSH2 0x34E4 JUMPI PUSH2 0x34E3 PUSH2 0x28D1 JUMP JUMPDEST JUMPDEST PUSH1 0x0 PUSH2 0x34F2 DUP6 DUP3 DUP7 ADD PUSH2 0x28FC JUMP JUMPDEST SWAP3 POP POP PUSH1 0x20 PUSH2 0x3503 DUP6 DUP3 DUP7 ADD PUSH2 0x2E48 JUMP JUMPDEST SWAP2 POP POP SWAP3 POP SWAP3 SWAP1 POP JUMP JUMPDEST PUSH1 0x0 PUSH1 0x20 DUP3 DUP5 SUB SLT ISZERO PUSH2 0x3523 JUMPI PUSH2 0x3522 PUSH2 0x28D1 JUMP JUMPDEST JUMPDEST PUSH1 0x0 PUSH2 0x3531 DUP5 DUP3 DUP6 ADD PUSH2 0x2E1C JUMP JUMPDEST SWAP2 POP POP SWAP3 SWAP2 POP POP JUMP JUMPDEST PUSH1 0x0 PUSH1 0x80 DUP3 ADD SWAP1 POP DUP2 DUP2 SUB PUSH1 0x0 DUP4 ADD MSTORE PUSH2 0x3554 DUP2 DUP6 PUSH2 0x2B15 JUMP JUMPDEST SWAP1 POP PUSH2 0x3563 PUSH1 0x20 DUP4 ADD DUP5 PUSH2 0x2970 JUMP JUMPDEST SWAP4 SWAP3 POP POP POP JUMP JUMPDEST PUSH1 0x0 PUSH1 0x20 DUP3 DUP5 SUB SLT ISZERO PUSH2 0x3580 JUMPI PUSH2 0x357F PUSH2 0x28D1 JUMP JUMPDEST JUMPDEST PUSH1 0x0 DUP3 ADD CALLDATALOAD PUSH8 0xFFFFFFFFFFFFFFFF DUP2 GT ISZERO PUSH2 0x359E JUMPI PUSH2 0x359D PUSH2 0x28D6 JUMP JUMPDEST JUMPDEST PUSH2 0x35AA DUP5 DUP3 DUP6 ADD PUSH2 0x2F23 JUMP JUMPDEST SWAP2 POP POP SWAP3 SWAP2 POP POP JUMP JUMPDEST PUSH2 0x35BC DUP2 PUSH2 0x28DB JUMP JUMPDEST DUP3 MSTORE POP POP JUMP JUMPDEST PUSH1 0x0 PUSH1 0x20 DUP3 ADD SWAP1 POP PUSH2 0x35D7 PUSH1 0x0 DUP4 ADD DUP5 PUSH2 0x35B3 JUMP JUMPDEST SWAP3 SWAP2 POP POP JUMP JUMPDEST PUSH1 0x0 PUSH1 0x20 DUP3 DUP5 SUB SLT ISZERO PUSH2 0x35F3 JUMPI PUSH2 0x35F2 PUSH2 0x28D1 JUMP JUMPDEST JUMPDEST PUSH1 0x0 DUP3 ADD CALLDATALOAD PUSH8 0xFFFFFFFFFFFFFFFF DUP2 GT ISZERO PUSH2 0x3611 JUMPI PUSH2 0x3610 PUSH2 0x28D6 JUMP JUMPDEST JUMPDEST PUSH2 0x361D DUP5 DUP3 DUP6 ADD PUSH2 0x3317 JUMP JUMPDEST SWAP2 POP POP SWAP3 SWAP2 POP POP JUMP JUMPDEST PUSH1 0x0 DUP2 MLOAD SWAP1 POP SWAP2 SWAP1 POP JUMP JUMPDEST PUSH1 0x0 DUP3 DUP3 MSTORE PUSH1 0x20 DUP3 ADD SWAP1 POP SWAP3 SWAP2 POP POP JUMP JUMPDEST PUSH1 0x0 DUP2 SWAP1 POP PUSH1 0x20 DUP3 ADD SWAP1 POP SWAP2 SWAP1 POP JUMP JUMPDEST PUSH1 0x0 PUSH2 0x140 DUP4 ADD PUSH1 0x0 DUP4 ADD MLOAD PUSH2 0x366B PUSH1 0x0 DUP7 ADD DUP3 PUSH2 0x29FF JUMP JUMPDEST POP PUSH1 0x20 DUP4 ADD MLOAD PUSH2 0x367E PUSH1 0x20 DUP7 ADD DUP3 PUSH2 0x293E JUMP JUMPDEST POP PUSH1 0x40 DUP4 ADD MLOAD PUSH2 0x3691 PUSH1 0x40 DUP7 ADD DUP3 PUSH2 0x2961 JUMP JUMPDEST POP PUSH1 0x60 DUP4 ADD MLOAD PUSH2 0x36A4 PUSH1 0x60 DUP7 ADD DUP3 PUSH2 0x2961 JUMP JUMPDEST POP PUSH1 0x80 DUP4 ADD MLOAD PUSH2 0x36B7 PUSH1 0x80 DUP7 ADD DUP3 PUSH2 0x2961 JUMP JUMPDEST POP PUSH1 0xA0 DUP4 ADD MLOAD DUP5 DUP3 SUB PUSH1 0xA0 DUP7 ADD MSTORE PUSH2 0x36CF DUP3 DUP3 PUSH2 0x2A65 JUMP JUMPDEST SWAP2 POP POP PUSH1 0xC0 DUP4 ADD MLOAD DUP5 DUP3 SUB PUSH1 0xC0 DUP7 ADD MSTORE PUSH2 0x36E9 DUP3 DUP3 PUSH2 0x2A65 JUMP JUMPDEST SWAP2 POP POP PUSH1 0xE0 DUP4 ADD MLOAD PUSH2 0x36FE PUSH1 0xE0 DUP7 ADD DUP3 PUSH2 0x2B06 JUMP JUMPDEST POP PUSH2 0x100 DUP4 ADD MLOAD DUP5 DUP3 SUB PUSH2 0x100 DUP7 ADD MSTORE PUSH2 0x3718 DUP3 DUP3 PUSH2 0x2A65 JUMP JUMPDEST SWAP2 POP POP PUSH2 0x120 DUP4 ADD MLOAD DUP5 DUP3 SUB PUSH2 0x120 DUP7 ADD MSTORE PUSH2 0x3734 DUP3 DUP3 PUSH2 0x2A65 JUMP JUMPDEST SWAP2 POP POP DUP1 SWAP2 POP POP SWAP3 SWAP2 POP POP JUMP JUMPDEST PUSH1 0x0 PUSH2 0x374D DUP4 DUP4 PUSH2 0x3652 JUMP JUMPDEST SWAP1 POP SWAP3 SWAP2 POP POP JUMP JUMPDEST PUSH1 0x0 PUSH1 0x20 DUP3 ADD SWAP1 POP SWAP2 SWAP1 POP JUMP JUMPDEST PUSH1 0x0 PUSH2 0x376D DUP3 PUSH2 0x3626 JUMP JUMPDEST PUSH2 0x3777 DUP2 DUP6 PUSH2 0x3631 JUMP JUMPDEST SWAP4 POP DUP4 PUSH1 0x20 DUP3 MUL DUP6 ADD PUSH2 0x3789 DUP6 PUSH2 0x3642 JUMP JUMPDEST DUP1 PUSH1 0x0 JUMPDEST DUP6 DUP2 LT ISZERO PUSH2 0x37C5 JUMPI DUP5 DUP5 SUB DUP10 MSTORE DUP2 MLOAD PUSH2 0x37A6 DUP6 DUP3 PUSH2 0x3741 JUMP JUMPDEST SWAP5 POP PUSH2 0x37B1 DUP4 PUSH2 0x3755 JUMP JUMPDEST SWAP3 POP PUSH1 0x20 DUP11 ADD SWAP10 POP POP PUSH1 0x1 DUP2 ADD SWAP1 POP PUSH2 0x378D JUMP JUMPDEST POP DUP3 SWAP8 POP DUP8 SWAP6 POP POP POP POP POP POP SWAP3 SWAP2 POP POP JUMP JUMPDEST PUSH1 0x0 PUSH1 0x20 DUP3 ADD SWAP1 POP DUP2 DUP2 SUB PUSH1 0x0 DUP4 ADD MSTORE PUSH2 0x37F1 DUP2 DUP5 PUSH2 0x3762 JUMP JUMPDEST SWAP1 POP SWAP3 SWAP2 POP POP JUMP JUMPDEST PUSH1 0x0 PUSH1 0x20 DUP3 DUP5 SUB SLT ISZERO PUSH2 0x380F JUMPI PUSH2 0x380E PUSH2 0x28D1 JUMP JUMPDEST JUMPDEST PUSH1 0x0 DUP3 ADD CALLDATALOAD PUSH8 0xFFFFFFFFFFFFFFFF DUP2 GT ISZERO PUSH2 0x382D JUMPI PUSH2 0x382C PUSH2 0x28D6 JUMP JUMPDEST JUMPDEST PUSH2 0x3839 DUP5 DUP3 DUP6 ADD PUSH2 0x2ED0 JUMP JUMPDEST SWAP2 POP POP SWAP3 SWAP2 POP POP JUMP JUMPDEST PUSH1 0x0 PUSH8 0xFFFFFFFFFFFFFFFF DUP3 GT ISZERO PUSH2 0x385D JUMPI PUSH2 0x385C PUSH2 0x2C30 JUMP JUMPDEST JUMPDEST PUSH1 0x20 DUP3 MUL SWAP1 POP PUSH1 0x20 DUP2 ADD SWAP1 POP SWAP2 SWAP1 POP JUMP JUMPDEST PUSH1 0x0 PUSH2 0x3881 PUSH2 0x387C DUP5 PUSH2 0x3842 JUMP JUMPDEST PUSH2 0x2C90 JUMP JUMPDEST SWAP1 POP DUP1 DUP4 DUP3 MSTORE PUSH1 0x20 DUP3 ADD SWAP1 POP PUSH1 0x20 DUP5 MUL DUP4 ADD DUP6 DUP2 GT ISZERO PUSH2 0x38A4 JUMPI PUSH2 0x38A3 PUSH2 0x2DF6 JUMP JUMPDEST JUMPDEST DUP4 JUMPDEST DUP2 DUP2 LT ISZERO PUSH2 0x38EB JUMPI DUP1 CALLDATALOAD PUSH8 0xFFFFFFFFFFFFFFFF DUP2 GT ISZERO PUSH2 0x38C9 JUMPI PUSH2 0x38C8 PUSH2 0x2C26 JUMP JUMPDEST JUMPDEST DUP1 DUP7 ADD PUSH2 0x38D6 DUP10 DUP3 PUSH2 0x2ED0 JUMP JUMPDEST DUP6 MSTORE PUSH1 0x20 DUP6 ADD SWAP5 POP POP POP PUSH1 0x20 DUP2 ADD SWAP1 POP PUSH2 0x38A6 JUMP JUMPDEST POP POP POP SWAP4 SWAP3 POP POP POP JUMP JUMPDEST PUSH1 0x0 DUP3 PUSH1 0x1F DUP4 ADD SLT PUSH2 0x390A JUMPI PUSH2 0x3909 PUSH2 0x2C26 JUMP JUMPDEST JUMPDEST DUP2 CALLDATALOAD PUSH2 0x391A DUP5 DUP3 PUSH1 0x20 DUP7 ADD PUSH2 0x386E JUMP JUMPDEST SWAP2 POP POP SWAP3 SWAP2 POP POP JUMP JUMPDEST PUSH1 0x0 PUSH1 0x20 DUP3 DUP5 SUB SLT ISZERO PUSH2 0x3939 JUMPI PUSH2 0x3938 PUSH2 0x28D1 JUMP JUMPDEST JUMPDEST PUSH1 0x0 DUP3 ADD CALLDATALOAD PUSH8 0xFFFFFFFFFFFFFFFF DUP2 GT ISZERO PUSH2 0x3957 JUMPI PUSH2 0x3956 PUSH2 0x28D6 JUMP JUMPDEST JUMPDEST PUSH2 0x3963 DUP5 DUP3 DUP6 ADD PUSH2 0x38F5 JUMP JUMPDEST SWAP2 POP POP SWAP3 SWAP2 POP POP JUMP JUMPDEST PUSH1 0x0 DUP2 SWAP1 POP SWAP2 SWAP1 POP JUMP JUMPDEST PUSH2 0x397F DUP2 PUSH2 0x396C JUMP JUMPDEST DUP2 EQ PUSH2 0x398A JUMPI PUSH1 0x0 DUP1 REVERT JUMPDEST POP JUMP JUMPDEST PUSH1 0x0 DUP2 CALLDATALOAD SWAP1 POP PUSH2 0x399C DUP2 PUSH2 0x3976 JUMP JUMPDEST SWAP3 SWAP2 POP POP JUMP JUMPDEST PUSH1 0x0 DUP1 PUSH1 0x0 PUSH1 0x60 DUP5 DUP7 SUB SLT ISZERO PUSH2 0x39BB JUMPI PUSH2 0x39BA PUSH2 0x28D1 JUMP JUMPDEST JUMPDEST PUSH1 0x0 PUSH2 0x39C9 DUP7 DUP3 DUP8 ADD PUSH2 0x28FC JUMP JUMPDEST SWAP4 POP POP PUSH1 0x20 PUSH2 0x39DA DUP7 DUP3 DUP8 ADD PUSH2 0x398D JUMP JUMPDEST SWAP3 POP POP PUSH1 0x40 PUSH2 0x39EB DUP7 DUP3 DUP8 ADD PUSH2 0x398D JUMP JUMPDEST SWAP2 POP POP SWAP3 POP SWAP3 POP SWAP3 JUMP JUMPDEST PUSH1 0x0 DUP2 MLOAD SWAP1 POP SWAP2 SWAP1 POP JUMP JUMPDEST PUSH1 0x0 DUP3 DUP3 MSTORE PUSH1 0x20 DUP3 ADD SWAP1 POP SWAP3 SWAP2 POP POP JUMP JUMPDEST PUSH1 0x0 DUP2 SWAP1 POP PUSH1 0x20 DUP3 ADD SWAP1 POP SWAP2 SWAP1 POP JUMP JUMPDEST PUSH1 0x0 DUP2 MLOAD SWAP1 POP SWAP2 SWAP1 POP JUMP JUMPDEST PUSH1 0x0 DUP3 DUP3 MSTORE PUSH1 0x20 DUP3 ADD SWAP1 POP SWAP3 SWAP2 POP POP JUMP JUMPDEST PUSH1 0x0 PUSH2 0x3A48 DUP3 PUSH2 0x3A21 JUMP JUMPDEST PUSH2 0x3A52 DUP2 DUP6 PUSH2 0x3A2C JUMP JUMPDEST SWAP4 POP PUSH2 0x3A62 DUP2 DUP6 PUSH1 0x20 DUP7 ADD PUSH2 0x2A2A JUMP JUMPDEST PUSH2 0x3A6B DUP2 PUSH2 0x2A54 JUMP JUMPDEST DUP5 ADD SWAP2 POP POP SWAP3 SWAP2 POP POP JUMP JUMPDEST PUSH1 0x0 PUSH2 0x3A82 DUP4 DUP4 PUSH2 0x3A3D JUMP JUMPDEST SWAP1 POP SWAP3 SWAP2 POP POP JUMP JUMPDEST PUSH1 0x0 PUSH1 0x20 DUP3 ADD SWAP1 POP SWAP2 SWAP1 POP JUMP JUMPDEST PUSH1 0x0 PUSH2 0x3AA2 DUP3 PUSH2 0x39F5 JUMP JUMPDEST PUSH2 0x3AAC DUP2 DUP6 PUSH2 0x3A00 JUMP JUMPDEST SWAP4 POP DUP4 PUSH1 0x20 DUP3 MUL DUP6 ADD PUSH2 0x3ABE DUP6 PUSH2 0x3A11 JUMP JUMPDEST DUP1 PUSH1 0x0 JUMPDEST DUP6 DUP2 LT ISZERO PUSH2 0x3AFA JUMPI DUP5 DUP5 SUB DUP10 MSTORE DUP2 MLOAD PUSH2 0x3ADB DUP6 DUP3 PUSH2 0x3A76 JUMP JUMPDEST SWAP5 POP PUSH2 0x3AE6 DUP4 PUSH2 0x3A8A JUMP JUMPDEST SWAP3 POP PUSH1 0x20 DUP11 ADD SWAP10 POP POP PUSH1 0x1 DUP2 ADD SWAP1 POP PUSH2 0x3AC2 JUMP JUMPDEST POP DUP3 SWAP8 POP DUP8 SWAP6 POP POP POP POP POP POP SWAP3 SWAP2 POP POP JUMP JUMPDEST PUSH1 0x0 PUSH1 0x20 DUP3 ADD SWAP1 POP DUP2 DUP2 SUB PUSH1 0x0 DUP4 ADD MSTORE PUSH2 0x3B26 DUP2 DUP5 PUSH2 0x3A97 JUMP JUMPDEST SWAP1 POP SWAP3 SWAP2 POP POP JUMP JUMPDEST PUSH1 0x0 DUP3 DUP3 MSTORE PUSH1 0x20 DUP3 ADD SWAP1 POP SWAP3 SWAP2 POP POP JUMP JUMPDEST PUSH32 0x46696C652075706C6F6164206E6F742065786973747300000000000000000000 PUSH1 0x0 DUP3 ADD MSTORE POP JUMP JUMPDEST PUSH1 0x0 PUSH2 0x3B75 PUSH1 0x16 DUP4 PUSH2 0x3B2E JUMP JUMPDEST SWAP2 POP PUSH2 0x3B80 DUP3 PUSH2 0x3B3F JUMP JUMPDEST PUSH1 0x20 DUP3 ADD SWAP1 POP SWAP2 SWAP1 POP JUMP JUMPDEST PUSH1 0x0 PUSH1 0x20 DUP3 ADD SWAP1 POP DUP2 DUP2 SUB PUSH1 0x0 DUP4 ADD MSTORE PUSH2 0x3BA4 DUP2 PUSH2 0x3B68 JUMP JUMPDEST SWAP1 POP SWAP2 SWAP1 POP JUMP JUMPDEST PUSH32 0x4E487B7100000000000000000000000000000000000000000000000000000000 PUSH1 0x0 MSTORE PUSH1 0x22 PUSH1 0x4 MSTORE PUSH1 0x24 PUSH1 0x0 REVERT JUMPDEST PUSH1 0x0 PUSH1 0x2 DUP3 DIV SWAP1 POP PUSH1 0x1 DUP3 AND DUP1 PUSH2 0x3BF2 JUMPI PUSH1 0x7F DUP3 AND SWAP2 POP JUMPDEST PUSH1 0x20 DUP3 LT DUP2 SUB PUSH2 0x3C05 JUMPI PUSH2 0x3C04 PUSH2 0x3BAB JUMP JUMPDEST JUMPDEST POP SWAP2 SWAP1 POP JUMP JUMPDEST PUSH32 0x496E76616C6964206368756E6B2073697A650000000000000000000000000000 PUSH1 0x0 DUP3 ADD MSTORE POP JUMP JUMPDEST PUSH1 0x0 PUSH2 0x3C41 PUSH1 0x12 DUP4 PUSH2 0x3B2E JUMP JUMPDEST SWAP2 POP PUSH2 0x3C4C DUP3 PUSH2 0x3C0B JUMP JUMPDEST PUSH1 0x20 DUP3 ADD SWAP1 POP SWAP2 SWAP1 POP JUMP JUMPDEST PUSH1 0x0 PUSH1 0x20 DUP3 ADD SWAP1 POP DUP2 DUP2 SUB PUSH1 0x0 DUP4 ADD MSTORE PUSH2 0x3C70 DUP2 PUSH2 0x3C34 JUMP JUMPDEST SWAP1 POP SWAP2 SWAP1 POP JUMP JUMPDEST PUSH32 0x43616C6C6572206973206E6F7420746865206F776E6572000000000000000000 PUSH1 0x0 DUP3 ADD MSTORE POP JUMP JUMPDEST PUSH1 0x0 PUSH2 0x3CAD PUSH1 0x17 DUP4 PUSH2 0x3B2E JUMP JUMPDEST SWAP2 POP PUSH2 0x3CB8 DUP3 PUSH2 0x3C77 JUMP JUMPDEST PUSH1 0x20 DUP3 ADD SWAP1 POP SWAP2 SWAP1 POP JUMP JUMPDEST PUSH1 0x0 PUSH1 0x20 DUP3 ADD SWAP1 POP DUP2 DUP2 SUB PUSH1 0x0 DUP4 ADD MSTORE PUSH2 0x3CDC DUP2 PUSH2 0x3CA0 JUMP JUMPDEST SWAP1 POP SWAP2 SWAP1 POP JUMP JUMPDEST PUSH32 0x4E487B7100000000000000000000000000000000000000000000000000000000 PUSH1 0x0 MSTORE PUSH1 0x11 PUSH1 0x4 MSTORE PUSH1 0x24 PUSH1 0x0 REVERT JUMPDEST PUSH1 0x0 PUSH2 0x3D1D DUP3 PUSH2 0x396C JUMP JUMPDEST SWAP2 POP PUSH2 0x3D28 DUP4 PUSH2 0x396C JUMP JUMPDEST SWAP3 POP DUP3 DUP3 ADD SWAP1 POP DUP1 DUP3 GT ISZERO PUSH2 0x3D40 JUMPI PUSH2 0x3D3F PUSH2 0x3CE3 JUMP JUMPDEST JUMPDEST SWAP3 SWAP2 POP POP JUMP JUMPDEST PUSH32 0x4368756E6B20657863656564732066696C65206C656E67746800000000000000 PUSH1 0x0 DUP3 ADD MSTORE POP JUMP JUMPDEST PUSH1 0x0 PUSH2 0x3D7C PUSH1 0x19 DUP4 PUSH2 0x3B2E JUMP JUMPDEST SWAP2 POP PUSH2 0x3D87 DUP3 PUSH2 0x3D46 JUMP JUMPDEST PUSH1 0x20 DUP3 ADD SWAP1 POP SWAP2 SWAP1 POP JUMP JUMPDEST PUSH1 0x0 PUSH1 0x20 DUP3 ADD SWAP1 POP DUP2 DUP2 SUB PUSH1 0x0 DUP4 ADD MSTORE PUSH2 0x3DAB DUP2 PUSH2 0x3D6F JUMP JUMPDEST SWAP1 POP SWAP2 SWAP1 POP JUMP JUMPDEST PUSH32 0x46696C65206973206E6F74206265696E672070726F6365737365640000000000 PUSH1 0x0 DUP3 ADD MSTORE POP JUMP JUMPDEST PUSH1 0x0 PUSH2 0x3DE8 PUSH1 0x1B DUP4 PUSH2 0x3B2E JUMP JUMPDEST SWAP2 POP PUSH2 0x3DF3 DUP3 PUSH2 0x3DB2 JUMP JUMPDEST PUSH1 0x20 DUP3 ADD SWAP1 POP SWAP2 SWAP1 POP JUMP JUMPDEST PUSH1 0x0 PUSH1 0x20 DUP3 ADD SWAP1 POP DUP2 DUP2 SUB PUSH1 0x0 DUP4 ADD MSTORE PUSH2 0x3E17 DUP2 PUSH2 0x3DDB JUMP JUMPDEST SWAP1 POP SWAP2 SWAP1 POP JUMP JUMPDEST PUSH1 0x0 DUP2 SWAP1 POP SWAP2 SWAP1 POP JUMP JUMPDEST PUSH2 0x3E39 PUSH2 0x3E34 DUP3 PUSH2 0x28DB JUMP JUMPDEST PUSH2 0x3E1E JUMP JUMPDEST DUP3 MSTORE POP POP JUMP JUMPDEST PUSH1 0x0 DUP2 SWAP1 POP SWAP3 SWAP2 POP POP JUMP JUMPDEST PUSH1 0x0 PUSH2 0x3E55 DUP3 PUSH2 0x3A21 JUMP JUMPDEST PUSH2 0x3E5F DUP2 DUP6 PUSH2 0x3E3F JUMP JUMPDEST SWAP4 POP PUSH2 0x3E6F DUP2 DUP6 PUSH1 0x20 DUP7 ADD PUSH2 0x2A2A JUMP JUMPDEST DUP1 DUP5 ADD SWAP2 POP POP SWAP3 SWAP2 POP POP JUMP JUMPDEST PUSH1 0x0 PUSH2 0x3E87 DUP3 DUP6 PUSH2 0x3E28 JUMP JUMPDEST PUSH1 0x20 DUP3 ADD SWAP2 POP PUSH2 0x3E97 DUP3 DUP5 PUSH2 0x3E4A JUMP JUMPDEST SWAP2 POP DUP2 SWAP1 POP SWAP4 SWAP3 POP POP POP JUMP JUMPDEST PUSH32 0x4368756E6B2068617368206D69736D6174636800000000000000000000000000 PUSH1 0x0 DUP3 ADD MSTORE POP JUMP JUMPDEST PUSH1 0x0 PUSH2 0x3ED9 PUSH1 0x13 DUP4 PUSH2 0x3B2E JUMP JUMPDEST SWAP2 POP PUSH2 0x3EE4 DUP3 PUSH2 0x3EA3 JUMP JUMPDEST PUSH1 0x20 DUP3 ADD SWAP1 POP SWAP2 SWAP1 POP JUMP JUMPDEST PUSH1 0x0 PUSH1 0x20 DUP3 ADD SWAP1 POP DUP2 DUP2 SUB PUSH1 0x0 DUP4 ADD MSTORE PUSH2 0x3F08 DUP2 PUSH2 0x3ECC JUMP JUMPDEST SWAP1 POP SWAP2 SWAP1 POP JUMP JUMPDEST PUSH1 0x0 DUP2 SWAP1 POP DUP2 PUSH1 0x0 MSTORE PUSH1 0x20 PUSH1 0x0 KECCAK256 SWAP1 POP SWAP2 SWAP1 POP JUMP JUMPDEST PUSH1 0x0 PUSH1 0x20 PUSH1 0x1F DUP4 ADD DIV SWAP1 POP SWAP2 SWAP1 POP JUMP JUMPDEST PUSH1 0x0 DUP3 DUP3 SHL SWAP1 POP SWAP3 SWAP2 POP POP JUMP JUMPDEST PUSH1 0x0 PUSH1 0x8 DUP4 MUL PUSH2 0x3F71 PUSH32 0xFFFFFFFFFFFFFFFFFFFFFFFFFFFFFFFFFFFFFFFFFFFFFFFFFFFFFFFFFFFFFFFF DUP3 PUSH2 0x3F34 JUMP JUMPDEST PUSH2 0x3F7B DUP7 DUP4 PUSH2 0x3F34 JUMP JUMPDEST SWAP6 POP DUP1 NOT DUP5 AND SWAP4 POP DUP1 DUP7 AND DUP5 OR SWAP3 POP POP POP SWAP4 SWAP3 POP POP POP JUMP JUMPDEST PUSH1 0x0 DUP2 SWAP1 POP SWAP2 SWAP1 POP JUMP JUMPDEST PUSH1 0x0 PUSH2 0x3FB8 PUSH2 0x3FB3 PUSH2 0x3FAE DUP5 PUSH2 0x396C JUMP JUMPDEST PUSH2 0x3F93 JUMP JUMPDEST PUSH2 0x396C JUMP JUMPDEST SWAP1 POP SWAP2 SWAP1 POP JUMP JUMPDEST PUSH1 0x0 DUP2 SWAP1 POP SWAP2 SWAP1 POP JUMP JUMPDEST PUSH2 0x3FD2 DUP4 PUSH2 0x3F9D JUMP JUMPDEST PUSH2 0x3FE6 PUSH2 0x3FDE DUP3 PUSH2 0x3FBF JUMP JUMPDEST DUP5 DUP5 SLOAD PUSH2 0x3F41 JUMP JUMPDEST DUP3 SSTORE POP POP POP POP JUMP JUMPDEST PUSH1 0x0 SWAP1 JUMP JUMPDEST PUSH2 0x3FFB PUSH2 0x3FEE JUMP JUMPDEST PUSH2 0x4006 DUP2 DUP5 DUP5 PUSH2 0x3FC9 JUMP JUMPDEST POP POP POP JUMP JUMPDEST JUMPDEST DUP2 DUP2 LT ISZERO PUSH2 0x402A JUMPI PUSH2 0x401F PUSH1 0x0 DUP3 PUSH2 0x3FF3 JUMP JUMPDEST PUSH1 0x1 DUP2 ADD SWAP1 POP PUSH2 0x400C JUMP JUMPDEST POP POP JUMP JUMPDEST PUSH1 0x1F DUP3 GT ISZERO PUSH2 0x406F JUMPI PUSH2 0x4040 DUP2 PUSH2 0x3F0F JUMP JUMPDEST PUSH2 0x4049 DUP5 PUSH2 0x3F24 JUMP JUMPDEST DUP2 ADD PUSH1 0x20 DUP6 LT ISZERO PUSH2 0x4058 JUMPI DUP2 SWAP1 POP JUMPDEST PUSH2 0x406C PUSH2 0x4064 DUP6 PUSH2 0x3F24 JUMP JUMPDEST DUP4 ADD DUP3 PUSH2 0x400B JUMP JUMPDEST POP POP JUMPDEST POP POP POP JUMP JUMPDEST PUSH1 0x0 DUP3 DUP3 SHR SWAP1 POP SWAP3 SWAP2 POP POP JUMP JUMPDEST PUSH1 0x0 PUSH2 0x4092 PUSH1 0x0 NOT DUP5 PUSH1 0x8 MUL PUSH2 0x4074 JUMP JUMPDEST NOT DUP1 DUP4 AND SWAP2 POP POP SWAP3 SWAP2 POP POP JUMP JUMPDEST PUSH1 0x0 PUSH2 0x40AB DUP4 DUP4 PUSH2 0x4081 JUMP JUMPDEST SWAP2 POP DUP3 PUSH1 0x2 MUL DUP3 OR SWAP1 POP SWAP3 SWAP2 POP POP JUMP JUMPDEST PUSH2 0x40C4 DUP3 PUSH2 0x3A21 JUMP JUMPDEST PUSH8 0xFFFFFFFFFFFFFFFF DUP2 GT ISZERO PUSH2 0x40DD JUMPI PUSH2 0x40DC PUSH2 0x2C30 JUMP JUMPDEST JUMPDEST PUSH2 0x40E7 DUP3 SLOAD PUSH2 0x3BDA JUMP JUMPDEST PUSH2 0x40F2 DUP3 DUP3 DUP6 PUSH2 0x402E JUMP JUMPDEST PUSH1 0x0 PUSH1 0x20 SWAP1 POP PUSH1 0x1F DUP4 GT PUSH1 0x1 DUP2 EQ PUSH2 0x4125 JUMPI PUSH1 0x0 DUP5 ISZERO PUSH2 0x4113 JUMPI DUP3 DUP8 ADD MLOAD SWAP1 POP JUMPDEST PUSH2 0x411D DUP6 DUP3 PUSH2 0x409F JUMP JUMPDEST DUP7 SSTORE POP PUSH2 0x4185 JUMP JUMPDEST PUSH1 0x1F NOT DUP5 AND PUSH2 0x4133 DUP7 PUSH2 0x3F0F JUMP JUMPDEST PUSH1 0x0 JUMPDEST DUP3 DUP2 LT ISZERO PUSH2 0x415B JUMPI DUP5 DUP10 ADD MLOAD DUP3 SSTORE PUSH1 0x1 DUP3 ADD SWAP2 POP PUSH1 0x20 DUP6 ADD SWAP5 POP PUSH1 0x20 DUP2 ADD SWAP1 POP PUSH2 0x4136 JUMP JUMPDEST DUP7 DUP4 LT ISZERO PUSH2 0x4178 JUMPI DUP5 DUP10 ADD MLOAD PUSH2 0x4174 PUSH1 0x1F DUP10 AND DUP3 PUSH2 0x4081 JUMP JUMPDEST DUP4 SSTORE POP JUMPDEST PUSH1 0x1 PUSH1 0x2 DUP9 MUL ADD DUP9 SSTORE POP POP POP JUMPDEST POP POP POP POP POP POP JUMP JUMPDEST PUSH1 0x0 PUSH2 0x4198 DUP3 PUSH2 0x294D JUMP JUMPDEST SWAP2 POP PUSH8 0xFFFFFFFFFFFFFFFF DUP3 SUB PUSH2 0x41B2 JUMPI PUSH2 0x41B1 PUSH2 0x3CE3 JUMP JUMPDEST JUMPDEST PUSH1 0x1 DUP3 ADD SWAP1 POP SWAP2 SWAP1 POP JUMP JUMPDEST PUSH1 0x0 PUSH2 0x41C8 DUP3 PUSH2 0x294D JUMP JUMPDEST SWAP2 POP PUSH2 0x41D3 DUP4 PUSH2 0x294D JUMP JUMPDEST SWAP3 POP DUP3 DUP3 ADD SWAP1 POP PUSH8 0xFFFFFFFFFFFFFFFF DUP2 GT ISZERO PUSH2 0x41F3 JUMPI PUSH2 0x41F2 PUSH2 0x3CE3 JUMP JUMPDEST JUMPDEST SWAP3 SWAP2 POP POP JUMP JUMPDEST PUSH1 0x0 PUSH2 0x4204 DUP3 PUSH2 0x294D JUMP JUMPDEST SWAP2 POP PUSH2 0x420F DUP4 PUSH2 0x294D JUMP JUMPDEST SWAP3 POP DUP3 DUP3 SUB SWAP1 POP PUSH8 0xFFFFFFFFFFFFFFFF DUP2 GT ISZERO PUSH2 0x422F JUMPI PUSH2 0x422E PUSH2 0x3CE3 JUMP JUMPDEST JUMPDEST SWAP3 SWAP2 POP POP JUMP JUMPDEST PUSH1 0x0 PUSH2 0x4250 PUSH2 0x424B PUSH2 0x4246 DUP5 PUSH2 0x294D JUMP JUMPDEST PUSH2 0x3F93 JUMP JUMPDEST PUSH2 0x396C JUMP JUMPDEST SWAP1 POP SWAP2 SWAP1 POP JUMP JUMPDEST PUSH2 0x4260 DUP2 PUSH2 0x4235 JUMP JUMPDEST DUP3 MSTORE POP POP JUMP JUMPDEST PUSH1 0x0 PUSH1 0x20 DUP3 ADD SWAP1 POP PUSH2 0x427B PUSH1 0x0 DUP4 ADD DUP5 PUSH2 0x4257 JUMP JUMPDEST SWAP3 SWAP2 POP POP JUMP JUMPDEST PUSH32 0x46696C6520616C72656164792064656C65746564000000000000000000000000 PUSH1 0x0 DUP3 ADD MSTORE POP JUMP JUMPDEST PUSH1 0x0 PUSH2 0x42B7 PUSH1 0x14 DUP4 PUSH2 0x3B2E JUMP JUMPDEST SWAP2 POP PUSH2 0x42C2 DUP3 PUSH2 0x4281 JUMP JUMPDEST PUSH1 0x20 DUP3 ADD SWAP1 POP SWAP2 SWAP1 POP JUMP JUMPDEST PUSH1 0x0 PUSH1 0x20 DUP3 ADD SWAP1 POP DUP2 DUP2 SUB PUSH1 0x0 DUP4 ADD MSTORE PUSH2 0x42E6 DUP2 PUSH2 0x42AA JUMP JUMPDEST SWAP1 POP SWAP2 SWAP1 POP JUMP JUMPDEST PUSH1 0x0 PUSH2 0x42F8 DUP3 PUSH2 0x396C JUMP JUMPDEST SWAP2 POP PUSH32 0xFFFFFFFFFFFFFFFFFFFFFFFFFFFFFFFFFFFFFFFFFFFFFFFFFFFFFFFFFFFFFFFF DUP3 SUB PUSH2 0x432A JUMPI PUSH2 0x4329 PUSH2 0x3CE3 JUMP JUMPDEST JUMPDEST PUSH1 0x1 DUP3 ADD SWAP1 POP SWAP2 SWAP1 POP JUMP JUMPDEST PUSH32 0x4E487B7100000000000000000000000000000000000000000000000000000000 PUSH1 0x0 MSTORE PUSH1 0x32 PUSH1 0x4 MSTORE PUSH1 0x24 PUSH1 0x0 REVERT JUMPDEST PUSH32 0x6C656E677468206172726179732073686F756C6420626520657175616C000000 PUSH1 0x0 DUP3 ADD MSTORE POP JUMP JUMPDEST PUSH1 0x0 PUSH2 0x439A PUSH1 0x1D DUP4 PUSH2 0x3B2E JUMP JUMPDEST SWAP2 POP PUSH2 0x43A5 DUP3 PUSH2 0x4364 JUMP JUMPDEST PUSH1 0x20 DUP3 ADD SWAP1 POP SWAP2 SWAP1 POP JUMP JUMPDEST PUSH1 0x0 PUSH1 0x20 DUP3 ADD SWAP1 POP DUP2 DUP2 SUB PUSH1 0x0 DUP4 ADD MSTORE PUSH2 0x43C9 DUP2 PUSH2 0x438D JUMP JUMPDEST SWAP1 POP SWAP2 SWAP1 POP JUMP JUMPDEST PUSH32 0x46696C6520686173206265656E2064656C657465640000000000000000000000 PUSH1 0x0 DUP3 ADD MSTORE POP JUMP JUMPDEST PUSH1 0x0 PUSH2 0x4406 PUSH1 0x15 DUP4 PUSH2 0x3B2E JUMP JUMPDEST SWAP2 POP PUSH2 0x4411 DUP3 PUSH2 0x43D0 JUMP JUMPDEST PUSH1 0x20 DUP3 ADD SWAP1 POP SWAP2 SWAP1 POP JUMP JUMPDEST PUSH1 0x0 PUSH1 0x20 DUP3 ADD SWAP1 POP DUP2 DUP2 SUB PUSH1 0x0 DUP4 ADD MSTORE PUSH2 0x4435 DUP2 PUSH2 0x43F9 JUMP JUMPDEST SWAP1 POP SWAP2 SWAP1 POP JUMP JUMPDEST PUSH32 0x4E6577206578706972652074696D65206D757374206265206174206C65617374 PUSH1 0x0 DUP3 ADD MSTORE PUSH32 0x20312064617920696E2074686520667574757265000000000000000000000000 PUSH1 0x20 DUP3 ADD MSTORE POP JUMP JUMPDEST PUSH1 0x0 PUSH2 0x4498 PUSH1 0x34 DUP4 PUSH2 0x3B2E JUMP JUMPDEST SWAP2 POP PUSH2 0x44A3 DUP3 PUSH2 0x443C JUMP JUMPDEST PUSH1 0x40 DUP3 ADD SWAP1 POP SWAP2 SWAP1 POP JUMP JUMPDEST PUSH1 0x0 PUSH1 0x20 DUP3 ADD SWAP1 POP DUP2 DUP2 SUB PUSH1 0x0 DUP4 ADD MSTORE PUSH2 0x44C7 DUP2 PUSH2 0x448B JUMP JUMPDEST SWAP1 POP SWAP2 SWAP1 POP JUMP JUMPDEST PUSH32 0x46696C65206973206E6F74206163746976650000000000000000000000000000 PUSH1 0x0 DUP3 ADD MSTORE POP JUMP JUMPDEST PUSH1 0x0 PUSH2 0x4504 PUSH1 0x12 DUP4 PUSH2 0x3B2E JUMP JUMPDEST SWAP2 POP PUSH2 0x450F DUP3 PUSH2 0x44CE JUMP JUMPDEST PUSH1 0x20 DUP3 ADD SWAP1 POP SWAP2 SWAP1 POP JUMP JUMPDEST PUSH1 0x0 PUSH1 0x20 DUP3 ADD SWAP1 POP DUP2 DUP2 SUB PUSH1 0x0 DUP4 ADD MSTORE PUSH2 0x4533 DUP2 PUSH2 0x44F7 JUMP JUMPDEST SWAP1 POP SWAP2 SWAP1 POP JUMP JUMPDEST PUSH32 0x46696C6520686173206578706972656400000000000000000000000000000000 PUSH1 0x0 DUP3 ADD MSTORE POP JUMP JUMPDEST PUSH1 0x0 PUSH2 0x4570 PUSH1 0x10 DUP4 PUSH2 0x3B2E JUMP JUMPDEST SWAP2 POP PUSH2 0x457B DUP3 PUSH2 0x453A JUMP JUMPDEST PUSH1 0x20 DUP3 ADD SWAP1 POP SWAP2 SWAP1 POP JUMP JUMPDEST PUSH1 0x0 PUSH1 0x20 DUP3 ADD SWAP1 POP DUP2 DUP2 SUB PUSH1 0x0 DUP4 ADD MSTORE PUSH2 0x459F DUP2 PUSH2 0x4563 JUMP JUMPDEST SWAP1 POP SWAP2 SWAP1 POP JUMP JUMPDEST PUSH32 0x4578706972652074696D65206D757374206265206174206C6561737420312064 PUSH1 0x0 DUP3 ADD MSTORE PUSH32 0x617920696E207468652066757475726500000000000000000000000000000000 PUSH1 0x20 DUP3 ADD MSTORE POP JUMP JUMPDEST PUSH1 0x0 PUSH2 0x4602 PUSH1 0x30 DUP4 PUSH2 0x3B2E JUMP JUMPDEST SWAP2 POP PUSH2 0x460D DUP3 PUSH2 0x45A6 JUMP JUMPDEST PUSH1 0x40 DUP3 ADD SWAP1 POP SWAP2 SWAP1 POP JUMP JUMPDEST PUSH1 0x0 PUSH1 0x20 DUP3 ADD SWAP1 POP DUP2 DUP2 SUB PUSH1 0x0 DUP4 ADD MSTORE PUSH2 0x4631 DUP2 PUSH2 0x45F5 JUMP JUMPDEST SWAP1 POP SWAP2 SWAP1 POP JUMP JUMPDEST PUSH1 0x0 DUP2 PUSH1 0xC0 SHL SWAP1 POP SWAP2 SWAP1 POP JUMP JUMPDEST PUSH1 0x0 PUSH2 0x4650 DUP3 PUSH2 0x4638 JUMP JUMPDEST SWAP1 POP SWAP2 SWAP1 POP JUMP JUMPDEST PUSH2 0x4668 PUSH2 0x4663 DUP3 PUSH2 0x294D JUMP JUMPDEST PUSH2 0x4645 JUMP JUMPDEST DUP3 MSTORE POP POP JUMP JUMPDEST PUSH1 0x0 DUP2 SWAP1 POP SWAP3 SWAP2 POP POP JUMP JUMPDEST PUSH1 0x0 PUSH2 0x4684 DUP3 PUSH2 0x2A0E JUMP JUMPDEST PUSH2 0x468E DUP2 DUP6 PUSH2 0x466E JUMP JUMPDEST SWAP4 POP PUSH2 0x469E DUP2 DUP6 PUSH1 0x20 DUP7 ADD PUSH2 0x2A2A JUMP JUMPDEST DUP1 DUP5 ADD SWAP2 POP POP SWAP3 SWAP2 POP POP JUMP JUMPDEST PUSH1 0x0 DUP2 SWAP1 POP SWAP2 SWAP1 POP JUMP JUMPDEST PUSH2 0x46C5 PUSH2 0x46C0 DUP3 PUSH2 0x396C JUMP JUMPDEST PUSH2 0x46AA JUMP JUMPDEST DUP3 MSTORE POP POP JUMP JUMPDEST PUSH1 0x0 PUSH2 0x46D7 DUP3 DUP10 PUSH2 0x4657 JUMP JUMPDEST PUSH1 0x8 DUP3 ADD SWAP2 POP PUSH2 0x46E7 DUP3 DUP9 PUSH2 0x4657 JUMP JUMPDEST PUSH1 0x8 DUP3 ADD SWAP2 POP PUSH2 0x46F7 DUP3 DUP8 PUSH2 0x3E28 JUMP JUMPDEST PUSH1 0x20 DUP3 ADD SWAP2 POP PUSH2 0x4707 DUP3 DUP7 PUSH2 0x4679 JUMP JUMPDEST SWAP2 POP PUSH2 0x4713 DUP3 DUP6 PUSH2 0x4679 JUMP JUMPDEST SWAP2 POP PUSH2 0x471F DUP3 DUP5 PUSH2 0x46B4 JUMP JUMPDEST PUSH1 0x20 DUP3 ADD SWAP2 POP DUP2 SWAP1 POP SWAP8 SWAP7 POP POP POP POP POP POP POP JUMP JUMPDEST PUSH1 0x0 PUSH2 0x473F DUP3 DUP5 PUSH2 0x4679 JUMP JUMPDEST SWAP2 POP DUP2 SWAP1 POP SWAP3 SWAP2 POP POP JUMP JUMPDEST PUSH32 0x46696C6520616C72656164792065786973747300000000000000000000000000 PUSH1 0x0 DUP3 ADD MSTORE POP JUMP JUMPDEST PUSH1 0x0 PUSH2 0x4780 PUSH1 0x13 DUP4 PUSH2 0x3B2E JUMP JUMPDEST SWAP2 POP PUSH2 0x478B DUP3 PUSH2 0x474A JUMP JUMPDEST PUSH1 0x20 DUP3 ADD SWAP1 POP SWAP2 SWAP1 POP JUMP JUMPDEST PUSH1 0x0 PUSH1 0x20 DUP3 ADD SWAP1 POP DUP2 DUP2 SUB PUSH1 0x0 DUP4 ADD MSTORE PUSH2 0x47AF DUP2 PUSH2 0x4773 JUMP JUMPDEST SWAP1 POP SWAP2 SWAP1 POP JUMP JUMPDEST PUSH1 0x0 DUP2 SWAP1 POP DUP2 PUSH1 0x0 MSTORE PUSH1 0x20 PUSH1 0x0 KECCAK256 SWAP1 POP SWAP2 SWAP1 POP JUMP JUMPDEST PUSH1 0x1F DUP3 GT ISZERO PUSH2 0x480C JUMPI PUSH2 0x47DD DUP2 PUSH2 0x47B6 JUMP JUMPDEST PUSH2 0x47E6 DUP5 PUSH2 0x3F24 JUMP JUMPDEST DUP2 ADD PUSH1 0x20 DUP6 LT ISZERO PUSH2 0x47F5 JUMPI DUP2 SWAP1 POP JUMPDEST PUSH2 0x4809 PUSH2 0x4801 DUP6 PUSH2 0x3F24 JUMP JUMPDEST DUP4 ADD DUP3 PUSH2 0x400B JUMP JUMPDEST POP POP JUMPDEST POP POP POP JUMP JUMPDEST PUSH2 0x481A DUP3 PUSH2 0x2A0E JUMP JUMPDEST PUSH8 0xFFFFFFFFFFFFFFFF DUP2 GT ISZERO PUSH2 0x4833 JUMPI PUSH2 0x4832 PUSH2 0x2C30 JUMP JUMPDEST JUMPDEST PUSH2 0x483D DUP3 SLOAD PUSH2 0x3BDA JUMP JUMPDEST PUSH2 0x4848 DUP3 DUP3 DUP6 PUSH2 0x47CB JUMP JUMPDEST PUSH1 0x0 PUSH1 0x20 SWAP1 POP PUSH1 0x1F DUP4 GT PUSH1 0x1 DUP2 EQ PUSH2 0x487B JUMPI PUSH1 0x0 DUP5 ISZERO PUSH2 0x4869 JUMPI DUP3 DUP8 ADD MLOAD SWAP1 POP JUMPDEST PUSH2 0x4873 DUP6 DUP3 PUSH2 0x409F JUMP JUMPDEST DUP7 SSTORE POP PUSH2 0x48DB JUMP JUMPDEST PUSH1 0x1F NOT DUP5 AND PUSH2 0x4889 DUP7 PUSH2 0x47B6 JUMP JUMPDEST PUSH1 0x0 JUMPDEST DUP3 DUP2 LT ISZERO PUSH2 0x48B1 JUMPI DUP5 DUP10 ADD MLOAD DUP3 SSTORE PUSH1 0x1 DUP3 ADD SWAP2 POP PUSH1 0x20 DUP6 ADD SWAP5 POP PUSH1 0x20 DUP2 ADD SWAP1 POP PUSH2 0x488C JUMP JUMPDEST DUP7 DUP4 LT ISZERO PUSH2 0x48CE JUMPI DUP5 DUP10 ADD MLOAD PUSH2 0x48CA PUSH1 0x1F DUP10 AND DUP3 PUSH2 0x4081 JUMP JUMPDEST DUP4 SSTORE POP JUMPDEST PUSH1 0x1 PUSH1 0x2 DUP9 MUL ADD DUP9 SSTORE POP POP POP JUMPDEST POP POP POP POP POP POP JUMP JUMPDEST PUSH1 0x0 PUSH2 0x48EE DUP3 PUSH2 0x2A0E JUMP JUMPDEST PUSH2 0x48F8 DUP2 DUP6 PUSH2 0x3B2E JUMP JUMPDEST SWAP4 POP PUSH2 0x4908 DUP2 DUP6 PUSH1 0x20 DUP7 ADD PUSH2 0x2A2A JUMP JUMPDEST PUSH2 0x4911 DUP2 PUSH2 0x2A54 JUMP JUMPDEST DUP5 ADD SWAP2 POP POP SWAP3 SWAP2 POP POP JUMP JUMPDEST PUSH2 0x4925 DUP2 PUSH2 0x294D JUMP JUMPDEST DUP3 MSTORE POP POP JUMP JUMPDEST PUSH1 0x0 PUSH1 0x40 DUP3 ADD SWAP1 POP DUP2 DUP2 SUB PUSH1 0x0 DUP4 ADD MSTORE PUSH2 0x4945 DUP2 DUP6 PUSH2 0x48E3 JUMP JUMPDEST SWAP1 POP PUSH2 0x4954 PUSH1 0x20 DUP4 ADD DUP5 PUSH2 0x491C JUMP JUMPDEST SWAP4 SWAP3 POP POP POP JUMP JUMPDEST PUSH32 0x46696C652075706C6F6164206E6F742061637469766564000000000000000000 PUSH1 0x0 DUP3 ADD MSTORE POP JUMP JUMPDEST PUSH1 0x0 PUSH2 0x4991 PUSH1 0x17 DUP4 PUSH2 0x3B2E JUMP JUMPDEST SWAP2 POP PUSH2 0x499C DUP3 PUSH2 0x495B JUMP JUMPDEST PUSH1 0x20 DUP3 ADD SWAP1 POP SWAP2 SWAP1 POP JUMP JUMPDEST PUSH1 0x0 PUSH1 0x20 DUP3 ADD SWAP1 POP DUP2 DUP2 SUB PUSH1 0x0 DUP4 ADD MSTORE PUSH2 0x49C0 DUP2 PUSH2 0x4984 JUMP JUMPDEST SWAP1 POP SWAP2 SWAP1 POP JUMP JUMPDEST PUSH32 0x46696C6520646F6573206E6F7420657869737400000000000000000000000000 PUSH1 0x0 DUP3 ADD MSTORE POP JUMP JUMPDEST PUSH1 0x0 PUSH2 0x49FD PUSH1 0x13 DUP4 PUSH2 0x3B2E JUMP JUMPDEST SWAP2 POP PUSH2 0x4A08 DUP3 PUSH2 0x49C7 JUMP JUMPDEST PUSH1 0x20 DUP3 ADD SWAP1 POP SWAP2 SWAP1 POP JUMP JUMPDEST PUSH1 0x0 PUSH1 0x20 DUP3 ADD SWAP1 POP DUP2 DUP2 SUB PUSH1 0x0 DUP4 ADD MSTORE PUSH2 0x4A2C DUP2 PUSH2 0x49F0 JUMP JUMPDEST SWAP1 POP SWAP2 SWAP1 POP JUMP JUMPDEST PUSH32 0x537461727420696E646578206F7574206F662072616E67650000000000000000 PUSH1 0x0 DUP3 ADD MSTORE POP JUMP JUMPDEST PUSH1 0x0 PUSH2 0x4A69 PUSH1 0x18 DUP4 PUSH2 0x3B2E JUMP JUMPDEST SWAP2 POP PUSH2 0x4A74 DUP3 PUSH2 0x4A33 JUMP JUMPDEST PUSH1 0x20 DUP3 ADD SWAP1 POP SWAP2 SWAP1 POP JUMP JUMPDEST PUSH1 0x0 PUSH1 0x20 DUP3 ADD SWAP1 POP DUP2 DUP2 SUB PUSH1 0x0 DUP4 ADD MSTORE PUSH2 0x4A98 DUP2 PUSH2 0x4A5C JUMP JUMPDEST SWAP1 POP SWAP2 SWAP1 POP JUMP JUMPDEST PUSH32 0x4C696D6974206D7573742062652067726561746572207468616E207A65726F00 PUSH1 0x0 DUP3 ADD MSTORE POP JUMP JUMPDEST PUSH1 0x0 PUSH2 0x4AD5 PUSH1 0x1F DUP4 PUSH2 0x3B2E JUMP JUMPDEST SWAP2 POP PUSH2 0x4AE0 DUP3 PUSH2 0x4A9F JUMP JUMPDEST PUSH1 0x20 DUP3 ADD SWAP1 POP SWAP2 SWAP1 POP JUMP JUMPDEST PUSH1 0x0 PUSH1 0x20 DUP3 ADD SWAP1 POP DUP2 DUP2 SUB PUSH1 0x0 DUP4 ADD MSTORE PUSH2 0x4B04 DUP2 PUSH2 0x4AC8 JUMP JUMPDEST SWAP1 POP SWAP2 SWAP1 POP JUMP JUMPDEST PUSH1 0x0 PUSH2 0x4B16 DUP3 PUSH2 0x396C JUMP JUMPDEST SWAP2 POP PUSH2 0x4B21 DUP4 PUSH2 0x396C JUMP JUMPDEST SWAP3 POP DUP3 DUP3 SUB SWAP1 POP DUP2 DUP2 GT ISZERO PUSH2 0x4B39 JUMPI PUSH2 0x4B38 PUSH2 0x3CE3 JUMP JUMPDEST JUMPDEST SWAP3 SWAP2 POP POP JUMP INVALID LOG2 PUSH5 0x6970667358 0x22 SLT KECCAK256 0x4C DUP4 0xD4 LOG2 0xE1 0xB5 SWAP9 PUSH22 0x32C43CEFCF7B8E67CCB8225B3449255EC0792F6559A8 MSTORE8 CALLVALUE PUSH5 0x736F6C6343 STOP ADDMOD SGT STOP CALLER "
				},
				"gasEstimates": {
					"creation": {
						"codeDepositCost": "3863400",
						"executionCost": "28629",
						"totalCost": "3892029"
					},
					"external": {
						"deleteFile(bytes32)": "infinite",
						"downloadFile(bytes32,uint256,uint256)": "infinite",
						"getFileInfo(bytes32)": "infinite",
						"getFileKeyFromName(string[])": "infinite",
						"getFileProgress(bytes32)": "infinite",
						"getFilesInfo(bytes32[])": "infinite",
						"lockFile(bytes32)": "32608",
						"mKeyToFileInfo(bytes32)": "infinite",
						"mNameToFileKey(string)": "infinite",
						"owner()": "2559",
						"pushFileInfo((address,bytes32,uint64,uint64,uint64,string,string,uint8,string,string))": "infinite",
						"pushFileInfos((address,bytes32,uint64,uint64,uint64,string,string,uint8,string,string)[])": "infinite",
						"renewTime(bytes32,uint64)": "infinite",
						"service()": "2536",
						"setService(address)": "26937",
						"uploadChunk(bytes32,bytes,bytes32)": "infinite",
						"uploadChunks(bytes32[],bytes[],bytes32[])": "infinite"
					}
				},
				"methodIdentifiers": {
					"deleteFile(bytes32)": "6ab799f1",
					"downloadFile(bytes32,uint256,uint256)": "fab91940",
					"getFileInfo(bytes32)": "52f7347b",
					"getFileKeyFromName(string[])": "f25671c4",
					"getFileProgress(bytes32)": "46da5178",
					"getFilesInfo(bytes32[])": "eb070e7e",
					"lockFile(bytes32)": "9b26b2a8",
					"mKeyToFileInfo(bytes32)": "c652793d",
					"mNameToFileKey(string)": "edff13af",
					"owner()": "8da5cb5b",
					"pushFileInfo((address,bytes32,uint64,uint64,uint64,string,string,uint8,string,string))": "ca7e3cd4",
					"pushFileInfos((address,bytes32,uint64,uint64,uint64,string,string,uint8,string,string)[])": "6e0c19b1",
					"renewTime(bytes32,uint64)": "91c03370",
					"service()": "d598d4c9",
					"setService(address)": "bf8bdac1",
					"uploadChunk(bytes32,bytes,bytes32)": "5f95c07b",
					"uploadChunks(bytes32[],bytes[],bytes32[])": "8f73088d"
				}
			},
			"storageLayout": {
				"storage": [
					{
						"astId": 29,
						"contract": "contracts/src/file.sol:Files",
						"label": "mKeyToFileInfo",
						"offset": 0,
						"slot": "0",
						"type": "t_mapping(t_bytes32,t_struct(FileInfo)940_storage)"
					},
					{
						"astId": 33,
						"contract": "contracts/src/file.sol:Files",
						"label": "mNameToFileKey",
						"offset": 0,
						"slot": "1",
						"type": "t_mapping(t_string_memory_ptr,t_bytes32)"
					},
					{
						"astId": 35,
						"contract": "contracts/src/file.sol:Files",
						"label": "service",
						"offset": 0,
						"slot": "2",
						"type": "t_address"
					},
					{
						"astId": 37,
						"contract": "contracts/src/file.sol:Files",
						"label": "owner",
						"offset": 0,
						"slot": "3",
						"type": "t_address"
					}
				],
				"types": {
					"t_address": {
						"encoding": "inplace",
						"label": "address",
						"numberOfBytes": "20"
					},
					"t_bytes32": {
						"encoding": "inplace",
						"label": "bytes32",
						"numberOfBytes": "32"
					},
					"t_bytes_storage": {
						"encoding": "bytes",
						"label": "bytes",
						"numberOfBytes": "32"
					},
					"t_enum(FileStatus)900": {
						"encoding": "inplace",
						"label": "enum FileStatus",
						"numberOfBytes": "1"
					},
					"t_mapping(t_bytes32,t_struct(FileInfo)940_storage)": {
						"encoding": "mapping",
						"key": "t_bytes32",
						"label": "mapping(bytes32 => struct FileInfo)",
						"numberOfBytes": "32",
						"value": "t_struct(FileInfo)940_storage"
					},
					"t_mapping(t_string_memory_ptr,t_bytes32)": {
						"encoding": "mapping",
						"key": "t_string_memory_ptr",
						"label": "mapping(string => bytes32)",
						"numberOfBytes": "32",
						"value": "t_bytes32"
					},
					"t_mapping(t_uint256,t_bytes_storage)": {
						"encoding": "mapping",
						"key": "t_uint256",
						"label": "mapping(uint256 => bytes)",
						"numberOfBytes": "32",
						"value": "t_bytes_storage"
					},
					"t_string_memory_ptr": {
						"encoding": "bytes",
						"label": "string",
						"numberOfBytes": "32"
					},
					"t_string_storage": {
						"encoding": "bytes",
						"label": "string",
						"numberOfBytes": "32"
					},
					"t_struct(FileInfo)940_storage": {
						"encoding": "inplace",
						"label": "struct FileInfo",
						"members": [
							{
								"astId": 932,
								"contract": "contracts/src/file.sol:Files",
								"label": "info",
								"offset": 0,
								"slot": "0",
								"type": "t_struct(Info)922_storage"
							},
							{
								"astId": 935,
								"contract": "contracts/src/file.sol:Files",
								"label": "progress",
								"offset": 0,
								"slot": "8",
								"type": "t_struct(FileProgress)929_storage"
							},
							{
								"astId": 939,
								"contract": "contracts/src/file.sol:Files",
								"label": "chunks",
								"offset": 0,
								"slot": "10",
								"type": "t_mapping(t_uint256,t_bytes_storage)"
							}
						],
						"numberOfBytes": "352"
					},
					"t_struct(FileProgress)929_storage": {
						"encoding": "inplace",
						"label": "struct FileProgress",
						"members": [
							{
								"astId": 924,
								"contract": "contracts/src/file.sol:Files",
								"label": "lastChunkHash",
								"offset": 0,
								"slot": "0",
								"type": "t_bytes32"
							},
							{
								"astId": 926,
								"contract": "contracts/src/file.sol:Files",
								"label": "processedChunks",
								"offset": 0,
								"slot": "1",
								"type": "t_uint64"
							},
							{
								"astId": 928,
								"contract": "contracts/src/file.sol:Files",
								"label": "processedLength",
								"offset": 8,
								"slot": "1",
								"type": "t_uint64"
							}
						],
						"numberOfBytes": "64"
					},
					"t_struct(Info)922_storage": {
						"encoding": "inplace",
						"label": "struct Info",
						"members": [
							{
								"astId": 902,
								"contract": "contracts/src/file.sol:Files",
								"label": "owner",
								"offset": 0,
								"slot": "0",
								"type": "t_address"
							},
							{
								"astId": 904,
								"contract": "contracts/src/file.sol:Files",
								"label": "hash",
								"offset": 0,
								"slot": "1",
								"type": "t_bytes32"
							},
							{
								"astId": 906,
								"contract": "contracts/src/file.sol:Files",
								"label": "contentLen",
								"offset": 0,
								"slot": "2",
								"type": "t_uint64"
							},
							{
								"astId": 908,
								"contract": "contracts/src/file.sol:Files",
								"label": "totalChunks",
								"offset": 8,
								"slot": "2",
								"type": "t_uint64"
							},
							{
								"astId": 910,
								"contract": "contracts/src/file.sol:Files",
								"label": "expireTime",
								"offset": 16,
								"slot": "2",
								"type": "t_uint64"
							},
							{
								"astId": 912,
								"contract": "contracts/src/file.sol:Files",
								"label": "name",
								"offset": 0,
								"slot": "3",
								"type": "t_string_storage"
							},
							{
								"astId": 914,
								"contract": "contracts/src/file.sol:Files",
								"label": "ext",
								"offset": 0,
								"slot": "4",
								"type": "t_string_storage"
							},
							{
								"astId": 917,
								"contract": "contracts/src/file.sol:Files",
								"label": "status",
								"offset": 0,
								"slot": "5",
								"type": "t_enum(FileStatus)900"
							},
							{
								"astId": 919,
								"contract": "contracts/src/file.sol:Files",
								"label": "contentDisposition",
								"offset": 0,
								"slot": "6",
								"type": "t_string_storage"
							},
							{
								"astId": 921,
								"contract": "contracts/src/file.sol:Files",
								"label": "contentID",
								"offset": 0,
								"slot": "7",
								"type": "t_string_storage"
							}
						],
						"numberOfBytes": "256"
					},
					"t_uint256": {
						"encoding": "inplace",
						"label": "uint256",
						"numberOfBytes": "32"
					},
					"t_uint64": {
						"encoding": "inplace",
						"label": "uint64",
						"numberOfBytes": "8"
					}
				}
			},
			"userdoc": {
				"kind": "user",
				"methods": {},
				"version": 1
			}
		}
	}
}