{
	"src/file.sol": {
		"Files": {
			"abi": [
				{
					"inputs": [],
					"stateMutability": "payable",
					"type": "constructor"
				},
				{
					"anonymous": false,
					"inputs": [
						{
							"indexed": true,
							"internalType": "bytes32",
							"name": "fileKey",
							"type": "bytes32"
						},
						{
							"indexed": false,
							"internalType": "uint256",
							"name": "chunkIndex",
							"type": "uint256"
						}
					],
					"name": "ChunkUploaded",
					"type": "event"
				},
				{
					"anonymous": false,
					"inputs": [
						{
							"indexed": true,
							"internalType": "bytes32",
							"name": "fileKey",
							"type": "bytes32"
						},
						{
							"indexed": false,
							"internalType": "string",
							"name": "name",
							"type": "string"
						},
						{
							"indexed": false,
							"internalType": "uint64",
							"name": "contentLen",
							"type": "uint64"
						}
					],
					"name": "FileAdded",
					"type": "event"
				},
				{
					"anonymous": false,
					"inputs": [
						{
							"indexed": true,
							"internalType": "bytes32",
							"name": "fileKey",
							"type": "bytes32"
						}
					],
					"name": "FileDeleted",
					"type": "event"
				},
				{
					"anonymous": false,
					"inputs": [
						{
							"indexed": true,
							"internalType": "bytes32",
							"name": "fileKey",
							"type": "bytes32"
						}
					],
					"name": "FileLocked",
					"type": "event"
				},
				{
					"inputs": [
						{
							"internalType": "bytes32",
							"name": "fileKey",
							"type": "bytes32"
						}
					],
					"name": "deleteFile",
					"outputs": [],
					"stateMutability": "nonpayable",
					"type": "function"
				},
				{
					"inputs": [
						{
							"internalType": "bytes32",
							"name": "fileKey",
							"type": "bytes32"
						},
						{
							"internalType": "uint256",
							"name": "start",
							"type": "uint256"
						},
						{
							"internalType": "uint256",
							"name": "limit",
							"type": "uint256"
						}
					],
					"name": "downloadFile",
					"outputs": [
						{
							"internalType": "bytes[]",
							"name": "",
							"type": "bytes[]"
						}
					],
					"stateMutability": "view",
					"type": "function"
				},
				{
					"inputs": [
						{
							"internalType": "bytes32",
							"name": "fileKey",
							"type": "bytes32"
						}
					],
					"name": "getFileInfo",
					"outputs": [
						{
							"components": [
								{
									"internalType": "address",
									"name": "owner",
									"type": "address"
								},
								{
									"internalType": "bytes32",
									"name": "hash",
									"type": "bytes32"
								},
								{
									"internalType": "uint64",
									"name": "contentLen",
									"type": "uint64"
								},
								{
									"internalType": "uint64",
									"name": "totalChunks",
									"type": "uint64"
								},
								{
									"internalType": "uint64",
									"name": "expireTime",
									"type": "uint64"
								},
								{
									"internalType": "string",
									"name": "name",
									"type": "string"
								},
								{
									"internalType": "string",
									"name": "ext",
									"type": "string"
								},
								{
									"internalType": "enum FileStatus",
									"name": "status",
									"type": "uint8"
								},
								{
									"internalType": "string",
									"name": "contentDisposition",
									"type": "string"
								},
								{
									"internalType": "string",
									"name": "contentID",
									"type": "string"
								}
							],
							"internalType": "struct Info",
							"name": "",
							"type": "tuple"
						}
					],
					"stateMutability": "view",
					"type": "function"
				},
				{
					"inputs": [
						{
							"internalType": "string[]",
							"name": "names",
							"type": "string[]"
						}
					],
					"name": "getFileKeyFromName",
					"outputs": [
						{
							"internalType": "bytes32[]",
							"name": "",
							"type": "bytes32[]"
						}
					],
					"stateMutability": "view",
					"type": "function"
				},
				{
					"inputs": [
						{
							"internalType": "bytes32",
							"name": "fileKey",
							"type": "bytes32"
						}
					],
					"name": "getFileProgress",
					"outputs": [
						{
							"components": [
								{
									"internalType": "bytes32",
									"name": "lastChunkHash",
									"type": "bytes32"
								},
								{
									"internalType": "uint64",
									"name": "processedChunks",
									"type": "uint64"
								},
								{
									"internalType": "uint64",
									"name": "processedLength",
									"type": "uint64"
								}
							],
							"internalType": "struct FileProgress",
							"name": "",
							"type": "tuple"
						}
					],
					"stateMutability": "view",
					"type": "function"
				},
				{
					"inputs": [
						{
							"internalType": "bytes32[]",
							"name": "fileKeys",
							"type": "bytes32[]"
						}
					],
					"name": "getFilesInfo",
					"outputs": [
						{
							"components": [
								{
									"internalType": "address",
									"name": "owner",
									"type": "address"
								},
								{
									"internalType": "bytes32",
									"name": "hash",
									"type": "bytes32"
								},
								{
									"internalType": "uint64",
									"name": "contentLen",
									"type": "uint64"
								},
								{
									"internalType": "uint64",
									"name": "totalChunks",
									"type": "uint64"
								},
								{
									"internalType": "uint64",
									"name": "expireTime",
									"type": "uint64"
								},
								{
									"internalType": "string",
									"name": "name",
									"type": "string"
								},
								{
									"internalType": "string",
									"name": "ext",
									"type": "string"
								},
								{
									"internalType": "enum FileStatus",
									"name": "status",
									"type": "uint8"
								},
								{
									"internalType": "string",
									"name": "contentDisposition",
									"type": "string"
								},
								{
									"internalType": "string",
									"name": "contentID",
									"type": "string"
								}
							],
							"internalType": "struct Info[]",
							"name": "infos",
							"type": "tuple[]"
						}
					],
					"stateMutability": "view",
					"type": "function"
				},
				{
					"inputs": [
						{
							"internalType": "bytes32",
							"name": "fileKey",
							"type": "bytes32"
						}
					],
					"name": "lockFile",
					"outputs": [],
					"stateMutability": "nonpayable",
					"type": "function"
				},
				{
					"inputs": [
						{
							"internalType": "bytes32",
							"name": "",
							"type": "bytes32"
						}
					],
					"name": "mKeyToFileInfo",
					"outputs": [
						{
							"components": [
								{
									"internalType": "address",
									"name": "owner",
									"type": "address"
								},
								{
									"internalType": "bytes32",
									"name": "hash",
									"type": "bytes32"
								},
								{
									"internalType": "uint64",
									"name": "contentLen",
									"type": "uint64"
								},
								{
									"internalType": "uint64",
									"name": "totalChunks",
									"type": "uint64"
								},
								{
									"internalType": "uint64",
									"name": "expireTime",
									"type": "uint64"
								},
								{
									"internalType": "string",
									"name": "name",
									"type": "string"
								},
								{
									"internalType": "string",
									"name": "ext",
									"type": "string"
								},
								{
									"internalType": "enum FileStatus",
									"name": "status",
									"type": "uint8"
								},
								{
									"internalType": "string",
									"name": "contentDisposition",
									"type": "string"
								},
								{
									"internalType": "string",
									"name": "contentID",
									"type": "string"
								}
							],
							"internalType": "struct Info",
							"name": "info",
							"type": "tuple"
						},
						{
							"components": [
								{
									"internalType": "bytes32",
									"name": "lastChunkHash",
									"type": "bytes32"
								},
								{
									"internalType": "uint64",
									"name": "processedChunks",
									"type": "uint64"
								},
								{
									"internalType": "uint64",
									"name": "processedLength",
									"type": "uint64"
								}
							],
							"internalType": "struct FileProgress",
							"name": "progress",
							"type": "tuple"
						}
					],
					"stateMutability": "view",
					"type": "function"
				},
				{
					"inputs": [
						{
							"internalType": "string",
							"name": "",
							"type": "string"
						}
					],
					"name": "mNameToFileKey",
					"outputs": [
						{
							"internalType": "bytes32",
							"name": "",
							"type": "bytes32"
						}
					],
					"stateMutability": "view",
					"type": "function"
				},
				{
					"inputs": [],
					"name": "owner",
					"outputs": [
						{
							"internalType": "address",
							"name": "",
							"type": "address"
						}
					],
					"stateMutability": "view",
					"type": "function"
				},
				{
					"inputs": [
						{
							"components": [
								{
									"internalType": "address",
									"name": "owner",
									"type": "address"
								},
								{
									"internalType": "bytes32",
									"name": "hash",
									"type": "bytes32"
								},
								{
									"internalType": "uint64",
									"name": "contentLen",
									"type": "uint64"
								},
								{
									"internalType": "uint64",
									"name": "totalChunks",
									"type": "uint64"
								},
								{
									"internalType": "uint64",
									"name": "expireTime",
									"type": "uint64"
								},
								{
									"internalType": "string",
									"name": "name",
									"type": "string"
								},
								{
									"internalType": "string",
									"name": "ext",
									"type": "string"
								},
								{
									"internalType": "enum FileStatus",
									"name": "status",
									"type": "uint8"
								},
								{
									"internalType": "string",
									"name": "contentDisposition",
									"type": "string"
								},
								{
									"internalType": "string",
									"name": "contentID",
									"type": "string"
								}
							],
							"internalType": "struct Info",
							"name": "info",
							"type": "tuple"
						}
					],
					"name": "pushFileInfo",
					"outputs": [
						{
							"internalType": "bytes32",
							"name": "fileKey",
							"type": "bytes32"
						}
					],
					"stateMutability": "nonpayable",
					"type": "function"
				},
				{
					"inputs": [
						{
							"components": [
								{
									"internalType": "address",
									"name": "owner",
									"type": "address"
								},
								{
									"internalType": "bytes32",
									"name": "hash",
									"type": "bytes32"
								},
								{
									"internalType": "uint64",
									"name": "contentLen",
									"type": "uint64"
								},
								{
									"internalType": "uint64",
									"name": "totalChunks",
									"type": "uint64"
								},
								{
									"internalType": "uint64",
									"name": "expireTime",
									"type": "uint64"
								},
								{
									"internalType": "string",
									"name": "name",
									"type": "string"
								},
								{
									"internalType": "string",
									"name": "ext",
									"type": "string"
								},
								{
									"internalType": "enum FileStatus",
									"name": "status",
									"type": "uint8"
								},
								{
									"internalType": "string",
									"name": "contentDisposition",
									"type": "string"
								},
								{
									"internalType": "string",
									"name": "contentID",
									"type": "string"
								}
							],
							"internalType": "struct Info[]",
							"name": "infos",
							"type": "tuple[]"
						}
					],
					"name": "pushFileInfos",
					"outputs": [
						{
							"internalType": "bytes32[]",
							"name": "",
							"type": "bytes32[]"
						}
					],
					"stateMutability": "nonpayable",
					"type": "function"
				},
				{
					"inputs": [
						{
							"internalType": "bytes32",
							"name": "fileKey",
							"type": "bytes32"
						},
						{
							"internalType": "uint64",
							"name": "_newExpireTime",
							"type": "uint64"
						}
					],
					"name": "renewTime",
					"outputs": [],
					"stateMutability": "nonpayable",
					"type": "function"
				},
				{
					"inputs": [],
					"name": "service",
					"outputs": [
						{
							"internalType": "address",
							"name": "",
							"type": "address"
						}
					],
					"stateMutability": "view",
					"type": "function"
				},
				{
					"inputs": [
						{
							"internalType": "address",
							"name": "_service",
							"type": "address"
						}
					],
					"name": "setService",
					"outputs": [],
					"stateMutability": "nonpayable",
					"type": "function"
				},
				{
					"inputs": [
						{
							"internalType": "bytes32",
							"name": "fileKey",
							"type": "bytes32"
						},
						{
							"internalType": "bytes",
							"name": "chunkData",
							"type": "bytes"
						},
						{
							"internalType": "bytes32",
							"name": "chunkHash",
							"type": "bytes32"
						}
					],
					"name": "uploadChunk",
					"outputs": [],
					"stateMutability": "nonpayable",
					"type": "function"
				},
				{
					"inputs": [
						{
							"internalType": "bytes32",
							"name": "fileKey",
							"type": "bytes32"
						},
						{
							"internalType": "bytes[]",
							"name": "chunkDatas",
							"type": "bytes[]"
						},
						{
							"internalType": "bytes32[]",
							"name": "chunkHashes",
							"type": "bytes32[]"
						}
					],
					"name": "uploadChunks",
					"outputs": [],
					"stateMutability": "nonpayable",
					"type": "function"
				}
			],
			"devdoc": {
				"kind": "dev",
				"methods": {},
				"version": 1
			},
			"evm": {
				"assembly": "    /* \"src/file.sol\":97:7433  contract Files {... */\n  mstore(0x40, 0x80)\n    /* \"src/file.sol\":781:786  owner */\n  0x03\n    /* \"src/file.sol\":781:799  owner = msg.sender */\n  dup1\n  sload\n  not(sub(shl(0xa0, 0x01), 0x01))\n  and\n    /* \"src/file.sol\":789:799  msg.sender */\n  caller\n    /* \"src/file.sol\":781:799  owner = msg.sender */\n  or\n  swap1\n  sstore\n    /* \"src/file.sol\":97:7433  contract Files {... */\n  dataSize(sub_0)\n  dup1\n  dataOffset(sub_0)\n  0x00\n  codecopy\n  0x00\n  return\nstop\n\nsub_0: assembly {\n        /* \"src/file.sol\":97:7433  contract Files {... */\n      mstore(0x40, 0x80)\n      callvalue\n      dup1\n      iszero\n      tag_1\n      jumpi\n      0x00\n      dup1\n      revert\n    tag_1:\n      pop\n      jumpi(tag_2, lt(calldatasize, 0x04))\n      shr(0xe0, calldataload(0x00))\n      dup1\n      0x2b44bc39\n      eq\n      tag_3\n      jumpi\n      dup1\n      0x46da5178\n      eq\n      tag_4\n      jumpi\n      dup1\n      0x52f7347b\n      eq\n      tag_5\n      jumpi\n      dup1\n      0x5f95c07b\n      eq\n      tag_6\n      jumpi\n      dup1\n      0x6ab799f1\n      eq\n      tag_7\n      jumpi\n      dup1\n      0x6e0c19b1\n      eq\n      tag_8\n      jumpi\n      dup1\n      0x8da5cb5b\n      eq\n      tag_9\n      jumpi\n      dup1\n      0x91c03370\n      eq\n      tag_10\n      jumpi\n      dup1\n      0x9b26b2a8\n      eq\n      tag_11\n      jumpi\n      dup1\n      0xbf8bdac1\n      eq\n      tag_12\n      jumpi\n      dup1\n      0xc652793d\n      eq\n      tag_13\n      jumpi\n      dup1\n      0xca7e3cd4\n      eq\n      tag_14\n      jumpi\n      dup1\n      0xd598d4c9\n      eq\n      tag_15\n      jumpi\n      dup1\n      0xeb070e7e\n      eq\n      tag_16\n      jumpi\n      dup1\n      0xedff13af\n      eq\n      tag_17\n      jumpi\n      dup1\n      0xf25671c4\n      eq\n      tag_18\n      jumpi\n      dup1\n      0xfab91940\n      eq\n      tag_19\n      jumpi\n    tag_2:\n      0x00\n      dup1\n      revert\n        /* \"src/file.sol\":2681:3008  function uploadChunks(bytes32 fileKey, bytes[] memory chunkDatas, bytes32[] memory chunkHashes) external {... */\n    tag_3:\n      tag_20\n      tag_21\n      calldatasize\n      0x04\n      tag_22\n      jump\t// in\n    tag_21:\n      tag_23\n      jump\t// in\n    tag_20:\n      stop\n        /* \"src/file.sol\":6081:6367  function getFileProgress(bytes32 fileKey) external view returns (FileProgress memory) {... */\n    tag_4:\n      tag_24\n      tag_25\n      calldatasize\n      0x04\n      tag_26\n      jump\t// in\n    tag_25:\n      tag_27\n      jump\t// in\n    tag_24:\n      mload(0x40)\n      tag_28\n      swap2\n      swap1\n      tag_29\n      jump\t// in\n    tag_28:\n      mload(0x40)\n      dup1\n      swap2\n      sub\n      swap1\n      return\n        /* \"src/file.sol\":5644:5770  function getFileInfo(bytes32 fileKey) external view returns (Info memory) {... */\n    tag_5:\n      tag_30\n      tag_31\n      calldatasize\n      0x04\n      tag_26\n      jump\t// in\n    tag_31:\n      tag_32\n      jump\t// in\n    tag_30:\n      mload(0x40)\n      tag_28\n      swap2\n      swap1\n      tag_34\n      jump\t// in\n        /* \"src/file.sol\":3013:4256  function uploadChunk(bytes32 fileKey, bytes memory chunkData, bytes32 chunkHash) public {... */\n    tag_6:\n      tag_20\n      tag_36\n      calldatasize\n      0x04\n      tag_37\n      jump\t// in\n    tag_36:\n      tag_38\n      jump\t// in\n        /* \"src/file.sol\":4690:5176  function deleteFile(bytes32 fileKey) external {... */\n    tag_7:\n      tag_20\n      tag_40\n      calldatasize\n      0x04\n      tag_26\n      jump\t// in\n    tag_40:\n      tag_41\n      jump\t// in\n        /* \"src/file.sol\":914:1196  function pushFileInfos(... */\n    tag_8:\n      tag_42\n      tag_43\n      calldatasize\n      0x04\n      tag_44\n      jump\t// in\n    tag_43:\n      tag_45\n      jump\t// in\n    tag_42:\n      mload(0x40)\n      tag_28\n      swap2\n      swap1\n      tag_47\n      jump\t// in\n        /* \"src/file.sol\":500:520  address public owner */\n    tag_9:\n      sload(0x03)\n      tag_48\n      swap1\n      sub(shl(0xa0, 0x01), 0x01)\n      and\n      dup2\n      jump\n    tag_48:\n      mload(0x40)\n      sub(shl(0xa0, 0x01), 0x01)\n        /* \"#utility.yul\":11285:11317   */\n      swap1\n      swap2\n      and\n        /* \"#utility.yul\":11267:11318   */\n      dup2\n      mstore\n        /* \"#utility.yul\":11255:11257   */\n      0x20\n        /* \"#utility.yul\":11240:11258   */\n      add\n        /* \"src/file.sol\":500:520  address public owner */\n      tag_28\n        /* \"#utility.yul\":11121:11324   */\n      jump\n        /* \"src/file.sol\":5182:5635  function renewTime(bytes32 fileKey, uint64 _newExpireTime) external {... */\n    tag_10:\n      tag_20\n      tag_53\n      calldatasize\n      0x04\n      tag_54\n      jump\t// in\n    tag_53:\n      tag_55\n      jump\t// in\n        /* \"src/file.sol\":4262:4684  function lockFile(bytes32 fileKey) external {... */\n    tag_11:\n      tag_20\n      tag_57\n      calldatasize\n      0x04\n      tag_26\n      jump\t// in\n    tag_57:\n      tag_58\n      jump\t// in\n        /* \"src/file.sol\":812:904  function setService(address _service) external onlyOwner {... */\n    tag_12:\n      tag_20\n      tag_60\n      calldatasize\n      0x04\n      tag_61\n      jump\t// in\n    tag_60:\n      tag_62\n      jump\t// in\n        /* \"src/file.sol\":362:412  mapping(bytes32 => FileInfo) public mKeyToFileInfo */\n    tag_13:\n      tag_63\n      tag_64\n      calldatasize\n      0x04\n      tag_26\n      jump\t// in\n    tag_64:\n      tag_65\n      jump\t// in\n    tag_63:\n      mload(0x40)\n      tag_28\n      swap3\n      swap2\n      swap1\n      tag_67\n      jump\t// in\n        /* \"src/file.sol\":1202:2369  function pushFileInfo(Info memory info) public returns (bytes32 fileKey) {... */\n    tag_14:\n      tag_68\n      tag_69\n      calldatasize\n      0x04\n      tag_70\n      jump\t// in\n    tag_69:\n      tag_71\n      jump\t// in\n    tag_68:\n      mload(0x40)\n        /* \"#utility.yul\":12673:12698   */\n      swap1\n      dup2\n      mstore\n        /* \"#utility.yul\":12661:12663   */\n      0x20\n        /* \"#utility.yul\":12646:12664   */\n      add\n        /* \"src/file.sol\":1202:2369  function pushFileInfo(Info memory info) public returns (bytes32 fileKey) {... */\n      tag_28\n        /* \"#utility.yul\":12527:12704   */\n      jump\n        /* \"src/file.sol\":472:494  address public service */\n    tag_15:\n      sload(0x02)\n      tag_48\n      swap1\n      sub(shl(0xa0, 0x01), 0x01)\n      and\n      dup2\n      jump\n        /* \"src/file.sol\":5776:6075  function getFilesInfo(bytes32[] memory fileKeys) external view returns(Info[] memory infos ){... */\n    tag_16:\n      tag_77\n      tag_78\n      calldatasize\n      0x04\n      tag_79\n      jump\t// in\n    tag_78:\n      tag_80\n      jump\t// in\n    tag_77:\n      mload(0x40)\n      tag_28\n      swap2\n      swap1\n      tag_82\n      jump\t// in\n        /* \"src/file.sol\":418:466  mapping(string => bytes32) public mNameToFileKey */\n    tag_17:\n      tag_68\n      tag_84\n      calldatasize\n      0x04\n      tag_85\n      jump\t// in\n    tag_84:\n      dup1\n      mload\n      0x20\n      dup2\n      dup4\n      add\n      dup2\n      add\n      dup1\n      mload\n      0x01\n      dup3\n      mstore\n      swap3\n      dup3\n      add\n      swap2\n      swap1\n      swap4\n      add\n      keccak256\n      swap2\n      mstore\n      sload\n      dup2\n      jump\n        /* \"src/file.sol\":2379:2676  function getFileKeyFromName(string[] memory names) view external returns(bytes32[] memory ){... */\n    tag_18:\n      tag_42\n      tag_89\n      calldatasize\n      0x04\n      tag_90\n      jump\t// in\n    tag_89:\n      tag_91\n      jump\t// in\n        /* \"src/file.sol\":6421:7428  function downloadFile(... */\n    tag_19:\n      tag_93\n      tag_94\n      calldatasize\n      0x04\n      tag_95\n      jump\t// in\n    tag_94:\n      tag_96\n      jump\t// in\n    tag_93:\n      mload(0x40)\n      tag_28\n      swap2\n      swap1\n      tag_98\n      jump\t// in\n        /* \"src/file.sol\":2681:3008  function uploadChunks(bytes32 fileKey, bytes[] memory chunkDatas, bytes32[] memory chunkHashes) external {... */\n    tag_23:\n        /* \"src/file.sol\":2826:2836  chunkDatas */\n      dup2\n        /* \"src/file.sol\":2826:2843  chunkDatas.length */\n      mload\n        /* \"src/file.sol\":2804:2815  chunkHashes */\n      dup2\n        /* \"src/file.sol\":2804:2822  chunkHashes.length */\n      mload\n        /* \"src/file.sol\":2804:2843  chunkHashes.length == chunkDatas.length */\n      eq\n        /* \"src/file.sol\":2796:2877  require(chunkHashes.length == chunkDatas.length,\"length arrays should be equal\" ) */\n      tag_100\n      jumpi\n      mload(0x40)\n      shl(0xe5, 0x461bcd)\n      dup2\n      mstore\n        /* \"#utility.yul\":16687:16689   */\n      0x20\n        /* \"src/file.sol\":2796:2877  require(chunkHashes.length == chunkDatas.length,\"length arrays should be equal\" ) */\n      0x04\n      dup3\n      add\n        /* \"#utility.yul\":16669:16690   */\n      mstore\n        /* \"#utility.yul\":16726:16728   */\n      0x1d\n        /* \"#utility.yul\":16706:16724   */\n      0x24\n      dup3\n      add\n        /* \"#utility.yul\":16699:16729   */\n      mstore\n        /* \"#utility.yul\":16765:16796   */\n      0x6c656e677468206172726179732073686f756c6420626520657175616c000000\n        /* \"#utility.yul\":16745:16763   */\n      0x44\n      dup3\n      add\n        /* \"#utility.yul\":16738:16797   */\n      mstore\n        /* \"#utility.yul\":16814:16832   */\n      0x64\n      add\n        /* \"src/file.sol\":2796:2877  require(chunkHashes.length == chunkDatas.length,\"length arrays should be equal\" ) */\n    tag_101:\n      mload(0x40)\n      dup1\n      swap2\n      sub\n      swap1\n      revert\n    tag_100:\n        /* \"src/file.sol\":2891:2900  uint256 i */\n      0x00\n        /* \"src/file.sol\":2887:3002  for(uint256 i; i<chunkDatas.length; i++){... */\n    tag_103:\n        /* \"src/file.sol\":2904:2914  chunkDatas */\n      dup3\n        /* \"src/file.sol\":2904:2921  chunkDatas.length */\n      mload\n        /* \"src/file.sol\":2902:2903  i */\n      dup2\n        /* \"src/file.sol\":2902:2921  i<chunkDatas.length */\n      lt\n        /* \"src/file.sol\":2887:3002  for(uint256 i; i<chunkDatas.length; i++){... */\n      iszero\n      tag_104\n      jumpi\n        /* \"src/file.sol\":2941:2991  uploadChunk(fileKey,chunkDatas[i], chunkHashes[i]) */\n      tag_106\n        /* \"src/file.sol\":2953:2960  fileKey */\n      dup5\n        /* \"src/file.sol\":2961:2971  chunkDatas */\n      dup5\n        /* \"src/file.sol\":2972:2973  i */\n      dup4\n        /* \"src/file.sol\":2961:2974  chunkDatas[i] */\n      dup2\n      mload\n      dup2\n      lt\n      tag_108\n      jumpi\n      tag_108\n      tag_109\n      jump\t// in\n    tag_108:\n      0x20\n      mul\n      0x20\n      add\n      add\n      mload\n        /* \"src/file.sol\":2976:2987  chunkHashes */\n      dup5\n        /* \"src/file.sol\":2988:2989  i */\n      dup5\n        /* \"src/file.sol\":2976:2990  chunkHashes[i] */\n      dup2\n      mload\n      dup2\n      lt\n      tag_111\n      jumpi\n      tag_111\n      tag_109\n      jump\t// in\n    tag_111:\n      0x20\n      mul\n      0x20\n      add\n      add\n      mload\n        /* \"src/file.sol\":2941:2952  uploadChunk */\n      tag_38\n        /* \"src/file.sol\":2941:2991  uploadChunk(fileKey,chunkDatas[i], chunkHashes[i]) */\n      jump\t// in\n    tag_106:\n        /* \"src/file.sol\":2923:2926  i++ */\n      dup1\n      tag_112\n      dup2\n      tag_113\n      jump\t// in\n    tag_112:\n      swap2\n      pop\n      pop\n        /* \"src/file.sol\":2887:3002  for(uint256 i; i<chunkDatas.length; i++){... */\n      jump(tag_103)\n    tag_104:\n      pop\n        /* \"src/file.sol\":2681:3008  function uploadChunks(bytes32 fileKey, bytes[] memory chunkDatas, bytes32[] memory chunkHashes) external {... */\n      pop\n      pop\n      pop\n      jump\t// out\n        /* \"src/file.sol\":6081:6367  function getFileProgress(bytes32 fileKey) external view returns (FileProgress memory) {... */\n    tag_27:\n      0x40\n      dup1\n      mload\n      0x60\n      dup2\n      add\n      dup3\n      mstore\n      0x00\n      dup1\n      dup3\n      mstore\n      0x20\n      dup3\n      add\n      dup2\n      swap1\n      mstore\n      swap2\n      dup2\n      add\n      swap2\n      swap1\n      swap2\n      mstore\n        /* \"src/file.sol\":6177:6198  FileInfo storage file */\n      0x00\n        /* \"src/file.sol\":6201:6224  mKeyToFileInfo[fileKey] */\n      dup3\n      dup2\n      mstore\n      0x20\n      dup2\n      swap1\n      mstore\n      0x40\n      dup2\n      keccak256\n      swap1\n        /* \"src/file.sol\":6242:6258  file.info.status */\n      0x05\n      dup3\n      add\n      sload\n      0xff\n      and\n        /* \"src/file.sol\":6242:6283  file.info.status == FileStatus.Processing */\n      0x03\n      dup2\n      gt\n      iszero\n      tag_121\n      jumpi\n      tag_121\n      tag_119\n      jump\t// in\n    tag_121:\n      eq\n        /* \"src/file.sol\":6234:6310  require(file.info.status == FileStatus.Processing, \"File upload not exists\") */\n      tag_122\n      jumpi\n      mload(0x40)\n      shl(0xe5, 0x461bcd)\n      dup2\n      mstore\n        /* \"#utility.yul\":17449:17451   */\n      0x20\n        /* \"src/file.sol\":6234:6310  require(file.info.status == FileStatus.Processing, \"File upload not exists\") */\n      0x04\n      dup3\n      add\n        /* \"#utility.yul\":17431:17452   */\n      mstore\n        /* \"#utility.yul\":17488:17490   */\n      0x16\n        /* \"#utility.yul\":17468:17486   */\n      0x24\n      dup3\n      add\n        /* \"#utility.yul\":17461:17491   */\n      mstore\n      shl(0x50, 0x46696c652075706c6f6164206e6f7420657869737473)\n        /* \"#utility.yul\":17507:17525   */\n      0x44\n      dup3\n      add\n        /* \"#utility.yul\":17500:17552   */\n      mstore\n        /* \"#utility.yul\":17569:17587   */\n      0x64\n      add\n        /* \"src/file.sol\":6234:6310  require(file.info.status == FileStatus.Processing, \"File upload not exists\") */\n      tag_101\n        /* \"#utility.yul\":17247:17593   */\n      jump\n        /* \"src/file.sol\":6234:6310  require(file.info.status == FileStatus.Processing, \"File upload not exists\") */\n    tag_122:\n      pop\n      pop\n        /* \"src/file.sol\":6328:6342  mKeyToFileInfo */\n      0x00\n        /* \"src/file.sol\":6328:6351  mKeyToFileInfo[fileKey] */\n      swap1\n      dup2\n      mstore\n      0x20\n      dup2\n      dup2\n      mstore\n      0x40\n      swap2\n      dup3\n      swap1\n      keccak256\n        /* \"src/file.sol\":6321:6360  return mKeyToFileInfo[fileKey].progress */\n      dup3\n      mload\n      0x60\n      dup2\n      add\n      dup5\n      mstore\n        /* \"src/file.sol\":6328:6360  mKeyToFileInfo[fileKey].progress */\n      0x08\n      dup3\n      add\n        /* \"src/file.sol\":6321:6360  return mKeyToFileInfo[fileKey].progress */\n      sload\n      dup2\n      mstore\n      0x09\n      swap1\n      swap2\n      add\n      sload\n      sub(shl(0x40, 0x01), 0x01)\n      dup1\n      dup3\n      and\n      swap4\n      dup4\n      add\n      swap4\n      swap1\n      swap4\n      mstore\n      shl(0x40, 0x01)\n      swap1\n      div\n      swap1\n      swap2\n      and\n      swap2\n      dup2\n      add\n      swap2\n      swap1\n      swap2\n      mstore\n      swap1\n        /* \"src/file.sol\":6081:6367  function getFileProgress(bytes32 fileKey) external view returns (FileProgress memory) {... */\n      jump\t// out\n        /* \"src/file.sol\":5644:5770  function getFileInfo(bytes32 fileKey) external view returns (Info memory) {... */\n    tag_32:\n        /* \"src/file.sol\":5705:5716  Info memory */\n      tag_125\n      tag_126\n      jump\t// in\n    tag_125:\n        /* \"src/file.sol\":5735:5749  mKeyToFileInfo */\n      0x00\n        /* \"src/file.sol\":5735:5758  mKeyToFileInfo[fileKey] */\n      dup3\n      dup2\n      mstore\n      0x20\n      dup2\n      dup2\n      mstore\n      0x40\n      swap2\n      dup3\n      swap1\n      keccak256\n        /* \"src/file.sol\":5728:5763  return mKeyToFileInfo[fileKey].info */\n      dup3\n      mload\n      0x0140\n      dup2\n      add\n      dup5\n      mstore\n      dup2\n      sload\n      sub(shl(0xa0, 0x01), 0x01)\n      and\n      dup2\n      mstore\n      0x01\n      dup3\n      add\n      sload\n      swap3\n      dup2\n      add\n      swap3\n      swap1\n      swap3\n      mstore\n      0x02\n      dup2\n      add\n      sload\n      sub(shl(0x40, 0x01), 0x01)\n      dup1\n      dup3\n      and\n      swap5\n      dup5\n      add\n      swap5\n      swap1\n      swap5\n      mstore\n      shl(0x40, 0x01)\n      dup2\n      div\n      dup5\n      and\n      0x60\n      dup5\n      add\n      mstore\n      shl(0x80, 0x01)\n      swap1\n      div\n      swap1\n      swap3\n      and\n      0x80\n      dup3\n      add\n      mstore\n      0x03\n      dup3\n      add\n      dup1\n      sload\n      swap2\n      swap3\n        /* \"src/file.sol\":5735:5758  mKeyToFileInfo[fileKey] */\n      swap2\n        /* \"src/file.sol\":5728:5763  return mKeyToFileInfo[fileKey].info */\n      0xa0\n      dup5\n      add\n      swap2\n      swap1\n      tag_128\n      swap1\n      tag_129\n      jump\t// in\n    tag_128:\n      dup1\n      0x1f\n      add\n      0x20\n      dup1\n      swap2\n      div\n      mul\n      0x20\n      add\n      mload(0x40)\n      swap1\n      dup2\n      add\n      0x40\n      mstore\n      dup1\n      swap3\n      swap2\n      swap1\n      dup2\n      dup2\n      mstore\n      0x20\n      add\n      dup3\n      dup1\n      sload\n      tag_130\n      swap1\n      tag_129\n      jump\t// in\n    tag_130:\n      dup1\n      iszero\n      tag_131\n      jumpi\n      dup1\n      0x1f\n      lt\n      tag_132\n      jumpi\n      0x0100\n      dup1\n      dup4\n      sload\n      div\n      mul\n      dup4\n      mstore\n      swap2\n      0x20\n      add\n      swap2\n      jump(tag_131)\n    tag_132:\n      dup3\n      add\n      swap2\n      swap1\n      0x00\n      mstore\n      keccak256(0x00, 0x20)\n      swap1\n    tag_133:\n      dup2\n      sload\n      dup2\n      mstore\n      swap1\n      0x01\n      add\n      swap1\n      0x20\n      add\n      dup1\n      dup4\n      gt\n      tag_133\n      jumpi\n      dup3\n      swap1\n      sub\n      0x1f\n      and\n      dup3\n      add\n      swap2\n    tag_131:\n      pop\n      pop\n      pop\n      pop\n      pop\n      dup2\n      mstore\n      0x20\n      add\n      0x04\n      dup3\n      add\n      dup1\n      sload\n      tag_134\n      swap1\n      tag_129\n      jump\t// in\n    tag_134:\n      dup1\n      0x1f\n      add\n      0x20\n      dup1\n      swap2\n      div\n      mul\n      0x20\n      add\n      mload(0x40)\n      swap1\n      dup2\n      add\n      0x40\n      mstore\n      dup1\n      swap3\n      swap2\n      swap1\n      dup2\n      dup2\n      mstore\n      0x20\n      add\n      dup3\n      dup1\n      sload\n      tag_135\n      swap1\n      tag_129\n      jump\t// in\n    tag_135:\n      dup1\n      iszero\n      tag_136\n      jumpi\n      dup1\n      0x1f\n      lt\n      tag_137\n      jumpi\n      0x0100\n      dup1\n      dup4\n      sload\n      div\n      mul\n      dup4\n      mstore\n      swap2\n      0x20\n      add\n      swap2\n      jump(tag_136)\n    tag_137:\n      dup3\n      add\n      swap2\n      swap1\n      0x00\n      mstore\n      keccak256(0x00, 0x20)\n      swap1\n    tag_138:\n      dup2\n      sload\n      dup2\n      mstore\n      swap1\n      0x01\n      add\n      swap1\n      0x20\n      add\n      dup1\n      dup4\n      gt\n      tag_138\n      jumpi\n      dup3\n      swap1\n      sub\n      0x1f\n      and\n      dup3\n      add\n      swap2\n    tag_136:\n      pop\n      pop\n      pop\n      swap2\n      dup4\n      mstore\n      pop\n      pop\n      0x05\n      dup3\n      add\n      sload\n      0x20\n      swap1\n      swap2\n      add\n      swap1\n      0xff\n      and\n      0x03\n      dup2\n      gt\n      iszero\n      tag_140\n      jumpi\n      tag_140\n      tag_119\n      jump\t// in\n    tag_140:\n      0x03\n      dup2\n      gt\n      iszero\n      tag_142\n      jumpi\n      tag_142\n      tag_119\n      jump\t// in\n    tag_142:\n      dup2\n      mstore\n      0x20\n      add\n      0x06\n      dup3\n      add\n      dup1\n      sload\n      tag_143\n      swap1\n      tag_129\n      jump\t// in\n    tag_143:\n      dup1\n      0x1f\n      add\n      0x20\n      dup1\n      swap2\n      div\n      mul\n      0x20\n      add\n      mload(0x40)\n      swap1\n      dup2\n      add\n      0x40\n      mstore\n      dup1\n      swap3\n      swap2\n      swap1\n      dup2\n      dup2\n      mstore\n      0x20\n      add\n      dup3\n      dup1\n      sload\n      tag_144\n      swap1\n      tag_129\n      jump\t// in\n    tag_144:\n      dup1\n      iszero\n      tag_145\n      jumpi\n      dup1\n      0x1f\n      lt\n      tag_146\n      jumpi\n      0x0100\n      dup1\n      dup4\n      sload\n      div\n      mul\n      dup4\n      mstore\n      swap2\n      0x20\n      add\n      swap2\n      jump(tag_145)\n    tag_146:\n      dup3\n      add\n      swap2\n      swap1\n      0x00\n      mstore\n      keccak256(0x00, 0x20)\n      swap1\n    tag_147:\n      dup2\n      sload\n      dup2\n      mstore\n      swap1\n      0x01\n      add\n      swap1\n      0x20\n      add\n      dup1\n      dup4\n      gt\n      tag_147\n      jumpi\n      dup3\n      swap1\n      sub\n      0x1f\n      and\n      dup3\n      add\n      swap2\n    tag_145:\n      pop\n      pop\n      pop\n      pop\n      pop\n      dup2\n      mstore\n      0x20\n      add\n      0x07\n      dup3\n      add\n      dup1\n      sload\n      tag_148\n      swap1\n      tag_129\n      jump\t// in\n    tag_148:\n      dup1\n      0x1f\n      add\n      0x20\n      dup1\n      swap2\n      div\n      mul\n      0x20\n      add\n      mload(0x40)\n      swap1\n      dup2\n      add\n      0x40\n      mstore\n      dup1\n      swap3\n      swap2\n      swap1\n      dup2\n      dup2\n      mstore\n      0x20\n      add\n      dup3\n      dup1\n      sload\n      tag_149\n      swap1\n      tag_129\n      jump\t// in\n    tag_149:\n      dup1\n      iszero\n      tag_150\n      jumpi\n      dup1\n      0x1f\n      lt\n      tag_151\n      jumpi\n      0x0100\n      dup1\n      dup4\n      sload\n      div\n      mul\n      dup4\n      mstore\n      swap2\n      0x20\n      add\n      swap2\n      jump(tag_150)\n    tag_151:\n      dup3\n      add\n      swap2\n      swap1\n      0x00\n      mstore\n      keccak256(0x00, 0x20)\n      swap1\n    tag_152:\n      dup2\n      sload\n      dup2\n      mstore\n      swap1\n      0x01\n      add\n      swap1\n      0x20\n      add\n      dup1\n      dup4\n      gt\n      tag_152\n      jumpi\n      dup3\n      swap1\n      sub\n      0x1f\n      and\n      dup3\n      add\n      swap2\n    tag_150:\n      pop\n      pop\n      pop\n      pop\n      pop\n      dup2\n      mstore\n      pop\n      pop\n      swap1\n      pop\n        /* \"src/file.sol\":5644:5770  function getFileInfo(bytes32 fileKey) external view returns (Info memory) {... */\n      swap2\n      swap1\n      pop\n      jump\t// out\n        /* \"src/file.sol\":3013:4256  function uploadChunk(bytes32 fileKey, bytes memory chunkData, bytes32 chunkHash) public {... */\n    tag_38:\n        /* \"src/file.sol\":3138:3139  0 */\n      0x00\n        /* \"src/file.sol\":3119:3128  chunkData */\n      dup3\n        /* \"src/file.sol\":3119:3135  chunkData.length */\n      mload\n        /* \"src/file.sol\":3119:3139  chunkData.length > 0 */\n      gt\n        /* \"src/file.sol\":3119:3172  chunkData.length > 0 && chunkData.length <= 10 * 1024 */\n      dup1\n      iszero\n      tag_154\n      jumpi\n      pop\n        /* \"src/file.sol\":3163:3172  10 * 1024 */\n      0x2800\n        /* \"src/file.sol\":3143:3152  chunkData */\n      dup3\n        /* \"src/file.sol\":3143:3159  chunkData.length */\n      mload\n        /* \"src/file.sol\":3143:3172  chunkData.length <= 10 * 1024 */\n      gt\n      iszero\n        /* \"src/file.sol\":3119:3172  chunkData.length > 0 && chunkData.length <= 10 * 1024 */\n    tag_154:\n        /* \"src/file.sol\":3111:3195  require(chunkData.length > 0 && chunkData.length <= 10 * 1024, \"Invalid chunk size\") */\n      tag_155\n      jumpi\n      mload(0x40)\n      shl(0xe5, 0x461bcd)\n      dup2\n      mstore\n        /* \"#utility.yul\":18185:18187   */\n      0x20\n        /* \"src/file.sol\":3111:3195  require(chunkData.length > 0 && chunkData.length <= 10 * 1024, \"Invalid chunk size\") */\n      0x04\n      dup3\n      add\n        /* \"#utility.yul\":18167:18188   */\n      mstore\n        /* \"#utility.yul\":18224:18226   */\n      0x12\n        /* \"#utility.yul\":18204:18222   */\n      0x24\n      dup3\n      add\n        /* \"#utility.yul\":18197:18227   */\n      mstore\n      shl(0x70, 0x496e76616c6964206368756e6b2073697a65)\n        /* \"#utility.yul\":18243:18261   */\n      0x44\n      dup3\n      add\n        /* \"#utility.yul\":18236:18284   */\n      mstore\n        /* \"#utility.yul\":18301:18319   */\n      0x64\n      add\n        /* \"src/file.sol\":3111:3195  require(chunkData.length > 0 && chunkData.length <= 10 * 1024, \"Invalid chunk size\") */\n      tag_101\n        /* \"#utility.yul\":17983:18325   */\n      jump\n        /* \"src/file.sol\":3111:3195  require(chunkData.length > 0 && chunkData.length <= 10 * 1024, \"Invalid chunk size\") */\n    tag_155:\n        /* \"src/file.sol\":3214:3235  FileInfo storage file */\n      0x00\n        /* \"src/file.sol\":3238:3261  mKeyToFileInfo[fileKey] */\n      dup4\n      dup2\n      mstore\n      0x20\n      dup2\n      swap1\n      mstore\n      0x40\n      swap1\n      keccak256\n        /* \"src/file.sol\":3279:3294  file.info.owner */\n      dup1\n      sload\n      sub(shl(0xa0, 0x01), 0x01)\n      and\n        /* \"src/file.sol\":3298:3308  msg.sender */\n      caller\n        /* \"src/file.sol\":3279:3308  file.info.owner == msg.sender */\n      eq\n        /* \"src/file.sol\":3271:3336  require(file.info.owner == msg.sender, \"Caller is not the owner\") */\n      tag_158\n      jumpi\n      mload(0x40)\n      shl(0xe5, 0x461bcd)\n      dup2\n      mstore\n      0x04\n      add\n      tag_101\n      swap1\n      tag_160\n      jump\t// in\n    tag_158:\n        /* \"src/file.sol\":3406:3426  file.info.contentLen */\n      0x02\n      dup2\n      add\n      sload\n        /* \"src/file.sol\":3386:3402  chunkData.length */\n      dup4\n      mload\n        /* \"src/file.sol\":3354:3383  file.progress.processedLength */\n      0x09\n      dup4\n      add\n      sload\n      sub(shl(0x40, 0x01), 0x01)\n        /* \"src/file.sol\":3406:3426  file.info.contentLen */\n      swap3\n      dup4\n      and\n      swap3\n        /* \"src/file.sol\":3354:3402  file.progress.processedLength + chunkData.length */\n      tag_161\n      swap3\n        /* \"src/file.sol\":3386:3402  chunkData.length */\n      swap2\n      shl(0x40, 0x01)\n        /* \"src/file.sol\":3354:3383  file.progress.processedLength */\n      swap1\n      div\n      and\n        /* \"src/file.sol\":3354:3402  file.progress.processedLength + chunkData.length */\n      tag_162\n      jump\t// in\n    tag_161:\n        /* \"src/file.sol\":3354:3426  file.progress.processedLength + chunkData.length <= file.info.contentLen */\n      gt\n      iszero\n        /* \"src/file.sol\":3346:3456  require(file.progress.processedLength + chunkData.length <= file.info.contentLen, \"Chunk exceeds file length\") */\n      tag_163\n      jumpi\n      mload(0x40)\n      shl(0xe5, 0x461bcd)\n      dup2\n      mstore\n        /* \"#utility.yul\":19014:19016   */\n      0x20\n        /* \"src/file.sol\":3346:3456  require(file.progress.processedLength + chunkData.length <= file.info.contentLen, \"Chunk exceeds file length\") */\n      0x04\n      dup3\n      add\n        /* \"#utility.yul\":18996:19017   */\n      mstore\n        /* \"#utility.yul\":19053:19055   */\n      0x19\n        /* \"#utility.yul\":19033:19051   */\n      0x24\n      dup3\n      add\n        /* \"#utility.yul\":19026:19056   */\n      mstore\n      shl(0x3b, 0x086d0eadcd640caf0c6cacac8e640ccd2d8ca40d8cadccee8d)\n        /* \"#utility.yul\":19072:19090   */\n      0x44\n      dup3\n      add\n        /* \"#utility.yul\":19065:19120   */\n      mstore\n        /* \"#utility.yul\":19137:19155   */\n      0x64\n      add\n        /* \"src/file.sol\":3346:3456  require(file.progress.processedLength + chunkData.length <= file.info.contentLen, \"Chunk exceeds file length\") */\n      tag_101\n        /* \"#utility.yul\":18812:19161   */\n      jump\n        /* \"src/file.sol\":3346:3456  require(file.progress.processedLength + chunkData.length <= file.info.contentLen, \"Chunk exceeds file length\") */\n    tag_163:\n        /* \"src/file.sol\":3494:3515  FileStatus.Processing */\n      0x00\n        /* \"src/file.sol\":3474:3490  file.info.status */\n      0x05\n      dup3\n      add\n      sload\n      0xff\n      and\n        /* \"src/file.sol\":3474:3515  file.info.status == FileStatus.Processing */\n      0x03\n      dup2\n      gt\n      iszero\n      tag_169\n      jumpi\n      tag_169\n      tag_119\n      jump\t// in\n    tag_169:\n      eq\n        /* \"src/file.sol\":3466:3547  require(file.info.status == FileStatus.Processing, \"File is not being processed\") */\n      tag_170\n      jumpi\n      mload(0x40)\n      shl(0xe5, 0x461bcd)\n      dup2\n      mstore\n        /* \"#utility.yul\":19368:19370   */\n      0x20\n        /* \"src/file.sol\":3466:3547  require(file.info.status == FileStatus.Processing, \"File is not being processed\") */\n      0x04\n      dup3\n      add\n        /* \"#utility.yul\":19350:19371   */\n      mstore\n        /* \"#utility.yul\":19407:19409   */\n      0x1b\n        /* \"#utility.yul\":19387:19405   */\n      0x24\n      dup3\n      add\n        /* \"#utility.yul\":19380:19410   */\n      mstore\n      shl(0x2a, 0x119a5b19481a5cc81b9bdd0818995a5b99c81c1c9bd8d95cdcd959)\n        /* \"#utility.yul\":19426:19444   */\n      0x44\n      dup3\n      add\n        /* \"#utility.yul\":19419:19476   */\n      mstore\n        /* \"#utility.yul\":19493:19511   */\n      0x64\n      add\n        /* \"src/file.sol\":3466:3547  require(file.info.status == FileStatus.Processing, \"File is not being processed\") */\n      tag_101\n        /* \"#utility.yul\":19166:19517   */\n      jump\n        /* \"src/file.sol\":3466:3547  require(file.info.status == FileStatus.Processing, \"File is not being processed\") */\n    tag_170:\n        /* \"src/file.sol\":3612:3625  file.progress */\n      0x08\n      dup2\n      add\n        /* \"src/file.sol\":3612:3639  file.progress.lastChunkHash */\n      sload\n        /* \"src/file.sol\":3595:3651  abi.encodePacked(file.progress.lastChunkHash, chunkData) */\n      mload(0x40)\n        /* \"src/file.sol\":3557:3582  bytes32 computedChunkHash */\n      0x00\n      swap2\n        /* \"src/file.sol\":3595:3651  abi.encodePacked(file.progress.lastChunkHash, chunkData) */\n      tag_173\n      swap2\n        /* \"src/file.sol\":3641:3650  chunkData */\n      dup7\n      swap1\n        /* \"src/file.sol\":3595:3651  abi.encodePacked(file.progress.lastChunkHash, chunkData) */\n      0x20\n      add\n      tag_174\n      jump\t// in\n    tag_173:\n      mload(0x40)\n      0x20\n      dup2\n      dup4\n      sub\n      sub\n      dup2\n      mstore\n      swap1\n      0x40\n      mstore\n        /* \"src/file.sol\":3585:3652  keccak256(abi.encodePacked(file.progress.lastChunkHash, chunkData)) */\n      dup1\n      mload\n      swap1\n      0x20\n      add\n      keccak256\n        /* \"src/file.sol\":3557:3652  bytes32 computedChunkHash = keccak256(abi.encodePacked(file.progress.lastChunkHash, chunkData)) */\n      swap1\n      pop\n        /* \"src/file.sol\":3691:3700  chunkHash */\n      dup3\n        /* \"src/file.sol\":3670:3687  computedChunkHash */\n      dup2\n        /* \"src/file.sol\":3670:3700  computedChunkHash == chunkHash */\n      eq\n        /* \"src/file.sol\":3662:3724  require(computedChunkHash == chunkHash, \"Chunk hash mismatch\") */\n      tag_175\n      jumpi\n      mload(0x40)\n      shl(0xe5, 0x461bcd)\n      dup2\n      mstore\n        /* \"#utility.yul\":20088:20090   */\n      0x20\n        /* \"src/file.sol\":3662:3724  require(computedChunkHash == chunkHash, \"Chunk hash mismatch\") */\n      0x04\n      dup3\n      add\n        /* \"#utility.yul\":20070:20091   */\n      mstore\n        /* \"#utility.yul\":20127:20129   */\n      0x13\n        /* \"#utility.yul\":20107:20125   */\n      0x24\n      dup3\n      add\n        /* \"#utility.yul\":20100:20130   */\n      mstore\n      shl(0x6b, 0x086d0eadcd640d0c2e6d040dad2e6dac2e8c6d)\n        /* \"#utility.yul\":20146:20164   */\n      0x44\n      dup3\n      add\n        /* \"#utility.yul\":20139:20188   */\n      mstore\n        /* \"#utility.yul\":20205:20223   */\n      0x64\n      add\n        /* \"src/file.sol\":3662:3724  require(computedChunkHash == chunkHash, \"Chunk hash mismatch\") */\n      tag_101\n        /* \"#utility.yul\":19886:20229   */\n      jump\n        /* \"src/file.sol\":3662:3724  require(computedChunkHash == chunkHash, \"Chunk hash mismatch\") */\n    tag_175:\n        /* \"src/file.sol\":3735:3748  file.progress */\n      0x08\n      dup3\n      add\n        /* \"src/file.sol\":3735:3782  file.progress.lastChunkHash = computedChunkHash */\n      dup2\n      swap1\n      sstore\n        /* \"src/file.sol\":3804:3833  file.progress.processedChunks */\n      0x09\n      dup3\n      add\n      sload\n      sub(shl(0x40, 0x01), 0x01)\n      and\n        /* \"src/file.sol\":3735:3762  file.progress.lastChunkHash */\n      0x00\n        /* \"src/file.sol\":3792:3834  file.chunks[file.progress.processedChunks] */\n      swap1\n      dup2\n      mstore\n        /* \"src/file.sol\":3792:3803  file.chunks */\n      0x0a\n      dup4\n      add\n        /* \"src/file.sol\":3792:3834  file.chunks[file.progress.processedChunks] */\n      0x20\n      mstore\n      0x40\n      swap1\n      keccak256\n        /* \"src/file.sol\":3792:3846  file.chunks[file.progress.processedChunks] = chunkData */\n      tag_178\n        /* \"src/file.sol\":3837:3846  chunkData */\n      dup6\n        /* \"src/file.sol\":3792:3834  file.chunks[file.progress.processedChunks] */\n      dup3\n        /* \"src/file.sol\":3792:3846  file.chunks[file.progress.processedChunks] = chunkData */\n      tag_179\n      jump\t// in\n    tag_178:\n      pop\n        /* \"src/file.sol\":3856:3885  file.progress.processedChunks */\n      0x09\n      dup3\n      add\n        /* \"src/file.sol\":3856:3887  file.progress.processedChunks++ */\n      dup1\n      sload\n      sub(shl(0x40, 0x01), 0x01)\n      and\n      swap1\n        /* \"src/file.sol\":3856:3885  file.progress.processedChunks */\n      0x00\n        /* \"src/file.sol\":3856:3887  file.progress.processedChunks++ */\n      tag_180\n      dup4\n      tag_181\n      jump\t// in\n    tag_180:\n      swap2\n      swap1\n      0x0100\n      exp\n      dup2\n      sload\n      dup2\n      sub(shl(0x40, 0x01), 0x01)\n      mul\n      not\n      and\n      swap1\n      dup4\n      sub(shl(0x40, 0x01), 0x01)\n      and\n      mul\n      or\n      swap1\n      sstore\n      pop\n      pop\n        /* \"src/file.sol\":3937:3946  chunkData */\n      dup4\n        /* \"src/file.sol\":3937:3953  chunkData.length */\n      mload\n        /* \"src/file.sol\":3897:3901  file */\n      dup3\n        /* \"src/file.sol\":3897:3910  file.progress */\n      0x08\n      add\n        /* \"src/file.sol\":3897:3926  file.progress.processedLength */\n      0x01\n      add\n      0x08\n        /* \"src/file.sol\":3897:3954  file.progress.processedLength += uint64(chunkData.length) */\n      dup3\n      dup3\n      dup3\n      swap1\n      sload\n      swap1\n      0x0100\n      exp\n      swap1\n      div\n      sub(shl(0x40, 0x01), 0x01)\n      and\n      tag_182\n      swap2\n      swap1\n      tag_183\n      jump\t// in\n    tag_182:\n      dup3\n      sload\n      0x0100\n      swap3\n      swap1\n      swap3\n      exp\n      sub(shl(0x40, 0x01), 0x01)\n      dup2\n      dup2\n      mul\n      not\n      swap1\n      swap4\n      and\n      swap2\n      dup4\n      and\n      mul\n      or\n      swap1\n      swap2\n      sstore\n        /* \"src/file.sol\":3992:4021  file.progress.processedChunks */\n      0x09\n      dup5\n      add\n      sload\n        /* \"src/file.sol\":3983:3990  fileKey */\n      dup8\n      swap3\n      pop\n        /* \"src/file.sol\":3969:4026  ChunkUploaded(fileKey, file.progress.processedChunks - 1) */\n      0x9194bcee830b22b5e81ccd3c7efb4811ca70dfdd9bbfaa1719d15dfc18c6417d\n      swap2\n        /* \"src/file.sol\":3992:4025  file.progress.processedChunks - 1 */\n      tag_184\n      swap2\n      0x01\n      swap2\n        /* \"src/file.sol\":3992:4021  file.progress.processedChunks */\n      and\n        /* \"src/file.sol\":3992:4025  file.progress.processedChunks - 1 */\n      tag_185\n      jump\t// in\n    tag_184:\n        /* \"src/file.sol\":3969:4026  ChunkUploaded(fileKey, file.progress.processedChunks - 1) */\n      mload(0x40)\n      sub(shl(0x40, 0x01), 0x01)\n        /* \"#utility.yul\":23182:23213   */\n      swap1\n      swap2\n      and\n        /* \"#utility.yul\":23164:23214   */\n      dup2\n      mstore\n        /* \"#utility.yul\":23152:23154   */\n      0x20\n        /* \"#utility.yul\":23137:23155   */\n      add\n        /* \"src/file.sol\":3969:4026  ChunkUploaded(fileKey, file.progress.processedChunks - 1) */\n      mload(0x40)\n      dup1\n      swap2\n      sub\n      swap1\n      log2\n        /* \"src/file.sol\":4065:4094  file.progress.processedLength */\n      0x09\n      dup3\n      add\n      sload\n        /* \"src/file.sol\":4041:4061  file.info.contentLen */\n      0x02\n      dup4\n      add\n      sload\n      sub(shl(0x40, 0x01), 0x01)\n      swap1\n      dup2\n      and\n      shl(0x40, 0x01)\n        /* \"src/file.sol\":4065:4094  file.progress.processedLength */\n      swap1\n      swap3\n      div\n      and\n        /* \"src/file.sol\":4041:4094  file.info.contentLen == file.progress.processedLength */\n      eq\n      dup1\n        /* \"src/file.sol\":4041:4152  file.info.contentLen == file.progress.processedLength || file.progress.processedChunks == file.info.totalChunks */\n      tag_188\n      jumpi\n      pop\n        /* \"src/file.sol\":4131:4152  file.info.totalChunks */\n      0x02\n      dup3\n      add\n      sload\n        /* \"src/file.sol\":4098:4127  file.progress.processedChunks */\n      0x09\n      dup4\n      add\n      sload\n      sub(shl(0x40, 0x01), 0x01)\n      swap1\n      dup2\n      and\n      shl(0x40, 0x01)\n        /* \"src/file.sol\":4131:4152  file.info.totalChunks */\n      swap1\n      swap3\n      div\n      and\n        /* \"src/file.sol\":4098:4152  file.progress.processedChunks == file.info.totalChunks */\n      eq\n        /* \"src/file.sol\":4041:4152  file.info.contentLen == file.progress.processedLength || file.progress.processedChunks == file.info.totalChunks */\n    tag_188:\n        /* \"src/file.sol\":4037:4250  if (file.info.contentLen == file.progress.processedLength || file.progress.processedChunks == file.info.totalChunks) {... */\n      iszero\n      tag_189\n      jumpi\n        /* \"src/file.sol\":4169:4185  file.info.status */\n      0x05\n      dup3\n      add\n        /* \"src/file.sol\":4169:4205  file.info.status = FileStatus.Active */\n      dup1\n      sload\n      not(0xff)\n      and\n        /* \"src/file.sol\":4188:4205  FileStatus.Active */\n      0x01\n        /* \"src/file.sol\":4169:4205  file.info.status = FileStatus.Active */\n      or\n      swap1\n      sstore\n      0x00\n        /* \"src/file.sol\":4226:4239  file.progress */\n      0x08\n      dup4\n      add\n        /* \"src/file.sol\":4219:4239  delete file.progress */\n      sstore\n      0x09\n      dup3\n      add\n      dup1\n      sload\n      not(sub(shl(0x80, 0x01), 0x01))\n      and\n      swap1\n      sstore\n        /* \"src/file.sol\":4037:4250  if (file.info.contentLen == file.progress.processedLength || file.progress.processedChunks == file.info.totalChunks) {... */\n    tag_189:\n        /* \"src/file.sol\":3101:4256  {... */\n      pop\n      pop\n        /* \"src/file.sol\":3013:4256  function uploadChunk(bytes32 fileKey, bytes memory chunkData, bytes32 chunkHash) public {... */\n      pop\n      pop\n      pop\n      jump\t// out\n        /* \"src/file.sol\":4690:5176  function deleteFile(bytes32 fileKey) external {... */\n    tag_41:\n        /* \"src/file.sol\":4746:4767  FileInfo storage file */\n      0x00\n        /* \"src/file.sol\":4770:4793  mKeyToFileInfo[fileKey] */\n      dup2\n      dup2\n      mstore\n      0x20\n      dup2\n      swap1\n      mstore\n      0x40\n      swap1\n      keccak256\n        /* \"src/file.sol\":4811:4826  file.info.owner */\n      dup1\n      sload\n      sub(shl(0xa0, 0x01), 0x01)\n      and\n        /* \"src/file.sol\":4830:4840  msg.sender */\n      caller\n        /* \"src/file.sol\":4811:4840  file.info.owner == msg.sender */\n      eq\n        /* \"src/file.sol\":4803:4868  require(file.info.owner == msg.sender, \"Caller is not the owner\") */\n      tag_193\n      jumpi\n      mload(0x40)\n      shl(0xe5, 0x461bcd)\n      dup2\n      mstore\n      0x04\n      add\n      tag_101\n      swap1\n      tag_160\n      jump\t// in\n    tag_193:\n        /* \"src/file.sol\":4906:4924  FileStatus.Deleted */\n      0x03\n        /* \"src/file.sol\":4886:4902  file.info.status */\n      0x05\n      dup3\n      add\n      sload\n      0xff\n      and\n        /* \"src/file.sol\":4886:4924  file.info.status != FileStatus.Deleted */\n      0x03\n      dup2\n      gt\n      iszero\n      tag_198\n      jumpi\n      tag_198\n      tag_119\n      jump\t// in\n    tag_198:\n      sub\n        /* \"src/file.sol\":4878:4949  require(file.info.status != FileStatus.Deleted, \"File already deleted\") */\n      tag_199\n      jumpi\n      mload(0x40)\n      shl(0xe5, 0x461bcd)\n      dup2\n      mstore\n        /* \"#utility.yul\":23427:23429   */\n      0x20\n        /* \"src/file.sol\":4878:4949  require(file.info.status != FileStatus.Deleted, \"File already deleted\") */\n      0x04\n      dup3\n      add\n        /* \"#utility.yul\":23409:23430   */\n      mstore\n        /* \"#utility.yul\":23466:23468   */\n      0x14\n        /* \"#utility.yul\":23446:23464   */\n      0x24\n      dup3\n      add\n        /* \"#utility.yul\":23439:23469   */\n      mstore\n      shl(0x62, 0x119a5b1948185b1c9958591e4819195b195d1959)\n        /* \"#utility.yul\":23485:23503   */\n      0x44\n      dup3\n      add\n        /* \"#utility.yul\":23478:23528   */\n      mstore\n        /* \"#utility.yul\":23545:23563   */\n      0x64\n      add\n        /* \"src/file.sol\":4878:4949  require(file.info.status != FileStatus.Deleted, \"File already deleted\") */\n      tag_101\n        /* \"#utility.yul\":23225:23569   */\n      jump\n        /* \"src/file.sol\":4878:4949  require(file.info.status != FileStatus.Deleted, \"File already deleted\") */\n    tag_199:\n        /* \"src/file.sol\":4960:4976  file.info.status */\n      0x05\n      dup2\n      add\n        /* \"src/file.sol\":4960:4997  file.info.status = FileStatus.Deleted */\n      dup1\n      sload\n      not(0xff)\n      and\n        /* \"src/file.sol\":4979:4997  FileStatus.Deleted */\n      0x03\n        /* \"src/file.sol\":4960:4997  file.info.status = FileStatus.Deleted */\n      or\n      swap1\n      sstore\n      0x00\n        /* \"src/file.sol\":5007:5105  for (uint256 i = 0; i < file.info.totalChunks; i++) {... */\n    tag_204:\n        /* \"src/file.sol\":5031:5052  file.info.totalChunks */\n      0x02\n      dup3\n      add\n      sload\n      shl(0x40, 0x01)\n      swap1\n      div\n      sub(shl(0x40, 0x01), 0x01)\n      and\n        /* \"src/file.sol\":5027:5052  i < file.info.totalChunks */\n      dup2\n      lt\n        /* \"src/file.sol\":5007:5105  for (uint256 i = 0; i < file.info.totalChunks; i++) {... */\n      iszero\n      tag_205\n      jumpi\n        /* \"src/file.sol\":5080:5094  file.chunks[i] */\n      0x00\n      dup2\n      dup2\n      mstore\n        /* \"src/file.sol\":5080:5091  file.chunks */\n      0x0a\n      dup4\n      add\n        /* \"src/file.sol\":5080:5094  file.chunks[i] */\n      0x20\n      mstore\n      0x40\n      dup2\n      keccak256\n        /* \"src/file.sol\":5073:5094  delete file.chunks[i] */\n      tag_207\n      swap2\n      tag_208\n      jump\t// in\n    tag_207:\n        /* \"src/file.sol\":5054:5057  i++ */\n      dup1\n      tag_209\n      dup2\n      tag_113\n      jump\t// in\n    tag_209:\n      swap2\n      pop\n      pop\n        /* \"src/file.sol\":5007:5105  for (uint256 i = 0; i < file.info.totalChunks; i++) {... */\n      jump(tag_204)\n    tag_205:\n      pop\n        /* \"src/file.sol\":5121:5134  file.progress */\n      0x00\n      0x08\n      dup3\n      add\n        /* \"src/file.sol\":5114:5134  delete file.progress */\n      dup2\n      swap1\n      sstore\n      0x09\n      dup3\n      add\n      dup1\n      sload\n      not(sub(shl(0x80, 0x01), 0x01))\n      and\n      swap1\n      sstore\n        /* \"src/file.sol\":5149:5169  FileDeleted(fileKey) */\n      mload(0x40)\n        /* \"src/file.sol\":5161:5168  fileKey */\n      dup4\n      swap2\n        /* \"src/file.sol\":5149:5169  FileDeleted(fileKey) */\n      0x88efefb1eaec3d3a0e08ed74bc99a3407d454b5da66112fed68b20d54837ccae\n      swap2\n      log2\n        /* \"src/file.sol\":4736:5176  {... */\n      pop\n        /* \"src/file.sol\":4690:5176  function deleteFile(bytes32 fileKey) external {... */\n      pop\n      jump\t// out\n        /* \"src/file.sol\":914:1196  function pushFileInfos(... */\n    tag_45:\n        /* \"src/file.sol\":988:1004  bytes32[] memory */\n      0x60\n        /* \"src/file.sol\":1015:1036  bytes32[] memory keys */\n      0x00\n        /* \"src/file.sol\":1053:1058  infos */\n      dup3\n        /* \"src/file.sol\":1053:1065  infos.length */\n      mload\n      sub(shl(0x40, 0x01), 0x01)\n        /* \"src/file.sol\":1039:1066  new bytes32[](infos.length) */\n      dup2\n      gt\n      iszero\n      tag_212\n      jumpi\n      tag_212\n      tag_213\n      jump\t// in\n    tag_212:\n      mload(0x40)\n      swap1\n      dup1\n      dup3\n      mstore\n      dup1\n      0x20\n      mul\n      0x20\n      add\n      dup3\n      add\n      0x40\n      mstore\n      dup1\n      iszero\n      tag_214\n      jumpi\n      dup2\n      0x20\n      add\n      0x20\n      dup3\n      mul\n      dup1\n      calldatasize\n      dup4\n      calldatacopy\n      add\n      swap1\n      pop\n    tag_214:\n      pop\n        /* \"src/file.sol\":1015:1066  bytes32[] memory keys = new bytes32[](infos.length) */\n      swap1\n      pop\n        /* \"src/file.sol\":1080:1089  uint256 i */\n      0x00\n        /* \"src/file.sol\":1076:1169  for(uint256 i; i< infos.length; i++){... */\n    tag_215:\n        /* \"src/file.sol\":1094:1099  infos */\n      dup4\n        /* \"src/file.sol\":1094:1106  infos.length */\n      mload\n        /* \"src/file.sol\":1091:1092  i */\n      dup2\n        /* \"src/file.sol\":1091:1106  i< infos.length */\n      lt\n        /* \"src/file.sol\":1076:1169  for(uint256 i; i< infos.length; i++){... */\n      iszero\n      tag_216\n      jumpi\n        /* \"src/file.sol\":1136:1158  pushFileInfo(infos[i]) */\n      tag_218\n        /* \"src/file.sol\":1149:1154  infos */\n      dup5\n        /* \"src/file.sol\":1155:1156  i */\n      dup3\n        /* \"src/file.sol\":1149:1157  infos[i] */\n      dup2\n      mload\n      dup2\n      lt\n      tag_220\n      jumpi\n      tag_220\n      tag_109\n      jump\t// in\n    tag_220:\n      0x20\n      mul\n      0x20\n      add\n      add\n      mload\n        /* \"src/file.sol\":1136:1148  pushFileInfo */\n      tag_71\n        /* \"src/file.sol\":1136:1158  pushFileInfo(infos[i]) */\n      jump\t// in\n    tag_218:\n        /* \"src/file.sol\":1126:1130  keys */\n      dup3\n        /* \"src/file.sol\":1131:1132  i */\n      dup3\n        /* \"src/file.sol\":1126:1133  keys[i] */\n      dup2\n      mload\n      dup2\n      lt\n      tag_222\n      jumpi\n      tag_222\n      tag_109\n      jump\t// in\n    tag_222:\n      0x20\n      swap1\n      dup2\n      mul\n      swap2\n      swap1\n      swap2\n      add\n      add\n        /* \"src/file.sol\":1126:1158  keys[i] = pushFileInfo(infos[i]) */\n      mstore\n        /* \"src/file.sol\":1108:1111  i++ */\n      dup1\n      tag_223\n      dup2\n      tag_113\n      jump\t// in\n    tag_223:\n      swap2\n      pop\n      pop\n        /* \"src/file.sol\":1076:1169  for(uint256 i; i< infos.length; i++){... */\n      jump(tag_215)\n    tag_216:\n      pop\n        /* \"src/file.sol\":1185:1189  keys */\n      swap3\n        /* \"src/file.sol\":914:1196  function pushFileInfos(... */\n      swap2\n      pop\n      pop\n      jump\t// out\n        /* \"src/file.sol\":5182:5635  function renewTime(bytes32 fileKey, uint64 _newExpireTime) external {... */\n    tag_55:\n        /* \"src/file.sol\":5260:5281  FileInfo storage file */\n      0x00\n        /* \"src/file.sol\":5284:5307  mKeyToFileInfo[fileKey] */\n      dup3\n      dup2\n      mstore\n      0x20\n      dup2\n      swap1\n      mstore\n      0x40\n      swap1\n      keccak256\n        /* \"src/file.sol\":5325:5340  file.info.owner */\n      dup1\n      sload\n      sub(shl(0xa0, 0x01), 0x01)\n      and\n        /* \"src/file.sol\":5344:5354  msg.sender */\n      caller\n        /* \"src/file.sol\":5325:5354  file.info.owner == msg.sender */\n      eq\n        /* \"src/file.sol\":5317:5382  require(file.info.owner == msg.sender, \"Caller is not the owner\") */\n      tag_225\n      jumpi\n      mload(0x40)\n      shl(0xe5, 0x461bcd)\n      dup2\n      mstore\n      0x04\n      add\n      tag_101\n      swap1\n      tag_160\n      jump\t// in\n    tag_225:\n        /* \"src/file.sol\":5420:5438  FileStatus.Deleted */\n      0x03\n        /* \"src/file.sol\":5400:5416  file.info.status */\n      0x05\n      dup3\n      add\n      sload\n      0xff\n      and\n        /* \"src/file.sol\":5400:5438  file.info.status != FileStatus.Deleted */\n      0x03\n      dup2\n      gt\n      iszero\n      tag_230\n      jumpi\n      tag_230\n      tag_119\n      jump\t// in\n    tag_230:\n      sub\n        /* \"src/file.sol\":5392:5464  require(file.info.status != FileStatus.Deleted, \"File has been deleted\") */\n      tag_231\n      jumpi\n      mload(0x40)\n      shl(0xe5, 0x461bcd)\n      dup2\n      mstore\n        /* \"#utility.yul\":23776:23778   */\n      0x20\n        /* \"src/file.sol\":5392:5464  require(file.info.status != FileStatus.Deleted, \"File has been deleted\") */\n      0x04\n      dup3\n      add\n        /* \"#utility.yul\":23758:23779   */\n      mstore\n        /* \"#utility.yul\":23815:23817   */\n      0x15\n        /* \"#utility.yul\":23795:23813   */\n      0x24\n      dup3\n      add\n        /* \"#utility.yul\":23788:23818   */\n      mstore\n      shl(0x5a, 0x119a5b19481a185cc81899595b8819195b195d1959)\n        /* \"#utility.yul\":23834:23852   */\n      0x44\n      dup3\n      add\n        /* \"#utility.yul\":23827:23878   */\n      mstore\n        /* \"#utility.yul\":23895:23913   */\n      0x64\n      add\n        /* \"src/file.sol\":5392:5464  require(file.info.status != FileStatus.Deleted, \"File has been deleted\") */\n      tag_101\n        /* \"#utility.yul\":23574:23919   */\n      jump\n        /* \"src/file.sol\":5392:5464  require(file.info.status != FileStatus.Deleted, \"File has been deleted\") */\n    tag_231:\n        /* \"src/file.sol\":5499:5523  block.timestamp + 1 days */\n      tag_234\n        /* \"src/file.sol\":5499:5514  block.timestamp */\n      timestamp\n        /* \"src/file.sol\":5517:5523  1 days */\n      0x015180\n        /* \"src/file.sol\":5499:5523  block.timestamp + 1 days */\n      tag_162\n      jump\t// in\n    tag_234:\n        /* \"src/file.sol\":5482:5496  _newExpireTime */\n      dup3\n      sub(shl(0x40, 0x01), 0x01)\n        /* \"src/file.sol\":5482:5523  _newExpireTime > block.timestamp + 1 days */\n      and\n      gt\n        /* \"src/file.sol\":5474:5580  require(_newExpireTime > block.timestamp + 1 days, \"New expire time must be at least 1 day in the future\") */\n      tag_235\n      jumpi\n      mload(0x40)\n      shl(0xe5, 0x461bcd)\n      dup2\n      mstore\n        /* \"#utility.yul\":24126:24128   */\n      0x20\n        /* \"src/file.sol\":5474:5580  require(_newExpireTime > block.timestamp + 1 days, \"New expire time must be at least 1 day in the future\") */\n      0x04\n      dup3\n      add\n        /* \"#utility.yul\":24108:24129   */\n      mstore\n        /* \"#utility.yul\":24165:24167   */\n      0x34\n        /* \"#utility.yul\":24145:24163   */\n      0x24\n      dup3\n      add\n        /* \"#utility.yul\":24138:24168   */\n      mstore\n        /* \"#utility.yul\":24204:24238   */\n      0x4e6577206578706972652074696d65206d757374206265206174206c65617374\n        /* \"#utility.yul\":24184:24202   */\n      0x44\n      dup3\n      add\n        /* \"#utility.yul\":24177:24239   */\n      mstore\n      shl(0x60, 0x20312064617920696e2074686520667574757265)\n        /* \"#utility.yul\":24255:24273   */\n      0x64\n      dup3\n      add\n        /* \"#utility.yul\":24248:24298   */\n      mstore\n        /* \"#utility.yul\":24315:24334   */\n      0x84\n      add\n        /* \"src/file.sol\":5474:5580  require(_newExpireTime > block.timestamp + 1 days, \"New expire time must be at least 1 day in the future\") */\n      tag_101\n        /* \"#utility.yul\":23924:24340   */\n      jump\n        /* \"src/file.sol\":5474:5580  require(_newExpireTime > block.timestamp + 1 days, \"New expire time must be at least 1 day in the future\") */\n    tag_235:\n        /* \"src/file.sol\":5591:5611  file.info.expireTime */\n      0x02\n      add\n        /* \"src/file.sol\":5591:5628  file.info.expireTime = _newExpireTime */\n      dup1\n      sload\n      sub(shl(0x40, 0x01), 0x01)\n      swap1\n      swap3\n      and\n      shl(0x80, 0x01)\n      mul\n      not(sub(shl(0xc0, 0x01), shl(0x80, 0x01)))\n      swap1\n      swap3\n      and\n      swap2\n      swap1\n      swap2\n      or\n      swap1\n      sstore\n      pop\n        /* \"src/file.sol\":5182:5635  function renewTime(bytes32 fileKey, uint64 _newExpireTime) external {... */\n      jump\t// out\n        /* \"src/file.sol\":4262:4684  function lockFile(bytes32 fileKey) external {... */\n    tag_58:\n        /* \"src/file.sol\":4316:4337  FileInfo storage file */\n      0x00\n        /* \"src/file.sol\":4340:4363  mKeyToFileInfo[fileKey] */\n      dup2\n      dup2\n      mstore\n      0x20\n      dup2\n      swap1\n      mstore\n      0x40\n      swap1\n      keccak256\n        /* \"src/file.sol\":4381:4396  file.info.owner */\n      dup1\n      sload\n      sub(shl(0xa0, 0x01), 0x01)\n      and\n        /* \"src/file.sol\":4400:4410  msg.sender */\n      caller\n        /* \"src/file.sol\":4381:4410  file.info.owner == msg.sender */\n      eq\n        /* \"src/file.sol\":4373:4438  require(file.info.owner == msg.sender, \"Caller is not the owner\") */\n      tag_239\n      jumpi\n      mload(0x40)\n      shl(0xe5, 0x461bcd)\n      dup2\n      mstore\n      0x04\n      add\n      tag_101\n      swap1\n      tag_160\n      jump\t// in\n    tag_239:\n        /* \"src/file.sol\":4476:4493  FileStatus.Active */\n      0x01\n        /* \"src/file.sol\":4456:4472  file.info.status */\n      0x05\n      dup3\n      add\n      sload\n      0xff\n      and\n        /* \"src/file.sol\":4456:4493  file.info.status == FileStatus.Active */\n      0x03\n      dup2\n      gt\n      iszero\n      tag_244\n      jumpi\n      tag_244\n      tag_119\n      jump\t// in\n    tag_244:\n      eq\n        /* \"src/file.sol\":4448:4516  require(file.info.status == FileStatus.Active, \"File is not active\") */\n      tag_245\n      jumpi\n      mload(0x40)\n      shl(0xe5, 0x461bcd)\n      dup2\n      mstore\n        /* \"#utility.yul\":24547:24549   */\n      0x20\n        /* \"src/file.sol\":4448:4516  require(file.info.status == FileStatus.Active, \"File is not active\") */\n      0x04\n      dup3\n      add\n        /* \"#utility.yul\":24529:24550   */\n      mstore\n        /* \"#utility.yul\":24586:24588   */\n      0x12\n        /* \"#utility.yul\":24566:24584   */\n      0x24\n      dup3\n      add\n        /* \"#utility.yul\":24559:24589   */\n      mstore\n      shl(0x70, 0x46696c65206973206e6f7420616374697665)\n        /* \"#utility.yul\":24605:24623   */\n      0x44\n      dup3\n      add\n        /* \"#utility.yul\":24598:24646   */\n      mstore\n        /* \"#utility.yul\":24663:24681   */\n      0x64\n      add\n        /* \"src/file.sol\":4448:4516  require(file.info.status == FileStatus.Active, \"File is not active\") */\n      tag_101\n        /* \"#utility.yul\":24345:24687   */\n      jump\n        /* \"src/file.sol\":4448:4516  require(file.info.status == FileStatus.Active, \"File is not active\") */\n    tag_245:\n        /* \"src/file.sol\":4553:4573  file.info.expireTime */\n      0x02\n      dup2\n      add\n      sload\n      shl(0x80, 0x01)\n      swap1\n      div\n      sub(shl(0x40, 0x01), 0x01)\n      and\n        /* \"src/file.sol\":4534:4549  block.timestamp */\n      timestamp\n        /* \"src/file.sol\":4534:4573  block.timestamp <= file.info.expireTime */\n      gt\n      iszero\n        /* \"src/file.sol\":4526:4594  require(block.timestamp <= file.info.expireTime, \"File has expired\") */\n      tag_248\n      jumpi\n      mload(0x40)\n      shl(0xe5, 0x461bcd)\n      dup2\n      mstore\n      0x04\n      add\n      tag_101\n      swap1\n      tag_250\n      jump\t// in\n    tag_248:\n        /* \"src/file.sol\":4605:4621  file.info.status */\n      0x05\n      dup2\n      add\n        /* \"src/file.sol\":4605:4643  file.info.status = FileStatus.Deactive */\n      dup1\n      sload\n      not(0xff)\n      and\n        /* \"src/file.sol\":4624:4643  FileStatus.Deactive */\n      0x02\n        /* \"src/file.sol\":4605:4643  file.info.status = FileStatus.Deactive */\n      or\n      swap1\n      sstore\n        /* \"src/file.sol\":4658:4677  FileLocked(fileKey) */\n      mload(0x40)\n        /* \"src/file.sol\":4669:4676  fileKey */\n      dup3\n      swap1\n        /* \"src/file.sol\":4658:4677  FileLocked(fileKey) */\n      0x45987cd84c3c0ec7c3b91dde29affe01363c3777aec1247553883b2431747330\n      swap1\n      0x00\n      swap1\n      log2\n        /* \"src/file.sol\":4306:4684  {... */\n      pop\n        /* \"src/file.sol\":4262:4684  function lockFile(bytes32 fileKey) external {... */\n      pop\n      jump\t// out\n        /* \"src/file.sol\":812:904  function setService(address _service) external onlyOwner {... */\n    tag_62:\n        /* \"src/file.sol\":578:583  owner */\n      and(sub(shl(0xa0, 0x01), 0x01), sload(0x03))\n        /* \"src/file.sol\":564:574  msg.sender */\n      caller\n        /* \"src/file.sol\":564:583  msg.sender == owner */\n      eq\n        /* \"src/file.sol\":556:611  require(msg.sender == owner, \"Caller is not the owner\") */\n      tag_254\n      jumpi\n      mload(0x40)\n      shl(0xe5, 0x461bcd)\n      dup2\n      mstore\n      0x04\n      add\n      tag_101\n      swap1\n      tag_160\n      jump\t// in\n    tag_254:\n        /* \"src/file.sol\":879:886  service */\n      0x02\n        /* \"src/file.sol\":879:897  service = _service */\n      dup1\n      sload\n      not(sub(shl(0xa0, 0x01), 0x01))\n      and\n      sub(shl(0xa0, 0x01), 0x01)\n      swap3\n      swap1\n      swap3\n      and\n      swap2\n      swap1\n      swap2\n      or\n      swap1\n      sstore\n        /* \"src/file.sol\":812:904  function setService(address _service) external onlyOwner {... */\n      jump\t// out\n        /* \"src/file.sol\":362:412  mapping(bytes32 => FileInfo) public mKeyToFileInfo */\n    tag_65:\n      0x00\n      0x20\n      dup2\n      dup2\n      mstore\n      swap2\n      dup2\n      mstore\n      0x40\n      swap1\n      dup2\n      swap1\n      keccak256\n      dup2\n      mload\n      0x0140\n      dup2\n      add\n      dup4\n      mstore\n      dup2\n      sload\n      sub(shl(0xa0, 0x01), 0x01)\n      and\n      dup2\n      mstore\n      0x01\n      dup3\n      add\n      sload\n      swap4\n      dup2\n      add\n      swap4\n      swap1\n      swap4\n      mstore\n      0x02\n      dup2\n      add\n      sload\n      sub(shl(0x40, 0x01), 0x01)\n      dup1\n      dup3\n      and\n      swap4\n      dup6\n      add\n      swap4\n      swap1\n      swap4\n      mstore\n      shl(0x40, 0x01)\n      dup2\n      div\n      dup4\n      and\n      0x60\n      dup6\n      add\n      mstore\n      shl(0x80, 0x01)\n      swap1\n      div\n      swap1\n      swap2\n      and\n      0x80\n      dup4\n      add\n      mstore\n      0x03\n      dup2\n      add\n      dup1\n      sload\n      swap2\n      swap3\n      swap2\n      dup4\n      swap2\n      0xa0\n      dup5\n      add\n      swap2\n      tag_257\n      swap1\n      tag_129\n      jump\t// in\n    tag_257:\n      dup1\n      0x1f\n      add\n      0x20\n      dup1\n      swap2\n      div\n      mul\n      0x20\n      add\n      mload(0x40)\n      swap1\n      dup2\n      add\n      0x40\n      mstore\n      dup1\n      swap3\n      swap2\n      swap1\n      dup2\n      dup2\n      mstore\n      0x20\n      add\n      dup3\n      dup1\n      sload\n      tag_258\n      swap1\n      tag_129\n      jump\t// in\n    tag_258:\n      dup1\n      iszero\n      tag_259\n      jumpi\n      dup1\n      0x1f\n      lt\n      tag_260\n      jumpi\n      0x0100\n      dup1\n      dup4\n      sload\n      div\n      mul\n      dup4\n      mstore\n      swap2\n      0x20\n      add\n      swap2\n      jump(tag_259)\n    tag_260:\n      dup3\n      add\n      swap2\n      swap1\n      0x00\n      mstore\n      keccak256(0x00, 0x20)\n      swap1\n    tag_261:\n      dup2\n      sload\n      dup2\n      mstore\n      swap1\n      0x01\n      add\n      swap1\n      0x20\n      add\n      dup1\n      dup4\n      gt\n      tag_261\n      jumpi\n      dup3\n      swap1\n      sub\n      0x1f\n      and\n      dup3\n      add\n      swap2\n    tag_259:\n      pop\n      pop\n      pop\n      pop\n      pop\n      dup2\n      mstore\n      0x20\n      add\n      0x04\n      dup3\n      add\n      dup1\n      sload\n      tag_262\n      swap1\n      tag_129\n      jump\t// in\n    tag_262:\n      dup1\n      0x1f\n      add\n      0x20\n      dup1\n      swap2\n      div\n      mul\n      0x20\n      add\n      mload(0x40)\n      swap1\n      dup2\n      add\n      0x40\n      mstore\n      dup1\n      swap3\n      swap2\n      swap1\n      dup2\n      dup2\n      mstore\n      0x20\n      add\n      dup3\n      dup1\n      sload\n      tag_263\n      swap1\n      tag_129\n      jump\t// in\n    tag_263:\n      dup1\n      iszero\n      tag_264\n      jumpi\n      dup1\n      0x1f\n      lt\n      tag_265\n      jumpi\n      0x0100\n      dup1\n      dup4\n      sload\n      div\n      mul\n      dup4\n      mstore\n      swap2\n      0x20\n      add\n      swap2\n      jump(tag_264)\n    tag_265:\n      dup3\n      add\n      swap2\n      swap1\n      0x00\n      mstore\n      keccak256(0x00, 0x20)\n      swap1\n    tag_266:\n      dup2\n      sload\n      dup2\n      mstore\n      swap1\n      0x01\n      add\n      swap1\n      0x20\n      add\n      dup1\n      dup4\n      gt\n      tag_266\n      jumpi\n      dup3\n      swap1\n      sub\n      0x1f\n      and\n      dup3\n      add\n      swap2\n    tag_264:\n      pop\n      pop\n      pop\n      swap2\n      dup4\n      mstore\n      pop\n      pop\n      0x05\n      dup3\n      add\n      sload\n      0x20\n      swap1\n      swap2\n      add\n      swap1\n      0xff\n      and\n      0x03\n      dup2\n      gt\n      iszero\n      tag_268\n      jumpi\n      tag_268\n      tag_119\n      jump\t// in\n    tag_268:\n      0x03\n      dup2\n      gt\n      iszero\n      tag_270\n      jumpi\n      tag_270\n      tag_119\n      jump\t// in\n    tag_270:\n      dup2\n      mstore\n      0x20\n      add\n      0x06\n      dup3\n      add\n      dup1\n      sload\n      tag_271\n      swap1\n      tag_129\n      jump\t// in\n    tag_271:\n      dup1\n      0x1f\n      add\n      0x20\n      dup1\n      swap2\n      div\n      mul\n      0x20\n      add\n      mload(0x40)\n      swap1\n      dup2\n      add\n      0x40\n      mstore\n      dup1\n      swap3\n      swap2\n      swap1\n      dup2\n      dup2\n      mstore\n      0x20\n      add\n      dup3\n      dup1\n      sload\n      tag_272\n      swap1\n      tag_129\n      jump\t// in\n    tag_272:\n      dup1\n      iszero\n      tag_273\n      jumpi\n      dup1\n      0x1f\n      lt\n      tag_274\n      jumpi\n      0x0100\n      dup1\n      dup4\n      sload\n      div\n      mul\n      dup4\n      mstore\n      swap2\n      0x20\n      add\n      swap2\n      jump(tag_273)\n    tag_274:\n      dup3\n      add\n      swap2\n      swap1\n      0x00\n      mstore\n      keccak256(0x00, 0x20)\n      swap1\n    tag_275:\n      dup2\n      sload\n      dup2\n      mstore\n      swap1\n      0x01\n      add\n      swap1\n      0x20\n      add\n      dup1\n      dup4\n      gt\n      tag_275\n      jumpi\n      dup3\n      swap1\n      sub\n      0x1f\n      and\n      dup3\n      add\n      swap2\n    tag_273:\n      pop\n      pop\n      pop\n      pop\n      pop\n      dup2\n      mstore\n      0x20\n      add\n      0x07\n      dup3\n      add\n      dup1\n      sload\n      tag_276\n      swap1\n      tag_129\n      jump\t// in\n    tag_276:\n      dup1\n      0x1f\n      add\n      0x20\n      dup1\n      swap2\n      div\n      mul\n      0x20\n      add\n      mload(0x40)\n      swap1\n      dup2\n      add\n      0x40\n      mstore\n      dup1\n      swap3\n      swap2\n      swap1\n      dup2\n      dup2\n      mstore\n      0x20\n      add\n      dup3\n      dup1\n      sload\n      tag_277\n      swap1\n      tag_129\n      jump\t// in\n    tag_277:\n      dup1\n      iszero\n      tag_278\n      jumpi\n      dup1\n      0x1f\n      lt\n      tag_279\n      jumpi\n      0x0100\n      dup1\n      dup4\n      sload\n      div\n      mul\n      dup4\n      mstore\n      swap2\n      0x20\n      add\n      swap2\n      jump(tag_278)\n    tag_279:\n      dup3\n      add\n      swap2\n      swap1\n      0x00\n      mstore\n      keccak256(0x00, 0x20)\n      swap1\n    tag_280:\n      dup2\n      sload\n      dup2\n      mstore\n      swap1\n      0x01\n      add\n      swap1\n      0x20\n      add\n      dup1\n      dup4\n      gt\n      tag_280\n      jumpi\n      dup3\n      swap1\n      sub\n      0x1f\n      and\n      dup3\n      add\n      swap2\n    tag_278:\n      pop\n      pop\n      pop\n      swap2\n      swap1\n      swap3\n      mstore\n      pop\n      pop\n      0x40\n      dup1\n      mload\n      0x60\n      dup2\n      add\n      dup3\n      mstore\n      0x08\n      dup6\n      add\n      sload\n      dup2\n      mstore\n      0x09\n      swap1\n      swap5\n      add\n      sload\n      sub(shl(0x40, 0x01), 0x01)\n      dup1\n      dup3\n      and\n      0x20\n      dup8\n      add\n      mstore\n      shl(0x40, 0x01)\n      swap1\n      swap2\n      div\n      and\n      swap1\n      dup5\n      add\n      mstore\n      pop\n      swap1\n      dup3\n      jump\t// out\n        /* \"src/file.sol\":1202:2369  function pushFileInfo(Info memory info) public returns (bytes32 fileKey) {... */\n    tag_71:\n        /* \"src/file.sol\":1258:1273  bytes32 fileKey */\n      0x00\n        /* \"src/file.sol\":1311:1335  block.timestamp + 1 days */\n      tag_282\n        /* \"src/file.sol\":1311:1326  block.timestamp */\n      timestamp\n        /* \"src/file.sol\":1329:1335  1 days */\n      0x015180\n        /* \"src/file.sol\":1311:1335  block.timestamp + 1 days */\n      tag_162\n      jump\t// in\n    tag_282:\n        /* \"src/file.sol\":1293:1297  info */\n      dup3\n        /* \"src/file.sol\":1293:1308  info.expireTime */\n      0x80\n      add\n      mload\n      sub(shl(0x40, 0x01), 0x01)\n        /* \"src/file.sol\":1293:1335  info.expireTime > block.timestamp + 1 days */\n      and\n      gt\n        /* \"src/file.sol\":1285:1388  require(info.expireTime > block.timestamp + 1 days, \"Expire time must be at least 1 day in the future\") */\n      tag_283\n      jumpi\n      mload(0x40)\n      shl(0xe5, 0x461bcd)\n      dup2\n      mstore\n        /* \"#utility.yul\":25239:25241   */\n      0x20\n        /* \"src/file.sol\":1285:1388  require(info.expireTime > block.timestamp + 1 days, \"Expire time must be at least 1 day in the future\") */\n      0x04\n      dup3\n      add\n        /* \"#utility.yul\":25221:25242   */\n      mstore\n        /* \"#utility.yul\":25278:25280   */\n      0x30\n        /* \"#utility.yul\":25258:25276   */\n      0x24\n      dup3\n      add\n        /* \"#utility.yul\":25251:25281   */\n      mstore\n        /* \"#utility.yul\":25317:25351   */\n      0x4578706972652074696d65206d757374206265206174206c6561737420312064\n        /* \"#utility.yul\":25297:25315   */\n      0x44\n      dup3\n      add\n        /* \"#utility.yul\":25290:25352   */\n      mstore\n      shl(0x80, 0x617920696e2074686520667574757265)\n        /* \"#utility.yul\":25368:25386   */\n      0x64\n      dup3\n      add\n        /* \"#utility.yul\":25361:25407   */\n      mstore\n        /* \"#utility.yul\":25424:25443   */\n      0x84\n      add\n        /* \"src/file.sol\":1285:1388  require(info.expireTime > block.timestamp + 1 days, \"Expire time must be at least 1 day in the future\") */\n      tag_101\n        /* \"#utility.yul\":25037:25449   */\n      jump\n        /* \"src/file.sol\":1285:1388  require(info.expireTime > block.timestamp + 1 days, \"Expire time must be at least 1 day in the future\") */\n    tag_283:\n        /* \"src/file.sol\":1448:1452  info */\n      dup2\n        /* \"src/file.sol\":1448:1463  info.contentLen */\n      0x40\n      add\n      mload\n        /* \"src/file.sol\":1465:1469  info */\n      dup3\n        /* \"src/file.sol\":1465:1480  info.expireTime */\n      0x80\n      add\n      mload\n        /* \"src/file.sol\":1482:1486  info */\n      dup4\n        /* \"src/file.sol\":1482:1491  info.hash */\n      0x20\n      add\n      mload\n        /* \"src/file.sol\":1493:1497  info */\n      dup5\n        /* \"src/file.sol\":1493:1502  info.name */\n      0xa0\n      add\n      mload\n        /* \"src/file.sol\":1504:1508  info */\n      dup6\n        /* \"src/file.sol\":1504:1512  info.ext */\n      0xc0\n      add\n      mload\n        /* \"src/file.sol\":1514:1529  block.timestamp */\n      timestamp\n        /* \"src/file.sol\":1431:1530  abi.encodePacked(info.contentLen, info.expireTime, info.hash, info.name, info.ext, block.timestamp) */\n      add(0x20, mload(0x40))\n      tag_286\n      swap7\n      swap6\n      swap5\n      swap4\n      swap3\n      swap2\n      swap1\n      tag_287\n      jump\t// in\n    tag_286:\n      mload(0x40)\n      0x20\n      dup2\n      dup4\n      sub\n      sub\n      dup2\n      mstore\n      swap1\n      0x40\n      mstore\n        /* \"src/file.sol\":1408:1540  keccak256(... */\n      dup1\n      mload\n      swap1\n      0x20\n      add\n      keccak256\n        /* \"src/file.sol\":1398:1540  fileKey = keccak256(... */\n      swap1\n      pop\n        /* \"src/file.sol\":1578:1585  fileKey */\n      dup1\n        /* \"src/file.sol\":1550:1564  mNameToFileKey */\n      0x01\n        /* \"src/file.sol\":1565:1569  info */\n      dup4\n        /* \"src/file.sol\":1565:1574  info.name */\n      0xa0\n      add\n      mload\n        /* \"src/file.sol\":1550:1575  mNameToFileKey[info.name] */\n      mload(0x40)\n      tag_288\n      swap2\n      swap1\n      tag_289\n      jump\t// in\n    tag_288:\n      swap1\n      dup2\n      mstore\n      0x40\n      dup1\n      mload\n      0x20\n      swap3\n      dup2\n      swap1\n      sub\n      dup4\n      add\n      swap1\n      keccak256\n        /* \"src/file.sol\":1550:1585  mNameToFileKey[info.name] = fileKey */\n      swap3\n      swap1\n      swap3\n      sstore\n        /* \"src/file.sol\":1603:1617  mKeyToFileInfo */\n      0x00\n        /* \"src/file.sol\":1603:1626  mKeyToFileInfo[fileKey] */\n      dup4\n      dup2\n      mstore\n      swap1\n      dup2\n      swap1\n      mstore\n      keccak256\n        /* \"src/file.sol\":1603:1636  mKeyToFileInfo[fileKey].info.hash */\n      0x01\n      add\n      sload\n        /* \"src/file.sol\":1603:1641  mKeyToFileInfo[fileKey].info.hash == 0 */\n      iszero\n        /* \"src/file.sol\":1595:1665  require(mKeyToFileInfo[fileKey].info.hash == 0, \"File already exists\") */\n      tag_290\n      jumpi\n      mload(0x40)\n      shl(0xe5, 0x461bcd)\n      dup2\n      mstore\n        /* \"#utility.yul\":26816:26818   */\n      0x20\n        /* \"src/file.sol\":1595:1665  require(mKeyToFileInfo[fileKey].info.hash == 0, \"File already exists\") */\n      0x04\n      dup3\n      add\n        /* \"#utility.yul\":26798:26819   */\n      mstore\n        /* \"#utility.yul\":26855:26857   */\n      0x13\n        /* \"#utility.yul\":26835:26853   */\n      0x24\n      dup3\n      add\n        /* \"#utility.yul\":26828:26858   */\n      mstore\n      shl(0x68, 0x46696c6520616c726561647920657869737473)\n        /* \"#utility.yul\":26874:26892   */\n      0x44\n      dup3\n      add\n        /* \"#utility.yul\":26867:26916   */\n      mstore\n        /* \"#utility.yul\":26933:26951   */\n      0x64\n      add\n        /* \"src/file.sol\":1595:1665  require(mKeyToFileInfo[fileKey].info.hash == 0, \"File already exists\") */\n      tag_101\n        /* \"#utility.yul\":26614:26957   */\n      jump\n        /* \"src/file.sol\":1595:1665  require(mKeyToFileInfo[fileKey].info.hash == 0, \"File already exists\") */\n    tag_290:\n        /* \"src/file.sol\":1707:2103  Info({... */\n      mload(0x40)\n      dup1\n      0x0140\n      add\n      0x40\n      mstore\n      dup1\n        /* \"src/file.sol\":1733:1743  msg.sender */\n      caller\n      sub(shl(0xa0, 0x01), 0x01)\n        /* \"src/file.sol\":1707:2103  Info({... */\n      and\n      dup2\n      mstore\n      0x20\n      add\n        /* \"src/file.sol\":1763:1767  info */\n      dup4\n        /* \"src/file.sol\":1763:1772  info.hash */\n      0x20\n      add\n      mload\n        /* \"src/file.sol\":1707:2103  Info({... */\n      dup2\n      mstore\n      0x20\n      add\n        /* \"src/file.sol\":1798:1802  info */\n      dup4\n        /* \"src/file.sol\":1798:1813  info.contentLen */\n      0x40\n      add\n      mload\n      sub(shl(0x40, 0x01), 0x01)\n        /* \"src/file.sol\":1707:2103  Info({... */\n      and\n      dup2\n      mstore\n      0x20\n      add\n        /* \"src/file.sol\":1840:1844  info */\n      dup4\n        /* \"src/file.sol\":1840:1856  info.totalChunks */\n      0x60\n      add\n      mload\n      sub(shl(0x40, 0x01), 0x01)\n        /* \"src/file.sol\":1707:2103  Info({... */\n      and\n      dup2\n      mstore\n      0x20\n      add\n        /* \"src/file.sol\":1882:1886  info */\n      dup4\n        /* \"src/file.sol\":1882:1897  info.expireTime */\n      0x80\n      add\n      mload\n      sub(shl(0x40, 0x01), 0x01)\n        /* \"src/file.sol\":1707:2103  Info({... */\n      and\n      dup2\n      mstore\n      0x20\n      add\n        /* \"src/file.sol\":1917:1921  info */\n      dup4\n        /* \"src/file.sol\":1917:1926  info.name */\n      0xa0\n      add\n      mload\n        /* \"src/file.sol\":1707:2103  Info({... */\n      dup2\n      mstore\n      0x20\n      add\n        /* \"src/file.sol\":1945:1949  info */\n      dup4\n        /* \"src/file.sol\":1945:1953  info.ext */\n      0xc0\n      add\n      mload\n        /* \"src/file.sol\":1707:2103  Info({... */\n      dup2\n      mstore\n      0x20\n      add\n        /* \"src/file.sol\":1975:1996  FileStatus.Processing */\n      0x00\n        /* \"src/file.sol\":1707:2103  Info({... */\n      0x03\n      dup2\n      gt\n      iszero\n      tag_294\n      jumpi\n      tag_294\n      tag_119\n      jump\t// in\n    tag_294:\n      dup2\n      mstore\n        /* \"src/file.sol\":2030:2053  info.contentDisposition */\n      0x0100\n      dup5\n      add\n      mload\n        /* \"src/file.sol\":1707:2103  Info({... */\n      0x20\n      dup1\n      dup4\n      add\n      swap2\n      swap1\n      swap2\n      mstore\n        /* \"src/file.sol\":2078:2092  info.contentID */\n      0x0120\n      dup6\n      add\n      mload\n        /* \"src/file.sol\":1707:2103  Info({... */\n      0x40\n      swap3\n      dup4\n      add\n      mstore\n      0x00\n        /* \"src/file.sol\":1676:1699  mKeyToFileInfo[fileKey] */\n      dup5\n      dup2\n      mstore\n      dup1\n      dup3\n      mstore\n      dup3\n      swap1\n      keccak256\n        /* \"src/file.sol\":1676:2103  mKeyToFileInfo[fileKey].info = Info({... */\n      dup4\n      mload\n      dup2\n      sload\n      sub(shl(0xa0, 0x01), 0x01)\n      swap1\n      swap2\n      and\n      not(sub(shl(0xa0, 0x01), 0x01))\n      swap1\n      swap2\n      and\n      or\n      dup2\n      sstore\n      swap1\n      dup4\n      add\n      mload\n      0x01\n      dup3\n      add\n      sstore\n      swap1\n      dup3\n      add\n      mload\n      0x02\n      dup3\n      add\n      dup1\n      sload\n      0x60\n      dup6\n      add\n      mload\n      0x80\n      dup7\n      add\n      mload\n      sub(shl(0x40, 0x01), 0x01)\n      swap1\n      dup2\n      and\n      shl(0x80, 0x01)\n      mul\n      not(sub(shl(0xc0, 0x01), shl(0x80, 0x01)))\n      swap3\n      dup3\n      and\n      shl(0x40, 0x01)\n      mul\n      not(sub(shl(0x80, 0x01), 0x01))\n      swap1\n      swap5\n      and\n      swap2\n      swap1\n      swap6\n      and\n      or\n      swap2\n      swap1\n      swap2\n      or\n      and\n      swap2\n      swap1\n      swap2\n      or\n      swap1\n      sstore\n      0xa0\n      dup3\n      add\n      mload\n      0x03\n      dup3\n      add\n      swap1\n      tag_295\n      swap1\n      dup3\n      tag_179\n      jump\t// in\n    tag_295:\n      pop\n      0xc0\n      dup3\n      add\n      mload\n      0x04\n      dup3\n      add\n      swap1\n      tag_297\n      swap1\n      dup3\n      tag_179\n      jump\t// in\n    tag_297:\n      pop\n      0xe0\n      dup3\n      add\n      mload\n      0x05\n      dup3\n      add\n      dup1\n      sload\n      not(0xff)\n      and\n      0x01\n      dup4\n      0x03\n      dup2\n      gt\n      iszero\n      tag_299\n      jumpi\n      tag_299\n      tag_119\n      jump\t// in\n    tag_299:\n      mul\n      or\n      swap1\n      sstore\n      pop\n      0x0100\n      dup3\n      add\n      mload\n      0x06\n      dup3\n      add\n      swap1\n      tag_300\n      swap1\n      dup3\n      tag_179\n      jump\t// in\n    tag_300:\n      pop\n      0x0120\n      dup3\n      add\n      mload\n      0x07\n      dup3\n      add\n      swap1\n      tag_301\n      swap1\n      dup3\n      tag_179\n      jump\t// in\n    tag_301:\n      pop\n      pop\n        /* \"src/file.sol\":2149:2276  FileProgress({... */\n      0x40\n      dup1\n      mload\n      0x60\n      dup2\n      add\n      dup3\n      mstore\n      0x00\n      dup1\n      dup3\n      mstore\n      0x20\n      dup1\n      dup4\n      add\n      dup3\n      dup2\n      mstore\n      dup4\n      dup6\n      add\n      dup4\n      dup2\n      mstore\n        /* \"src/file.sol\":2114:2137  mKeyToFileInfo[fileKey] */\n      dup8\n      dup5\n      mstore\n      swap2\n      dup4\n      swap1\n      mstore\n      swap2\n      dup5\n      swap1\n      keccak256\n        /* \"src/file.sol\":2114:2276  mKeyToFileInfo[fileKey].progress = FileProgress({... */\n      swap3\n      mload\n        /* \"src/file.sol\":2114:2146  mKeyToFileInfo[fileKey].progress */\n      0x08\n      dup5\n      add\n        /* \"src/file.sol\":2114:2276  mKeyToFileInfo[fileKey].progress = FileProgress({... */\n      sstore\n      swap1\n      mload\n      0x09\n      swap1\n      swap3\n      add\n      dup1\n      sload\n      swap2\n      mload\n      sub(shl(0x40, 0x01), 0x01)\n      swap1\n      dup2\n      and\n      shl(0x40, 0x01)\n      mul\n      not(sub(shl(0x80, 0x01), 0x01))\n      swap1\n      swap4\n      and\n      swap4\n      and\n      swap3\n      swap1\n      swap3\n      or\n      or\n      swap1\n      sstore\n        /* \"src/file.sol\":2311:2320  info.name */\n      0xa0\n      dup5\n      add\n      mload\n        /* \"src/file.sol\":2322:2337  info.contentLen */\n      dup5\n      dup3\n      add\n      mload\n        /* \"src/file.sol\":2292:2338  FileAdded(fileKey, info.name, info.contentLen) */\n      swap2\n      mload\n        /* \"src/file.sol\":2129:2136  fileKey */\n      dup5\n      swap4\n      pop\n        /* \"src/file.sol\":2292:2338  FileAdded(fileKey, info.name, info.contentLen) */\n      0x7f2db28bb9cdbd41f93b3953994de4298cc665dda981f021c84fc9b4b367f11e\n      swap3\n      tag_302\n      swap3\n        /* \"src/file.sol\":2311:2320  info.name */\n      swap2\n        /* \"src/file.sol\":2292:2338  FileAdded(fileKey, info.name, info.contentLen) */\n      tag_303\n      jump\t// in\n    tag_302:\n      mload(0x40)\n      dup1\n      swap2\n      sub\n      swap1\n      log2\n        /* \"src/file.sol\":1202:2369  function pushFileInfo(Info memory info) public returns (bytes32 fileKey) {... */\n      swap2\n      swap1\n      pop\n      jump\t// out\n        /* \"src/file.sol\":5776:6075  function getFilesInfo(bytes32[] memory fileKeys) external view returns(Info[] memory infos ){... */\n    tag_80:\n        /* \"src/file.sol\":5847:5866  Info[] memory infos */\n      0x60\n        /* \"src/file.sol\":5897:5905  fileKeys */\n      dup2\n        /* \"src/file.sol\":5897:5912  fileKeys.length */\n      mload\n      sub(shl(0x40, 0x01), 0x01)\n        /* \"src/file.sol\":5886:5913  new Info[](fileKeys.length) */\n      dup2\n      gt\n      iszero\n      tag_306\n      jumpi\n      tag_306\n      tag_213\n      jump\t// in\n    tag_306:\n      mload(0x40)\n      swap1\n      dup1\n      dup3\n      mstore\n      dup1\n      0x20\n      mul\n      0x20\n      add\n      dup3\n      add\n      0x40\n      mstore\n      dup1\n      iszero\n      tag_307\n      jumpi\n      dup2\n      0x20\n      add\n    tag_308:\n      tag_309\n      tag_126\n      jump\t// in\n    tag_309:\n      dup2\n      mstore\n      0x20\n      add\n      swap1\n      0x01\n      swap1\n      sub\n      swap1\n      dup2\n      tag_308\n      jumpi\n      swap1\n      pop\n    tag_307:\n      pop\n        /* \"src/file.sol\":5878:5913  infos = new Info[](fileKeys.length) */\n      swap1\n      pop\n        /* \"src/file.sol\":5927:5936  uint256 i */\n      0x00\n        /* \"src/file.sol\":5923:6069  for(uint256 i=0; i< fileKeys.length; i++){... */\n    tag_310:\n        /* \"src/file.sol\":5943:5951  fileKeys */\n      dup3\n        /* \"src/file.sol\":5943:5958  fileKeys.length */\n      mload\n        /* \"src/file.sol\":5940:5941  i */\n      dup2\n        /* \"src/file.sol\":5940:5958  i< fileKeys.length */\n      lt\n        /* \"src/file.sol\":5923:6069  for(uint256 i=0; i< fileKeys.length; i++){... */\n      iszero\n      tag_311\n      jumpi\n        /* \"src/file.sol\":5978:5994  Info memory info */\n      0x00\n        /* \"src/file.sol\":5997:6011  mKeyToFileInfo */\n      dup1\n        /* \"src/file.sol\":5997:6024  mKeyToFileInfo[fileKeys[i]] */\n      0x00\n        /* \"src/file.sol\":6012:6020  fileKeys */\n      dup6\n        /* \"src/file.sol\":6021:6022  i */\n      dup5\n        /* \"src/file.sol\":6012:6023  fileKeys[i] */\n      dup2\n      mload\n      dup2\n      lt\n      tag_314\n      jumpi\n      tag_314\n      tag_109\n      jump\t// in\n    tag_314:\n      0x20\n      swap1\n      dup2\n      mul\n      swap2\n      swap1\n      swap2\n      add\n      dup2\n      add\n      mload\n        /* \"src/file.sol\":5997:6024  mKeyToFileInfo[fileKeys[i]] */\n      dup3\n      mstore\n      dup2\n      dup2\n      add\n      swap3\n      swap1\n      swap3\n      mstore\n      0x40\n      swap1\n      dup2\n      add\n      0x00\n      keccak256\n        /* \"src/file.sol\":5978:6029  Info memory info = mKeyToFileInfo[fileKeys[i]].info */\n      dup2\n      mload\n      0x0140\n      dup2\n      add\n      dup4\n      mstore\n      dup2\n      sload\n      sub(shl(0xa0, 0x01), 0x01)\n      and\n      dup2\n      mstore\n      0x01\n      dup3\n      add\n      sload\n      swap4\n      dup2\n      add\n      swap4\n      swap1\n      swap4\n      mstore\n      0x02\n      dup2\n      add\n      sload\n      sub(shl(0x40, 0x01), 0x01)\n      dup1\n      dup3\n      and\n      swap4\n      dup6\n      add\n      swap4\n      swap1\n      swap4\n      mstore\n      shl(0x40, 0x01)\n      dup2\n      div\n      dup4\n      and\n      0x60\n      dup6\n      add\n      mstore\n      shl(0x80, 0x01)\n      swap1\n      div\n      swap1\n      swap2\n      and\n      0x80\n      dup4\n      add\n      mstore\n      0x03\n      dup2\n      add\n      dup1\n      sload\n      0xa0\n      dup5\n      add\n      swap2\n      swap1\n      tag_315\n      swap1\n      tag_129\n      jump\t// in\n    tag_315:\n      dup1\n      0x1f\n      add\n      0x20\n      dup1\n      swap2\n      div\n      mul\n      0x20\n      add\n      mload(0x40)\n      swap1\n      dup2\n      add\n      0x40\n      mstore\n      dup1\n      swap3\n      swap2\n      swap1\n      dup2\n      dup2\n      mstore\n      0x20\n      add\n      dup3\n      dup1\n      sload\n      tag_316\n      swap1\n      tag_129\n      jump\t// in\n    tag_316:\n      dup1\n      iszero\n      tag_317\n      jumpi\n      dup1\n      0x1f\n      lt\n      tag_318\n      jumpi\n      0x0100\n      dup1\n      dup4\n      sload\n      div\n      mul\n      dup4\n      mstore\n      swap2\n      0x20\n      add\n      swap2\n      jump(tag_317)\n    tag_318:\n      dup3\n      add\n      swap2\n      swap1\n      0x00\n      mstore\n      keccak256(0x00, 0x20)\n      swap1\n    tag_319:\n      dup2\n      sload\n      dup2\n      mstore\n      swap1\n      0x01\n      add\n      swap1\n      0x20\n      add\n      dup1\n      dup4\n      gt\n      tag_319\n      jumpi\n      dup3\n      swap1\n      sub\n      0x1f\n      and\n      dup3\n      add\n      swap2\n    tag_317:\n      pop\n      pop\n      pop\n      pop\n      pop\n      dup2\n      mstore\n      0x20\n      add\n      0x04\n      dup3\n      add\n      dup1\n      sload\n      tag_320\n      swap1\n      tag_129\n      jump\t// in\n    tag_320:\n      dup1\n      0x1f\n      add\n      0x20\n      dup1\n      swap2\n      div\n      mul\n      0x20\n      add\n      mload(0x40)\n      swap1\n      dup2\n      add\n      0x40\n      mstore\n      dup1\n      swap3\n      swap2\n      swap1\n      dup2\n      dup2\n      mstore\n      0x20\n      add\n      dup3\n      dup1\n      sload\n      tag_321\n      swap1\n      tag_129\n      jump\t// in\n    tag_321:\n      dup1\n      iszero\n      tag_322\n      jumpi\n      dup1\n      0x1f\n      lt\n      tag_323\n      jumpi\n      0x0100\n      dup1\n      dup4\n      sload\n      div\n      mul\n      dup4\n      mstore\n      swap2\n      0x20\n      add\n      swap2\n      jump(tag_322)\n    tag_323:\n      dup3\n      add\n      swap2\n      swap1\n      0x00\n      mstore\n      keccak256(0x00, 0x20)\n      swap1\n    tag_324:\n      dup2\n      sload\n      dup2\n      mstore\n      swap1\n      0x01\n      add\n      swap1\n      0x20\n      add\n      dup1\n      dup4\n      gt\n      tag_324\n      jumpi\n      dup3\n      swap1\n      sub\n      0x1f\n      and\n      dup3\n      add\n      swap2\n    tag_322:\n      pop\n      pop\n      pop\n      swap2\n      dup4\n      mstore\n      pop\n      pop\n      0x05\n      dup3\n      add\n      sload\n      0x20\n      swap1\n      swap2\n      add\n      swap1\n      0xff\n      and\n      0x03\n      dup2\n      gt\n      iszero\n      tag_326\n      jumpi\n      tag_326\n      tag_119\n      jump\t// in\n    tag_326:\n      0x03\n      dup2\n      gt\n      iszero\n      tag_328\n      jumpi\n      tag_328\n      tag_119\n      jump\t// in\n    tag_328:\n      dup2\n      mstore\n      0x20\n      add\n      0x06\n      dup3\n      add\n      dup1\n      sload\n      tag_329\n      swap1\n      tag_129\n      jump\t// in\n    tag_329:\n      dup1\n      0x1f\n      add\n      0x20\n      dup1\n      swap2\n      div\n      mul\n      0x20\n      add\n      mload(0x40)\n      swap1\n      dup2\n      add\n      0x40\n      mstore\n      dup1\n      swap3\n      swap2\n      swap1\n      dup2\n      dup2\n      mstore\n      0x20\n      add\n      dup3\n      dup1\n      sload\n      tag_330\n      swap1\n      tag_129\n      jump\t// in\n    tag_330:\n      dup1\n      iszero\n      tag_331\n      jumpi\n      dup1\n      0x1f\n      lt\n      tag_332\n      jumpi\n      0x0100\n      dup1\n      dup4\n      sload\n      div\n      mul\n      dup4\n      mstore\n      swap2\n      0x20\n      add\n      swap2\n      jump(tag_331)\n    tag_332:\n      dup3\n      add\n      swap2\n      swap1\n      0x00\n      mstore\n      keccak256(0x00, 0x20)\n      swap1\n    tag_333:\n      dup2\n      sload\n      dup2\n      mstore\n      swap1\n      0x01\n      add\n      swap1\n      0x20\n      add\n      dup1\n      dup4\n      gt\n      tag_333\n      jumpi\n      dup3\n      swap1\n      sub\n      0x1f\n      and\n      dup3\n      add\n      swap2\n    tag_331:\n      pop\n      pop\n      pop\n      pop\n      pop\n      dup2\n      mstore\n      0x20\n      add\n      0x07\n      dup3\n      add\n      dup1\n      sload\n      tag_334\n      swap1\n      tag_129\n      jump\t// in\n    tag_334:\n      dup1\n      0x1f\n      add\n      0x20\n      dup1\n      swap2\n      div\n      mul\n      0x20\n      add\n      mload(0x40)\n      swap1\n      dup2\n      add\n      0x40\n      mstore\n      dup1\n      swap3\n      swap2\n      swap1\n      dup2\n      dup2\n      mstore\n      0x20\n      add\n      dup3\n      dup1\n      sload\n      tag_335\n      swap1\n      tag_129\n      jump\t// in\n    tag_335:\n      dup1\n      iszero\n      tag_336\n      jumpi\n      dup1\n      0x1f\n      lt\n      tag_337\n      jumpi\n      0x0100\n      dup1\n      dup4\n      sload\n      div\n      mul\n      dup4\n      mstore\n      swap2\n      0x20\n      add\n      swap2\n      jump(tag_336)\n    tag_337:\n      dup3\n      add\n      swap2\n      swap1\n      0x00\n      mstore\n      keccak256(0x00, 0x20)\n      swap1\n    tag_338:\n      dup2\n      sload\n      dup2\n      mstore\n      swap1\n      0x01\n      add\n      swap1\n      0x20\n      add\n      dup1\n      dup4\n      gt\n      tag_338\n      jumpi\n      dup3\n      swap1\n      sub\n      0x1f\n      and\n      dup3\n      add\n      swap2\n    tag_336:\n      pop\n      pop\n      pop\n      pop\n      pop\n      dup2\n      mstore\n      pop\n      pop\n      swap1\n      pop\n        /* \"src/file.sol\":6054:6058  info */\n      dup1\n        /* \"src/file.sol\":6043:6048  infos */\n      dup4\n        /* \"src/file.sol\":6049:6050  i */\n      dup4\n        /* \"src/file.sol\":6043:6051  infos[i] */\n      dup2\n      mload\n      dup2\n      lt\n      tag_340\n      jumpi\n      tag_340\n      tag_109\n      jump\t// in\n    tag_340:\n      0x20\n      mul\n      0x20\n      add\n      add\n        /* \"src/file.sol\":6043:6058  infos[i] = info */\n      dup2\n      swap1\n      mstore\n      pop\n        /* \"src/file.sol\":5964:6069  {... */\n      pop\n        /* \"src/file.sol\":5960:5963  i++ */\n      dup1\n      dup1\n      tag_341\n      swap1\n      tag_113\n      jump\t// in\n    tag_341:\n      swap2\n      pop\n      pop\n        /* \"src/file.sol\":5923:6069  for(uint256 i=0; i< fileKeys.length; i++){... */\n      jump(tag_310)\n    tag_311:\n      pop\n        /* \"src/file.sol\":5776:6075  function getFilesInfo(bytes32[] memory fileKeys) external view returns(Info[] memory infos ){... */\n      swap2\n      swap1\n      pop\n      jump\t// out\n        /* \"src/file.sol\":2379:2676  function getFileKeyFromName(string[] memory names) view external returns(bytes32[] memory ){... */\n    tag_91:\n        /* \"src/file.sol\":2452:2468  bytes32[] memory */\n      0x60\n        /* \"src/file.sol\":2480:2505  bytes32[] memory filekeys */\n      0x00\n        /* \"src/file.sol\":2522:2527  names */\n      dup3\n        /* \"src/file.sol\":2522:2534  names.length */\n      mload\n      sub(shl(0x40, 0x01), 0x01)\n        /* \"src/file.sol\":2508:2535  new bytes32[](names.length) */\n      dup2\n      gt\n      iszero\n      tag_344\n      jumpi\n      tag_344\n      tag_213\n      jump\t// in\n    tag_344:\n      mload(0x40)\n      swap1\n      dup1\n      dup3\n      mstore\n      dup1\n      0x20\n      mul\n      0x20\n      add\n      dup3\n      add\n      0x40\n      mstore\n      dup1\n      iszero\n      tag_345\n      jumpi\n      dup2\n      0x20\n      add\n      0x20\n      dup3\n      mul\n      dup1\n      calldatasize\n      dup4\n      calldatacopy\n      add\n      swap1\n      pop\n    tag_345:\n      pop\n        /* \"src/file.sol\":2480:2535  bytes32[] memory filekeys = new bytes32[](names.length) */\n      swap1\n      pop\n        /* \"src/file.sol\":2550:2559  uint256 i */\n      0x00\n        /* \"src/file.sol\":2545:2645  for (uint256 i;i < names.length; i++){... */\n    tag_346:\n        /* \"src/file.sol\":2564:2569  names */\n      dup4\n        /* \"src/file.sol\":2564:2576  names.length */\n      mload\n        /* \"src/file.sol\":2560:2561  i */\n      dup2\n        /* \"src/file.sol\":2560:2576  i < names.length */\n      lt\n        /* \"src/file.sol\":2545:2645  for (uint256 i;i < names.length; i++){... */\n      iszero\n      tag_216\n      jumpi\n        /* \"src/file.sol\":2610:2624  mNameToFileKey */\n      0x01\n        /* \"src/file.sol\":2625:2630  names */\n      dup5\n        /* \"src/file.sol\":2631:2632  i */\n      dup3\n        /* \"src/file.sol\":2625:2633  names[i] */\n      dup2\n      mload\n      dup2\n      lt\n      tag_350\n      jumpi\n      tag_350\n      tag_109\n      jump\t// in\n    tag_350:\n      0x20\n      mul\n      0x20\n      add\n      add\n      mload\n        /* \"src/file.sol\":2610:2634  mNameToFileKey[names[i]] */\n      mload(0x40)\n      tag_351\n      swap2\n      swap1\n      tag_289\n      jump\t// in\n    tag_351:\n      swap1\n      dup2\n      mstore\n      0x20\n      add\n      mload(0x40)\n      dup1\n      swap2\n      sub\n      swap1\n      keccak256\n      sload\n        /* \"src/file.sol\":2596:2604  filekeys */\n      dup3\n        /* \"src/file.sol\":2605:2606  i */\n      dup3\n        /* \"src/file.sol\":2596:2607  filekeys[i] */\n      dup2\n      mload\n      dup2\n      lt\n      tag_353\n      jumpi\n      tag_353\n      tag_109\n      jump\t// in\n    tag_353:\n      0x20\n      swap1\n      dup2\n      mul\n      swap2\n      swap1\n      swap2\n      add\n      add\n        /* \"src/file.sol\":2596:2634  filekeys[i] = mNameToFileKey[names[i]] */\n      mstore\n        /* \"src/file.sol\":2578:2581  i++ */\n      dup1\n      tag_354\n      dup2\n      tag_113\n      jump\t// in\n    tag_354:\n      swap2\n      pop\n      pop\n        /* \"src/file.sol\":2545:2645  for (uint256 i;i < names.length; i++){... */\n      jump(tag_346)\n        /* \"src/file.sol\":6421:7428  function downloadFile(... */\n    tag_96:\n        /* \"src/file.sol\":6569:6590  FileInfo storage file */\n      0x00\n        /* \"src/file.sol\":6593:6616  mKeyToFileInfo[fileKey] */\n      dup4\n      dup2\n      mstore\n      0x20\n      dup2\n      swap1\n      mstore\n      0x40\n      swap1\n      keccak256\n        /* \"src/file.sol\":6543:6557  bytes[] memory */\n      0x60\n      swap1\n        /* \"src/file.sol\":6654:6671  FileStatus.Active */\n      0x01\n        /* \"src/file.sol\":6634:6650  file.info.status */\n      0x05\n      dup3\n      add\n      sload\n      0xff\n      and\n        /* \"src/file.sol\":6634:6671  file.info.status == FileStatus.Active */\n      0x03\n      dup2\n      gt\n      iszero\n      tag_359\n      jumpi\n      tag_359\n      tag_119\n      jump\t// in\n    tag_359:\n      eq\n        /* \"src/file.sol\":6626:6699  require(file.info.status == FileStatus.Active, \"File upload not actived\") */\n      tag_360\n      jumpi\n      mload(0x40)\n      shl(0xe5, 0x461bcd)\n      dup2\n      mstore\n        /* \"#utility.yul\":28838:28840   */\n      0x20\n        /* \"src/file.sol\":6626:6699  require(file.info.status == FileStatus.Active, \"File upload not actived\") */\n      0x04\n      dup3\n      add\n        /* \"#utility.yul\":28820:28841   */\n      mstore\n        /* \"#utility.yul\":28877:28879   */\n      0x17\n        /* \"#utility.yul\":28857:28875   */\n      0x24\n      dup3\n      add\n        /* \"#utility.yul\":28850:28880   */\n      mstore\n      shl(0x4a, 0x119a5b19481d5c1b1bd859081b9bdd081858dd1a5d9959)\n        /* \"#utility.yul\":28896:28914   */\n      0x44\n      dup3\n      add\n        /* \"#utility.yul\":28889:28942   */\n      mstore\n        /* \"#utility.yul\":28959:28977   */\n      0x64\n      add\n        /* \"src/file.sol\":6626:6699  require(file.info.status == FileStatus.Active, \"File upload not actived\") */\n      tag_101\n        /* \"#utility.yul\":28636:28983   */\n      jump\n        /* \"src/file.sol\":6626:6699  require(file.info.status == FileStatus.Active, \"File upload not actived\") */\n    tag_360:\n        /* \"src/file.sol\":6717:6737  file.info.contentLen */\n      0x02\n      dup2\n      add\n      sload\n      sub(shl(0x40, 0x01), 0x01)\n      and\n        /* \"src/file.sol\":6709:6765  require(file.info.contentLen > 0, \"File does not exist\") */\n      tag_363\n      jumpi\n      mload(0x40)\n      shl(0xe5, 0x461bcd)\n      dup2\n      mstore\n        /* \"#utility.yul\":29190:29192   */\n      0x20\n        /* \"src/file.sol\":6709:6765  require(file.info.contentLen > 0, \"File does not exist\") */\n      0x04\n      dup3\n      add\n        /* \"#utility.yul\":29172:29193   */\n      mstore\n        /* \"#utility.yul\":29229:29231   */\n      0x13\n        /* \"#utility.yul\":29209:29227   */\n      0x24\n      dup3\n      add\n        /* \"#utility.yul\":29202:29232   */\n      mstore\n      shl(0x6a, 0x119a5b1948191bd95cc81b9bdd08195e1a5cdd)\n        /* \"#utility.yul\":29248:29266   */\n      0x44\n      dup3\n      add\n        /* \"#utility.yul\":29241:29290   */\n      mstore\n        /* \"#utility.yul\":29307:29325   */\n      0x64\n      add\n        /* \"src/file.sol\":6709:6765  require(file.info.contentLen > 0, \"File does not exist\") */\n      tag_101\n        /* \"#utility.yul\":28988:29331   */\n      jump\n        /* \"src/file.sol\":6709:6765  require(file.info.contentLen > 0, \"File does not exist\") */\n    tag_363:\n        /* \"src/file.sol\":6791:6812  file.info.totalChunks */\n      0x02\n      dup2\n      add\n      sload\n      shl(0x40, 0x01)\n      swap1\n      div\n      sub(shl(0x40, 0x01), 0x01)\n      and\n        /* \"src/file.sol\":6783:6812  start < file.info.totalChunks */\n      dup5\n      lt\n        /* \"src/file.sol\":6775:6841  require(start < file.info.totalChunks, \"Start index out of range\") */\n      tag_366\n      jumpi\n      mload(0x40)\n      shl(0xe5, 0x461bcd)\n      dup2\n      mstore\n        /* \"#utility.yul\":29538:29540   */\n      0x20\n        /* \"src/file.sol\":6775:6841  require(start < file.info.totalChunks, \"Start index out of range\") */\n      0x04\n      dup3\n      add\n        /* \"#utility.yul\":29520:29541   */\n      mstore\n        /* \"#utility.yul\":29577:29579   */\n      0x18\n        /* \"#utility.yul\":29557:29575   */\n      0x24\n      dup3\n      add\n        /* \"#utility.yul\":29550:29580   */\n      mstore\n      shl(0x40, 0x537461727420696e646578206f7574206f662072616e6765)\n        /* \"#utility.yul\":29596:29614   */\n      0x44\n      dup3\n      add\n        /* \"#utility.yul\":29589:29643   */\n      mstore\n        /* \"#utility.yul\":29660:29678   */\n      0x64\n      add\n        /* \"src/file.sol\":6775:6841  require(start < file.info.totalChunks, \"Start index out of range\") */\n      tag_101\n        /* \"#utility.yul\":29336:29684   */\n      jump\n        /* \"src/file.sol\":6775:6841  require(start < file.info.totalChunks, \"Start index out of range\") */\n    tag_366:\n        /* \"src/file.sol\":6867:6868  0 */\n      0x00\n        /* \"src/file.sol\":6859:6864  limit */\n      dup4\n        /* \"src/file.sol\":6859:6868  limit > 0 */\n      gt\n        /* \"src/file.sol\":6851:6904  require(limit > 0, \"Limit must be greater than zero\") */\n      tag_369\n      jumpi\n      mload(0x40)\n      shl(0xe5, 0x461bcd)\n      dup2\n      mstore\n        /* \"#utility.yul\":29891:29893   */\n      0x20\n        /* \"src/file.sol\":6851:6904  require(limit > 0, \"Limit must be greater than zero\") */\n      0x04\n      dup3\n      add\n        /* \"#utility.yul\":29873:29894   */\n      mstore\n        /* \"#utility.yul\":29930:29932   */\n      0x1f\n        /* \"#utility.yul\":29910:29928   */\n      0x24\n      dup3\n      add\n        /* \"#utility.yul\":29903:29933   */\n      mstore\n        /* \"#utility.yul\":29969:30002   */\n      0x4c696d6974206d7573742062652067726561746572207468616e207a65726f00\n        /* \"#utility.yul\":29949:29967   */\n      0x44\n      dup3\n      add\n        /* \"#utility.yul\":29942:30003   */\n      mstore\n        /* \"#utility.yul\":30020:30038   */\n      0x64\n      add\n        /* \"src/file.sol\":6851:6904  require(limit > 0, \"Limit must be greater than zero\") */\n      tag_101\n        /* \"#utility.yul\":29689:30044   */\n      jump\n        /* \"src/file.sol\":6851:6904  require(limit > 0, \"Limit must be greater than zero\") */\n    tag_369:\n        /* \"src/file.sol\":6941:6961  file.info.expireTime */\n      0x02\n      dup2\n      add\n      sload\n      shl(0x80, 0x01)\n      swap1\n      div\n      sub(shl(0x40, 0x01), 0x01)\n      and\n        /* \"src/file.sol\":6922:6937  block.timestamp */\n      timestamp\n        /* \"src/file.sol\":6922:6961  block.timestamp <= file.info.expireTime */\n      gt\n      iszero\n        /* \"src/file.sol\":6914:6982  require(block.timestamp <= file.info.expireTime, \"File has expired\") */\n      tag_372\n      jumpi\n      mload(0x40)\n      shl(0xe5, 0x461bcd)\n      dup2\n      mstore\n      0x04\n      add\n      tag_101\n      swap1\n      tag_250\n      jump\t// in\n    tag_372:\n        /* \"src/file.sol\":7089:7110  file.info.totalChunks */\n      0x02\n      dup2\n      add\n      sload\n        /* \"src/file.sol\":7059:7070  uint256 end */\n      0x00\n      swap1\n      shl(0x40, 0x01)\n        /* \"src/file.sol\":7089:7110  file.info.totalChunks */\n      swap1\n      div\n      sub(shl(0x40, 0x01), 0x01)\n      and\n        /* \"src/file.sol\":7073:7086  start + limit */\n      tag_374\n        /* \"src/file.sol\":7081:7086  limit */\n      dup6\n        /* \"src/file.sol\":7073:7078  start */\n      dup8\n        /* \"src/file.sol\":7073:7086  start + limit */\n      tag_162\n      jump\t// in\n    tag_374:\n        /* \"src/file.sol\":7073:7110  start + limit > file.info.totalChunks */\n      gt\n        /* \"src/file.sol\":7073:7174  start + limit > file.info.totalChunks... */\n      tag_375\n      jumpi\n        /* \"src/file.sol\":7161:7174  start + limit */\n      tag_376\n        /* \"src/file.sol\":7169:7174  limit */\n      dup5\n        /* \"src/file.sol\":7161:7166  start */\n      dup7\n        /* \"src/file.sol\":7161:7174  start + limit */\n      tag_162\n      jump\t// in\n    tag_376:\n        /* \"src/file.sol\":7073:7174  start + limit > file.info.totalChunks... */\n      jump(tag_377)\n    tag_375:\n        /* \"src/file.sol\":7125:7146  file.info.totalChunks */\n      0x02\n      dup3\n      add\n      sload\n      shl(0x40, 0x01)\n      swap1\n      div\n      sub(shl(0x40, 0x01), 0x01)\n      and\n        /* \"src/file.sol\":7073:7174  start + limit > file.info.totalChunks... */\n    tag_377:\n        /* \"src/file.sol\":7059:7174  uint256 end = start + limit > file.info.totalChunks... */\n      swap1\n      pop\n        /* \"src/file.sol\":7233:7257  bytes[] memory chunkData */\n      0x00\n        /* \"src/file.sol\":7272:7283  end - start */\n      tag_378\n        /* \"src/file.sol\":7278:7283  start */\n      dup7\n        /* \"src/file.sol\":7059:7174  uint256 end = start + limit > file.info.totalChunks... */\n      dup4\n        /* \"src/file.sol\":7272:7283  end - start */\n      tag_379\n      jump\t// in\n    tag_378:\n      sub(shl(0x40, 0x01), 0x01)\n        /* \"src/file.sol\":7260:7284  new bytes[](end - start) */\n      dup2\n      gt\n      iszero\n      tag_381\n      jumpi\n      tag_381\n      tag_213\n      jump\t// in\n    tag_381:\n      mload(0x40)\n      swap1\n      dup1\n      dup3\n      mstore\n      dup1\n      0x20\n      mul\n      0x20\n      add\n      dup3\n      add\n      0x40\n      mstore\n      dup1\n      iszero\n      tag_382\n      jumpi\n      dup2\n      0x20\n      add\n    tag_383:\n      0x60\n      dup2\n      mstore\n      0x20\n      add\n      swap1\n      0x01\n      swap1\n      sub\n      swap1\n      dup2\n      tag_383\n      jumpi\n      swap1\n      pop\n    tag_382:\n      pop\n        /* \"src/file.sol\":7233:7284  bytes[] memory chunkData = new bytes[](end - start) */\n      swap1\n      pop\n        /* \"src/file.sol\":7312:7317  start */\n      dup6\n        /* \"src/file.sol\":7295:7395  for (uint256 i = start; i < end; i++) {... */\n    tag_384:\n        /* \"src/file.sol\":7323:7326  end */\n      dup3\n        /* \"src/file.sol\":7319:7320  i */\n      dup2\n        /* \"src/file.sol\":7319:7326  i < end */\n      lt\n        /* \"src/file.sol\":7295:7395  for (uint256 i = start; i < end; i++) {... */\n      iszero\n      tag_385\n      jumpi\n        /* \"src/file.sol\":7370:7384  file.chunks[i] */\n      0x00\n      dup2\n      dup2\n      mstore\n        /* \"src/file.sol\":7370:7381  file.chunks */\n      0x0a\n      dup6\n      add\n        /* \"src/file.sol\":7370:7384  file.chunks[i] */\n      0x20\n      mstore\n      0x40\n      swap1\n      keccak256\n        /* \"src/file.sol\":7347:7384  chunkData[i - start] = file.chunks[i] */\n      dup1\n      sload\n      tag_387\n      swap1\n      tag_129\n      jump\t// in\n    tag_387:\n      dup1\n      0x1f\n      add\n      0x20\n      dup1\n      swap2\n      div\n      mul\n      0x20\n      add\n      mload(0x40)\n      swap1\n      dup2\n      add\n      0x40\n      mstore\n      dup1\n      swap3\n      swap2\n      swap1\n      dup2\n      dup2\n      mstore\n      0x20\n      add\n      dup3\n      dup1\n      sload\n      tag_388\n      swap1\n      tag_129\n      jump\t// in\n    tag_388:\n      dup1\n      iszero\n      tag_389\n      jumpi\n      dup1\n      0x1f\n      lt\n      tag_390\n      jumpi\n      0x0100\n      dup1\n      dup4\n      sload\n      div\n      mul\n      dup4\n      mstore\n      swap2\n      0x20\n      add\n      swap2\n      jump(tag_389)\n    tag_390:\n      dup3\n      add\n      swap2\n      swap1\n      0x00\n      mstore\n      keccak256(0x00, 0x20)\n      swap1\n    tag_391:\n      dup2\n      sload\n      dup2\n      mstore\n      swap1\n      0x01\n      add\n      swap1\n      0x20\n      add\n      dup1\n      dup4\n      gt\n      tag_391\n      jumpi\n      dup3\n      swap1\n      sub\n      0x1f\n      and\n      dup3\n      add\n      swap2\n    tag_389:\n      pop\n      pop\n      pop\n      pop\n      pop\n        /* \"src/file.sol\":7347:7356  chunkData */\n      dup3\n        /* \"src/file.sol\":7361:7366  start */\n      dup9\n        /* \"src/file.sol\":7357:7358  i */\n      dup4\n        /* \"src/file.sol\":7357:7366  i - start */\n      tag_392\n      swap2\n      swap1\n      tag_379\n      jump\t// in\n    tag_392:\n        /* \"src/file.sol\":7347:7367  chunkData[i - start] */\n      dup2\n      mload\n      dup2\n      lt\n      tag_394\n      jumpi\n      tag_394\n      tag_109\n      jump\t// in\n    tag_394:\n      0x20\n      mul\n      0x20\n      add\n      add\n        /* \"src/file.sol\":7347:7384  chunkData[i - start] = file.chunks[i] */\n      dup2\n      swap1\n      mstore\n      pop\n        /* \"src/file.sol\":7328:7331  i++ */\n      dup1\n      dup1\n      tag_395\n      swap1\n      tag_113\n      jump\t// in\n    tag_395:\n      swap2\n      pop\n      pop\n        /* \"src/file.sol\":7295:7395  for (uint256 i = start; i < end; i++) {... */\n      jump(tag_384)\n    tag_385:\n      pop\n        /* \"src/file.sol\":7412:7421  chunkData */\n      swap3\n      pop\n      pop\n      pop\n        /* \"src/file.sol\":6421:7428  function downloadFile(... */\n    tag_355:\n      swap4\n      swap3\n      pop\n      pop\n      pop\n      jump\t// out\n    tag_126:\n      0x40\n      dup1\n      mload\n      0x0140\n      dup2\n      add\n      dup3\n      mstore\n      0x00\n      dup1\n      dup3\n      mstore\n      0x20\n      dup3\n      add\n      dup2\n      swap1\n      mstore\n      swap2\n      dup2\n      add\n      dup3\n      swap1\n      mstore\n      0x60\n      dup1\n      dup3\n      add\n      dup4\n      swap1\n      mstore\n      0x80\n      dup3\n      add\n      dup4\n      swap1\n      mstore\n      0xa0\n      dup3\n      add\n      dup2\n      swap1\n      mstore\n      0xc0\n      dup3\n      add\n      mstore\n      swap1\n      0xe0\n      dup3\n      add\n      swap1\n      dup2\n      mstore\n      0x20\n      add\n      0x60\n      dup2\n      mstore\n      0x20\n      add\n      0x60\n      dup2\n      mstore\n      pop\n      swap1\n      jump\t// out\n    tag_208:\n      pop\n      dup1\n      sload\n      tag_398\n      swap1\n      tag_129\n      jump\t// in\n    tag_398:\n      0x00\n      dup3\n      sstore\n      dup1\n      0x1f\n      lt\n      tag_400\n      jumpi\n      pop\n      pop\n      jump\t// out\n    tag_400:\n      0x1f\n      add\n      0x20\n      swap1\n      div\n      swap1\n      0x00\n      mstore\n      keccak256(0x00, 0x20)\n      swap1\n      dup2\n      add\n      swap1\n      tag_401\n      swap2\n      swap1\n      tag_402\n      jump\t// in\n    tag_401:\n      pop\n      jump\t// out\n    tag_402:\n    tag_403:\n      dup1\n      dup3\n      gt\n      iszero\n      tag_404\n      jumpi\n      0x00\n      dup2\n      sstore\n      0x01\n      add\n      jump(tag_403)\n    tag_404:\n      pop\n      swap1\n      jump\t// out\n        /* \"#utility.yul\":14:141   */\n    tag_213:\n        /* \"#utility.yul\":75:85   */\n      0x4e487b71\n        /* \"#utility.yul\":70:73   */\n      0xe0\n        /* \"#utility.yul\":66:86   */\n      shl\n        /* \"#utility.yul\":63:64   */\n      0x00\n        /* \"#utility.yul\":56:87   */\n      mstore\n        /* \"#utility.yul\":106:110   */\n      0x41\n        /* \"#utility.yul\":103:104   */\n      0x04\n        /* \"#utility.yul\":96:111   */\n      mstore\n        /* \"#utility.yul\":130:134   */\n      0x24\n        /* \"#utility.yul\":127:128   */\n      0x00\n        /* \"#utility.yul\":120:135   */\n      revert\n        /* \"#utility.yul\":146:401   */\n    tag_405:\n        /* \"#utility.yul\":218:220   */\n      0x40\n        /* \"#utility.yul\":212:221   */\n      mload\n        /* \"#utility.yul\":260:266   */\n      0x0140\n        /* \"#utility.yul\":248:267   */\n      dup2\n      add\n      sub(shl(0x40, 0x01), 0x01)\n        /* \"#utility.yul\":282:316   */\n      dup2\n      gt\n        /* \"#utility.yul\":318:340   */\n      dup3\n      dup3\n      lt\n        /* \"#utility.yul\":279:341   */\n      or\n        /* \"#utility.yul\":276:364   */\n      iszero\n      tag_429\n      jumpi\n        /* \"#utility.yul\":344:362   */\n      tag_429\n      tag_213\n      jump\t// in\n    tag_429:\n        /* \"#utility.yul\":380:382   */\n      0x40\n        /* \"#utility.yul\":373:395   */\n      mstore\n        /* \"#utility.yul\":146:401   */\n      swap1\n      jump\t// out\n        /* \"#utility.yul\":406:681   */\n    tag_406:\n        /* \"#utility.yul\":477:479   */\n      0x40\n        /* \"#utility.yul\":471:480   */\n      mload\n        /* \"#utility.yul\":542:544   */\n      0x1f\n        /* \"#utility.yul\":523:536   */\n      dup3\n      add\n      not(0x1f)\n        /* \"#utility.yul\":519:546   */\n      and\n        /* \"#utility.yul\":507:547   */\n      dup2\n      add\n      sub(shl(0x40, 0x01), 0x01)\n        /* \"#utility.yul\":562:596   */\n      dup2\n      gt\n        /* \"#utility.yul\":598:620   */\n      dup3\n      dup3\n      lt\n        /* \"#utility.yul\":559:621   */\n      or\n        /* \"#utility.yul\":556:644   */\n      iszero\n      tag_432\n      jumpi\n        /* \"#utility.yul\":624:642   */\n      tag_432\n      tag_213\n      jump\t// in\n    tag_432:\n        /* \"#utility.yul\":660:662   */\n      0x40\n        /* \"#utility.yul\":653:675   */\n      mstore\n        /* \"#utility.yul\":406:681   */\n      swap2\n      swap1\n      pop\n      jump\t// out\n        /* \"#utility.yul\":686:867   */\n    tag_407:\n        /* \"#utility.yul\":744:748   */\n      0x00\n      sub(shl(0x40, 0x01), 0x01)\n        /* \"#utility.yul\":766:796   */\n      dup3\n      gt\n        /* \"#utility.yul\":763:819   */\n      iszero\n      tag_435\n      jumpi\n        /* \"#utility.yul\":799:817   */\n      tag_435\n      tag_213\n      jump\t// in\n    tag_435:\n      pop\n        /* \"#utility.yul\":844:845   */\n      0x05\n        /* \"#utility.yul\":840:854   */\n      shl\n        /* \"#utility.yul\":856:860   */\n      0x20\n        /* \"#utility.yul\":836:861   */\n      add\n      swap1\n        /* \"#utility.yul\":686:867   */\n      jump\t// out\n        /* \"#utility.yul\":872:1402   */\n    tag_408:\n        /* \"#utility.yul\":914:919   */\n      0x00\n        /* \"#utility.yul\":967:970   */\n      dup3\n        /* \"#utility.yul\":960:964   */\n      0x1f\n        /* \"#utility.yul\":952:958   */\n      dup4\n        /* \"#utility.yul\":948:965   */\n      add\n        /* \"#utility.yul\":944:971   */\n      slt\n        /* \"#utility.yul\":934:989   */\n      tag_437\n      jumpi\n        /* \"#utility.yul\":985:986   */\n      0x00\n        /* \"#utility.yul\":982:983   */\n      dup1\n        /* \"#utility.yul\":975:987   */\n      revert\n        /* \"#utility.yul\":934:989   */\n    tag_437:\n        /* \"#utility.yul\":1008:1028   */\n      dup2\n      calldataload\n      sub(shl(0x40, 0x01), 0x01)\n        /* \"#utility.yul\":1040:1066   */\n      dup2\n      gt\n        /* \"#utility.yul\":1037:1089   */\n      iszero\n      tag_439\n      jumpi\n        /* \"#utility.yul\":1069:1087   */\n      tag_439\n      tag_213\n      jump\t// in\n    tag_439:\n        /* \"#utility.yul\":1113:1168   */\n      tag_440\n        /* \"#utility.yul\":1156:1158   */\n      0x1f\n        /* \"#utility.yul\":1137:1150   */\n      dup3\n      add\n      not(0x1f)\n        /* \"#utility.yul\":1133:1160   */\n      and\n        /* \"#utility.yul\":1162:1166   */\n      0x20\n        /* \"#utility.yul\":1129:1167   */\n      add\n        /* \"#utility.yul\":1113:1168   */\n      tag_406\n      jump\t// in\n    tag_440:\n        /* \"#utility.yul\":1193:1195   */\n      dup2\n        /* \"#utility.yul\":1184:1191   */\n      dup2\n        /* \"#utility.yul\":1177:1196   */\n      mstore\n        /* \"#utility.yul\":1239:1242   */\n      dup5\n        /* \"#utility.yul\":1232:1236   */\n      0x20\n        /* \"#utility.yul\":1227:1229   */\n      dup4\n        /* \"#utility.yul\":1219:1225   */\n      dup7\n        /* \"#utility.yul\":1215:1230   */\n      add\n        /* \"#utility.yul\":1211:1237   */\n      add\n        /* \"#utility.yul\":1208:1243   */\n      gt\n        /* \"#utility.yul\":1205:1260   */\n      iszero\n      tag_441\n      jumpi\n        /* \"#utility.yul\":1256:1257   */\n      0x00\n        /* \"#utility.yul\":1253:1254   */\n      dup1\n        /* \"#utility.yul\":1246:1258   */\n      revert\n        /* \"#utility.yul\":1205:1260   */\n    tag_441:\n        /* \"#utility.yul\":1321:1323   */\n      dup2\n        /* \"#utility.yul\":1314:1318   */\n      0x20\n        /* \"#utility.yul\":1306:1312   */\n      dup6\n        /* \"#utility.yul\":1302:1319   */\n      add\n        /* \"#utility.yul\":1295:1299   */\n      0x20\n        /* \"#utility.yul\":1286:1293   */\n      dup4\n        /* \"#utility.yul\":1282:1300   */\n      add\n        /* \"#utility.yul\":1269:1324   */\n      calldatacopy\n        /* \"#utility.yul\":1369:1370   */\n      0x00\n        /* \"#utility.yul\":1344:1360   */\n      swap2\n      dup2\n      add\n        /* \"#utility.yul\":1362:1366   */\n      0x20\n        /* \"#utility.yul\":1340:1367   */\n      add\n        /* \"#utility.yul\":1333:1371   */\n      swap2\n      swap1\n      swap2\n      mstore\n        /* \"#utility.yul\":1348:1355   */\n      swap4\n        /* \"#utility.yul\":872:1402   */\n      swap3\n      pop\n      pop\n      pop\n      jump\t// out\n        /* \"#utility.yul\":1407:2067   */\n    tag_409:\n        /* \"#utility.yul\":1461:1466   */\n      0x00\n        /* \"#utility.yul\":1514:1517   */\n      dup3\n        /* \"#utility.yul\":1507:1511   */\n      0x1f\n        /* \"#utility.yul\":1499:1505   */\n      dup4\n        /* \"#utility.yul\":1495:1512   */\n      add\n        /* \"#utility.yul\":1491:1518   */\n      slt\n        /* \"#utility.yul\":1481:1536   */\n      tag_443\n      jumpi\n        /* \"#utility.yul\":1532:1533   */\n      0x00\n        /* \"#utility.yul\":1529:1530   */\n      dup1\n        /* \"#utility.yul\":1522:1534   */\n      revert\n        /* \"#utility.yul\":1481:1536   */\n    tag_443:\n        /* \"#utility.yul\":1568:1574   */\n      dup2\n        /* \"#utility.yul\":1555:1575   */\n      calldataload\n        /* \"#utility.yul\":1594:1598   */\n      0x20\n        /* \"#utility.yul\":1618:1676   */\n      tag_444\n        /* \"#utility.yul\":1634:1675   */\n      tag_445\n        /* \"#utility.yul\":1672:1674   */\n      dup4\n        /* \"#utility.yul\":1634:1675   */\n      tag_407\n      jump\t// in\n    tag_445:\n        /* \"#utility.yul\":1618:1676   */\n      tag_406\n      jump\t// in\n    tag_444:\n        /* \"#utility.yul\":1710:1725   */\n      dup3\n      dup2\n      mstore\n        /* \"#utility.yul\":1796:1797   */\n      0x05\n        /* \"#utility.yul\":1792:1802   */\n      swap3\n      swap1\n      swap3\n      shl\n        /* \"#utility.yul\":1780:1803   */\n      dup5\n      add\n        /* \"#utility.yul\":1776:1808   */\n      dup2\n      add\n      swap2\n        /* \"#utility.yul\":1741:1753   */\n      dup2\n      dup2\n      add\n      swap1\n        /* \"#utility.yul\":1820:1835   */\n      dup7\n      dup5\n      gt\n        /* \"#utility.yul\":1817:1852   */\n      iszero\n      tag_446\n      jumpi\n        /* \"#utility.yul\":1848:1849   */\n      0x00\n        /* \"#utility.yul\":1845:1846   */\n      dup1\n        /* \"#utility.yul\":1838:1850   */\n      revert\n        /* \"#utility.yul\":1817:1852   */\n    tag_446:\n        /* \"#utility.yul\":1884:1886   */\n      dup3\n        /* \"#utility.yul\":1876:1882   */\n      dup7\n        /* \"#utility.yul\":1872:1887   */\n      add\n        /* \"#utility.yul\":1896:2038   */\n    tag_447:\n        /* \"#utility.yul\":1912:1918   */\n      dup5\n        /* \"#utility.yul\":1907:1910   */\n      dup2\n        /* \"#utility.yul\":1904:1919   */\n      lt\n        /* \"#utility.yul\":1896:2038   */\n      iszero\n      tag_449\n      jumpi\n        /* \"#utility.yul\":1978:1995   */\n      dup1\n      calldataload\n        /* \"#utility.yul\":1966:1996   */\n      dup4\n      mstore\n        /* \"#utility.yul\":2016:2028   */\n      swap2\n      dup4\n      add\n      swap2\n        /* \"#utility.yul\":1929:1941   */\n      dup4\n      add\n        /* \"#utility.yul\":1896:2038   */\n      jump(tag_447)\n    tag_449:\n      pop\n        /* \"#utility.yul\":2056:2061   */\n      swap7\n        /* \"#utility.yul\":1407:2067   */\n      swap6\n      pop\n      pop\n      pop\n      pop\n      pop\n      pop\n      jump\t// out\n        /* \"#utility.yul\":2072:3495   */\n    tag_22:\n        /* \"#utility.yul\":2208:2214   */\n      0x00\n        /* \"#utility.yul\":2216:2222   */\n      dup1\n        /* \"#utility.yul\":2224:2230   */\n      0x00\n        /* \"#utility.yul\":2277:2279   */\n      0x60\n        /* \"#utility.yul\":2265:2274   */\n      dup5\n        /* \"#utility.yul\":2256:2263   */\n      dup7\n        /* \"#utility.yul\":2252:2275   */\n      sub\n        /* \"#utility.yul\":2248:2280   */\n      slt\n        /* \"#utility.yul\":2245:2297   */\n      iszero\n      tag_451\n      jumpi\n        /* \"#utility.yul\":2293:2294   */\n      0x00\n        /* \"#utility.yul\":2290:2291   */\n      dup1\n        /* \"#utility.yul\":2283:2295   */\n      revert\n        /* \"#utility.yul\":2245:2297   */\n    tag_451:\n        /* \"#utility.yul\":2316:2339   */\n      dup4\n      calldataload\n      swap3\n      pop\n        /* \"#utility.yul\":2358:2360   */\n      0x20\n        /* \"#utility.yul\":2396:2414   */\n      dup1\n      dup6\n      add\n        /* \"#utility.yul\":2383:2415   */\n      calldataload\n      sub(shl(0x40, 0x01), 0x01)\n        /* \"#utility.yul\":2464:2478   */\n      dup1\n      dup3\n      gt\n        /* \"#utility.yul\":2461:2495   */\n      iszero\n      tag_452\n      jumpi\n        /* \"#utility.yul\":2491:2492   */\n      0x00\n        /* \"#utility.yul\":2488:2489   */\n      dup1\n        /* \"#utility.yul\":2481:2493   */\n      revert\n        /* \"#utility.yul\":2461:2495   */\n    tag_452:\n        /* \"#utility.yul\":2529:2535   */\n      dup2\n        /* \"#utility.yul\":2518:2527   */\n      dup8\n        /* \"#utility.yul\":2514:2536   */\n      add\n        /* \"#utility.yul\":2504:2536   */\n      swap2\n      pop\n        /* \"#utility.yul\":2574:2581   */\n      dup8\n        /* \"#utility.yul\":2567:2571   */\n      0x1f\n        /* \"#utility.yul\":2563:2565   */\n      dup4\n        /* \"#utility.yul\":2559:2572   */\n      add\n        /* \"#utility.yul\":2555:2582   */\n      slt\n        /* \"#utility.yul\":2545:2600   */\n      tag_453\n      jumpi\n        /* \"#utility.yul\":2596:2597   */\n      0x00\n        /* \"#utility.yul\":2593:2594   */\n      dup1\n        /* \"#utility.yul\":2586:2598   */\n      revert\n        /* \"#utility.yul\":2545:2600   */\n    tag_453:\n        /* \"#utility.yul\":2632:2634   */\n      dup2\n        /* \"#utility.yul\":2619:2635   */\n      calldataload\n        /* \"#utility.yul\":2655:2713   */\n      tag_454\n        /* \"#utility.yul\":2671:2712   */\n      tag_445\n        /* \"#utility.yul\":2709:2711   */\n      dup3\n        /* \"#utility.yul\":2671:2712   */\n      tag_407\n      jump\t// in\n        /* \"#utility.yul\":2655:2713   */\n    tag_454:\n        /* \"#utility.yul\":2747:2762   */\n      dup2\n      dup2\n      mstore\n        /* \"#utility.yul\":2829:2830   */\n      0x05\n        /* \"#utility.yul\":2825:2835   */\n      swap2\n      swap1\n      swap2\n      shl\n        /* \"#utility.yul\":2817:2836   */\n      dup4\n      add\n        /* \"#utility.yul\":2813:2841   */\n      dup5\n      add\n      swap1\n        /* \"#utility.yul\":2778:2790   */\n      dup5\n      dup2\n      add\n      swap1\n        /* \"#utility.yul\":2853:2872   */\n      dup11\n      dup4\n      gt\n        /* \"#utility.yul\":2850:2889   */\n      iszero\n      tag_456\n      jumpi\n        /* \"#utility.yul\":2885:2886   */\n      0x00\n        /* \"#utility.yul\":2882:2883   */\n      dup1\n        /* \"#utility.yul\":2875:2887   */\n      revert\n        /* \"#utility.yul\":2850:2889   */\n    tag_456:\n        /* \"#utility.yul\":2917:2919   */\n      dup6\n        /* \"#utility.yul\":2913:2915   */\n      dup6\n        /* \"#utility.yul\":2909:2920   */\n      add\n        /* \"#utility.yul\":2929:3281   */\n    tag_457:\n        /* \"#utility.yul\":2945:2951   */\n      dup4\n        /* \"#utility.yul\":2940:2943   */\n      dup2\n        /* \"#utility.yul\":2937:2952   */\n      lt\n        /* \"#utility.yul\":2929:3281   */\n      iszero\n      tag_459\n      jumpi\n        /* \"#utility.yul\":3031:3034   */\n      dup1\n        /* \"#utility.yul\":3018:3035   */\n      calldataload\n        /* \"#utility.yul\":3067:3069   */\n      dup6\n        /* \"#utility.yul\":3054:3065   */\n      dup2\n        /* \"#utility.yul\":3051:3070   */\n      gt\n        /* \"#utility.yul\":3048:3157   */\n      iszero\n      tag_460\n      jumpi\n        /* \"#utility.yul\":3111:3112   */\n      0x00\n        /* \"#utility.yul\":3140:3142   */\n      dup1\n        /* \"#utility.yul\":3136:3138   */\n      dup2\n        /* \"#utility.yul\":3129:3143   */\n      revert\n        /* \"#utility.yul\":3048:3157   */\n    tag_460:\n        /* \"#utility.yul\":3182:3238   */\n      tag_461\n        /* \"#utility.yul\":3230:3237   */\n      dup14\n        /* \"#utility.yul\":3225:3227   */\n      dup10\n        /* \"#utility.yul\":3211:3222   */\n      dup4\n        /* \"#utility.yul\":3207:3209   */\n      dup11\n        /* \"#utility.yul\":3203:3223   */\n      add\n        /* \"#utility.yul\":3199:3228   */\n      add\n        /* \"#utility.yul\":3182:3238   */\n      tag_408\n      jump\t// in\n    tag_461:\n        /* \"#utility.yul\":3170:3239   */\n      dup5\n      mstore\n      pop\n        /* \"#utility.yul\":3259:3271   */\n      swap2\n      dup7\n      add\n      swap2\n        /* \"#utility.yul\":2962:2974   */\n      dup7\n      add\n        /* \"#utility.yul\":2929:3281   */\n      jump(tag_457)\n    tag_459:\n      pop\n        /* \"#utility.yul\":3300:3305   */\n      swap7\n      pop\n      pop\n      pop\n        /* \"#utility.yul\":3358:3360   */\n      0x40\n        /* \"#utility.yul\":3343:3361   */\n      dup8\n      add\n        /* \"#utility.yul\":3330:3362   */\n      calldataload\n      swap3\n      pop\n        /* \"#utility.yul\":3374:3390   */\n      dup1\n      dup4\n      gt\n        /* \"#utility.yul\":3371:3407   */\n      iszero\n      tag_462\n      jumpi\n        /* \"#utility.yul\":3403:3404   */\n      0x00\n        /* \"#utility.yul\":3400:3401   */\n      dup1\n        /* \"#utility.yul\":3393:3405   */\n      revert\n        /* \"#utility.yul\":3371:3407   */\n    tag_462:\n      pop\n      pop\n        /* \"#utility.yul\":3426:3489   */\n      tag_463\n        /* \"#utility.yul\":3481:3488   */\n      dup7\n        /* \"#utility.yul\":3470:3478   */\n      dup3\n        /* \"#utility.yul\":3459:3468   */\n      dup8\n        /* \"#utility.yul\":3455:3479   */\n      add\n        /* \"#utility.yul\":3426:3489   */\n      tag_409\n      jump\t// in\n    tag_463:\n        /* \"#utility.yul\":3416:3489   */\n      swap2\n      pop\n      pop\n        /* \"#utility.yul\":2072:3495   */\n      swap3\n      pop\n      swap3\n      pop\n      swap3\n      jump\t// out\n        /* \"#utility.yul\":3500:3680   */\n    tag_26:\n        /* \"#utility.yul\":3559:3565   */\n      0x00\n        /* \"#utility.yul\":3612:3614   */\n      0x20\n        /* \"#utility.yul\":3600:3609   */\n      dup3\n        /* \"#utility.yul\":3591:3598   */\n      dup5\n        /* \"#utility.yul\":3587:3610   */\n      sub\n        /* \"#utility.yul\":3583:3615   */\n      slt\n        /* \"#utility.yul\":3580:3632   */\n      iszero\n      tag_465\n      jumpi\n        /* \"#utility.yul\":3628:3629   */\n      0x00\n        /* \"#utility.yul\":3625:3626   */\n      dup1\n        /* \"#utility.yul\":3618:3630   */\n      revert\n        /* \"#utility.yul\":3580:3632   */\n    tag_465:\n      pop\n        /* \"#utility.yul\":3651:3674   */\n      calldataload\n      swap2\n        /* \"#utility.yul\":3500:3680   */\n      swap1\n      pop\n      jump\t// out\n        /* \"#utility.yul\":3792:4097   */\n    tag_411:\n        /* \"#utility.yul\":3870:3882   */\n      dup1\n      mload\n        /* \"#utility.yul\":3858:3883   */\n      dup3\n      mstore\n        /* \"#utility.yul\":3929:3933   */\n      0x20\n        /* \"#utility.yul\":3918:3934   */\n      dup1\n      dup3\n      add\n        /* \"#utility.yul\":3912:3935   */\n      mload\n      sub(shl(0x40, 0x01), 0x01)\n        /* \"#utility.yul\":4004:4025   */\n      swap1\n      dup2\n      and\n        /* \"#utility.yul\":3988:4002   */\n      swap2\n      dup5\n      add\n        /* \"#utility.yul\":3981:4026   */\n      swap2\n      swap1\n      swap2\n      mstore\n        /* \"#utility.yul\":3962:3964   */\n      0x40\n        /* \"#utility.yul\":4068:4084   */\n      swap2\n      dup3\n      add\n        /* \"#utility.yul\":4062:4085   */\n      mload\n        /* \"#utility.yul\":4058:4090   */\n      and\n        /* \"#utility.yul\":4042:4056   */\n      swap2\n      add\n        /* \"#utility.yul\":4035:4091   */\n      mstore\n        /* \"#utility.yul\":3792:4097   */\n      jump\t// out\n        /* \"#utility.yul\":4102:4361   */\n    tag_29:\n        /* \"#utility.yul\":4294:4296   */\n      0x60\n        /* \"#utility.yul\":4279:4297   */\n      dup2\n      add\n        /* \"#utility.yul\":4306:4355   */\n      tag_469\n        /* \"#utility.yul\":4283:4292   */\n      dup3\n        /* \"#utility.yul\":4337:4343   */\n      dup5\n        /* \"#utility.yul\":4306:4355   */\n      tag_411\n      jump\t// in\n    tag_469:\n        /* \"#utility.yul\":4102:4361   */\n      swap3\n      swap2\n      pop\n      pop\n      jump\t// out\n        /* \"#utility.yul\":4475:4725   */\n    tag_413:\n        /* \"#utility.yul\":4560:4561   */\n      0x00\n        /* \"#utility.yul\":4570:4683   */\n    tag_472:\n        /* \"#utility.yul\":4584:4590   */\n      dup4\n        /* \"#utility.yul\":4581:4582   */\n      dup2\n        /* \"#utility.yul\":4578:4591   */\n      lt\n        /* \"#utility.yul\":4570:4683   */\n      iszero\n      tag_474\n      jumpi\n        /* \"#utility.yul\":4660:4671   */\n      dup2\n      dup2\n      add\n        /* \"#utility.yul\":4654:4672   */\n      mload\n        /* \"#utility.yul\":4641:4652   */\n      dup4\n      dup3\n      add\n        /* \"#utility.yul\":4634:4673   */\n      mstore\n        /* \"#utility.yul\":4606:4608   */\n      0x20\n        /* \"#utility.yul\":4599:4609   */\n      add\n        /* \"#utility.yul\":4570:4683   */\n      jump(tag_472)\n    tag_474:\n      pop\n      pop\n        /* \"#utility.yul\":4717:4718   */\n      0x00\n        /* \"#utility.yul\":4699:4715   */\n      swap2\n      add\n        /* \"#utility.yul\":4692:4719   */\n      mstore\n        /* \"#utility.yul\":4475:4725   */\n      jump\t// out\n        /* \"#utility.yul\":4730:5001   */\n    tag_414:\n        /* \"#utility.yul\":4772:4775   */\n      0x00\n        /* \"#utility.yul\":4810:4815   */\n      dup2\n        /* \"#utility.yul\":4804:4816   */\n      mload\n        /* \"#utility.yul\":4837:4843   */\n      dup1\n        /* \"#utility.yul\":4832:4835   */\n      dup5\n        /* \"#utility.yul\":4825:4844   */\n      mstore\n        /* \"#utility.yul\":4853:4929   */\n      tag_476\n        /* \"#utility.yul\":4922:4928   */\n      dup2\n        /* \"#utility.yul\":4915:4919   */\n      0x20\n        /* \"#utility.yul\":4910:4913   */\n      dup7\n        /* \"#utility.yul\":4906:4920   */\n      add\n        /* \"#utility.yul\":4899:4903   */\n      0x20\n        /* \"#utility.yul\":4892:4897   */\n      dup7\n        /* \"#utility.yul\":4888:4904   */\n      add\n        /* \"#utility.yul\":4853:4929   */\n      tag_413\n      jump\t// in\n    tag_476:\n        /* \"#utility.yul\":4983:4985   */\n      0x1f\n        /* \"#utility.yul\":4962:4977   */\n      add\n      not(0x1f)\n        /* \"#utility.yul\":4958:4987   */\n      and\n        /* \"#utility.yul\":4949:4988   */\n      swap3\n      swap1\n      swap3\n      add\n        /* \"#utility.yul\":4990:4994   */\n      0x20\n        /* \"#utility.yul\":4945:4995   */\n      add\n      swap3\n        /* \"#utility.yul\":4730:5001   */\n      swap2\n      pop\n      pop\n      jump\t// out\n        /* \"#utility.yul\":5006:5133   */\n    tag_119:\n        /* \"#utility.yul\":5067:5077   */\n      0x4e487b71\n        /* \"#utility.yul\":5062:5065   */\n      0xe0\n        /* \"#utility.yul\":5058:5078   */\n      shl\n        /* \"#utility.yul\":5055:5056   */\n      0x00\n        /* \"#utility.yul\":5048:5079   */\n      mstore\n        /* \"#utility.yul\":5098:5102   */\n      0x21\n        /* \"#utility.yul\":5095:5096   */\n      0x04\n        /* \"#utility.yul\":5088:5103   */\n      mstore\n        /* \"#utility.yul\":5122:5126   */\n      0x24\n        /* \"#utility.yul\":5119:5120   */\n      0x00\n        /* \"#utility.yul\":5112:5127   */\n      revert\n        /* \"#utility.yul\":5138:5376   */\n    tag_415:\n        /* \"#utility.yul\":5220:5221   */\n      0x04\n        /* \"#utility.yul\":5213:5218   */\n      dup2\n        /* \"#utility.yul\":5210:5222   */\n      lt\n        /* \"#utility.yul\":5200:5343   */\n      tag_479\n      jumpi\n        /* \"#utility.yul\":5265:5275   */\n      0x4e487b71\n        /* \"#utility.yul\":5260:5263   */\n      0xe0\n        /* \"#utility.yul\":5256:5276   */\n      shl\n        /* \"#utility.yul\":5253:5254   */\n      0x00\n        /* \"#utility.yul\":5246:5277   */\n      mstore\n        /* \"#utility.yul\":5300:5304   */\n      0x21\n        /* \"#utility.yul\":5297:5298   */\n      0x04\n        /* \"#utility.yul\":5290:5305   */\n      mstore\n        /* \"#utility.yul\":5328:5332   */\n      0x24\n        /* \"#utility.yul\":5325:5326   */\n      0x00\n        /* \"#utility.yul\":5318:5333   */\n      revert\n        /* \"#utility.yul\":5200:5343   */\n    tag_479:\n        /* \"#utility.yul\":5352:5370   */\n      swap1\n      mstore\n        /* \"#utility.yul\":5138:5376   */\n      jump\t// out\n        /* \"#utility.yul\":5381:6712   */\n    tag_416:\n        /* \"#utility.yul\":5490:5502   */\n      dup1\n      mload\n      sub(shl(0xa0, 0x01), 0x01)\n        /* \"#utility.yul\":4432:4463   */\n      and\n        /* \"#utility.yul\":4420:4464   */\n      dup3\n      mstore\n        /* \"#utility.yul\":5428:5431   */\n      0x00\n        /* \"#utility.yul\":5456:5462   */\n      0x0140\n        /* \"#utility.yul\":5557:5561   */\n      0x20\n        /* \"#utility.yul\":5550:5555   */\n      dup4\n        /* \"#utility.yul\":5546:5562   */\n      add\n        /* \"#utility.yul\":5540:5563   */\n      mload\n        /* \"#utility.yul\":5533:5537   */\n      0x20\n        /* \"#utility.yul\":5528:5531   */\n      dup6\n        /* \"#utility.yul\":5524:5538   */\n      add\n        /* \"#utility.yul\":5517:5564   */\n      mstore\n        /* \"#utility.yul\":5610:5614   */\n      0x40\n        /* \"#utility.yul\":5603:5608   */\n      dup4\n        /* \"#utility.yul\":5599:5615   */\n      add\n        /* \"#utility.yul\":5593:5616   */\n      mload\n        /* \"#utility.yul\":5625:5672   */\n      tag_482\n        /* \"#utility.yul\":5666:5670   */\n      0x40\n        /* \"#utility.yul\":5661:5664   */\n      dup7\n        /* \"#utility.yul\":5657:5671   */\n      add\n        /* \"#utility.yul\":5643:5655   */\n      dup3\n      sub(shl(0x40, 0x01), 0x01)\n        /* \"#utility.yul\":3750:3780   */\n      and\n        /* \"#utility.yul\":3738:3781   */\n      swap1\n      mstore\n        /* \"#utility.yul\":3685:3787   */\n      jump\n        /* \"#utility.yul\":5625:5672   */\n    tag_482:\n      pop\n        /* \"#utility.yul\":5720:5724   */\n      0x60\n        /* \"#utility.yul\":5713:5718   */\n      dup4\n        /* \"#utility.yul\":5709:5725   */\n      add\n        /* \"#utility.yul\":5703:5726   */\n      mload\n        /* \"#utility.yul\":5735:5784   */\n      tag_483\n        /* \"#utility.yul\":5778:5782   */\n      0x60\n        /* \"#utility.yul\":5773:5776   */\n      dup7\n        /* \"#utility.yul\":5769:5783   */\n      add\n        /* \"#utility.yul\":5753:5767   */\n      dup3\n      sub(shl(0x40, 0x01), 0x01)\n        /* \"#utility.yul\":3750:3780   */\n      and\n        /* \"#utility.yul\":3738:3781   */\n      swap1\n      mstore\n        /* \"#utility.yul\":3685:3787   */\n      jump\n        /* \"#utility.yul\":5735:5784   */\n    tag_483:\n      pop\n        /* \"#utility.yul\":5832:5836   */\n      0x80\n        /* \"#utility.yul\":5825:5830   */\n      dup4\n        /* \"#utility.yul\":5821:5837   */\n      add\n        /* \"#utility.yul\":5815:5838   */\n      mload\n        /* \"#utility.yul\":5847:5896   */\n      tag_484\n        /* \"#utility.yul\":5890:5894   */\n      0x80\n        /* \"#utility.yul\":5885:5888   */\n      dup7\n        /* \"#utility.yul\":5881:5895   */\n      add\n        /* \"#utility.yul\":5865:5879   */\n      dup3\n      sub(shl(0x40, 0x01), 0x01)\n        /* \"#utility.yul\":3750:3780   */\n      and\n        /* \"#utility.yul\":3738:3781   */\n      swap1\n      mstore\n        /* \"#utility.yul\":3685:3787   */\n      jump\n        /* \"#utility.yul\":5847:5896   */\n    tag_484:\n      pop\n        /* \"#utility.yul\":5944:5948   */\n      0xa0\n        /* \"#utility.yul\":5937:5942   */\n      dup4\n        /* \"#utility.yul\":5933:5949   */\n      add\n        /* \"#utility.yul\":5927:5950   */\n      mload\n        /* \"#utility.yul\":5982:5984   */\n      dup2\n        /* \"#utility.yul\":5975:5979   */\n      0xa0\n        /* \"#utility.yul\":5970:5973   */\n      dup7\n        /* \"#utility.yul\":5966:5980   */\n      add\n        /* \"#utility.yul\":5959:5985   */\n      mstore\n        /* \"#utility.yul\":6006:6053   */\n      tag_485\n        /* \"#utility.yul\":6049:6051   */\n      dup3\n        /* \"#utility.yul\":6044:6047   */\n      dup7\n        /* \"#utility.yul\":6040:6052   */\n      add\n        /* \"#utility.yul\":6024:6038   */\n      dup3\n        /* \"#utility.yul\":6006:6053   */\n      tag_414\n      jump\t// in\n    tag_485:\n        /* \"#utility.yul\":5994:6053   */\n      swap2\n      pop\n      pop\n        /* \"#utility.yul\":6101:6105   */\n      0xc0\n        /* \"#utility.yul\":6094:6099   */\n      dup4\n        /* \"#utility.yul\":6090:6106   */\n      add\n        /* \"#utility.yul\":6084:6107   */\n      mload\n        /* \"#utility.yul\":6149:6152   */\n      dup5\n        /* \"#utility.yul\":6143:6147   */\n      dup3\n        /* \"#utility.yul\":6139:6153   */\n      sub\n        /* \"#utility.yul\":6132:6136   */\n      0xc0\n        /* \"#utility.yul\":6127:6130   */\n      dup7\n        /* \"#utility.yul\":6123:6137   */\n      add\n        /* \"#utility.yul\":6116:6154   */\n      mstore\n        /* \"#utility.yul\":6177:6216   */\n      tag_486\n        /* \"#utility.yul\":6211:6215   */\n      dup3\n        /* \"#utility.yul\":6195:6209   */\n      dup3\n        /* \"#utility.yul\":6177:6216   */\n      tag_414\n      jump\t// in\n    tag_486:\n        /* \"#utility.yul\":6163:6216   */\n      swap2\n      pop\n      pop\n        /* \"#utility.yul\":6264:6268   */\n      0xe0\n        /* \"#utility.yul\":6257:6262   */\n      dup4\n        /* \"#utility.yul\":6253:6269   */\n      add\n        /* \"#utility.yul\":6247:6270   */\n      mload\n        /* \"#utility.yul\":6279:6337   */\n      tag_487\n        /* \"#utility.yul\":6331:6335   */\n      0xe0\n        /* \"#utility.yul\":6326:6329   */\n      dup7\n        /* \"#utility.yul\":6322:6336   */\n      add\n        /* \"#utility.yul\":6306:6320   */\n      dup3\n        /* \"#utility.yul\":6279:6337   */\n      tag_415\n      jump\t// in\n    tag_487:\n      pop\n        /* \"#utility.yul\":6356:6362   */\n      0x0100\n        /* \"#utility.yul\":6410:6412   */\n      dup1\n        /* \"#utility.yul\":6403:6408   */\n      dup5\n        /* \"#utility.yul\":6399:6413   */\n      add\n        /* \"#utility.yul\":6393:6414   */\n      mload\n        /* \"#utility.yul\":6456:6459   */\n      dup6\n        /* \"#utility.yul\":6448:6454   */\n      dup4\n        /* \"#utility.yul\":6444:6460   */\n      sub\n        /* \"#utility.yul\":6439:6441   */\n      dup3\n        /* \"#utility.yul\":6434:6437   */\n      dup8\n        /* \"#utility.yul\":6430:6442   */\n      add\n        /* \"#utility.yul\":6423:6461   */\n      mstore\n        /* \"#utility.yul\":6484:6525   */\n      tag_488\n        /* \"#utility.yul\":6518:6524   */\n      dup4\n        /* \"#utility.yul\":6502:6516   */\n      dup3\n        /* \"#utility.yul\":6484:6525   */\n      tag_414\n      jump\t// in\n    tag_488:\n        /* \"#utility.yul\":6470:6525   */\n      swap3\n      pop\n      pop\n      pop\n        /* \"#utility.yul\":6544:6550   */\n      0x0120\n        /* \"#utility.yul\":6598:6600   */\n      dup1\n        /* \"#utility.yul\":6591:6596   */\n      dup5\n        /* \"#utility.yul\":6587:6601   */\n      add\n        /* \"#utility.yul\":6581:6602   */\n      mload\n        /* \"#utility.yul\":6644:6647   */\n      dup6\n        /* \"#utility.yul\":6636:6642   */\n      dup4\n        /* \"#utility.yul\":6632:6648   */\n      sub\n        /* \"#utility.yul\":6627:6629   */\n      dup3\n        /* \"#utility.yul\":6622:6625   */\n      dup8\n        /* \"#utility.yul\":6618:6630   */\n      add\n        /* \"#utility.yul\":6611:6649   */\n      mstore\n        /* \"#utility.yul\":6665:6706   */\n      tag_489\n        /* \"#utility.yul\":6699:6705   */\n      dup4\n        /* \"#utility.yul\":6683:6697   */\n      dup3\n        /* \"#utility.yul\":6665:6706   */\n      tag_414\n      jump\t// in\n    tag_489:\n        /* \"#utility.yul\":6658:6706   */\n      swap7\n        /* \"#utility.yul\":5381:6712   */\n      swap6\n      pop\n      pop\n      pop\n      pop\n      pop\n      pop\n      jump\t// out\n        /* \"#utility.yul\":6717:6964   */\n    tag_34:\n        /* \"#utility.yul\":6888:6890   */\n      0x20\n        /* \"#utility.yul\":6877:6886   */\n      dup2\n        /* \"#utility.yul\":6870:6891   */\n      mstore\n        /* \"#utility.yul\":6851:6855   */\n      0x00\n        /* \"#utility.yul\":6908:6958   */\n      tag_355\n        /* \"#utility.yul\":6954:6956   */\n      0x20\n        /* \"#utility.yul\":6943:6952   */\n      dup4\n        /* \"#utility.yul\":6939:6957   */\n      add\n        /* \"#utility.yul\":6931:6937   */\n      dup5\n        /* \"#utility.yul\":6908:6958   */\n      tag_416\n      jump\t// in\n        /* \"#utility.yul\":6969:7425   */\n    tag_37:\n        /* \"#utility.yul\":7055:7061   */\n      0x00\n        /* \"#utility.yul\":7063:7069   */\n      dup1\n        /* \"#utility.yul\":7071:7077   */\n      0x00\n        /* \"#utility.yul\":7124:7126   */\n      0x60\n        /* \"#utility.yul\":7112:7121   */\n      dup5\n        /* \"#utility.yul\":7103:7110   */\n      dup7\n        /* \"#utility.yul\":7099:7122   */\n      sub\n        /* \"#utility.yul\":7095:7127   */\n      slt\n        /* \"#utility.yul\":7092:7144   */\n      iszero\n      tag_493\n      jumpi\n        /* \"#utility.yul\":7140:7141   */\n      0x00\n        /* \"#utility.yul\":7137:7138   */\n      dup1\n        /* \"#utility.yul\":7130:7142   */\n      revert\n        /* \"#utility.yul\":7092:7144   */\n    tag_493:\n        /* \"#utility.yul\":7163:7186   */\n      dup4\n      calldataload\n      swap3\n      pop\n        /* \"#utility.yul\":7237:7239   */\n      0x20\n        /* \"#utility.yul\":7222:7240   */\n      dup5\n      add\n        /* \"#utility.yul\":7209:7241   */\n      calldataload\n      sub(shl(0x40, 0x01), 0x01)\n        /* \"#utility.yul\":7253:7283   */\n      dup2\n      gt\n        /* \"#utility.yul\":7250:7300   */\n      iszero\n      tag_494\n      jumpi\n        /* \"#utility.yul\":7296:7297   */\n      0x00\n        /* \"#utility.yul\":7293:7294   */\n      dup1\n        /* \"#utility.yul\":7286:7298   */\n      revert\n        /* \"#utility.yul\":7250:7300   */\n    tag_494:\n        /* \"#utility.yul\":7319:7368   */\n      tag_495\n        /* \"#utility.yul\":7360:7367   */\n      dup7\n        /* \"#utility.yul\":7351:7357   */\n      dup3\n        /* \"#utility.yul\":7340:7349   */\n      dup8\n        /* \"#utility.yul\":7336:7358   */\n      add\n        /* \"#utility.yul\":7319:7368   */\n      tag_408\n      jump\t// in\n    tag_495:\n        /* \"#utility.yul\":7309:7368   */\n      swap3\n      pop\n      pop\n        /* \"#utility.yul\":7415:7417   */\n      0x40\n        /* \"#utility.yul\":7404:7413   */\n      dup5\n        /* \"#utility.yul\":7400:7418   */\n      add\n        /* \"#utility.yul\":7387:7419   */\n      calldataload\n        /* \"#utility.yul\":7377:7419   */\n      swap1\n      pop\n        /* \"#utility.yul\":6969:7425   */\n      swap3\n      pop\n      swap3\n      pop\n      swap3\n      jump\t// out\n        /* \"#utility.yul\":7430:7603   */\n    tag_417:\n        /* \"#utility.yul\":7498:7518   */\n      dup1\n      calldataload\n      sub(shl(0xa0, 0x01), 0x01)\n        /* \"#utility.yul\":7547:7578   */\n      dup2\n      and\n        /* \"#utility.yul\":7537:7579   */\n      dup2\n      eq\n        /* \"#utility.yul\":7527:7597   */\n      tag_497\n      jumpi\n        /* \"#utility.yul\":7593:7594   */\n      0x00\n        /* \"#utility.yul\":7590:7591   */\n      dup1\n        /* \"#utility.yul\":7583:7595   */\n      revert\n        /* \"#utility.yul\":7527:7597   */\n    tag_497:\n        /* \"#utility.yul\":7430:7603   */\n      swap2\n      swap1\n      pop\n      jump\t// out\n        /* \"#utility.yul\":7608:7779   */\n    tag_418:\n        /* \"#utility.yul\":7675:7695   */\n      dup1\n      calldataload\n      sub(shl(0x40, 0x01), 0x01)\n        /* \"#utility.yul\":7724:7754   */\n      dup2\n      and\n        /* \"#utility.yul\":7714:7755   */\n      dup2\n      eq\n        /* \"#utility.yul\":7704:7773   */\n      tag_497\n      jumpi\n        /* \"#utility.yul\":7769:7770   */\n      0x00\n        /* \"#utility.yul\":7766:7767   */\n      dup1\n        /* \"#utility.yul\":7759:7771   */\n      revert\n        /* \"#utility.yul\":7784:7935   */\n    tag_419:\n        /* \"#utility.yul\":7860:7880   */\n      dup1\n      calldataload\n        /* \"#utility.yul\":7909:7910   */\n      0x04\n        /* \"#utility.yul\":7899:7911   */\n      dup2\n      lt\n        /* \"#utility.yul\":7889:7929   */\n      tag_497\n      jumpi\n        /* \"#utility.yul\":7925:7926   */\n      0x00\n        /* \"#utility.yul\":7922:7923   */\n      dup1\n        /* \"#utility.yul\":7915:7927   */\n      revert\n        /* \"#utility.yul\":7940:9327   */\n    tag_420:\n        /* \"#utility.yul\":7991:7996   */\n      0x00\n        /* \"#utility.yul\":8039:8045   */\n      0x0140\n        /* \"#utility.yul\":8027:8036   */\n      dup3\n        /* \"#utility.yul\":8022:8025   */\n      dup5\n        /* \"#utility.yul\":8018:8037   */\n      sub\n        /* \"#utility.yul\":8014:8046   */\n      slt\n        /* \"#utility.yul\":8011:8063   */\n      iszero\n      tag_503\n      jumpi\n        /* \"#utility.yul\":8059:8060   */\n      0x00\n        /* \"#utility.yul\":8056:8057   */\n      dup1\n        /* \"#utility.yul\":8049:8061   */\n      revert\n        /* \"#utility.yul\":8011:8063   */\n    tag_503:\n        /* \"#utility.yul\":8081:8103   */\n      tag_504\n      tag_405\n      jump\t// in\n    tag_504:\n        /* \"#utility.yul\":8072:8103   */\n      swap1\n      pop\n        /* \"#utility.yul\":8126:8155   */\n      tag_505\n        /* \"#utility.yul\":8145:8154   */\n      dup3\n        /* \"#utility.yul\":8126:8155   */\n      tag_417\n      jump\t// in\n    tag_505:\n        /* \"#utility.yul\":8119:8124   */\n      dup2\n        /* \"#utility.yul\":8112:8156   */\n      mstore\n        /* \"#utility.yul\":8216:8218   */\n      0x20\n        /* \"#utility.yul\":8205:8214   */\n      dup3\n        /* \"#utility.yul\":8201:8219   */\n      add\n        /* \"#utility.yul\":8188:8220   */\n      calldataload\n        /* \"#utility.yul\":8183:8185   */\n      0x20\n        /* \"#utility.yul\":8176:8181   */\n      dup3\n        /* \"#utility.yul\":8172:8186   */\n      add\n        /* \"#utility.yul\":8165:8221   */\n      mstore\n        /* \"#utility.yul\":8253:8290   */\n      tag_506\n        /* \"#utility.yul\":8286:8288   */\n      0x40\n        /* \"#utility.yul\":8275:8284   */\n      dup4\n        /* \"#utility.yul\":8271:8289   */\n      add\n        /* \"#utility.yul\":8253:8290   */\n      tag_418\n      jump\t// in\n    tag_506:\n        /* \"#utility.yul\":8248:8250   */\n      0x40\n        /* \"#utility.yul\":8241:8246   */\n      dup3\n        /* \"#utility.yul\":8237:8251   */\n      add\n        /* \"#utility.yul\":8230:8291   */\n      mstore\n        /* \"#utility.yul\":8323:8360   */\n      tag_507\n        /* \"#utility.yul\":8356:8358   */\n      0x60\n        /* \"#utility.yul\":8345:8354   */\n      dup4\n        /* \"#utility.yul\":8341:8359   */\n      add\n        /* \"#utility.yul\":8323:8360   */\n      tag_418\n      jump\t// in\n    tag_507:\n        /* \"#utility.yul\":8318:8320   */\n      0x60\n        /* \"#utility.yul\":8311:8316   */\n      dup3\n        /* \"#utility.yul\":8307:8321   */\n      add\n        /* \"#utility.yul\":8300:8361   */\n      mstore\n        /* \"#utility.yul\":8394:8432   */\n      tag_508\n        /* \"#utility.yul\":8427:8430   */\n      0x80\n        /* \"#utility.yul\":8416:8425   */\n      dup4\n        /* \"#utility.yul\":8412:8431   */\n      add\n        /* \"#utility.yul\":8394:8432   */\n      tag_418\n      jump\t// in\n    tag_508:\n        /* \"#utility.yul\":8388:8391   */\n      0x80\n        /* \"#utility.yul\":8377:8392   */\n      dup3\n      add\n        /* \"#utility.yul\":8370:8433   */\n      mstore\n        /* \"#utility.yul\":8484:8487   */\n      0xa0\n        /* \"#utility.yul\":8469:8488   */\n      dup3\n      add\n        /* \"#utility.yul\":8456:8489   */\n      calldataload\n      sub(shl(0x40, 0x01), 0x01)\n        /* \"#utility.yul\":8538:8552   */\n      dup1\n      dup3\n      gt\n        /* \"#utility.yul\":8535:8569   */\n      iszero\n      tag_509\n      jumpi\n        /* \"#utility.yul\":8565:8566   */\n      0x00\n        /* \"#utility.yul\":8562:8563   */\n      dup1\n        /* \"#utility.yul\":8555:8567   */\n      revert\n        /* \"#utility.yul\":8535:8569   */\n    tag_509:\n        /* \"#utility.yul\":8602:8647   */\n      tag_510\n        /* \"#utility.yul\":8643:8646   */\n      dup6\n        /* \"#utility.yul\":8634:8640   */\n      dup4\n        /* \"#utility.yul\":8623:8632   */\n      dup7\n        /* \"#utility.yul\":8619:8641   */\n      add\n        /* \"#utility.yul\":8602:8647   */\n      tag_408\n      jump\t// in\n    tag_510:\n        /* \"#utility.yul\":8596:8599   */\n      0xa0\n        /* \"#utility.yul\":8589:8594   */\n      dup5\n        /* \"#utility.yul\":8585:8600   */\n      add\n        /* \"#utility.yul\":8578:8648   */\n      mstore\n        /* \"#utility.yul\":8701:8704   */\n      0xc0\n        /* \"#utility.yul\":8690:8699   */\n      dup5\n        /* \"#utility.yul\":8686:8705   */\n      add\n        /* \"#utility.yul\":8673:8706   */\n      calldataload\n        /* \"#utility.yul\":8657:8706   */\n      swap2\n      pop\n        /* \"#utility.yul\":8731:8733   */\n      dup1\n        /* \"#utility.yul\":8721:8729   */\n      dup3\n        /* \"#utility.yul\":8718:8734   */\n      gt\n        /* \"#utility.yul\":8715:8751   */\n      iszero\n      tag_511\n      jumpi\n        /* \"#utility.yul\":8747:8748   */\n      0x00\n        /* \"#utility.yul\":8744:8745   */\n      dup1\n        /* \"#utility.yul\":8737:8749   */\n      revert\n        /* \"#utility.yul\":8715:8751   */\n    tag_511:\n        /* \"#utility.yul\":8784:8831   */\n      tag_512\n        /* \"#utility.yul\":8827:8830   */\n      dup6\n        /* \"#utility.yul\":8816:8824   */\n      dup4\n        /* \"#utility.yul\":8805:8814   */\n      dup7\n        /* \"#utility.yul\":8801:8825   */\n      add\n        /* \"#utility.yul\":8784:8831   */\n      tag_408\n      jump\t// in\n    tag_512:\n        /* \"#utility.yul\":8778:8781   */\n      0xc0\n        /* \"#utility.yul\":8771:8776   */\n      dup5\n        /* \"#utility.yul\":8767:8782   */\n      add\n        /* \"#utility.yul\":8760:8832   */\n      mstore\n        /* \"#utility.yul\":8865:8912   */\n      tag_513\n        /* \"#utility.yul\":8907:8910   */\n      0xe0\n        /* \"#utility.yul\":8896:8905   */\n      dup6\n        /* \"#utility.yul\":8892:8911   */\n      add\n        /* \"#utility.yul\":8865:8912   */\n      tag_419\n      jump\t// in\n    tag_513:\n        /* \"#utility.yul\":8859:8862   */\n      0xe0\n        /* \"#utility.yul\":8852:8857   */\n      dup5\n        /* \"#utility.yul\":8848:8863   */\n      add\n        /* \"#utility.yul\":8841:8913   */\n      mstore\n        /* \"#utility.yul\":8932:8935   */\n      0x0100\n        /* \"#utility.yul\":8922:8935   */\n      swap2\n      pop\n        /* \"#utility.yul\":8988:8990   */\n      dup2\n        /* \"#utility.yul\":8977:8986   */\n      dup5\n        /* \"#utility.yul\":8973:8991   */\n      add\n        /* \"#utility.yul\":8960:8992   */\n      calldataload\n        /* \"#utility.yul\":9017:9019   */\n      dup2\n        /* \"#utility.yul\":9007:9015   */\n      dup2\n        /* \"#utility.yul\":9004:9020   */\n      gt\n        /* \"#utility.yul\":9001:9037   */\n      iszero\n      tag_514\n      jumpi\n        /* \"#utility.yul\":9033:9034   */\n      0x00\n        /* \"#utility.yul\":9030:9031   */\n      dup1\n        /* \"#utility.yul\":9023:9035   */\n      revert\n        /* \"#utility.yul\":9001:9037   */\n    tag_514:\n        /* \"#utility.yul\":9069:9116   */\n      tag_515\n        /* \"#utility.yul\":9112:9115   */\n      dup7\n        /* \"#utility.yul\":9101:9109   */\n      dup3\n        /* \"#utility.yul\":9090:9099   */\n      dup8\n        /* \"#utility.yul\":9086:9110   */\n      add\n        /* \"#utility.yul\":9069:9116   */\n      tag_408\n      jump\t// in\n    tag_515:\n        /* \"#utility.yul\":9064:9066   */\n      dup4\n        /* \"#utility.yul\":9057:9062   */\n      dup6\n        /* \"#utility.yul\":9053:9067   */\n      add\n        /* \"#utility.yul\":9046:9117   */\n      mstore\n      pop\n        /* \"#utility.yul\":9136:9139   */\n      0x0120\n        /* \"#utility.yul\":9126:9139   */\n      swap2\n      pop\n        /* \"#utility.yul\":9192:9194   */\n      dup2\n        /* \"#utility.yul\":9181:9190   */\n      dup5\n        /* \"#utility.yul\":9177:9195   */\n      add\n        /* \"#utility.yul\":9164:9196   */\n      calldataload\n        /* \"#utility.yul\":9221:9223   */\n      dup2\n        /* \"#utility.yul\":9211:9219   */\n      dup2\n        /* \"#utility.yul\":9208:9224   */\n      gt\n        /* \"#utility.yul\":9205:9241   */\n      iszero\n      tag_516\n      jumpi\n        /* \"#utility.yul\":9237:9238   */\n      0x00\n        /* \"#utility.yul\":9234:9235   */\n      dup1\n        /* \"#utility.yul\":9227:9239   */\n      revert\n        /* \"#utility.yul\":9205:9241   */\n    tag_516:\n        /* \"#utility.yul\":9273:9320   */\n      tag_517\n        /* \"#utility.yul\":9316:9319   */\n      dup7\n        /* \"#utility.yul\":9305:9313   */\n      dup3\n        /* \"#utility.yul\":9294:9303   */\n      dup8\n        /* \"#utility.yul\":9290:9314   */\n      add\n        /* \"#utility.yul\":9273:9320   */\n      tag_408\n      jump\t// in\n    tag_517:\n        /* \"#utility.yul\":9268:9270   */\n      dup4\n        /* \"#utility.yul\":9261:9266   */\n      dup6\n        /* \"#utility.yul\":9257:9271   */\n      add\n        /* \"#utility.yul\":9250:9321   */\n      mstore\n      pop\n      pop\n      pop\n        /* \"#utility.yul\":7940:9327   */\n      swap3\n      swap2\n      pop\n      pop\n      jump\t// out\n        /* \"#utility.yul\":9332:10479   */\n    tag_44:\n        /* \"#utility.yul\":9437:9443   */\n      0x00\n        /* \"#utility.yul\":9468:9470   */\n      0x20\n        /* \"#utility.yul\":9511:9513   */\n      dup1\n        /* \"#utility.yul\":9499:9508   */\n      dup4\n        /* \"#utility.yul\":9490:9497   */\n      dup6\n        /* \"#utility.yul\":9486:9509   */\n      sub\n        /* \"#utility.yul\":9482:9514   */\n      slt\n        /* \"#utility.yul\":9479:9531   */\n      iszero\n      tag_519\n      jumpi\n        /* \"#utility.yul\":9527:9528   */\n      0x00\n        /* \"#utility.yul\":9524:9525   */\n      dup1\n        /* \"#utility.yul\":9517:9529   */\n      revert\n        /* \"#utility.yul\":9479:9531   */\n    tag_519:\n        /* \"#utility.yul\":9554:9577   */\n      dup3\n      calldataload\n      sub(shl(0x40, 0x01), 0x01)\n        /* \"#utility.yul\":9626:9640   */\n      dup1\n      dup3\n      gt\n        /* \"#utility.yul\":9623:9657   */\n      iszero\n      tag_520\n      jumpi\n        /* \"#utility.yul\":9653:9654   */\n      0x00\n        /* \"#utility.yul\":9650:9651   */\n      dup1\n        /* \"#utility.yul\":9643:9655   */\n      revert\n        /* \"#utility.yul\":9623:9657   */\n    tag_520:\n        /* \"#utility.yul\":9691:9697   */\n      dup2\n        /* \"#utility.yul\":9680:9689   */\n      dup6\n        /* \"#utility.yul\":9676:9698   */\n      add\n        /* \"#utility.yul\":9666:9698   */\n      swap2\n      pop\n        /* \"#utility.yul\":9736:9743   */\n      dup6\n        /* \"#utility.yul\":9729:9733   */\n      0x1f\n        /* \"#utility.yul\":9725:9727   */\n      dup4\n        /* \"#utility.yul\":9721:9734   */\n      add\n        /* \"#utility.yul\":9717:9744   */\n      slt\n        /* \"#utility.yul\":9707:9762   */\n      tag_521\n      jumpi\n        /* \"#utility.yul\":9758:9759   */\n      0x00\n        /* \"#utility.yul\":9755:9756   */\n      dup1\n        /* \"#utility.yul\":9748:9760   */\n      revert\n        /* \"#utility.yul\":9707:9762   */\n    tag_521:\n        /* \"#utility.yul\":9794:9796   */\n      dup2\n        /* \"#utility.yul\":9781:9797   */\n      calldataload\n        /* \"#utility.yul\":9817:9875   */\n      tag_522\n        /* \"#utility.yul\":9833:9874   */\n      tag_445\n        /* \"#utility.yul\":9871:9873   */\n      dup3\n        /* \"#utility.yul\":9833:9874   */\n      tag_407\n      jump\t// in\n        /* \"#utility.yul\":9817:9875   */\n    tag_522:\n        /* \"#utility.yul\":9909:9924   */\n      dup2\n      dup2\n      mstore\n        /* \"#utility.yul\":9991:9992   */\n      0x05\n        /* \"#utility.yul\":9987:9997   */\n      swap2\n      swap1\n      swap2\n      shl\n        /* \"#utility.yul\":9979:9998   */\n      dup4\n      add\n        /* \"#utility.yul\":9975:10003   */\n      dup5\n      add\n      swap1\n        /* \"#utility.yul\":9940:9952   */\n      dup5\n      dup2\n      add\n      swap1\n        /* \"#utility.yul\":10015:10034   */\n      dup9\n      dup4\n      gt\n        /* \"#utility.yul\":10012:10051   */\n      iszero\n      tag_524\n      jumpi\n        /* \"#utility.yul\":10047:10048   */\n      0x00\n        /* \"#utility.yul\":10044:10045   */\n      dup1\n        /* \"#utility.yul\":10037:10049   */\n      revert\n        /* \"#utility.yul\":10012:10051   */\n    tag_524:\n        /* \"#utility.yul\":10079:10081   */\n      dup6\n        /* \"#utility.yul\":10075:10077   */\n      dup6\n        /* \"#utility.yul\":10071:10082   */\n      add\n        /* \"#utility.yul\":10091:10449   */\n    tag_525:\n        /* \"#utility.yul\":10107:10113   */\n      dup4\n        /* \"#utility.yul\":10102:10105   */\n      dup2\n        /* \"#utility.yul\":10099:10114   */\n      lt\n        /* \"#utility.yul\":10091:10449   */\n      iszero\n      tag_527\n      jumpi\n        /* \"#utility.yul\":10193:10196   */\n      dup1\n        /* \"#utility.yul\":10180:10197   */\n      calldataload\n        /* \"#utility.yul\":10229:10231   */\n      dup6\n        /* \"#utility.yul\":10216:10227   */\n      dup2\n        /* \"#utility.yul\":10213:10232   */\n      gt\n        /* \"#utility.yul\":10210:10319   */\n      iszero\n      tag_528\n      jumpi\n        /* \"#utility.yul\":10273:10274   */\n      0x00\n        /* \"#utility.yul\":10302:10304   */\n      dup1\n        /* \"#utility.yul\":10298:10300   */\n      dup2\n        /* \"#utility.yul\":10291:10305   */\n      revert\n        /* \"#utility.yul\":10210:10319   */\n    tag_528:\n        /* \"#utility.yul\":10344:10406   */\n      tag_529\n        /* \"#utility.yul\":10398:10405   */\n      dup12\n        /* \"#utility.yul\":10393:10395   */\n      dup10\n        /* \"#utility.yul\":10379:10390   */\n      dup4\n        /* \"#utility.yul\":10375:10377   */\n      dup11\n        /* \"#utility.yul\":10371:10391   */\n      add\n        /* \"#utility.yul\":10367:10396   */\n      add\n        /* \"#utility.yul\":10344:10406   */\n      tag_420\n      jump\t// in\n    tag_529:\n        /* \"#utility.yul\":10332:10407   */\n      dup5\n      mstore\n      pop\n        /* \"#utility.yul\":10427:10439   */\n      swap2\n      dup7\n      add\n      swap2\n        /* \"#utility.yul\":10124:10136   */\n      dup7\n      add\n        /* \"#utility.yul\":10091:10449   */\n      jump(tag_525)\n    tag_527:\n      pop\n        /* \"#utility.yul\":10468:10473   */\n      swap9\n        /* \"#utility.yul\":9332:10479   */\n      swap8\n      pop\n      pop\n      pop\n      pop\n      pop\n      pop\n      pop\n      pop\n      jump\t// out\n        /* \"#utility.yul\":10484:11116   */\n    tag_47:\n        /* \"#utility.yul\":10655:10657   */\n      0x20\n        /* \"#utility.yul\":10707:10728   */\n      dup1\n      dup3\n      mstore\n        /* \"#utility.yul\":10777:10790   */\n      dup3\n      mload\n        /* \"#utility.yul\":10680:10698   */\n      dup3\n      dup3\n      add\n        /* \"#utility.yul\":10799:10821   */\n      dup2\n      swap1\n      mstore\n        /* \"#utility.yul\":10626:10630   */\n      0x00\n      swap2\n        /* \"#utility.yul\":10655:10657   */\n      swap1\n        /* \"#utility.yul\":10878:10893   */\n      dup5\n      dup3\n      add\n      swap1\n        /* \"#utility.yul\":10852:10854   */\n      0x40\n        /* \"#utility.yul\":10837:10855   */\n      dup6\n      add\n      swap1\n        /* \"#utility.yul\":10626:10630   */\n      dup5\n        /* \"#utility.yul\":10921:11090   */\n    tag_531:\n        /* \"#utility.yul\":10935:10941   */\n      dup2\n        /* \"#utility.yul\":10932:10933   */\n      dup2\n        /* \"#utility.yul\":10929:10942   */\n      lt\n        /* \"#utility.yul\":10921:11090   */\n      iszero\n      tag_533\n      jumpi\n        /* \"#utility.yul\":10996:11009   */\n      dup4\n      mload\n        /* \"#utility.yul\":10984:11010   */\n      dup4\n      mstore\n        /* \"#utility.yul\":11065:11080   */\n      swap3\n      dup5\n      add\n      swap3\n        /* \"#utility.yul\":11030:11042   */\n      swap2\n      dup5\n      add\n      swap2\n        /* \"#utility.yul\":10957:10958   */\n      0x01\n        /* \"#utility.yul\":10950:10959   */\n      add\n        /* \"#utility.yul\":10921:11090   */\n      jump(tag_531)\n    tag_533:\n      pop\n        /* \"#utility.yul\":11107:11110   */\n      swap1\n      swap7\n        /* \"#utility.yul\":10484:11116   */\n      swap6\n      pop\n      pop\n      pop\n      pop\n      pop\n      pop\n      jump\t// out\n        /* \"#utility.yul\":11329:11581   */\n    tag_54:\n        /* \"#utility.yul\":11396:11402   */\n      0x00\n        /* \"#utility.yul\":11404:11410   */\n      dup1\n        /* \"#utility.yul\":11457:11459   */\n      0x40\n        /* \"#utility.yul\":11445:11454   */\n      dup4\n        /* \"#utility.yul\":11436:11443   */\n      dup6\n        /* \"#utility.yul\":11432:11455   */\n      sub\n        /* \"#utility.yul\":11428:11460   */\n      slt\n        /* \"#utility.yul\":11425:11477   */\n      iszero\n      tag_536\n      jumpi\n        /* \"#utility.yul\":11473:11474   */\n      0x00\n        /* \"#utility.yul\":11470:11471   */\n      dup1\n        /* \"#utility.yul\":11463:11475   */\n      revert\n        /* \"#utility.yul\":11425:11477   */\n    tag_536:\n        /* \"#utility.yul\":11509:11518   */\n      dup3\n        /* \"#utility.yul\":11496:11519   */\n      calldataload\n        /* \"#utility.yul\":11486:11519   */\n      swap2\n      pop\n        /* \"#utility.yul\":11538:11575   */\n      tag_537\n        /* \"#utility.yul\":11571:11573   */\n      0x20\n        /* \"#utility.yul\":11560:11569   */\n      dup5\n        /* \"#utility.yul\":11556:11574   */\n      add\n        /* \"#utility.yul\":11538:11575   */\n      tag_418\n      jump\t// in\n    tag_537:\n        /* \"#utility.yul\":11528:11575   */\n      swap1\n      pop\n        /* \"#utility.yul\":11329:11581   */\n      swap3\n      pop\n      swap3\n      swap1\n      pop\n      jump\t// out\n        /* \"#utility.yul\":11586:11772   */\n    tag_61:\n        /* \"#utility.yul\":11645:11651   */\n      0x00\n        /* \"#utility.yul\":11698:11700   */\n      0x20\n        /* \"#utility.yul\":11686:11695   */\n      dup3\n        /* \"#utility.yul\":11677:11684   */\n      dup5\n        /* \"#utility.yul\":11673:11696   */\n      sub\n        /* \"#utility.yul\":11669:11701   */\n      slt\n        /* \"#utility.yul\":11666:11718   */\n      iszero\n      tag_539\n      jumpi\n        /* \"#utility.yul\":11714:11715   */\n      0x00\n        /* \"#utility.yul\":11711:11712   */\n      dup1\n        /* \"#utility.yul\":11704:11716   */\n      revert\n        /* \"#utility.yul\":11666:11718   */\n    tag_539:\n        /* \"#utility.yul\":11737:11766   */\n      tag_355\n        /* \"#utility.yul\":11756:11765   */\n      dup3\n        /* \"#utility.yul\":11737:11766   */\n      tag_417\n      jump\t// in\n        /* \"#utility.yul\":11777:12179   */\n    tag_67:\n        /* \"#utility.yul\":12034:12037   */\n      0x80\n        /* \"#utility.yul\":12023:12032   */\n      dup2\n        /* \"#utility.yul\":12016:12038   */\n      mstore\n        /* \"#utility.yul\":11997:12001   */\n      0x00\n        /* \"#utility.yul\":12055:12106   */\n      tag_542\n        /* \"#utility.yul\":12101:12104   */\n      0x80\n        /* \"#utility.yul\":12090:12099   */\n      dup4\n        /* \"#utility.yul\":12086:12105   */\n      add\n        /* \"#utility.yul\":12078:12084   */\n      dup6\n        /* \"#utility.yul\":12055:12106   */\n      tag_416\n      jump\t// in\n    tag_542:\n        /* \"#utility.yul\":12047:12106   */\n      swap1\n      pop\n        /* \"#utility.yul\":12115:12173   */\n      tag_355\n        /* \"#utility.yul\":12169:12171   */\n      0x20\n        /* \"#utility.yul\":12158:12167   */\n      dup4\n        /* \"#utility.yul\":12154:12172   */\n      add\n        /* \"#utility.yul\":12146:12152   */\n      dup5\n        /* \"#utility.yul\":12115:12173   */\n      tag_411\n      jump\t// in\n        /* \"#utility.yul\":12184:12522   */\n    tag_70:\n        /* \"#utility.yul\":12264:12270   */\n      0x00\n        /* \"#utility.yul\":12317:12319   */\n      0x20\n        /* \"#utility.yul\":12305:12314   */\n      dup3\n        /* \"#utility.yul\":12296:12303   */\n      dup5\n        /* \"#utility.yul\":12292:12315   */\n      sub\n        /* \"#utility.yul\":12288:12320   */\n      slt\n        /* \"#utility.yul\":12285:12337   */\n      iszero\n      tag_545\n      jumpi\n        /* \"#utility.yul\":12333:12334   */\n      0x00\n        /* \"#utility.yul\":12330:12331   */\n      dup1\n        /* \"#utility.yul\":12323:12335   */\n      revert\n        /* \"#utility.yul\":12285:12337   */\n    tag_545:\n        /* \"#utility.yul\":12360:12383   */\n      dup2\n      calldataload\n      sub(shl(0x40, 0x01), 0x01)\n        /* \"#utility.yul\":12395:12425   */\n      dup2\n      gt\n        /* \"#utility.yul\":12392:12442   */\n      iszero\n      tag_546\n      jumpi\n        /* \"#utility.yul\":12438:12439   */\n      0x00\n        /* \"#utility.yul\":12435:12436   */\n      dup1\n        /* \"#utility.yul\":12428:12440   */\n      revert\n        /* \"#utility.yul\":12392:12442   */\n    tag_546:\n        /* \"#utility.yul\":12461:12516   */\n      tag_547\n        /* \"#utility.yul\":12508:12515   */\n      dup5\n        /* \"#utility.yul\":12499:12505   */\n      dup3\n        /* \"#utility.yul\":12488:12497   */\n      dup6\n        /* \"#utility.yul\":12484:12506   */\n      add\n        /* \"#utility.yul\":12461:12516   */\n      tag_420\n      jump\t// in\n    tag_547:\n        /* \"#utility.yul\":12451:12516   */\n      swap5\n        /* \"#utility.yul\":12184:12522   */\n      swap4\n      pop\n      pop\n      pop\n      pop\n      jump\t// out\n        /* \"#utility.yul\":12709:13057   */\n    tag_79:\n        /* \"#utility.yul\":12793:12799   */\n      0x00\n        /* \"#utility.yul\":12846:12848   */\n      0x20\n        /* \"#utility.yul\":12834:12843   */\n      dup3\n        /* \"#utility.yul\":12825:12832   */\n      dup5\n        /* \"#utility.yul\":12821:12844   */\n      sub\n        /* \"#utility.yul\":12817:12849   */\n      slt\n        /* \"#utility.yul\":12814:12866   */\n      iszero\n      tag_550\n      jumpi\n        /* \"#utility.yul\":12862:12863   */\n      0x00\n        /* \"#utility.yul\":12859:12860   */\n      dup1\n        /* \"#utility.yul\":12852:12864   */\n      revert\n        /* \"#utility.yul\":12814:12866   */\n    tag_550:\n        /* \"#utility.yul\":12889:12912   */\n      dup2\n      calldataload\n      sub(shl(0x40, 0x01), 0x01)\n        /* \"#utility.yul\":12924:12954   */\n      dup2\n      gt\n        /* \"#utility.yul\":12921:12971   */\n      iszero\n      tag_551\n      jumpi\n        /* \"#utility.yul\":12967:12968   */\n      0x00\n        /* \"#utility.yul\":12964:12965   */\n      dup1\n        /* \"#utility.yul\":12957:12969   */\n      revert\n        /* \"#utility.yul\":12921:12971   */\n    tag_551:\n        /* \"#utility.yul\":12990:13051   */\n      tag_547\n        /* \"#utility.yul\":13043:13050   */\n      dup5\n        /* \"#utility.yul\":13034:13040   */\n      dup3\n        /* \"#utility.yul\":13023:13032   */\n      dup6\n        /* \"#utility.yul\":13019:13041   */\n      add\n        /* \"#utility.yul\":12990:13051   */\n      tag_409\n      jump\t// in\n        /* \"#utility.yul\":13062:13892   */\n    tag_82:\n        /* \"#utility.yul\":13246:13250   */\n      0x00\n        /* \"#utility.yul\":13275:13277   */\n      0x20\n        /* \"#utility.yul\":13315:13317   */\n      dup1\n        /* \"#utility.yul\":13304:13313   */\n      dup4\n        /* \"#utility.yul\":13300:13318   */\n      add\n        /* \"#utility.yul\":13345:13347   */\n      dup2\n        /* \"#utility.yul\":13334:13343   */\n      dup5\n        /* \"#utility.yul\":13327:13348   */\n      mstore\n        /* \"#utility.yul\":13368:13374   */\n      dup1\n        /* \"#utility.yul\":13403:13409   */\n      dup6\n        /* \"#utility.yul\":13397:13410   */\n      mload\n        /* \"#utility.yul\":13434:13440   */\n      dup1\n        /* \"#utility.yul\":13426:13432   */\n      dup4\n        /* \"#utility.yul\":13419:13441   */\n      mstore\n        /* \"#utility.yul\":13472:13474   */\n      0x40\n        /* \"#utility.yul\":13461:13470   */\n      dup7\n        /* \"#utility.yul\":13457:13475   */\n      add\n        /* \"#utility.yul\":13450:13475   */\n      swap2\n      pop\n        /* \"#utility.yul\":13534:13536   */\n      0x40\n        /* \"#utility.yul\":13524:13530   */\n      dup2\n        /* \"#utility.yul\":13521:13522   */\n      0x05\n        /* \"#utility.yul\":13517:13531   */\n      shl\n        /* \"#utility.yul\":13506:13515   */\n      dup8\n        /* \"#utility.yul\":13502:13532   */\n      add\n        /* \"#utility.yul\":13498:13537   */\n      add\n        /* \"#utility.yul\":13484:13537   */\n      swap3\n      pop\n        /* \"#utility.yul\":13572:13574   */\n      dup4\n        /* \"#utility.yul\":13564:13570   */\n      dup8\n        /* \"#utility.yul\":13560:13575   */\n      add\n        /* \"#utility.yul\":13593:13594   */\n      0x00\n        /* \"#utility.yul\":13603:13863   */\n    tag_554:\n        /* \"#utility.yul\":13617:13623   */\n      dup3\n        /* \"#utility.yul\":13614:13615   */\n      dup2\n        /* \"#utility.yul\":13611:13624   */\n      lt\n        /* \"#utility.yul\":13603:13863   */\n      iszero\n      tag_556\n      jumpi\n        /* \"#utility.yul\":13710:13712   */\n      0x3f\n        /* \"#utility.yul\":13706:13713   */\n      not\n        /* \"#utility.yul\":13694:13703   */\n      dup9\n        /* \"#utility.yul\":13686:13692   */\n      dup7\n        /* \"#utility.yul\":13682:13704   */\n      sub\n        /* \"#utility.yul\":13678:13714   */\n      add\n        /* \"#utility.yul\":13673:13676   */\n      dup5\n        /* \"#utility.yul\":13666:13715   */\n      mstore\n        /* \"#utility.yul\":13738:13783   */\n      tag_557\n        /* \"#utility.yul\":13776:13782   */\n      dup6\n        /* \"#utility.yul\":13767:13773   */\n      dup4\n        /* \"#utility.yul\":13761:13774   */\n      mload\n        /* \"#utility.yul\":13738:13783   */\n      tag_416\n      jump\t// in\n    tag_557:\n        /* \"#utility.yul\":13728:13783   */\n      swap5\n      pop\n        /* \"#utility.yul\":13841:13853   */\n      swap3\n      dup6\n      add\n      swap3\n        /* \"#utility.yul\":13806:13821   */\n      swap1\n      dup6\n      add\n      swap1\n        /* \"#utility.yul\":13639:13640   */\n      0x01\n        /* \"#utility.yul\":13632:13641   */\n      add\n        /* \"#utility.yul\":13603:13863   */\n      jump(tag_554)\n    tag_556:\n      pop\n        /* \"#utility.yul\":13880:13886   */\n      swap3\n      swap8\n        /* \"#utility.yul\":13062:13892   */\n      swap7\n      pop\n      pop\n      pop\n      pop\n      pop\n      pop\n      pop\n      jump\t// out\n        /* \"#utility.yul\":13897:14218   */\n    tag_85:\n        /* \"#utility.yul\":13966:13972   */\n      0x00\n        /* \"#utility.yul\":14019:14021   */\n      0x20\n        /* \"#utility.yul\":14007:14016   */\n      dup3\n        /* \"#utility.yul\":13998:14005   */\n      dup5\n        /* \"#utility.yul\":13994:14017   */\n      sub\n        /* \"#utility.yul\":13990:14022   */\n      slt\n        /* \"#utility.yul\":13987:14039   */\n      iszero\n      tag_559\n      jumpi\n        /* \"#utility.yul\":14035:14036   */\n      0x00\n        /* \"#utility.yul\":14032:14033   */\n      dup1\n        /* \"#utility.yul\":14025:14037   */\n      revert\n        /* \"#utility.yul\":13987:14039   */\n    tag_559:\n        /* \"#utility.yul\":14062:14085   */\n      dup2\n      calldataload\n      sub(shl(0x40, 0x01), 0x01)\n        /* \"#utility.yul\":14097:14127   */\n      dup2\n      gt\n        /* \"#utility.yul\":14094:14144   */\n      iszero\n      tag_560\n      jumpi\n        /* \"#utility.yul\":14140:14141   */\n      0x00\n        /* \"#utility.yul\":14137:14138   */\n      dup1\n        /* \"#utility.yul\":14130:14142   */\n      revert\n        /* \"#utility.yul\":14094:14144   */\n    tag_560:\n        /* \"#utility.yul\":14163:14212   */\n      tag_547\n        /* \"#utility.yul\":14204:14211   */\n      dup5\n        /* \"#utility.yul\":14195:14201   */\n      dup3\n        /* \"#utility.yul\":14184:14193   */\n      dup6\n        /* \"#utility.yul\":14180:14202   */\n      add\n        /* \"#utility.yul\":14163:14212   */\n      tag_408\n      jump\t// in\n        /* \"#utility.yul\":14223:15353   */\n    tag_90:\n        /* \"#utility.yul\":14317:14323   */\n      0x00\n        /* \"#utility.yul\":14348:14350   */\n      0x20\n        /* \"#utility.yul\":14391:14393   */\n      dup1\n        /* \"#utility.yul\":14379:14388   */\n      dup4\n        /* \"#utility.yul\":14370:14377   */\n      dup6\n        /* \"#utility.yul\":14366:14389   */\n      sub\n        /* \"#utility.yul\":14362:14394   */\n      slt\n        /* \"#utility.yul\":14359:14411   */\n      iszero\n      tag_563\n      jumpi\n        /* \"#utility.yul\":14407:14408   */\n      0x00\n        /* \"#utility.yul\":14404:14405   */\n      dup1\n        /* \"#utility.yul\":14397:14409   */\n      revert\n        /* \"#utility.yul\":14359:14411   */\n    tag_563:\n        /* \"#utility.yul\":14434:14457   */\n      dup3\n      calldataload\n      sub(shl(0x40, 0x01), 0x01)\n        /* \"#utility.yul\":14506:14520   */\n      dup1\n      dup3\n      gt\n        /* \"#utility.yul\":14503:14537   */\n      iszero\n      tag_564\n      jumpi\n        /* \"#utility.yul\":14533:14534   */\n      0x00\n        /* \"#utility.yul\":14530:14531   */\n      dup1\n        /* \"#utility.yul\":14523:14535   */\n      revert\n        /* \"#utility.yul\":14503:14537   */\n    tag_564:\n        /* \"#utility.yul\":14571:14577   */\n      dup2\n        /* \"#utility.yul\":14560:14569   */\n      dup6\n        /* \"#utility.yul\":14556:14578   */\n      add\n        /* \"#utility.yul\":14546:14578   */\n      swap2\n      pop\n        /* \"#utility.yul\":14616:14623   */\n      dup6\n        /* \"#utility.yul\":14609:14613   */\n      0x1f\n        /* \"#utility.yul\":14605:14607   */\n      dup4\n        /* \"#utility.yul\":14601:14614   */\n      add\n        /* \"#utility.yul\":14597:14624   */\n      slt\n        /* \"#utility.yul\":14587:14642   */\n      tag_565\n      jumpi\n        /* \"#utility.yul\":14638:14639   */\n      0x00\n        /* \"#utility.yul\":14635:14636   */\n      dup1\n        /* \"#utility.yul\":14628:14640   */\n      revert\n        /* \"#utility.yul\":14587:14642   */\n    tag_565:\n        /* \"#utility.yul\":14674:14676   */\n      dup2\n        /* \"#utility.yul\":14661:14677   */\n      calldataload\n        /* \"#utility.yul\":14697:14755   */\n      tag_566\n        /* \"#utility.yul\":14713:14754   */\n      tag_445\n        /* \"#utility.yul\":14751:14753   */\n      dup3\n        /* \"#utility.yul\":14713:14754   */\n      tag_407\n      jump\t// in\n        /* \"#utility.yul\":14697:14755   */\n    tag_566:\n        /* \"#utility.yul\":14789:14804   */\n      dup2\n      dup2\n      mstore\n        /* \"#utility.yul\":14871:14872   */\n      0x05\n        /* \"#utility.yul\":14867:14877   */\n      swap2\n      swap1\n      swap2\n      shl\n        /* \"#utility.yul\":14859:14878   */\n      dup4\n      add\n        /* \"#utility.yul\":14855:14883   */\n      dup5\n      add\n      swap1\n        /* \"#utility.yul\":14820:14832   */\n      dup5\n      dup2\n      add\n      swap1\n        /* \"#utility.yul\":14895:14914   */\n      dup9\n      dup4\n      gt\n        /* \"#utility.yul\":14892:14931   */\n      iszero\n      tag_568\n      jumpi\n        /* \"#utility.yul\":14927:14928   */\n      0x00\n        /* \"#utility.yul\":14924:14925   */\n      dup1\n        /* \"#utility.yul\":14917:14929   */\n      revert\n        /* \"#utility.yul\":14892:14931   */\n    tag_568:\n        /* \"#utility.yul\":14959:14961   */\n      dup6\n        /* \"#utility.yul\":14955:14957   */\n      dup6\n        /* \"#utility.yul\":14951:14962   */\n      add\n        /* \"#utility.yul\":14971:15323   */\n    tag_569:\n        /* \"#utility.yul\":14987:14993   */\n      dup4\n        /* \"#utility.yul\":14982:14985   */\n      dup2\n        /* \"#utility.yul\":14979:14994   */\n      lt\n        /* \"#utility.yul\":14971:15323   */\n      iszero\n      tag_527\n      jumpi\n        /* \"#utility.yul\":15073:15076   */\n      dup1\n        /* \"#utility.yul\":15060:15077   */\n      calldataload\n        /* \"#utility.yul\":15109:15111   */\n      dup6\n        /* \"#utility.yul\":15096:15107   */\n      dup2\n        /* \"#utility.yul\":15093:15112   */\n      gt\n        /* \"#utility.yul\":15090:15199   */\n      iszero\n      tag_572\n      jumpi\n        /* \"#utility.yul\":15153:15154   */\n      0x00\n        /* \"#utility.yul\":15182:15184   */\n      dup1\n        /* \"#utility.yul\":15178:15180   */\n      dup2\n        /* \"#utility.yul\":15171:15185   */\n      revert\n        /* \"#utility.yul\":15090:15199   */\n    tag_572:\n        /* \"#utility.yul\":15224:15280   */\n      tag_573\n        /* \"#utility.yul\":15272:15279   */\n      dup12\n        /* \"#utility.yul\":15267:15269   */\n      dup10\n        /* \"#utility.yul\":15253:15264   */\n      dup4\n        /* \"#utility.yul\":15249:15251   */\n      dup11\n        /* \"#utility.yul\":15245:15265   */\n      add\n        /* \"#utility.yul\":15241:15270   */\n      add\n        /* \"#utility.yul\":15224:15280   */\n      tag_408\n      jump\t// in\n    tag_573:\n        /* \"#utility.yul\":15212:15281   */\n      dup5\n      mstore\n      pop\n        /* \"#utility.yul\":15301:15313   */\n      swap2\n      dup7\n      add\n      swap2\n        /* \"#utility.yul\":15004:15016   */\n      dup7\n      add\n        /* \"#utility.yul\":14971:15323   */\n      jump(tag_569)\n        /* \"#utility.yul\":15358:15674   */\n    tag_95:\n        /* \"#utility.yul\":15435:15441   */\n      0x00\n        /* \"#utility.yul\":15443:15449   */\n      dup1\n        /* \"#utility.yul\":15451:15457   */\n      0x00\n        /* \"#utility.yul\":15504:15506   */\n      0x60\n        /* \"#utility.yul\":15492:15501   */\n      dup5\n        /* \"#utility.yul\":15483:15490   */\n      dup7\n        /* \"#utility.yul\":15479:15502   */\n      sub\n        /* \"#utility.yul\":15475:15507   */\n      slt\n        /* \"#utility.yul\":15472:15524   */\n      iszero\n      tag_575\n      jumpi\n        /* \"#utility.yul\":15520:15521   */\n      0x00\n        /* \"#utility.yul\":15517:15518   */\n      dup1\n        /* \"#utility.yul\":15510:15522   */\n      revert\n        /* \"#utility.yul\":15472:15524   */\n    tag_575:\n      pop\n      pop\n        /* \"#utility.yul\":15543:15566   */\n      dup2\n      calldataload\n      swap4\n        /* \"#utility.yul\":15613:15615   */\n      0x20\n        /* \"#utility.yul\":15598:15616   */\n      dup4\n      add\n        /* \"#utility.yul\":15585:15617   */\n      calldataload\n      swap4\n      pop\n        /* \"#utility.yul\":15664:15666   */\n      0x40\n        /* \"#utility.yul\":15649:15667   */\n      swap1\n      swap3\n      add\n        /* \"#utility.yul\":15636:15668   */\n      calldataload\n      swap2\n        /* \"#utility.yul\":15358:15674   */\n      swap1\n      pop\n      jump\t// out\n        /* \"#utility.yul\":15679:16480   */\n    tag_98:\n        /* \"#utility.yul\":15839:15843   */\n      0x00\n        /* \"#utility.yul\":15868:15870   */\n      0x20\n        /* \"#utility.yul\":15908:15910   */\n      dup1\n        /* \"#utility.yul\":15897:15906   */\n      dup4\n        /* \"#utility.yul\":15893:15911   */\n      add\n        /* \"#utility.yul\":15938:15940   */\n      dup2\n        /* \"#utility.yul\":15927:15936   */\n      dup5\n        /* \"#utility.yul\":15920:15941   */\n      mstore\n        /* \"#utility.yul\":15961:15967   */\n      dup1\n        /* \"#utility.yul\":15996:16002   */\n      dup6\n        /* \"#utility.yul\":15990:16003   */\n      mload\n        /* \"#utility.yul\":16027:16033   */\n      dup1\n        /* \"#utility.yul\":16019:16025   */\n      dup4\n        /* \"#utility.yul\":16012:16034   */\n      mstore\n        /* \"#utility.yul\":16065:16067   */\n      0x40\n        /* \"#utility.yul\":16054:16063   */\n      dup7\n        /* \"#utility.yul\":16050:16068   */\n      add\n        /* \"#utility.yul\":16043:16068   */\n      swap2\n      pop\n        /* \"#utility.yul\":16127:16129   */\n      0x40\n        /* \"#utility.yul\":16117:16123   */\n      dup2\n        /* \"#utility.yul\":16114:16115   */\n      0x05\n        /* \"#utility.yul\":16110:16124   */\n      shl\n        /* \"#utility.yul\":16099:16108   */\n      dup8\n        /* \"#utility.yul\":16095:16125   */\n      add\n        /* \"#utility.yul\":16091:16130   */\n      add\n        /* \"#utility.yul\":16077:16130   */\n      swap3\n      pop\n        /* \"#utility.yul\":16165:16167   */\n      dup4\n        /* \"#utility.yul\":16157:16163   */\n      dup8\n        /* \"#utility.yul\":16153:16168   */\n      add\n        /* \"#utility.yul\":16186:16187   */\n      0x00\n        /* \"#utility.yul\":16196:16451   */\n    tag_577:\n        /* \"#utility.yul\":16210:16216   */\n      dup3\n        /* \"#utility.yul\":16207:16208   */\n      dup2\n        /* \"#utility.yul\":16204:16217   */\n      lt\n        /* \"#utility.yul\":16196:16451   */\n      iszero\n      tag_556\n      jumpi\n        /* \"#utility.yul\":16303:16305   */\n      0x3f\n        /* \"#utility.yul\":16299:16306   */\n      not\n        /* \"#utility.yul\":16287:16296   */\n      dup9\n        /* \"#utility.yul\":16279:16285   */\n      dup7\n        /* \"#utility.yul\":16275:16297   */\n      sub\n        /* \"#utility.yul\":16271:16307   */\n      add\n        /* \"#utility.yul\":16266:16269   */\n      dup5\n        /* \"#utility.yul\":16259:16308   */\n      mstore\n        /* \"#utility.yul\":16331:16371   */\n      tag_580\n        /* \"#utility.yul\":16364:16370   */\n      dup6\n        /* \"#utility.yul\":16355:16361   */\n      dup4\n        /* \"#utility.yul\":16349:16362   */\n      mload\n        /* \"#utility.yul\":16331:16371   */\n      tag_414\n      jump\t// in\n    tag_580:\n        /* \"#utility.yul\":16321:16371   */\n      swap5\n      pop\n        /* \"#utility.yul\":16429:16441   */\n      swap3\n      dup6\n      add\n      swap3\n        /* \"#utility.yul\":16394:16409   */\n      swap1\n      dup6\n      add\n      swap1\n        /* \"#utility.yul\":16232:16233   */\n      0x01\n        /* \"#utility.yul\":16225:16234   */\n      add\n        /* \"#utility.yul\":16196:16451   */\n      jump(tag_577)\n        /* \"#utility.yul\":16843:16970   */\n    tag_109:\n        /* \"#utility.yul\":16904:16914   */\n      0x4e487b71\n        /* \"#utility.yul\":16899:16902   */\n      0xe0\n        /* \"#utility.yul\":16895:16915   */\n      shl\n        /* \"#utility.yul\":16892:16893   */\n      0x00\n        /* \"#utility.yul\":16885:16916   */\n      mstore\n        /* \"#utility.yul\":16935:16939   */\n      0x32\n        /* \"#utility.yul\":16932:16933   */\n      0x04\n        /* \"#utility.yul\":16925:16940   */\n      mstore\n        /* \"#utility.yul\":16959:16963   */\n      0x24\n        /* \"#utility.yul\":16956:16957   */\n      0x00\n        /* \"#utility.yul\":16949:16964   */\n      revert\n        /* \"#utility.yul\":16975:17102   */\n    tag_421:\n        /* \"#utility.yul\":17036:17046   */\n      0x4e487b71\n        /* \"#utility.yul\":17031:17034   */\n      0xe0\n        /* \"#utility.yul\":17027:17047   */\n      shl\n        /* \"#utility.yul\":17024:17025   */\n      0x00\n        /* \"#utility.yul\":17017:17048   */\n      mstore\n        /* \"#utility.yul\":17067:17071   */\n      0x11\n        /* \"#utility.yul\":17064:17065   */\n      0x04\n        /* \"#utility.yul\":17057:17072   */\n      mstore\n        /* \"#utility.yul\":17091:17095   */\n      0x24\n        /* \"#utility.yul\":17088:17089   */\n      0x00\n        /* \"#utility.yul\":17081:17096   */\n      revert\n        /* \"#utility.yul\":17107:17242   */\n    tag_113:\n        /* \"#utility.yul\":17146:17149   */\n      0x00\n        /* \"#utility.yul\":17167:17184   */\n      0x01\n      dup3\n      add\n        /* \"#utility.yul\":17164:17207   */\n      tag_586\n      jumpi\n        /* \"#utility.yul\":17187:17205   */\n      tag_586\n      tag_421\n      jump\t// in\n    tag_586:\n      pop\n        /* \"#utility.yul\":17234:17235   */\n      0x01\n        /* \"#utility.yul\":17223:17236   */\n      add\n      swap1\n        /* \"#utility.yul\":17107:17242   */\n      jump\t// out\n        /* \"#utility.yul\":17598:17978   */\n    tag_129:\n        /* \"#utility.yul\":17677:17678   */\n      0x01\n        /* \"#utility.yul\":17673:17685   */\n      dup2\n      dup2\n      shr\n      swap1\n        /* \"#utility.yul\":17720:17732   */\n      dup3\n      and\n      dup1\n        /* \"#utility.yul\":17741:17802   */\n      tag_589\n      jumpi\n        /* \"#utility.yul\":17795:17799   */\n      0x7f\n        /* \"#utility.yul\":17787:17793   */\n      dup3\n        /* \"#utility.yul\":17783:17800   */\n      and\n        /* \"#utility.yul\":17773:17800   */\n      swap2\n      pop\n        /* \"#utility.yul\":17741:17802   */\n    tag_589:\n        /* \"#utility.yul\":17848:17850   */\n      0x20\n        /* \"#utility.yul\":17840:17846   */\n      dup3\n        /* \"#utility.yul\":17837:17851   */\n      lt\n        /* \"#utility.yul\":17817:17835   */\n      dup2\n        /* \"#utility.yul\":17814:17852   */\n      sub\n        /* \"#utility.yul\":17811:17972   */\n      tag_311\n      jumpi\n        /* \"#utility.yul\":17894:17904   */\n      0x4e487b71\n        /* \"#utility.yul\":17889:17892   */\n      0xe0\n        /* \"#utility.yul\":17885:17905   */\n      shl\n        /* \"#utility.yul\":17882:17883   */\n      0x00\n        /* \"#utility.yul\":17875:17906   */\n      mstore\n        /* \"#utility.yul\":17929:17933   */\n      0x22\n        /* \"#utility.yul\":17926:17927   */\n      0x04\n        /* \"#utility.yul\":17919:17934   */\n      mstore\n        /* \"#utility.yul\":17957:17961   */\n      0x24\n        /* \"#utility.yul\":17954:17955   */\n      0x00\n        /* \"#utility.yul\":17947:17962   */\n      revert\n        /* \"#utility.yul\":18330:18677   */\n    tag_160:\n        /* \"#utility.yul\":18532:18534   */\n      0x20\n        /* \"#utility.yul\":18514:18535   */\n      dup1\n      dup3\n      mstore\n        /* \"#utility.yul\":18571:18573   */\n      0x17\n        /* \"#utility.yul\":18551:18569   */\n      swap1\n      dup3\n      add\n        /* \"#utility.yul\":18544:18574   */\n      mstore\n      shl(0x49, 0x21b0b63632b91034b9903737ba103a34329037bbb732b9)\n        /* \"#utility.yul\":18605:18607   */\n      0x40\n        /* \"#utility.yul\":18590:18608   */\n      dup3\n      add\n        /* \"#utility.yul\":18583:18636   */\n      mstore\n        /* \"#utility.yul\":18668:18670   */\n      0x60\n        /* \"#utility.yul\":18653:18671   */\n      add\n      swap1\n        /* \"#utility.yul\":18330:18677   */\n      jump\t// out\n        /* \"#utility.yul\":18682:18807   */\n    tag_162:\n        /* \"#utility.yul\":18747:18756   */\n      dup1\n      dup3\n      add\n        /* \"#utility.yul\":18768:18778   */\n      dup1\n      dup3\n      gt\n        /* \"#utility.yul\":18765:18801   */\n      iszero\n      tag_469\n      jumpi\n        /* \"#utility.yul\":18781:18799   */\n      tag_469\n      tag_421\n      jump\t// in\n        /* \"#utility.yul\":19522:19881   */\n    tag_174:\n        /* \"#utility.yul\":19709:19715   */\n      dup3\n        /* \"#utility.yul\":19704:19707   */\n      dup2\n        /* \"#utility.yul\":19697:19716   */\n      mstore\n        /* \"#utility.yul\":19679:19682   */\n      0x00\n        /* \"#utility.yul\":19745:19751   */\n      dup3\n        /* \"#utility.yul\":19739:19752   */\n      mload\n        /* \"#utility.yul\":19761:19834   */\n      tag_599\n        /* \"#utility.yul\":19827:19833   */\n      dup2\n        /* \"#utility.yul\":19822:19824   */\n      0x20\n        /* \"#utility.yul\":19817:19820   */\n      dup6\n        /* \"#utility.yul\":19813:19825   */\n      add\n        /* \"#utility.yul\":19808:19810   */\n      0x20\n        /* \"#utility.yul\":19800:19806   */\n      dup8\n        /* \"#utility.yul\":19796:19811   */\n      add\n        /* \"#utility.yul\":19761:19834   */\n      tag_413\n      jump\t// in\n    tag_599:\n        /* \"#utility.yul\":19854:19870   */\n      swap2\n      swap1\n      swap2\n      add\n        /* \"#utility.yul\":19872:19874   */\n      0x20\n        /* \"#utility.yul\":19850:19875   */\n      add\n      swap4\n        /* \"#utility.yul\":19522:19881   */\n      swap3\n      pop\n      pop\n      pop\n      jump\t// out\n        /* \"#utility.yul\":20359:20903   */\n    tag_423:\n        /* \"#utility.yul\":20460:20462   */\n      0x1f\n        /* \"#utility.yul\":20455:20458   */\n      dup3\n        /* \"#utility.yul\":20452:20463   */\n      gt\n        /* \"#utility.yul\":20449:20897   */\n      iszero\n      tag_603\n      jumpi\n        /* \"#utility.yul\":20496:20497   */\n      0x00\n        /* \"#utility.yul\":20521:20526   */\n      dup2\n        /* \"#utility.yul\":20517:20519   */\n      dup2\n        /* \"#utility.yul\":20510:20527   */\n      mstore\n        /* \"#utility.yul\":20566:20570   */\n      0x20\n        /* \"#utility.yul\":20562:20564   */\n      dup2\n        /* \"#utility.yul\":20552:20571   */\n      keccak256\n        /* \"#utility.yul\":20636:20638   */\n      0x1f\n        /* \"#utility.yul\":20624:20634   */\n      dup6\n        /* \"#utility.yul\":20620:20639   */\n      add\n        /* \"#utility.yul\":20617:20618   */\n      0x05\n        /* \"#utility.yul\":20613:20640   */\n      shr\n        /* \"#utility.yul\":20607:20611   */\n      dup2\n        /* \"#utility.yul\":20603:20641   */\n      add\n        /* \"#utility.yul\":20672:20676   */\n      0x20\n        /* \"#utility.yul\":20660:20670   */\n      dup7\n        /* \"#utility.yul\":20657:20677   */\n      lt\n        /* \"#utility.yul\":20654:20701   */\n      iszero\n      tag_604\n      jumpi\n      pop\n        /* \"#utility.yul\":20695:20699   */\n      dup1\n        /* \"#utility.yul\":20654:20701   */\n    tag_604:\n        /* \"#utility.yul\":20750:20752   */\n      0x1f\n        /* \"#utility.yul\":20745:20748   */\n      dup6\n        /* \"#utility.yul\":20741:20753   */\n      add\n        /* \"#utility.yul\":20738:20739   */\n      0x05\n        /* \"#utility.yul\":20734:20754   */\n      shr\n        /* \"#utility.yul\":20728:20732   */\n      dup3\n        /* \"#utility.yul\":20724:20755   */\n      add\n        /* \"#utility.yul\":20714:20755   */\n      swap2\n      pop\n        /* \"#utility.yul\":20805:20887   */\n    tag_605:\n        /* \"#utility.yul\":20823:20825   */\n      dup2\n        /* \"#utility.yul\":20816:20821   */\n      dup2\n        /* \"#utility.yul\":20813:20826   */\n      lt\n        /* \"#utility.yul\":20805:20887   */\n      iszero\n      tag_607\n      jumpi\n        /* \"#utility.yul\":20868:20885   */\n      dup3\n      dup2\n      sstore\n        /* \"#utility.yul\":20849:20850   */\n      0x01\n        /* \"#utility.yul\":20838:20851   */\n      add\n        /* \"#utility.yul\":20805:20887   */\n      jump(tag_605)\n    tag_607:\n        /* \"#utility.yul\":20809:20812   */\n      pop\n      pop\n      pop\n        /* \"#utility.yul\":20449:20897   */\n    tag_603:\n        /* \"#utility.yul\":20359:20903   */\n      pop\n      pop\n      pop\n      jump\t// out\n        /* \"#utility.yul\":21079:22427   */\n    tag_179:\n        /* \"#utility.yul\":21197:21207   */\n      dup2\n      mload\n      sub(shl(0x40, 0x01), 0x01)\n        /* \"#utility.yul\":21219:21249   */\n      dup2\n      gt\n        /* \"#utility.yul\":21216:21272   */\n      iszero\n      tag_611\n      jumpi\n        /* \"#utility.yul\":21252:21270   */\n      tag_611\n      tag_213\n      jump\t// in\n    tag_611:\n        /* \"#utility.yul\":21281:21377   */\n      tag_612\n        /* \"#utility.yul\":21370:21376   */\n      dup2\n        /* \"#utility.yul\":21330:21368   */\n      tag_613\n        /* \"#utility.yul\":21362:21366   */\n      dup5\n        /* \"#utility.yul\":21356:21367   */\n      sload\n        /* \"#utility.yul\":21330:21368   */\n      tag_129\n      jump\t// in\n    tag_613:\n        /* \"#utility.yul\":21324:21328   */\n      dup5\n        /* \"#utility.yul\":21281:21377   */\n      tag_423\n      jump\t// in\n    tag_612:\n        /* \"#utility.yul\":21432:21436   */\n      0x20\n      dup1\n        /* \"#utility.yul\":21496:21498   */\n      0x1f\n        /* \"#utility.yul\":21485:21499   */\n      dup4\n      gt\n        /* \"#utility.yul\":21513:21514   */\n      0x01\n        /* \"#utility.yul\":21508:22170   */\n      dup2\n      eq\n      tag_615\n      jumpi\n        /* \"#utility.yul\":22214:22215   */\n      0x00\n        /* \"#utility.yul\":22231:22237   */\n      dup5\n        /* \"#utility.yul\":22228:22317   */\n      iszero\n      tag_616\n      jumpi\n      pop\n        /* \"#utility.yul\":22283:22302   */\n      dup6\n      dup4\n      add\n        /* \"#utility.yul\":22277:22303   */\n      mload\n        /* \"#utility.yul\":22228:22317   */\n    tag_616:\n      not(0x00)\n        /* \"#utility.yul\":21036:21037   */\n      0x03\n        /* \"#utility.yul\":21032:21043   */\n      dup7\n      swap1\n      shl\n        /* \"#utility.yul\":21028:21052   */\n      shr\n        /* \"#utility.yul\":21024:21053   */\n      not\n        /* \"#utility.yul\":21014:21054   */\n      and\n        /* \"#utility.yul\":21060:21061   */\n      0x01\n        /* \"#utility.yul\":21056:21067   */\n      dup6\n      swap1\n      shl\n        /* \"#utility.yul\":21011:21068   */\n      or\n        /* \"#utility.yul\":22330:22411   */\n      dup6\n      sstore\n        /* \"#utility.yul\":21478:22421   */\n      jump(tag_607)\n        /* \"#utility.yul\":21508:22170   */\n    tag_615:\n        /* \"#utility.yul\":20306:20307   */\n      0x00\n        /* \"#utility.yul\":20299:20313   */\n      dup6\n      dup2\n      mstore\n        /* \"#utility.yul\":20343:20347   */\n      0x20\n        /* \"#utility.yul\":20330:20348   */\n      dup2\n      keccak256\n      not(0x1f)\n        /* \"#utility.yul\":21544:21564   */\n      dup7\n      and\n      swap2\n        /* \"#utility.yul\":21661:21897   */\n    tag_619:\n        /* \"#utility.yul\":21675:21682   */\n      dup3\n        /* \"#utility.yul\":21672:21673   */\n      dup2\n        /* \"#utility.yul\":21669:21683   */\n      lt\n        /* \"#utility.yul\":21661:21897   */\n      iszero\n      tag_621\n      jumpi\n        /* \"#utility.yul\":21764:21783   */\n      dup9\n      dup7\n      add\n        /* \"#utility.yul\":21758:21784   */\n      mload\n        /* \"#utility.yul\":21743:21785   */\n      dup3\n      sstore\n        /* \"#utility.yul\":21856:21883   */\n      swap5\n      dup5\n      add\n      swap5\n        /* \"#utility.yul\":21824:21825   */\n      0x01\n        /* \"#utility.yul\":21812:21826   */\n      swap1\n      swap2\n      add\n      swap1\n        /* \"#utility.yul\":21691:21710   */\n      dup5\n      add\n        /* \"#utility.yul\":21661:21897   */\n      jump(tag_619)\n    tag_621:\n        /* \"#utility.yul\":21665:21668   */\n      pop\n        /* \"#utility.yul\":21925:21931   */\n      dup6\n        /* \"#utility.yul\":21916:21923   */\n      dup3\n        /* \"#utility.yul\":21913:21932   */\n      lt\n        /* \"#utility.yul\":21910:22111   */\n      iszero\n      tag_622\n      jumpi\n        /* \"#utility.yul\":21986:22005   */\n      dup8\n      dup6\n      add\n        /* \"#utility.yul\":21980:22006   */\n      mload\n      not(0x00)\n        /* \"#utility.yul\":22069:22070   */\n      0x03\n        /* \"#utility.yul\":22065:22079   */\n      dup9\n      swap1\n      shl\n        /* \"#utility.yul\":22081:22084   */\n      0xf8\n        /* \"#utility.yul\":22061:22085   */\n      and\n        /* \"#utility.yul\":22057:22094   */\n      shr\n        /* \"#utility.yul\":22053:22095   */\n      not\n        /* \"#utility.yul\":22038:22096   */\n      and\n        /* \"#utility.yul\":22023:22097   */\n      dup2\n      sstore\n        /* \"#utility.yul\":21910:22111   */\n    tag_622:\n      pop\n      pop\n      pop\n      pop\n      pop\n        /* \"#utility.yul\":22157:22158   */\n      0x01\n        /* \"#utility.yul\":22141:22155   */\n      swap1\n      dup2\n      shl\n        /* \"#utility.yul\":22137:22159   */\n      add\n        /* \"#utility.yul\":22124:22160   */\n      swap1\n      sstore\n      pop\n        /* \"#utility.yul\":21079:22427   */\n      jump\t// out\n        /* \"#utility.yul\":22432:22641   */\n    tag_181:\n        /* \"#utility.yul\":22470:22473   */\n      0x00\n      sub(shl(0x40, 0x01), 0x01)\n        /* \"#utility.yul\":22540:22554   */\n      dup3\n      dup2\n      and\n      not(sub(shl(0x40, 0x01), 0x02))\n        /* \"#utility.yul\":22566:22581   */\n      dup2\n      add\n        /* \"#utility.yul\":22563:22604   */\n      tag_625\n      jumpi\n        /* \"#utility.yul\":22584:22602   */\n      tag_625\n      tag_421\n      jump\t// in\n    tag_625:\n        /* \"#utility.yul\":22633:22634   */\n      0x01\n        /* \"#utility.yul\":22620:22635   */\n      add\n      swap4\n        /* \"#utility.yul\":22432:22641   */\n      swap3\n      pop\n      pop\n      pop\n      jump\t// out\n        /* \"#utility.yul\":22646:22826   */\n    tag_183:\n      sub(shl(0x40, 0x01), 0x01)\n        /* \"#utility.yul\":22751:22761   */\n      dup2\n      dup2\n      and\n        /* \"#utility.yul\":22763:22773   */\n      dup4\n      dup3\n      and\n        /* \"#utility.yul\":22747:22774   */\n      add\n      swap1\n        /* \"#utility.yul\":22786:22797   */\n      dup1\n      dup3\n      gt\n        /* \"#utility.yul\":22783:22820   */\n      iszero\n      tag_216\n      jumpi\n        /* \"#utility.yul\":22800:22818   */\n      tag_216\n      tag_421\n      jump\t// in\n        /* \"#utility.yul\":22831:23014   */\n    tag_185:\n      sub(shl(0x40, 0x01), 0x01)\n        /* \"#utility.yul\":22950:22960   */\n      dup3\n      dup2\n      and\n        /* \"#utility.yul\":22938:22948   */\n      dup3\n      dup3\n      and\n        /* \"#utility.yul\":22934:22961   */\n      sub\n      swap1\n        /* \"#utility.yul\":22973:22985   */\n      dup1\n      dup3\n      gt\n        /* \"#utility.yul\":22970:23008   */\n      iszero\n      tag_216\n      jumpi\n        /* \"#utility.yul\":22988:23006   */\n      tag_216\n      tag_421\n      jump\t// in\n        /* \"#utility.yul\":24692:25032   */\n    tag_250:\n        /* \"#utility.yul\":24894:24896   */\n      0x20\n        /* \"#utility.yul\":24876:24897   */\n      dup1\n      dup3\n      mstore\n        /* \"#utility.yul\":24933:24935   */\n      0x10\n        /* \"#utility.yul\":24913:24931   */\n      swap1\n      dup3\n      add\n        /* \"#utility.yul\":24906:24936   */\n      mstore\n      shl(0x82, 0x119a5b19481a185cc8195e1c1a5c9959)\n        /* \"#utility.yul\":24967:24969   */\n      0x40\n        /* \"#utility.yul\":24952:24970   */\n      dup3\n      add\n        /* \"#utility.yul\":24945:24991   */\n      mstore\n        /* \"#utility.yul\":25023:25025   */\n      0x60\n        /* \"#utility.yul\":25008:25026   */\n      add\n      swap1\n        /* \"#utility.yul\":24692:25032   */\n      jump\t// out\n        /* \"#utility.yul\":25454:26315   */\n    tag_287:\n      not(sub(shl(0xc0, 0x01), 0x01))\n        /* \"#utility.yul\":25781:25784   */\n      0xc0\n        /* \"#utility.yul\":25818:25834   */\n      dup9\n      dup2\n      shl\n        /* \"#utility.yul\":25814:25839   */\n      dup3\n      and\n        /* \"#utility.yul\":25802:25840   */\n      dup4\n      mstore\n        /* \"#utility.yul\":25873:25889   */\n      dup8\n      swap1\n      shl\n        /* \"#utility.yul\":25869:25894   */\n      and\n        /* \"#utility.yul\":25865:25866   */\n      0x08\n        /* \"#utility.yul\":25856:25867   */\n      dup3\n      add\n        /* \"#utility.yul\":25849:25895   */\n      mstore\n        /* \"#utility.yul\":25920:25922   */\n      0x10\n        /* \"#utility.yul\":25911:25923   */\n      dup2\n      add\n        /* \"#utility.yul\":25904:25932   */\n      dup6\n      swap1\n      mstore\n        /* \"#utility.yul\":25955:25968   */\n      dup4\n      mload\n      0x00\n      swap1\n        /* \"#utility.yul\":25977:26052   */\n      tag_640\n        /* \"#utility.yul\":25955:25968   */\n      dup2\n        /* \"#utility.yul\":26040:26042   */\n      0x30\n        /* \"#utility.yul\":26031:26043   */\n      dup6\n      add\n        /* \"#utility.yul\":26024:26028   */\n      0x20\n        /* \"#utility.yul\":26012:26029   */\n      dup10\n      add\n        /* \"#utility.yul\":25977:26052   */\n      tag_413\n      jump\t// in\n    tag_640:\n        /* \"#utility.yul\":26112:26125   */\n      dup5\n      mload\n        /* \"#utility.yul\":26071:26087   */\n      swap1\n      dup4\n      add\n      swap1\n        /* \"#utility.yul\":26134:26210   */\n      tag_641\n        /* \"#utility.yul\":26112:26125   */\n      dup2\n        /* \"#utility.yul\":26196:26198   */\n      0x30\n        /* \"#utility.yul\":26188:26199   */\n      dup5\n      add\n        /* \"#utility.yul\":26181:26185   */\n      0x20\n        /* \"#utility.yul\":26169:26186   */\n      dup10\n      add\n        /* \"#utility.yul\":26134:26210   */\n      tag_413\n      jump\t// in\n    tag_641:\n        /* \"#utility.yul\":26229:26246   */\n      add\n        /* \"#utility.yul\":26270:26272   */\n      0x30\n        /* \"#utility.yul\":26262:26273   */\n      dup2\n      add\n        /* \"#utility.yul\":26255:26282   */\n      swap4\n      swap1\n      swap4\n      mstore\n      pop\n      pop\n        /* \"#utility.yul\":26306:26308   */\n      0x50\n        /* \"#utility.yul\":26298:26309   */\n      add\n      swap6\n      swap5\n      pop\n      pop\n      pop\n      pop\n      pop\n        /* \"#utility.yul\":25454:26315   */\n      jump\t// out\n        /* \"#utility.yul\":26320:26609   */\n    tag_289:\n        /* \"#utility.yul\":26451:26454   */\n      0x00\n        /* \"#utility.yul\":26489:26495   */\n      dup3\n        /* \"#utility.yul\":26483:26496   */\n      mload\n        /* \"#utility.yul\":26505:26571   */\n      tag_643\n        /* \"#utility.yul\":26564:26570   */\n      dup2\n        /* \"#utility.yul\":26559:26562   */\n      dup5\n        /* \"#utility.yul\":26552:26556   */\n      0x20\n        /* \"#utility.yul\":26544:26550   */\n      dup8\n        /* \"#utility.yul\":26540:26557   */\n      add\n        /* \"#utility.yul\":26505:26571   */\n      tag_413\n      jump\t// in\n    tag_643:\n        /* \"#utility.yul\":26587:26603   */\n      swap2\n      swap1\n      swap2\n      add\n      swap3\n        /* \"#utility.yul\":26320:26609   */\n      swap2\n      pop\n      pop\n      jump\t// out\n        /* \"#utility.yul\":28317:28631   */\n    tag_303:\n        /* \"#utility.yul\":28492:28494   */\n      0x40\n        /* \"#utility.yul\":28481:28490   */\n      dup2\n        /* \"#utility.yul\":28474:28495   */\n      mstore\n        /* \"#utility.yul\":28455:28459   */\n      0x00\n        /* \"#utility.yul\":28512:28557   */\n      tag_660\n        /* \"#utility.yul\":28553:28555   */\n      0x40\n        /* \"#utility.yul\":28542:28551   */\n      dup4\n        /* \"#utility.yul\":28538:28556   */\n      add\n        /* \"#utility.yul\":28530:28536   */\n      dup6\n        /* \"#utility.yul\":28512:28557   */\n      tag_414\n      jump\t// in\n    tag_660:\n        /* \"#utility.yul\":28504:28557   */\n      swap1\n      pop\n        /* \"#utility.yul\":28621:28622   */\n      0x01\n        /* \"#utility.yul\":28617:28618   */\n      dup1\n        /* \"#utility.yul\":28613:28615   */\n      0x40\n        /* \"#utility.yul\":28609:28619   */\n      shl\n        /* \"#utility.yul\":28605:28623   */\n      sub\n        /* \"#utility.yul\":28597:28603   */\n      dup4\n        /* \"#utility.yul\":28593:28624   */\n      and\n        /* \"#utility.yul\":28588:28590   */\n      0x20\n        /* \"#utility.yul\":28577:28586   */\n      dup4\n        /* \"#utility.yul\":28573:28591   */\n      add\n        /* \"#utility.yul\":28566:28625   */\n      mstore\n        /* \"#utility.yul\":28317:28631   */\n      swap4\n      swap3\n      pop\n      pop\n      pop\n      jump\t// out\n        /* \"#utility.yul\":30049:30177   */\n    tag_379:\n        /* \"#utility.yul\":30116:30125   */\n      dup2\n      dup2\n      sub\n        /* \"#utility.yul\":30137:30148   */\n      dup2\n      dup2\n      gt\n        /* \"#utility.yul\":30134:30171   */\n      iszero\n      tag_469\n      jumpi\n        /* \"#utility.yul\":30151:30169   */\n      tag_469\n      tag_421\n      jump\t// in\n\n    auxdata: 0xa264697066735822122005d3d2a5ab243e6fbd426dad2f9c8018a80c164af410b113ed283a8423fb886464736f6c63430008130033\n}\n",
				"bytecode": {
					"linkReferences": {},
					"object": "6080604052600380546001600160a01b03191633179055612af8806100256000396000f3fe608060405234801561001057600080fd5b50600436106100db5760003560e01c80632b44bc39146100e057806346da5178146100f557806352f7347b1461011e5780635f95c07b1461013e5780636ab799f1146101515780636e0c19b1146101645780638da5cb5b1461018457806391c03370146101af5780639b26b2a8146101c2578063bf8bdac1146101d5578063c652793d146101e8578063ca7e3cd414610209578063d598d4c91461022a578063eb070e7e1461023d578063edff13af1461025d578063f25671c414610288578063fab919401461029b575b600080fd5b6100f36100ee366004611f86565b6102bb565b005b610108610103366004612064565b610372565b60405161011591906120a5565b60405180910390f35b61013161012c366004612064565b61044a565b6040516101159190612233565b6100f361014c366004612246565b610742565b6100f361015f366004612064565b610aa4565b6101776101723660046123f3565b610bdb565b60405161011591906124a3565b600354610197906001600160a01b031681565b6040516001600160a01b039091168152602001610115565b6100f36101bd3660046124e7565b610c88565b6100f36101d0366004612064565b610dce565b6100f36101e3366004612513565b610ed4565b6101fb6101f6366004612064565b610f20565b60405161011592919061252e565b61021c610217366004612550565b611243565b604051908152602001610115565b600254610197906001600160a01b031681565b61025061024b36600461258c565b6115d8565b60405161011591906125c0565b61021c61026b366004612622565b805160208183018101805160018252928201919093012091525481565b610177610296366004612656565b61197f565b6102ae6102a93660046126f9565b611a3b565b6040516101159190612725565b81518151146103115760405162461bcd60e51b815260206004820152601d60248201527f6c656e677468206172726179732073686f756c6420626520657175616c00000060448201526064015b60405180910390fd5b60005b825181101561036c5761035a848483815181106103335761033361277a565b602002602001015184848151811061034d5761034d61277a565b6020026020010151610742565b80610364816127a6565b915050610314565b50505050565b6040805160608101825260008082526020820181905291810191909152600082815260208190526040812090600582015460ff1660038111156103b7576103b7612109565b146103fd5760405162461bcd60e51b815260206004820152601660248201527546696c652075706c6f6164206e6f742065786973747360501b6044820152606401610308565b5050600090815260208181526040918290208251606081018452600882015481526009909101546001600160401b0380821693830193909352600160401b90049091169181019190915290565b610452611d72565b6000828152602081815260409182902082516101408101845281546001600160a01b0316815260018201549281019290925260028101546001600160401b0380821694840194909452600160401b810484166060840152600160801b9004909216608082015260038201805491929160a0840191906104d0906127bf565b80601f01602080910402602001604051908101604052809291908181526020018280546104fc906127bf565b80156105495780601f1061051e57610100808354040283529160200191610549565b820191906000526020600020905b81548152906001019060200180831161052c57829003601f168201915b50505050508152602001600482018054610562906127bf565b80601f016020809104026020016040519081016040528092919081815260200182805461058e906127bf565b80156105db5780601f106105b0576101008083540402835291602001916105db565b820191906000526020600020905b8154815290600101906020018083116105be57829003601f168201915b5050509183525050600582015460209091019060ff16600381111561060257610602612109565b600381111561061357610613612109565b8152602001600682018054610627906127bf565b80601f0160208091040260200160405190810160405280929190818152602001828054610653906127bf565b80156106a05780601f10610675576101008083540402835291602001916106a0565b820191906000526020600020905b81548152906001019060200180831161068357829003601f168201915b505050505081526020016007820180546106b9906127bf565b80601f01602080910402602001604051908101604052809291908181526020018280546106e5906127bf565b80156107325780601f1061070757610100808354040283529160200191610732565b820191906000526020600020905b81548152906001019060200180831161071557829003601f168201915b5050505050815250509050919050565b600082511180156107565750612800825111155b6107975760405162461bcd60e51b8152602060048201526012602482015271496e76616c6964206368756e6b2073697a6560701b6044820152606401610308565b600083815260208190526040902080546001600160a01b031633146107ce5760405162461bcd60e51b8152600401610308906127f3565b6002810154835160098301546001600160401b03928316926107f89291600160401b900416612824565b11156108425760405162461bcd60e51b8152602060048201526019602482015278086d0eadcd640caf0c6cacac8e640ccd2d8ca40d8cadccee8d603b1b6044820152606401610308565b6000600582015460ff16600381111561085d5761085d612109565b146108a85760405162461bcd60e51b815260206004820152601b60248201527a119a5b19481a5cc81b9bdd0818995a5b99c81c1c9bd8d95cdcd959602a1b6044820152606401610308565b60088101546040516000916108c1918690602001612837565b60405160208183030381529060405280519060200120905082811461091e5760405162461bcd60e51b8152602060048201526013602482015272086d0eadcd640d0c2e6d040dad2e6dac2e8c6d606b1b6044820152606401610308565b6008820181905560098201546001600160401b03166000908152600a83016020526040902061094d85826128ac565b506009820180546001600160401b03169060006109698361296b565b91906101000a8154816001600160401b0302191690836001600160401b031602179055505083518260080160010160088282829054906101000a90046001600160401b03166109b89190612999565b82546101009290920a6001600160401b0381810219909316918316021790915560098401548792507f9194bcee830b22b5e81ccd3c7efb4811ca70dfdd9bbfaa1719d15dfc18c6417d91610a0f91600191166129b9565b6040516001600160401b03909116815260200160405180910390a2600982015460028301546001600160401b03908116600160401b909204161480610a6f5750600282015460098301546001600160401b03908116600160401b90920416145b15610a9d5760058201805460ff19166001179055600060088301556009820180546001600160801b03191690555b5050505050565b600081815260208190526040902080546001600160a01b03163314610adb5760405162461bcd60e51b8152600401610308906127f3565b6003600582015460ff166003811115610af657610af6612109565b03610b3a5760405162461bcd60e51b8152602060048201526014602482015273119a5b1948185b1c9958591e4819195b195d195960621b6044820152606401610308565b60058101805460ff1916600317905560005b6002820154600160401b90046001600160401b0316811015610b93576000818152600a830160205260408120610b8191611dc4565b80610b8b816127a6565b915050610b4c565b506000600882018190556009820180546001600160801b031916905560405183917f88efefb1eaec3d3a0e08ed74bc99a3407d454b5da66112fed68b20d54837ccae91a25050565b6060600082516001600160401b03811115610bf857610bf8611e1a565b604051908082528060200260200182016040528015610c21578160200160208202803683370190505b50905060005b8351811015610c8157610c52848281518110610c4557610c4561277a565b6020026020010151611243565b828281518110610c6457610c6461277a565b602090810291909101015280610c79816127a6565b915050610c27565b5092915050565b600082815260208190526040902080546001600160a01b03163314610cbf5760405162461bcd60e51b8152600401610308906127f3565b6003600582015460ff166003811115610cda57610cda612109565b03610d1f5760405162461bcd60e51b8152602060048201526015602482015274119a5b19481a185cc81899595b8819195b195d1959605a1b6044820152606401610308565b610d2c4262015180612824565b826001600160401b031611610da05760405162461bcd60e51b815260206004820152603460248201527f4e6577206578706972652074696d65206d757374206265206174206c6561737460448201527320312064617920696e207468652066757475726560601b6064820152608401610308565b60020180546001600160401b03909216600160801b02600160801b600160c01b031990921691909117905550565b600081815260208190526040902080546001600160a01b03163314610e055760405162461bcd60e51b8152600401610308906127f3565b6001600582015460ff166003811115610e2057610e20612109565b14610e625760405162461bcd60e51b815260206004820152601260248201527146696c65206973206e6f742061637469766560701b6044820152606401610308565b6002810154600160801b90046001600160401b0316421115610e965760405162461bcd60e51b8152600401610308906129d9565b60058101805460ff1916600217905560405182907f45987cd84c3c0ec7c3b91dde29affe01363c3777aec1247553883b243174733090600090a25050565b6003546001600160a01b03163314610efe5760405162461bcd60e51b8152600401610308906127f3565b600280546001600160a01b0319166001600160a01b0392909216919091179055565b6000602081815291815260409081902081516101408101835281546001600160a01b0316815260018201549381019390935260028101546001600160401b0380821693850193909352600160401b810483166060850152600160801b90049091166080830152600381018054919291839160a0840191610f9f906127bf565b80601f0160208091040260200160405190810160405280929190818152602001828054610fcb906127bf565b80156110185780601f10610fed57610100808354040283529160200191611018565b820191906000526020600020905b815481529060010190602001808311610ffb57829003601f168201915b50505050508152602001600482018054611031906127bf565b80601f016020809104026020016040519081016040528092919081815260200182805461105d906127bf565b80156110aa5780601f1061107f576101008083540402835291602001916110aa565b820191906000526020600020905b81548152906001019060200180831161108d57829003601f168201915b5050509183525050600582015460209091019060ff1660038111156110d1576110d1612109565b60038111156110e2576110e2612109565b81526020016006820180546110f6906127bf565b80601f0160208091040260200160405190810160405280929190818152602001828054611122906127bf565b801561116f5780601f106111445761010080835404028352916020019161116f565b820191906000526020600020905b81548152906001019060200180831161115257829003601f168201915b50505050508152602001600782018054611188906127bf565b80601f01602080910402602001604051908101604052809291908181526020018280546111b4906127bf565b80156112015780601f106111d657610100808354040283529160200191611201565b820191906000526020600020905b8154815290600101906020018083116111e457829003601f168201915b50505091909252505060408051606081018252600885015481526009909401546001600160401b038082166020870152600160401b9091041690840152509082565b60006112524262015180612824565b82608001516001600160401b0316116112c65760405162461bcd60e51b815260206004820152603060248201527f4578706972652074696d65206d757374206265206174206c656173742031206460448201526f617920696e207468652066757475726560801b6064820152608401610308565b8160400151826080015183602001518460a001518560c00151426040516020016112f596959493929190612a03565b6040516020818303038152906040528051906020012090508060018360a001516040516113229190612a69565b9081526040805160209281900383019020929092556000838152908190522060010154156113885760405162461bcd60e51b815260206004820152601360248201527246696c6520616c72656164792065786973747360681b6044820152606401610308565b604051806101400160405280336001600160a01b031681526020018360200151815260200183604001516001600160401b0316815260200183606001516001600160401b0316815260200183608001516001600160401b031681526020018360a0015181526020018360c0015181526020016000600381111561140d5761140d612109565b81526101008401516020808301919091526101208501516040928301526000848152808252829020835181546001600160a01b039091166001600160a01b031990911617815590830151600182015590820151600282018054606085015160808601516001600160401b03908116600160801b02600160801b600160c01b0319928216600160401b026001600160801b03199094169190951617919091171691909117905560a082015160038201906114c690826128ac565b5060c082015160048201906114db90826128ac565b5060e082015160058201805460ff191660018360038111156114ff576114ff612109565b0217905550610100820151600682019061151990826128ac565b50610120820151600782019061152f90826128ac565b5050604080516060810182526000808252602080830182815283850183815287845291839052918490209251600884015590516009909201805491516001600160401b03908116600160401b026001600160801b031990931693169290921717905560a08401518482015191518493507f7f2db28bb9cdbd41f93b3953994de4298cc665dda981f021c84fc9b4b367f11e926115cb9291612a85565b60405180910390a2919050565b606081516001600160401b038111156115f3576115f3611e1a565b60405190808252806020026020018201604052801561162c57816020015b611619611d72565b8152602001906001900390816116115790505b50905060005b82518110156119795760008060008584815181106116525761165261277a565b602090810291909101810151825281810192909252604090810160002081516101408101835281546001600160a01b0316815260018201549381019390935260028101546001600160401b0380821693850193909352600160401b810483166060850152600160801b9004909116608083015260038101805460a0840191906116da906127bf565b80601f0160208091040260200160405190810160405280929190818152602001828054611706906127bf565b80156117535780601f1061172857610100808354040283529160200191611753565b820191906000526020600020905b81548152906001019060200180831161173657829003601f168201915b5050505050815260200160048201805461176c906127bf565b80601f0160208091040260200160405190810160405280929190818152602001828054611798906127bf565b80156117e55780601f106117ba576101008083540402835291602001916117e5565b820191906000526020600020905b8154815290600101906020018083116117c857829003601f168201915b5050509183525050600582015460209091019060ff16600381111561180c5761180c612109565b600381111561181d5761181d612109565b8152602001600682018054611831906127bf565b80601f016020809104026020016040519081016040528092919081815260200182805461185d906127bf565b80156118aa5780601f1061187f576101008083540402835291602001916118aa565b820191906000526020600020905b81548152906001019060200180831161188d57829003601f168201915b505050505081526020016007820180546118c3906127bf565b80601f01602080910402602001604051908101604052809291908181526020018280546118ef906127bf565b801561193c5780601f106119115761010080835404028352916020019161193c565b820191906000526020600020905b81548152906001019060200180831161191f57829003601f168201915b50505050508152505090508083838151811061195a5761195a61277a565b6020026020010181905250508080611971906127a6565b915050611632565b50919050565b6060600082516001600160401b0381111561199c5761199c611e1a565b6040519080825280602002602001820160405280156119c5578160200160208202803683370190505b50905060005b8351811015610c815760018482815181106119e8576119e861277a565b60200260200101516040516119fd9190612a69565b908152602001604051809103902054828281518110611a1e57611a1e61277a565b602090810291909101015280611a33816127a6565b9150506119cb565b60008381526020819052604090206060906001600582015460ff166003811115611a6757611a67612109565b14611aae5760405162461bcd60e51b8152602060048201526017602482015276119a5b19481d5c1b1bd859081b9bdd081858dd1a5d9959604a1b6044820152606401610308565b60028101546001600160401b0316611afe5760405162461bcd60e51b8152602060048201526013602482015272119a5b1948191bd95cc81b9bdd08195e1a5cdd606a1b6044820152606401610308565b6002810154600160401b90046001600160401b03168410611b5c5760405162461bcd60e51b8152602060048201526018602482015277537461727420696e646578206f7574206f662072616e676560401b6044820152606401610308565b60008311611bac5760405162461bcd60e51b815260206004820152601f60248201527f4c696d6974206d7573742062652067726561746572207468616e207a65726f006044820152606401610308565b6002810154600160801b90046001600160401b0316421115611be05760405162461bcd60e51b8152600401610308906129d9565b6002810154600090600160401b90046001600160401b0316611c028587612824565b11611c1657611c118486612824565b611c2c565b6002820154600160401b90046001600160401b03165b90506000611c3a8683612aaf565b6001600160401b03811115611c5157611c51611e1a565b604051908082528060200260200182016040528015611c8457816020015b6060815260200190600190039081611c6f5790505b509050855b82811015611d65576000818152600a8501602052604090208054611cac906127bf565b80601f0160208091040260200160405190810160405280929190818152602001828054611cd8906127bf565b8015611d255780601f10611cfa57610100808354040283529160200191611d25565b820191906000526020600020905b815481529060010190602001808311611d0857829003601f168201915b5050505050828883611d379190612aaf565b81518110611d4757611d4761277a565b60200260200101819052508080611d5d906127a6565b915050611c89565b50925050505b9392505050565b604080516101408101825260008082526020820181905291810182905260608082018390526080820183905260a0820181905260c08201529060e0820190815260200160608152602001606081525090565b508054611dd0906127bf565b6000825580601f10611de0575050565b601f016020900490600052602060002090810190611dfe9190611e01565b50565b5b80821115611e165760008155600101611e02565b5090565b634e487b7160e01b600052604160045260246000fd5b60405161014081016001600160401b0381118282101715611e5357611e53611e1a565b60405290565b604051601f8201601f191681016001600160401b0381118282101715611e8157611e81611e1a565b604052919050565b60006001600160401b03821115611ea257611ea2611e1a565b5060051b60200190565b600082601f830112611ebd57600080fd5b81356001600160401b03811115611ed657611ed6611e1a565b611ee9601f8201601f1916602001611e59565b818152846020838601011115611efe57600080fd5b816020850160208301376000918101602001919091529392505050565b600082601f830112611f2c57600080fd5b81356020611f41611f3c83611e89565b611e59565b82815260059290921b84018101918181019086841115611f6057600080fd5b8286015b84811015611f7b5780358352918301918301611f64565b509695505050505050565b600080600060608486031215611f9b57600080fd5b833592506020808501356001600160401b0380821115611fba57600080fd5b818701915087601f830112611fce57600080fd5b8135611fdc611f3c82611e89565b81815260059190911b8301840190848101908a831115611ffb57600080fd5b8585015b83811015612033578035858111156120175760008081fd5b6120258d89838a0101611eac565b845250918601918601611fff565b5096505050604087013592508083111561204c57600080fd5b505061205a86828701611f1b565b9150509250925092565b60006020828403121561207657600080fd5b5035919050565b805182526020808201516001600160401b039081169184019190915260409182015116910152565b606081016120b3828461207d565b92915050565b60005b838110156120d45781810151838201526020016120bc565b50506000910152565b600081518084526120f58160208601602086016120b9565b601f01601f19169290920160200192915050565b634e487b7160e01b600052602160045260246000fd5b6004811061213d57634e487b7160e01b600052602160045260246000fd5b9052565b80516001600160a01b03168252600061014060208301516020850152604083015161217760408601826001600160401b03169052565b50606083015161219260608601826001600160401b03169052565b5060808301516121ad60808601826001600160401b03169052565b5060a08301518160a08601526121c5828601826120dd565b91505060c083015184820360c08601526121df82826120dd565b91505060e08301516121f460e086018261211f565b50610100808401518583038287015261220d83826120dd565b92505050610120808401518583038287015261222983826120dd565b9695505050505050565b602081526000611d6b6020830184612141565b60008060006060848603121561225b57600080fd5b8335925060208401356001600160401b0381111561227857600080fd5b61228486828701611eac565b925050604084013590509250925092565b80356001600160a01b03811681146122ac57600080fd5b919050565b80356001600160401b03811681146122ac57600080fd5b8035600481106122ac57600080fd5b600061014082840312156122ea57600080fd5b6122f2611e30565b90506122fd82612295565b815260208201356020820152612315604083016122b1565b6040820152612326606083016122b1565b6060820152612337608083016122b1565b608082015260a08201356001600160401b038082111561235657600080fd5b61236285838601611eac565b60a084015260c084013591508082111561237b57600080fd5b61238785838601611eac565b60c084015261239860e085016122c8565b60e0840152610100915081840135818111156123b357600080fd5b6123bf86828701611eac565b8385015250610120915081840135818111156123da57600080fd5b6123e686828701611eac565b8385015250505092915050565b6000602080838503121561240657600080fd5b82356001600160401b038082111561241d57600080fd5b818501915085601f83011261243157600080fd5b813561243f611f3c82611e89565b81815260059190911b8301840190848101908883111561245e57600080fd5b8585015b838110156124965780358581111561247a5760008081fd5b6124888b89838a01016122d7565b845250918601918601612462565b5098975050505050505050565b6020808252825182820181905260009190848201906040850190845b818110156124db578351835292840192918401916001016124bf565b50909695505050505050565b600080604083850312156124fa57600080fd5b8235915061250a602084016122b1565b90509250929050565b60006020828403121561252557600080fd5b611d6b82612295565b6080815260006125416080830185612141565b9050611d6b602083018461207d565b60006020828403121561256257600080fd5b81356001600160401b0381111561257857600080fd5b612584848285016122d7565b949350505050565b60006020828403121561259e57600080fd5b81356001600160401b038111156125b457600080fd5b61258484828501611f1b565b6000602080830181845280855180835260408601915060408160051b870101925083870160005b8281101561261557603f19888603018452612603858351612141565b945092850192908501906001016125e7565b5092979650505050505050565b60006020828403121561263457600080fd5b81356001600160401b0381111561264a57600080fd5b61258484828501611eac565b6000602080838503121561266957600080fd5b82356001600160401b038082111561268057600080fd5b818501915085601f83011261269457600080fd5b81356126a2611f3c82611e89565b81815260059190911b830184019084810190888311156126c157600080fd5b8585015b83811015612496578035858111156126dd5760008081fd5b6126eb8b89838a0101611eac565b8452509186019186016126c5565b60008060006060848603121561270e57600080fd5b505081359360208301359350604090920135919050565b6000602080830181845280855180835260408601915060408160051b870101925083870160005b8281101561261557603f198886030184526127688583516120dd565b9450928501929085019060010161274c565b634e487b7160e01b600052603260045260246000fd5b634e487b7160e01b600052601160045260246000fd5b6000600182016127b8576127b8612790565b5060010190565b600181811c908216806127d357607f821691505b60208210810361197957634e487b7160e01b600052602260045260246000fd5b60208082526017908201527621b0b63632b91034b9903737ba103a34329037bbb732b960491b604082015260600190565b808201808211156120b3576120b3612790565b8281526000825161284f8160208501602087016120b9565b919091016020019392505050565b601f8211156128a757600081815260208120601f850160051c810160208610156128845750805b601f850160051c820191505b818110156128a357828155600101612890565b5050505b505050565b81516001600160401b038111156128c5576128c5611e1a565b6128d9816128d384546127bf565b8461285d565b602080601f83116001811461290e57600084156128f65750858301515b600019600386901b1c1916600185901b1785556128a3565b600085815260208120601f198616915b8281101561293d5788860151825594840194600190910190840161291e565b508582101561295b5787850151600019600388901b60f8161c191681555b5050505050600190811b01905550565b60006001600160401b038281166002600160401b0319810161298f5761298f612790565b6001019392505050565b6001600160401b03818116838216019080821115610c8157610c81612790565b6001600160401b03828116828216039080821115610c8157610c81612790565b60208082526010908201526f119a5b19481a185cc8195e1c1a5c995960821b604082015260600190565b6001600160c01b031960c088811b8216835287901b166008820152601081018590528351600090612a3b8160308501602089016120b9565b845190830190612a528160308401602089016120b9565b016030810193909352505060500195945050505050565b60008251612a7b8184602087016120b9565b9190910192915050565b604081526000612a9860408301856120dd565b905060018060401b03831660208301529392505050565b818103818111156120b3576120b361279056fea264697066735822122005d3d2a5ab243e6fbd426dad2f9c8018a80c164af410b113ed283a8423fb886464736f6c63430008130033",
					"opcodes": "PUSH1 0x80 PUSH1 0x40 MSTORE PUSH1 0x3 DUP1 SLOAD PUSH1 0x1 PUSH1 0x1 PUSH1 0xA0 SHL SUB NOT AND CALLER OR SWAP1 SSTORE PUSH2 0x2AF8 DUP1 PUSH2 0x25 PUSH1 0x0 CODECOPY PUSH1 0x0 RETURN INVALID PUSH1 0x80 PUSH1 0x40 MSTORE CALLVALUE DUP1 ISZERO PUSH2 0x10 JUMPI PUSH1 0x0 DUP1 REVERT JUMPDEST POP PUSH1 0x4 CALLDATASIZE LT PUSH2 0xDB JUMPI PUSH1 0x0 CALLDATALOAD PUSH1 0xE0 SHR DUP1 PUSH4 0x2B44BC39 EQ PUSH2 0xE0 JUMPI DUP1 PUSH4 0x46DA5178 EQ PUSH2 0xF5 JUMPI DUP1 PUSH4 0x52F7347B EQ PUSH2 0x11E JUMPI DUP1 PUSH4 0x5F95C07B EQ PUSH2 0x13E JUMPI DUP1 PUSH4 0x6AB799F1 EQ PUSH2 0x151 JUMPI DUP1 PUSH4 0x6E0C19B1 EQ PUSH2 0x164 JUMPI DUP1 PUSH4 0x8DA5CB5B EQ PUSH2 0x184 JUMPI DUP1 PUSH4 0x91C03370 EQ PUSH2 0x1AF JUMPI DUP1 PUSH4 0x9B26B2A8 EQ PUSH2 0x1C2 JUMPI DUP1 PUSH4 0xBF8BDAC1 EQ PUSH2 0x1D5 JUMPI DUP1 PUSH4 0xC652793D EQ PUSH2 0x1E8 JUMPI DUP1 PUSH4 0xCA7E3CD4 EQ PUSH2 0x209 JUMPI DUP1 PUSH4 0xD598D4C9 EQ PUSH2 0x22A JUMPI DUP1 PUSH4 0xEB070E7E EQ PUSH2 0x23D JUMPI DUP1 PUSH4 0xEDFF13AF EQ PUSH2 0x25D JUMPI DUP1 PUSH4 0xF25671C4 EQ PUSH2 0x288 JUMPI DUP1 PUSH4 0xFAB91940 EQ PUSH2 0x29B JUMPI JUMPDEST PUSH1 0x0 DUP1 REVERT JUMPDEST PUSH2 0xF3 PUSH2 0xEE CALLDATASIZE PUSH1 0x4 PUSH2 0x1F86 JUMP JUMPDEST PUSH2 0x2BB JUMP JUMPDEST STOP JUMPDEST PUSH2 0x108 PUSH2 0x103 CALLDATASIZE PUSH1 0x4 PUSH2 0x2064 JUMP JUMPDEST PUSH2 0x372 JUMP JUMPDEST PUSH1 0x40 MLOAD PUSH2 0x115 SWAP2 SWAP1 PUSH2 0x20A5 JUMP JUMPDEST PUSH1 0x40 MLOAD DUP1 SWAP2 SUB SWAP1 RETURN JUMPDEST PUSH2 0x131 PUSH2 0x12C CALLDATASIZE PUSH1 0x4 PUSH2 0x2064 JUMP JUMPDEST PUSH2 0x44A JUMP JUMPDEST PUSH1 0x40 MLOAD PUSH2 0x115 SWAP2 SWAP1 PUSH2 0x2233 JUMP JUMPDEST PUSH2 0xF3 PUSH2 0x14C CALLDATASIZE PUSH1 0x4 PUSH2 0x2246 JUMP JUMPDEST PUSH2 0x742 JUMP JUMPDEST PUSH2 0xF3 PUSH2 0x15F CALLDATASIZE PUSH1 0x4 PUSH2 0x2064 JUMP JUMPDEST PUSH2 0xAA4 JUMP JUMPDEST PUSH2 0x177 PUSH2 0x172 CALLDATASIZE PUSH1 0x4 PUSH2 0x23F3 JUMP JUMPDEST PUSH2 0xBDB JUMP JUMPDEST PUSH1 0x40 MLOAD PUSH2 0x115 SWAP2 SWAP1 PUSH2 0x24A3 JUMP JUMPDEST PUSH1 0x3 SLOAD PUSH2 0x197 SWAP1 PUSH1 0x1 PUSH1 0x1 PUSH1 0xA0 SHL SUB AND DUP2 JUMP JUMPDEST PUSH1 0x40 MLOAD PUSH1 0x1 PUSH1 0x1 PUSH1 0xA0 SHL SUB SWAP1 SWAP2 AND DUP2 MSTORE PUSH1 0x20 ADD PUSH2 0x115 JUMP JUMPDEST PUSH2 0xF3 PUSH2 0x1BD CALLDATASIZE PUSH1 0x4 PUSH2 0x24E7 JUMP JUMPDEST PUSH2 0xC88 JUMP JUMPDEST PUSH2 0xF3 PUSH2 0x1D0 CALLDATASIZE PUSH1 0x4 PUSH2 0x2064 JUMP JUMPDEST PUSH2 0xDCE JUMP JUMPDEST PUSH2 0xF3 PUSH2 0x1E3 CALLDATASIZE PUSH1 0x4 PUSH2 0x2513 JUMP JUMPDEST PUSH2 0xED4 JUMP JUMPDEST PUSH2 0x1FB PUSH2 0x1F6 CALLDATASIZE PUSH1 0x4 PUSH2 0x2064 JUMP JUMPDEST PUSH2 0xF20 JUMP JUMPDEST PUSH1 0x40 MLOAD PUSH2 0x115 SWAP3 SWAP2 SWAP1 PUSH2 0x252E JUMP JUMPDEST PUSH2 0x21C PUSH2 0x217 CALLDATASIZE PUSH1 0x4 PUSH2 0x2550 JUMP JUMPDEST PUSH2 0x1243 JUMP JUMPDEST PUSH1 0x40 MLOAD SWAP1 DUP2 MSTORE PUSH1 0x20 ADD PUSH2 0x115 JUMP JUMPDEST PUSH1 0x2 SLOAD PUSH2 0x197 SWAP1 PUSH1 0x1 PUSH1 0x1 PUSH1 0xA0 SHL SUB AND DUP2 JUMP JUMPDEST PUSH2 0x250 PUSH2 0x24B CALLDATASIZE PUSH1 0x4 PUSH2 0x258C JUMP JUMPDEST PUSH2 0x15D8 JUMP JUMPDEST PUSH1 0x40 MLOAD PUSH2 0x115 SWAP2 SWAP1 PUSH2 0x25C0 JUMP JUMPDEST PUSH2 0x21C PUSH2 0x26B CALLDATASIZE PUSH1 0x4 PUSH2 0x2622 JUMP JUMPDEST DUP1 MLOAD PUSH1 0x20 DUP2 DUP4 ADD DUP2 ADD DUP1 MLOAD PUSH1 0x1 DUP3 MSTORE SWAP3 DUP3 ADD SWAP2 SWAP1 SWAP4 ADD KECCAK256 SWAP2 MSTORE SLOAD DUP2 JUMP JUMPDEST PUSH2 0x177 PUSH2 0x296 CALLDATASIZE PUSH1 0x4 PUSH2 0x2656 JUMP JUMPDEST PUSH2 0x197F JUMP JUMPDEST PUSH2 0x2AE PUSH2 0x2A9 CALLDATASIZE PUSH1 0x4 PUSH2 0x26F9 JUMP JUMPDEST PUSH2 0x1A3B JUMP JUMPDEST PUSH1 0x40 MLOAD PUSH2 0x115 SWAP2 SWAP1 PUSH2 0x2725 JUMP JUMPDEST DUP2 MLOAD DUP2 MLOAD EQ PUSH2 0x311 JUMPI PUSH1 0x40 MLOAD PUSH3 0x461BCD PUSH1 0xE5 SHL DUP2 MSTORE PUSH1 0x20 PUSH1 0x4 DUP3 ADD MSTORE PUSH1 0x1D PUSH1 0x24 DUP3 ADD MSTORE PUSH32 0x6C656E677468206172726179732073686F756C6420626520657175616C000000 PUSH1 0x44 DUP3 ADD MSTORE PUSH1 0x64 ADD JUMPDEST PUSH1 0x40 MLOAD DUP1 SWAP2 SUB SWAP1 REVERT JUMPDEST PUSH1 0x0 JUMPDEST DUP3 MLOAD DUP2 LT ISZERO PUSH2 0x36C JUMPI PUSH2 0x35A DUP5 DUP5 DUP4 DUP2 MLOAD DUP2 LT PUSH2 0x333 JUMPI PUSH2 0x333 PUSH2 0x277A JUMP JUMPDEST PUSH1 0x20 MUL PUSH1 0x20 ADD ADD MLOAD DUP5 DUP5 DUP2 MLOAD DUP2 LT PUSH2 0x34D JUMPI PUSH2 0x34D PUSH2 0x277A JUMP JUMPDEST PUSH1 0x20 MUL PUSH1 0x20 ADD ADD MLOAD PUSH2 0x742 JUMP JUMPDEST DUP1 PUSH2 0x364 DUP2 PUSH2 0x27A6 JUMP JUMPDEST SWAP2 POP POP PUSH2 0x314 JUMP JUMPDEST POP POP POP POP JUMP JUMPDEST PUSH1 0x40 DUP1 MLOAD PUSH1 0x60 DUP2 ADD DUP3 MSTORE PUSH1 0x0 DUP1 DUP3 MSTORE PUSH1 0x20 DUP3 ADD DUP2 SWAP1 MSTORE SWAP2 DUP2 ADD SWAP2 SWAP1 SWAP2 MSTORE PUSH1 0x0 DUP3 DUP2 MSTORE PUSH1 0x20 DUP2 SWAP1 MSTORE PUSH1 0x40 DUP2 KECCAK256 SWAP1 PUSH1 0x5 DUP3 ADD SLOAD PUSH1 0xFF AND PUSH1 0x3 DUP2 GT ISZERO PUSH2 0x3B7 JUMPI PUSH2 0x3B7 PUSH2 0x2109 JUMP JUMPDEST EQ PUSH2 0x3FD JUMPI PUSH1 0x40 MLOAD PUSH3 0x461BCD PUSH1 0xE5 SHL DUP2 MSTORE PUSH1 0x20 PUSH1 0x4 DUP3 ADD MSTORE PUSH1 0x16 PUSH1 0x24 DUP3 ADD MSTORE PUSH22 0x46696C652075706C6F6164206E6F7420657869737473 PUSH1 0x50 SHL PUSH1 0x44 DUP3 ADD MSTORE PUSH1 0x64 ADD PUSH2 0x308 JUMP JUMPDEST POP POP PUSH1 0x0 SWAP1 DUP2 MSTORE PUSH1 0x20 DUP2 DUP2 MSTORE PUSH1 0x40 SWAP2 DUP3 SWAP1 KECCAK256 DUP3 MLOAD PUSH1 0x60 DUP2 ADD DUP5 MSTORE PUSH1 0x8 DUP3 ADD SLOAD DUP2 MSTORE PUSH1 0x9 SWAP1 SWAP2 ADD SLOAD PUSH1 0x1 PUSH1 0x1 PUSH1 0x40 SHL SUB DUP1 DUP3 AND SWAP4 DUP4 ADD SWAP4 SWAP1 SWAP4 MSTORE PUSH1 0x1 PUSH1 0x40 SHL SWAP1 DIV SWAP1 SWAP2 AND SWAP2 DUP2 ADD SWAP2 SWAP1 SWAP2 MSTORE SWAP1 JUMP JUMPDEST PUSH2 0x452 PUSH2 0x1D72 JUMP JUMPDEST PUSH1 0x0 DUP3 DUP2 MSTORE PUSH1 0x20 DUP2 DUP2 MSTORE PUSH1 0x40 SWAP2 DUP3 SWAP1 KECCAK256 DUP3 MLOAD PUSH2 0x140 DUP2 ADD DUP5 MSTORE DUP2 SLOAD PUSH1 0x1 PUSH1 0x1 PUSH1 0xA0 SHL SUB AND DUP2 MSTORE PUSH1 0x1 DUP3 ADD SLOAD SWAP3 DUP2 ADD SWAP3 SWAP1 SWAP3 MSTORE PUSH1 0x2 DUP2 ADD SLOAD PUSH1 0x1 PUSH1 0x1 PUSH1 0x40 SHL SUB DUP1 DUP3 AND SWAP5 DUP5 ADD SWAP5 SWAP1 SWAP5 MSTORE PUSH1 0x1 PUSH1 0x40 SHL DUP2 DIV DUP5 AND PUSH1 0x60 DUP5 ADD MSTORE PUSH1 0x1 PUSH1 0x80 SHL SWAP1 DIV SWAP1 SWAP3 AND PUSH1 0x80 DUP3 ADD MSTORE PUSH1 0x3 DUP3 ADD DUP1 SLOAD SWAP2 SWAP3 SWAP2 PUSH1 0xA0 DUP5 ADD SWAP2 SWAP1 PUSH2 0x4D0 SWAP1 PUSH2 0x27BF JUMP JUMPDEST DUP1 PUSH1 0x1F ADD PUSH1 0x20 DUP1 SWAP2 DIV MUL PUSH1 0x20 ADD PUSH1 0x40 MLOAD SWAP1 DUP2 ADD PUSH1 0x40 MSTORE DUP1 SWAP3 SWAP2 SWAP1 DUP2 DUP2 MSTORE PUSH1 0x20 ADD DUP3 DUP1 SLOAD PUSH2 0x4FC SWAP1 PUSH2 0x27BF JUMP JUMPDEST DUP1 ISZERO PUSH2 0x549 JUMPI DUP1 PUSH1 0x1F LT PUSH2 0x51E JUMPI PUSH2 0x100 DUP1 DUP4 SLOAD DIV MUL DUP4 MSTORE SWAP2 PUSH1 0x20 ADD SWAP2 PUSH2 0x549 JUMP JUMPDEST DUP3 ADD SWAP2 SWAP1 PUSH1 0x0 MSTORE PUSH1 0x20 PUSH1 0x0 KECCAK256 SWAP1 JUMPDEST DUP2 SLOAD DUP2 MSTORE SWAP1 PUSH1 0x1 ADD SWAP1 PUSH1 0x20 ADD DUP1 DUP4 GT PUSH2 0x52C JUMPI DUP3 SWAP1 SUB PUSH1 0x1F AND DUP3 ADD SWAP2 JUMPDEST POP POP POP POP POP DUP2 MSTORE PUSH1 0x20 ADD PUSH1 0x4 DUP3 ADD DUP1 SLOAD PUSH2 0x562 SWAP1 PUSH2 0x27BF JUMP JUMPDEST DUP1 PUSH1 0x1F ADD PUSH1 0x20 DUP1 SWAP2 DIV MUL PUSH1 0x20 ADD PUSH1 0x40 MLOAD SWAP1 DUP2 ADD PUSH1 0x40 MSTORE DUP1 SWAP3 SWAP2 SWAP1 DUP2 DUP2 MSTORE PUSH1 0x20 ADD DUP3 DUP1 SLOAD PUSH2 0x58E SWAP1 PUSH2 0x27BF JUMP JUMPDEST DUP1 ISZERO PUSH2 0x5DB JUMPI DUP1 PUSH1 0x1F LT PUSH2 0x5B0 JUMPI PUSH2 0x100 DUP1 DUP4 SLOAD DIV MUL DUP4 MSTORE SWAP2 PUSH1 0x20 ADD SWAP2 PUSH2 0x5DB JUMP JUMPDEST DUP3 ADD SWAP2 SWAP1 PUSH1 0x0 MSTORE PUSH1 0x20 PUSH1 0x0 KECCAK256 SWAP1 JUMPDEST DUP2 SLOAD DUP2 MSTORE SWAP1 PUSH1 0x1 ADD SWAP1 PUSH1 0x20 ADD DUP1 DUP4 GT PUSH2 0x5BE JUMPI DUP3 SWAP1 SUB PUSH1 0x1F AND DUP3 ADD SWAP2 JUMPDEST POP POP POP SWAP2 DUP4 MSTORE POP POP PUSH1 0x5 DUP3 ADD SLOAD PUSH1 0x20 SWAP1 SWAP2 ADD SWAP1 PUSH1 0xFF AND PUSH1 0x3 DUP2 GT ISZERO PUSH2 0x602 JUMPI PUSH2 0x602 PUSH2 0x2109 JUMP JUMPDEST PUSH1 0x3 DUP2 GT ISZERO PUSH2 0x613 JUMPI PUSH2 0x613 PUSH2 0x2109 JUMP JUMPDEST DUP2 MSTORE PUSH1 0x20 ADD PUSH1 0x6 DUP3 ADD DUP1 SLOAD PUSH2 0x627 SWAP1 PUSH2 0x27BF JUMP JUMPDEST DUP1 PUSH1 0x1F ADD PUSH1 0x20 DUP1 SWAP2 DIV MUL PUSH1 0x20 ADD PUSH1 0x40 MLOAD SWAP1 DUP2 ADD PUSH1 0x40 MSTORE DUP1 SWAP3 SWAP2 SWAP1 DUP2 DUP2 MSTORE PUSH1 0x20 ADD DUP3 DUP1 SLOAD PUSH2 0x653 SWAP1 PUSH2 0x27BF JUMP JUMPDEST DUP1 ISZERO PUSH2 0x6A0 JUMPI DUP1 PUSH1 0x1F LT PUSH2 0x675 JUMPI PUSH2 0x100 DUP1 DUP4 SLOAD DIV MUL DUP4 MSTORE SWAP2 PUSH1 0x20 ADD SWAP2 PUSH2 0x6A0 JUMP JUMPDEST DUP3 ADD SWAP2 SWAP1 PUSH1 0x0 MSTORE PUSH1 0x20 PUSH1 0x0 KECCAK256 SWAP1 JUMPDEST DUP2 SLOAD DUP2 MSTORE SWAP1 PUSH1 0x1 ADD SWAP1 PUSH1 0x20 ADD DUP1 DUP4 GT PUSH2 0x683 JUMPI DUP3 SWAP1 SUB PUSH1 0x1F AND DUP3 ADD SWAP2 JUMPDEST POP POP POP POP POP DUP2 MSTORE PUSH1 0x20 ADD PUSH1 0x7 DUP3 ADD DUP1 SLOAD PUSH2 0x6B9 SWAP1 PUSH2 0x27BF JUMP JUMPDEST DUP1 PUSH1 0x1F ADD PUSH1 0x20 DUP1 SWAP2 DIV MUL PUSH1 0x20 ADD PUSH1 0x40 MLOAD SWAP1 DUP2 ADD PUSH1 0x40 MSTORE DUP1 SWAP3 SWAP2 SWAP1 DUP2 DUP2 MSTORE PUSH1 0x20 ADD DUP3 DUP1 SLOAD PUSH2 0x6E5 SWAP1 PUSH2 0x27BF JUMP JUMPDEST DUP1 ISZERO PUSH2 0x732 JUMPI DUP1 PUSH1 0x1F LT PUSH2 0x707 JUMPI PUSH2 0x100 DUP1 DUP4 SLOAD DIV MUL DUP4 MSTORE SWAP2 PUSH1 0x20 ADD SWAP2 PUSH2 0x732 JUMP JUMPDEST DUP3 ADD SWAP2 SWAP1 PUSH1 0x0 MSTORE PUSH1 0x20 PUSH1 0x0 KECCAK256 SWAP1 JUMPDEST DUP2 SLOAD DUP2 MSTORE SWAP1 PUSH1 0x1 ADD SWAP1 PUSH1 0x20 ADD DUP1 DUP4 GT PUSH2 0x715 JUMPI DUP3 SWAP1 SUB PUSH1 0x1F AND DUP3 ADD SWAP2 JUMPDEST POP POP POP POP POP DUP2 MSTORE POP POP SWAP1 POP SWAP2 SWAP1 POP JUMP JUMPDEST PUSH1 0x0 DUP3 MLOAD GT DUP1 ISZERO PUSH2 0x756 JUMPI POP PUSH2 0x2800 DUP3 MLOAD GT ISZERO JUMPDEST PUSH2 0x797 JUMPI PUSH1 0x40 MLOAD PUSH3 0x461BCD PUSH1 0xE5 SHL DUP2 MSTORE PUSH1 0x20 PUSH1 0x4 DUP3 ADD MSTORE PUSH1 0x12 PUSH1 0x24 DUP3 ADD MSTORE PUSH18 0x496E76616C6964206368756E6B2073697A65 PUSH1 0x70 SHL PUSH1 0x44 DUP3 ADD MSTORE PUSH1 0x64 ADD PUSH2 0x308 JUMP JUMPDEST PUSH1 0x0 DUP4 DUP2 MSTORE PUSH1 0x20 DUP2 SWAP1 MSTORE PUSH1 0x40 SWAP1 KECCAK256 DUP1 SLOAD PUSH1 0x1 PUSH1 0x1 PUSH1 0xA0 SHL SUB AND CALLER EQ PUSH2 0x7CE JUMPI PUSH1 0x40 MLOAD PUSH3 0x461BCD PUSH1 0xE5 SHL DUP2 MSTORE PUSH1 0x4 ADD PUSH2 0x308 SWAP1 PUSH2 0x27F3 JUMP JUMPDEST PUSH1 0x2 DUP2 ADD SLOAD DUP4 MLOAD PUSH1 0x9 DUP4 ADD SLOAD PUSH1 0x1 PUSH1 0x1 PUSH1 0x40 SHL SUB SWAP3 DUP4 AND SWAP3 PUSH2 0x7F8 SWAP3 SWAP2 PUSH1 0x1 PUSH1 0x40 SHL SWAP1 DIV AND PUSH2 0x2824 JUMP JUMPDEST GT ISZERO PUSH2 0x842 JUMPI PUSH1 0x40 MLOAD PUSH3 0x461BCD PUSH1 0xE5 SHL DUP2 MSTORE PUSH1 0x20 PUSH1 0x4 DUP3 ADD MSTORE PUSH1 0x19 PUSH1 0x24 DUP3 ADD MSTORE PUSH25 0x86D0EADCD640CAF0C6CACAC8E640CCD2D8CA40D8CADCCEE8D PUSH1 0x3B SHL PUSH1 0x44 DUP3 ADD MSTORE PUSH1 0x64 ADD PUSH2 0x308 JUMP JUMPDEST PUSH1 0x0 PUSH1 0x5 DUP3 ADD SLOAD PUSH1 0xFF AND PUSH1 0x3 DUP2 GT ISZERO PUSH2 0x85D JUMPI PUSH2 0x85D PUSH2 0x2109 JUMP JUMPDEST EQ PUSH2 0x8A8 JUMPI PUSH1 0x40 MLOAD PUSH3 0x461BCD PUSH1 0xE5 SHL DUP2 MSTORE PUSH1 0x20 PUSH1 0x4 DUP3 ADD MSTORE PUSH1 0x1B PUSH1 0x24 DUP3 ADD MSTORE PUSH27 0x119A5B19481A5CC81B9BDD0818995A5B99C81C1C9BD8D95CDCD959 PUSH1 0x2A SHL PUSH1 0x44 DUP3 ADD MSTORE PUSH1 0x64 ADD PUSH2 0x308 JUMP JUMPDEST PUSH1 0x8 DUP2 ADD SLOAD PUSH1 0x40 MLOAD PUSH1 0x0 SWAP2 PUSH2 0x8C1 SWAP2 DUP7 SWAP1 PUSH1 0x20 ADD PUSH2 0x2837 JUMP JUMPDEST PUSH1 0x40 MLOAD PUSH1 0x20 DUP2 DUP4 SUB SUB DUP2 MSTORE SWAP1 PUSH1 0x40 MSTORE DUP1 MLOAD SWAP1 PUSH1 0x20 ADD KECCAK256 SWAP1 POP DUP3 DUP2 EQ PUSH2 0x91E JUMPI PUSH1 0x40 MLOAD PUSH3 0x461BCD PUSH1 0xE5 SHL DUP2 MSTORE PUSH1 0x20 PUSH1 0x4 DUP3 ADD MSTORE PUSH1 0x13 PUSH1 0x24 DUP3 ADD MSTORE PUSH19 0x86D0EADCD640D0C2E6D040DAD2E6DAC2E8C6D PUSH1 0x6B SHL PUSH1 0x44 DUP3 ADD MSTORE PUSH1 0x64 ADD PUSH2 0x308 JUMP JUMPDEST PUSH1 0x8 DUP3 ADD DUP2 SWAP1 SSTORE PUSH1 0x9 DUP3 ADD SLOAD PUSH1 0x1 PUSH1 0x1 PUSH1 0x40 SHL SUB AND PUSH1 0x0 SWAP1 DUP2 MSTORE PUSH1 0xA DUP4 ADD PUSH1 0x20 MSTORE PUSH1 0x40 SWAP1 KECCAK256 PUSH2 0x94D DUP6 DUP3 PUSH2 0x28AC JUMP JUMPDEST POP PUSH1 0x9 DUP3 ADD DUP1 SLOAD PUSH1 0x1 PUSH1 0x1 PUSH1 0x40 SHL SUB AND SWAP1 PUSH1 0x0 PUSH2 0x969 DUP4 PUSH2 0x296B JUMP JUMPDEST SWAP2 SWAP1 PUSH2 0x100 EXP DUP2 SLOAD DUP2 PUSH1 0x1 PUSH1 0x1 PUSH1 0x40 SHL SUB MUL NOT AND SWAP1 DUP4 PUSH1 0x1 PUSH1 0x1 PUSH1 0x40 SHL SUB AND MUL OR SWAP1 SSTORE POP POP DUP4 MLOAD DUP3 PUSH1 0x8 ADD PUSH1 0x1 ADD PUSH1 0x8 DUP3 DUP3 DUP3 SWAP1 SLOAD SWAP1 PUSH2 0x100 EXP SWAP1 DIV PUSH1 0x1 PUSH1 0x1 PUSH1 0x40 SHL SUB AND PUSH2 0x9B8 SWAP2 SWAP1 PUSH2 0x2999 JUMP JUMPDEST DUP3 SLOAD PUSH2 0x100 SWAP3 SWAP1 SWAP3 EXP PUSH1 0x1 PUSH1 0x1 PUSH1 0x40 SHL SUB DUP2 DUP2 MUL NOT SWAP1 SWAP4 AND SWAP2 DUP4 AND MUL OR SWAP1 SWAP2 SSTORE PUSH1 0x9 DUP5 ADD SLOAD DUP8 SWAP3 POP PUSH32 0x9194BCEE830B22B5E81CCD3C7EFB4811CA70DFDD9BBFAA1719D15DFC18C6417D SWAP2 PUSH2 0xA0F SWAP2 PUSH1 0x1 SWAP2 AND PUSH2 0x29B9 JUMP JUMPDEST PUSH1 0x40 MLOAD PUSH1 0x1 PUSH1 0x1 PUSH1 0x40 SHL SUB SWAP1 SWAP2 AND DUP2 MSTORE PUSH1 0x20 ADD PUSH1 0x40 MLOAD DUP1 SWAP2 SUB SWAP1 LOG2 PUSH1 0x9 DUP3 ADD SLOAD PUSH1 0x2 DUP4 ADD SLOAD PUSH1 0x1 PUSH1 0x1 PUSH1 0x40 SHL SUB SWAP1 DUP2 AND PUSH1 0x1 PUSH1 0x40 SHL SWAP1 SWAP3 DIV AND EQ DUP1 PUSH2 0xA6F JUMPI POP PUSH1 0x2 DUP3 ADD SLOAD PUSH1 0x9 DUP4 ADD SLOAD PUSH1 0x1 PUSH1 0x1 PUSH1 0x40 SHL SUB SWAP1 DUP2 AND PUSH1 0x1 PUSH1 0x40 SHL SWAP1 SWAP3 DIV AND EQ JUMPDEST ISZERO PUSH2 0xA9D JUMPI PUSH1 0x5 DUP3 ADD DUP1 SLOAD PUSH1 0xFF NOT AND PUSH1 0x1 OR SWAP1 SSTORE PUSH1 0x0 PUSH1 0x8 DUP4 ADD SSTORE PUSH1 0x9 DUP3 ADD DUP1 SLOAD PUSH1 0x1 PUSH1 0x1 PUSH1 0x80 SHL SUB NOT AND SWAP1 SSTORE JUMPDEST POP POP POP POP POP JUMP JUMPDEST PUSH1 0x0 DUP2 DUP2 MSTORE PUSH1 0x20 DUP2 SWAP1 MSTORE PUSH1 0x40 SWAP1 KECCAK256 DUP1 SLOAD PUSH1 0x1 PUSH1 0x1 PUSH1 0xA0 SHL SUB AND CALLER EQ PUSH2 0xADB JUMPI PUSH1 0x40 MLOAD PUSH3 0x461BCD PUSH1 0xE5 SHL DUP2 MSTORE PUSH1 0x4 ADD PUSH2 0x308 SWAP1 PUSH2 0x27F3 JUMP JUMPDEST PUSH1 0x3 PUSH1 0x5 DUP3 ADD SLOAD PUSH1 0xFF AND PUSH1 0x3 DUP2 GT ISZERO PUSH2 0xAF6 JUMPI PUSH2 0xAF6 PUSH2 0x2109 JUMP JUMPDEST SUB PUSH2 0xB3A JUMPI PUSH1 0x40 MLOAD PUSH3 0x461BCD PUSH1 0xE5 SHL DUP2 MSTORE PUSH1 0x20 PUSH1 0x4 DUP3 ADD MSTORE PUSH1 0x14 PUSH1 0x24 DUP3 ADD MSTORE PUSH20 0x119A5B1948185B1C9958591E4819195B195D1959 PUSH1 0x62 SHL PUSH1 0x44 DUP3 ADD MSTORE PUSH1 0x64 ADD PUSH2 0x308 JUMP JUMPDEST PUSH1 0x5 DUP2 ADD DUP1 SLOAD PUSH1 0xFF NOT AND PUSH1 0x3 OR SWAP1 SSTORE PUSH1 0x0 JUMPDEST PUSH1 0x2 DUP3 ADD SLOAD PUSH1 0x1 PUSH1 0x40 SHL SWAP1 DIV PUSH1 0x1 PUSH1 0x1 PUSH1 0x40 SHL SUB AND DUP2 LT ISZERO PUSH2 0xB93 JUMPI PUSH1 0x0 DUP2 DUP2 MSTORE PUSH1 0xA DUP4 ADD PUSH1 0x20 MSTORE PUSH1 0x40 DUP2 KECCAK256 PUSH2 0xB81 SWAP2 PUSH2 0x1DC4 JUMP JUMPDEST DUP1 PUSH2 0xB8B DUP2 PUSH2 0x27A6 JUMP JUMPDEST SWAP2 POP POP PUSH2 0xB4C JUMP JUMPDEST POP PUSH1 0x0 PUSH1 0x8 DUP3 ADD DUP2 SWAP1 SSTORE PUSH1 0x9 DUP3 ADD DUP1 SLOAD PUSH1 0x1 PUSH1 0x1 PUSH1 0x80 SHL SUB NOT AND SWAP1 SSTORE PUSH1 0x40 MLOAD DUP4 SWAP2 PUSH32 0x88EFEFB1EAEC3D3A0E08ED74BC99A3407D454B5DA66112FED68B20D54837CCAE SWAP2 LOG2 POP POP JUMP JUMPDEST PUSH1 0x60 PUSH1 0x0 DUP3 MLOAD PUSH1 0x1 PUSH1 0x1 PUSH1 0x40 SHL SUB DUP2 GT ISZERO PUSH2 0xBF8 JUMPI PUSH2 0xBF8 PUSH2 0x1E1A JUMP JUMPDEST PUSH1 0x40 MLOAD SWAP1 DUP1 DUP3 MSTORE DUP1 PUSH1 0x20 MUL PUSH1 0x20 ADD DUP3 ADD PUSH1 0x40 MSTORE DUP1 ISZERO PUSH2 0xC21 JUMPI DUP2 PUSH1 0x20 ADD PUSH1 0x20 DUP3 MUL DUP1 CALLDATASIZE DUP4 CALLDATACOPY ADD SWAP1 POP JUMPDEST POP SWAP1 POP PUSH1 0x0 JUMPDEST DUP4 MLOAD DUP2 LT ISZERO PUSH2 0xC81 JUMPI PUSH2 0xC52 DUP5 DUP3 DUP2 MLOAD DUP2 LT PUSH2 0xC45 JUMPI PUSH2 0xC45 PUSH2 0x277A JUMP JUMPDEST PUSH1 0x20 MUL PUSH1 0x20 ADD ADD MLOAD PUSH2 0x1243 JUMP JUMPDEST DUP3 DUP3 DUP2 MLOAD DUP2 LT PUSH2 0xC64 JUMPI PUSH2 0xC64 PUSH2 0x277A JUMP JUMPDEST PUSH1 0x20 SWAP1 DUP2 MUL SWAP2 SWAP1 SWAP2 ADD ADD MSTORE DUP1 PUSH2 0xC79 DUP2 PUSH2 0x27A6 JUMP JUMPDEST SWAP2 POP POP PUSH2 0xC27 JUMP JUMPDEST POP SWAP3 SWAP2 POP POP JUMP JUMPDEST PUSH1 0x0 DUP3 DUP2 MSTORE PUSH1 0x20 DUP2 SWAP1 MSTORE PUSH1 0x40 SWAP1 KECCAK256 DUP1 SLOAD PUSH1 0x1 PUSH1 0x1 PUSH1 0xA0 SHL SUB AND CALLER EQ PUSH2 0xCBF JUMPI PUSH1 0x40 MLOAD PUSH3 0x461BCD PUSH1 0xE5 SHL DUP2 MSTORE PUSH1 0x4 ADD PUSH2 0x308 SWAP1 PUSH2 0x27F3 JUMP JUMPDEST PUSH1 0x3 PUSH1 0x5 DUP3 ADD SLOAD PUSH1 0xFF AND PUSH1 0x3 DUP2 GT ISZERO PUSH2 0xCDA JUMPI PUSH2 0xCDA PUSH2 0x2109 JUMP JUMPDEST SUB PUSH2 0xD1F JUMPI PUSH1 0x40 MLOAD PUSH3 0x461BCD PUSH1 0xE5 SHL DUP2 MSTORE PUSH1 0x20 PUSH1 0x4 DUP3 ADD MSTORE PUSH1 0x15 PUSH1 0x24 DUP3 ADD MSTORE PUSH21 0x119A5B19481A185CC81899595B8819195B195D1959 PUSH1 0x5A SHL PUSH1 0x44 DUP3 ADD MSTORE PUSH1 0x64 ADD PUSH2 0x308 JUMP JUMPDEST PUSH2 0xD2C TIMESTAMP PUSH3 0x15180 PUSH2 0x2824 JUMP JUMPDEST DUP3 PUSH1 0x1 PUSH1 0x1 PUSH1 0x40 SHL SUB AND GT PUSH2 0xDA0 JUMPI PUSH1 0x40 MLOAD PUSH3 0x461BCD PUSH1 0xE5 SHL DUP2 MSTORE PUSH1 0x20 PUSH1 0x4 DUP3 ADD MSTORE PUSH1 0x34 PUSH1 0x24 DUP3 ADD MSTORE PUSH32 0x4E6577206578706972652074696D65206D757374206265206174206C65617374 PUSH1 0x44 DUP3 ADD MSTORE PUSH20 0x20312064617920696E2074686520667574757265 PUSH1 0x60 SHL PUSH1 0x64 DUP3 ADD MSTORE PUSH1 0x84 ADD PUSH2 0x308 JUMP JUMPDEST PUSH1 0x2 ADD DUP1 SLOAD PUSH1 0x1 PUSH1 0x1 PUSH1 0x40 SHL SUB SWAP1 SWAP3 AND PUSH1 0x1 PUSH1 0x80 SHL MUL PUSH1 0x1 PUSH1 0x80 SHL PUSH1 0x1 PUSH1 0xC0 SHL SUB NOT SWAP1 SWAP3 AND SWAP2 SWAP1 SWAP2 OR SWAP1 SSTORE POP JUMP JUMPDEST PUSH1 0x0 DUP2 DUP2 MSTORE PUSH1 0x20 DUP2 SWAP1 MSTORE PUSH1 0x40 SWAP1 KECCAK256 DUP1 SLOAD PUSH1 0x1 PUSH1 0x1 PUSH1 0xA0 SHL SUB AND CALLER EQ PUSH2 0xE05 JUMPI PUSH1 0x40 MLOAD PUSH3 0x461BCD PUSH1 0xE5 SHL DUP2 MSTORE PUSH1 0x4 ADD PUSH2 0x308 SWAP1 PUSH2 0x27F3 JUMP JUMPDEST PUSH1 0x1 PUSH1 0x5 DUP3 ADD SLOAD PUSH1 0xFF AND PUSH1 0x3 DUP2 GT ISZERO PUSH2 0xE20 JUMPI PUSH2 0xE20 PUSH2 0x2109 JUMP JUMPDEST EQ PUSH2 0xE62 JUMPI PUSH1 0x40 MLOAD PUSH3 0x461BCD PUSH1 0xE5 SHL DUP2 MSTORE PUSH1 0x20 PUSH1 0x4 DUP3 ADD MSTORE PUSH1 0x12 PUSH1 0x24 DUP3 ADD MSTORE PUSH18 0x46696C65206973206E6F7420616374697665 PUSH1 0x70 SHL PUSH1 0x44 DUP3 ADD MSTORE PUSH1 0x64 ADD PUSH2 0x308 JUMP JUMPDEST PUSH1 0x2 DUP2 ADD SLOAD PUSH1 0x1 PUSH1 0x80 SHL SWAP1 DIV PUSH1 0x1 PUSH1 0x1 PUSH1 0x40 SHL SUB AND TIMESTAMP GT ISZERO PUSH2 0xE96 JUMPI PUSH1 0x40 MLOAD PUSH3 0x461BCD PUSH1 0xE5 SHL DUP2 MSTORE PUSH1 0x4 ADD PUSH2 0x308 SWAP1 PUSH2 0x29D9 JUMP JUMPDEST PUSH1 0x5 DUP2 ADD DUP1 SLOAD PUSH1 0xFF NOT AND PUSH1 0x2 OR SWAP1 SSTORE PUSH1 0x40 MLOAD DUP3 SWAP1 PUSH32 0x45987CD84C3C0EC7C3B91DDE29AFFE01363C3777AEC1247553883B2431747330 SWAP1 PUSH1 0x0 SWAP1 LOG2 POP POP JUMP JUMPDEST PUSH1 0x3 SLOAD PUSH1 0x1 PUSH1 0x1 PUSH1 0xA0 SHL SUB AND CALLER EQ PUSH2 0xEFE JUMPI PUSH1 0x40 MLOAD PUSH3 0x461BCD PUSH1 0xE5 SHL DUP2 MSTORE PUSH1 0x4 ADD PUSH2 0x308 SWAP1 PUSH2 0x27F3 JUMP JUMPDEST PUSH1 0x2 DUP1 SLOAD PUSH1 0x1 PUSH1 0x1 PUSH1 0xA0 SHL SUB NOT AND PUSH1 0x1 PUSH1 0x1 PUSH1 0xA0 SHL SUB SWAP3 SWAP1 SWAP3 AND SWAP2 SWAP1 SWAP2 OR SWAP1 SSTORE JUMP JUMPDEST PUSH1 0x0 PUSH1 0x20 DUP2 DUP2 MSTORE SWAP2 DUP2 MSTORE PUSH1 0x40 SWAP1 DUP2 SWAP1 KECCAK256 DUP2 MLOAD PUSH2 0x140 DUP2 ADD DUP4 MSTORE DUP2 SLOAD PUSH1 0x1 PUSH1 0x1 PUSH1 0xA0 SHL SUB AND DUP2 MSTORE PUSH1 0x1 DUP3 ADD SLOAD SWAP4 DUP2 ADD SWAP4 SWAP1 SWAP4 MSTORE PUSH1 0x2 DUP2 ADD SLOAD PUSH1 0x1 PUSH1 0x1 PUSH1 0x40 SHL SUB DUP1 DUP3 AND SWAP4 DUP6 ADD SWAP4 SWAP1 SWAP4 MSTORE PUSH1 0x1 PUSH1 0x40 SHL DUP2 DIV DUP4 AND PUSH1 0x60 DUP6 ADD MSTORE PUSH1 0x1 PUSH1 0x80 SHL SWAP1 DIV SWAP1 SWAP2 AND PUSH1 0x80 DUP4 ADD MSTORE PUSH1 0x3 DUP2 ADD DUP1 SLOAD SWAP2 SWAP3 SWAP2 DUP4 SWAP2 PUSH1 0xA0 DUP5 ADD SWAP2 PUSH2 0xF9F SWAP1 PUSH2 0x27BF JUMP JUMPDEST DUP1 PUSH1 0x1F ADD PUSH1 0x20 DUP1 SWAP2 DIV MUL PUSH1 0x20 ADD PUSH1 0x40 MLOAD SWAP1 DUP2 ADD PUSH1 0x40 MSTORE DUP1 SWAP3 SWAP2 SWAP1 DUP2 DUP2 MSTORE PUSH1 0x20 ADD DUP3 DUP1 SLOAD PUSH2 0xFCB SWAP1 PUSH2 0x27BF JUMP JUMPDEST DUP1 ISZERO PUSH2 0x1018 JUMPI DUP1 PUSH1 0x1F LT PUSH2 0xFED JUMPI PUSH2 0x100 DUP1 DUP4 SLOAD DIV MUL DUP4 MSTORE SWAP2 PUSH1 0x20 ADD SWAP2 PUSH2 0x1018 JUMP JUMPDEST DUP3 ADD SWAP2 SWAP1 PUSH1 0x0 MSTORE PUSH1 0x20 PUSH1 0x0 KECCAK256 SWAP1 JUMPDEST DUP2 SLOAD DUP2 MSTORE SWAP1 PUSH1 0x1 ADD SWAP1 PUSH1 0x20 ADD DUP1 DUP4 GT PUSH2 0xFFB JUMPI DUP3 SWAP1 SUB PUSH1 0x1F AND DUP3 ADD SWAP2 JUMPDEST POP POP POP POP POP DUP2 MSTORE PUSH1 0x20 ADD PUSH1 0x4 DUP3 ADD DUP1 SLOAD PUSH2 0x1031 SWAP1 PUSH2 0x27BF JUMP JUMPDEST DUP1 PUSH1 0x1F ADD PUSH1 0x20 DUP1 SWAP2 DIV MUL PUSH1 0x20 ADD PUSH1 0x40 MLOAD SWAP1 DUP2 ADD PUSH1 0x40 MSTORE DUP1 SWAP3 SWAP2 SWAP1 DUP2 DUP2 MSTORE PUSH1 0x20 ADD DUP3 DUP1 SLOAD PUSH2 0x105D SWAP1 PUSH2 0x27BF JUMP JUMPDEST DUP1 ISZERO PUSH2 0x10AA JUMPI DUP1 PUSH1 0x1F LT PUSH2 0x107F JUMPI PUSH2 0x100 DUP1 DUP4 SLOAD DIV MUL DUP4 MSTORE SWAP2 PUSH1 0x20 ADD SWAP2 PUSH2 0x10AA JUMP JUMPDEST DUP3 ADD SWAP2 SWAP1 PUSH1 0x0 MSTORE PUSH1 0x20 PUSH1 0x0 KECCAK256 SWAP1 JUMPDEST DUP2 SLOAD DUP2 MSTORE SWAP1 PUSH1 0x1 ADD SWAP1 PUSH1 0x20 ADD DUP1 DUP4 GT PUSH2 0x108D JUMPI DUP3 SWAP1 SUB PUSH1 0x1F AND DUP3 ADD SWAP2 JUMPDEST POP POP POP SWAP2 DUP4 MSTORE POP POP PUSH1 0x5 DUP3 ADD SLOAD PUSH1 0x20 SWAP1 SWAP2 ADD SWAP1 PUSH1 0xFF AND PUSH1 0x3 DUP2 GT ISZERO PUSH2 0x10D1 JUMPI PUSH2 0x10D1 PUSH2 0x2109 JUMP JUMPDEST PUSH1 0x3 DUP2 GT ISZERO PUSH2 0x10E2 JUMPI PUSH2 0x10E2 PUSH2 0x2109 JUMP JUMPDEST DUP2 MSTORE PUSH1 0x20 ADD PUSH1 0x6 DUP3 ADD DUP1 SLOAD PUSH2 0x10F6 SWAP1 PUSH2 0x27BF JUMP JUMPDEST DUP1 PUSH1 0x1F ADD PUSH1 0x20 DUP1 SWAP2 DIV MUL PUSH1 0x20 ADD PUSH1 0x40 MLOAD SWAP1 DUP2 ADD PUSH1 0x40 MSTORE DUP1 SWAP3 SWAP2 SWAP1 DUP2 DUP2 MSTORE PUSH1 0x20 ADD DUP3 DUP1 SLOAD PUSH2 0x1122 SWAP1 PUSH2 0x27BF JUMP JUMPDEST DUP1 ISZERO PUSH2 0x116F JUMPI DUP1 PUSH1 0x1F LT PUSH2 0x1144 JUMPI PUSH2 0x100 DUP1 DUP4 SLOAD DIV MUL DUP4 MSTORE SWAP2 PUSH1 0x20 ADD SWAP2 PUSH2 0x116F JUMP JUMPDEST DUP3 ADD SWAP2 SWAP1 PUSH1 0x0 MSTORE PUSH1 0x20 PUSH1 0x0 KECCAK256 SWAP1 JUMPDEST DUP2 SLOAD DUP2 MSTORE SWAP1 PUSH1 0x1 ADD SWAP1 PUSH1 0x20 ADD DUP1 DUP4 GT PUSH2 0x1152 JUMPI DUP3 SWAP1 SUB PUSH1 0x1F AND DUP3 ADD SWAP2 JUMPDEST POP POP POP POP POP DUP2 MSTORE PUSH1 0x20 ADD PUSH1 0x7 DUP3 ADD DUP1 SLOAD PUSH2 0x1188 SWAP1 PUSH2 0x27BF JUMP JUMPDEST DUP1 PUSH1 0x1F ADD PUSH1 0x20 DUP1 SWAP2 DIV MUL PUSH1 0x20 ADD PUSH1 0x40 MLOAD SWAP1 DUP2 ADD PUSH1 0x40 MSTORE DUP1 SWAP3 SWAP2 SWAP1 DUP2 DUP2 MSTORE PUSH1 0x20 ADD DUP3 DUP1 SLOAD PUSH2 0x11B4 SWAP1 PUSH2 0x27BF JUMP JUMPDEST DUP1 ISZERO PUSH2 0x1201 JUMPI DUP1 PUSH1 0x1F LT PUSH2 0x11D6 JUMPI PUSH2 0x100 DUP1 DUP4 SLOAD DIV MUL DUP4 MSTORE SWAP2 PUSH1 0x20 ADD SWAP2 PUSH2 0x1201 JUMP JUMPDEST DUP3 ADD SWAP2 SWAP1 PUSH1 0x0 MSTORE PUSH1 0x20 PUSH1 0x0 KECCAK256 SWAP1 JUMPDEST DUP2 SLOAD DUP2 MSTORE SWAP1 PUSH1 0x1 ADD SWAP1 PUSH1 0x20 ADD DUP1 DUP4 GT PUSH2 0x11E4 JUMPI DUP3 SWAP1 SUB PUSH1 0x1F AND DUP3 ADD SWAP2 JUMPDEST POP POP POP SWAP2 SWAP1 SWAP3 MSTORE POP POP PUSH1 0x40 DUP1 MLOAD PUSH1 0x60 DUP2 ADD DUP3 MSTORE PUSH1 0x8 DUP6 ADD SLOAD DUP2 MSTORE PUSH1 0x9 SWAP1 SWAP5 ADD SLOAD PUSH1 0x1 PUSH1 0x1 PUSH1 0x40 SHL SUB DUP1 DUP3 AND PUSH1 0x20 DUP8 ADD MSTORE PUSH1 0x1 PUSH1 0x40 SHL SWAP1 SWAP2 DIV AND SWAP1 DUP5 ADD MSTORE POP SWAP1 DUP3 JUMP JUMPDEST PUSH1 0x0 PUSH2 0x1252 TIMESTAMP PUSH3 0x15180 PUSH2 0x2824 JUMP JUMPDEST DUP3 PUSH1 0x80 ADD MLOAD PUSH1 0x1 PUSH1 0x1 PUSH1 0x40 SHL SUB AND GT PUSH2 0x12C6 JUMPI PUSH1 0x40 MLOAD PUSH3 0x461BCD PUSH1 0xE5 SHL DUP2 MSTORE PUSH1 0x20 PUSH1 0x4 DUP3 ADD MSTORE PUSH1 0x30 PUSH1 0x24 DUP3 ADD MSTORE PUSH32 0x4578706972652074696D65206D757374206265206174206C6561737420312064 PUSH1 0x44 DUP3 ADD MSTORE PUSH16 0x617920696E2074686520667574757265 PUSH1 0x80 SHL PUSH1 0x64 DUP3 ADD MSTORE PUSH1 0x84 ADD PUSH2 0x308 JUMP JUMPDEST DUP2 PUSH1 0x40 ADD MLOAD DUP3 PUSH1 0x80 ADD MLOAD DUP4 PUSH1 0x20 ADD MLOAD DUP5 PUSH1 0xA0 ADD MLOAD DUP6 PUSH1 0xC0 ADD MLOAD TIMESTAMP PUSH1 0x40 MLOAD PUSH1 0x20 ADD PUSH2 0x12F5 SWAP7 SWAP6 SWAP5 SWAP4 SWAP3 SWAP2 SWAP1 PUSH2 0x2A03 JUMP JUMPDEST PUSH1 0x40 MLOAD PUSH1 0x20 DUP2 DUP4 SUB SUB DUP2 MSTORE SWAP1 PUSH1 0x40 MSTORE DUP1 MLOAD SWAP1 PUSH1 0x20 ADD KECCAK256 SWAP1 POP DUP1 PUSH1 0x1 DUP4 PUSH1 0xA0 ADD MLOAD PUSH1 0x40 MLOAD PUSH2 0x1322 SWAP2 SWAP1 PUSH2 0x2A69 JUMP JUMPDEST SWAP1 DUP2 MSTORE PUSH1 0x40 DUP1 MLOAD PUSH1 0x20 SWAP3 DUP2 SWAP1 SUB DUP4 ADD SWAP1 KECCAK256 SWAP3 SWAP1 SWAP3 SSTORE PUSH1 0x0 DUP4 DUP2 MSTORE SWAP1 DUP2 SWAP1 MSTORE KECCAK256 PUSH1 0x1 ADD SLOAD ISZERO PUSH2 0x1388 JUMPI PUSH1 0x40 MLOAD PUSH3 0x461BCD PUSH1 0xE5 SHL DUP2 MSTORE PUSH1 0x20 PUSH1 0x4 DUP3 ADD MSTORE PUSH1 0x13 PUSH1 0x24 DUP3 ADD MSTORE PUSH19 0x46696C6520616C726561647920657869737473 PUSH1 0x68 SHL PUSH1 0x44 DUP3 ADD MSTORE PUSH1 0x64 ADD PUSH2 0x308 JUMP JUMPDEST PUSH1 0x40 MLOAD DUP1 PUSH2 0x140 ADD PUSH1 0x40 MSTORE DUP1 CALLER PUSH1 0x1 PUSH1 0x1 PUSH1 0xA0 SHL SUB AND DUP2 MSTORE PUSH1 0x20 ADD DUP4 PUSH1 0x20 ADD MLOAD DUP2 MSTORE PUSH1 0x20 ADD DUP4 PUSH1 0x40 ADD MLOAD PUSH1 0x1 PUSH1 0x1 PUSH1 0x40 SHL SUB AND DUP2 MSTORE PUSH1 0x20 ADD DUP4 PUSH1 0x60 ADD MLOAD PUSH1 0x1 PUSH1 0x1 PUSH1 0x40 SHL SUB AND DUP2 MSTORE PUSH1 0x20 ADD DUP4 PUSH1 0x80 ADD MLOAD PUSH1 0x1 PUSH1 0x1 PUSH1 0x40 SHL SUB AND DUP2 MSTORE PUSH1 0x20 ADD DUP4 PUSH1 0xA0 ADD MLOAD DUP2 MSTORE PUSH1 0x20 ADD DUP4 PUSH1 0xC0 ADD MLOAD DUP2 MSTORE PUSH1 0x20 ADD PUSH1 0x0 PUSH1 0x3 DUP2 GT ISZERO PUSH2 0x140D JUMPI PUSH2 0x140D PUSH2 0x2109 JUMP JUMPDEST DUP2 MSTORE PUSH2 0x100 DUP5 ADD MLOAD PUSH1 0x20 DUP1 DUP4 ADD SWAP2 SWAP1 SWAP2 MSTORE PUSH2 0x120 DUP6 ADD MLOAD PUSH1 0x40 SWAP3 DUP4 ADD MSTORE PUSH1 0x0 DUP5 DUP2 MSTORE DUP1 DUP3 MSTORE DUP3 SWAP1 KECCAK256 DUP4 MLOAD DUP2 SLOAD PUSH1 0x1 PUSH1 0x1 PUSH1 0xA0 SHL SUB SWAP1 SWAP2 AND PUSH1 0x1 PUSH1 0x1 PUSH1 0xA0 SHL SUB NOT SWAP1 SWAP2 AND OR DUP2 SSTORE SWAP1 DUP4 ADD MLOAD PUSH1 0x1 DUP3 ADD SSTORE SWAP1 DUP3 ADD MLOAD PUSH1 0x2 DUP3 ADD DUP1 SLOAD PUSH1 0x60 DUP6 ADD MLOAD PUSH1 0x80 DUP7 ADD MLOAD PUSH1 0x1 PUSH1 0x1 PUSH1 0x40 SHL SUB SWAP1 DUP2 AND PUSH1 0x1 PUSH1 0x80 SHL MUL PUSH1 0x1 PUSH1 0x80 SHL PUSH1 0x1 PUSH1 0xC0 SHL SUB NOT SWAP3 DUP3 AND PUSH1 0x1 PUSH1 0x40 SHL MUL PUSH1 0x1 PUSH1 0x1 PUSH1 0x80 SHL SUB NOT SWAP1 SWAP5 AND SWAP2 SWAP1 SWAP6 AND OR SWAP2 SWAP1 SWAP2 OR AND SWAP2 SWAP1 SWAP2 OR SWAP1 SSTORE PUSH1 0xA0 DUP3 ADD MLOAD PUSH1 0x3 DUP3 ADD SWAP1 PUSH2 0x14C6 SWAP1 DUP3 PUSH2 0x28AC JUMP JUMPDEST POP PUSH1 0xC0 DUP3 ADD MLOAD PUSH1 0x4 DUP3 ADD SWAP1 PUSH2 0x14DB SWAP1 DUP3 PUSH2 0x28AC JUMP JUMPDEST POP PUSH1 0xE0 DUP3 ADD MLOAD PUSH1 0x5 DUP3 ADD DUP1 SLOAD PUSH1 0xFF NOT AND PUSH1 0x1 DUP4 PUSH1 0x3 DUP2 GT ISZERO PUSH2 0x14FF JUMPI PUSH2 0x14FF PUSH2 0x2109 JUMP JUMPDEST MUL OR SWAP1 SSTORE POP PUSH2 0x100 DUP3 ADD MLOAD PUSH1 0x6 DUP3 ADD SWAP1 PUSH2 0x1519 SWAP1 DUP3 PUSH2 0x28AC JUMP JUMPDEST POP PUSH2 0x120 DUP3 ADD MLOAD PUSH1 0x7 DUP3 ADD SWAP1 PUSH2 0x152F SWAP1 DUP3 PUSH2 0x28AC JUMP JUMPDEST POP POP PUSH1 0x40 DUP1 MLOAD PUSH1 0x60 DUP2 ADD DUP3 MSTORE PUSH1 0x0 DUP1 DUP3 MSTORE PUSH1 0x20 DUP1 DUP4 ADD DUP3 DUP2 MSTORE DUP4 DUP6 ADD DUP4 DUP2 MSTORE DUP8 DUP5 MSTORE SWAP2 DUP4 SWAP1 MSTORE SWAP2 DUP5 SWAP1 KECCAK256 SWAP3 MLOAD PUSH1 0x8 DUP5 ADD SSTORE SWAP1 MLOAD PUSH1 0x9 SWAP1 SWAP3 ADD DUP1 SLOAD SWAP2 MLOAD PUSH1 0x1 PUSH1 0x1 PUSH1 0x40 SHL SUB SWAP1 DUP2 AND PUSH1 0x1 PUSH1 0x40 SHL MUL PUSH1 0x1 PUSH1 0x1 PUSH1 0x80 SHL SUB NOT SWAP1 SWAP4 AND SWAP4 AND SWAP3 SWAP1 SWAP3 OR OR SWAP1 SSTORE PUSH1 0xA0 DUP5 ADD MLOAD DUP5 DUP3 ADD MLOAD SWAP2 MLOAD DUP5 SWAP4 POP PUSH32 0x7F2DB28BB9CDBD41F93B3953994DE4298CC665DDA981F021C84FC9B4B367F11E SWAP3 PUSH2 0x15CB SWAP3 SWAP2 PUSH2 0x2A85 JUMP JUMPDEST PUSH1 0x40 MLOAD DUP1 SWAP2 SUB SWAP1 LOG2 SWAP2 SWAP1 POP JUMP JUMPDEST PUSH1 0x60 DUP2 MLOAD PUSH1 0x1 PUSH1 0x1 PUSH1 0x40 SHL SUB DUP2 GT ISZERO PUSH2 0x15F3 JUMPI PUSH2 0x15F3 PUSH2 0x1E1A JUMP JUMPDEST PUSH1 0x40 MLOAD SWAP1 DUP1 DUP3 MSTORE DUP1 PUSH1 0x20 MUL PUSH1 0x20 ADD DUP3 ADD PUSH1 0x40 MSTORE DUP1 ISZERO PUSH2 0x162C JUMPI DUP2 PUSH1 0x20 ADD JUMPDEST PUSH2 0x1619 PUSH2 0x1D72 JUMP JUMPDEST DUP2 MSTORE PUSH1 0x20 ADD SWAP1 PUSH1 0x1 SWAP1 SUB SWAP1 DUP2 PUSH2 0x1611 JUMPI SWAP1 POP JUMPDEST POP SWAP1 POP PUSH1 0x0 JUMPDEST DUP3 MLOAD DUP2 LT ISZERO PUSH2 0x1979 JUMPI PUSH1 0x0 DUP1 PUSH1 0x0 DUP6 DUP5 DUP2 MLOAD DUP2 LT PUSH2 0x1652 JUMPI PUSH2 0x1652 PUSH2 0x277A JUMP JUMPDEST PUSH1 0x20 SWAP1 DUP2 MUL SWAP2 SWAP1 SWAP2 ADD DUP2 ADD MLOAD DUP3 MSTORE DUP2 DUP2 ADD SWAP3 SWAP1 SWAP3 MSTORE PUSH1 0x40 SWAP1 DUP2 ADD PUSH1 0x0 KECCAK256 DUP2 MLOAD PUSH2 0x140 DUP2 ADD DUP4 MSTORE DUP2 SLOAD PUSH1 0x1 PUSH1 0x1 PUSH1 0xA0 SHL SUB AND DUP2 MSTORE PUSH1 0x1 DUP3 ADD SLOAD SWAP4 DUP2 ADD SWAP4 SWAP1 SWAP4 MSTORE PUSH1 0x2 DUP2 ADD SLOAD PUSH1 0x1 PUSH1 0x1 PUSH1 0x40 SHL SUB DUP1 DUP3 AND SWAP4 DUP6 ADD SWAP4 SWAP1 SWAP4 MSTORE PUSH1 0x1 PUSH1 0x40 SHL DUP2 DIV DUP4 AND PUSH1 0x60 DUP6 ADD MSTORE PUSH1 0x1 PUSH1 0x80 SHL SWAP1 DIV SWAP1 SWAP2 AND PUSH1 0x80 DUP4 ADD MSTORE PUSH1 0x3 DUP2 ADD DUP1 SLOAD PUSH1 0xA0 DUP5 ADD SWAP2 SWAP1 PUSH2 0x16DA SWAP1 PUSH2 0x27BF JUMP JUMPDEST DUP1 PUSH1 0x1F ADD PUSH1 0x20 DUP1 SWAP2 DIV MUL PUSH1 0x20 ADD PUSH1 0x40 MLOAD SWAP1 DUP2 ADD PUSH1 0x40 MSTORE DUP1 SWAP3 SWAP2 SWAP1 DUP2 DUP2 MSTORE PUSH1 0x20 ADD DUP3 DUP1 SLOAD PUSH2 0x1706 SWAP1 PUSH2 0x27BF JUMP JUMPDEST DUP1 ISZERO PUSH2 0x1753 JUMPI DUP1 PUSH1 0x1F LT PUSH2 0x1728 JUMPI PUSH2 0x100 DUP1 DUP4 SLOAD DIV MUL DUP4 MSTORE SWAP2 PUSH1 0x20 ADD SWAP2 PUSH2 0x1753 JUMP JUMPDEST DUP3 ADD SWAP2 SWAP1 PUSH1 0x0 MSTORE PUSH1 0x20 PUSH1 0x0 KECCAK256 SWAP1 JUMPDEST DUP2 SLOAD DUP2 MSTORE SWAP1 PUSH1 0x1 ADD SWAP1 PUSH1 0x20 ADD DUP1 DUP4 GT PUSH2 0x1736 JUMPI DUP3 SWAP1 SUB PUSH1 0x1F AND DUP3 ADD SWAP2 JUMPDEST POP POP POP POP POP DUP2 MSTORE PUSH1 0x20 ADD PUSH1 0x4 DUP3 ADD DUP1 SLOAD PUSH2 0x176C SWAP1 PUSH2 0x27BF JUMP JUMPDEST DUP1 PUSH1 0x1F ADD PUSH1 0x20 DUP1 SWAP2 DIV MUL PUSH1 0x20 ADD PUSH1 0x40 MLOAD SWAP1 DUP2 ADD PUSH1 0x40 MSTORE DUP1 SWAP3 SWAP2 SWAP1 DUP2 DUP2 MSTORE PUSH1 0x20 ADD DUP3 DUP1 SLOAD PUSH2 0x1798 SWAP1 PUSH2 0x27BF JUMP JUMPDEST DUP1 ISZERO PUSH2 0x17E5 JUMPI DUP1 PUSH1 0x1F LT PUSH2 0x17BA JUMPI PUSH2 0x100 DUP1 DUP4 SLOAD DIV MUL DUP4 MSTORE SWAP2 PUSH1 0x20 ADD SWAP2 PUSH2 0x17E5 JUMP JUMPDEST DUP3 ADD SWAP2 SWAP1 PUSH1 0x0 MSTORE PUSH1 0x20 PUSH1 0x0 KECCAK256 SWAP1 JUMPDEST DUP2 SLOAD DUP2 MSTORE SWAP1 PUSH1 0x1 ADD SWAP1 PUSH1 0x20 ADD DUP1 DUP4 GT PUSH2 0x17C8 JUMPI DUP3 SWAP1 SUB PUSH1 0x1F AND DUP3 ADD SWAP2 JUMPDEST POP POP POP SWAP2 DUP4 MSTORE POP POP PUSH1 0x5 DUP3 ADD SLOAD PUSH1 0x20 SWAP1 SWAP2 ADD SWAP1 PUSH1 0xFF AND PUSH1 0x3 DUP2 GT ISZERO PUSH2 0x180C JUMPI PUSH2 0x180C PUSH2 0x2109 JUMP JUMPDEST PUSH1 0x3 DUP2 GT ISZERO PUSH2 0x181D JUMPI PUSH2 0x181D PUSH2 0x2109 JUMP JUMPDEST DUP2 MSTORE PUSH1 0x20 ADD PUSH1 0x6 DUP3 ADD DUP1 SLOAD PUSH2 0x1831 SWAP1 PUSH2 0x27BF JUMP JUMPDEST DUP1 PUSH1 0x1F ADD PUSH1 0x20 DUP1 SWAP2 DIV MUL PUSH1 0x20 ADD PUSH1 0x40 MLOAD SWAP1 DUP2 ADD PUSH1 0x40 MSTORE DUP1 SWAP3 SWAP2 SWAP1 DUP2 DUP2 MSTORE PUSH1 0x20 ADD DUP3 DUP1 SLOAD PUSH2 0x185D SWAP1 PUSH2 0x27BF JUMP JUMPDEST DUP1 ISZERO PUSH2 0x18AA JUMPI DUP1 PUSH1 0x1F LT PUSH2 0x187F JUMPI PUSH2 0x100 DUP1 DUP4 SLOAD DIV MUL DUP4 MSTORE SWAP2 PUSH1 0x20 ADD SWAP2 PUSH2 0x18AA JUMP JUMPDEST DUP3 ADD SWAP2 SWAP1 PUSH1 0x0 MSTORE PUSH1 0x20 PUSH1 0x0 KECCAK256 SWAP1 JUMPDEST DUP2 SLOAD DUP2 MSTORE SWAP1 PUSH1 0x1 ADD SWAP1 PUSH1 0x20 ADD DUP1 DUP4 GT PUSH2 0x188D JUMPI DUP3 SWAP1 SUB PUSH1 0x1F AND DUP3 ADD SWAP2 JUMPDEST POP POP POP POP POP DUP2 MSTORE PUSH1 0x20 ADD PUSH1 0x7 DUP3 ADD DUP1 SLOAD PUSH2 0x18C3 SWAP1 PUSH2 0x27BF JUMP JUMPDEST DUP1 PUSH1 0x1F ADD PUSH1 0x20 DUP1 SWAP2 DIV MUL PUSH1 0x20 ADD PUSH1 0x40 MLOAD SWAP1 DUP2 ADD PUSH1 0x40 MSTORE DUP1 SWAP3 SWAP2 SWAP1 DUP2 DUP2 MSTORE PUSH1 0x20 ADD DUP3 DUP1 SLOAD PUSH2 0x18EF SWAP1 PUSH2 0x27BF JUMP JUMPDEST DUP1 ISZERO PUSH2 0x193C JUMPI DUP1 PUSH1 0x1F LT PUSH2 0x1911 JUMPI PUSH2 0x100 DUP1 DUP4 SLOAD DIV MUL DUP4 MSTORE SWAP2 PUSH1 0x20 ADD SWAP2 PUSH2 0x193C JUMP JUMPDEST DUP3 ADD SWAP2 SWAP1 PUSH1 0x0 MSTORE PUSH1 0x20 PUSH1 0x0 KECCAK256 SWAP1 JUMPDEST DUP2 SLOAD DUP2 MSTORE SWAP1 PUSH1 0x1 ADD SWAP1 PUSH1 0x20 ADD DUP1 DUP4 GT PUSH2 0x191F JUMPI DUP3 SWAP1 SUB PUSH1 0x1F AND DUP3 ADD SWAP2 JUMPDEST POP POP POP POP POP DUP2 MSTORE POP POP SWAP1 POP DUP1 DUP4 DUP4 DUP2 MLOAD DUP2 LT PUSH2 0x195A JUMPI PUSH2 0x195A PUSH2 0x277A JUMP JUMPDEST PUSH1 0x20 MUL PUSH1 0x20 ADD ADD DUP2 SWAP1 MSTORE POP POP DUP1 DUP1 PUSH2 0x1971 SWAP1 PUSH2 0x27A6 JUMP JUMPDEST SWAP2 POP POP PUSH2 0x1632 JUMP JUMPDEST POP SWAP2 SWAP1 POP JUMP JUMPDEST PUSH1 0x60 PUSH1 0x0 DUP3 MLOAD PUSH1 0x1 PUSH1 0x1 PUSH1 0x40 SHL SUB DUP2 GT ISZERO PUSH2 0x199C JUMPI PUSH2 0x199C PUSH2 0x1E1A JUMP JUMPDEST PUSH1 0x40 MLOAD SWAP1 DUP1 DUP3 MSTORE DUP1 PUSH1 0x20 MUL PUSH1 0x20 ADD DUP3 ADD PUSH1 0x40 MSTORE DUP1 ISZERO PUSH2 0x19C5 JUMPI DUP2 PUSH1 0x20 ADD PUSH1 0x20 DUP3 MUL DUP1 CALLDATASIZE DUP4 CALLDATACOPY ADD SWAP1 POP JUMPDEST POP SWAP1 POP PUSH1 0x0 JUMPDEST DUP4 MLOAD DUP2 LT ISZERO PUSH2 0xC81 JUMPI PUSH1 0x1 DUP5 DUP3 DUP2 MLOAD DUP2 LT PUSH2 0x19E8 JUMPI PUSH2 0x19E8 PUSH2 0x277A JUMP JUMPDEST PUSH1 0x20 MUL PUSH1 0x20 ADD ADD MLOAD PUSH1 0x40 MLOAD PUSH2 0x19FD SWAP2 SWAP1 PUSH2 0x2A69 JUMP JUMPDEST SWAP1 DUP2 MSTORE PUSH1 0x20 ADD PUSH1 0x40 MLOAD DUP1 SWAP2 SUB SWAP1 KECCAK256 SLOAD DUP3 DUP3 DUP2 MLOAD DUP2 LT PUSH2 0x1A1E JUMPI PUSH2 0x1A1E PUSH2 0x277A JUMP JUMPDEST PUSH1 0x20 SWAP1 DUP2 MUL SWAP2 SWAP1 SWAP2 ADD ADD MSTORE DUP1 PUSH2 0x1A33 DUP2 PUSH2 0x27A6 JUMP JUMPDEST SWAP2 POP POP PUSH2 0x19CB JUMP JUMPDEST PUSH1 0x0 DUP4 DUP2 MSTORE PUSH1 0x20 DUP2 SWAP1 MSTORE PUSH1 0x40 SWAP1 KECCAK256 PUSH1 0x60 SWAP1 PUSH1 0x1 PUSH1 0x5 DUP3 ADD SLOAD PUSH1 0xFF AND PUSH1 0x3 DUP2 GT ISZERO PUSH2 0x1A67 JUMPI PUSH2 0x1A67 PUSH2 0x2109 JUMP JUMPDEST EQ PUSH2 0x1AAE JUMPI PUSH1 0x40 MLOAD PUSH3 0x461BCD PUSH1 0xE5 SHL DUP2 MSTORE PUSH1 0x20 PUSH1 0x4 DUP3 ADD MSTORE PUSH1 0x17 PUSH1 0x24 DUP3 ADD MSTORE PUSH23 0x119A5B19481D5C1B1BD859081B9BDD081858DD1A5D9959 PUSH1 0x4A SHL PUSH1 0x44 DUP3 ADD MSTORE PUSH1 0x64 ADD PUSH2 0x308 JUMP JUMPDEST PUSH1 0x2 DUP2 ADD SLOAD PUSH1 0x1 PUSH1 0x1 PUSH1 0x40 SHL SUB AND PUSH2 0x1AFE JUMPI PUSH1 0x40 MLOAD PUSH3 0x461BCD PUSH1 0xE5 SHL DUP2 MSTORE PUSH1 0x20 PUSH1 0x4 DUP3 ADD MSTORE PUSH1 0x13 PUSH1 0x24 DUP3 ADD MSTORE PUSH19 0x119A5B1948191BD95CC81B9BDD08195E1A5CDD PUSH1 0x6A SHL PUSH1 0x44 DUP3 ADD MSTORE PUSH1 0x64 ADD PUSH2 0x308 JUMP JUMPDEST PUSH1 0x2 DUP2 ADD SLOAD PUSH1 0x1 PUSH1 0x40 SHL SWAP1 DIV PUSH1 0x1 PUSH1 0x1 PUSH1 0x40 SHL SUB AND DUP5 LT PUSH2 0x1B5C JUMPI PUSH1 0x40 MLOAD PUSH3 0x461BCD PUSH1 0xE5 SHL DUP2 MSTORE PUSH1 0x20 PUSH1 0x4 DUP3 ADD MSTORE PUSH1 0x18 PUSH1 0x24 DUP3 ADD MSTORE PUSH24 0x537461727420696E646578206F7574206F662072616E6765 PUSH1 0x40 SHL PUSH1 0x44 DUP3 ADD MSTORE PUSH1 0x64 ADD PUSH2 0x308 JUMP JUMPDEST PUSH1 0x0 DUP4 GT PUSH2 0x1BAC JUMPI PUSH1 0x40 MLOAD PUSH3 0x461BCD PUSH1 0xE5 SHL DUP2 MSTORE PUSH1 0x20 PUSH1 0x4 DUP3 ADD MSTORE PUSH1 0x1F PUSH1 0x24 DUP3 ADD MSTORE PUSH32 0x4C696D6974206D7573742062652067726561746572207468616E207A65726F00 PUSH1 0x44 DUP3 ADD MSTORE PUSH1 0x64 ADD PUSH2 0x308 JUMP JUMPDEST PUSH1 0x2 DUP2 ADD SLOAD PUSH1 0x1 PUSH1 0x80 SHL SWAP1 DIV PUSH1 0x1 PUSH1 0x1 PUSH1 0x40 SHL SUB AND TIMESTAMP GT ISZERO PUSH2 0x1BE0 JUMPI PUSH1 0x40 MLOAD PUSH3 0x461BCD PUSH1 0xE5 SHL DUP2 MSTORE PUSH1 0x4 ADD PUSH2 0x308 SWAP1 PUSH2 0x29D9 JUMP JUMPDEST PUSH1 0x2 DUP2 ADD SLOAD PUSH1 0x0 SWAP1 PUSH1 0x1 PUSH1 0x40 SHL SWAP1 DIV PUSH1 0x1 PUSH1 0x1 PUSH1 0x40 SHL SUB AND PUSH2 0x1C02 DUP6 DUP8 PUSH2 0x2824 JUMP JUMPDEST GT PUSH2 0x1C16 JUMPI PUSH2 0x1C11 DUP5 DUP7 PUSH2 0x2824 JUMP JUMPDEST PUSH2 0x1C2C JUMP JUMPDEST PUSH1 0x2 DUP3 ADD SLOAD PUSH1 0x1 PUSH1 0x40 SHL SWAP1 DIV PUSH1 0x1 PUSH1 0x1 PUSH1 0x40 SHL SUB AND JUMPDEST SWAP1 POP PUSH1 0x0 PUSH2 0x1C3A DUP7 DUP4 PUSH2 0x2AAF JUMP JUMPDEST PUSH1 0x1 PUSH1 0x1 PUSH1 0x40 SHL SUB DUP2 GT ISZERO PUSH2 0x1C51 JUMPI PUSH2 0x1C51 PUSH2 0x1E1A JUMP JUMPDEST PUSH1 0x40 MLOAD SWAP1 DUP1 DUP3 MSTORE DUP1 PUSH1 0x20 MUL PUSH1 0x20 ADD DUP3 ADD PUSH1 0x40 MSTORE DUP1 ISZERO PUSH2 0x1C84 JUMPI DUP2 PUSH1 0x20 ADD JUMPDEST PUSH1 0x60 DUP2 MSTORE PUSH1 0x20 ADD SWAP1 PUSH1 0x1 SWAP1 SUB SWAP1 DUP2 PUSH2 0x1C6F JUMPI SWAP1 POP JUMPDEST POP SWAP1 POP DUP6 JUMPDEST DUP3 DUP2 LT ISZERO PUSH2 0x1D65 JUMPI PUSH1 0x0 DUP2 DUP2 MSTORE PUSH1 0xA DUP6 ADD PUSH1 0x20 MSTORE PUSH1 0x40 SWAP1 KECCAK256 DUP1 SLOAD PUSH2 0x1CAC SWAP1 PUSH2 0x27BF JUMP JUMPDEST DUP1 PUSH1 0x1F ADD PUSH1 0x20 DUP1 SWAP2 DIV MUL PUSH1 0x20 ADD PUSH1 0x40 MLOAD SWAP1 DUP2 ADD PUSH1 0x40 MSTORE DUP1 SWAP3 SWAP2 SWAP1 DUP2 DUP2 MSTORE PUSH1 0x20 ADD DUP3 DUP1 SLOAD PUSH2 0x1CD8 SWAP1 PUSH2 0x27BF JUMP JUMPDEST DUP1 ISZERO PUSH2 0x1D25 JUMPI DUP1 PUSH1 0x1F LT PUSH2 0x1CFA JUMPI PUSH2 0x100 DUP1 DUP4 SLOAD DIV MUL DUP4 MSTORE SWAP2 PUSH1 0x20 ADD SWAP2 PUSH2 0x1D25 JUMP JUMPDEST DUP3 ADD SWAP2 SWAP1 PUSH1 0x0 MSTORE PUSH1 0x20 PUSH1 0x0 KECCAK256 SWAP1 JUMPDEST DUP2 SLOAD DUP2 MSTORE SWAP1 PUSH1 0x1 ADD SWAP1 PUSH1 0x20 ADD DUP1 DUP4 GT PUSH2 0x1D08 JUMPI DUP3 SWAP1 SUB PUSH1 0x1F AND DUP3 ADD SWAP2 JUMPDEST POP POP POP POP POP DUP3 DUP9 DUP4 PUSH2 0x1D37 SWAP2 SWAP1 PUSH2 0x2AAF JUMP JUMPDEST DUP2 MLOAD DUP2 LT PUSH2 0x1D47 JUMPI PUSH2 0x1D47 PUSH2 0x277A JUMP JUMPDEST PUSH1 0x20 MUL PUSH1 0x20 ADD ADD DUP2 SWAP1 MSTORE POP DUP1 DUP1 PUSH2 0x1D5D SWAP1 PUSH2 0x27A6 JUMP JUMPDEST SWAP2 POP POP PUSH2 0x1C89 JUMP JUMPDEST POP SWAP3 POP POP POP JUMPDEST SWAP4 SWAP3 POP POP POP JUMP JUMPDEST PUSH1 0x40 DUP1 MLOAD PUSH2 0x140 DUP2 ADD DUP3 MSTORE PUSH1 0x0 DUP1 DUP3 MSTORE PUSH1 0x20 DUP3 ADD DUP2 SWAP1 MSTORE SWAP2 DUP2 ADD DUP3 SWAP1 MSTORE PUSH1 0x60 DUP1 DUP3 ADD DUP4 SWAP1 MSTORE PUSH1 0x80 DUP3 ADD DUP4 SWAP1 MSTORE PUSH1 0xA0 DUP3 ADD DUP2 SWAP1 MSTORE PUSH1 0xC0 DUP3 ADD MSTORE SWAP1 PUSH1 0xE0 DUP3 ADD SWAP1 DUP2 MSTORE PUSH1 0x20 ADD PUSH1 0x60 DUP2 MSTORE PUSH1 0x20 ADD PUSH1 0x60 DUP2 MSTORE POP SWAP1 JUMP JUMPDEST POP DUP1 SLOAD PUSH2 0x1DD0 SWAP1 PUSH2 0x27BF JUMP JUMPDEST PUSH1 0x0 DUP3 SSTORE DUP1 PUSH1 0x1F LT PUSH2 0x1DE0 JUMPI POP POP JUMP JUMPDEST PUSH1 0x1F ADD PUSH1 0x20 SWAP1 DIV SWAP1 PUSH1 0x0 MSTORE PUSH1 0x20 PUSH1 0x0 KECCAK256 SWAP1 DUP2 ADD SWAP1 PUSH2 0x1DFE SWAP2 SWAP1 PUSH2 0x1E01 JUMP JUMPDEST POP JUMP JUMPDEST JUMPDEST DUP1 DUP3 GT ISZERO PUSH2 0x1E16 JUMPI PUSH1 0x0 DUP2 SSTORE PUSH1 0x1 ADD PUSH2 0x1E02 JUMP JUMPDEST POP SWAP1 JUMP JUMPDEST PUSH4 0x4E487B71 PUSH1 0xE0 SHL PUSH1 0x0 MSTORE PUSH1 0x41 PUSH1 0x4 MSTORE PUSH1 0x24 PUSH1 0x0 REVERT JUMPDEST PUSH1 0x40 MLOAD PUSH2 0x140 DUP2 ADD PUSH1 0x1 PUSH1 0x1 PUSH1 0x40 SHL SUB DUP2 GT DUP3 DUP3 LT OR ISZERO PUSH2 0x1E53 JUMPI PUSH2 0x1E53 PUSH2 0x1E1A JUMP JUMPDEST PUSH1 0x40 MSTORE SWAP1 JUMP JUMPDEST PUSH1 0x40 MLOAD PUSH1 0x1F DUP3 ADD PUSH1 0x1F NOT AND DUP2 ADD PUSH1 0x1 PUSH1 0x1 PUSH1 0x40 SHL SUB DUP2 GT DUP3 DUP3 LT OR ISZERO PUSH2 0x1E81 JUMPI PUSH2 0x1E81 PUSH2 0x1E1A JUMP JUMPDEST PUSH1 0x40 MSTORE SWAP2 SWAP1 POP JUMP JUMPDEST PUSH1 0x0 PUSH1 0x1 PUSH1 0x1 PUSH1 0x40 SHL SUB DUP3 GT ISZERO PUSH2 0x1EA2 JUMPI PUSH2 0x1EA2 PUSH2 0x1E1A JUMP JUMPDEST POP PUSH1 0x5 SHL PUSH1 0x20 ADD SWAP1 JUMP JUMPDEST PUSH1 0x0 DUP3 PUSH1 0x1F DUP4 ADD SLT PUSH2 0x1EBD JUMPI PUSH1 0x0 DUP1 REVERT JUMPDEST DUP2 CALLDATALOAD PUSH1 0x1 PUSH1 0x1 PUSH1 0x40 SHL SUB DUP2 GT ISZERO PUSH2 0x1ED6 JUMPI PUSH2 0x1ED6 PUSH2 0x1E1A JUMP JUMPDEST PUSH2 0x1EE9 PUSH1 0x1F DUP3 ADD PUSH1 0x1F NOT AND PUSH1 0x20 ADD PUSH2 0x1E59 JUMP JUMPDEST DUP2 DUP2 MSTORE DUP5 PUSH1 0x20 DUP4 DUP7 ADD ADD GT ISZERO PUSH2 0x1EFE JUMPI PUSH1 0x0 DUP1 REVERT JUMPDEST DUP2 PUSH1 0x20 DUP6 ADD PUSH1 0x20 DUP4 ADD CALLDATACOPY PUSH1 0x0 SWAP2 DUP2 ADD PUSH1 0x20 ADD SWAP2 SWAP1 SWAP2 MSTORE SWAP4 SWAP3 POP POP POP JUMP JUMPDEST PUSH1 0x0 DUP3 PUSH1 0x1F DUP4 ADD SLT PUSH2 0x1F2C JUMPI PUSH1 0x0 DUP1 REVERT JUMPDEST DUP2 CALLDATALOAD PUSH1 0x20 PUSH2 0x1F41 PUSH2 0x1F3C DUP4 PUSH2 0x1E89 JUMP JUMPDEST PUSH2 0x1E59 JUMP JUMPDEST DUP3 DUP2 MSTORE PUSH1 0x5 SWAP3 SWAP1 SWAP3 SHL DUP5 ADD DUP2 ADD SWAP2 DUP2 DUP2 ADD SWAP1 DUP7 DUP5 GT ISZERO PUSH2 0x1F60 JUMPI PUSH1 0x0 DUP1 REVERT JUMPDEST DUP3 DUP7 ADD JUMPDEST DUP5 DUP2 LT ISZERO PUSH2 0x1F7B JUMPI DUP1 CALLDATALOAD DUP4 MSTORE SWAP2 DUP4 ADD SWAP2 DUP4 ADD PUSH2 0x1F64 JUMP JUMPDEST POP SWAP7 SWAP6 POP POP POP POP POP POP JUMP JUMPDEST PUSH1 0x0 DUP1 PUSH1 0x0 PUSH1 0x60 DUP5 DUP7 SUB SLT ISZERO PUSH2 0x1F9B JUMPI PUSH1 0x0 DUP1 REVERT JUMPDEST DUP4 CALLDATALOAD SWAP3 POP PUSH1 0x20 DUP1 DUP6 ADD CALLDATALOAD PUSH1 0x1 PUSH1 0x1 PUSH1 0x40 SHL SUB DUP1 DUP3 GT ISZERO PUSH2 0x1FBA JUMPI PUSH1 0x0 DUP1 REVERT JUMPDEST DUP2 DUP8 ADD SWAP2 POP DUP8 PUSH1 0x1F DUP4 ADD SLT PUSH2 0x1FCE JUMPI PUSH1 0x0 DUP1 REVERT JUMPDEST DUP2 CALLDATALOAD PUSH2 0x1FDC PUSH2 0x1F3C DUP3 PUSH2 0x1E89 JUMP JUMPDEST DUP2 DUP2 MSTORE PUSH1 0x5 SWAP2 SWAP1 SWAP2 SHL DUP4 ADD DUP5 ADD SWAP1 DUP5 DUP2 ADD SWAP1 DUP11 DUP4 GT ISZERO PUSH2 0x1FFB JUMPI PUSH1 0x0 DUP1 REVERT JUMPDEST DUP6 DUP6 ADD JUMPDEST DUP4 DUP2 LT ISZERO PUSH2 0x2033 JUMPI DUP1 CALLDATALOAD DUP6 DUP2 GT ISZERO PUSH2 0x2017 JUMPI PUSH1 0x0 DUP1 DUP2 REVERT JUMPDEST PUSH2 0x2025 DUP14 DUP10 DUP4 DUP11 ADD ADD PUSH2 0x1EAC JUMP JUMPDEST DUP5 MSTORE POP SWAP2 DUP7 ADD SWAP2 DUP7 ADD PUSH2 0x1FFF JUMP JUMPDEST POP SWAP7 POP POP POP PUSH1 0x40 DUP8 ADD CALLDATALOAD SWAP3 POP DUP1 DUP4 GT ISZERO PUSH2 0x204C JUMPI PUSH1 0x0 DUP1 REVERT JUMPDEST POP POP PUSH2 0x205A DUP7 DUP3 DUP8 ADD PUSH2 0x1F1B JUMP JUMPDEST SWAP2 POP POP SWAP3 POP SWAP3 POP SWAP3 JUMP JUMPDEST PUSH1 0x0 PUSH1 0x20 DUP3 DUP5 SUB SLT ISZERO PUSH2 0x2076 JUMPI PUSH1 0x0 DUP1 REVERT JUMPDEST POP CALLDATALOAD SWAP2 SWAP1 POP JUMP JUMPDEST DUP1 MLOAD DUP3 MSTORE PUSH1 0x20 DUP1 DUP3 ADD MLOAD PUSH1 0x1 PUSH1 0x1 PUSH1 0x40 SHL SUB SWAP1 DUP2 AND SWAP2 DUP5 ADD SWAP2 SWAP1 SWAP2 MSTORE PUSH1 0x40 SWAP2 DUP3 ADD MLOAD AND SWAP2 ADD MSTORE JUMP JUMPDEST PUSH1 0x60 DUP2 ADD PUSH2 0x20B3 DUP3 DUP5 PUSH2 0x207D JUMP JUMPDEST SWAP3 SWAP2 POP POP JUMP JUMPDEST PUSH1 0x0 JUMPDEST DUP4 DUP2 LT ISZERO PUSH2 0x20D4 JUMPI DUP2 DUP2 ADD MLOAD DUP4 DUP3 ADD MSTORE PUSH1 0x20 ADD PUSH2 0x20BC JUMP JUMPDEST POP POP PUSH1 0x0 SWAP2 ADD MSTORE JUMP JUMPDEST PUSH1 0x0 DUP2 MLOAD DUP1 DUP5 MSTORE PUSH2 0x20F5 DUP2 PUSH1 0x20 DUP7 ADD PUSH1 0x20 DUP7 ADD PUSH2 0x20B9 JUMP JUMPDEST PUSH1 0x1F ADD PUSH1 0x1F NOT AND SWAP3 SWAP1 SWAP3 ADD PUSH1 0x20 ADD SWAP3 SWAP2 POP POP JUMP JUMPDEST PUSH4 0x4E487B71 PUSH1 0xE0 SHL PUSH1 0x0 MSTORE PUSH1 0x21 PUSH1 0x4 MSTORE PUSH1 0x24 PUSH1 0x0 REVERT JUMPDEST PUSH1 0x4 DUP2 LT PUSH2 0x213D JUMPI PUSH4 0x4E487B71 PUSH1 0xE0 SHL PUSH1 0x0 MSTORE PUSH1 0x21 PUSH1 0x4 MSTORE PUSH1 0x24 PUSH1 0x0 REVERT JUMPDEST SWAP1 MSTORE JUMP JUMPDEST DUP1 MLOAD PUSH1 0x1 PUSH1 0x1 PUSH1 0xA0 SHL SUB AND DUP3 MSTORE PUSH1 0x0 PUSH2 0x140 PUSH1 0x20 DUP4 ADD MLOAD PUSH1 0x20 DUP6 ADD MSTORE PUSH1 0x40 DUP4 ADD MLOAD PUSH2 0x2177 PUSH1 0x40 DUP7 ADD DUP3 PUSH1 0x1 PUSH1 0x1 PUSH1 0x40 SHL SUB AND SWAP1 MSTORE JUMP JUMPDEST POP PUSH1 0x60 DUP4 ADD MLOAD PUSH2 0x2192 PUSH1 0x60 DUP7 ADD DUP3 PUSH1 0x1 PUSH1 0x1 PUSH1 0x40 SHL SUB AND SWAP1 MSTORE JUMP JUMPDEST POP PUSH1 0x80 DUP4 ADD MLOAD PUSH2 0x21AD PUSH1 0x80 DUP7 ADD DUP3 PUSH1 0x1 PUSH1 0x1 PUSH1 0x40 SHL SUB AND SWAP1 MSTORE JUMP JUMPDEST POP PUSH1 0xA0 DUP4 ADD MLOAD DUP2 PUSH1 0xA0 DUP7 ADD MSTORE PUSH2 0x21C5 DUP3 DUP7 ADD DUP3 PUSH2 0x20DD JUMP JUMPDEST SWAP2 POP POP PUSH1 0xC0 DUP4 ADD MLOAD DUP5 DUP3 SUB PUSH1 0xC0 DUP7 ADD MSTORE PUSH2 0x21DF DUP3 DUP3 PUSH2 0x20DD JUMP JUMPDEST SWAP2 POP POP PUSH1 0xE0 DUP4 ADD MLOAD PUSH2 0x21F4 PUSH1 0xE0 DUP7 ADD DUP3 PUSH2 0x211F JUMP JUMPDEST POP PUSH2 0x100 DUP1 DUP5 ADD MLOAD DUP6 DUP4 SUB DUP3 DUP8 ADD MSTORE PUSH2 0x220D DUP4 DUP3 PUSH2 0x20DD JUMP JUMPDEST SWAP3 POP POP POP PUSH2 0x120 DUP1 DUP5 ADD MLOAD DUP6 DUP4 SUB DUP3 DUP8 ADD MSTORE PUSH2 0x2229 DUP4 DUP3 PUSH2 0x20DD JUMP JUMPDEST SWAP7 SWAP6 POP POP POP POP POP POP JUMP JUMPDEST PUSH1 0x20 DUP2 MSTORE PUSH1 0x0 PUSH2 0x1D6B PUSH1 0x20 DUP4 ADD DUP5 PUSH2 0x2141 JUMP JUMPDEST PUSH1 0x0 DUP1 PUSH1 0x0 PUSH1 0x60 DUP5 DUP7 SUB SLT ISZERO PUSH2 0x225B JUMPI PUSH1 0x0 DUP1 REVERT JUMPDEST DUP4 CALLDATALOAD SWAP3 POP PUSH1 0x20 DUP5 ADD CALLDATALOAD PUSH1 0x1 PUSH1 0x1 PUSH1 0x40 SHL SUB DUP2 GT ISZERO PUSH2 0x2278 JUMPI PUSH1 0x0 DUP1 REVERT JUMPDEST PUSH2 0x2284 DUP7 DUP3 DUP8 ADD PUSH2 0x1EAC JUMP JUMPDEST SWAP3 POP POP PUSH1 0x40 DUP5 ADD CALLDATALOAD SWAP1 POP SWAP3 POP SWAP3 POP SWAP3 JUMP JUMPDEST DUP1 CALLDATALOAD PUSH1 0x1 PUSH1 0x1 PUSH1 0xA0 SHL SUB DUP2 AND DUP2 EQ PUSH2 0x22AC JUMPI PUSH1 0x0 DUP1 REVERT JUMPDEST SWAP2 SWAP1 POP JUMP JUMPDEST DUP1 CALLDATALOAD PUSH1 0x1 PUSH1 0x1 PUSH1 0x40 SHL SUB DUP2 AND DUP2 EQ PUSH2 0x22AC JUMPI PUSH1 0x0 DUP1 REVERT JUMPDEST DUP1 CALLDATALOAD PUSH1 0x4 DUP2 LT PUSH2 0x22AC JUMPI PUSH1 0x0 DUP1 REVERT JUMPDEST PUSH1 0x0 PUSH2 0x140 DUP3 DUP5 SUB SLT ISZERO PUSH2 0x22EA JUMPI PUSH1 0x0 DUP1 REVERT JUMPDEST PUSH2 0x22F2 PUSH2 0x1E30 JUMP JUMPDEST SWAP1 POP PUSH2 0x22FD DUP3 PUSH2 0x2295 JUMP JUMPDEST DUP2 MSTORE PUSH1 0x20 DUP3 ADD CALLDATALOAD PUSH1 0x20 DUP3 ADD MSTORE PUSH2 0x2315 PUSH1 0x40 DUP4 ADD PUSH2 0x22B1 JUMP JUMPDEST PUSH1 0x40 DUP3 ADD MSTORE PUSH2 0x2326 PUSH1 0x60 DUP4 ADD PUSH2 0x22B1 JUMP JUMPDEST PUSH1 0x60 DUP3 ADD MSTORE PUSH2 0x2337 PUSH1 0x80 DUP4 ADD PUSH2 0x22B1 JUMP JUMPDEST PUSH1 0x80 DUP3 ADD MSTORE PUSH1 0xA0 DUP3 ADD CALLDATALOAD PUSH1 0x1 PUSH1 0x1 PUSH1 0x40 SHL SUB DUP1 DUP3 GT ISZERO PUSH2 0x2356 JUMPI PUSH1 0x0 DUP1 REVERT JUMPDEST PUSH2 0x2362 DUP6 DUP4 DUP7 ADD PUSH2 0x1EAC JUMP JUMPDEST PUSH1 0xA0 DUP5 ADD MSTORE PUSH1 0xC0 DUP5 ADD CALLDATALOAD SWAP2 POP DUP1 DUP3 GT ISZERO PUSH2 0x237B JUMPI PUSH1 0x0 DUP1 REVERT JUMPDEST PUSH2 0x2387 DUP6 DUP4 DUP7 ADD PUSH2 0x1EAC JUMP JUMPDEST PUSH1 0xC0 DUP5 ADD MSTORE PUSH2 0x2398 PUSH1 0xE0 DUP6 ADD PUSH2 0x22C8 JUMP JUMPDEST PUSH1 0xE0 DUP5 ADD MSTORE PUSH2 0x100 SWAP2 POP DUP2 DUP5 ADD CALLDATALOAD DUP2 DUP2 GT ISZERO PUSH2 0x23B3 JUMPI PUSH1 0x0 DUP1 REVERT JUMPDEST PUSH2 0x23BF DUP7 DUP3 DUP8 ADD PUSH2 0x1EAC JUMP JUMPDEST DUP4 DUP6 ADD MSTORE POP PUSH2 0x120 SWAP2 POP DUP2 DUP5 ADD CALLDATALOAD DUP2 DUP2 GT ISZERO PUSH2 0x23DA JUMPI PUSH1 0x0 DUP1 REVERT JUMPDEST PUSH2 0x23E6 DUP7 DUP3 DUP8 ADD PUSH2 0x1EAC JUMP JUMPDEST DUP4 DUP6 ADD MSTORE POP POP POP SWAP3 SWAP2 POP POP JUMP JUMPDEST PUSH1 0x0 PUSH1 0x20 DUP1 DUP4 DUP6 SUB SLT ISZERO PUSH2 0x2406 JUMPI PUSH1 0x0 DUP1 REVERT JUMPDEST DUP3 CALLDATALOAD PUSH1 0x1 PUSH1 0x1 PUSH1 0x40 SHL SUB DUP1 DUP3 GT ISZERO PUSH2 0x241D JUMPI PUSH1 0x0 DUP1 REVERT JUMPDEST DUP2 DUP6 ADD SWAP2 POP DUP6 PUSH1 0x1F DUP4 ADD SLT PUSH2 0x2431 JUMPI PUSH1 0x0 DUP1 REVERT JUMPDEST DUP2 CALLDATALOAD PUSH2 0x243F PUSH2 0x1F3C DUP3 PUSH2 0x1E89 JUMP JUMPDEST DUP2 DUP2 MSTORE PUSH1 0x5 SWAP2 SWAP1 SWAP2 SHL DUP4 ADD DUP5 ADD SWAP1 DUP5 DUP2 ADD SWAP1 DUP9 DUP4 GT ISZERO PUSH2 0x245E JUMPI PUSH1 0x0 DUP1 REVERT JUMPDEST DUP6 DUP6 ADD JUMPDEST DUP4 DUP2 LT ISZERO PUSH2 0x2496 JUMPI DUP1 CALLDATALOAD DUP6 DUP2 GT ISZERO PUSH2 0x247A JUMPI PUSH1 0x0 DUP1 DUP2 REVERT JUMPDEST PUSH2 0x2488 DUP12 DUP10 DUP4 DUP11 ADD ADD PUSH2 0x22D7 JUMP JUMPDEST DUP5 MSTORE POP SWAP2 DUP7 ADD SWAP2 DUP7 ADD PUSH2 0x2462 JUMP JUMPDEST POP SWAP9 SWAP8 POP POP POP POP POP POP POP POP JUMP JUMPDEST PUSH1 0x20 DUP1 DUP3 MSTORE DUP3 MLOAD DUP3 DUP3 ADD DUP2 SWAP1 MSTORE PUSH1 0x0 SWAP2 SWAP1 DUP5 DUP3 ADD SWAP1 PUSH1 0x40 DUP6 ADD SWAP1 DUP5 JUMPDEST DUP2 DUP2 LT ISZERO PUSH2 0x24DB JUMPI DUP4 MLOAD DUP4 MSTORE SWAP3 DUP5 ADD SWAP3 SWAP2 DUP5 ADD SWAP2 PUSH1 0x1 ADD PUSH2 0x24BF JUMP JUMPDEST POP SWAP1 SWAP7 SWAP6 POP POP POP POP POP POP JUMP JUMPDEST PUSH1 0x0 DUP1 PUSH1 0x40 DUP4 DUP6 SUB SLT ISZERO PUSH2 0x24FA JUMPI PUSH1 0x0 DUP1 REVERT JUMPDEST DUP3 CALLDATALOAD SWAP2 POP PUSH2 0x250A PUSH1 0x20 DUP5 ADD PUSH2 0x22B1 JUMP JUMPDEST SWAP1 POP SWAP3 POP SWAP3 SWAP1 POP JUMP JUMPDEST PUSH1 0x0 PUSH1 0x20 DUP3 DUP5 SUB SLT ISZERO PUSH2 0x2525 JUMPI PUSH1 0x0 DUP1 REVERT JUMPDEST PUSH2 0x1D6B DUP3 PUSH2 0x2295 JUMP JUMPDEST PUSH1 0x80 DUP2 MSTORE PUSH1 0x0 PUSH2 0x2541 PUSH1 0x80 DUP4 ADD DUP6 PUSH2 0x2141 JUMP JUMPDEST SWAP1 POP PUSH2 0x1D6B PUSH1 0x20 DUP4 ADD DUP5 PUSH2 0x207D JUMP JUMPDEST PUSH1 0x0 PUSH1 0x20 DUP3 DUP5 SUB SLT ISZERO PUSH2 0x2562 JUMPI PUSH1 0x0 DUP1 REVERT JUMPDEST DUP2 CALLDATALOAD PUSH1 0x1 PUSH1 0x1 PUSH1 0x40 SHL SUB DUP2 GT ISZERO PUSH2 0x2578 JUMPI PUSH1 0x0 DUP1 REVERT JUMPDEST PUSH2 0x2584 DUP5 DUP3 DUP6 ADD PUSH2 0x22D7 JUMP JUMPDEST SWAP5 SWAP4 POP POP POP POP JUMP JUMPDEST PUSH1 0x0 PUSH1 0x20 DUP3 DUP5 SUB SLT ISZERO PUSH2 0x259E JUMPI PUSH1 0x0 DUP1 REVERT JUMPDEST DUP2 CALLDATALOAD PUSH1 0x1 PUSH1 0x1 PUSH1 0x40 SHL SUB DUP2 GT ISZERO PUSH2 0x25B4 JUMPI PUSH1 0x0 DUP1 REVERT JUMPDEST PUSH2 0x2584 DUP5 DUP3 DUP6 ADD PUSH2 0x1F1B JUMP JUMPDEST PUSH1 0x0 PUSH1 0x20 DUP1 DUP4 ADD DUP2 DUP5 MSTORE DUP1 DUP6 MLOAD DUP1 DUP4 MSTORE PUSH1 0x40 DUP7 ADD SWAP2 POP PUSH1 0x40 DUP2 PUSH1 0x5 SHL DUP8 ADD ADD SWAP3 POP DUP4 DUP8 ADD PUSH1 0x0 JUMPDEST DUP3 DUP2 LT ISZERO PUSH2 0x2615 JUMPI PUSH1 0x3F NOT DUP9 DUP7 SUB ADD DUP5 MSTORE PUSH2 0x2603 DUP6 DUP4 MLOAD PUSH2 0x2141 JUMP JUMPDEST SWAP5 POP SWAP3 DUP6 ADD SWAP3 SWAP1 DUP6 ADD SWAP1 PUSH1 0x1 ADD PUSH2 0x25E7 JUMP JUMPDEST POP SWAP3 SWAP8 SWAP7 POP POP POP POP POP POP POP JUMP JUMPDEST PUSH1 0x0 PUSH1 0x20 DUP3 DUP5 SUB SLT ISZERO PUSH2 0x2634 JUMPI PUSH1 0x0 DUP1 REVERT JUMPDEST DUP2 CALLDATALOAD PUSH1 0x1 PUSH1 0x1 PUSH1 0x40 SHL SUB DUP2 GT ISZERO PUSH2 0x264A JUMPI PUSH1 0x0 DUP1 REVERT JUMPDEST PUSH2 0x2584 DUP5 DUP3 DUP6 ADD PUSH2 0x1EAC JUMP JUMPDEST PUSH1 0x0 PUSH1 0x20 DUP1 DUP4 DUP6 SUB SLT ISZERO PUSH2 0x2669 JUMPI PUSH1 0x0 DUP1 REVERT JUMPDEST DUP3 CALLDATALOAD PUSH1 0x1 PUSH1 0x1 PUSH1 0x40 SHL SUB DUP1 DUP3 GT ISZERO PUSH2 0x2680 JUMPI PUSH1 0x0 DUP1 REVERT JUMPDEST DUP2 DUP6 ADD SWAP2 POP DUP6 PUSH1 0x1F DUP4 ADD SLT PUSH2 0x2694 JUMPI PUSH1 0x0 DUP1 REVERT JUMPDEST DUP2 CALLDATALOAD PUSH2 0x26A2 PUSH2 0x1F3C DUP3 PUSH2 0x1E89 JUMP JUMPDEST DUP2 DUP2 MSTORE PUSH1 0x5 SWAP2 SWAP1 SWAP2 SHL DUP4 ADD DUP5 ADD SWAP1 DUP5 DUP2 ADD SWAP1 DUP9 DUP4 GT ISZERO PUSH2 0x26C1 JUMPI PUSH1 0x0 DUP1 REVERT JUMPDEST DUP6 DUP6 ADD JUMPDEST DUP4 DUP2 LT ISZERO PUSH2 0x2496 JUMPI DUP1 CALLDATALOAD DUP6 DUP2 GT ISZERO PUSH2 0x26DD JUMPI PUSH1 0x0 DUP1 DUP2 REVERT JUMPDEST PUSH2 0x26EB DUP12 DUP10 DUP4 DUP11 ADD ADD PUSH2 0x1EAC JUMP JUMPDEST DUP5 MSTORE POP SWAP2 DUP7 ADD SWAP2 DUP7 ADD PUSH2 0x26C5 JUMP JUMPDEST PUSH1 0x0 DUP1 PUSH1 0x0 PUSH1 0x60 DUP5 DUP7 SUB SLT ISZERO PUSH2 0x270E JUMPI PUSH1 0x0 DUP1 REVERT JUMPDEST POP POP DUP2 CALLDATALOAD SWAP4 PUSH1 0x20 DUP4 ADD CALLDATALOAD SWAP4 POP PUSH1 0x40 SWAP1 SWAP3 ADD CALLDATALOAD SWAP2 SWAP1 POP JUMP JUMPDEST PUSH1 0x0 PUSH1 0x20 DUP1 DUP4 ADD DUP2 DUP5 MSTORE DUP1 DUP6 MLOAD DUP1 DUP4 MSTORE PUSH1 0x40 DUP7 ADD SWAP2 POP PUSH1 0x40 DUP2 PUSH1 0x5 SHL DUP8 ADD ADD SWAP3 POP DUP4 DUP8 ADD PUSH1 0x0 JUMPDEST DUP3 DUP2 LT ISZERO PUSH2 0x2615 JUMPI PUSH1 0x3F NOT DUP9 DUP7 SUB ADD DUP5 MSTORE PUSH2 0x2768 DUP6 DUP4 MLOAD PUSH2 0x20DD JUMP JUMPDEST SWAP5 POP SWAP3 DUP6 ADD SWAP3 SWAP1 DUP6 ADD SWAP1 PUSH1 0x1 ADD PUSH2 0x274C JUMP JUMPDEST PUSH4 0x4E487B71 PUSH1 0xE0 SHL PUSH1 0x0 MSTORE PUSH1 0x32 PUSH1 0x4 MSTORE PUSH1 0x24 PUSH1 0x0 REVERT JUMPDEST PUSH4 0x4E487B71 PUSH1 0xE0 SHL PUSH1 0x0 MSTORE PUSH1 0x11 PUSH1 0x4 MSTORE PUSH1 0x24 PUSH1 0x0 REVERT JUMPDEST PUSH1 0x0 PUSH1 0x1 DUP3 ADD PUSH2 0x27B8 JUMPI PUSH2 0x27B8 PUSH2 0x2790 JUMP JUMPDEST POP PUSH1 0x1 ADD SWAP1 JUMP JUMPDEST PUSH1 0x1 DUP2 DUP2 SHR SWAP1 DUP3 AND DUP1 PUSH2 0x27D3 JUMPI PUSH1 0x7F DUP3 AND SWAP2 POP JUMPDEST PUSH1 0x20 DUP3 LT DUP2 SUB PUSH2 0x1979 JUMPI PUSH4 0x4E487B71 PUSH1 0xE0 SHL PUSH1 0x0 MSTORE PUSH1 0x22 PUSH1 0x4 MSTORE PUSH1 0x24 PUSH1 0x0 REVERT JUMPDEST PUSH1 0x20 DUP1 DUP3 MSTORE PUSH1 0x17 SWAP1 DUP3 ADD MSTORE PUSH23 0x21B0B63632B91034B9903737BA103A34329037BBB732B9 PUSH1 0x49 SHL PUSH1 0x40 DUP3 ADD MSTORE PUSH1 0x60 ADD SWAP1 JUMP JUMPDEST DUP1 DUP3 ADD DUP1 DUP3 GT ISZERO PUSH2 0x20B3 JUMPI PUSH2 0x20B3 PUSH2 0x2790 JUMP JUMPDEST DUP3 DUP2 MSTORE PUSH1 0x0 DUP3 MLOAD PUSH2 0x284F DUP2 PUSH1 0x20 DUP6 ADD PUSH1 0x20 DUP8 ADD PUSH2 0x20B9 JUMP JUMPDEST SWAP2 SWAP1 SWAP2 ADD PUSH1 0x20 ADD SWAP4 SWAP3 POP POP POP JUMP JUMPDEST PUSH1 0x1F DUP3 GT ISZERO PUSH2 0x28A7 JUMPI PUSH1 0x0 DUP2 DUP2 MSTORE PUSH1 0x20 DUP2 KECCAK256 PUSH1 0x1F DUP6 ADD PUSH1 0x5 SHR DUP2 ADD PUSH1 0x20 DUP7 LT ISZERO PUSH2 0x2884 JUMPI POP DUP1 JUMPDEST PUSH1 0x1F DUP6 ADD PUSH1 0x5 SHR DUP3 ADD SWAP2 POP JUMPDEST DUP2 DUP2 LT ISZERO PUSH2 0x28A3 JUMPI DUP3 DUP2 SSTORE PUSH1 0x1 ADD PUSH2 0x2890 JUMP JUMPDEST POP POP POP JUMPDEST POP POP POP JUMP JUMPDEST DUP2 MLOAD PUSH1 0x1 PUSH1 0x1 PUSH1 0x40 SHL SUB DUP2 GT ISZERO PUSH2 0x28C5 JUMPI PUSH2 0x28C5 PUSH2 0x1E1A JUMP JUMPDEST PUSH2 0x28D9 DUP2 PUSH2 0x28D3 DUP5 SLOAD PUSH2 0x27BF JUMP JUMPDEST DUP5 PUSH2 0x285D JUMP JUMPDEST PUSH1 0x20 DUP1 PUSH1 0x1F DUP4 GT PUSH1 0x1 DUP2 EQ PUSH2 0x290E JUMPI PUSH1 0x0 DUP5 ISZERO PUSH2 0x28F6 JUMPI POP DUP6 DUP4 ADD MLOAD JUMPDEST PUSH1 0x0 NOT PUSH1 0x3 DUP7 SWAP1 SHL SHR NOT AND PUSH1 0x1 DUP6 SWAP1 SHL OR DUP6 SSTORE PUSH2 0x28A3 JUMP JUMPDEST PUSH1 0x0 DUP6 DUP2 MSTORE PUSH1 0x20 DUP2 KECCAK256 PUSH1 0x1F NOT DUP7 AND SWAP2 JUMPDEST DUP3 DUP2 LT ISZERO PUSH2 0x293D JUMPI DUP9 DUP7 ADD MLOAD DUP3 SSTORE SWAP5 DUP5 ADD SWAP5 PUSH1 0x1 SWAP1 SWAP2 ADD SWAP1 DUP5 ADD PUSH2 0x291E JUMP JUMPDEST POP DUP6 DUP3 LT ISZERO PUSH2 0x295B JUMPI DUP8 DUP6 ADD MLOAD PUSH1 0x0 NOT PUSH1 0x3 DUP9 SWAP1 SHL PUSH1 0xF8 AND SHR NOT AND DUP2 SSTORE JUMPDEST POP POP POP POP POP PUSH1 0x1 SWAP1 DUP2 SHL ADD SWAP1 SSTORE POP JUMP JUMPDEST PUSH1 0x0 PUSH1 0x1 PUSH1 0x1 PUSH1 0x40 SHL SUB DUP3 DUP2 AND PUSH1 0x2 PUSH1 0x1 PUSH1 0x40 SHL SUB NOT DUP2 ADD PUSH2 0x298F JUMPI PUSH2 0x298F PUSH2 0x2790 JUMP JUMPDEST PUSH1 0x1 ADD SWAP4 SWAP3 POP POP POP JUMP JUMPDEST PUSH1 0x1 PUSH1 0x1 PUSH1 0x40 SHL SUB DUP2 DUP2 AND DUP4 DUP3 AND ADD SWAP1 DUP1 DUP3 GT ISZERO PUSH2 0xC81 JUMPI PUSH2 0xC81 PUSH2 0x2790 JUMP JUMPDEST PUSH1 0x1 PUSH1 0x1 PUSH1 0x40 SHL SUB DUP3 DUP2 AND DUP3 DUP3 AND SUB SWAP1 DUP1 DUP3 GT ISZERO PUSH2 0xC81 JUMPI PUSH2 0xC81 PUSH2 0x2790 JUMP JUMPDEST PUSH1 0x20 DUP1 DUP3 MSTORE PUSH1 0x10 SWAP1 DUP3 ADD MSTORE PUSH16 0x119A5B19481A185CC8195E1C1A5C9959 PUSH1 0x82 SHL PUSH1 0x40 DUP3 ADD MSTORE PUSH1 0x60 ADD SWAP1 JUMP JUMPDEST PUSH1 0x1 PUSH1 0x1 PUSH1 0xC0 SHL SUB NOT PUSH1 0xC0 DUP9 DUP2 SHL DUP3 AND DUP4 MSTORE DUP8 SWAP1 SHL AND PUSH1 0x8 DUP3 ADD MSTORE PUSH1 0x10 DUP2 ADD DUP6 SWAP1 MSTORE DUP4 MLOAD PUSH1 0x0 SWAP1 PUSH2 0x2A3B DUP2 PUSH1 0x30 DUP6 ADD PUSH1 0x20 DUP10 ADD PUSH2 0x20B9 JUMP JUMPDEST DUP5 MLOAD SWAP1 DUP4 ADD SWAP1 PUSH2 0x2A52 DUP2 PUSH1 0x30 DUP5 ADD PUSH1 0x20 DUP10 ADD PUSH2 0x20B9 JUMP JUMPDEST ADD PUSH1 0x30 DUP2 ADD SWAP4 SWAP1 SWAP4 MSTORE POP POP PUSH1 0x50 ADD SWAP6 SWAP5 POP POP POP POP POP JUMP JUMPDEST PUSH1 0x0 DUP3 MLOAD PUSH2 0x2A7B DUP2 DUP5 PUSH1 0x20 DUP8 ADD PUSH2 0x20B9 JUMP JUMPDEST SWAP2 SWAP1 SWAP2 ADD SWAP3 SWAP2 POP POP JUMP JUMPDEST PUSH1 0x40 DUP2 MSTORE PUSH1 0x0 PUSH2 0x2A98 PUSH1 0x40 DUP4 ADD DUP6 PUSH2 0x20DD JUMP JUMPDEST SWAP1 POP PUSH1 0x1 DUP1 PUSH1 0x40 SHL SUB DUP4 AND PUSH1 0x20 DUP4 ADD MSTORE SWAP4 SWAP3 POP POP POP JUMP JUMPDEST DUP2 DUP2 SUB DUP2 DUP2 GT ISZERO PUSH2 0x20B3 JUMPI PUSH2 0x20B3 PUSH2 0x2790 JUMP INVALID LOG2 PUSH5 0x6970667358 0x22 SLT KECCAK256 SDIV 0xD3 0xD2 0xA5 0xAB 0x24 RETURNDATACOPY PUSH16 0xBD426DAD2F9C8018A80C164AF410B113 0xED 0x28 GASPRICE DUP5 0x23 0xFB DUP9 PUSH5 0x64736F6C63 NUMBER STOP ADDMOD SGT STOP CALLER "
				},
				"gasEstimates": {
					"creation": {
						"codeDepositCost": "2200000",
						"executionCost": "26557",
						"totalCost": "2226557"
					},
					"external": {
						"deleteFile(bytes32)": "infinite",
						"downloadFile(bytes32,uint256,uint256)": "infinite",
						"getFileInfo(bytes32)": "infinite",
						"getFileKeyFromName(string[])": "infinite",
						"getFileProgress(bytes32)": "7186",
						"getFilesInfo(bytes32[])": "infinite",
						"lockFile(bytes32)": "32297",
						"mKeyToFileInfo(bytes32)": "infinite",
						"mNameToFileKey(string)": "infinite",
						"owner()": "2447",
						"pushFileInfo((address,bytes32,uint64,uint64,uint64,string,string,uint8,string,string))": "infinite",
						"pushFileInfos((address,bytes32,uint64,uint64,uint64,string,string,uint8,string,string)[])": "infinite",
						"renewTime(bytes32,uint64)": "29242",
						"service()": "2579",
						"setService(address)": "26887",
						"uploadChunk(bytes32,bytes,bytes32)": "infinite",
						"uploadChunks(bytes32,bytes[],bytes32[])": "infinite"
					}
				},
				"methodIdentifiers": {
					"deleteFile(bytes32)": "6ab799f1",
					"downloadFile(bytes32,uint256,uint256)": "fab91940",
					"getFileInfo(bytes32)": "52f7347b",
					"getFileKeyFromName(string[])": "f25671c4",
					"getFileProgress(bytes32)": "46da5178",
					"getFilesInfo(bytes32[])": "eb070e7e",
					"lockFile(bytes32)": "9b26b2a8",
					"mKeyToFileInfo(bytes32)": "c652793d",
					"mNameToFileKey(string)": "edff13af",
					"owner()": "8da5cb5b",
					"pushFileInfo((address,bytes32,uint64,uint64,uint64,string,string,uint8,string,string))": "ca7e3cd4",
					"pushFileInfos((address,bytes32,uint64,uint64,uint64,string,string,uint8,string,string)[])": "6e0c19b1",
					"renewTime(bytes32,uint64)": "91c03370",
					"service()": "d598d4c9",
					"setService(address)": "bf8bdac1",
					"uploadChunk(bytes32,bytes,bytes32)": "5f95c07b",
					"uploadChunks(bytes32,bytes[],bytes32[])": "2b44bc39"
				}
			},
			"storageLayout": {
				"storage": [
					{
						"astId": 29,
						"contract": "src/file.sol:Files",
						"label": "mKeyToFileInfo",
						"offset": 0,
						"slot": "0",
						"type": "t_mapping(t_bytes32,t_struct(FileInfo)931_storage)"
					},
					{
						"astId": 33,
						"contract": "src/file.sol:Files",
						"label": "mNameToFileKey",
						"offset": 0,
						"slot": "1",
						"type": "t_mapping(t_string_memory_ptr,t_bytes32)"
					},
					{
						"astId": 35,
						"contract": "src/file.sol:Files",
						"label": "service",
						"offset": 0,
						"slot": "2",
						"type": "t_address"
					},
					{
						"astId": 37,
						"contract": "src/file.sol:Files",
						"label": "owner",
						"offset": 0,
						"slot": "3",
						"type": "t_address"
					}
				],
				"types": {
					"t_address": {
						"encoding": "inplace",
						"label": "address",
						"numberOfBytes": "20"
					},
					"t_bytes32": {
						"encoding": "inplace",
						"label": "bytes32",
						"numberOfBytes": "32"
					},
					"t_bytes_storage": {
						"encoding": "bytes",
						"label": "bytes",
						"numberOfBytes": "32"
					},
					"t_enum(FileStatus)891": {
						"encoding": "inplace",
						"label": "enum FileStatus",
						"numberOfBytes": "1"
					},
					"t_mapping(t_bytes32,t_struct(FileInfo)931_storage)": {
						"encoding": "mapping",
						"key": "t_bytes32",
						"label": "mapping(bytes32 => struct FileInfo)",
						"numberOfBytes": "32",
						"value": "t_struct(FileInfo)931_storage"
					},
					"t_mapping(t_string_memory_ptr,t_bytes32)": {
						"encoding": "mapping",
						"key": "t_string_memory_ptr",
						"label": "mapping(string => bytes32)",
						"numberOfBytes": "32",
						"value": "t_bytes32"
					},
					"t_mapping(t_uint256,t_bytes_storage)": {
						"encoding": "mapping",
						"key": "t_uint256",
						"label": "mapping(uint256 => bytes)",
						"numberOfBytes": "32",
						"value": "t_bytes_storage"
					},
					"t_string_memory_ptr": {
						"encoding": "bytes",
						"label": "string",
						"numberOfBytes": "32"
					},
					"t_string_storage": {
						"encoding": "bytes",
						"label": "string",
						"numberOfBytes": "32"
					},
					"t_struct(FileInfo)931_storage": {
						"encoding": "inplace",
						"label": "struct FileInfo",
						"members": [
							{
								"astId": 923,
								"contract": "src/file.sol:Files",
								"label": "info",
								"offset": 0,
								"slot": "0",
								"type": "t_struct(Info)913_storage"
							},
							{
								"astId": 926,
								"contract": "src/file.sol:Files",
								"label": "progress",
								"offset": 0,
								"slot": "8",
								"type": "t_struct(FileProgress)920_storage"
							},
							{
								"astId": 930,
								"contract": "src/file.sol:Files",
								"label": "chunks",
								"offset": 0,
								"slot": "10",
								"type": "t_mapping(t_uint256,t_bytes_storage)"
							}
						],
						"numberOfBytes": "352"
					},
					"t_struct(FileProgress)920_storage": {
						"encoding": "inplace",
						"label": "struct FileProgress",
						"members": [
							{
								"astId": 915,
								"contract": "src/file.sol:Files",
								"label": "lastChunkHash",
								"offset": 0,
								"slot": "0",
								"type": "t_bytes32"
							},
							{
								"astId": 917,
								"contract": "src/file.sol:Files",
								"label": "processedChunks",
								"offset": 0,
								"slot": "1",
								"type": "t_uint64"
							},
							{
								"astId": 919,
								"contract": "src/file.sol:Files",
								"label": "processedLength",
								"offset": 8,
								"slot": "1",
								"type": "t_uint64"
							}
						],
						"numberOfBytes": "64"
					},
					"t_struct(Info)913_storage": {
						"encoding": "inplace",
						"label": "struct Info",
						"members": [
							{
								"astId": 893,
								"contract": "src/file.sol:Files",
								"label": "owner",
								"offset": 0,
								"slot": "0",
								"type": "t_address"
							},
							{
								"astId": 895,
								"contract": "src/file.sol:Files",
								"label": "hash",
								"offset": 0,
								"slot": "1",
								"type": "t_bytes32"
							},
							{
								"astId": 897,
								"contract": "src/file.sol:Files",
								"label": "contentLen",
								"offset": 0,
								"slot": "2",
								"type": "t_uint64"
							},
							{
								"astId": 899,
								"contract": "src/file.sol:Files",
								"label": "totalChunks",
								"offset": 8,
								"slot": "2",
								"type": "t_uint64"
							},
							{
								"astId": 901,
								"contract": "src/file.sol:Files",
								"label": "expireTime",
								"offset": 16,
								"slot": "2",
								"type": "t_uint64"
							},
							{
								"astId": 903,
								"contract": "src/file.sol:Files",
								"label": "name",
								"offset": 0,
								"slot": "3",
								"type": "t_string_storage"
							},
							{
								"astId": 905,
								"contract": "src/file.sol:Files",
								"label": "ext",
								"offset": 0,
								"slot": "4",
								"type": "t_string_storage"
							},
							{
								"astId": 908,
								"contract": "src/file.sol:Files",
								"label": "status",
								"offset": 0,
								"slot": "5",
								"type": "t_enum(FileStatus)891"
							},
							{
								"astId": 910,
								"contract": "src/file.sol:Files",
								"label": "contentDisposition",
								"offset": 0,
								"slot": "6",
								"type": "t_string_storage"
							},
							{
								"astId": 912,
								"contract": "src/file.sol:Files",
								"label": "contentID",
								"offset": 0,
								"slot": "7",
								"type": "t_string_storage"
							}
						],
						"numberOfBytes": "256"
					},
					"t_uint256": {
						"encoding": "inplace",
						"label": "uint256",
						"numberOfBytes": "32"
					},
					"t_uint64": {
						"encoding": "inplace",
						"label": "uint64",
						"numberOfBytes": "8"
					}
				}
			},
			"userdoc": {
				"kind": "user",
				"methods": {},
				"version": 1
			}
		}
	}
}