{
	"src/file.sol": {
		"Files": {
			"abi": [
				{
					"inputs": [],
					"stateMutability": "payable",
					"type": "constructor"
				},
				{
					"anonymous": false,
					"inputs": [
						{
							"indexed": true,
							"internalType": "bytes32",
							"name": "fileKey",
							"type": "bytes32"
						},
						{
							"indexed": false,
							"internalType": "uint256",
							"name": "chunkIndex",
							"type": "uint256"
						}
					],
					"name": "ChunkUploaded",
					"type": "event"
				},
				{
					"anonymous": false,
					"inputs": [
						{
							"indexed": true,
							"internalType": "bytes32",
							"name": "fileKey",
							"type": "bytes32"
						},
						{
							"indexed": false,
							"internalType": "string",
							"name": "name",
							"type": "string"
						},
						{
							"indexed": false,
							"internalType": "uint64",
							"name": "contentLen",
							"type": "uint64"
						}
					],
					"name": "FileAdded",
					"type": "event"
				},
				{
					"anonymous": false,
					"inputs": [
						{
							"indexed": true,
							"internalType": "bytes32",
							"name": "fileKey",
							"type": "bytes32"
						}
					],
					"name": "FileDeleted",
					"type": "event"
				},
				{
					"anonymous": false,
					"inputs": [
						{
							"indexed": true,
							"internalType": "bytes32",
							"name": "fileKey",
							"type": "bytes32"
						}
					],
					"name": "FileLocked",
					"type": "event"
				},
				{
					"inputs": [
						{
							"internalType": "bytes32",
							"name": "fileKey",
							"type": "bytes32"
						}
					],
					"name": "deleteFile",
					"outputs": [],
					"stateMutability": "nonpayable",
					"type": "function"
				},
				{
					"inputs": [
						{
							"internalType": "bytes32",
							"name": "fileKey",
							"type": "bytes32"
						},
						{
							"internalType": "uint256",
							"name": "start",
							"type": "uint256"
						},
						{
							"internalType": "uint256",
							"name": "limit",
							"type": "uint256"
						}
					],
					"name": "downloadFile",
					"outputs": [
						{
							"internalType": "bytes[]",
							"name": "",
							"type": "bytes[]"
						}
					],
					"stateMutability": "view",
					"type": "function"
				},
				{
					"inputs": [
						{
							"internalType": "bytes32",
							"name": "fileKey",
							"type": "bytes32"
						}
					],
					"name": "getFileInfo",
					"outputs": [
						{
							"components": [
								{
									"internalType": "address",
									"name": "owner",
									"type": "address"
								},
								{
									"internalType": "bytes32",
									"name": "hash",
									"type": "bytes32"
								},
								{
									"internalType": "uint64",
									"name": "contentLen",
									"type": "uint64"
								},
								{
									"internalType": "uint64",
									"name": "totalChunks",
									"type": "uint64"
								},
								{
									"internalType": "uint64",
									"name": "expireTime",
									"type": "uint64"
								},
								{
									"internalType": "string",
									"name": "name",
									"type": "string"
								},
								{
									"internalType": "string",
									"name": "ext",
									"type": "string"
								},
								{
									"internalType": "enum FileStatus",
									"name": "status",
									"type": "uint8"
								},
								{
									"internalType": "string",
									"name": "contentDisposition",
									"type": "string"
								},
								{
									"internalType": "string",
									"name": "contentID",
									"type": "string"
								}
							],
							"internalType": "struct Info",
							"name": "",
							"type": "tuple"
						}
					],
					"stateMutability": "view",
					"type": "function"
				},
				{
					"inputs": [
						{
							"internalType": "string[]",
							"name": "names",
							"type": "string[]"
						}
					],
					"name": "getFileKeyFromName",
					"outputs": [
						{
							"internalType": "bytes32[]",
							"name": "",
							"type": "bytes32[]"
						}
					],
					"stateMutability": "view",
					"type": "function"
				},
				{
					"inputs": [
						{
							"internalType": "bytes32",
							"name": "fileKey",
							"type": "bytes32"
						}
					],
					"name": "getFileProgress",
					"outputs": [
						{
							"components": [
								{
									"internalType": "bytes32",
									"name": "lastChunkHash",
									"type": "bytes32"
								},
								{
									"internalType": "uint64",
									"name": "processedChunks",
									"type": "uint64"
								},
								{
									"internalType": "uint64",
									"name": "processedLength",
									"type": "uint64"
								}
							],
							"internalType": "struct FileProgress",
							"name": "",
							"type": "tuple"
						}
					],
					"stateMutability": "view",
					"type": "function"
				},
				{
					"inputs": [
						{
							"internalType": "bytes32[]",
							"name": "fileKeys",
							"type": "bytes32[]"
						}
					],
					"name": "getFilesInfo",
					"outputs": [
						{
							"components": [
								{
									"internalType": "address",
									"name": "owner",
									"type": "address"
								},
								{
									"internalType": "bytes32",
									"name": "hash",
									"type": "bytes32"
								},
								{
									"internalType": "uint64",
									"name": "contentLen",
									"type": "uint64"
								},
								{
									"internalType": "uint64",
									"name": "totalChunks",
									"type": "uint64"
								},
								{
									"internalType": "uint64",
									"name": "expireTime",
									"type": "uint64"
								},
								{
									"internalType": "string",
									"name": "name",
									"type": "string"
								},
								{
									"internalType": "string",
									"name": "ext",
									"type": "string"
								},
								{
									"internalType": "enum FileStatus",
									"name": "status",
									"type": "uint8"
								},
								{
									"internalType": "string",
									"name": "contentDisposition",
									"type": "string"
								},
								{
									"internalType": "string",
									"name": "contentID",
									"type": "string"
								}
							],
							"internalType": "struct Info[]",
							"name": "infos",
							"type": "tuple[]"
						}
					],
					"stateMutability": "view",
					"type": "function"
				},
				{
					"inputs": [
						{
							"internalType": "bytes32",
							"name": "fileKey",
							"type": "bytes32"
						}
					],
					"name": "lockFile",
					"outputs": [],
					"stateMutability": "nonpayable",
					"type": "function"
				},
				{
					"inputs": [
						{
							"internalType": "bytes32",
							"name": "",
							"type": "bytes32"
						}
					],
					"name": "mKeyToFileInfo",
					"outputs": [
						{
							"components": [
								{
									"internalType": "address",
									"name": "owner",
									"type": "address"
								},
								{
									"internalType": "bytes32",
									"name": "hash",
									"type": "bytes32"
								},
								{
									"internalType": "uint64",
									"name": "contentLen",
									"type": "uint64"
								},
								{
									"internalType": "uint64",
									"name": "totalChunks",
									"type": "uint64"
								},
								{
									"internalType": "uint64",
									"name": "expireTime",
									"type": "uint64"
								},
								{
									"internalType": "string",
									"name": "name",
									"type": "string"
								},
								{
									"internalType": "string",
									"name": "ext",
									"type": "string"
								},
								{
									"internalType": "enum FileStatus",
									"name": "status",
									"type": "uint8"
								},
								{
									"internalType": "string",
									"name": "contentDisposition",
									"type": "string"
								},
								{
									"internalType": "string",
									"name": "contentID",
									"type": "string"
								}
							],
							"internalType": "struct Info",
							"name": "info",
							"type": "tuple"
						},
						{
							"components": [
								{
									"internalType": "bytes32",
									"name": "lastChunkHash",
									"type": "bytes32"
								},
								{
									"internalType": "uint64",
									"name": "processedChunks",
									"type": "uint64"
								},
								{
									"internalType": "uint64",
									"name": "processedLength",
									"type": "uint64"
								}
							],
							"internalType": "struct FileProgress",
							"name": "progress",
							"type": "tuple"
						}
					],
					"stateMutability": "view",
					"type": "function"
				},
				{
					"inputs": [
						{
							"internalType": "string",
							"name": "",
							"type": "string"
						}
					],
					"name": "mNameToFileKey",
					"outputs": [
						{
							"internalType": "bytes32",
							"name": "",
							"type": "bytes32"
						}
					],
					"stateMutability": "view",
					"type": "function"
				},
				{
					"inputs": [],
					"name": "owner",
					"outputs": [
						{
							"internalType": "address",
							"name": "",
							"type": "address"
						}
					],
					"stateMutability": "view",
					"type": "function"
				},
				{
					"inputs": [
						{
							"components": [
								{
									"internalType": "address",
									"name": "owner",
									"type": "address"
								},
								{
									"internalType": "bytes32",
									"name": "hash",
									"type": "bytes32"
								},
								{
									"internalType": "uint64",
									"name": "contentLen",
									"type": "uint64"
								},
								{
									"internalType": "uint64",
									"name": "totalChunks",
									"type": "uint64"
								},
								{
									"internalType": "uint64",
									"name": "expireTime",
									"type": "uint64"
								},
								{
									"internalType": "string",
									"name": "name",
									"type": "string"
								},
								{
									"internalType": "string",
									"name": "ext",
									"type": "string"
								},
								{
									"internalType": "enum FileStatus",
									"name": "status",
									"type": "uint8"
								},
								{
									"internalType": "string",
									"name": "contentDisposition",
									"type": "string"
								},
								{
									"internalType": "string",
									"name": "contentID",
									"type": "string"
								}
							],
							"internalType": "struct Info",
							"name": "info",
							"type": "tuple"
						}
					],
					"name": "pushFileInfo",
					"outputs": [
						{
							"internalType": "bytes32",
							"name": "fileKey",
							"type": "bytes32"
						}
					],
					"stateMutability": "nonpayable",
					"type": "function"
				},
				{
					"inputs": [
						{
							"components": [
								{
									"internalType": "address",
									"name": "owner",
									"type": "address"
								},
								{
									"internalType": "bytes32",
									"name": "hash",
									"type": "bytes32"
								},
								{
									"internalType": "uint64",
									"name": "contentLen",
									"type": "uint64"
								},
								{
									"internalType": "uint64",
									"name": "totalChunks",
									"type": "uint64"
								},
								{
									"internalType": "uint64",
									"name": "expireTime",
									"type": "uint64"
								},
								{
									"internalType": "string",
									"name": "name",
									"type": "string"
								},
								{
									"internalType": "string",
									"name": "ext",
									"type": "string"
								},
								{
									"internalType": "enum FileStatus",
									"name": "status",
									"type": "uint8"
								},
								{
									"internalType": "string",
									"name": "contentDisposition",
									"type": "string"
								},
								{
									"internalType": "string",
									"name": "contentID",
									"type": "string"
								}
							],
							"internalType": "struct Info[]",
							"name": "infos",
							"type": "tuple[]"
						}
					],
					"name": "pushFileInfos",
					"outputs": [
						{
							"internalType": "bytes32[]",
							"name": "",
							"type": "bytes32[]"
						}
					],
					"stateMutability": "nonpayable",
					"type": "function"
				},
				{
					"inputs": [
						{
							"internalType": "bytes32",
							"name": "fileKey",
							"type": "bytes32"
						},
						{
							"internalType": "uint64",
							"name": "_newExpireTime",
							"type": "uint64"
						}
					],
					"name": "renewTime",
					"outputs": [],
					"stateMutability": "nonpayable",
					"type": "function"
				},
				{
					"inputs": [],
					"name": "service",
					"outputs": [
						{
							"internalType": "address",
							"name": "",
							"type": "address"
						}
					],
					"stateMutability": "view",
					"type": "function"
				},
				{
					"inputs": [
						{
							"internalType": "address",
							"name": "_service",
							"type": "address"
						}
					],
					"name": "setService",
					"outputs": [],
					"stateMutability": "nonpayable",
					"type": "function"
				},
				{
					"inputs": [
						{
							"internalType": "bytes32",
							"name": "fileKey",
							"type": "bytes32"
						},
						{
							"internalType": "bytes",
							"name": "chunkData",
							"type": "bytes"
						},
						{
							"internalType": "bytes32",
							"name": "chunkHash",
							"type": "bytes32"
						}
					],
					"name": "uploadChunk",
					"outputs": [],
					"stateMutability": "nonpayable",
					"type": "function"
				}
			],
			"devdoc": {
				"kind": "dev",
				"methods": {},
				"version": 1
			},
			"evm": {
				"assembly": "    /* \"src/file.sol\":97:7115  contract Files {... */\n  mstore(0x40, 0x80)\n    /* \"src/file.sol\":781:786  owner */\n  0x03\n    /* \"src/file.sol\":781:799  owner = msg.sender */\n  dup1\n  sload\n  not(sub(shl(0xa0, 0x01), 0x01))\n  and\n    /* \"src/file.sol\":789:799  msg.sender */\n  caller\n    /* \"src/file.sol\":781:799  owner = msg.sender */\n  or\n  swap1\n  sstore\n    /* \"src/file.sol\":97:7115  contract Files {... */\n  dataSize(sub_0)\n  dup1\n  dataOffset(sub_0)\n  0x00\n  codecopy\n  0x00\n  return\nstop\n\nsub_0: assembly {\n        /* \"src/file.sol\":97:7115  contract Files {... */\n      mstore(0x40, 0x80)\n      callvalue\n      dup1\n      iszero\n      tag_1\n      jumpi\n      0x00\n      dup1\n      revert\n    tag_1:\n      pop\n      jumpi(tag_2, lt(calldatasize, 0x04))\n      shr(0xe0, calldataload(0x00))\n      dup1\n      0x46da5178\n      eq\n      tag_3\n      jumpi\n      dup1\n      0x52f7347b\n      eq\n      tag_4\n      jumpi\n      dup1\n      0x5f95c07b\n      eq\n      tag_5\n      jumpi\n      dup1\n      0x6ab799f1\n      eq\n      tag_6\n      jumpi\n      dup1\n      0x6e0c19b1\n      eq\n      tag_7\n      jumpi\n      dup1\n      0x8da5cb5b\n      eq\n      tag_8\n      jumpi\n      dup1\n      0x91c03370\n      eq\n      tag_9\n      jumpi\n      dup1\n      0x9b26b2a8\n      eq\n      tag_10\n      jumpi\n      dup1\n      0xbf8bdac1\n      eq\n      tag_11\n      jumpi\n      dup1\n      0xc652793d\n      eq\n      tag_12\n      jumpi\n      dup1\n      0xca7e3cd4\n      eq\n      tag_13\n      jumpi\n      dup1\n      0xd598d4c9\n      eq\n      tag_14\n      jumpi\n      dup1\n      0xeb070e7e\n      eq\n      tag_15\n      jumpi\n      dup1\n      0xedff13af\n      eq\n      tag_16\n      jumpi\n      dup1\n      0xf25671c4\n      eq\n      tag_17\n      jumpi\n      dup1\n      0xfab91940\n      eq\n      tag_18\n      jumpi\n    tag_2:\n      0x00\n      dup1\n      revert\n        /* \"src/file.sol\":5763:6049  function getFileProgress(bytes32 fileKey) external view returns (FileProgress memory) {... */\n    tag_3:\n      tag_19\n      tag_20\n      calldatasize\n      0x04\n      tag_21\n      jump\t// in\n    tag_20:\n      tag_22\n      jump\t// in\n    tag_19:\n      mload(0x40)\n      tag_23\n      swap2\n      swap1\n      tag_24\n      jump\t// in\n    tag_23:\n      mload(0x40)\n      dup1\n      swap2\n      sub\n      swap1\n      return\n        /* \"src/file.sol\":5326:5452  function getFileInfo(bytes32 fileKey) external view returns (Info memory) {... */\n    tag_4:\n      tag_25\n      tag_26\n      calldatasize\n      0x04\n      tag_21\n      jump\t// in\n    tag_26:\n      tag_27\n      jump\t// in\n    tag_25:\n      mload(0x40)\n      tag_23\n      swap2\n      swap1\n      tag_29\n      jump\t// in\n        /* \"src/file.sol\":2676:3938  function uploadChunk(bytes32 fileKey, bytes memory chunkData, bytes32 chunkHash) external {... */\n    tag_5:\n      tag_30\n      tag_31\n      calldatasize\n      0x04\n      tag_32\n      jump\t// in\n    tag_31:\n      tag_33\n      jump\t// in\n    tag_30:\n      stop\n        /* \"src/file.sol\":4372:4858  function deleteFile(bytes32 fileKey) external {... */\n    tag_6:\n      tag_30\n      tag_35\n      calldatasize\n      0x04\n      tag_21\n      jump\t// in\n    tag_35:\n      tag_36\n      jump\t// in\n        /* \"src/file.sol\":914:1196  function pushFileInfos(... */\n    tag_7:\n      tag_37\n      tag_38\n      calldatasize\n      0x04\n      tag_39\n      jump\t// in\n    tag_38:\n      tag_40\n      jump\t// in\n    tag_37:\n      mload(0x40)\n      tag_23\n      swap2\n      swap1\n      tag_42\n      jump\t// in\n        /* \"src/file.sol\":500:520  address public owner */\n    tag_8:\n      sload(0x03)\n      tag_43\n      swap1\n      sub(shl(0xa0, 0x01), 0x01)\n      and\n      dup2\n      jump\n    tag_43:\n      mload(0x40)\n      sub(shl(0xa0, 0x01), 0x01)\n        /* \"#utility.yul\":9439:9471   */\n      swap1\n      swap2\n      and\n        /* \"#utility.yul\":9421:9472   */\n      dup2\n      mstore\n        /* \"#utility.yul\":9409:9411   */\n      0x20\n        /* \"#utility.yul\":9394:9412   */\n      add\n        /* \"src/file.sol\":500:520  address public owner */\n      tag_23\n        /* \"#utility.yul\":9275:9478   */\n      jump\n        /* \"src/file.sol\":4864:5317  function renewTime(bytes32 fileKey, uint64 _newExpireTime) external {... */\n    tag_9:\n      tag_30\n      tag_48\n      calldatasize\n      0x04\n      tag_49\n      jump\t// in\n    tag_48:\n      tag_50\n      jump\t// in\n        /* \"src/file.sol\":3944:4366  function lockFile(bytes32 fileKey) external {... */\n    tag_10:\n      tag_30\n      tag_52\n      calldatasize\n      0x04\n      tag_21\n      jump\t// in\n    tag_52:\n      tag_53\n      jump\t// in\n        /* \"src/file.sol\":812:904  function setService(address _service) external onlyOwner {... */\n    tag_11:\n      tag_30\n      tag_55\n      calldatasize\n      0x04\n      tag_56\n      jump\t// in\n    tag_55:\n      tag_57\n      jump\t// in\n        /* \"src/file.sol\":362:412  mapping(bytes32 => FileInfo) public mKeyToFileInfo */\n    tag_12:\n      tag_58\n      tag_59\n      calldatasize\n      0x04\n      tag_21\n      jump\t// in\n    tag_59:\n      tag_60\n      jump\t// in\n    tag_58:\n      mload(0x40)\n      tag_23\n      swap3\n      swap2\n      swap1\n      tag_62\n      jump\t// in\n        /* \"src/file.sol\":1202:2369  function pushFileInfo(Info memory info) public returns (bytes32 fileKey) {... */\n    tag_13:\n      tag_63\n      tag_64\n      calldatasize\n      0x04\n      tag_65\n      jump\t// in\n    tag_64:\n      tag_66\n      jump\t// in\n    tag_63:\n      mload(0x40)\n        /* \"#utility.yul\":10827:10852   */\n      swap1\n      dup2\n      mstore\n        /* \"#utility.yul\":10815:10817   */\n      0x20\n        /* \"#utility.yul\":10800:10818   */\n      add\n        /* \"src/file.sol\":1202:2369  function pushFileInfo(Info memory info) public returns (bytes32 fileKey) {... */\n      tag_23\n        /* \"#utility.yul\":10681:10858   */\n      jump\n        /* \"src/file.sol\":472:494  address public service */\n    tag_14:\n      sload(0x02)\n      tag_43\n      swap1\n      sub(shl(0xa0, 0x01), 0x01)\n      and\n      dup2\n      jump\n        /* \"src/file.sol\":5458:5757  function getFilesInfo(bytes32[] memory fileKeys) external view returns(Info[] memory infos ){... */\n    tag_15:\n      tag_72\n      tag_73\n      calldatasize\n      0x04\n      tag_74\n      jump\t// in\n    tag_73:\n      tag_75\n      jump\t// in\n    tag_72:\n      mload(0x40)\n      tag_23\n      swap2\n      swap1\n      tag_77\n      jump\t// in\n        /* \"src/file.sol\":418:466  mapping(string => bytes32) public mNameToFileKey */\n    tag_16:\n      tag_63\n      tag_79\n      calldatasize\n      0x04\n      tag_80\n      jump\t// in\n    tag_79:\n      dup1\n      mload\n      0x20\n      dup2\n      dup4\n      add\n      dup2\n      add\n      dup1\n      mload\n      0x01\n      dup3\n      mstore\n      swap3\n      dup3\n      add\n      swap2\n      swap1\n      swap4\n      add\n      keccak256\n      swap2\n      mstore\n      sload\n      dup2\n      jump\n        /* \"src/file.sol\":2374:2671  function getFileKeyFromName(string[] memory names) view external returns(bytes32[] memory ){... */\n    tag_17:\n      tag_37\n      tag_84\n      calldatasize\n      0x04\n      tag_85\n      jump\t// in\n    tag_84:\n      tag_86\n      jump\t// in\n        /* \"src/file.sol\":6103:7110  function downloadFile(... */\n    tag_18:\n      tag_88\n      tag_89\n      calldatasize\n      0x04\n      tag_90\n      jump\t// in\n    tag_89:\n      tag_91\n      jump\t// in\n    tag_88:\n      mload(0x40)\n      tag_23\n      swap2\n      swap1\n      tag_93\n      jump\t// in\n        /* \"src/file.sol\":5763:6049  function getFileProgress(bytes32 fileKey) external view returns (FileProgress memory) {... */\n    tag_22:\n      0x40\n      dup1\n      mload\n      0x60\n      dup2\n      add\n      dup3\n      mstore\n      0x00\n      dup1\n      dup3\n      mstore\n      0x20\n      dup3\n      add\n      dup2\n      swap1\n      mstore\n      swap2\n      dup2\n      add\n      swap2\n      swap1\n      swap2\n      mstore\n        /* \"src/file.sol\":5859:5880  FileInfo storage file */\n      0x00\n        /* \"src/file.sol\":5883:5906  mKeyToFileInfo[fileKey] */\n      dup3\n      dup2\n      mstore\n      0x20\n      dup2\n      swap1\n      mstore\n      0x40\n      dup2\n      keccak256\n      swap1\n        /* \"src/file.sol\":5924:5940  file.info.status */\n      0x05\n      dup3\n      add\n      sload\n      0xff\n      and\n        /* \"src/file.sol\":5924:5965  file.info.status == FileStatus.Processing */\n      0x03\n      dup2\n      gt\n      iszero\n      tag_101\n      jumpi\n      tag_101\n      tag_99\n      jump\t// in\n    tag_101:\n      eq\n        /* \"src/file.sol\":5916:5992  require(file.info.status == FileStatus.Processing, \"File upload not exists\") */\n      tag_102\n      jumpi\n      mload(0x40)\n      shl(0xe5, 0x461bcd)\n      dup2\n      mstore\n        /* \"#utility.yul\":15396:15398   */\n      0x20\n        /* \"src/file.sol\":5916:5992  require(file.info.status == FileStatus.Processing, \"File upload not exists\") */\n      0x04\n      dup3\n      add\n        /* \"#utility.yul\":15378:15399   */\n      mstore\n        /* \"#utility.yul\":15435:15437   */\n      0x16\n        /* \"#utility.yul\":15415:15433   */\n      0x24\n      dup3\n      add\n        /* \"#utility.yul\":15408:15438   */\n      mstore\n      shl(0x50, 0x46696c652075706c6f6164206e6f7420657869737473)\n        /* \"#utility.yul\":15454:15472   */\n      0x44\n      dup3\n      add\n        /* \"#utility.yul\":15447:15499   */\n      mstore\n        /* \"#utility.yul\":15516:15534   */\n      0x64\n      add\n        /* \"src/file.sol\":5916:5992  require(file.info.status == FileStatus.Processing, \"File upload not exists\") */\n    tag_103:\n      mload(0x40)\n      dup1\n      swap2\n      sub\n      swap1\n      revert\n    tag_102:\n      pop\n      pop\n        /* \"src/file.sol\":6010:6024  mKeyToFileInfo */\n      0x00\n        /* \"src/file.sol\":6010:6033  mKeyToFileInfo[fileKey] */\n      swap1\n      dup2\n      mstore\n      0x20\n      dup2\n      dup2\n      mstore\n      0x40\n      swap2\n      dup3\n      swap1\n      keccak256\n        /* \"src/file.sol\":6003:6042  return mKeyToFileInfo[fileKey].progress */\n      dup3\n      mload\n      0x60\n      dup2\n      add\n      dup5\n      mstore\n        /* \"src/file.sol\":6010:6042  mKeyToFileInfo[fileKey].progress */\n      0x08\n      dup3\n      add\n        /* \"src/file.sol\":6003:6042  return mKeyToFileInfo[fileKey].progress */\n      sload\n      dup2\n      mstore\n      0x09\n      swap1\n      swap2\n      add\n      sload\n      sub(shl(0x40, 0x01), 0x01)\n      dup1\n      dup3\n      and\n      swap4\n      dup4\n      add\n      swap4\n      swap1\n      swap4\n      mstore\n      shl(0x40, 0x01)\n      swap1\n      div\n      swap1\n      swap2\n      and\n      swap2\n      dup2\n      add\n      swap2\n      swap1\n      swap2\n      mstore\n      swap1\n        /* \"src/file.sol\":5763:6049  function getFileProgress(bytes32 fileKey) external view returns (FileProgress memory) {... */\n      jump\t// out\n        /* \"src/file.sol\":5326:5452  function getFileInfo(bytes32 fileKey) external view returns (Info memory) {... */\n    tag_27:\n        /* \"src/file.sol\":5387:5398  Info memory */\n      tag_105\n      tag_106\n      jump\t// in\n    tag_105:\n        /* \"src/file.sol\":5417:5431  mKeyToFileInfo */\n      0x00\n        /* \"src/file.sol\":5417:5440  mKeyToFileInfo[fileKey] */\n      dup3\n      dup2\n      mstore\n      0x20\n      dup2\n      dup2\n      mstore\n      0x40\n      swap2\n      dup3\n      swap1\n      keccak256\n        /* \"src/file.sol\":5410:5445  return mKeyToFileInfo[fileKey].info */\n      dup3\n      mload\n      0x0140\n      dup2\n      add\n      dup5\n      mstore\n      dup2\n      sload\n      sub(shl(0xa0, 0x01), 0x01)\n      and\n      dup2\n      mstore\n      0x01\n      dup3\n      add\n      sload\n      swap3\n      dup2\n      add\n      swap3\n      swap1\n      swap3\n      mstore\n      0x02\n      dup2\n      add\n      sload\n      sub(shl(0x40, 0x01), 0x01)\n      dup1\n      dup3\n      and\n      swap5\n      dup5\n      add\n      swap5\n      swap1\n      swap5\n      mstore\n      shl(0x40, 0x01)\n      dup2\n      div\n      dup5\n      and\n      0x60\n      dup5\n      add\n      mstore\n      shl(0x80, 0x01)\n      swap1\n      div\n      swap1\n      swap3\n      and\n      0x80\n      dup3\n      add\n      mstore\n      0x03\n      dup3\n      add\n      dup1\n      sload\n      swap2\n      swap3\n        /* \"src/file.sol\":5417:5440  mKeyToFileInfo[fileKey] */\n      swap2\n        /* \"src/file.sol\":5410:5445  return mKeyToFileInfo[fileKey].info */\n      0xa0\n      dup5\n      add\n      swap2\n      swap1\n      tag_108\n      swap1\n      tag_109\n      jump\t// in\n    tag_108:\n      dup1\n      0x1f\n      add\n      0x20\n      dup1\n      swap2\n      div\n      mul\n      0x20\n      add\n      mload(0x40)\n      swap1\n      dup2\n      add\n      0x40\n      mstore\n      dup1\n      swap3\n      swap2\n      swap1\n      dup2\n      dup2\n      mstore\n      0x20\n      add\n      dup3\n      dup1\n      sload\n      tag_110\n      swap1\n      tag_109\n      jump\t// in\n    tag_110:\n      dup1\n      iszero\n      tag_111\n      jumpi\n      dup1\n      0x1f\n      lt\n      tag_112\n      jumpi\n      0x0100\n      dup1\n      dup4\n      sload\n      div\n      mul\n      dup4\n      mstore\n      swap2\n      0x20\n      add\n      swap2\n      jump(tag_111)\n    tag_112:\n      dup3\n      add\n      swap2\n      swap1\n      0x00\n      mstore\n      keccak256(0x00, 0x20)\n      swap1\n    tag_113:\n      dup2\n      sload\n      dup2\n      mstore\n      swap1\n      0x01\n      add\n      swap1\n      0x20\n      add\n      dup1\n      dup4\n      gt\n      tag_113\n      jumpi\n      dup3\n      swap1\n      sub\n      0x1f\n      and\n      dup3\n      add\n      swap2\n    tag_111:\n      pop\n      pop\n      pop\n      pop\n      pop\n      dup2\n      mstore\n      0x20\n      add\n      0x04\n      dup3\n      add\n      dup1\n      sload\n      tag_114\n      swap1\n      tag_109\n      jump\t// in\n    tag_114:\n      dup1\n      0x1f\n      add\n      0x20\n      dup1\n      swap2\n      div\n      mul\n      0x20\n      add\n      mload(0x40)\n      swap1\n      dup2\n      add\n      0x40\n      mstore\n      dup1\n      swap3\n      swap2\n      swap1\n      dup2\n      dup2\n      mstore\n      0x20\n      add\n      dup3\n      dup1\n      sload\n      tag_115\n      swap1\n      tag_109\n      jump\t// in\n    tag_115:\n      dup1\n      iszero\n      tag_116\n      jumpi\n      dup1\n      0x1f\n      lt\n      tag_117\n      jumpi\n      0x0100\n      dup1\n      dup4\n      sload\n      div\n      mul\n      dup4\n      mstore\n      swap2\n      0x20\n      add\n      swap2\n      jump(tag_116)\n    tag_117:\n      dup3\n      add\n      swap2\n      swap1\n      0x00\n      mstore\n      keccak256(0x00, 0x20)\n      swap1\n    tag_118:\n      dup2\n      sload\n      dup2\n      mstore\n      swap1\n      0x01\n      add\n      swap1\n      0x20\n      add\n      dup1\n      dup4\n      gt\n      tag_118\n      jumpi\n      dup3\n      swap1\n      sub\n      0x1f\n      and\n      dup3\n      add\n      swap2\n    tag_116:\n      pop\n      pop\n      pop\n      swap2\n      dup4\n      mstore\n      pop\n      pop\n      0x05\n      dup3\n      add\n      sload\n      0x20\n      swap1\n      swap2\n      add\n      swap1\n      0xff\n      and\n      0x03\n      dup2\n      gt\n      iszero\n      tag_120\n      jumpi\n      tag_120\n      tag_99\n      jump\t// in\n    tag_120:\n      0x03\n      dup2\n      gt\n      iszero\n      tag_122\n      jumpi\n      tag_122\n      tag_99\n      jump\t// in\n    tag_122:\n      dup2\n      mstore\n      0x20\n      add\n      0x06\n      dup3\n      add\n      dup1\n      sload\n      tag_123\n      swap1\n      tag_109\n      jump\t// in\n    tag_123:\n      dup1\n      0x1f\n      add\n      0x20\n      dup1\n      swap2\n      div\n      mul\n      0x20\n      add\n      mload(0x40)\n      swap1\n      dup2\n      add\n      0x40\n      mstore\n      dup1\n      swap3\n      swap2\n      swap1\n      dup2\n      dup2\n      mstore\n      0x20\n      add\n      dup3\n      dup1\n      sload\n      tag_124\n      swap1\n      tag_109\n      jump\t// in\n    tag_124:\n      dup1\n      iszero\n      tag_125\n      jumpi\n      dup1\n      0x1f\n      lt\n      tag_126\n      jumpi\n      0x0100\n      dup1\n      dup4\n      sload\n      div\n      mul\n      dup4\n      mstore\n      swap2\n      0x20\n      add\n      swap2\n      jump(tag_125)\n    tag_126:\n      dup3\n      add\n      swap2\n      swap1\n      0x00\n      mstore\n      keccak256(0x00, 0x20)\n      swap1\n    tag_127:\n      dup2\n      sload\n      dup2\n      mstore\n      swap1\n      0x01\n      add\n      swap1\n      0x20\n      add\n      dup1\n      dup4\n      gt\n      tag_127\n      jumpi\n      dup3\n      swap1\n      sub\n      0x1f\n      and\n      dup3\n      add\n      swap2\n    tag_125:\n      pop\n      pop\n      pop\n      pop\n      pop\n      dup2\n      mstore\n      0x20\n      add\n      0x07\n      dup3\n      add\n      dup1\n      sload\n      tag_128\n      swap1\n      tag_109\n      jump\t// in\n    tag_128:\n      dup1\n      0x1f\n      add\n      0x20\n      dup1\n      swap2\n      div\n      mul\n      0x20\n      add\n      mload(0x40)\n      swap1\n      dup2\n      add\n      0x40\n      mstore\n      dup1\n      swap3\n      swap2\n      swap1\n      dup2\n      dup2\n      mstore\n      0x20\n      add\n      dup3\n      dup1\n      sload\n      tag_129\n      swap1\n      tag_109\n      jump\t// in\n    tag_129:\n      dup1\n      iszero\n      tag_130\n      jumpi\n      dup1\n      0x1f\n      lt\n      tag_131\n      jumpi\n      0x0100\n      dup1\n      dup4\n      sload\n      div\n      mul\n      dup4\n      mstore\n      swap2\n      0x20\n      add\n      swap2\n      jump(tag_130)\n    tag_131:\n      dup3\n      add\n      swap2\n      swap1\n      0x00\n      mstore\n      keccak256(0x00, 0x20)\n      swap1\n    tag_132:\n      dup2\n      sload\n      dup2\n      mstore\n      swap1\n      0x01\n      add\n      swap1\n      0x20\n      add\n      dup1\n      dup4\n      gt\n      tag_132\n      jumpi\n      dup3\n      swap1\n      sub\n      0x1f\n      and\n      dup3\n      add\n      swap2\n    tag_130:\n      pop\n      pop\n      pop\n      pop\n      pop\n      dup2\n      mstore\n      pop\n      pop\n      swap1\n      pop\n        /* \"src/file.sol\":5326:5452  function getFileInfo(bytes32 fileKey) external view returns (Info memory) {... */\n      swap2\n      swap1\n      pop\n      jump\t// out\n        /* \"src/file.sol\":2676:3938  function uploadChunk(bytes32 fileKey, bytes memory chunkData, bytes32 chunkHash) external {... */\n    tag_33:\n        /* \"src/file.sol\":2803:2804  0 */\n      0x00\n        /* \"src/file.sol\":2784:2793  chunkData */\n      dup3\n        /* \"src/file.sol\":2784:2800  chunkData.length */\n      mload\n        /* \"src/file.sol\":2784:2804  chunkData.length > 0 */\n      gt\n        /* \"src/file.sol\":2784:2837  chunkData.length > 0 && chunkData.length <= 10 * 1024 */\n      dup1\n      iszero\n      tag_134\n      jumpi\n      pop\n        /* \"src/file.sol\":2828:2837  10 * 1024 */\n      0x2800\n        /* \"src/file.sol\":2808:2817  chunkData */\n      dup3\n        /* \"src/file.sol\":2808:2824  chunkData.length */\n      mload\n        /* \"src/file.sol\":2808:2837  chunkData.length <= 10 * 1024 */\n      gt\n      iszero\n        /* \"src/file.sol\":2784:2837  chunkData.length > 0 && chunkData.length <= 10 * 1024 */\n    tag_134:\n        /* \"src/file.sol\":2776:2860  require(chunkData.length > 0 && chunkData.length <= 10 * 1024, \"Invalid chunk size\") */\n      tag_135\n      jumpi\n      mload(0x40)\n      shl(0xe5, 0x461bcd)\n      dup2\n      mstore\n        /* \"#utility.yul\":16132:16134   */\n      0x20\n        /* \"src/file.sol\":2776:2860  require(chunkData.length > 0 && chunkData.length <= 10 * 1024, \"Invalid chunk size\") */\n      0x04\n      dup3\n      add\n        /* \"#utility.yul\":16114:16135   */\n      mstore\n        /* \"#utility.yul\":16171:16173   */\n      0x12\n        /* \"#utility.yul\":16151:16169   */\n      0x24\n      dup3\n      add\n        /* \"#utility.yul\":16144:16174   */\n      mstore\n      shl(0x70, 0x496e76616c6964206368756e6b2073697a65)\n        /* \"#utility.yul\":16190:16208   */\n      0x44\n      dup3\n      add\n        /* \"#utility.yul\":16183:16231   */\n      mstore\n        /* \"#utility.yul\":16248:16266   */\n      0x64\n      add\n        /* \"src/file.sol\":2776:2860  require(chunkData.length > 0 && chunkData.length <= 10 * 1024, \"Invalid chunk size\") */\n      tag_103\n        /* \"#utility.yul\":15930:16272   */\n      jump\n        /* \"src/file.sol\":2776:2860  require(chunkData.length > 0 && chunkData.length <= 10 * 1024, \"Invalid chunk size\") */\n    tag_135:\n        /* \"src/file.sol\":2879:2900  FileInfo storage file */\n      0x00\n        /* \"src/file.sol\":2903:2926  mKeyToFileInfo[fileKey] */\n      dup4\n      dup2\n      mstore\n      0x20\n      dup2\n      swap1\n      mstore\n      0x40\n      swap1\n      keccak256\n        /* \"src/file.sol\":2944:2959  file.info.owner */\n      dup1\n      sload\n      sub(shl(0xa0, 0x01), 0x01)\n      and\n        /* \"src/file.sol\":2963:2973  msg.sender */\n      caller\n        /* \"src/file.sol\":2944:2973  file.info.owner == msg.sender */\n      eq\n        /* \"src/file.sol\":2936:3001  require(file.info.owner == msg.sender, \"Caller is not the owner\") */\n      tag_138\n      jumpi\n      mload(0x40)\n      shl(0xe5, 0x461bcd)\n      dup2\n      mstore\n      0x04\n      add\n      tag_103\n      swap1\n      tag_140\n      jump\t// in\n    tag_138:\n        /* \"src/file.sol\":3071:3091  file.info.contentLen */\n      0x02\n      dup2\n      add\n      sload\n        /* \"src/file.sol\":3051:3067  chunkData.length */\n      dup4\n      mload\n        /* \"src/file.sol\":3019:3048  file.progress.processedLength */\n      0x09\n      dup4\n      add\n      sload\n      sub(shl(0x40, 0x01), 0x01)\n        /* \"src/file.sol\":3071:3091  file.info.contentLen */\n      swap3\n      dup4\n      and\n      swap3\n        /* \"src/file.sol\":3019:3067  file.progress.processedLength + chunkData.length */\n      tag_141\n      swap3\n        /* \"src/file.sol\":3051:3067  chunkData.length */\n      swap2\n      shl(0x40, 0x01)\n        /* \"src/file.sol\":3019:3048  file.progress.processedLength */\n      swap1\n      div\n      and\n        /* \"src/file.sol\":3019:3067  file.progress.processedLength + chunkData.length */\n      tag_142\n      jump\t// in\n    tag_141:\n        /* \"src/file.sol\":3019:3091  file.progress.processedLength + chunkData.length <= file.info.contentLen */\n      gt\n      iszero\n        /* \"src/file.sol\":3011:3121  require(file.progress.processedLength + chunkData.length <= file.info.contentLen, \"Chunk exceeds file length\") */\n      tag_143\n      jumpi\n      mload(0x40)\n      shl(0xe5, 0x461bcd)\n      dup2\n      mstore\n        /* \"#utility.yul\":17093:17095   */\n      0x20\n        /* \"src/file.sol\":3011:3121  require(file.progress.processedLength + chunkData.length <= file.info.contentLen, \"Chunk exceeds file length\") */\n      0x04\n      dup3\n      add\n        /* \"#utility.yul\":17075:17096   */\n      mstore\n        /* \"#utility.yul\":17132:17134   */\n      0x19\n        /* \"#utility.yul\":17112:17130   */\n      0x24\n      dup3\n      add\n        /* \"#utility.yul\":17105:17135   */\n      mstore\n      shl(0x3b, 0x086d0eadcd640caf0c6cacac8e640ccd2d8ca40d8cadccee8d)\n        /* \"#utility.yul\":17151:17169   */\n      0x44\n      dup3\n      add\n        /* \"#utility.yul\":17144:17199   */\n      mstore\n        /* \"#utility.yul\":17216:17234   */\n      0x64\n      add\n        /* \"src/file.sol\":3011:3121  require(file.progress.processedLength + chunkData.length <= file.info.contentLen, \"Chunk exceeds file length\") */\n      tag_103\n        /* \"#utility.yul\":16891:17240   */\n      jump\n        /* \"src/file.sol\":3011:3121  require(file.progress.processedLength + chunkData.length <= file.info.contentLen, \"Chunk exceeds file length\") */\n    tag_143:\n        /* \"src/file.sol\":3159:3180  FileStatus.Processing */\n      0x00\n        /* \"src/file.sol\":3139:3155  file.info.status */\n      0x05\n      dup3\n      add\n      sload\n      0xff\n      and\n        /* \"src/file.sol\":3139:3180  file.info.status == FileStatus.Processing */\n      0x03\n      dup2\n      gt\n      iszero\n      tag_149\n      jumpi\n      tag_149\n      tag_99\n      jump\t// in\n    tag_149:\n      eq\n        /* \"src/file.sol\":3131:3212  require(file.info.status == FileStatus.Processing, \"File is not being processed\") */\n      tag_150\n      jumpi\n      mload(0x40)\n      shl(0xe5, 0x461bcd)\n      dup2\n      mstore\n        /* \"#utility.yul\":17447:17449   */\n      0x20\n        /* \"src/file.sol\":3131:3212  require(file.info.status == FileStatus.Processing, \"File is not being processed\") */\n      0x04\n      dup3\n      add\n        /* \"#utility.yul\":17429:17450   */\n      mstore\n        /* \"#utility.yul\":17486:17488   */\n      0x1b\n        /* \"#utility.yul\":17466:17484   */\n      0x24\n      dup3\n      add\n        /* \"#utility.yul\":17459:17489   */\n      mstore\n      shl(0x2a, 0x119a5b19481a5cc81b9bdd0818995a5b99c81c1c9bd8d95cdcd959)\n        /* \"#utility.yul\":17505:17523   */\n      0x44\n      dup3\n      add\n        /* \"#utility.yul\":17498:17555   */\n      mstore\n        /* \"#utility.yul\":17572:17590   */\n      0x64\n      add\n        /* \"src/file.sol\":3131:3212  require(file.info.status == FileStatus.Processing, \"File is not being processed\") */\n      tag_103\n        /* \"#utility.yul\":17245:17596   */\n      jump\n        /* \"src/file.sol\":3131:3212  require(file.info.status == FileStatus.Processing, \"File is not being processed\") */\n    tag_150:\n        /* \"src/file.sol\":3286:3299  file.progress */\n      0x08\n      dup2\n      add\n        /* \"src/file.sol\":3286:3313  file.progress.lastChunkHash */\n      sload\n        /* \"src/file.sol\":3269:3325  abi.encodePacked(file.progress.lastChunkHash, chunkData) */\n      mload(0x40)\n        /* \"src/file.sol\":3231:3256  bytes32 computedChunkHash */\n      0x00\n      swap2\n        /* \"src/file.sol\":3269:3325  abi.encodePacked(file.progress.lastChunkHash, chunkData) */\n      tag_153\n      swap2\n        /* \"src/file.sol\":3315:3324  chunkData */\n      dup7\n      swap1\n        /* \"src/file.sol\":3269:3325  abi.encodePacked(file.progress.lastChunkHash, chunkData) */\n      0x20\n      add\n      tag_154\n      jump\t// in\n    tag_153:\n      mload(0x40)\n      0x20\n      dup2\n      dup4\n      sub\n      sub\n      dup2\n      mstore\n      swap1\n      0x40\n      mstore\n        /* \"src/file.sol\":3259:3326  keccak256(abi.encodePacked(file.progress.lastChunkHash, chunkData)) */\n      dup1\n      mload\n      swap1\n      0x20\n      add\n      keccak256\n        /* \"src/file.sol\":3231:3326  bytes32 computedChunkHash = keccak256(abi.encodePacked(file.progress.lastChunkHash, chunkData)) */\n      swap1\n      pop\n        /* \"src/file.sol\":3365:3374  chunkHash */\n      dup3\n        /* \"src/file.sol\":3344:3361  computedChunkHash */\n      dup2\n        /* \"src/file.sol\":3344:3374  computedChunkHash == chunkHash */\n      eq\n        /* \"src/file.sol\":3336:3398  require(computedChunkHash == chunkHash, \"Chunk hash mismatch\") */\n      tag_155\n      jumpi\n      mload(0x40)\n      shl(0xe5, 0x461bcd)\n      dup2\n      mstore\n        /* \"#utility.yul\":18167:18169   */\n      0x20\n        /* \"src/file.sol\":3336:3398  require(computedChunkHash == chunkHash, \"Chunk hash mismatch\") */\n      0x04\n      dup3\n      add\n        /* \"#utility.yul\":18149:18170   */\n      mstore\n        /* \"#utility.yul\":18206:18208   */\n      0x13\n        /* \"#utility.yul\":18186:18204   */\n      0x24\n      dup3\n      add\n        /* \"#utility.yul\":18179:18209   */\n      mstore\n      shl(0x6b, 0x086d0eadcd640d0c2e6d040dad2e6dac2e8c6d)\n        /* \"#utility.yul\":18225:18243   */\n      0x44\n      dup3\n      add\n        /* \"#utility.yul\":18218:18267   */\n      mstore\n        /* \"#utility.yul\":18284:18302   */\n      0x64\n      add\n        /* \"src/file.sol\":3336:3398  require(computedChunkHash == chunkHash, \"Chunk hash mismatch\") */\n      tag_103\n        /* \"#utility.yul\":17965:18308   */\n      jump\n        /* \"src/file.sol\":3336:3398  require(computedChunkHash == chunkHash, \"Chunk hash mismatch\") */\n    tag_155:\n        /* \"src/file.sol\":3409:3422  file.progress */\n      0x08\n      dup3\n      add\n        /* \"src/file.sol\":3409:3456  file.progress.lastChunkHash = computedChunkHash */\n      dup2\n      swap1\n      sstore\n        /* \"src/file.sol\":3478:3507  file.progress.processedChunks */\n      0x09\n      dup3\n      add\n      sload\n      sub(shl(0x40, 0x01), 0x01)\n      and\n        /* \"src/file.sol\":3409:3436  file.progress.lastChunkHash */\n      0x00\n        /* \"src/file.sol\":3466:3508  file.chunks[file.progress.processedChunks] */\n      swap1\n      dup2\n      mstore\n        /* \"src/file.sol\":3466:3477  file.chunks */\n      0x0a\n      dup4\n      add\n        /* \"src/file.sol\":3466:3508  file.chunks[file.progress.processedChunks] */\n      0x20\n      mstore\n      0x40\n      swap1\n      keccak256\n        /* \"src/file.sol\":3466:3520  file.chunks[file.progress.processedChunks] = chunkData */\n      tag_158\n        /* \"src/file.sol\":3511:3520  chunkData */\n      dup6\n        /* \"src/file.sol\":3466:3508  file.chunks[file.progress.processedChunks] */\n      dup3\n        /* \"src/file.sol\":3466:3520  file.chunks[file.progress.processedChunks] = chunkData */\n      tag_159\n      jump\t// in\n    tag_158:\n      pop\n        /* \"src/file.sol\":3530:3559  file.progress.processedChunks */\n      0x09\n      dup3\n      add\n        /* \"src/file.sol\":3530:3561  file.progress.processedChunks++ */\n      dup1\n      sload\n      sub(shl(0x40, 0x01), 0x01)\n      and\n      swap1\n        /* \"src/file.sol\":3530:3559  file.progress.processedChunks */\n      0x00\n        /* \"src/file.sol\":3530:3561  file.progress.processedChunks++ */\n      tag_160\n      dup4\n      tag_161\n      jump\t// in\n    tag_160:\n      swap2\n      swap1\n      0x0100\n      exp\n      dup2\n      sload\n      dup2\n      sub(shl(0x40, 0x01), 0x01)\n      mul\n      not\n      and\n      swap1\n      dup4\n      sub(shl(0x40, 0x01), 0x01)\n      and\n      mul\n      or\n      swap1\n      sstore\n      pop\n      pop\n        /* \"src/file.sol\":3611:3620  chunkData */\n      dup4\n        /* \"src/file.sol\":3611:3627  chunkData.length */\n      mload\n        /* \"src/file.sol\":3571:3575  file */\n      dup3\n        /* \"src/file.sol\":3571:3584  file.progress */\n      0x08\n      add\n        /* \"src/file.sol\":3571:3600  file.progress.processedLength */\n      0x01\n      add\n      0x08\n        /* \"src/file.sol\":3571:3628  file.progress.processedLength += uint64(chunkData.length) */\n      dup3\n      dup3\n      dup3\n      swap1\n      sload\n      swap1\n      0x0100\n      exp\n      swap1\n      div\n      sub(shl(0x40, 0x01), 0x01)\n      and\n      tag_162\n      swap2\n      swap1\n      tag_163\n      jump\t// in\n    tag_162:\n      dup3\n      sload\n      0x0100\n      swap3\n      swap1\n      swap3\n      exp\n      sub(shl(0x40, 0x01), 0x01)\n      dup2\n      dup2\n      mul\n      not\n      swap1\n      swap4\n      and\n      swap2\n      dup4\n      and\n      mul\n      or\n      swap1\n      swap2\n      sstore\n        /* \"src/file.sol\":3667:3696  file.progress.processedLength */\n      0x09\n      dup5\n      add\n      sload\n        /* \"src/file.sol\":3643:3663  file.info.contentLen */\n      0x02\n      dup6\n      add\n      sload\n      shl(0x40, 0x01)\n        /* \"src/file.sol\":3667:3696  file.progress.processedLength */\n      swap1\n      swap2\n      div\n      dup3\n      and\n        /* \"src/file.sol\":3643:3663  file.info.contentLen */\n      swap2\n      and\n        /* \"src/file.sol\":3643:3696  file.info.contentLen == file.progress.processedLength */\n      eq\n      swap1\n      pop\n      dup1\n        /* \"src/file.sol\":3643:3754  file.info.contentLen == file.progress.processedLength || file.progress.processedChunks == file.info.totalChunks */\n      tag_164\n      jumpi\n      pop\n        /* \"src/file.sol\":3733:3754  file.info.totalChunks */\n      0x02\n      dup3\n      add\n      sload\n        /* \"src/file.sol\":3700:3729  file.progress.processedChunks */\n      0x09\n      dup4\n      add\n      sload\n      sub(shl(0x40, 0x01), 0x01)\n      swap1\n      dup2\n      and\n      shl(0x40, 0x01)\n        /* \"src/file.sol\":3733:3754  file.info.totalChunks */\n      swap1\n      swap3\n      div\n      and\n        /* \"src/file.sol\":3700:3754  file.progress.processedChunks == file.info.totalChunks */\n      eq\n        /* \"src/file.sol\":3643:3754  file.info.contentLen == file.progress.processedLength || file.progress.processedChunks == file.info.totalChunks */\n    tag_164:\n        /* \"src/file.sol\":3639:3851  if (file.info.contentLen == file.progress.processedLength || file.progress.processedChunks == file.info.totalChunks) {... */\n      iszero\n      tag_165\n      jumpi\n        /* \"src/file.sol\":3770:3786  file.info.status */\n      0x05\n      dup3\n      add\n        /* \"src/file.sol\":3770:3806  file.info.status = FileStatus.Active */\n      dup1\n      sload\n      not(0xff)\n      and\n        /* \"src/file.sol\":3789:3806  FileStatus.Active */\n      0x01\n        /* \"src/file.sol\":3770:3806  file.info.status = FileStatus.Active */\n      or\n      swap1\n      sstore\n      0x00\n        /* \"src/file.sol\":3827:3840  file.progress */\n      0x08\n      dup4\n      add\n        /* \"src/file.sol\":3820:3840  delete file.progress */\n      sstore\n      0x09\n      dup3\n      add\n      dup1\n      sload\n      not(sub(shl(0x80, 0x01), 0x01))\n      and\n      swap1\n      sstore\n        /* \"src/file.sol\":3639:3851  if (file.info.contentLen == file.progress.processedLength || file.progress.processedChunks == file.info.totalChunks) {... */\n    tag_165:\n        /* \"src/file.sol\":3897:3926  file.progress.processedChunks */\n      0x09\n      dup3\n      add\n      sload\n        /* \"src/file.sol\":3888:3895  fileKey */\n      dup6\n      swap1\n        /* \"src/file.sol\":3874:3931  ChunkUploaded(fileKey, file.progress.processedChunks - 1) */\n      0x9194bcee830b22b5e81ccd3c7efb4811ca70dfdd9bbfaa1719d15dfc18c6417d\n      swap1\n        /* \"src/file.sol\":3897:3930  file.progress.processedChunks - 1 */\n      tag_168\n      swap1\n        /* \"src/file.sol\":3929:3930  1 */\n      0x01\n      swap1\n      sub(shl(0x40, 0x01), 0x01)\n        /* \"src/file.sol\":3897:3926  file.progress.processedChunks */\n      and\n        /* \"src/file.sol\":3897:3930  file.progress.processedChunks - 1 */\n      tag_169\n      jump\t// in\n    tag_168:\n        /* \"src/file.sol\":3874:3931  ChunkUploaded(fileKey, file.progress.processedChunks - 1) */\n      mload(0x40)\n      sub(shl(0x40, 0x01), 0x01)\n        /* \"#utility.yul\":21261:21292   */\n      swap1\n      swap2\n      and\n        /* \"#utility.yul\":21243:21293   */\n      dup2\n      mstore\n        /* \"#utility.yul\":21231:21233   */\n      0x20\n        /* \"#utility.yul\":21216:21234   */\n      add\n        /* \"src/file.sol\":3874:3931  ChunkUploaded(fileKey, file.progress.processedChunks - 1) */\n      mload(0x40)\n      dup1\n      swap2\n      sub\n      swap1\n      log2\n        /* \"src/file.sol\":2766:3938  {... */\n      pop\n      pop\n        /* \"src/file.sol\":2676:3938  function uploadChunk(bytes32 fileKey, bytes memory chunkData, bytes32 chunkHash) external {... */\n      pop\n      pop\n      pop\n      jump\t// out\n        /* \"src/file.sol\":4372:4858  function deleteFile(bytes32 fileKey) external {... */\n    tag_36:\n        /* \"src/file.sol\":4428:4449  FileInfo storage file */\n      0x00\n        /* \"src/file.sol\":4452:4475  mKeyToFileInfo[fileKey] */\n      dup2\n      dup2\n      mstore\n      0x20\n      dup2\n      swap1\n      mstore\n      0x40\n      swap1\n      keccak256\n        /* \"src/file.sol\":4493:4508  file.info.owner */\n      dup1\n      sload\n      sub(shl(0xa0, 0x01), 0x01)\n      and\n        /* \"src/file.sol\":4512:4522  msg.sender */\n      caller\n        /* \"src/file.sol\":4493:4522  file.info.owner == msg.sender */\n      eq\n        /* \"src/file.sol\":4485:4550  require(file.info.owner == msg.sender, \"Caller is not the owner\") */\n      tag_173\n      jumpi\n      mload(0x40)\n      shl(0xe5, 0x461bcd)\n      dup2\n      mstore\n      0x04\n      add\n      tag_103\n      swap1\n      tag_140\n      jump\t// in\n    tag_173:\n        /* \"src/file.sol\":4588:4606  FileStatus.Deleted */\n      0x03\n        /* \"src/file.sol\":4568:4584  file.info.status */\n      0x05\n      dup3\n      add\n      sload\n      0xff\n      and\n        /* \"src/file.sol\":4568:4606  file.info.status != FileStatus.Deleted */\n      0x03\n      dup2\n      gt\n      iszero\n      tag_178\n      jumpi\n      tag_178\n      tag_99\n      jump\t// in\n    tag_178:\n      sub\n        /* \"src/file.sol\":4560:4631  require(file.info.status != FileStatus.Deleted, \"File already deleted\") */\n      tag_179\n      jumpi\n      mload(0x40)\n      shl(0xe5, 0x461bcd)\n      dup2\n      mstore\n        /* \"#utility.yul\":21506:21508   */\n      0x20\n        /* \"src/file.sol\":4560:4631  require(file.info.status != FileStatus.Deleted, \"File already deleted\") */\n      0x04\n      dup3\n      add\n        /* \"#utility.yul\":21488:21509   */\n      mstore\n        /* \"#utility.yul\":21545:21547   */\n      0x14\n        /* \"#utility.yul\":21525:21543   */\n      0x24\n      dup3\n      add\n        /* \"#utility.yul\":21518:21548   */\n      mstore\n      shl(0x62, 0x119a5b1948185b1c9958591e4819195b195d1959)\n        /* \"#utility.yul\":21564:21582   */\n      0x44\n      dup3\n      add\n        /* \"#utility.yul\":21557:21607   */\n      mstore\n        /* \"#utility.yul\":21624:21642   */\n      0x64\n      add\n        /* \"src/file.sol\":4560:4631  require(file.info.status != FileStatus.Deleted, \"File already deleted\") */\n      tag_103\n        /* \"#utility.yul\":21304:21648   */\n      jump\n        /* \"src/file.sol\":4560:4631  require(file.info.status != FileStatus.Deleted, \"File already deleted\") */\n    tag_179:\n        /* \"src/file.sol\":4642:4658  file.info.status */\n      0x05\n      dup2\n      add\n        /* \"src/file.sol\":4642:4679  file.info.status = FileStatus.Deleted */\n      dup1\n      sload\n      not(0xff)\n      and\n        /* \"src/file.sol\":4661:4679  FileStatus.Deleted */\n      0x03\n        /* \"src/file.sol\":4642:4679  file.info.status = FileStatus.Deleted */\n      or\n      swap1\n      sstore\n      0x00\n        /* \"src/file.sol\":4689:4787  for (uint256 i = 0; i < file.info.totalChunks; i++) {... */\n    tag_184:\n        /* \"src/file.sol\":4713:4734  file.info.totalChunks */\n      0x02\n      dup3\n      add\n      sload\n      shl(0x40, 0x01)\n      swap1\n      div\n      sub(shl(0x40, 0x01), 0x01)\n      and\n        /* \"src/file.sol\":4709:4734  i < file.info.totalChunks */\n      dup2\n      lt\n        /* \"src/file.sol\":4689:4787  for (uint256 i = 0; i < file.info.totalChunks; i++) {... */\n      iszero\n      tag_185\n      jumpi\n        /* \"src/file.sol\":4762:4776  file.chunks[i] */\n      0x00\n      dup2\n      dup2\n      mstore\n        /* \"src/file.sol\":4762:4773  file.chunks */\n      0x0a\n      dup4\n      add\n        /* \"src/file.sol\":4762:4776  file.chunks[i] */\n      0x20\n      mstore\n      0x40\n      dup2\n      keccak256\n        /* \"src/file.sol\":4755:4776  delete file.chunks[i] */\n      tag_187\n      swap2\n      tag_188\n      jump\t// in\n    tag_187:\n        /* \"src/file.sol\":4736:4739  i++ */\n      dup1\n      tag_189\n      dup2\n      tag_190\n      jump\t// in\n    tag_189:\n      swap2\n      pop\n      pop\n        /* \"src/file.sol\":4689:4787  for (uint256 i = 0; i < file.info.totalChunks; i++) {... */\n      jump(tag_184)\n    tag_185:\n      pop\n        /* \"src/file.sol\":4803:4816  file.progress */\n      0x00\n      0x08\n      dup3\n      add\n        /* \"src/file.sol\":4796:4816  delete file.progress */\n      dup2\n      swap1\n      sstore\n      0x09\n      dup3\n      add\n      dup1\n      sload\n      not(sub(shl(0x80, 0x01), 0x01))\n      and\n      swap1\n      sstore\n        /* \"src/file.sol\":4831:4851  FileDeleted(fileKey) */\n      mload(0x40)\n        /* \"src/file.sol\":4843:4850  fileKey */\n      dup4\n      swap2\n        /* \"src/file.sol\":4831:4851  FileDeleted(fileKey) */\n      0x88efefb1eaec3d3a0e08ed74bc99a3407d454b5da66112fed68b20d54837ccae\n      swap2\n      log2\n        /* \"src/file.sol\":4418:4858  {... */\n      pop\n        /* \"src/file.sol\":4372:4858  function deleteFile(bytes32 fileKey) external {... */\n      pop\n      jump\t// out\n        /* \"src/file.sol\":914:1196  function pushFileInfos(... */\n    tag_40:\n        /* \"src/file.sol\":988:1004  bytes32[] memory */\n      0x60\n        /* \"src/file.sol\":1015:1036  bytes32[] memory keys */\n      0x00\n        /* \"src/file.sol\":1053:1058  infos */\n      dup3\n        /* \"src/file.sol\":1053:1065  infos.length */\n      mload\n      sub(shl(0x40, 0x01), 0x01)\n        /* \"src/file.sol\":1039:1066  new bytes32[](infos.length) */\n      dup2\n      gt\n      iszero\n      tag_193\n      jumpi\n      tag_193\n      tag_194\n      jump\t// in\n    tag_193:\n      mload(0x40)\n      swap1\n      dup1\n      dup3\n      mstore\n      dup1\n      0x20\n      mul\n      0x20\n      add\n      dup3\n      add\n      0x40\n      mstore\n      dup1\n      iszero\n      tag_195\n      jumpi\n      dup2\n      0x20\n      add\n      0x20\n      dup3\n      mul\n      dup1\n      calldatasize\n      dup4\n      calldatacopy\n      add\n      swap1\n      pop\n    tag_195:\n      pop\n        /* \"src/file.sol\":1015:1066  bytes32[] memory keys = new bytes32[](infos.length) */\n      swap1\n      pop\n        /* \"src/file.sol\":1080:1089  uint256 i */\n      0x00\n        /* \"src/file.sol\":1076:1169  for(uint256 i; i< infos.length; i++){... */\n    tag_196:\n        /* \"src/file.sol\":1094:1099  infos */\n      dup4\n        /* \"src/file.sol\":1094:1106  infos.length */\n      mload\n        /* \"src/file.sol\":1091:1092  i */\n      dup2\n        /* \"src/file.sol\":1091:1106  i< infos.length */\n      lt\n        /* \"src/file.sol\":1076:1169  for(uint256 i; i< infos.length; i++){... */\n      iszero\n      tag_197\n      jumpi\n        /* \"src/file.sol\":1136:1158  pushFileInfo(infos[i]) */\n      tag_199\n        /* \"src/file.sol\":1149:1154  infos */\n      dup5\n        /* \"src/file.sol\":1155:1156  i */\n      dup3\n        /* \"src/file.sol\":1149:1157  infos[i] */\n      dup2\n      mload\n      dup2\n      lt\n      tag_201\n      jumpi\n      tag_201\n      tag_202\n      jump\t// in\n    tag_201:\n      0x20\n      mul\n      0x20\n      add\n      add\n      mload\n        /* \"src/file.sol\":1136:1148  pushFileInfo */\n      tag_66\n        /* \"src/file.sol\":1136:1158  pushFileInfo(infos[i]) */\n      jump\t// in\n    tag_199:\n        /* \"src/file.sol\":1126:1130  keys */\n      dup3\n        /* \"src/file.sol\":1131:1132  i */\n      dup3\n        /* \"src/file.sol\":1126:1133  keys[i] */\n      dup2\n      mload\n      dup2\n      lt\n      tag_204\n      jumpi\n      tag_204\n      tag_202\n      jump\t// in\n    tag_204:\n      0x20\n      swap1\n      dup2\n      mul\n      swap2\n      swap1\n      swap2\n      add\n      add\n        /* \"src/file.sol\":1126:1158  keys[i] = pushFileInfo(infos[i]) */\n      mstore\n        /* \"src/file.sol\":1108:1111  i++ */\n      dup1\n      tag_205\n      dup2\n      tag_190\n      jump\t// in\n    tag_205:\n      swap2\n      pop\n      pop\n        /* \"src/file.sol\":1076:1169  for(uint256 i; i< infos.length; i++){... */\n      jump(tag_196)\n    tag_197:\n      pop\n        /* \"src/file.sol\":1185:1189  keys */\n      swap3\n        /* \"src/file.sol\":914:1196  function pushFileInfos(... */\n      swap2\n      pop\n      pop\n      jump\t// out\n        /* \"src/file.sol\":4864:5317  function renewTime(bytes32 fileKey, uint64 _newExpireTime) external {... */\n    tag_50:\n        /* \"src/file.sol\":4942:4963  FileInfo storage file */\n      0x00\n        /* \"src/file.sol\":4966:4989  mKeyToFileInfo[fileKey] */\n      dup3\n      dup2\n      mstore\n      0x20\n      dup2\n      swap1\n      mstore\n      0x40\n      swap1\n      keccak256\n        /* \"src/file.sol\":5007:5022  file.info.owner */\n      dup1\n      sload\n      sub(shl(0xa0, 0x01), 0x01)\n      and\n        /* \"src/file.sol\":5026:5036  msg.sender */\n      caller\n        /* \"src/file.sol\":5007:5036  file.info.owner == msg.sender */\n      eq\n        /* \"src/file.sol\":4999:5064  require(file.info.owner == msg.sender, \"Caller is not the owner\") */\n      tag_207\n      jumpi\n      mload(0x40)\n      shl(0xe5, 0x461bcd)\n      dup2\n      mstore\n      0x04\n      add\n      tag_103\n      swap1\n      tag_140\n      jump\t// in\n    tag_207:\n        /* \"src/file.sol\":5102:5120  FileStatus.Deleted */\n      0x03\n        /* \"src/file.sol\":5082:5098  file.info.status */\n      0x05\n      dup3\n      add\n      sload\n      0xff\n      and\n        /* \"src/file.sol\":5082:5120  file.info.status != FileStatus.Deleted */\n      0x03\n      dup2\n      gt\n      iszero\n      tag_212\n      jumpi\n      tag_212\n      tag_99\n      jump\t// in\n    tag_212:\n      sub\n        /* \"src/file.sol\":5074:5146  require(file.info.status != FileStatus.Deleted, \"File has been deleted\") */\n      tag_213\n      jumpi\n      mload(0x40)\n      shl(0xe5, 0x461bcd)\n      dup2\n      mstore\n        /* \"#utility.yul\":22127:22129   */\n      0x20\n        /* \"src/file.sol\":5074:5146  require(file.info.status != FileStatus.Deleted, \"File has been deleted\") */\n      0x04\n      dup3\n      add\n        /* \"#utility.yul\":22109:22130   */\n      mstore\n        /* \"#utility.yul\":22166:22168   */\n      0x15\n        /* \"#utility.yul\":22146:22164   */\n      0x24\n      dup3\n      add\n        /* \"#utility.yul\":22139:22169   */\n      mstore\n      shl(0x5a, 0x119a5b19481a185cc81899595b8819195b195d1959)\n        /* \"#utility.yul\":22185:22203   */\n      0x44\n      dup3\n      add\n        /* \"#utility.yul\":22178:22229   */\n      mstore\n        /* \"#utility.yul\":22246:22264   */\n      0x64\n      add\n        /* \"src/file.sol\":5074:5146  require(file.info.status != FileStatus.Deleted, \"File has been deleted\") */\n      tag_103\n        /* \"#utility.yul\":21925:22270   */\n      jump\n        /* \"src/file.sol\":5074:5146  require(file.info.status != FileStatus.Deleted, \"File has been deleted\") */\n    tag_213:\n        /* \"src/file.sol\":5181:5205  block.timestamp + 1 days */\n      tag_216\n        /* \"src/file.sol\":5181:5196  block.timestamp */\n      timestamp\n        /* \"src/file.sol\":5199:5205  1 days */\n      0x015180\n        /* \"src/file.sol\":5181:5205  block.timestamp + 1 days */\n      tag_142\n      jump\t// in\n    tag_216:\n        /* \"src/file.sol\":5164:5178  _newExpireTime */\n      dup3\n      sub(shl(0x40, 0x01), 0x01)\n        /* \"src/file.sol\":5164:5205  _newExpireTime > block.timestamp + 1 days */\n      and\n      gt\n        /* \"src/file.sol\":5156:5262  require(_newExpireTime > block.timestamp + 1 days, \"New expire time must be at least 1 day in the future\") */\n      tag_217\n      jumpi\n      mload(0x40)\n      shl(0xe5, 0x461bcd)\n      dup2\n      mstore\n        /* \"#utility.yul\":22477:22479   */\n      0x20\n        /* \"src/file.sol\":5156:5262  require(_newExpireTime > block.timestamp + 1 days, \"New expire time must be at least 1 day in the future\") */\n      0x04\n      dup3\n      add\n        /* \"#utility.yul\":22459:22480   */\n      mstore\n        /* \"#utility.yul\":22516:22518   */\n      0x34\n        /* \"#utility.yul\":22496:22514   */\n      0x24\n      dup3\n      add\n        /* \"#utility.yul\":22489:22519   */\n      mstore\n        /* \"#utility.yul\":22555:22589   */\n      0x4e6577206578706972652074696d65206d757374206265206174206c65617374\n        /* \"#utility.yul\":22535:22553   */\n      0x44\n      dup3\n      add\n        /* \"#utility.yul\":22528:22590   */\n      mstore\n      shl(0x60, 0x20312064617920696e2074686520667574757265)\n        /* \"#utility.yul\":22606:22624   */\n      0x64\n      dup3\n      add\n        /* \"#utility.yul\":22599:22649   */\n      mstore\n        /* \"#utility.yul\":22666:22685   */\n      0x84\n      add\n        /* \"src/file.sol\":5156:5262  require(_newExpireTime > block.timestamp + 1 days, \"New expire time must be at least 1 day in the future\") */\n      tag_103\n        /* \"#utility.yul\":22275:22691   */\n      jump\n        /* \"src/file.sol\":5156:5262  require(_newExpireTime > block.timestamp + 1 days, \"New expire time must be at least 1 day in the future\") */\n    tag_217:\n        /* \"src/file.sol\":5273:5293  file.info.expireTime */\n      0x02\n      add\n        /* \"src/file.sol\":5273:5310  file.info.expireTime = _newExpireTime */\n      dup1\n      sload\n      sub(shl(0x40, 0x01), 0x01)\n      swap1\n      swap3\n      and\n      shl(0x80, 0x01)\n      mul\n      not(sub(shl(0xc0, 0x01), shl(0x80, 0x01)))\n      swap1\n      swap3\n      and\n      swap2\n      swap1\n      swap2\n      or\n      swap1\n      sstore\n      pop\n        /* \"src/file.sol\":4864:5317  function renewTime(bytes32 fileKey, uint64 _newExpireTime) external {... */\n      jump\t// out\n        /* \"src/file.sol\":3944:4366  function lockFile(bytes32 fileKey) external {... */\n    tag_53:\n        /* \"src/file.sol\":3998:4019  FileInfo storage file */\n      0x00\n        /* \"src/file.sol\":4022:4045  mKeyToFileInfo[fileKey] */\n      dup2\n      dup2\n      mstore\n      0x20\n      dup2\n      swap1\n      mstore\n      0x40\n      swap1\n      keccak256\n        /* \"src/file.sol\":4063:4078  file.info.owner */\n      dup1\n      sload\n      sub(shl(0xa0, 0x01), 0x01)\n      and\n        /* \"src/file.sol\":4082:4092  msg.sender */\n      caller\n        /* \"src/file.sol\":4063:4092  file.info.owner == msg.sender */\n      eq\n        /* \"src/file.sol\":4055:4120  require(file.info.owner == msg.sender, \"Caller is not the owner\") */\n      tag_221\n      jumpi\n      mload(0x40)\n      shl(0xe5, 0x461bcd)\n      dup2\n      mstore\n      0x04\n      add\n      tag_103\n      swap1\n      tag_140\n      jump\t// in\n    tag_221:\n        /* \"src/file.sol\":4158:4175  FileStatus.Active */\n      0x01\n        /* \"src/file.sol\":4138:4154  file.info.status */\n      0x05\n      dup3\n      add\n      sload\n      0xff\n      and\n        /* \"src/file.sol\":4138:4175  file.info.status == FileStatus.Active */\n      0x03\n      dup2\n      gt\n      iszero\n      tag_226\n      jumpi\n      tag_226\n      tag_99\n      jump\t// in\n    tag_226:\n      eq\n        /* \"src/file.sol\":4130:4198  require(file.info.status == FileStatus.Active, \"File is not active\") */\n      tag_227\n      jumpi\n      mload(0x40)\n      shl(0xe5, 0x461bcd)\n      dup2\n      mstore\n        /* \"#utility.yul\":22898:22900   */\n      0x20\n        /* \"src/file.sol\":4130:4198  require(file.info.status == FileStatus.Active, \"File is not active\") */\n      0x04\n      dup3\n      add\n        /* \"#utility.yul\":22880:22901   */\n      mstore\n        /* \"#utility.yul\":22937:22939   */\n      0x12\n        /* \"#utility.yul\":22917:22935   */\n      0x24\n      dup3\n      add\n        /* \"#utility.yul\":22910:22940   */\n      mstore\n      shl(0x70, 0x46696c65206973206e6f7420616374697665)\n        /* \"#utility.yul\":22956:22974   */\n      0x44\n      dup3\n      add\n        /* \"#utility.yul\":22949:22997   */\n      mstore\n        /* \"#utility.yul\":23014:23032   */\n      0x64\n      add\n        /* \"src/file.sol\":4130:4198  require(file.info.status == FileStatus.Active, \"File is not active\") */\n      tag_103\n        /* \"#utility.yul\":22696:23038   */\n      jump\n        /* \"src/file.sol\":4130:4198  require(file.info.status == FileStatus.Active, \"File is not active\") */\n    tag_227:\n        /* \"src/file.sol\":4235:4255  file.info.expireTime */\n      0x02\n      dup2\n      add\n      sload\n      shl(0x80, 0x01)\n      swap1\n      div\n      sub(shl(0x40, 0x01), 0x01)\n      and\n        /* \"src/file.sol\":4216:4231  block.timestamp */\n      timestamp\n        /* \"src/file.sol\":4216:4255  block.timestamp <= file.info.expireTime */\n      gt\n      iszero\n        /* \"src/file.sol\":4208:4276  require(block.timestamp <= file.info.expireTime, \"File has expired\") */\n      tag_230\n      jumpi\n      mload(0x40)\n      shl(0xe5, 0x461bcd)\n      dup2\n      mstore\n      0x04\n      add\n      tag_103\n      swap1\n      tag_232\n      jump\t// in\n    tag_230:\n        /* \"src/file.sol\":4287:4303  file.info.status */\n      0x05\n      dup2\n      add\n        /* \"src/file.sol\":4287:4325  file.info.status = FileStatus.Deactive */\n      dup1\n      sload\n      not(0xff)\n      and\n        /* \"src/file.sol\":4306:4325  FileStatus.Deactive */\n      0x02\n        /* \"src/file.sol\":4287:4325  file.info.status = FileStatus.Deactive */\n      or\n      swap1\n      sstore\n        /* \"src/file.sol\":4340:4359  FileLocked(fileKey) */\n      mload(0x40)\n        /* \"src/file.sol\":4351:4358  fileKey */\n      dup3\n      swap1\n        /* \"src/file.sol\":4340:4359  FileLocked(fileKey) */\n      0x45987cd84c3c0ec7c3b91dde29affe01363c3777aec1247553883b2431747330\n      swap1\n      0x00\n      swap1\n      log2\n        /* \"src/file.sol\":3988:4366  {... */\n      pop\n        /* \"src/file.sol\":3944:4366  function lockFile(bytes32 fileKey) external {... */\n      pop\n      jump\t// out\n        /* \"src/file.sol\":812:904  function setService(address _service) external onlyOwner {... */\n    tag_57:\n        /* \"src/file.sol\":578:583  owner */\n      and(sub(shl(0xa0, 0x01), 0x01), sload(0x03))\n        /* \"src/file.sol\":564:574  msg.sender */\n      caller\n        /* \"src/file.sol\":564:583  msg.sender == owner */\n      eq\n        /* \"src/file.sol\":556:611  require(msg.sender == owner, \"Caller is not the owner\") */\n      tag_236\n      jumpi\n      mload(0x40)\n      shl(0xe5, 0x461bcd)\n      dup2\n      mstore\n      0x04\n      add\n      tag_103\n      swap1\n      tag_140\n      jump\t// in\n    tag_236:\n        /* \"src/file.sol\":879:886  service */\n      0x02\n        /* \"src/file.sol\":879:897  service = _service */\n      dup1\n      sload\n      not(sub(shl(0xa0, 0x01), 0x01))\n      and\n      sub(shl(0xa0, 0x01), 0x01)\n      swap3\n      swap1\n      swap3\n      and\n      swap2\n      swap1\n      swap2\n      or\n      swap1\n      sstore\n        /* \"src/file.sol\":812:904  function setService(address _service) external onlyOwner {... */\n      jump\t// out\n        /* \"src/file.sol\":362:412  mapping(bytes32 => FileInfo) public mKeyToFileInfo */\n    tag_60:\n      0x00\n      0x20\n      dup2\n      dup2\n      mstore\n      swap2\n      dup2\n      mstore\n      0x40\n      swap1\n      dup2\n      swap1\n      keccak256\n      dup2\n      mload\n      0x0140\n      dup2\n      add\n      dup4\n      mstore\n      dup2\n      sload\n      sub(shl(0xa0, 0x01), 0x01)\n      and\n      dup2\n      mstore\n      0x01\n      dup3\n      add\n      sload\n      swap4\n      dup2\n      add\n      swap4\n      swap1\n      swap4\n      mstore\n      0x02\n      dup2\n      add\n      sload\n      sub(shl(0x40, 0x01), 0x01)\n      dup1\n      dup3\n      and\n      swap4\n      dup6\n      add\n      swap4\n      swap1\n      swap4\n      mstore\n      shl(0x40, 0x01)\n      dup2\n      div\n      dup4\n      and\n      0x60\n      dup6\n      add\n      mstore\n      shl(0x80, 0x01)\n      swap1\n      div\n      swap1\n      swap2\n      and\n      0x80\n      dup4\n      add\n      mstore\n      0x03\n      dup2\n      add\n      dup1\n      sload\n      swap2\n      swap3\n      swap2\n      dup4\n      swap2\n      0xa0\n      dup5\n      add\n      swap2\n      tag_239\n      swap1\n      tag_109\n      jump\t// in\n    tag_239:\n      dup1\n      0x1f\n      add\n      0x20\n      dup1\n      swap2\n      div\n      mul\n      0x20\n      add\n      mload(0x40)\n      swap1\n      dup2\n      add\n      0x40\n      mstore\n      dup1\n      swap3\n      swap2\n      swap1\n      dup2\n      dup2\n      mstore\n      0x20\n      add\n      dup3\n      dup1\n      sload\n      tag_240\n      swap1\n      tag_109\n      jump\t// in\n    tag_240:\n      dup1\n      iszero\n      tag_241\n      jumpi\n      dup1\n      0x1f\n      lt\n      tag_242\n      jumpi\n      0x0100\n      dup1\n      dup4\n      sload\n      div\n      mul\n      dup4\n      mstore\n      swap2\n      0x20\n      add\n      swap2\n      jump(tag_241)\n    tag_242:\n      dup3\n      add\n      swap2\n      swap1\n      0x00\n      mstore\n      keccak256(0x00, 0x20)\n      swap1\n    tag_243:\n      dup2\n      sload\n      dup2\n      mstore\n      swap1\n      0x01\n      add\n      swap1\n      0x20\n      add\n      dup1\n      dup4\n      gt\n      tag_243\n      jumpi\n      dup3\n      swap1\n      sub\n      0x1f\n      and\n      dup3\n      add\n      swap2\n    tag_241:\n      pop\n      pop\n      pop\n      pop\n      pop\n      dup2\n      mstore\n      0x20\n      add\n      0x04\n      dup3\n      add\n      dup1\n      sload\n      tag_244\n      swap1\n      tag_109\n      jump\t// in\n    tag_244:\n      dup1\n      0x1f\n      add\n      0x20\n      dup1\n      swap2\n      div\n      mul\n      0x20\n      add\n      mload(0x40)\n      swap1\n      dup2\n      add\n      0x40\n      mstore\n      dup1\n      swap3\n      swap2\n      swap1\n      dup2\n      dup2\n      mstore\n      0x20\n      add\n      dup3\n      dup1\n      sload\n      tag_245\n      swap1\n      tag_109\n      jump\t// in\n    tag_245:\n      dup1\n      iszero\n      tag_246\n      jumpi\n      dup1\n      0x1f\n      lt\n      tag_247\n      jumpi\n      0x0100\n      dup1\n      dup4\n      sload\n      div\n      mul\n      dup4\n      mstore\n      swap2\n      0x20\n      add\n      swap2\n      jump(tag_246)\n    tag_247:\n      dup3\n      add\n      swap2\n      swap1\n      0x00\n      mstore\n      keccak256(0x00, 0x20)\n      swap1\n    tag_248:\n      dup2\n      sload\n      dup2\n      mstore\n      swap1\n      0x01\n      add\n      swap1\n      0x20\n      add\n      dup1\n      dup4\n      gt\n      tag_248\n      jumpi\n      dup3\n      swap1\n      sub\n      0x1f\n      and\n      dup3\n      add\n      swap2\n    tag_246:\n      pop\n      pop\n      pop\n      swap2\n      dup4\n      mstore\n      pop\n      pop\n      0x05\n      dup3\n      add\n      sload\n      0x20\n      swap1\n      swap2\n      add\n      swap1\n      0xff\n      and\n      0x03\n      dup2\n      gt\n      iszero\n      tag_250\n      jumpi\n      tag_250\n      tag_99\n      jump\t// in\n    tag_250:\n      0x03\n      dup2\n      gt\n      iszero\n      tag_252\n      jumpi\n      tag_252\n      tag_99\n      jump\t// in\n    tag_252:\n      dup2\n      mstore\n      0x20\n      add\n      0x06\n      dup3\n      add\n      dup1\n      sload\n      tag_253\n      swap1\n      tag_109\n      jump\t// in\n    tag_253:\n      dup1\n      0x1f\n      add\n      0x20\n      dup1\n      swap2\n      div\n      mul\n      0x20\n      add\n      mload(0x40)\n      swap1\n      dup2\n      add\n      0x40\n      mstore\n      dup1\n      swap3\n      swap2\n      swap1\n      dup2\n      dup2\n      mstore\n      0x20\n      add\n      dup3\n      dup1\n      sload\n      tag_254\n      swap1\n      tag_109\n      jump\t// in\n    tag_254:\n      dup1\n      iszero\n      tag_255\n      jumpi\n      dup1\n      0x1f\n      lt\n      tag_256\n      jumpi\n      0x0100\n      dup1\n      dup4\n      sload\n      div\n      mul\n      dup4\n      mstore\n      swap2\n      0x20\n      add\n      swap2\n      jump(tag_255)\n    tag_256:\n      dup3\n      add\n      swap2\n      swap1\n      0x00\n      mstore\n      keccak256(0x00, 0x20)\n      swap1\n    tag_257:\n      dup2\n      sload\n      dup2\n      mstore\n      swap1\n      0x01\n      add\n      swap1\n      0x20\n      add\n      dup1\n      dup4\n      gt\n      tag_257\n      jumpi\n      dup3\n      swap1\n      sub\n      0x1f\n      and\n      dup3\n      add\n      swap2\n    tag_255:\n      pop\n      pop\n      pop\n      pop\n      pop\n      dup2\n      mstore\n      0x20\n      add\n      0x07\n      dup3\n      add\n      dup1\n      sload\n      tag_258\n      swap1\n      tag_109\n      jump\t// in\n    tag_258:\n      dup1\n      0x1f\n      add\n      0x20\n      dup1\n      swap2\n      div\n      mul\n      0x20\n      add\n      mload(0x40)\n      swap1\n      dup2\n      add\n      0x40\n      mstore\n      dup1\n      swap3\n      swap2\n      swap1\n      dup2\n      dup2\n      mstore\n      0x20\n      add\n      dup3\n      dup1\n      sload\n      tag_259\n      swap1\n      tag_109\n      jump\t// in\n    tag_259:\n      dup1\n      iszero\n      tag_260\n      jumpi\n      dup1\n      0x1f\n      lt\n      tag_261\n      jumpi\n      0x0100\n      dup1\n      dup4\n      sload\n      div\n      mul\n      dup4\n      mstore\n      swap2\n      0x20\n      add\n      swap2\n      jump(tag_260)\n    tag_261:\n      dup3\n      add\n      swap2\n      swap1\n      0x00\n      mstore\n      keccak256(0x00, 0x20)\n      swap1\n    tag_262:\n      dup2\n      sload\n      dup2\n      mstore\n      swap1\n      0x01\n      add\n      swap1\n      0x20\n      add\n      dup1\n      dup4\n      gt\n      tag_262\n      jumpi\n      dup3\n      swap1\n      sub\n      0x1f\n      and\n      dup3\n      add\n      swap2\n    tag_260:\n      pop\n      pop\n      pop\n      swap2\n      swap1\n      swap3\n      mstore\n      pop\n      pop\n      0x40\n      dup1\n      mload\n      0x60\n      dup2\n      add\n      dup3\n      mstore\n      0x08\n      dup6\n      add\n      sload\n      dup2\n      mstore\n      0x09\n      swap1\n      swap5\n      add\n      sload\n      sub(shl(0x40, 0x01), 0x01)\n      dup1\n      dup3\n      and\n      0x20\n      dup8\n      add\n      mstore\n      shl(0x40, 0x01)\n      swap1\n      swap2\n      div\n      and\n      swap1\n      dup5\n      add\n      mstore\n      pop\n      swap1\n      dup3\n      jump\t// out\n        /* \"src/file.sol\":1202:2369  function pushFileInfo(Info memory info) public returns (bytes32 fileKey) {... */\n    tag_66:\n        /* \"src/file.sol\":1258:1273  bytes32 fileKey */\n      0x00\n        /* \"src/file.sol\":1311:1335  block.timestamp + 1 days */\n      tag_264\n        /* \"src/file.sol\":1311:1326  block.timestamp */\n      timestamp\n        /* \"src/file.sol\":1329:1335  1 days */\n      0x015180\n        /* \"src/file.sol\":1311:1335  block.timestamp + 1 days */\n      tag_142\n      jump\t// in\n    tag_264:\n        /* \"src/file.sol\":1293:1297  info */\n      dup3\n        /* \"src/file.sol\":1293:1308  info.expireTime */\n      0x80\n      add\n      mload\n      sub(shl(0x40, 0x01), 0x01)\n        /* \"src/file.sol\":1293:1335  info.expireTime > block.timestamp + 1 days */\n      and\n      gt\n        /* \"src/file.sol\":1285:1388  require(info.expireTime > block.timestamp + 1 days, \"Expire time must be at least 1 day in the future\") */\n      tag_265\n      jumpi\n      mload(0x40)\n      shl(0xe5, 0x461bcd)\n      dup2\n      mstore\n        /* \"#utility.yul\":23590:23592   */\n      0x20\n        /* \"src/file.sol\":1285:1388  require(info.expireTime > block.timestamp + 1 days, \"Expire time must be at least 1 day in the future\") */\n      0x04\n      dup3\n      add\n        /* \"#utility.yul\":23572:23593   */\n      mstore\n        /* \"#utility.yul\":23629:23631   */\n      0x30\n        /* \"#utility.yul\":23609:23627   */\n      0x24\n      dup3\n      add\n        /* \"#utility.yul\":23602:23632   */\n      mstore\n        /* \"#utility.yul\":23668:23702   */\n      0x4578706972652074696d65206d757374206265206174206c6561737420312064\n        /* \"#utility.yul\":23648:23666   */\n      0x44\n      dup3\n      add\n        /* \"#utility.yul\":23641:23703   */\n      mstore\n      shl(0x80, 0x617920696e2074686520667574757265)\n        /* \"#utility.yul\":23719:23737   */\n      0x64\n      dup3\n      add\n        /* \"#utility.yul\":23712:23758   */\n      mstore\n        /* \"#utility.yul\":23775:23794   */\n      0x84\n      add\n        /* \"src/file.sol\":1285:1388  require(info.expireTime > block.timestamp + 1 days, \"Expire time must be at least 1 day in the future\") */\n      tag_103\n        /* \"#utility.yul\":23388:23800   */\n      jump\n        /* \"src/file.sol\":1285:1388  require(info.expireTime > block.timestamp + 1 days, \"Expire time must be at least 1 day in the future\") */\n    tag_265:\n        /* \"src/file.sol\":1448:1452  info */\n      dup2\n        /* \"src/file.sol\":1448:1463  info.contentLen */\n      0x40\n      add\n      mload\n        /* \"src/file.sol\":1465:1469  info */\n      dup3\n        /* \"src/file.sol\":1465:1480  info.expireTime */\n      0x80\n      add\n      mload\n        /* \"src/file.sol\":1482:1486  info */\n      dup4\n        /* \"src/file.sol\":1482:1491  info.hash */\n      0x20\n      add\n      mload\n        /* \"src/file.sol\":1493:1497  info */\n      dup5\n        /* \"src/file.sol\":1493:1502  info.name */\n      0xa0\n      add\n      mload\n        /* \"src/file.sol\":1504:1508  info */\n      dup6\n        /* \"src/file.sol\":1504:1512  info.ext */\n      0xc0\n      add\n      mload\n        /* \"src/file.sol\":1514:1529  block.timestamp */\n      timestamp\n        /* \"src/file.sol\":1431:1530  abi.encodePacked(info.contentLen, info.expireTime, info.hash, info.name, info.ext, block.timestamp) */\n      add(0x20, mload(0x40))\n      tag_268\n      swap7\n      swap6\n      swap5\n      swap4\n      swap3\n      swap2\n      swap1\n      tag_269\n      jump\t// in\n    tag_268:\n      mload(0x40)\n      0x20\n      dup2\n      dup4\n      sub\n      sub\n      dup2\n      mstore\n      swap1\n      0x40\n      mstore\n        /* \"src/file.sol\":1408:1540  keccak256(... */\n      dup1\n      mload\n      swap1\n      0x20\n      add\n      keccak256\n        /* \"src/file.sol\":1398:1540  fileKey = keccak256(... */\n      swap1\n      pop\n        /* \"src/file.sol\":1578:1585  fileKey */\n      dup1\n        /* \"src/file.sol\":1550:1564  mNameToFileKey */\n      0x01\n        /* \"src/file.sol\":1565:1569  info */\n      dup4\n        /* \"src/file.sol\":1565:1574  info.name */\n      0xa0\n      add\n      mload\n        /* \"src/file.sol\":1550:1575  mNameToFileKey[info.name] */\n      mload(0x40)\n      tag_270\n      swap2\n      swap1\n      tag_271\n      jump\t// in\n    tag_270:\n      swap1\n      dup2\n      mstore\n      0x40\n      dup1\n      mload\n      0x20\n      swap3\n      dup2\n      swap1\n      sub\n      dup4\n      add\n      swap1\n      keccak256\n        /* \"src/file.sol\":1550:1585  mNameToFileKey[info.name] = fileKey */\n      swap3\n      swap1\n      swap3\n      sstore\n        /* \"src/file.sol\":1603:1617  mKeyToFileInfo */\n      0x00\n        /* \"src/file.sol\":1603:1626  mKeyToFileInfo[fileKey] */\n      dup4\n      dup2\n      mstore\n      swap1\n      dup2\n      swap1\n      mstore\n      keccak256\n        /* \"src/file.sol\":1603:1636  mKeyToFileInfo[fileKey].info.hash */\n      0x01\n      add\n      sload\n        /* \"src/file.sol\":1603:1641  mKeyToFileInfo[fileKey].info.hash == 0 */\n      iszero\n        /* \"src/file.sol\":1595:1665  require(mKeyToFileInfo[fileKey].info.hash == 0, \"File already exists\") */\n      tag_272\n      jumpi\n      mload(0x40)\n      shl(0xe5, 0x461bcd)\n      dup2\n      mstore\n        /* \"#utility.yul\":25167:25169   */\n      0x20\n        /* \"src/file.sol\":1595:1665  require(mKeyToFileInfo[fileKey].info.hash == 0, \"File already exists\") */\n      0x04\n      dup3\n      add\n        /* \"#utility.yul\":25149:25170   */\n      mstore\n        /* \"#utility.yul\":25206:25208   */\n      0x13\n        /* \"#utility.yul\":25186:25204   */\n      0x24\n      dup3\n      add\n        /* \"#utility.yul\":25179:25209   */\n      mstore\n      shl(0x68, 0x46696c6520616c726561647920657869737473)\n        /* \"#utility.yul\":25225:25243   */\n      0x44\n      dup3\n      add\n        /* \"#utility.yul\":25218:25267   */\n      mstore\n        /* \"#utility.yul\":25284:25302   */\n      0x64\n      add\n        /* \"src/file.sol\":1595:1665  require(mKeyToFileInfo[fileKey].info.hash == 0, \"File already exists\") */\n      tag_103\n        /* \"#utility.yul\":24965:25308   */\n      jump\n        /* \"src/file.sol\":1595:1665  require(mKeyToFileInfo[fileKey].info.hash == 0, \"File already exists\") */\n    tag_272:\n        /* \"src/file.sol\":1707:2103  Info({... */\n      mload(0x40)\n      dup1\n      0x0140\n      add\n      0x40\n      mstore\n      dup1\n        /* \"src/file.sol\":1733:1743  msg.sender */\n      caller\n      sub(shl(0xa0, 0x01), 0x01)\n        /* \"src/file.sol\":1707:2103  Info({... */\n      and\n      dup2\n      mstore\n      0x20\n      add\n        /* \"src/file.sol\":1763:1767  info */\n      dup4\n        /* \"src/file.sol\":1763:1772  info.hash */\n      0x20\n      add\n      mload\n        /* \"src/file.sol\":1707:2103  Info({... */\n      dup2\n      mstore\n      0x20\n      add\n        /* \"src/file.sol\":1798:1802  info */\n      dup4\n        /* \"src/file.sol\":1798:1813  info.contentLen */\n      0x40\n      add\n      mload\n      sub(shl(0x40, 0x01), 0x01)\n        /* \"src/file.sol\":1707:2103  Info({... */\n      and\n      dup2\n      mstore\n      0x20\n      add\n        /* \"src/file.sol\":1840:1844  info */\n      dup4\n        /* \"src/file.sol\":1840:1856  info.totalChunks */\n      0x60\n      add\n      mload\n      sub(shl(0x40, 0x01), 0x01)\n        /* \"src/file.sol\":1707:2103  Info({... */\n      and\n      dup2\n      mstore\n      0x20\n      add\n        /* \"src/file.sol\":1882:1886  info */\n      dup4\n        /* \"src/file.sol\":1882:1897  info.expireTime */\n      0x80\n      add\n      mload\n      sub(shl(0x40, 0x01), 0x01)\n        /* \"src/file.sol\":1707:2103  Info({... */\n      and\n      dup2\n      mstore\n      0x20\n      add\n        /* \"src/file.sol\":1917:1921  info */\n      dup4\n        /* \"src/file.sol\":1917:1926  info.name */\n      0xa0\n      add\n      mload\n        /* \"src/file.sol\":1707:2103  Info({... */\n      dup2\n      mstore\n      0x20\n      add\n        /* \"src/file.sol\":1945:1949  info */\n      dup4\n        /* \"src/file.sol\":1945:1953  info.ext */\n      0xc0\n      add\n      mload\n        /* \"src/file.sol\":1707:2103  Info({... */\n      dup2\n      mstore\n      0x20\n      add\n        /* \"src/file.sol\":1975:1996  FileStatus.Processing */\n      0x00\n        /* \"src/file.sol\":1707:2103  Info({... */\n      0x03\n      dup2\n      gt\n      iszero\n      tag_276\n      jumpi\n      tag_276\n      tag_99\n      jump\t// in\n    tag_276:\n      dup2\n      mstore\n        /* \"src/file.sol\":2030:2053  info.contentDisposition */\n      0x0100\n      dup5\n      add\n      mload\n        /* \"src/file.sol\":1707:2103  Info({... */\n      0x20\n      dup1\n      dup4\n      add\n      swap2\n      swap1\n      swap2\n      mstore\n        /* \"src/file.sol\":2078:2092  info.contentID */\n      0x0120\n      dup6\n      add\n      mload\n        /* \"src/file.sol\":1707:2103  Info({... */\n      0x40\n      swap3\n      dup4\n      add\n      mstore\n      0x00\n        /* \"src/file.sol\":1676:1699  mKeyToFileInfo[fileKey] */\n      dup5\n      dup2\n      mstore\n      dup1\n      dup3\n      mstore\n      dup3\n      swap1\n      keccak256\n        /* \"src/file.sol\":1676:2103  mKeyToFileInfo[fileKey].info = Info({... */\n      dup4\n      mload\n      dup2\n      sload\n      sub(shl(0xa0, 0x01), 0x01)\n      swap1\n      swap2\n      and\n      not(sub(shl(0xa0, 0x01), 0x01))\n      swap1\n      swap2\n      and\n      or\n      dup2\n      sstore\n      swap1\n      dup4\n      add\n      mload\n      0x01\n      dup3\n      add\n      sstore\n      swap1\n      dup3\n      add\n      mload\n      0x02\n      dup3\n      add\n      dup1\n      sload\n      0x60\n      dup6\n      add\n      mload\n      0x80\n      dup7\n      add\n      mload\n      sub(shl(0x40, 0x01), 0x01)\n      swap1\n      dup2\n      and\n      shl(0x80, 0x01)\n      mul\n      not(sub(shl(0xc0, 0x01), shl(0x80, 0x01)))\n      swap3\n      dup3\n      and\n      shl(0x40, 0x01)\n      mul\n      not(sub(shl(0x80, 0x01), 0x01))\n      swap1\n      swap5\n      and\n      swap2\n      swap1\n      swap6\n      and\n      or\n      swap2\n      swap1\n      swap2\n      or\n      and\n      swap2\n      swap1\n      swap2\n      or\n      swap1\n      sstore\n      0xa0\n      dup3\n      add\n      mload\n      0x03\n      dup3\n      add\n      swap1\n      tag_277\n      swap1\n      dup3\n      tag_159\n      jump\t// in\n    tag_277:\n      pop\n      0xc0\n      dup3\n      add\n      mload\n      0x04\n      dup3\n      add\n      swap1\n      tag_279\n      swap1\n      dup3\n      tag_159\n      jump\t// in\n    tag_279:\n      pop\n      0xe0\n      dup3\n      add\n      mload\n      0x05\n      dup3\n      add\n      dup1\n      sload\n      not(0xff)\n      and\n      0x01\n      dup4\n      0x03\n      dup2\n      gt\n      iszero\n      tag_281\n      jumpi\n      tag_281\n      tag_99\n      jump\t// in\n    tag_281:\n      mul\n      or\n      swap1\n      sstore\n      pop\n      0x0100\n      dup3\n      add\n      mload\n      0x06\n      dup3\n      add\n      swap1\n      tag_282\n      swap1\n      dup3\n      tag_159\n      jump\t// in\n    tag_282:\n      pop\n      0x0120\n      dup3\n      add\n      mload\n      0x07\n      dup3\n      add\n      swap1\n      tag_283\n      swap1\n      dup3\n      tag_159\n      jump\t// in\n    tag_283:\n      pop\n      pop\n        /* \"src/file.sol\":2149:2276  FileProgress({... */\n      0x40\n      dup1\n      mload\n      0x60\n      dup2\n      add\n      dup3\n      mstore\n      0x00\n      dup1\n      dup3\n      mstore\n      0x20\n      dup1\n      dup4\n      add\n      dup3\n      dup2\n      mstore\n      dup4\n      dup6\n      add\n      dup4\n      dup2\n      mstore\n        /* \"src/file.sol\":2114:2137  mKeyToFileInfo[fileKey] */\n      dup8\n      dup5\n      mstore\n      swap2\n      dup4\n      swap1\n      mstore\n      swap2\n      dup5\n      swap1\n      keccak256\n        /* \"src/file.sol\":2114:2276  mKeyToFileInfo[fileKey].progress = FileProgress({... */\n      swap3\n      mload\n        /* \"src/file.sol\":2114:2146  mKeyToFileInfo[fileKey].progress */\n      0x08\n      dup5\n      add\n        /* \"src/file.sol\":2114:2276  mKeyToFileInfo[fileKey].progress = FileProgress({... */\n      sstore\n      swap1\n      mload\n      0x09\n      swap1\n      swap3\n      add\n      dup1\n      sload\n      swap2\n      mload\n      sub(shl(0x40, 0x01), 0x01)\n      swap1\n      dup2\n      and\n      shl(0x40, 0x01)\n      mul\n      not(sub(shl(0x80, 0x01), 0x01))\n      swap1\n      swap4\n      and\n      swap4\n      and\n      swap3\n      swap1\n      swap3\n      or\n      or\n      swap1\n      sstore\n        /* \"src/file.sol\":2311:2320  info.name */\n      0xa0\n      dup5\n      add\n      mload\n        /* \"src/file.sol\":2322:2337  info.contentLen */\n      dup5\n      dup3\n      add\n      mload\n        /* \"src/file.sol\":2292:2338  FileAdded(fileKey, info.name, info.contentLen) */\n      swap2\n      mload\n        /* \"src/file.sol\":2129:2136  fileKey */\n      dup5\n      swap4\n      pop\n        /* \"src/file.sol\":2292:2338  FileAdded(fileKey, info.name, info.contentLen) */\n      0x7f2db28bb9cdbd41f93b3953994de4298cc665dda981f021c84fc9b4b367f11e\n      swap3\n      tag_284\n      swap3\n        /* \"src/file.sol\":2311:2320  info.name */\n      swap2\n        /* \"src/file.sol\":2292:2338  FileAdded(fileKey, info.name, info.contentLen) */\n      tag_285\n      jump\t// in\n    tag_284:\n      mload(0x40)\n      dup1\n      swap2\n      sub\n      swap1\n      log2\n        /* \"src/file.sol\":1202:2369  function pushFileInfo(Info memory info) public returns (bytes32 fileKey) {... */\n      swap2\n      swap1\n      pop\n      jump\t// out\n        /* \"src/file.sol\":5458:5757  function getFilesInfo(bytes32[] memory fileKeys) external view returns(Info[] memory infos ){... */\n    tag_75:\n        /* \"src/file.sol\":5529:5548  Info[] memory infos */\n      0x60\n        /* \"src/file.sol\":5579:5587  fileKeys */\n      dup2\n        /* \"src/file.sol\":5579:5594  fileKeys.length */\n      mload\n      sub(shl(0x40, 0x01), 0x01)\n        /* \"src/file.sol\":5568:5595  new Info[](fileKeys.length) */\n      dup2\n      gt\n      iszero\n      tag_288\n      jumpi\n      tag_288\n      tag_194\n      jump\t// in\n    tag_288:\n      mload(0x40)\n      swap1\n      dup1\n      dup3\n      mstore\n      dup1\n      0x20\n      mul\n      0x20\n      add\n      dup3\n      add\n      0x40\n      mstore\n      dup1\n      iszero\n      tag_289\n      jumpi\n      dup2\n      0x20\n      add\n    tag_290:\n      tag_291\n      tag_106\n      jump\t// in\n    tag_291:\n      dup2\n      mstore\n      0x20\n      add\n      swap1\n      0x01\n      swap1\n      sub\n      swap1\n      dup2\n      tag_290\n      jumpi\n      swap1\n      pop\n    tag_289:\n      pop\n        /* \"src/file.sol\":5560:5595  infos = new Info[](fileKeys.length) */\n      swap1\n      pop\n        /* \"src/file.sol\":5609:5618  uint256 i */\n      0x00\n        /* \"src/file.sol\":5605:5751  for(uint256 i=0; i< fileKeys.length; i++){... */\n    tag_292:\n        /* \"src/file.sol\":5625:5633  fileKeys */\n      dup3\n        /* \"src/file.sol\":5625:5640  fileKeys.length */\n      mload\n        /* \"src/file.sol\":5622:5623  i */\n      dup2\n        /* \"src/file.sol\":5622:5640  i< fileKeys.length */\n      lt\n        /* \"src/file.sol\":5605:5751  for(uint256 i=0; i< fileKeys.length; i++){... */\n      iszero\n      tag_293\n      jumpi\n        /* \"src/file.sol\":5660:5676  Info memory info */\n      0x00\n        /* \"src/file.sol\":5679:5693  mKeyToFileInfo */\n      dup1\n        /* \"src/file.sol\":5679:5706  mKeyToFileInfo[fileKeys[i]] */\n      0x00\n        /* \"src/file.sol\":5694:5702  fileKeys */\n      dup6\n        /* \"src/file.sol\":5703:5704  i */\n      dup5\n        /* \"src/file.sol\":5694:5705  fileKeys[i] */\n      dup2\n      mload\n      dup2\n      lt\n      tag_296\n      jumpi\n      tag_296\n      tag_202\n      jump\t// in\n    tag_296:\n      0x20\n      swap1\n      dup2\n      mul\n      swap2\n      swap1\n      swap2\n      add\n      dup2\n      add\n      mload\n        /* \"src/file.sol\":5679:5706  mKeyToFileInfo[fileKeys[i]] */\n      dup3\n      mstore\n      dup2\n      dup2\n      add\n      swap3\n      swap1\n      swap3\n      mstore\n      0x40\n      swap1\n      dup2\n      add\n      0x00\n      keccak256\n        /* \"src/file.sol\":5660:5711  Info memory info = mKeyToFileInfo[fileKeys[i]].info */\n      dup2\n      mload\n      0x0140\n      dup2\n      add\n      dup4\n      mstore\n      dup2\n      sload\n      sub(shl(0xa0, 0x01), 0x01)\n      and\n      dup2\n      mstore\n      0x01\n      dup3\n      add\n      sload\n      swap4\n      dup2\n      add\n      swap4\n      swap1\n      swap4\n      mstore\n      0x02\n      dup2\n      add\n      sload\n      sub(shl(0x40, 0x01), 0x01)\n      dup1\n      dup3\n      and\n      swap4\n      dup6\n      add\n      swap4\n      swap1\n      swap4\n      mstore\n      shl(0x40, 0x01)\n      dup2\n      div\n      dup4\n      and\n      0x60\n      dup6\n      add\n      mstore\n      shl(0x80, 0x01)\n      swap1\n      div\n      swap1\n      swap2\n      and\n      0x80\n      dup4\n      add\n      mstore\n      0x03\n      dup2\n      add\n      dup1\n      sload\n      0xa0\n      dup5\n      add\n      swap2\n      swap1\n      tag_297\n      swap1\n      tag_109\n      jump\t// in\n    tag_297:\n      dup1\n      0x1f\n      add\n      0x20\n      dup1\n      swap2\n      div\n      mul\n      0x20\n      add\n      mload(0x40)\n      swap1\n      dup2\n      add\n      0x40\n      mstore\n      dup1\n      swap3\n      swap2\n      swap1\n      dup2\n      dup2\n      mstore\n      0x20\n      add\n      dup3\n      dup1\n      sload\n      tag_298\n      swap1\n      tag_109\n      jump\t// in\n    tag_298:\n      dup1\n      iszero\n      tag_299\n      jumpi\n      dup1\n      0x1f\n      lt\n      tag_300\n      jumpi\n      0x0100\n      dup1\n      dup4\n      sload\n      div\n      mul\n      dup4\n      mstore\n      swap2\n      0x20\n      add\n      swap2\n      jump(tag_299)\n    tag_300:\n      dup3\n      add\n      swap2\n      swap1\n      0x00\n      mstore\n      keccak256(0x00, 0x20)\n      swap1\n    tag_301:\n      dup2\n      sload\n      dup2\n      mstore\n      swap1\n      0x01\n      add\n      swap1\n      0x20\n      add\n      dup1\n      dup4\n      gt\n      tag_301\n      jumpi\n      dup3\n      swap1\n      sub\n      0x1f\n      and\n      dup3\n      add\n      swap2\n    tag_299:\n      pop\n      pop\n      pop\n      pop\n      pop\n      dup2\n      mstore\n      0x20\n      add\n      0x04\n      dup3\n      add\n      dup1\n      sload\n      tag_302\n      swap1\n      tag_109\n      jump\t// in\n    tag_302:\n      dup1\n      0x1f\n      add\n      0x20\n      dup1\n      swap2\n      div\n      mul\n      0x20\n      add\n      mload(0x40)\n      swap1\n      dup2\n      add\n      0x40\n      mstore\n      dup1\n      swap3\n      swap2\n      swap1\n      dup2\n      dup2\n      mstore\n      0x20\n      add\n      dup3\n      dup1\n      sload\n      tag_303\n      swap1\n      tag_109\n      jump\t// in\n    tag_303:\n      dup1\n      iszero\n      tag_304\n      jumpi\n      dup1\n      0x1f\n      lt\n      tag_305\n      jumpi\n      0x0100\n      dup1\n      dup4\n      sload\n      div\n      mul\n      dup4\n      mstore\n      swap2\n      0x20\n      add\n      swap2\n      jump(tag_304)\n    tag_305:\n      dup3\n      add\n      swap2\n      swap1\n      0x00\n      mstore\n      keccak256(0x00, 0x20)\n      swap1\n    tag_306:\n      dup2\n      sload\n      dup2\n      mstore\n      swap1\n      0x01\n      add\n      swap1\n      0x20\n      add\n      dup1\n      dup4\n      gt\n      tag_306\n      jumpi\n      dup3\n      swap1\n      sub\n      0x1f\n      and\n      dup3\n      add\n      swap2\n    tag_304:\n      pop\n      pop\n      pop\n      swap2\n      dup4\n      mstore\n      pop\n      pop\n      0x05\n      dup3\n      add\n      sload\n      0x20\n      swap1\n      swap2\n      add\n      swap1\n      0xff\n      and\n      0x03\n      dup2\n      gt\n      iszero\n      tag_308\n      jumpi\n      tag_308\n      tag_99\n      jump\t// in\n    tag_308:\n      0x03\n      dup2\n      gt\n      iszero\n      tag_310\n      jumpi\n      tag_310\n      tag_99\n      jump\t// in\n    tag_310:\n      dup2\n      mstore\n      0x20\n      add\n      0x06\n      dup3\n      add\n      dup1\n      sload\n      tag_311\n      swap1\n      tag_109\n      jump\t// in\n    tag_311:\n      dup1\n      0x1f\n      add\n      0x20\n      dup1\n      swap2\n      div\n      mul\n      0x20\n      add\n      mload(0x40)\n      swap1\n      dup2\n      add\n      0x40\n      mstore\n      dup1\n      swap3\n      swap2\n      swap1\n      dup2\n      dup2\n      mstore\n      0x20\n      add\n      dup3\n      dup1\n      sload\n      tag_312\n      swap1\n      tag_109\n      jump\t// in\n    tag_312:\n      dup1\n      iszero\n      tag_313\n      jumpi\n      dup1\n      0x1f\n      lt\n      tag_314\n      jumpi\n      0x0100\n      dup1\n      dup4\n      sload\n      div\n      mul\n      dup4\n      mstore\n      swap2\n      0x20\n      add\n      swap2\n      jump(tag_313)\n    tag_314:\n      dup3\n      add\n      swap2\n      swap1\n      0x00\n      mstore\n      keccak256(0x00, 0x20)\n      swap1\n    tag_315:\n      dup2\n      sload\n      dup2\n      mstore\n      swap1\n      0x01\n      add\n      swap1\n      0x20\n      add\n      dup1\n      dup4\n      gt\n      tag_315\n      jumpi\n      dup3\n      swap1\n      sub\n      0x1f\n      and\n      dup3\n      add\n      swap2\n    tag_313:\n      pop\n      pop\n      pop\n      pop\n      pop\n      dup2\n      mstore\n      0x20\n      add\n      0x07\n      dup3\n      add\n      dup1\n      sload\n      tag_316\n      swap1\n      tag_109\n      jump\t// in\n    tag_316:\n      dup1\n      0x1f\n      add\n      0x20\n      dup1\n      swap2\n      div\n      mul\n      0x20\n      add\n      mload(0x40)\n      swap1\n      dup2\n      add\n      0x40\n      mstore\n      dup1\n      swap3\n      swap2\n      swap1\n      dup2\n      dup2\n      mstore\n      0x20\n      add\n      dup3\n      dup1\n      sload\n      tag_317\n      swap1\n      tag_109\n      jump\t// in\n    tag_317:\n      dup1\n      iszero\n      tag_318\n      jumpi\n      dup1\n      0x1f\n      lt\n      tag_319\n      jumpi\n      0x0100\n      dup1\n      dup4\n      sload\n      div\n      mul\n      dup4\n      mstore\n      swap2\n      0x20\n      add\n      swap2\n      jump(tag_318)\n    tag_319:\n      dup3\n      add\n      swap2\n      swap1\n      0x00\n      mstore\n      keccak256(0x00, 0x20)\n      swap1\n    tag_320:\n      dup2\n      sload\n      dup2\n      mstore\n      swap1\n      0x01\n      add\n      swap1\n      0x20\n      add\n      dup1\n      dup4\n      gt\n      tag_320\n      jumpi\n      dup3\n      swap1\n      sub\n      0x1f\n      and\n      dup3\n      add\n      swap2\n    tag_318:\n      pop\n      pop\n      pop\n      pop\n      pop\n      dup2\n      mstore\n      pop\n      pop\n      swap1\n      pop\n        /* \"src/file.sol\":5736:5740  info */\n      dup1\n        /* \"src/file.sol\":5725:5730  infos */\n      dup4\n        /* \"src/file.sol\":5731:5732  i */\n      dup4\n        /* \"src/file.sol\":5725:5733  infos[i] */\n      dup2\n      mload\n      dup2\n      lt\n      tag_322\n      jumpi\n      tag_322\n      tag_202\n      jump\t// in\n    tag_322:\n      0x20\n      mul\n      0x20\n      add\n      add\n        /* \"src/file.sol\":5725:5740  infos[i] = info */\n      dup2\n      swap1\n      mstore\n      pop\n        /* \"src/file.sol\":5646:5751  {... */\n      pop\n        /* \"src/file.sol\":5642:5645  i++ */\n      dup1\n      dup1\n      tag_323\n      swap1\n      tag_190\n      jump\t// in\n    tag_323:\n      swap2\n      pop\n      pop\n        /* \"src/file.sol\":5605:5751  for(uint256 i=0; i< fileKeys.length; i++){... */\n      jump(tag_292)\n    tag_293:\n      pop\n        /* \"src/file.sol\":5458:5757  function getFilesInfo(bytes32[] memory fileKeys) external view returns(Info[] memory infos ){... */\n      swap2\n      swap1\n      pop\n      jump\t// out\n        /* \"src/file.sol\":2374:2671  function getFileKeyFromName(string[] memory names) view external returns(bytes32[] memory ){... */\n    tag_86:\n        /* \"src/file.sol\":2447:2463  bytes32[] memory */\n      0x60\n        /* \"src/file.sol\":2475:2500  bytes32[] memory filekeys */\n      0x00\n        /* \"src/file.sol\":2517:2522  names */\n      dup3\n        /* \"src/file.sol\":2517:2529  names.length */\n      mload\n      sub(shl(0x40, 0x01), 0x01)\n        /* \"src/file.sol\":2503:2530  new bytes32[](names.length) */\n      dup2\n      gt\n      iszero\n      tag_326\n      jumpi\n      tag_326\n      tag_194\n      jump\t// in\n    tag_326:\n      mload(0x40)\n      swap1\n      dup1\n      dup3\n      mstore\n      dup1\n      0x20\n      mul\n      0x20\n      add\n      dup3\n      add\n      0x40\n      mstore\n      dup1\n      iszero\n      tag_327\n      jumpi\n      dup2\n      0x20\n      add\n      0x20\n      dup3\n      mul\n      dup1\n      calldatasize\n      dup4\n      calldatacopy\n      add\n      swap1\n      pop\n    tag_327:\n      pop\n        /* \"src/file.sol\":2475:2530  bytes32[] memory filekeys = new bytes32[](names.length) */\n      swap1\n      pop\n        /* \"src/file.sol\":2545:2554  uint256 i */\n      0x00\n        /* \"src/file.sol\":2540:2640  for (uint256 i;i < names.length; i++){... */\n    tag_328:\n        /* \"src/file.sol\":2559:2564  names */\n      dup4\n        /* \"src/file.sol\":2559:2571  names.length */\n      mload\n        /* \"src/file.sol\":2555:2556  i */\n      dup2\n        /* \"src/file.sol\":2555:2571  i < names.length */\n      lt\n        /* \"src/file.sol\":2540:2640  for (uint256 i;i < names.length; i++){... */\n      iszero\n      tag_197\n      jumpi\n        /* \"src/file.sol\":2605:2619  mNameToFileKey */\n      0x01\n        /* \"src/file.sol\":2620:2625  names */\n      dup5\n        /* \"src/file.sol\":2626:2627  i */\n      dup3\n        /* \"src/file.sol\":2620:2628  names[i] */\n      dup2\n      mload\n      dup2\n      lt\n      tag_332\n      jumpi\n      tag_332\n      tag_202\n      jump\t// in\n    tag_332:\n      0x20\n      mul\n      0x20\n      add\n      add\n      mload\n        /* \"src/file.sol\":2605:2629  mNameToFileKey[names[i]] */\n      mload(0x40)\n      tag_333\n      swap2\n      swap1\n      tag_271\n      jump\t// in\n    tag_333:\n      swap1\n      dup2\n      mstore\n      0x20\n      add\n      mload(0x40)\n      dup1\n      swap2\n      sub\n      swap1\n      keccak256\n      sload\n        /* \"src/file.sol\":2591:2599  filekeys */\n      dup3\n        /* \"src/file.sol\":2600:2601  i */\n      dup3\n        /* \"src/file.sol\":2591:2602  filekeys[i] */\n      dup2\n      mload\n      dup2\n      lt\n      tag_335\n      jumpi\n      tag_335\n      tag_202\n      jump\t// in\n    tag_335:\n      0x20\n      swap1\n      dup2\n      mul\n      swap2\n      swap1\n      swap2\n      add\n      add\n        /* \"src/file.sol\":2591:2629  filekeys[i] = mNameToFileKey[names[i]] */\n      mstore\n        /* \"src/file.sol\":2573:2576  i++ */\n      dup1\n      tag_336\n      dup2\n      tag_190\n      jump\t// in\n    tag_336:\n      swap2\n      pop\n      pop\n        /* \"src/file.sol\":2540:2640  for (uint256 i;i < names.length; i++){... */\n      jump(tag_328)\n        /* \"src/file.sol\":6103:7110  function downloadFile(... */\n    tag_91:\n        /* \"src/file.sol\":6251:6272  FileInfo storage file */\n      0x00\n        /* \"src/file.sol\":6275:6298  mKeyToFileInfo[fileKey] */\n      dup4\n      dup2\n      mstore\n      0x20\n      dup2\n      swap1\n      mstore\n      0x40\n      swap1\n      keccak256\n        /* \"src/file.sol\":6225:6239  bytes[] memory */\n      0x60\n      swap1\n        /* \"src/file.sol\":6336:6353  FileStatus.Active */\n      0x01\n        /* \"src/file.sol\":6316:6332  file.info.status */\n      0x05\n      dup3\n      add\n      sload\n      0xff\n      and\n        /* \"src/file.sol\":6316:6353  file.info.status == FileStatus.Active */\n      0x03\n      dup2\n      gt\n      iszero\n      tag_341\n      jumpi\n      tag_341\n      tag_99\n      jump\t// in\n    tag_341:\n      eq\n        /* \"src/file.sol\":6308:6381  require(file.info.status == FileStatus.Active, \"File upload not actived\") */\n      tag_342\n      jumpi\n      mload(0x40)\n      shl(0xe5, 0x461bcd)\n      dup2\n      mstore\n        /* \"#utility.yul\":27189:27191   */\n      0x20\n        /* \"src/file.sol\":6308:6381  require(file.info.status == FileStatus.Active, \"File upload not actived\") */\n      0x04\n      dup3\n      add\n        /* \"#utility.yul\":27171:27192   */\n      mstore\n        /* \"#utility.yul\":27228:27230   */\n      0x17\n        /* \"#utility.yul\":27208:27226   */\n      0x24\n      dup3\n      add\n        /* \"#utility.yul\":27201:27231   */\n      mstore\n      shl(0x4a, 0x119a5b19481d5c1b1bd859081b9bdd081858dd1a5d9959)\n        /* \"#utility.yul\":27247:27265   */\n      0x44\n      dup3\n      add\n        /* \"#utility.yul\":27240:27293   */\n      mstore\n        /* \"#utility.yul\":27310:27328   */\n      0x64\n      add\n        /* \"src/file.sol\":6308:6381  require(file.info.status == FileStatus.Active, \"File upload not actived\") */\n      tag_103\n        /* \"#utility.yul\":26987:27334   */\n      jump\n        /* \"src/file.sol\":6308:6381  require(file.info.status == FileStatus.Active, \"File upload not actived\") */\n    tag_342:\n        /* \"src/file.sol\":6399:6419  file.info.contentLen */\n      0x02\n      dup2\n      add\n      sload\n      sub(shl(0x40, 0x01), 0x01)\n      and\n        /* \"src/file.sol\":6391:6447  require(file.info.contentLen > 0, \"File does not exist\") */\n      tag_345\n      jumpi\n      mload(0x40)\n      shl(0xe5, 0x461bcd)\n      dup2\n      mstore\n        /* \"#utility.yul\":27541:27543   */\n      0x20\n        /* \"src/file.sol\":6391:6447  require(file.info.contentLen > 0, \"File does not exist\") */\n      0x04\n      dup3\n      add\n        /* \"#utility.yul\":27523:27544   */\n      mstore\n        /* \"#utility.yul\":27580:27582   */\n      0x13\n        /* \"#utility.yul\":27560:27578   */\n      0x24\n      dup3\n      add\n        /* \"#utility.yul\":27553:27583   */\n      mstore\n      shl(0x6a, 0x119a5b1948191bd95cc81b9bdd08195e1a5cdd)\n        /* \"#utility.yul\":27599:27617   */\n      0x44\n      dup3\n      add\n        /* \"#utility.yul\":27592:27641   */\n      mstore\n        /* \"#utility.yul\":27658:27676   */\n      0x64\n      add\n        /* \"src/file.sol\":6391:6447  require(file.info.contentLen > 0, \"File does not exist\") */\n      tag_103\n        /* \"#utility.yul\":27339:27682   */\n      jump\n        /* \"src/file.sol\":6391:6447  require(file.info.contentLen > 0, \"File does not exist\") */\n    tag_345:\n        /* \"src/file.sol\":6473:6494  file.info.totalChunks */\n      0x02\n      dup2\n      add\n      sload\n      shl(0x40, 0x01)\n      swap1\n      div\n      sub(shl(0x40, 0x01), 0x01)\n      and\n        /* \"src/file.sol\":6465:6494  start < file.info.totalChunks */\n      dup5\n      lt\n        /* \"src/file.sol\":6457:6523  require(start < file.info.totalChunks, \"Start index out of range\") */\n      tag_348\n      jumpi\n      mload(0x40)\n      shl(0xe5, 0x461bcd)\n      dup2\n      mstore\n        /* \"#utility.yul\":27889:27891   */\n      0x20\n        /* \"src/file.sol\":6457:6523  require(start < file.info.totalChunks, \"Start index out of range\") */\n      0x04\n      dup3\n      add\n        /* \"#utility.yul\":27871:27892   */\n      mstore\n        /* \"#utility.yul\":27928:27930   */\n      0x18\n        /* \"#utility.yul\":27908:27926   */\n      0x24\n      dup3\n      add\n        /* \"#utility.yul\":27901:27931   */\n      mstore\n      shl(0x40, 0x537461727420696e646578206f7574206f662072616e6765)\n        /* \"#utility.yul\":27947:27965   */\n      0x44\n      dup3\n      add\n        /* \"#utility.yul\":27940:27994   */\n      mstore\n        /* \"#utility.yul\":28011:28029   */\n      0x64\n      add\n        /* \"src/file.sol\":6457:6523  require(start < file.info.totalChunks, \"Start index out of range\") */\n      tag_103\n        /* \"#utility.yul\":27687:28035   */\n      jump\n        /* \"src/file.sol\":6457:6523  require(start < file.info.totalChunks, \"Start index out of range\") */\n    tag_348:\n        /* \"src/file.sol\":6549:6550  0 */\n      0x00\n        /* \"src/file.sol\":6541:6546  limit */\n      dup4\n        /* \"src/file.sol\":6541:6550  limit > 0 */\n      gt\n        /* \"src/file.sol\":6533:6586  require(limit > 0, \"Limit must be greater than zero\") */\n      tag_351\n      jumpi\n      mload(0x40)\n      shl(0xe5, 0x461bcd)\n      dup2\n      mstore\n        /* \"#utility.yul\":28242:28244   */\n      0x20\n        /* \"src/file.sol\":6533:6586  require(limit > 0, \"Limit must be greater than zero\") */\n      0x04\n      dup3\n      add\n        /* \"#utility.yul\":28224:28245   */\n      mstore\n        /* \"#utility.yul\":28281:28283   */\n      0x1f\n        /* \"#utility.yul\":28261:28279   */\n      0x24\n      dup3\n      add\n        /* \"#utility.yul\":28254:28284   */\n      mstore\n        /* \"#utility.yul\":28320:28353   */\n      0x4c696d6974206d7573742062652067726561746572207468616e207a65726f00\n        /* \"#utility.yul\":28300:28318   */\n      0x44\n      dup3\n      add\n        /* \"#utility.yul\":28293:28354   */\n      mstore\n        /* \"#utility.yul\":28371:28389   */\n      0x64\n      add\n        /* \"src/file.sol\":6533:6586  require(limit > 0, \"Limit must be greater than zero\") */\n      tag_103\n        /* \"#utility.yul\":28040:28395   */\n      jump\n        /* \"src/file.sol\":6533:6586  require(limit > 0, \"Limit must be greater than zero\") */\n    tag_351:\n        /* \"src/file.sol\":6623:6643  file.info.expireTime */\n      0x02\n      dup2\n      add\n      sload\n      shl(0x80, 0x01)\n      swap1\n      div\n      sub(shl(0x40, 0x01), 0x01)\n      and\n        /* \"src/file.sol\":6604:6619  block.timestamp */\n      timestamp\n        /* \"src/file.sol\":6604:6643  block.timestamp <= file.info.expireTime */\n      gt\n      iszero\n        /* \"src/file.sol\":6596:6664  require(block.timestamp <= file.info.expireTime, \"File has expired\") */\n      tag_354\n      jumpi\n      mload(0x40)\n      shl(0xe5, 0x461bcd)\n      dup2\n      mstore\n      0x04\n      add\n      tag_103\n      swap1\n      tag_232\n      jump\t// in\n    tag_354:\n        /* \"src/file.sol\":6771:6792  file.info.totalChunks */\n      0x02\n      dup2\n      add\n      sload\n        /* \"src/file.sol\":6741:6752  uint256 end */\n      0x00\n      swap1\n      shl(0x40, 0x01)\n        /* \"src/file.sol\":6771:6792  file.info.totalChunks */\n      swap1\n      div\n      sub(shl(0x40, 0x01), 0x01)\n      and\n        /* \"src/file.sol\":6755:6768  start + limit */\n      tag_356\n        /* \"src/file.sol\":6763:6768  limit */\n      dup6\n        /* \"src/file.sol\":6755:6760  start */\n      dup8\n        /* \"src/file.sol\":6755:6768  start + limit */\n      tag_142\n      jump\t// in\n    tag_356:\n        /* \"src/file.sol\":6755:6792  start + limit > file.info.totalChunks */\n      gt\n        /* \"src/file.sol\":6755:6856  start + limit > file.info.totalChunks... */\n      tag_357\n      jumpi\n        /* \"src/file.sol\":6843:6856  start + limit */\n      tag_358\n        /* \"src/file.sol\":6851:6856  limit */\n      dup5\n        /* \"src/file.sol\":6843:6848  start */\n      dup7\n        /* \"src/file.sol\":6843:6856  start + limit */\n      tag_142\n      jump\t// in\n    tag_358:\n        /* \"src/file.sol\":6755:6856  start + limit > file.info.totalChunks... */\n      jump(tag_359)\n    tag_357:\n        /* \"src/file.sol\":6807:6828  file.info.totalChunks */\n      0x02\n      dup3\n      add\n      sload\n      shl(0x40, 0x01)\n      swap1\n      div\n      sub(shl(0x40, 0x01), 0x01)\n      and\n        /* \"src/file.sol\":6755:6856  start + limit > file.info.totalChunks... */\n    tag_359:\n        /* \"src/file.sol\":6741:6856  uint256 end = start + limit > file.info.totalChunks... */\n      swap1\n      pop\n        /* \"src/file.sol\":6915:6939  bytes[] memory chunkData */\n      0x00\n        /* \"src/file.sol\":6954:6965  end - start */\n      tag_360\n        /* \"src/file.sol\":6960:6965  start */\n      dup7\n        /* \"src/file.sol\":6741:6856  uint256 end = start + limit > file.info.totalChunks... */\n      dup4\n        /* \"src/file.sol\":6954:6965  end - start */\n      tag_361\n      jump\t// in\n    tag_360:\n      sub(shl(0x40, 0x01), 0x01)\n        /* \"src/file.sol\":6942:6966  new bytes[](end - start) */\n      dup2\n      gt\n      iszero\n      tag_363\n      jumpi\n      tag_363\n      tag_194\n      jump\t// in\n    tag_363:\n      mload(0x40)\n      swap1\n      dup1\n      dup3\n      mstore\n      dup1\n      0x20\n      mul\n      0x20\n      add\n      dup3\n      add\n      0x40\n      mstore\n      dup1\n      iszero\n      tag_364\n      jumpi\n      dup2\n      0x20\n      add\n    tag_365:\n      0x60\n      dup2\n      mstore\n      0x20\n      add\n      swap1\n      0x01\n      swap1\n      sub\n      swap1\n      dup2\n      tag_365\n      jumpi\n      swap1\n      pop\n    tag_364:\n      pop\n        /* \"src/file.sol\":6915:6966  bytes[] memory chunkData = new bytes[](end - start) */\n      swap1\n      pop\n        /* \"src/file.sol\":6994:6999  start */\n      dup6\n        /* \"src/file.sol\":6977:7077  for (uint256 i = start; i < end; i++) {... */\n    tag_366:\n        /* \"src/file.sol\":7005:7008  end */\n      dup3\n        /* \"src/file.sol\":7001:7002  i */\n      dup2\n        /* \"src/file.sol\":7001:7008  i < end */\n      lt\n        /* \"src/file.sol\":6977:7077  for (uint256 i = start; i < end; i++) {... */\n      iszero\n      tag_367\n      jumpi\n        /* \"src/file.sol\":7052:7066  file.chunks[i] */\n      0x00\n      dup2\n      dup2\n      mstore\n        /* \"src/file.sol\":7052:7063  file.chunks */\n      0x0a\n      dup6\n      add\n        /* \"src/file.sol\":7052:7066  file.chunks[i] */\n      0x20\n      mstore\n      0x40\n      swap1\n      keccak256\n        /* \"src/file.sol\":7029:7066  chunkData[i - start] = file.chunks[i] */\n      dup1\n      sload\n      tag_369\n      swap1\n      tag_109\n      jump\t// in\n    tag_369:\n      dup1\n      0x1f\n      add\n      0x20\n      dup1\n      swap2\n      div\n      mul\n      0x20\n      add\n      mload(0x40)\n      swap1\n      dup2\n      add\n      0x40\n      mstore\n      dup1\n      swap3\n      swap2\n      swap1\n      dup2\n      dup2\n      mstore\n      0x20\n      add\n      dup3\n      dup1\n      sload\n      tag_370\n      swap1\n      tag_109\n      jump\t// in\n    tag_370:\n      dup1\n      iszero\n      tag_371\n      jumpi\n      dup1\n      0x1f\n      lt\n      tag_372\n      jumpi\n      0x0100\n      dup1\n      dup4\n      sload\n      div\n      mul\n      dup4\n      mstore\n      swap2\n      0x20\n      add\n      swap2\n      jump(tag_371)\n    tag_372:\n      dup3\n      add\n      swap2\n      swap1\n      0x00\n      mstore\n      keccak256(0x00, 0x20)\n      swap1\n    tag_373:\n      dup2\n      sload\n      dup2\n      mstore\n      swap1\n      0x01\n      add\n      swap1\n      0x20\n      add\n      dup1\n      dup4\n      gt\n      tag_373\n      jumpi\n      dup3\n      swap1\n      sub\n      0x1f\n      and\n      dup3\n      add\n      swap2\n    tag_371:\n      pop\n      pop\n      pop\n      pop\n      pop\n        /* \"src/file.sol\":7029:7038  chunkData */\n      dup3\n        /* \"src/file.sol\":7043:7048  start */\n      dup9\n        /* \"src/file.sol\":7039:7040  i */\n      dup4\n        /* \"src/file.sol\":7039:7048  i - start */\n      tag_374\n      swap2\n      swap1\n      tag_361\n      jump\t// in\n    tag_374:\n        /* \"src/file.sol\":7029:7049  chunkData[i - start] */\n      dup2\n      mload\n      dup2\n      lt\n      tag_376\n      jumpi\n      tag_376\n      tag_202\n      jump\t// in\n    tag_376:\n      0x20\n      mul\n      0x20\n      add\n      add\n        /* \"src/file.sol\":7029:7066  chunkData[i - start] = file.chunks[i] */\n      dup2\n      swap1\n      mstore\n      pop\n        /* \"src/file.sol\":7010:7013  i++ */\n      dup1\n      dup1\n      tag_377\n      swap1\n      tag_190\n      jump\t// in\n    tag_377:\n      swap2\n      pop\n      pop\n        /* \"src/file.sol\":6977:7077  for (uint256 i = start; i < end; i++) {... */\n      jump(tag_366)\n    tag_367:\n      pop\n        /* \"src/file.sol\":7094:7103  chunkData */\n      swap3\n      pop\n      pop\n      pop\n        /* \"src/file.sol\":6103:7110  function downloadFile(... */\n    tag_337:\n      swap4\n      swap3\n      pop\n      pop\n      pop\n      jump\t// out\n    tag_106:\n      0x40\n      dup1\n      mload\n      0x0140\n      dup2\n      add\n      dup3\n      mstore\n      0x00\n      dup1\n      dup3\n      mstore\n      0x20\n      dup3\n      add\n      dup2\n      swap1\n      mstore\n      swap2\n      dup2\n      add\n      dup3\n      swap1\n      mstore\n      0x60\n      dup1\n      dup3\n      add\n      dup4\n      swap1\n      mstore\n      0x80\n      dup3\n      add\n      dup4\n      swap1\n      mstore\n      0xa0\n      dup3\n      add\n      dup2\n      swap1\n      mstore\n      0xc0\n      dup3\n      add\n      mstore\n      swap1\n      0xe0\n      dup3\n      add\n      swap1\n      dup2\n      mstore\n      0x20\n      add\n      0x60\n      dup2\n      mstore\n      0x20\n      add\n      0x60\n      dup2\n      mstore\n      pop\n      swap1\n      jump\t// out\n    tag_188:\n      pop\n      dup1\n      sload\n      tag_380\n      swap1\n      tag_109\n      jump\t// in\n    tag_380:\n      0x00\n      dup3\n      sstore\n      dup1\n      0x1f\n      lt\n      tag_382\n      jumpi\n      pop\n      pop\n      jump\t// out\n    tag_382:\n      0x1f\n      add\n      0x20\n      swap1\n      div\n      swap1\n      0x00\n      mstore\n      keccak256(0x00, 0x20)\n      swap1\n      dup2\n      add\n      swap1\n      tag_383\n      swap2\n      swap1\n      tag_384\n      jump\t// in\n    tag_383:\n      pop\n      jump\t// out\n    tag_384:\n    tag_385:\n      dup1\n      dup3\n      gt\n      iszero\n      tag_386\n      jumpi\n      0x00\n      dup2\n      sstore\n      0x01\n      add\n      jump(tag_385)\n    tag_386:\n      pop\n      swap1\n      jump\t// out\n        /* \"#utility.yul\":14:194   */\n    tag_21:\n        /* \"#utility.yul\":73:79   */\n      0x00\n        /* \"#utility.yul\":126:128   */\n      0x20\n        /* \"#utility.yul\":114:123   */\n      dup3\n        /* \"#utility.yul\":105:112   */\n      dup5\n        /* \"#utility.yul\":101:124   */\n      sub\n        /* \"#utility.yul\":97:129   */\n      slt\n        /* \"#utility.yul\":94:146   */\n      iszero\n      tag_409\n      jumpi\n        /* \"#utility.yul\":142:143   */\n      0x00\n        /* \"#utility.yul\":139:140   */\n      dup1\n        /* \"#utility.yul\":132:144   */\n      revert\n        /* \"#utility.yul\":94:146   */\n    tag_409:\n      pop\n        /* \"#utility.yul\":165:188   */\n      calldataload\n      swap2\n        /* \"#utility.yul\":14:194   */\n      swap1\n      pop\n      jump\t// out\n        /* \"#utility.yul\":306:611   */\n    tag_388:\n        /* \"#utility.yul\":384:396   */\n      dup1\n      mload\n        /* \"#utility.yul\":372:397   */\n      dup3\n      mstore\n        /* \"#utility.yul\":443:447   */\n      0x20\n        /* \"#utility.yul\":432:448   */\n      dup1\n      dup3\n      add\n        /* \"#utility.yul\":426:449   */\n      mload\n      sub(shl(0x40, 0x01), 0x01)\n        /* \"#utility.yul\":518:539   */\n      swap1\n      dup2\n      and\n        /* \"#utility.yul\":502:516   */\n      swap2\n      dup5\n      add\n        /* \"#utility.yul\":495:540   */\n      swap2\n      swap1\n      swap2\n      mstore\n        /* \"#utility.yul\":476:478   */\n      0x40\n        /* \"#utility.yul\":582:598   */\n      swap2\n      dup3\n      add\n        /* \"#utility.yul\":576:599   */\n      mload\n        /* \"#utility.yul\":572:604   */\n      and\n        /* \"#utility.yul\":556:570   */\n      swap2\n      add\n        /* \"#utility.yul\":549:605   */\n      mstore\n        /* \"#utility.yul\":306:611   */\n      jump\t// out\n        /* \"#utility.yul\":616:875   */\n    tag_24:\n        /* \"#utility.yul\":808:810   */\n      0x60\n        /* \"#utility.yul\":793:811   */\n      dup2\n      add\n        /* \"#utility.yul\":820:869   */\n      tag_413\n        /* \"#utility.yul\":797:806   */\n      dup3\n        /* \"#utility.yul\":851:857   */\n      dup5\n        /* \"#utility.yul\":820:869   */\n      tag_388\n      jump\t// in\n    tag_413:\n        /* \"#utility.yul\":616:875   */\n      swap3\n      swap2\n      pop\n      pop\n      jump\t// out\n        /* \"#utility.yul\":989:1239   */\n    tag_390:\n        /* \"#utility.yul\":1074:1075   */\n      0x00\n        /* \"#utility.yul\":1084:1197   */\n    tag_416:\n        /* \"#utility.yul\":1098:1104   */\n      dup4\n        /* \"#utility.yul\":1095:1096   */\n      dup2\n        /* \"#utility.yul\":1092:1105   */\n      lt\n        /* \"#utility.yul\":1084:1197   */\n      iszero\n      tag_418\n      jumpi\n        /* \"#utility.yul\":1174:1185   */\n      dup2\n      dup2\n      add\n        /* \"#utility.yul\":1168:1186   */\n      mload\n        /* \"#utility.yul\":1155:1166   */\n      dup4\n      dup3\n      add\n        /* \"#utility.yul\":1148:1187   */\n      mstore\n        /* \"#utility.yul\":1120:1122   */\n      0x20\n        /* \"#utility.yul\":1113:1123   */\n      add\n        /* \"#utility.yul\":1084:1197   */\n      jump(tag_416)\n    tag_418:\n      pop\n      pop\n        /* \"#utility.yul\":1231:1232   */\n      0x00\n        /* \"#utility.yul\":1213:1229   */\n      swap2\n      add\n        /* \"#utility.yul\":1206:1233   */\n      mstore\n        /* \"#utility.yul\":989:1239   */\n      jump\t// out\n        /* \"#utility.yul\":1244:1515   */\n    tag_391:\n        /* \"#utility.yul\":1286:1289   */\n      0x00\n        /* \"#utility.yul\":1324:1329   */\n      dup2\n        /* \"#utility.yul\":1318:1330   */\n      mload\n        /* \"#utility.yul\":1351:1357   */\n      dup1\n        /* \"#utility.yul\":1346:1349   */\n      dup5\n        /* \"#utility.yul\":1339:1358   */\n      mstore\n        /* \"#utility.yul\":1367:1443   */\n      tag_420\n        /* \"#utility.yul\":1436:1442   */\n      dup2\n        /* \"#utility.yul\":1429:1433   */\n      0x20\n        /* \"#utility.yul\":1424:1427   */\n      dup7\n        /* \"#utility.yul\":1420:1434   */\n      add\n        /* \"#utility.yul\":1413:1417   */\n      0x20\n        /* \"#utility.yul\":1406:1411   */\n      dup7\n        /* \"#utility.yul\":1402:1418   */\n      add\n        /* \"#utility.yul\":1367:1443   */\n      tag_390\n      jump\t// in\n    tag_420:\n        /* \"#utility.yul\":1497:1499   */\n      0x1f\n        /* \"#utility.yul\":1476:1491   */\n      add\n      not(0x1f)\n        /* \"#utility.yul\":1472:1501   */\n      and\n        /* \"#utility.yul\":1463:1502   */\n      swap3\n      swap1\n      swap3\n      add\n        /* \"#utility.yul\":1504:1508   */\n      0x20\n        /* \"#utility.yul\":1459:1509   */\n      add\n      swap3\n        /* \"#utility.yul\":1244:1515   */\n      swap2\n      pop\n      pop\n      jump\t// out\n        /* \"#utility.yul\":1520:1647   */\n    tag_99:\n        /* \"#utility.yul\":1581:1591   */\n      0x4e487b71\n        /* \"#utility.yul\":1576:1579   */\n      0xe0\n        /* \"#utility.yul\":1572:1592   */\n      shl\n        /* \"#utility.yul\":1569:1570   */\n      0x00\n        /* \"#utility.yul\":1562:1593   */\n      mstore\n        /* \"#utility.yul\":1612:1616   */\n      0x21\n        /* \"#utility.yul\":1609:1610   */\n      0x04\n        /* \"#utility.yul\":1602:1617   */\n      mstore\n        /* \"#utility.yul\":1636:1640   */\n      0x24\n        /* \"#utility.yul\":1633:1634   */\n      0x00\n        /* \"#utility.yul\":1626:1641   */\n      revert\n        /* \"#utility.yul\":1652:1890   */\n    tag_392:\n        /* \"#utility.yul\":1734:1735   */\n      0x04\n        /* \"#utility.yul\":1727:1732   */\n      dup2\n        /* \"#utility.yul\":1724:1736   */\n      lt\n        /* \"#utility.yul\":1714:1857   */\n      tag_423\n      jumpi\n        /* \"#utility.yul\":1779:1789   */\n      0x4e487b71\n        /* \"#utility.yul\":1774:1777   */\n      0xe0\n        /* \"#utility.yul\":1770:1790   */\n      shl\n        /* \"#utility.yul\":1767:1768   */\n      0x00\n        /* \"#utility.yul\":1760:1791   */\n      mstore\n        /* \"#utility.yul\":1814:1818   */\n      0x21\n        /* \"#utility.yul\":1811:1812   */\n      0x04\n        /* \"#utility.yul\":1804:1819   */\n      mstore\n        /* \"#utility.yul\":1842:1846   */\n      0x24\n        /* \"#utility.yul\":1839:1840   */\n      0x00\n        /* \"#utility.yul\":1832:1847   */\n      revert\n        /* \"#utility.yul\":1714:1857   */\n    tag_423:\n        /* \"#utility.yul\":1866:1884   */\n      swap1\n      mstore\n        /* \"#utility.yul\":1652:1890   */\n      jump\t// out\n        /* \"#utility.yul\":1895:3226   */\n    tag_393:\n        /* \"#utility.yul\":2004:2016   */\n      dup1\n      mload\n      sub(shl(0xa0, 0x01), 0x01)\n        /* \"#utility.yul\":946:977   */\n      and\n        /* \"#utility.yul\":934:978   */\n      dup3\n      mstore\n        /* \"#utility.yul\":1942:1945   */\n      0x00\n        /* \"#utility.yul\":1970:1976   */\n      0x0140\n        /* \"#utility.yul\":2071:2075   */\n      0x20\n        /* \"#utility.yul\":2064:2069   */\n      dup4\n        /* \"#utility.yul\":2060:2076   */\n      add\n        /* \"#utility.yul\":2054:2077   */\n      mload\n        /* \"#utility.yul\":2047:2051   */\n      0x20\n        /* \"#utility.yul\":2042:2045   */\n      dup6\n        /* \"#utility.yul\":2038:2052   */\n      add\n        /* \"#utility.yul\":2031:2078   */\n      mstore\n        /* \"#utility.yul\":2124:2128   */\n      0x40\n        /* \"#utility.yul\":2117:2122   */\n      dup4\n        /* \"#utility.yul\":2113:2129   */\n      add\n        /* \"#utility.yul\":2107:2130   */\n      mload\n        /* \"#utility.yul\":2139:2186   */\n      tag_426\n        /* \"#utility.yul\":2180:2184   */\n      0x40\n        /* \"#utility.yul\":2175:2178   */\n      dup7\n        /* \"#utility.yul\":2171:2185   */\n      add\n        /* \"#utility.yul\":2157:2169   */\n      dup3\n      sub(shl(0x40, 0x01), 0x01)\n        /* \"#utility.yul\":264:294   */\n      and\n        /* \"#utility.yul\":252:295   */\n      swap1\n      mstore\n        /* \"#utility.yul\":199:301   */\n      jump\n        /* \"#utility.yul\":2139:2186   */\n    tag_426:\n      pop\n        /* \"#utility.yul\":2234:2238   */\n      0x60\n        /* \"#utility.yul\":2227:2232   */\n      dup4\n        /* \"#utility.yul\":2223:2239   */\n      add\n        /* \"#utility.yul\":2217:2240   */\n      mload\n        /* \"#utility.yul\":2249:2298   */\n      tag_427\n        /* \"#utility.yul\":2292:2296   */\n      0x60\n        /* \"#utility.yul\":2287:2290   */\n      dup7\n        /* \"#utility.yul\":2283:2297   */\n      add\n        /* \"#utility.yul\":2267:2281   */\n      dup3\n      sub(shl(0x40, 0x01), 0x01)\n        /* \"#utility.yul\":264:294   */\n      and\n        /* \"#utility.yul\":252:295   */\n      swap1\n      mstore\n        /* \"#utility.yul\":199:301   */\n      jump\n        /* \"#utility.yul\":2249:2298   */\n    tag_427:\n      pop\n        /* \"#utility.yul\":2346:2350   */\n      0x80\n        /* \"#utility.yul\":2339:2344   */\n      dup4\n        /* \"#utility.yul\":2335:2351   */\n      add\n        /* \"#utility.yul\":2329:2352   */\n      mload\n        /* \"#utility.yul\":2361:2410   */\n      tag_428\n        /* \"#utility.yul\":2404:2408   */\n      0x80\n        /* \"#utility.yul\":2399:2402   */\n      dup7\n        /* \"#utility.yul\":2395:2409   */\n      add\n        /* \"#utility.yul\":2379:2393   */\n      dup3\n      sub(shl(0x40, 0x01), 0x01)\n        /* \"#utility.yul\":264:294   */\n      and\n        /* \"#utility.yul\":252:295   */\n      swap1\n      mstore\n        /* \"#utility.yul\":199:301   */\n      jump\n        /* \"#utility.yul\":2361:2410   */\n    tag_428:\n      pop\n        /* \"#utility.yul\":2458:2462   */\n      0xa0\n        /* \"#utility.yul\":2451:2456   */\n      dup4\n        /* \"#utility.yul\":2447:2463   */\n      add\n        /* \"#utility.yul\":2441:2464   */\n      mload\n        /* \"#utility.yul\":2496:2498   */\n      dup2\n        /* \"#utility.yul\":2489:2493   */\n      0xa0\n        /* \"#utility.yul\":2484:2487   */\n      dup7\n        /* \"#utility.yul\":2480:2494   */\n      add\n        /* \"#utility.yul\":2473:2499   */\n      mstore\n        /* \"#utility.yul\":2520:2567   */\n      tag_429\n        /* \"#utility.yul\":2563:2565   */\n      dup3\n        /* \"#utility.yul\":2558:2561   */\n      dup7\n        /* \"#utility.yul\":2554:2566   */\n      add\n        /* \"#utility.yul\":2538:2552   */\n      dup3\n        /* \"#utility.yul\":2520:2567   */\n      tag_391\n      jump\t// in\n    tag_429:\n        /* \"#utility.yul\":2508:2567   */\n      swap2\n      pop\n      pop\n        /* \"#utility.yul\":2615:2619   */\n      0xc0\n        /* \"#utility.yul\":2608:2613   */\n      dup4\n        /* \"#utility.yul\":2604:2620   */\n      add\n        /* \"#utility.yul\":2598:2621   */\n      mload\n        /* \"#utility.yul\":2663:2666   */\n      dup5\n        /* \"#utility.yul\":2657:2661   */\n      dup3\n        /* \"#utility.yul\":2653:2667   */\n      sub\n        /* \"#utility.yul\":2646:2650   */\n      0xc0\n        /* \"#utility.yul\":2641:2644   */\n      dup7\n        /* \"#utility.yul\":2637:2651   */\n      add\n        /* \"#utility.yul\":2630:2668   */\n      mstore\n        /* \"#utility.yul\":2691:2730   */\n      tag_430\n        /* \"#utility.yul\":2725:2729   */\n      dup3\n        /* \"#utility.yul\":2709:2723   */\n      dup3\n        /* \"#utility.yul\":2691:2730   */\n      tag_391\n      jump\t// in\n    tag_430:\n        /* \"#utility.yul\":2677:2730   */\n      swap2\n      pop\n      pop\n        /* \"#utility.yul\":2778:2782   */\n      0xe0\n        /* \"#utility.yul\":2771:2776   */\n      dup4\n        /* \"#utility.yul\":2767:2783   */\n      add\n        /* \"#utility.yul\":2761:2784   */\n      mload\n        /* \"#utility.yul\":2793:2851   */\n      tag_431\n        /* \"#utility.yul\":2845:2849   */\n      0xe0\n        /* \"#utility.yul\":2840:2843   */\n      dup7\n        /* \"#utility.yul\":2836:2850   */\n      add\n        /* \"#utility.yul\":2820:2834   */\n      dup3\n        /* \"#utility.yul\":2793:2851   */\n      tag_392\n      jump\t// in\n    tag_431:\n      pop\n        /* \"#utility.yul\":2870:2876   */\n      0x0100\n        /* \"#utility.yul\":2924:2926   */\n      dup1\n        /* \"#utility.yul\":2917:2922   */\n      dup5\n        /* \"#utility.yul\":2913:2927   */\n      add\n        /* \"#utility.yul\":2907:2928   */\n      mload\n        /* \"#utility.yul\":2970:2973   */\n      dup6\n        /* \"#utility.yul\":2962:2968   */\n      dup4\n        /* \"#utility.yul\":2958:2974   */\n      sub\n        /* \"#utility.yul\":2953:2955   */\n      dup3\n        /* \"#utility.yul\":2948:2951   */\n      dup8\n        /* \"#utility.yul\":2944:2956   */\n      add\n        /* \"#utility.yul\":2937:2975   */\n      mstore\n        /* \"#utility.yul\":2998:3039   */\n      tag_432\n        /* \"#utility.yul\":3032:3038   */\n      dup4\n        /* \"#utility.yul\":3016:3030   */\n      dup3\n        /* \"#utility.yul\":2998:3039   */\n      tag_391\n      jump\t// in\n    tag_432:\n        /* \"#utility.yul\":2984:3039   */\n      swap3\n      pop\n      pop\n      pop\n        /* \"#utility.yul\":3058:3064   */\n      0x0120\n        /* \"#utility.yul\":3112:3114   */\n      dup1\n        /* \"#utility.yul\":3105:3110   */\n      dup5\n        /* \"#utility.yul\":3101:3115   */\n      add\n        /* \"#utility.yul\":3095:3116   */\n      mload\n        /* \"#utility.yul\":3158:3161   */\n      dup6\n        /* \"#utility.yul\":3150:3156   */\n      dup4\n        /* \"#utility.yul\":3146:3162   */\n      sub\n        /* \"#utility.yul\":3141:3143   */\n      dup3\n        /* \"#utility.yul\":3136:3139   */\n      dup8\n        /* \"#utility.yul\":3132:3144   */\n      add\n        /* \"#utility.yul\":3125:3163   */\n      mstore\n        /* \"#utility.yul\":3179:3220   */\n      tag_433\n        /* \"#utility.yul\":3213:3219   */\n      dup4\n        /* \"#utility.yul\":3197:3211   */\n      dup3\n        /* \"#utility.yul\":3179:3220   */\n      tag_391\n      jump\t// in\n    tag_433:\n        /* \"#utility.yul\":3172:3220   */\n      swap7\n        /* \"#utility.yul\":1895:3226   */\n      swap6\n      pop\n      pop\n      pop\n      pop\n      pop\n      pop\n      jump\t// out\n        /* \"#utility.yul\":3231:3478   */\n    tag_29:\n        /* \"#utility.yul\":3402:3404   */\n      0x20\n        /* \"#utility.yul\":3391:3400   */\n      dup2\n        /* \"#utility.yul\":3384:3405   */\n      mstore\n        /* \"#utility.yul\":3365:3369   */\n      0x00\n        /* \"#utility.yul\":3422:3472   */\n      tag_337\n        /* \"#utility.yul\":3468:3470   */\n      0x20\n        /* \"#utility.yul\":3457:3466   */\n      dup4\n        /* \"#utility.yul\":3453:3471   */\n      add\n        /* \"#utility.yul\":3445:3451   */\n      dup5\n        /* \"#utility.yul\":3422:3472   */\n      tag_393\n      jump\t// in\n        /* \"#utility.yul\":3483:3610   */\n    tag_194:\n        /* \"#utility.yul\":3544:3554   */\n      0x4e487b71\n        /* \"#utility.yul\":3539:3542   */\n      0xe0\n        /* \"#utility.yul\":3535:3555   */\n      shl\n        /* \"#utility.yul\":3532:3533   */\n      0x00\n        /* \"#utility.yul\":3525:3556   */\n      mstore\n        /* \"#utility.yul\":3575:3579   */\n      0x41\n        /* \"#utility.yul\":3572:3573   */\n      0x04\n        /* \"#utility.yul\":3565:3580   */\n      mstore\n        /* \"#utility.yul\":3599:3603   */\n      0x24\n        /* \"#utility.yul\":3596:3597   */\n      0x00\n        /* \"#utility.yul\":3589:3604   */\n      revert\n        /* \"#utility.yul\":3615:3870   */\n    tag_394:\n        /* \"#utility.yul\":3687:3689   */\n      0x40\n        /* \"#utility.yul\":3681:3690   */\n      mload\n        /* \"#utility.yul\":3729:3735   */\n      0x0140\n        /* \"#utility.yul\":3717:3736   */\n      dup2\n      add\n      sub(shl(0x40, 0x01), 0x01)\n        /* \"#utility.yul\":3751:3785   */\n      dup2\n      gt\n        /* \"#utility.yul\":3787:3809   */\n      dup3\n      dup3\n      lt\n        /* \"#utility.yul\":3748:3810   */\n      or\n        /* \"#utility.yul\":3745:3833   */\n      iszero\n      tag_439\n      jumpi\n        /* \"#utility.yul\":3813:3831   */\n      tag_439\n      tag_194\n      jump\t// in\n    tag_439:\n        /* \"#utility.yul\":3849:3851   */\n      0x40\n        /* \"#utility.yul\":3842:3864   */\n      mstore\n        /* \"#utility.yul\":3615:3870   */\n      swap1\n      jump\t// out\n        /* \"#utility.yul\":3875:4150   */\n    tag_395:\n        /* \"#utility.yul\":3946:3948   */\n      0x40\n        /* \"#utility.yul\":3940:3949   */\n      mload\n        /* \"#utility.yul\":4011:4013   */\n      0x1f\n        /* \"#utility.yul\":3992:4005   */\n      dup3\n      add\n      not(0x1f)\n        /* \"#utility.yul\":3988:4015   */\n      and\n        /* \"#utility.yul\":3976:4016   */\n      dup2\n      add\n      sub(shl(0x40, 0x01), 0x01)\n        /* \"#utility.yul\":4031:4065   */\n      dup2\n      gt\n        /* \"#utility.yul\":4067:4089   */\n      dup3\n      dup3\n      lt\n        /* \"#utility.yul\":4028:4090   */\n      or\n        /* \"#utility.yul\":4025:4113   */\n      iszero\n      tag_442\n      jumpi\n        /* \"#utility.yul\":4093:4111   */\n      tag_442\n      tag_194\n      jump\t// in\n    tag_442:\n        /* \"#utility.yul\":4129:4131   */\n      0x40\n        /* \"#utility.yul\":4122:4144   */\n      mstore\n        /* \"#utility.yul\":3875:4150   */\n      swap2\n      swap1\n      pop\n      jump\t// out\n        /* \"#utility.yul\":4155:4561   */\n    tag_396:\n        /* \"#utility.yul\":4219:4224   */\n      0x00\n      sub(shl(0x40, 0x01), 0x01)\n        /* \"#utility.yul\":4242:4272   */\n      dup4\n      gt\n        /* \"#utility.yul\":4239:4295   */\n      iszero\n      tag_445\n      jumpi\n        /* \"#utility.yul\":4275:4293   */\n      tag_445\n      tag_194\n      jump\t// in\n    tag_445:\n        /* \"#utility.yul\":4313:4370   */\n      tag_446\n        /* \"#utility.yul\":4358:4360   */\n      0x1f\n        /* \"#utility.yul\":4337:4352   */\n      dup5\n      add\n      not(0x1f)\n        /* \"#utility.yul\":4333:4362   */\n      and\n        /* \"#utility.yul\":4364:4368   */\n      0x20\n        /* \"#utility.yul\":4329:4369   */\n      add\n        /* \"#utility.yul\":4313:4370   */\n      tag_395\n      jump\t// in\n    tag_446:\n        /* \"#utility.yul\":4304:4370   */\n      swap1\n      pop\n        /* \"#utility.yul\":4393:4399   */\n      dup3\n        /* \"#utility.yul\":4386:4391   */\n      dup2\n        /* \"#utility.yul\":4379:4400   */\n      mstore\n        /* \"#utility.yul\":4433:4436   */\n      dup4\n        /* \"#utility.yul\":4424:4430   */\n      dup4\n        /* \"#utility.yul\":4419:4422   */\n      dup4\n        /* \"#utility.yul\":4415:4431   */\n      add\n        /* \"#utility.yul\":4412:4437   */\n      gt\n        /* \"#utility.yul\":4409:4454   */\n      iszero\n      tag_447\n      jumpi\n        /* \"#utility.yul\":4450:4451   */\n      0x00\n        /* \"#utility.yul\":4447:4448   */\n      dup1\n        /* \"#utility.yul\":4440:4452   */\n      revert\n        /* \"#utility.yul\":4409:4454   */\n    tag_447:\n        /* \"#utility.yul\":4499:4505   */\n      dup3\n        /* \"#utility.yul\":4494:4497   */\n      dup3\n        /* \"#utility.yul\":4487:4491   */\n      0x20\n        /* \"#utility.yul\":4480:4485   */\n      dup4\n        /* \"#utility.yul\":4476:4492   */\n      add\n        /* \"#utility.yul\":4463:4506   */\n      calldatacopy\n        /* \"#utility.yul\":4553:4554   */\n      0x00\n        /* \"#utility.yul\":4546:4550   */\n      0x20\n        /* \"#utility.yul\":4537:4543   */\n      dup5\n        /* \"#utility.yul\":4530:4535   */\n      dup4\n        /* \"#utility.yul\":4526:4544   */\n      add\n        /* \"#utility.yul\":4522:4551   */\n      add\n        /* \"#utility.yul\":4515:4555   */\n      mstore\n        /* \"#utility.yul\":4155:4561   */\n      swap4\n      swap3\n      pop\n      pop\n      pop\n      jump\t// out\n        /* \"#utility.yul\":4566:5151   */\n    tag_32:\n        /* \"#utility.yul\":4652:4658   */\n      0x00\n        /* \"#utility.yul\":4660:4666   */\n      dup1\n        /* \"#utility.yul\":4668:4674   */\n      0x00\n        /* \"#utility.yul\":4721:4723   */\n      0x60\n        /* \"#utility.yul\":4709:4718   */\n      dup5\n        /* \"#utility.yul\":4700:4707   */\n      dup7\n        /* \"#utility.yul\":4696:4719   */\n      sub\n        /* \"#utility.yul\":4692:4724   */\n      slt\n        /* \"#utility.yul\":4689:4741   */\n      iszero\n      tag_449\n      jumpi\n        /* \"#utility.yul\":4737:4738   */\n      0x00\n        /* \"#utility.yul\":4734:4735   */\n      dup1\n        /* \"#utility.yul\":4727:4739   */\n      revert\n        /* \"#utility.yul\":4689:4741   */\n    tag_449:\n        /* \"#utility.yul\":4760:4783   */\n      dup4\n      calldataload\n      swap3\n      pop\n        /* \"#utility.yul\":4834:4836   */\n      0x20\n        /* \"#utility.yul\":4819:4837   */\n      dup5\n      add\n        /* \"#utility.yul\":4806:4838   */\n      calldataload\n      sub(shl(0x40, 0x01), 0x01)\n        /* \"#utility.yul\":4850:4880   */\n      dup2\n      gt\n        /* \"#utility.yul\":4847:4897   */\n      iszero\n      tag_450\n      jumpi\n        /* \"#utility.yul\":4893:4894   */\n      0x00\n        /* \"#utility.yul\":4890:4891   */\n      dup1\n        /* \"#utility.yul\":4883:4895   */\n      revert\n        /* \"#utility.yul\":4847:4897   */\n    tag_450:\n        /* \"#utility.yul\":4916:4938   */\n      dup5\n      add\n        /* \"#utility.yul\":4969:4973   */\n      0x1f\n        /* \"#utility.yul\":4961:4974   */\n      dup2\n      add\n        /* \"#utility.yul\":4957:4984   */\n      dup7\n      sgt\n        /* \"#utility.yul\":4947:5002   */\n      tag_451\n      jumpi\n        /* \"#utility.yul\":4998:4999   */\n      0x00\n        /* \"#utility.yul\":4995:4996   */\n      dup1\n        /* \"#utility.yul\":4988:5000   */\n      revert\n        /* \"#utility.yul\":4947:5002   */\n    tag_451:\n        /* \"#utility.yul\":5021:5094   */\n      tag_452\n        /* \"#utility.yul\":5086:5093   */\n      dup7\n        /* \"#utility.yul\":5081:5083   */\n      dup3\n        /* \"#utility.yul\":5068:5084   */\n      calldataload\n        /* \"#utility.yul\":5063:5065   */\n      0x20\n        /* \"#utility.yul\":5059:5061   */\n      dup5\n        /* \"#utility.yul\":5055:5066   */\n      add\n        /* \"#utility.yul\":5021:5094   */\n      tag_396\n      jump\t// in\n    tag_452:\n        /* \"#utility.yul\":5011:5094   */\n      swap3\n      pop\n      pop\n        /* \"#utility.yul\":5141:5143   */\n      0x40\n        /* \"#utility.yul\":5130:5139   */\n      dup5\n        /* \"#utility.yul\":5126:5144   */\n      add\n        /* \"#utility.yul\":5113:5145   */\n      calldataload\n        /* \"#utility.yul\":5103:5145   */\n      swap1\n      pop\n        /* \"#utility.yul\":4566:5151   */\n      swap3\n      pop\n      swap3\n      pop\n      swap3\n      jump\t// out\n        /* \"#utility.yul\":5156:5343   */\n    tag_397:\n        /* \"#utility.yul\":5220:5224   */\n      0x00\n      sub(shl(0x40, 0x01), 0x01)\n        /* \"#utility.yul\":5242:5272   */\n      dup3\n      gt\n        /* \"#utility.yul\":5239:5295   */\n      iszero\n      tag_455\n      jumpi\n        /* \"#utility.yul\":5275:5293   */\n      tag_455\n      tag_194\n      jump\t// in\n    tag_455:\n      pop\n        /* \"#utility.yul\":5320:5321   */\n      0x05\n        /* \"#utility.yul\":5316:5330   */\n      shl\n        /* \"#utility.yul\":5332:5336   */\n      0x20\n        /* \"#utility.yul\":5312:5337   */\n      add\n      swap1\n        /* \"#utility.yul\":5156:5343   */\n      jump\t// out\n        /* \"#utility.yul\":5348:5521   */\n    tag_398:\n        /* \"#utility.yul\":5416:5436   */\n      dup1\n      calldataload\n      sub(shl(0xa0, 0x01), 0x01)\n        /* \"#utility.yul\":5465:5496   */\n      dup2\n      and\n        /* \"#utility.yul\":5455:5497   */\n      dup2\n      eq\n        /* \"#utility.yul\":5445:5515   */\n      tag_457\n      jumpi\n        /* \"#utility.yul\":5511:5512   */\n      0x00\n        /* \"#utility.yul\":5508:5509   */\n      dup1\n        /* \"#utility.yul\":5501:5513   */\n      revert\n        /* \"#utility.yul\":5445:5515   */\n    tag_457:\n        /* \"#utility.yul\":5348:5521   */\n      swap2\n      swap1\n      pop\n      jump\t// out\n        /* \"#utility.yul\":5526:5697   */\n    tag_399:\n        /* \"#utility.yul\":5593:5613   */\n      dup1\n      calldataload\n      sub(shl(0x40, 0x01), 0x01)\n        /* \"#utility.yul\":5642:5672   */\n      dup2\n      and\n        /* \"#utility.yul\":5632:5673   */\n      dup2\n      eq\n        /* \"#utility.yul\":5622:5691   */\n      tag_457\n      jumpi\n        /* \"#utility.yul\":5687:5688   */\n      0x00\n        /* \"#utility.yul\":5684:5685   */\n      dup1\n        /* \"#utility.yul\":5677:5689   */\n      revert\n        /* \"#utility.yul\":5702:5923   */\n    tag_400:\n        /* \"#utility.yul\":5745:5750   */\n      0x00\n        /* \"#utility.yul\":5798:5801   */\n      dup3\n        /* \"#utility.yul\":5791:5795   */\n      0x1f\n        /* \"#utility.yul\":5783:5789   */\n      dup4\n        /* \"#utility.yul\":5779:5796   */\n      add\n        /* \"#utility.yul\":5775:5802   */\n      slt\n        /* \"#utility.yul\":5765:5820   */\n      tag_461\n      jumpi\n        /* \"#utility.yul\":5816:5817   */\n      0x00\n        /* \"#utility.yul\":5813:5814   */\n      dup1\n        /* \"#utility.yul\":5806:5818   */\n      revert\n        /* \"#utility.yul\":5765:5820   */\n    tag_461:\n        /* \"#utility.yul\":5838:5917   */\n      tag_337\n        /* \"#utility.yul\":5913:5916   */\n      dup4\n        /* \"#utility.yul\":5904:5910   */\n      dup4\n        /* \"#utility.yul\":5891:5911   */\n      calldataload\n        /* \"#utility.yul\":5884:5888   */\n      0x20\n        /* \"#utility.yul\":5876:5882   */\n      dup6\n        /* \"#utility.yul\":5872:5889   */\n      add\n        /* \"#utility.yul\":5838:5917   */\n      tag_396\n      jump\t// in\n        /* \"#utility.yul\":5928:6079   */\n    tag_401:\n        /* \"#utility.yul\":6004:6024   */\n      dup1\n      calldataload\n        /* \"#utility.yul\":6053:6054   */\n      0x04\n        /* \"#utility.yul\":6043:6055   */\n      dup2\n      lt\n        /* \"#utility.yul\":6033:6073   */\n      tag_457\n      jumpi\n        /* \"#utility.yul\":6069:6070   */\n      0x00\n        /* \"#utility.yul\":6066:6067   */\n      dup1\n        /* \"#utility.yul\":6059:6071   */\n      revert\n        /* \"#utility.yul\":6084:7475   */\n    tag_402:\n        /* \"#utility.yul\":6135:6140   */\n      0x00\n        /* \"#utility.yul\":6183:6189   */\n      0x0140\n        /* \"#utility.yul\":6171:6180   */\n      dup3\n        /* \"#utility.yul\":6166:6169   */\n      dup5\n        /* \"#utility.yul\":6162:6181   */\n      sub\n        /* \"#utility.yul\":6158:6190   */\n      slt\n        /* \"#utility.yul\":6155:6207   */\n      iszero\n      tag_466\n      jumpi\n        /* \"#utility.yul\":6203:6204   */\n      0x00\n        /* \"#utility.yul\":6200:6201   */\n      dup1\n        /* \"#utility.yul\":6193:6205   */\n      revert\n        /* \"#utility.yul\":6155:6207   */\n    tag_466:\n        /* \"#utility.yul\":6225:6247   */\n      tag_467\n      tag_394\n      jump\t// in\n    tag_467:\n        /* \"#utility.yul\":6216:6247   */\n      swap1\n      pop\n        /* \"#utility.yul\":6270:6299   */\n      tag_468\n        /* \"#utility.yul\":6289:6298   */\n      dup3\n        /* \"#utility.yul\":6270:6299   */\n      tag_398\n      jump\t// in\n    tag_468:\n        /* \"#utility.yul\":6263:6268   */\n      dup2\n        /* \"#utility.yul\":6256:6300   */\n      mstore\n        /* \"#utility.yul\":6360:6362   */\n      0x20\n        /* \"#utility.yul\":6349:6358   */\n      dup3\n        /* \"#utility.yul\":6345:6363   */\n      add\n        /* \"#utility.yul\":6332:6364   */\n      calldataload\n        /* \"#utility.yul\":6327:6329   */\n      0x20\n        /* \"#utility.yul\":6320:6325   */\n      dup3\n        /* \"#utility.yul\":6316:6330   */\n      add\n        /* \"#utility.yul\":6309:6365   */\n      mstore\n        /* \"#utility.yul\":6397:6434   */\n      tag_469\n        /* \"#utility.yul\":6430:6432   */\n      0x40\n        /* \"#utility.yul\":6419:6428   */\n      dup4\n        /* \"#utility.yul\":6415:6433   */\n      add\n        /* \"#utility.yul\":6397:6434   */\n      tag_399\n      jump\t// in\n    tag_469:\n        /* \"#utility.yul\":6392:6394   */\n      0x40\n        /* \"#utility.yul\":6385:6390   */\n      dup3\n        /* \"#utility.yul\":6381:6395   */\n      add\n        /* \"#utility.yul\":6374:6435   */\n      mstore\n        /* \"#utility.yul\":6467:6504   */\n      tag_470\n        /* \"#utility.yul\":6500:6502   */\n      0x60\n        /* \"#utility.yul\":6489:6498   */\n      dup4\n        /* \"#utility.yul\":6485:6503   */\n      add\n        /* \"#utility.yul\":6467:6504   */\n      tag_399\n      jump\t// in\n    tag_470:\n        /* \"#utility.yul\":6462:6464   */\n      0x60\n        /* \"#utility.yul\":6455:6460   */\n      dup3\n        /* \"#utility.yul\":6451:6465   */\n      add\n        /* \"#utility.yul\":6444:6505   */\n      mstore\n        /* \"#utility.yul\":6538:6576   */\n      tag_471\n        /* \"#utility.yul\":6571:6574   */\n      0x80\n        /* \"#utility.yul\":6560:6569   */\n      dup4\n        /* \"#utility.yul\":6556:6575   */\n      add\n        /* \"#utility.yul\":6538:6576   */\n      tag_399\n      jump\t// in\n    tag_471:\n        /* \"#utility.yul\":6532:6535   */\n      0x80\n        /* \"#utility.yul\":6521:6536   */\n      dup3\n      add\n        /* \"#utility.yul\":6514:6577   */\n      mstore\n        /* \"#utility.yul\":6628:6631   */\n      0xa0\n        /* \"#utility.yul\":6613:6632   */\n      dup3\n      add\n        /* \"#utility.yul\":6600:6633   */\n      calldataload\n      sub(shl(0x40, 0x01), 0x01)\n        /* \"#utility.yul\":6682:6696   */\n      dup1\n      dup3\n      gt\n        /* \"#utility.yul\":6679:6713   */\n      iszero\n      tag_472\n      jumpi\n        /* \"#utility.yul\":6709:6710   */\n      0x00\n        /* \"#utility.yul\":6706:6707   */\n      dup1\n        /* \"#utility.yul\":6699:6711   */\n      revert\n        /* \"#utility.yul\":6679:6713   */\n    tag_472:\n        /* \"#utility.yul\":6746:6792   */\n      tag_473\n        /* \"#utility.yul\":6788:6791   */\n      dup6\n        /* \"#utility.yul\":6779:6785   */\n      dup4\n        /* \"#utility.yul\":6768:6777   */\n      dup7\n        /* \"#utility.yul\":6764:6786   */\n      add\n        /* \"#utility.yul\":6746:6792   */\n      tag_400\n      jump\t// in\n    tag_473:\n        /* \"#utility.yul\":6740:6743   */\n      0xa0\n        /* \"#utility.yul\":6733:6738   */\n      dup5\n        /* \"#utility.yul\":6729:6744   */\n      add\n        /* \"#utility.yul\":6722:6793   */\n      mstore\n        /* \"#utility.yul\":6846:6849   */\n      0xc0\n        /* \"#utility.yul\":6835:6844   */\n      dup5\n        /* \"#utility.yul\":6831:6850   */\n      add\n        /* \"#utility.yul\":6818:6851   */\n      calldataload\n        /* \"#utility.yul\":6802:6851   */\n      swap2\n      pop\n        /* \"#utility.yul\":6876:6878   */\n      dup1\n        /* \"#utility.yul\":6866:6874   */\n      dup3\n        /* \"#utility.yul\":6863:6879   */\n      gt\n        /* \"#utility.yul\":6860:6896   */\n      iszero\n      tag_474\n      jumpi\n        /* \"#utility.yul\":6892:6893   */\n      0x00\n        /* \"#utility.yul\":6889:6890   */\n      dup1\n        /* \"#utility.yul\":6882:6894   */\n      revert\n        /* \"#utility.yul\":6860:6896   */\n    tag_474:\n        /* \"#utility.yul\":6929:6977   */\n      tag_475\n        /* \"#utility.yul\":6973:6976   */\n      dup6\n        /* \"#utility.yul\":6962:6970   */\n      dup4\n        /* \"#utility.yul\":6951:6960   */\n      dup7\n        /* \"#utility.yul\":6947:6971   */\n      add\n        /* \"#utility.yul\":6929:6977   */\n      tag_400\n      jump\t// in\n    tag_475:\n        /* \"#utility.yul\":6923:6926   */\n      0xc0\n        /* \"#utility.yul\":6916:6921   */\n      dup5\n        /* \"#utility.yul\":6912:6927   */\n      add\n        /* \"#utility.yul\":6905:6978   */\n      mstore\n        /* \"#utility.yul\":7011:7058   */\n      tag_476\n        /* \"#utility.yul\":7053:7056   */\n      0xe0\n        /* \"#utility.yul\":7042:7051   */\n      dup6\n        /* \"#utility.yul\":7038:7057   */\n      add\n        /* \"#utility.yul\":7011:7058   */\n      tag_401\n      jump\t// in\n    tag_476:\n        /* \"#utility.yul\":7005:7008   */\n      0xe0\n        /* \"#utility.yul\":6998:7003   */\n      dup5\n        /* \"#utility.yul\":6994:7009   */\n      add\n        /* \"#utility.yul\":6987:7059   */\n      mstore\n        /* \"#utility.yul\":7078:7081   */\n      0x0100\n        /* \"#utility.yul\":7068:7081   */\n      swap2\n      pop\n        /* \"#utility.yul\":7134:7136   */\n      dup2\n        /* \"#utility.yul\":7123:7132   */\n      dup5\n        /* \"#utility.yul\":7119:7137   */\n      add\n        /* \"#utility.yul\":7106:7138   */\n      calldataload\n        /* \"#utility.yul\":7163:7165   */\n      dup2\n        /* \"#utility.yul\":7153:7161   */\n      dup2\n        /* \"#utility.yul\":7150:7166   */\n      gt\n        /* \"#utility.yul\":7147:7183   */\n      iszero\n      tag_477\n      jumpi\n        /* \"#utility.yul\":7179:7180   */\n      0x00\n        /* \"#utility.yul\":7176:7177   */\n      dup1\n        /* \"#utility.yul\":7169:7181   */\n      revert\n        /* \"#utility.yul\":7147:7183   */\n    tag_477:\n        /* \"#utility.yul\":7215:7263   */\n      tag_478\n        /* \"#utility.yul\":7259:7262   */\n      dup7\n        /* \"#utility.yul\":7248:7256   */\n      dup3\n        /* \"#utility.yul\":7237:7246   */\n      dup8\n        /* \"#utility.yul\":7233:7257   */\n      add\n        /* \"#utility.yul\":7215:7263   */\n      tag_400\n      jump\t// in\n    tag_478:\n        /* \"#utility.yul\":7210:7212   */\n      dup4\n        /* \"#utility.yul\":7203:7208   */\n      dup6\n        /* \"#utility.yul\":7199:7213   */\n      add\n        /* \"#utility.yul\":7192:7264   */\n      mstore\n      pop\n        /* \"#utility.yul\":7283:7286   */\n      0x0120\n        /* \"#utility.yul\":7273:7286   */\n      swap2\n      pop\n        /* \"#utility.yul\":7339:7341   */\n      dup2\n        /* \"#utility.yul\":7328:7337   */\n      dup5\n        /* \"#utility.yul\":7324:7342   */\n      add\n        /* \"#utility.yul\":7311:7343   */\n      calldataload\n        /* \"#utility.yul\":7368:7370   */\n      dup2\n        /* \"#utility.yul\":7358:7366   */\n      dup2\n        /* \"#utility.yul\":7355:7371   */\n      gt\n        /* \"#utility.yul\":7352:7388   */\n      iszero\n      tag_479\n      jumpi\n        /* \"#utility.yul\":7384:7385   */\n      0x00\n        /* \"#utility.yul\":7381:7382   */\n      dup1\n        /* \"#utility.yul\":7374:7386   */\n      revert\n        /* \"#utility.yul\":7352:7388   */\n    tag_479:\n        /* \"#utility.yul\":7420:7468   */\n      tag_480\n        /* \"#utility.yul\":7464:7467   */\n      dup7\n        /* \"#utility.yul\":7453:7461   */\n      dup3\n        /* \"#utility.yul\":7442:7451   */\n      dup8\n        /* \"#utility.yul\":7438:7462   */\n      add\n        /* \"#utility.yul\":7420:7468   */\n      tag_400\n      jump\t// in\n    tag_480:\n        /* \"#utility.yul\":7415:7417   */\n      dup4\n        /* \"#utility.yul\":7408:7413   */\n      dup6\n        /* \"#utility.yul\":7404:7418   */\n      add\n        /* \"#utility.yul\":7397:7469   */\n      mstore\n      pop\n      pop\n      pop\n        /* \"#utility.yul\":6084:7475   */\n      swap3\n      swap2\n      pop\n      pop\n      jump\t// out\n        /* \"#utility.yul\":7480:8633   */\n    tag_39:\n        /* \"#utility.yul\":7585:7591   */\n      0x00\n        /* \"#utility.yul\":7616:7618   */\n      0x20\n        /* \"#utility.yul\":7659:7661   */\n      dup1\n        /* \"#utility.yul\":7647:7656   */\n      dup4\n        /* \"#utility.yul\":7638:7645   */\n      dup6\n        /* \"#utility.yul\":7634:7657   */\n      sub\n        /* \"#utility.yul\":7630:7662   */\n      slt\n        /* \"#utility.yul\":7627:7679   */\n      iszero\n      tag_482\n      jumpi\n        /* \"#utility.yul\":7675:7676   */\n      0x00\n        /* \"#utility.yul\":7672:7673   */\n      dup1\n        /* \"#utility.yul\":7665:7677   */\n      revert\n        /* \"#utility.yul\":7627:7679   */\n    tag_482:\n        /* \"#utility.yul\":7702:7725   */\n      dup3\n      calldataload\n      sub(shl(0x40, 0x01), 0x01)\n        /* \"#utility.yul\":7774:7788   */\n      dup1\n      dup3\n      gt\n        /* \"#utility.yul\":7771:7805   */\n      iszero\n      tag_483\n      jumpi\n        /* \"#utility.yul\":7801:7802   */\n      0x00\n        /* \"#utility.yul\":7798:7799   */\n      dup1\n        /* \"#utility.yul\":7791:7803   */\n      revert\n        /* \"#utility.yul\":7771:7805   */\n    tag_483:\n        /* \"#utility.yul\":7839:7845   */\n      dup2\n        /* \"#utility.yul\":7828:7837   */\n      dup6\n        /* \"#utility.yul\":7824:7846   */\n      add\n        /* \"#utility.yul\":7814:7846   */\n      swap2\n      pop\n        /* \"#utility.yul\":7884:7891   */\n      dup6\n        /* \"#utility.yul\":7877:7881   */\n      0x1f\n        /* \"#utility.yul\":7873:7875   */\n      dup4\n        /* \"#utility.yul\":7869:7882   */\n      add\n        /* \"#utility.yul\":7865:7892   */\n      slt\n        /* \"#utility.yul\":7855:7910   */\n      tag_484\n      jumpi\n        /* \"#utility.yul\":7906:7907   */\n      0x00\n        /* \"#utility.yul\":7903:7904   */\n      dup1\n        /* \"#utility.yul\":7896:7908   */\n      revert\n        /* \"#utility.yul\":7855:7910   */\n    tag_484:\n        /* \"#utility.yul\":7942:7944   */\n      dup2\n        /* \"#utility.yul\":7929:7945   */\n      calldataload\n        /* \"#utility.yul\":7965:8029   */\n      tag_485\n        /* \"#utility.yul\":7981:8028   */\n      tag_486\n        /* \"#utility.yul\":8025:8027   */\n      dup3\n        /* \"#utility.yul\":7981:8028   */\n      tag_397\n      jump\t// in\n    tag_486:\n        /* \"#utility.yul\":7965:8029   */\n      tag_395\n      jump\t// in\n    tag_485:\n        /* \"#utility.yul\":8063:8078   */\n      dup2\n      dup2\n      mstore\n        /* \"#utility.yul\":8145:8146   */\n      0x05\n        /* \"#utility.yul\":8141:8151   */\n      swap2\n      swap1\n      swap2\n      shl\n        /* \"#utility.yul\":8133:8152   */\n      dup4\n      add\n        /* \"#utility.yul\":8129:8157   */\n      dup5\n      add\n      swap1\n        /* \"#utility.yul\":8094:8106   */\n      dup5\n      dup2\n      add\n      swap1\n        /* \"#utility.yul\":8169:8188   */\n      dup9\n      dup4\n      gt\n        /* \"#utility.yul\":8166:8205   */\n      iszero\n      tag_487\n      jumpi\n        /* \"#utility.yul\":8201:8202   */\n      0x00\n        /* \"#utility.yul\":8198:8199   */\n      dup1\n        /* \"#utility.yul\":8191:8203   */\n      revert\n        /* \"#utility.yul\":8166:8205   */\n    tag_487:\n        /* \"#utility.yul\":8233:8235   */\n      dup6\n        /* \"#utility.yul\":8229:8231   */\n      dup6\n        /* \"#utility.yul\":8225:8236   */\n      add\n        /* \"#utility.yul\":8245:8603   */\n    tag_488:\n        /* \"#utility.yul\":8261:8267   */\n      dup4\n        /* \"#utility.yul\":8256:8259   */\n      dup2\n        /* \"#utility.yul\":8253:8268   */\n      lt\n        /* \"#utility.yul\":8245:8603   */\n      iszero\n      tag_490\n      jumpi\n        /* \"#utility.yul\":8347:8350   */\n      dup1\n        /* \"#utility.yul\":8334:8351   */\n      calldataload\n        /* \"#utility.yul\":8383:8385   */\n      dup6\n        /* \"#utility.yul\":8370:8381   */\n      dup2\n        /* \"#utility.yul\":8367:8386   */\n      gt\n        /* \"#utility.yul\":8364:8473   */\n      iszero\n      tag_491\n      jumpi\n        /* \"#utility.yul\":8427:8428   */\n      0x00\n        /* \"#utility.yul\":8456:8458   */\n      dup1\n        /* \"#utility.yul\":8452:8454   */\n      dup2\n        /* \"#utility.yul\":8445:8459   */\n      revert\n        /* \"#utility.yul\":8364:8473   */\n    tag_491:\n        /* \"#utility.yul\":8498:8560   */\n      tag_492\n        /* \"#utility.yul\":8552:8559   */\n      dup12\n        /* \"#utility.yul\":8547:8549   */\n      dup10\n        /* \"#utility.yul\":8533:8544   */\n      dup4\n        /* \"#utility.yul\":8529:8531   */\n      dup11\n        /* \"#utility.yul\":8525:8545   */\n      add\n        /* \"#utility.yul\":8521:8550   */\n      add\n        /* \"#utility.yul\":8498:8560   */\n      tag_402\n      jump\t// in\n    tag_492:\n        /* \"#utility.yul\":8486:8561   */\n      dup5\n      mstore\n      pop\n        /* \"#utility.yul\":8581:8593   */\n      swap2\n      dup7\n      add\n      swap2\n        /* \"#utility.yul\":8278:8290   */\n      dup7\n      add\n        /* \"#utility.yul\":8245:8603   */\n      jump(tag_488)\n    tag_490:\n      pop\n        /* \"#utility.yul\":8622:8627   */\n      swap9\n        /* \"#utility.yul\":7480:8633   */\n      swap8\n      pop\n      pop\n      pop\n      pop\n      pop\n      pop\n      pop\n      pop\n      jump\t// out\n        /* \"#utility.yul\":8638:9270   */\n    tag_42:\n        /* \"#utility.yul\":8809:8811   */\n      0x20\n        /* \"#utility.yul\":8861:8882   */\n      dup1\n      dup3\n      mstore\n        /* \"#utility.yul\":8931:8944   */\n      dup3\n      mload\n        /* \"#utility.yul\":8834:8852   */\n      dup3\n      dup3\n      add\n        /* \"#utility.yul\":8953:8975   */\n      dup2\n      swap1\n      mstore\n        /* \"#utility.yul\":8780:8784   */\n      0x00\n      swap2\n        /* \"#utility.yul\":8809:8811   */\n      swap1\n        /* \"#utility.yul\":9032:9047   */\n      dup5\n      dup3\n      add\n      swap1\n        /* \"#utility.yul\":9006:9008   */\n      0x40\n        /* \"#utility.yul\":8991:9009   */\n      dup6\n      add\n      swap1\n        /* \"#utility.yul\":8780:8784   */\n      dup5\n        /* \"#utility.yul\":9075:9244   */\n    tag_494:\n        /* \"#utility.yul\":9089:9095   */\n      dup2\n        /* \"#utility.yul\":9086:9087   */\n      dup2\n        /* \"#utility.yul\":9083:9096   */\n      lt\n        /* \"#utility.yul\":9075:9244   */\n      iszero\n      tag_496\n      jumpi\n        /* \"#utility.yul\":9150:9163   */\n      dup4\n      mload\n        /* \"#utility.yul\":9138:9164   */\n      dup4\n      mstore\n        /* \"#utility.yul\":9219:9234   */\n      swap3\n      dup5\n      add\n      swap3\n        /* \"#utility.yul\":9184:9196   */\n      swap2\n      dup5\n      add\n      swap2\n        /* \"#utility.yul\":9111:9112   */\n      0x01\n        /* \"#utility.yul\":9104:9113   */\n      add\n        /* \"#utility.yul\":9075:9244   */\n      jump(tag_494)\n    tag_496:\n      pop\n        /* \"#utility.yul\":9261:9264   */\n      swap1\n      swap7\n        /* \"#utility.yul\":8638:9270   */\n      swap6\n      pop\n      pop\n      pop\n      pop\n      pop\n      pop\n      jump\t// out\n        /* \"#utility.yul\":9483:9735   */\n    tag_49:\n        /* \"#utility.yul\":9550:9556   */\n      0x00\n        /* \"#utility.yul\":9558:9564   */\n      dup1\n        /* \"#utility.yul\":9611:9613   */\n      0x40\n        /* \"#utility.yul\":9599:9608   */\n      dup4\n        /* \"#utility.yul\":9590:9597   */\n      dup6\n        /* \"#utility.yul\":9586:9609   */\n      sub\n        /* \"#utility.yul\":9582:9614   */\n      slt\n        /* \"#utility.yul\":9579:9631   */\n      iszero\n      tag_499\n      jumpi\n        /* \"#utility.yul\":9627:9628   */\n      0x00\n        /* \"#utility.yul\":9624:9625   */\n      dup1\n        /* \"#utility.yul\":9617:9629   */\n      revert\n        /* \"#utility.yul\":9579:9631   */\n    tag_499:\n        /* \"#utility.yul\":9663:9672   */\n      dup3\n        /* \"#utility.yul\":9650:9673   */\n      calldataload\n        /* \"#utility.yul\":9640:9673   */\n      swap2\n      pop\n        /* \"#utility.yul\":9692:9729   */\n      tag_500\n        /* \"#utility.yul\":9725:9727   */\n      0x20\n        /* \"#utility.yul\":9714:9723   */\n      dup5\n        /* \"#utility.yul\":9710:9728   */\n      add\n        /* \"#utility.yul\":9692:9729   */\n      tag_399\n      jump\t// in\n    tag_500:\n        /* \"#utility.yul\":9682:9729   */\n      swap1\n      pop\n        /* \"#utility.yul\":9483:9735   */\n      swap3\n      pop\n      swap3\n      swap1\n      pop\n      jump\t// out\n        /* \"#utility.yul\":9740:9926   */\n    tag_56:\n        /* \"#utility.yul\":9799:9805   */\n      0x00\n        /* \"#utility.yul\":9852:9854   */\n      0x20\n        /* \"#utility.yul\":9840:9849   */\n      dup3\n        /* \"#utility.yul\":9831:9838   */\n      dup5\n        /* \"#utility.yul\":9827:9850   */\n      sub\n        /* \"#utility.yul\":9823:9855   */\n      slt\n        /* \"#utility.yul\":9820:9872   */\n      iszero\n      tag_502\n      jumpi\n        /* \"#utility.yul\":9868:9869   */\n      0x00\n        /* \"#utility.yul\":9865:9866   */\n      dup1\n        /* \"#utility.yul\":9858:9870   */\n      revert\n        /* \"#utility.yul\":9820:9872   */\n    tag_502:\n        /* \"#utility.yul\":9891:9920   */\n      tag_337\n        /* \"#utility.yul\":9910:9919   */\n      dup3\n        /* \"#utility.yul\":9891:9920   */\n      tag_398\n      jump\t// in\n        /* \"#utility.yul\":9931:10333   */\n    tag_62:\n        /* \"#utility.yul\":10188:10191   */\n      0x80\n        /* \"#utility.yul\":10177:10186   */\n      dup2\n        /* \"#utility.yul\":10170:10192   */\n      mstore\n        /* \"#utility.yul\":10151:10155   */\n      0x00\n        /* \"#utility.yul\":10209:10260   */\n      tag_505\n        /* \"#utility.yul\":10255:10258   */\n      0x80\n        /* \"#utility.yul\":10244:10253   */\n      dup4\n        /* \"#utility.yul\":10240:10259   */\n      add\n        /* \"#utility.yul\":10232:10238   */\n      dup6\n        /* \"#utility.yul\":10209:10260   */\n      tag_393\n      jump\t// in\n    tag_505:\n        /* \"#utility.yul\":10201:10260   */\n      swap1\n      pop\n        /* \"#utility.yul\":10269:10327   */\n      tag_337\n        /* \"#utility.yul\":10323:10325   */\n      0x20\n        /* \"#utility.yul\":10312:10321   */\n      dup4\n        /* \"#utility.yul\":10308:10326   */\n      add\n        /* \"#utility.yul\":10300:10306   */\n      dup5\n        /* \"#utility.yul\":10269:10327   */\n      tag_388\n      jump\t// in\n        /* \"#utility.yul\":10338:10676   */\n    tag_65:\n        /* \"#utility.yul\":10418:10424   */\n      0x00\n        /* \"#utility.yul\":10471:10473   */\n      0x20\n        /* \"#utility.yul\":10459:10468   */\n      dup3\n        /* \"#utility.yul\":10450:10457   */\n      dup5\n        /* \"#utility.yul\":10446:10469   */\n      sub\n        /* \"#utility.yul\":10442:10474   */\n      slt\n        /* \"#utility.yul\":10439:10491   */\n      iszero\n      tag_508\n      jumpi\n        /* \"#utility.yul\":10487:10488   */\n      0x00\n        /* \"#utility.yul\":10484:10485   */\n      dup1\n        /* \"#utility.yul\":10477:10489   */\n      revert\n        /* \"#utility.yul\":10439:10491   */\n    tag_508:\n        /* \"#utility.yul\":10514:10537   */\n      dup2\n      calldataload\n      sub(shl(0x40, 0x01), 0x01)\n        /* \"#utility.yul\":10549:10579   */\n      dup2\n      gt\n        /* \"#utility.yul\":10546:10596   */\n      iszero\n      tag_509\n      jumpi\n        /* \"#utility.yul\":10592:10593   */\n      0x00\n        /* \"#utility.yul\":10589:10590   */\n      dup1\n        /* \"#utility.yul\":10582:10594   */\n      revert\n        /* \"#utility.yul\":10546:10596   */\n    tag_509:\n        /* \"#utility.yul\":10615:10670   */\n      tag_510\n        /* \"#utility.yul\":10662:10669   */\n      dup5\n        /* \"#utility.yul\":10653:10659   */\n      dup3\n        /* \"#utility.yul\":10642:10651   */\n      dup6\n        /* \"#utility.yul\":10638:10660   */\n      add\n        /* \"#utility.yul\":10615:10670   */\n      tag_402\n      jump\t// in\n    tag_510:\n        /* \"#utility.yul\":10605:10670   */\n      swap5\n        /* \"#utility.yul\":10338:10676   */\n      swap4\n      pop\n      pop\n      pop\n      pop\n      jump\t// out\n        /* \"#utility.yul\":10863:11758   */\n    tag_74:\n        /* \"#utility.yul\":10947:10953   */\n      0x00\n        /* \"#utility.yul\":10978:10980   */\n      0x20\n        /* \"#utility.yul\":11021:11023   */\n      dup1\n        /* \"#utility.yul\":11009:11018   */\n      dup4\n        /* \"#utility.yul\":11000:11007   */\n      dup6\n        /* \"#utility.yul\":10996:11019   */\n      sub\n        /* \"#utility.yul\":10992:11024   */\n      slt\n        /* \"#utility.yul\":10989:11041   */\n      iszero\n      tag_513\n      jumpi\n        /* \"#utility.yul\":11037:11038   */\n      0x00\n        /* \"#utility.yul\":11034:11035   */\n      dup1\n        /* \"#utility.yul\":11027:11039   */\n      revert\n        /* \"#utility.yul\":10989:11041   */\n    tag_513:\n        /* \"#utility.yul\":11064:11087   */\n      dup3\n      calldataload\n      sub(shl(0x40, 0x01), 0x01)\n        /* \"#utility.yul\":11099:11129   */\n      dup2\n      gt\n        /* \"#utility.yul\":11096:11146   */\n      iszero\n      tag_514\n      jumpi\n        /* \"#utility.yul\":11142:11143   */\n      0x00\n        /* \"#utility.yul\":11139:11140   */\n      dup1\n        /* \"#utility.yul\":11132:11144   */\n      revert\n        /* \"#utility.yul\":11096:11146   */\n    tag_514:\n        /* \"#utility.yul\":11165:11187   */\n      dup4\n      add\n        /* \"#utility.yul\":11218:11222   */\n      0x1f\n        /* \"#utility.yul\":11210:11223   */\n      dup2\n      add\n        /* \"#utility.yul\":11206:11233   */\n      dup6\n      sgt\n        /* \"#utility.yul\":11196:11251   */\n      tag_515\n      jumpi\n        /* \"#utility.yul\":11247:11248   */\n      0x00\n        /* \"#utility.yul\":11244:11245   */\n      dup1\n        /* \"#utility.yul\":11237:11249   */\n      revert\n        /* \"#utility.yul\":11196:11251   */\n    tag_515:\n        /* \"#utility.yul\":11283:11285   */\n      dup1\n        /* \"#utility.yul\":11270:11286   */\n      calldataload\n        /* \"#utility.yul\":11306:11370   */\n      tag_516\n        /* \"#utility.yul\":11322:11369   */\n      tag_486\n        /* \"#utility.yul\":11366:11368   */\n      dup3\n        /* \"#utility.yul\":11322:11369   */\n      tag_397\n      jump\t// in\n        /* \"#utility.yul\":11306:11370   */\n    tag_516:\n        /* \"#utility.yul\":11404:11419   */\n      dup2\n      dup2\n      mstore\n        /* \"#utility.yul\":11486:11487   */\n      0x05\n        /* \"#utility.yul\":11482:11492   */\n      swap2\n      swap1\n      swap2\n      shl\n        /* \"#utility.yul\":11474:11493   */\n      dup3\n      add\n        /* \"#utility.yul\":11470:11498   */\n      dup4\n      add\n      swap1\n        /* \"#utility.yul\":11435:11447   */\n      dup4\n      dup2\n      add\n      swap1\n        /* \"#utility.yul\":11510:11529   */\n      dup8\n      dup4\n      gt\n        /* \"#utility.yul\":11507:11546   */\n      iszero\n      tag_518\n      jumpi\n        /* \"#utility.yul\":11542:11543   */\n      0x00\n        /* \"#utility.yul\":11539:11540   */\n      dup1\n        /* \"#utility.yul\":11532:11544   */\n      revert\n        /* \"#utility.yul\":11507:11546   */\n    tag_518:\n        /* \"#utility.yul\":11566:11577   */\n      swap3\n      dup5\n      add\n      swap3\n        /* \"#utility.yul\":11586:11728   */\n    tag_519:\n        /* \"#utility.yul\":11602:11608   */\n      dup3\n        /* \"#utility.yul\":11597:11600   */\n      dup5\n        /* \"#utility.yul\":11594:11609   */\n      lt\n        /* \"#utility.yul\":11586:11728   */\n      iszero\n      tag_521\n      jumpi\n        /* \"#utility.yul\":11668:11685   */\n      dup4\n      calldataload\n        /* \"#utility.yul\":11656:11686   */\n      dup3\n      mstore\n        /* \"#utility.yul\":11619:11631   */\n      swap3\n      dup5\n      add\n      swap3\n        /* \"#utility.yul\":11706:11718   */\n      swap1\n      dup5\n      add\n      swap1\n        /* \"#utility.yul\":11586:11728   */\n      jump(tag_519)\n    tag_521:\n        /* \"#utility.yul\":11747:11752   */\n      swap8\n        /* \"#utility.yul\":10863:11758   */\n      swap7\n      pop\n      pop\n      pop\n      pop\n      pop\n      pop\n      pop\n      jump\t// out\n        /* \"#utility.yul\":11763:12593   */\n    tag_77:\n        /* \"#utility.yul\":11947:11951   */\n      0x00\n        /* \"#utility.yul\":11976:11978   */\n      0x20\n        /* \"#utility.yul\":12016:12018   */\n      dup1\n        /* \"#utility.yul\":12005:12014   */\n      dup4\n        /* \"#utility.yul\":12001:12019   */\n      add\n        /* \"#utility.yul\":12046:12048   */\n      dup2\n        /* \"#utility.yul\":12035:12044   */\n      dup5\n        /* \"#utility.yul\":12028:12049   */\n      mstore\n        /* \"#utility.yul\":12069:12075   */\n      dup1\n        /* \"#utility.yul\":12104:12110   */\n      dup6\n        /* \"#utility.yul\":12098:12111   */\n      mload\n        /* \"#utility.yul\":12135:12141   */\n      dup1\n        /* \"#utility.yul\":12127:12133   */\n      dup4\n        /* \"#utility.yul\":12120:12142   */\n      mstore\n        /* \"#utility.yul\":12173:12175   */\n      0x40\n        /* \"#utility.yul\":12162:12171   */\n      dup7\n        /* \"#utility.yul\":12158:12176   */\n      add\n        /* \"#utility.yul\":12151:12176   */\n      swap2\n      pop\n        /* \"#utility.yul\":12235:12237   */\n      0x40\n        /* \"#utility.yul\":12225:12231   */\n      dup2\n        /* \"#utility.yul\":12222:12223   */\n      0x05\n        /* \"#utility.yul\":12218:12232   */\n      shl\n        /* \"#utility.yul\":12207:12216   */\n      dup8\n        /* \"#utility.yul\":12203:12233   */\n      add\n        /* \"#utility.yul\":12199:12238   */\n      add\n        /* \"#utility.yul\":12185:12238   */\n      swap3\n      pop\n        /* \"#utility.yul\":12273:12275   */\n      dup4\n        /* \"#utility.yul\":12265:12271   */\n      dup8\n        /* \"#utility.yul\":12261:12276   */\n      add\n        /* \"#utility.yul\":12294:12295   */\n      0x00\n        /* \"#utility.yul\":12304:12564   */\n    tag_523:\n        /* \"#utility.yul\":12318:12324   */\n      dup3\n        /* \"#utility.yul\":12315:12316   */\n      dup2\n        /* \"#utility.yul\":12312:12325   */\n      lt\n        /* \"#utility.yul\":12304:12564   */\n      iszero\n      tag_525\n      jumpi\n        /* \"#utility.yul\":12411:12413   */\n      0x3f\n        /* \"#utility.yul\":12407:12414   */\n      not\n        /* \"#utility.yul\":12395:12404   */\n      dup9\n        /* \"#utility.yul\":12387:12393   */\n      dup7\n        /* \"#utility.yul\":12383:12405   */\n      sub\n        /* \"#utility.yul\":12379:12415   */\n      add\n        /* \"#utility.yul\":12374:12377   */\n      dup5\n        /* \"#utility.yul\":12367:12416   */\n      mstore\n        /* \"#utility.yul\":12439:12484   */\n      tag_526\n        /* \"#utility.yul\":12477:12483   */\n      dup6\n        /* \"#utility.yul\":12468:12474   */\n      dup4\n        /* \"#utility.yul\":12462:12475   */\n      mload\n        /* \"#utility.yul\":12439:12484   */\n      tag_393\n      jump\t// in\n    tag_526:\n        /* \"#utility.yul\":12429:12484   */\n      swap5\n      pop\n        /* \"#utility.yul\":12542:12554   */\n      swap3\n      dup6\n      add\n      swap3\n        /* \"#utility.yul\":12507:12522   */\n      swap1\n      dup6\n      add\n      swap1\n        /* \"#utility.yul\":12340:12341   */\n      0x01\n        /* \"#utility.yul\":12333:12342   */\n      add\n        /* \"#utility.yul\":12304:12564   */\n      jump(tag_523)\n    tag_525:\n      pop\n        /* \"#utility.yul\":12581:12587   */\n      swap3\n      swap8\n        /* \"#utility.yul\":11763:12593   */\n      swap7\n      pop\n      pop\n      pop\n      pop\n      pop\n      pop\n      pop\n      jump\t// out\n        /* \"#utility.yul\":12598:12920   */\n    tag_80:\n        /* \"#utility.yul\":12667:12673   */\n      0x00\n        /* \"#utility.yul\":12720:12722   */\n      0x20\n        /* \"#utility.yul\":12708:12717   */\n      dup3\n        /* \"#utility.yul\":12699:12706   */\n      dup5\n        /* \"#utility.yul\":12695:12718   */\n      sub\n        /* \"#utility.yul\":12691:12723   */\n      slt\n        /* \"#utility.yul\":12688:12740   */\n      iszero\n      tag_528\n      jumpi\n        /* \"#utility.yul\":12736:12737   */\n      0x00\n        /* \"#utility.yul\":12733:12734   */\n      dup1\n        /* \"#utility.yul\":12726:12738   */\n      revert\n        /* \"#utility.yul\":12688:12740   */\n    tag_528:\n        /* \"#utility.yul\":12763:12786   */\n      dup2\n      calldataload\n      sub(shl(0x40, 0x01), 0x01)\n        /* \"#utility.yul\":12798:12828   */\n      dup2\n      gt\n        /* \"#utility.yul\":12795:12845   */\n      iszero\n      tag_529\n      jumpi\n        /* \"#utility.yul\":12841:12842   */\n      0x00\n        /* \"#utility.yul\":12838:12839   */\n      dup1\n        /* \"#utility.yul\":12831:12843   */\n      revert\n        /* \"#utility.yul\":12795:12845   */\n    tag_529:\n        /* \"#utility.yul\":12864:12914   */\n      tag_510\n        /* \"#utility.yul\":12906:12913   */\n      dup5\n        /* \"#utility.yul\":12897:12903   */\n      dup3\n        /* \"#utility.yul\":12886:12895   */\n      dup6\n        /* \"#utility.yul\":12882:12904   */\n      add\n        /* \"#utility.yul\":12864:12914   */\n      tag_400\n      jump\t// in\n        /* \"#utility.yul\":12925:14062   */\n    tag_85:\n        /* \"#utility.yul\":13019:13025   */\n      0x00\n        /* \"#utility.yul\":13050:13052   */\n      0x20\n        /* \"#utility.yul\":13093:13095   */\n      dup1\n        /* \"#utility.yul\":13081:13090   */\n      dup4\n        /* \"#utility.yul\":13072:13079   */\n      dup6\n        /* \"#utility.yul\":13068:13091   */\n      sub\n        /* \"#utility.yul\":13064:13096   */\n      slt\n        /* \"#utility.yul\":13061:13113   */\n      iszero\n      tag_532\n      jumpi\n        /* \"#utility.yul\":13109:13110   */\n      0x00\n        /* \"#utility.yul\":13106:13107   */\n      dup1\n        /* \"#utility.yul\":13099:13111   */\n      revert\n        /* \"#utility.yul\":13061:13113   */\n    tag_532:\n        /* \"#utility.yul\":13136:13159   */\n      dup3\n      calldataload\n      sub(shl(0x40, 0x01), 0x01)\n        /* \"#utility.yul\":13208:13222   */\n      dup1\n      dup3\n      gt\n        /* \"#utility.yul\":13205:13239   */\n      iszero\n      tag_533\n      jumpi\n        /* \"#utility.yul\":13235:13236   */\n      0x00\n        /* \"#utility.yul\":13232:13233   */\n      dup1\n        /* \"#utility.yul\":13225:13237   */\n      revert\n        /* \"#utility.yul\":13205:13239   */\n    tag_533:\n        /* \"#utility.yul\":13273:13279   */\n      dup2\n        /* \"#utility.yul\":13262:13271   */\n      dup6\n        /* \"#utility.yul\":13258:13280   */\n      add\n        /* \"#utility.yul\":13248:13280   */\n      swap2\n      pop\n        /* \"#utility.yul\":13318:13325   */\n      dup6\n        /* \"#utility.yul\":13311:13315   */\n      0x1f\n        /* \"#utility.yul\":13307:13309   */\n      dup4\n        /* \"#utility.yul\":13303:13316   */\n      add\n        /* \"#utility.yul\":13299:13326   */\n      slt\n        /* \"#utility.yul\":13289:13344   */\n      tag_534\n      jumpi\n        /* \"#utility.yul\":13340:13341   */\n      0x00\n        /* \"#utility.yul\":13337:13338   */\n      dup1\n        /* \"#utility.yul\":13330:13342   */\n      revert\n        /* \"#utility.yul\":13289:13344   */\n    tag_534:\n        /* \"#utility.yul\":13376:13378   */\n      dup2\n        /* \"#utility.yul\":13363:13379   */\n      calldataload\n        /* \"#utility.yul\":13399:13463   */\n      tag_535\n        /* \"#utility.yul\":13415:13462   */\n      tag_486\n        /* \"#utility.yul\":13459:13461   */\n      dup3\n        /* \"#utility.yul\":13415:13462   */\n      tag_397\n      jump\t// in\n        /* \"#utility.yul\":13399:13463   */\n    tag_535:\n        /* \"#utility.yul\":13497:13512   */\n      dup2\n      dup2\n      mstore\n        /* \"#utility.yul\":13579:13580   */\n      0x05\n        /* \"#utility.yul\":13575:13585   */\n      swap2\n      swap1\n      swap2\n      shl\n        /* \"#utility.yul\":13567:13586   */\n      dup4\n      add\n        /* \"#utility.yul\":13563:13591   */\n      dup5\n      add\n      swap1\n        /* \"#utility.yul\":13528:13540   */\n      dup5\n      dup2\n      add\n      swap1\n        /* \"#utility.yul\":13603:13622   */\n      dup9\n      dup4\n      gt\n        /* \"#utility.yul\":13600:13639   */\n      iszero\n      tag_537\n      jumpi\n        /* \"#utility.yul\":13635:13636   */\n      0x00\n        /* \"#utility.yul\":13632:13633   */\n      dup1\n        /* \"#utility.yul\":13625:13637   */\n      revert\n        /* \"#utility.yul\":13600:13639   */\n    tag_537:\n        /* \"#utility.yul\":13667:13669   */\n      dup6\n        /* \"#utility.yul\":13663:13665   */\n      dup6\n        /* \"#utility.yul\":13659:13670   */\n      add\n        /* \"#utility.yul\":13679:14032   */\n    tag_538:\n        /* \"#utility.yul\":13695:13701   */\n      dup4\n        /* \"#utility.yul\":13690:13693   */\n      dup2\n        /* \"#utility.yul\":13687:13702   */\n      lt\n        /* \"#utility.yul\":13679:14032   */\n      iszero\n      tag_490\n      jumpi\n        /* \"#utility.yul\":13781:13784   */\n      dup1\n        /* \"#utility.yul\":13768:13785   */\n      calldataload\n        /* \"#utility.yul\":13817:13819   */\n      dup6\n        /* \"#utility.yul\":13804:13815   */\n      dup2\n        /* \"#utility.yul\":13801:13820   */\n      gt\n        /* \"#utility.yul\":13798:13907   */\n      iszero\n      tag_541\n      jumpi\n        /* \"#utility.yul\":13861:13862   */\n      0x00\n        /* \"#utility.yul\":13890:13892   */\n      dup1\n        /* \"#utility.yul\":13886:13888   */\n      dup2\n        /* \"#utility.yul\":13879:13893   */\n      revert\n        /* \"#utility.yul\":13798:13907   */\n    tag_541:\n        /* \"#utility.yul\":13932:13989   */\n      tag_542\n        /* \"#utility.yul\":13981:13988   */\n      dup12\n        /* \"#utility.yul\":13976:13978   */\n      dup10\n        /* \"#utility.yul\":13962:13973   */\n      dup4\n        /* \"#utility.yul\":13958:13960   */\n      dup11\n        /* \"#utility.yul\":13954:13974   */\n      add\n        /* \"#utility.yul\":13950:13979   */\n      add\n        /* \"#utility.yul\":13932:13989   */\n      tag_400\n      jump\t// in\n    tag_542:\n        /* \"#utility.yul\":13920:13990   */\n      dup5\n      mstore\n      pop\n        /* \"#utility.yul\":14010:14022   */\n      swap2\n      dup7\n      add\n      swap2\n        /* \"#utility.yul\":13712:13724   */\n      dup7\n      add\n        /* \"#utility.yul\":13679:14032   */\n      jump(tag_538)\n        /* \"#utility.yul\":14067:14383   */\n    tag_90:\n        /* \"#utility.yul\":14144:14150   */\n      0x00\n        /* \"#utility.yul\":14152:14158   */\n      dup1\n        /* \"#utility.yul\":14160:14166   */\n      0x00\n        /* \"#utility.yul\":14213:14215   */\n      0x60\n        /* \"#utility.yul\":14201:14210   */\n      dup5\n        /* \"#utility.yul\":14192:14199   */\n      dup7\n        /* \"#utility.yul\":14188:14211   */\n      sub\n        /* \"#utility.yul\":14184:14216   */\n      slt\n        /* \"#utility.yul\":14181:14233   */\n      iszero\n      tag_544\n      jumpi\n        /* \"#utility.yul\":14229:14230   */\n      0x00\n        /* \"#utility.yul\":14226:14227   */\n      dup1\n        /* \"#utility.yul\":14219:14231   */\n      revert\n        /* \"#utility.yul\":14181:14233   */\n    tag_544:\n      pop\n      pop\n        /* \"#utility.yul\":14252:14275   */\n      dup2\n      calldataload\n      swap4\n        /* \"#utility.yul\":14322:14324   */\n      0x20\n        /* \"#utility.yul\":14307:14325   */\n      dup4\n      add\n        /* \"#utility.yul\":14294:14326   */\n      calldataload\n      swap4\n      pop\n        /* \"#utility.yul\":14373:14375   */\n      0x40\n        /* \"#utility.yul\":14358:14376   */\n      swap1\n      swap3\n      add\n        /* \"#utility.yul\":14345:14377   */\n      calldataload\n      swap2\n        /* \"#utility.yul\":14067:14383   */\n      swap1\n      pop\n      jump\t// out\n        /* \"#utility.yul\":14388:15189   */\n    tag_93:\n        /* \"#utility.yul\":14548:14552   */\n      0x00\n        /* \"#utility.yul\":14577:14579   */\n      0x20\n        /* \"#utility.yul\":14617:14619   */\n      dup1\n        /* \"#utility.yul\":14606:14615   */\n      dup4\n        /* \"#utility.yul\":14602:14620   */\n      add\n        /* \"#utility.yul\":14647:14649   */\n      dup2\n        /* \"#utility.yul\":14636:14645   */\n      dup5\n        /* \"#utility.yul\":14629:14650   */\n      mstore\n        /* \"#utility.yul\":14670:14676   */\n      dup1\n        /* \"#utility.yul\":14705:14711   */\n      dup6\n        /* \"#utility.yul\":14699:14712   */\n      mload\n        /* \"#utility.yul\":14736:14742   */\n      dup1\n        /* \"#utility.yul\":14728:14734   */\n      dup4\n        /* \"#utility.yul\":14721:14743   */\n      mstore\n        /* \"#utility.yul\":14774:14776   */\n      0x40\n        /* \"#utility.yul\":14763:14772   */\n      dup7\n        /* \"#utility.yul\":14759:14777   */\n      add\n        /* \"#utility.yul\":14752:14777   */\n      swap2\n      pop\n        /* \"#utility.yul\":14836:14838   */\n      0x40\n        /* \"#utility.yul\":14826:14832   */\n      dup2\n        /* \"#utility.yul\":14823:14824   */\n      0x05\n        /* \"#utility.yul\":14819:14833   */\n      shl\n        /* \"#utility.yul\":14808:14817   */\n      dup8\n        /* \"#utility.yul\":14804:14834   */\n      add\n        /* \"#utility.yul\":14800:14839   */\n      add\n        /* \"#utility.yul\":14786:14839   */\n      swap3\n      pop\n        /* \"#utility.yul\":14874:14876   */\n      dup4\n        /* \"#utility.yul\":14866:14872   */\n      dup8\n        /* \"#utility.yul\":14862:14877   */\n      add\n        /* \"#utility.yul\":14895:14896   */\n      0x00\n        /* \"#utility.yul\":14905:15160   */\n    tag_546:\n        /* \"#utility.yul\":14919:14925   */\n      dup3\n        /* \"#utility.yul\":14916:14917   */\n      dup2\n        /* \"#utility.yul\":14913:14926   */\n      lt\n        /* \"#utility.yul\":14905:15160   */\n      iszero\n      tag_525\n      jumpi\n        /* \"#utility.yul\":15012:15014   */\n      0x3f\n        /* \"#utility.yul\":15008:15015   */\n      not\n        /* \"#utility.yul\":14996:15005   */\n      dup9\n        /* \"#utility.yul\":14988:14994   */\n      dup7\n        /* \"#utility.yul\":14984:15006   */\n      sub\n        /* \"#utility.yul\":14980:15016   */\n      add\n        /* \"#utility.yul\":14975:14978   */\n      dup5\n        /* \"#utility.yul\":14968:15017   */\n      mstore\n        /* \"#utility.yul\":15040:15080   */\n      tag_549\n        /* \"#utility.yul\":15073:15079   */\n      dup6\n        /* \"#utility.yul\":15064:15070   */\n      dup4\n        /* \"#utility.yul\":15058:15071   */\n      mload\n        /* \"#utility.yul\":15040:15080   */\n      tag_391\n      jump\t// in\n    tag_549:\n        /* \"#utility.yul\":15030:15080   */\n      swap5\n      pop\n        /* \"#utility.yul\":15138:15150   */\n      swap3\n      dup6\n      add\n      swap3\n        /* \"#utility.yul\":15103:15118   */\n      swap1\n      dup6\n      add\n      swap1\n        /* \"#utility.yul\":14941:14942   */\n      0x01\n        /* \"#utility.yul\":14934:14943   */\n      add\n        /* \"#utility.yul\":14905:15160   */\n      jump(tag_546)\n        /* \"#utility.yul\":15545:15925   */\n    tag_109:\n        /* \"#utility.yul\":15624:15625   */\n      0x01\n        /* \"#utility.yul\":15620:15632   */\n      dup2\n      dup2\n      shr\n      swap1\n        /* \"#utility.yul\":15667:15679   */\n      dup3\n      and\n      dup1\n        /* \"#utility.yul\":15688:15749   */\n      tag_552\n      jumpi\n        /* \"#utility.yul\":15742:15746   */\n      0x7f\n        /* \"#utility.yul\":15734:15740   */\n      dup3\n        /* \"#utility.yul\":15730:15747   */\n      and\n        /* \"#utility.yul\":15720:15747   */\n      swap2\n      pop\n        /* \"#utility.yul\":15688:15749   */\n    tag_552:\n        /* \"#utility.yul\":15795:15797   */\n      0x20\n        /* \"#utility.yul\":15787:15793   */\n      dup3\n        /* \"#utility.yul\":15784:15798   */\n      lt\n        /* \"#utility.yul\":15764:15782   */\n      dup2\n        /* \"#utility.yul\":15761:15799   */\n      sub\n        /* \"#utility.yul\":15758:15919   */\n      tag_293\n      jumpi\n        /* \"#utility.yul\":15841:15851   */\n      0x4e487b71\n        /* \"#utility.yul\":15836:15839   */\n      0xe0\n        /* \"#utility.yul\":15832:15852   */\n      shl\n        /* \"#utility.yul\":15829:15830   */\n      0x00\n        /* \"#utility.yul\":15822:15853   */\n      mstore\n        /* \"#utility.yul\":15876:15880   */\n      0x22\n        /* \"#utility.yul\":15873:15874   */\n      0x04\n        /* \"#utility.yul\":15866:15881   */\n      mstore\n        /* \"#utility.yul\":15904:15908   */\n      0x24\n        /* \"#utility.yul\":15901:15902   */\n      0x00\n        /* \"#utility.yul\":15894:15909   */\n      revert\n        /* \"#utility.yul\":16277:16624   */\n    tag_140:\n        /* \"#utility.yul\":16479:16481   */\n      0x20\n        /* \"#utility.yul\":16461:16482   */\n      dup1\n      dup3\n      mstore\n        /* \"#utility.yul\":16518:16520   */\n      0x17\n        /* \"#utility.yul\":16498:16516   */\n      swap1\n      dup3\n      add\n        /* \"#utility.yul\":16491:16521   */\n      mstore\n      shl(0x49, 0x21b0b63632b91034b9903737ba103a34329037bbb732b9)\n        /* \"#utility.yul\":16552:16554   */\n      0x40\n        /* \"#utility.yul\":16537:16555   */\n      dup3\n      add\n        /* \"#utility.yul\":16530:16583   */\n      mstore\n        /* \"#utility.yul\":16615:16617   */\n      0x60\n        /* \"#utility.yul\":16600:16618   */\n      add\n      swap1\n        /* \"#utility.yul\":16277:16624   */\n      jump\t// out\n        /* \"#utility.yul\":16629:16756   */\n    tag_403:\n        /* \"#utility.yul\":16690:16700   */\n      0x4e487b71\n        /* \"#utility.yul\":16685:16688   */\n      0xe0\n        /* \"#utility.yul\":16681:16701   */\n      shl\n        /* \"#utility.yul\":16678:16679   */\n      0x00\n        /* \"#utility.yul\":16671:16702   */\n      mstore\n        /* \"#utility.yul\":16721:16725   */\n      0x11\n        /* \"#utility.yul\":16718:16719   */\n      0x04\n        /* \"#utility.yul\":16711:16726   */\n      mstore\n        /* \"#utility.yul\":16745:16749   */\n      0x24\n        /* \"#utility.yul\":16742:16743   */\n      0x00\n        /* \"#utility.yul\":16735:16750   */\n      revert\n        /* \"#utility.yul\":16761:16886   */\n    tag_142:\n        /* \"#utility.yul\":16826:16835   */\n      dup1\n      dup3\n      add\n        /* \"#utility.yul\":16847:16857   */\n      dup1\n      dup3\n      gt\n        /* \"#utility.yul\":16844:16880   */\n      iszero\n      tag_413\n      jumpi\n        /* \"#utility.yul\":16860:16878   */\n      tag_413\n      tag_403\n      jump\t// in\n        /* \"#utility.yul\":17601:17960   */\n    tag_154:\n        /* \"#utility.yul\":17788:17794   */\n      dup3\n        /* \"#utility.yul\":17783:17786   */\n      dup2\n        /* \"#utility.yul\":17776:17795   */\n      mstore\n        /* \"#utility.yul\":17758:17761   */\n      0x00\n        /* \"#utility.yul\":17824:17830   */\n      dup3\n        /* \"#utility.yul\":17818:17831   */\n      mload\n        /* \"#utility.yul\":17840:17913   */\n      tag_563\n        /* \"#utility.yul\":17906:17912   */\n      dup2\n        /* \"#utility.yul\":17901:17903   */\n      0x20\n        /* \"#utility.yul\":17896:17899   */\n      dup6\n        /* \"#utility.yul\":17892:17904   */\n      add\n        /* \"#utility.yul\":17887:17889   */\n      0x20\n        /* \"#utility.yul\":17879:17885   */\n      dup8\n        /* \"#utility.yul\":17875:17890   */\n      add\n        /* \"#utility.yul\":17840:17913   */\n      tag_390\n      jump\t// in\n    tag_563:\n        /* \"#utility.yul\":17933:17949   */\n      swap2\n      swap1\n      swap2\n      add\n        /* \"#utility.yul\":17951:17953   */\n      0x20\n        /* \"#utility.yul\":17929:17954   */\n      add\n      swap4\n        /* \"#utility.yul\":17601:17960   */\n      swap3\n      pop\n      pop\n      pop\n      jump\t// out\n        /* \"#utility.yul\":18438:18982   */\n    tag_405:\n        /* \"#utility.yul\":18539:18541   */\n      0x1f\n        /* \"#utility.yul\":18534:18537   */\n      dup3\n        /* \"#utility.yul\":18531:18542   */\n      gt\n        /* \"#utility.yul\":18528:18976   */\n      iszero\n      tag_567\n      jumpi\n        /* \"#utility.yul\":18575:18576   */\n      0x00\n        /* \"#utility.yul\":18600:18605   */\n      dup2\n        /* \"#utility.yul\":18596:18598   */\n      dup2\n        /* \"#utility.yul\":18589:18606   */\n      mstore\n        /* \"#utility.yul\":18645:18649   */\n      0x20\n        /* \"#utility.yul\":18641:18643   */\n      dup2\n        /* \"#utility.yul\":18631:18650   */\n      keccak256\n        /* \"#utility.yul\":18715:18717   */\n      0x1f\n        /* \"#utility.yul\":18703:18713   */\n      dup6\n        /* \"#utility.yul\":18699:18718   */\n      add\n        /* \"#utility.yul\":18696:18697   */\n      0x05\n        /* \"#utility.yul\":18692:18719   */\n      shr\n        /* \"#utility.yul\":18686:18690   */\n      dup2\n        /* \"#utility.yul\":18682:18720   */\n      add\n        /* \"#utility.yul\":18751:18755   */\n      0x20\n        /* \"#utility.yul\":18739:18749   */\n      dup7\n        /* \"#utility.yul\":18736:18756   */\n      lt\n        /* \"#utility.yul\":18733:18780   */\n      iszero\n      tag_568\n      jumpi\n      pop\n        /* \"#utility.yul\":18774:18778   */\n      dup1\n        /* \"#utility.yul\":18733:18780   */\n    tag_568:\n        /* \"#utility.yul\":18829:18831   */\n      0x1f\n        /* \"#utility.yul\":18824:18827   */\n      dup6\n        /* \"#utility.yul\":18820:18832   */\n      add\n        /* \"#utility.yul\":18817:18818   */\n      0x05\n        /* \"#utility.yul\":18813:18833   */\n      shr\n        /* \"#utility.yul\":18807:18811   */\n      dup3\n        /* \"#utility.yul\":18803:18834   */\n      add\n        /* \"#utility.yul\":18793:18834   */\n      swap2\n      pop\n        /* \"#utility.yul\":18884:18966   */\n    tag_569:\n        /* \"#utility.yul\":18902:18904   */\n      dup2\n        /* \"#utility.yul\":18895:18900   */\n      dup2\n        /* \"#utility.yul\":18892:18905   */\n      lt\n        /* \"#utility.yul\":18884:18966   */\n      iszero\n      tag_571\n      jumpi\n        /* \"#utility.yul\":18947:18964   */\n      dup3\n      dup2\n      sstore\n        /* \"#utility.yul\":18928:18929   */\n      0x01\n        /* \"#utility.yul\":18917:18930   */\n      add\n        /* \"#utility.yul\":18884:18966   */\n      jump(tag_569)\n    tag_571:\n        /* \"#utility.yul\":18888:18891   */\n      pop\n      pop\n      pop\n        /* \"#utility.yul\":18528:18976   */\n    tag_567:\n        /* \"#utility.yul\":18438:18982   */\n      pop\n      pop\n      pop\n      jump\t// out\n        /* \"#utility.yul\":19158:20506   */\n    tag_159:\n        /* \"#utility.yul\":19276:19286   */\n      dup2\n      mload\n      sub(shl(0x40, 0x01), 0x01)\n        /* \"#utility.yul\":19298:19328   */\n      dup2\n      gt\n        /* \"#utility.yul\":19295:19351   */\n      iszero\n      tag_575\n      jumpi\n        /* \"#utility.yul\":19331:19349   */\n      tag_575\n      tag_194\n      jump\t// in\n    tag_575:\n        /* \"#utility.yul\":19360:19456   */\n      tag_576\n        /* \"#utility.yul\":19449:19455   */\n      dup2\n        /* \"#utility.yul\":19409:19447   */\n      tag_577\n        /* \"#utility.yul\":19441:19445   */\n      dup5\n        /* \"#utility.yul\":19435:19446   */\n      sload\n        /* \"#utility.yul\":19409:19447   */\n      tag_109\n      jump\t// in\n    tag_577:\n        /* \"#utility.yul\":19403:19407   */\n      dup5\n        /* \"#utility.yul\":19360:19456   */\n      tag_405\n      jump\t// in\n    tag_576:\n        /* \"#utility.yul\":19511:19515   */\n      0x20\n      dup1\n        /* \"#utility.yul\":19575:19577   */\n      0x1f\n        /* \"#utility.yul\":19564:19578   */\n      dup4\n      gt\n        /* \"#utility.yul\":19592:19593   */\n      0x01\n        /* \"#utility.yul\":19587:20249   */\n      dup2\n      eq\n      tag_579\n      jumpi\n        /* \"#utility.yul\":20293:20294   */\n      0x00\n        /* \"#utility.yul\":20310:20316   */\n      dup5\n        /* \"#utility.yul\":20307:20396   */\n      iszero\n      tag_580\n      jumpi\n      pop\n        /* \"#utility.yul\":20362:20381   */\n      dup6\n      dup4\n      add\n        /* \"#utility.yul\":20356:20382   */\n      mload\n        /* \"#utility.yul\":20307:20396   */\n    tag_580:\n      not(0x00)\n        /* \"#utility.yul\":19115:19116   */\n      0x03\n        /* \"#utility.yul\":19111:19122   */\n      dup7\n      swap1\n      shl\n        /* \"#utility.yul\":19107:19131   */\n      shr\n        /* \"#utility.yul\":19103:19132   */\n      not\n        /* \"#utility.yul\":19093:19133   */\n      and\n        /* \"#utility.yul\":19139:19140   */\n      0x01\n        /* \"#utility.yul\":19135:19146   */\n      dup6\n      swap1\n      shl\n        /* \"#utility.yul\":19090:19147   */\n      or\n        /* \"#utility.yul\":20409:20490   */\n      dup6\n      sstore\n        /* \"#utility.yul\":19557:20500   */\n      jump(tag_571)\n        /* \"#utility.yul\":19587:20249   */\n    tag_579:\n        /* \"#utility.yul\":18385:18386   */\n      0x00\n        /* \"#utility.yul\":18378:18392   */\n      dup6\n      dup2\n      mstore\n        /* \"#utility.yul\":18422:18426   */\n      0x20\n        /* \"#utility.yul\":18409:18427   */\n      dup2\n      keccak256\n      not(0x1f)\n        /* \"#utility.yul\":19623:19643   */\n      dup7\n      and\n      swap2\n        /* \"#utility.yul\":19740:19976   */\n    tag_583:\n        /* \"#utility.yul\":19754:19761   */\n      dup3\n        /* \"#utility.yul\":19751:19752   */\n      dup2\n        /* \"#utility.yul\":19748:19762   */\n      lt\n        /* \"#utility.yul\":19740:19976   */\n      iszero\n      tag_585\n      jumpi\n        /* \"#utility.yul\":19843:19862   */\n      dup9\n      dup7\n      add\n        /* \"#utility.yul\":19837:19863   */\n      mload\n        /* \"#utility.yul\":19822:19864   */\n      dup3\n      sstore\n        /* \"#utility.yul\":19935:19962   */\n      swap5\n      dup5\n      add\n      swap5\n        /* \"#utility.yul\":19903:19904   */\n      0x01\n        /* \"#utility.yul\":19891:19905   */\n      swap1\n      swap2\n      add\n      swap1\n        /* \"#utility.yul\":19770:19789   */\n      dup5\n      add\n        /* \"#utility.yul\":19740:19976   */\n      jump(tag_583)\n    tag_585:\n        /* \"#utility.yul\":19744:19747   */\n      pop\n        /* \"#utility.yul\":20004:20010   */\n      dup6\n        /* \"#utility.yul\":19995:20002   */\n      dup3\n        /* \"#utility.yul\":19992:20011   */\n      lt\n        /* \"#utility.yul\":19989:20190   */\n      iszero\n      tag_586\n      jumpi\n        /* \"#utility.yul\":20065:20084   */\n      dup8\n      dup6\n      add\n        /* \"#utility.yul\":20059:20085   */\n      mload\n      not(0x00)\n        /* \"#utility.yul\":20148:20149   */\n      0x03\n        /* \"#utility.yul\":20144:20158   */\n      dup9\n      swap1\n      shl\n        /* \"#utility.yul\":20160:20163   */\n      0xf8\n        /* \"#utility.yul\":20140:20164   */\n      and\n        /* \"#utility.yul\":20136:20173   */\n      shr\n        /* \"#utility.yul\":20132:20174   */\n      not\n        /* \"#utility.yul\":20117:20175   */\n      and\n        /* \"#utility.yul\":20102:20176   */\n      dup2\n      sstore\n        /* \"#utility.yul\":19989:20190   */\n    tag_586:\n      pop\n      pop\n      pop\n      pop\n      pop\n        /* \"#utility.yul\":20236:20237   */\n      0x01\n        /* \"#utility.yul\":20220:20234   */\n      swap1\n      dup2\n      shl\n        /* \"#utility.yul\":20216:20238   */\n      add\n        /* \"#utility.yul\":20203:20239   */\n      swap1\n      sstore\n      pop\n        /* \"#utility.yul\":19158:20506   */\n      jump\t// out\n        /* \"#utility.yul\":20511:20720   */\n    tag_161:\n        /* \"#utility.yul\":20549:20552   */\n      0x00\n      sub(shl(0x40, 0x01), 0x01)\n        /* \"#utility.yul\":20619:20633   */\n      dup3\n      dup2\n      and\n      not(sub(shl(0x40, 0x01), 0x02))\n        /* \"#utility.yul\":20645:20660   */\n      dup2\n      add\n        /* \"#utility.yul\":20642:20683   */\n      tag_589\n      jumpi\n        /* \"#utility.yul\":20663:20681   */\n      tag_589\n      tag_403\n      jump\t// in\n    tag_589:\n        /* \"#utility.yul\":20712:20713   */\n      0x01\n        /* \"#utility.yul\":20699:20714   */\n      add\n      swap4\n        /* \"#utility.yul\":20511:20720   */\n      swap3\n      pop\n      pop\n      pop\n      jump\t// out\n        /* \"#utility.yul\":20725:20905   */\n    tag_163:\n      sub(shl(0x40, 0x01), 0x01)\n        /* \"#utility.yul\":20830:20840   */\n      dup2\n      dup2\n      and\n        /* \"#utility.yul\":20842:20852   */\n      dup4\n      dup3\n      and\n        /* \"#utility.yul\":20826:20853   */\n      add\n      swap1\n        /* \"#utility.yul\":20865:20876   */\n      dup1\n      dup3\n      gt\n        /* \"#utility.yul\":20862:20899   */\n      iszero\n      tag_197\n      jumpi\n        /* \"#utility.yul\":20879:20897   */\n      tag_197\n      tag_403\n      jump\t// in\n        /* \"#utility.yul\":20910:21093   */\n    tag_169:\n      sub(shl(0x40, 0x01), 0x01)\n        /* \"#utility.yul\":21029:21039   */\n      dup3\n      dup2\n      and\n        /* \"#utility.yul\":21017:21027   */\n      dup3\n      dup3\n      and\n        /* \"#utility.yul\":21013:21040   */\n      sub\n      swap1\n        /* \"#utility.yul\":21052:21064   */\n      dup1\n      dup3\n      gt\n        /* \"#utility.yul\":21049:21087   */\n      iszero\n      tag_197\n      jumpi\n        /* \"#utility.yul\":21067:21085   */\n      tag_197\n      tag_403\n      jump\t// in\n        /* \"#utility.yul\":21653:21788   */\n    tag_190:\n        /* \"#utility.yul\":21692:21695   */\n      0x00\n        /* \"#utility.yul\":21713:21730   */\n      0x01\n      dup3\n      add\n        /* \"#utility.yul\":21710:21753   */\n      tag_600\n      jumpi\n        /* \"#utility.yul\":21733:21751   */\n      tag_600\n      tag_403\n      jump\t// in\n    tag_600:\n      pop\n        /* \"#utility.yul\":21780:21781   */\n      0x01\n        /* \"#utility.yul\":21769:21782   */\n      add\n      swap1\n        /* \"#utility.yul\":21653:21788   */\n      jump\t// out\n        /* \"#utility.yul\":21793:21920   */\n    tag_202:\n        /* \"#utility.yul\":21854:21864   */\n      0x4e487b71\n        /* \"#utility.yul\":21849:21852   */\n      0xe0\n        /* \"#utility.yul\":21845:21865   */\n      shl\n        /* \"#utility.yul\":21842:21843   */\n      0x00\n        /* \"#utility.yul\":21835:21866   */\n      mstore\n        /* \"#utility.yul\":21885:21889   */\n      0x32\n        /* \"#utility.yul\":21882:21883   */\n      0x04\n        /* \"#utility.yul\":21875:21890   */\n      mstore\n        /* \"#utility.yul\":21909:21913   */\n      0x24\n        /* \"#utility.yul\":21906:21907   */\n      0x00\n        /* \"#utility.yul\":21899:21914   */\n      revert\n        /* \"#utility.yul\":23043:23383   */\n    tag_232:\n        /* \"#utility.yul\":23245:23247   */\n      0x20\n        /* \"#utility.yul\":23227:23248   */\n      dup1\n      dup3\n      mstore\n        /* \"#utility.yul\":23284:23286   */\n      0x10\n        /* \"#utility.yul\":23264:23282   */\n      swap1\n      dup3\n      add\n        /* \"#utility.yul\":23257:23287   */\n      mstore\n      shl(0x82, 0x119a5b19481a185cc8195e1c1a5c9959)\n        /* \"#utility.yul\":23318:23320   */\n      0x40\n        /* \"#utility.yul\":23303:23321   */\n      dup3\n      add\n        /* \"#utility.yul\":23296:23342   */\n      mstore\n        /* \"#utility.yul\":23374:23376   */\n      0x60\n        /* \"#utility.yul\":23359:23377   */\n      add\n      swap1\n        /* \"#utility.yul\":23043:23383   */\n      jump\t// out\n        /* \"#utility.yul\":23805:24666   */\n    tag_269:\n      not(sub(shl(0xc0, 0x01), 0x01))\n        /* \"#utility.yul\":24132:24135   */\n      0xc0\n        /* \"#utility.yul\":24169:24185   */\n      dup9\n      dup2\n      shl\n        /* \"#utility.yul\":24165:24190   */\n      dup3\n      and\n        /* \"#utility.yul\":24153:24191   */\n      dup4\n      mstore\n        /* \"#utility.yul\":24224:24240   */\n      dup8\n      swap1\n      shl\n        /* \"#utility.yul\":24220:24245   */\n      and\n        /* \"#utility.yul\":24216:24217   */\n      0x08\n        /* \"#utility.yul\":24207:24218   */\n      dup3\n      add\n        /* \"#utility.yul\":24200:24246   */\n      mstore\n        /* \"#utility.yul\":24271:24273   */\n      0x10\n        /* \"#utility.yul\":24262:24274   */\n      dup2\n      add\n        /* \"#utility.yul\":24255:24283   */\n      dup6\n      swap1\n      mstore\n        /* \"#utility.yul\":24306:24319   */\n      dup4\n      mload\n      0x00\n      swap1\n        /* \"#utility.yul\":24328:24403   */\n      tag_608\n        /* \"#utility.yul\":24306:24319   */\n      dup2\n        /* \"#utility.yul\":24391:24393   */\n      0x30\n        /* \"#utility.yul\":24382:24394   */\n      dup6\n      add\n        /* \"#utility.yul\":24375:24379   */\n      0x20\n        /* \"#utility.yul\":24363:24380   */\n      dup10\n      add\n        /* \"#utility.yul\":24328:24403   */\n      tag_390\n      jump\t// in\n    tag_608:\n        /* \"#utility.yul\":24463:24476   */\n      dup5\n      mload\n        /* \"#utility.yul\":24422:24438   */\n      swap1\n      dup4\n      add\n      swap1\n        /* \"#utility.yul\":24485:24561   */\n      tag_609\n        /* \"#utility.yul\":24463:24476   */\n      dup2\n        /* \"#utility.yul\":24547:24549   */\n      0x30\n        /* \"#utility.yul\":24539:24550   */\n      dup5\n      add\n        /* \"#utility.yul\":24532:24536   */\n      0x20\n        /* \"#utility.yul\":24520:24537   */\n      dup10\n      add\n        /* \"#utility.yul\":24485:24561   */\n      tag_390\n      jump\t// in\n    tag_609:\n        /* \"#utility.yul\":24580:24597   */\n      add\n        /* \"#utility.yul\":24621:24623   */\n      0x30\n        /* \"#utility.yul\":24613:24624   */\n      dup2\n      add\n        /* \"#utility.yul\":24606:24633   */\n      swap4\n      swap1\n      swap4\n      mstore\n      pop\n      pop\n        /* \"#utility.yul\":24657:24659   */\n      0x50\n        /* \"#utility.yul\":24649:24660   */\n      add\n      swap6\n      swap5\n      pop\n      pop\n      pop\n      pop\n      pop\n        /* \"#utility.yul\":23805:24666   */\n      jump\t// out\n        /* \"#utility.yul\":24671:24960   */\n    tag_271:\n        /* \"#utility.yul\":24802:24805   */\n      0x00\n        /* \"#utility.yul\":24840:24846   */\n      dup3\n        /* \"#utility.yul\":24834:24847   */\n      mload\n        /* \"#utility.yul\":24856:24922   */\n      tag_611\n        /* \"#utility.yul\":24915:24921   */\n      dup2\n        /* \"#utility.yul\":24910:24913   */\n      dup5\n        /* \"#utility.yul\":24903:24907   */\n      0x20\n        /* \"#utility.yul\":24895:24901   */\n      dup8\n        /* \"#utility.yul\":24891:24908   */\n      add\n        /* \"#utility.yul\":24856:24922   */\n      tag_390\n      jump\t// in\n    tag_611:\n        /* \"#utility.yul\":24938:24954   */\n      swap2\n      swap1\n      swap2\n      add\n      swap3\n        /* \"#utility.yul\":24671:24960   */\n      swap2\n      pop\n      pop\n      jump\t// out\n        /* \"#utility.yul\":26668:26982   */\n    tag_285:\n        /* \"#utility.yul\":26843:26845   */\n      0x40\n        /* \"#utility.yul\":26832:26841   */\n      dup2\n        /* \"#utility.yul\":26825:26846   */\n      mstore\n        /* \"#utility.yul\":26806:26810   */\n      0x00\n        /* \"#utility.yul\":26863:26908   */\n      tag_628\n        /* \"#utility.yul\":26904:26906   */\n      0x40\n        /* \"#utility.yul\":26893:26902   */\n      dup4\n        /* \"#utility.yul\":26889:26907   */\n      add\n        /* \"#utility.yul\":26881:26887   */\n      dup6\n        /* \"#utility.yul\":26863:26908   */\n      tag_391\n      jump\t// in\n    tag_628:\n        /* \"#utility.yul\":26855:26908   */\n      swap1\n      pop\n        /* \"#utility.yul\":26972:26973   */\n      0x01\n        /* \"#utility.yul\":26968:26969   */\n      dup1\n        /* \"#utility.yul\":26964:26966   */\n      0x40\n        /* \"#utility.yul\":26960:26970   */\n      shl\n        /* \"#utility.yul\":26956:26974   */\n      sub\n        /* \"#utility.yul\":26948:26954   */\n      dup4\n        /* \"#utility.yul\":26944:26975   */\n      and\n        /* \"#utility.yul\":26939:26941   */\n      0x20\n        /* \"#utility.yul\":26928:26937   */\n      dup4\n        /* \"#utility.yul\":26924:26942   */\n      add\n        /* \"#utility.yul\":26917:26976   */\n      mstore\n        /* \"#utility.yul\":26668:26982   */\n      swap4\n      swap3\n      pop\n      pop\n      pop\n      jump\t// out\n        /* \"#utility.yul\":28400:28528   */\n    tag_361:\n        /* \"#utility.yul\":28467:28476   */\n      dup2\n      dup2\n      sub\n        /* \"#utility.yul\":28488:28499   */\n      dup2\n      dup2\n      gt\n        /* \"#utility.yul\":28485:28522   */\n      iszero\n      tag_413\n      jumpi\n        /* \"#utility.yul\":28502:28520   */\n      tag_413\n      tag_403\n      jump\t// in\n\n    auxdata: 0xa2646970667358221220e800d94fc0b8b54b7d90a5e2560d721ac9e4672fc8be9fe6c6fd36ba2c3449ba64736f6c63430008130033\n}\n",
				"bytecode": {
					"linkReferences": {},
					"object": "6080604052600380546001600160a01b0319163317905561295d806100256000396000f3fe608060405234801561001057600080fd5b50600436106100d05760003560e01c806346da5178146100d557806352f7347b146100fe5780635f95c07b1461011e5780636ab799f1146101335780636e0c19b1146101465780638da5cb5b1461016657806391c03370146101915780639b26b2a8146101a4578063bf8bdac1146101b7578063c652793d146101ca578063ca7e3cd4146101eb578063d598d4c91461020c578063eb070e7e1461021f578063edff13af1461023f578063f25671c41461026a578063fab919401461027d575b600080fd5b6100e86100e3366004611d4b565b61029d565b6040516100f59190611d8c565b60405180910390f35b61011161010c366004611d4b565b61037a565b6040516100f59190611f1a565b61013161012c366004611ff3565b610672565b005b610131610141366004611d4b565b6109d5565b6101596101543660046121f7565b610b0c565b6040516100f591906122ac565b600354610179906001600160a01b031681565b6040516001600160a01b0390911681526020016100f5565b61013161019f3660046122f0565b610bb9565b6101316101b2366004611d4b565b610cff565b6101316101c536600461231c565b610e05565b6101dd6101d8366004611d4b565b610e51565b6040516100f5929190612337565b6101fe6101f9366004612359565b611174565b6040519081526020016100f5565b600254610179906001600160a01b031681565b61023261022d366004612395565b611509565b6040516100f59190612425565b6101fe61024d366004612487565b805160208183018101805160018252928201919093012091525481565b6101596102783660046124bb565b6118b0565b61029061028b36600461255e565b61196c565b6040516100f5919061258a565b6040805160608101825260008082526020820181905291810191909152600082815260208190526040812090600582015460ff1660038111156102e2576102e2611df0565b1461032d5760405162461bcd60e51b815260206004820152601660248201527546696c652075706c6f6164206e6f742065786973747360501b60448201526064015b60405180910390fd5b5050600090815260208181526040918290208251606081018452600882015481526009909101546001600160401b0380821693830193909352600160401b90049091169181019190915290565b610382611ca3565b6000828152602081815260409182902082516101408101845281546001600160a01b0316815260018201549281019290925260028101546001600160401b0380821694840194909452600160401b810484166060840152600160801b9004909216608082015260038201805491929160a084019190610400906125df565b80601f016020809104026020016040519081016040528092919081815260200182805461042c906125df565b80156104795780601f1061044e57610100808354040283529160200191610479565b820191906000526020600020905b81548152906001019060200180831161045c57829003601f168201915b50505050508152602001600482018054610492906125df565b80601f01602080910402602001604051908101604052809291908181526020018280546104be906125df565b801561050b5780601f106104e05761010080835404028352916020019161050b565b820191906000526020600020905b8154815290600101906020018083116104ee57829003601f168201915b5050509183525050600582015460209091019060ff16600381111561053257610532611df0565b600381111561054357610543611df0565b8152602001600682018054610557906125df565b80601f0160208091040260200160405190810160405280929190818152602001828054610583906125df565b80156105d05780601f106105a5576101008083540402835291602001916105d0565b820191906000526020600020905b8154815290600101906020018083116105b357829003601f168201915b505050505081526020016007820180546105e9906125df565b80601f0160208091040260200160405190810160405280929190818152602001828054610615906125df565b80156106625780601f1061063757610100808354040283529160200191610662565b820191906000526020600020905b81548152906001019060200180831161064557829003601f168201915b5050505050815250509050919050565b600082511180156106865750612800825111155b6106c75760405162461bcd60e51b8152602060048201526012602482015271496e76616c6964206368756e6b2073697a6560701b6044820152606401610324565b600083815260208190526040902080546001600160a01b031633146106fe5760405162461bcd60e51b815260040161032490612613565b6002810154835160098301546001600160401b03928316926107289291600160401b90041661265a565b11156107725760405162461bcd60e51b8152602060048201526019602482015278086d0eadcd640caf0c6cacac8e640ccd2d8ca40d8cadccee8d603b1b6044820152606401610324565b6000600582015460ff16600381111561078d5761078d611df0565b146107d85760405162461bcd60e51b815260206004820152601b60248201527a119a5b19481a5cc81b9bdd0818995a5b99c81c1c9bd8d95cdcd959602a1b6044820152606401610324565b60088101546040516000916107f191869060200161266d565b60405160208183030381529060405280519060200120905082811461084e5760405162461bcd60e51b8152602060048201526013602482015272086d0eadcd640d0c2e6d040dad2e6dac2e8c6d606b1b6044820152606401610324565b6008820181905560098201546001600160401b03166000908152600a83016020526040902061087d85826126e2565b506009820180546001600160401b0316906000610899836127a1565b91906101000a8154816001600160401b0302191690836001600160401b031602179055505083518260080160010160088282829054906101000a90046001600160401b03166108e891906127cf565b82546101009290920a6001600160401b0381810219909316918316021790915560098401546002850154600160401b90910482169116149050806109475750600282015460098301546001600160401b03908116600160401b90920416145b156109755760058201805460ff19166001179055600060088301556009820180546001600160801b03191690555b600982015485907f9194bcee830b22b5e81ccd3c7efb4811ca70dfdd9bbfaa1719d15dfc18c6417d906109b3906001906001600160401b03166127ef565b6040516001600160401b03909116815260200160405180910390a25050505050565b600081815260208190526040902080546001600160a01b03163314610a0c5760405162461bcd60e51b815260040161032490612613565b6003600582015460ff166003811115610a2757610a27611df0565b03610a6b5760405162461bcd60e51b8152602060048201526014602482015273119a5b1948185b1c9958591e4819195b195d195960621b6044820152606401610324565b60058101805460ff1916600317905560005b6002820154600160401b90046001600160401b0316811015610ac4576000818152600a830160205260408120610ab291611cf5565b80610abc8161280f565b915050610a7d565b506000600882018190556009820180546001600160801b031916905560405183917f88efefb1eaec3d3a0e08ed74bc99a3407d454b5da66112fed68b20d54837ccae91a25050565b6060600082516001600160401b03811115610b2957610b29611f2d565b604051908082528060200260200182016040528015610b52578160200160208202803683370190505b50905060005b8351811015610bb257610b83848281518110610b7657610b76612828565b6020026020010151611174565b828281518110610b9557610b95612828565b602090810291909101015280610baa8161280f565b915050610b58565b5092915050565b600082815260208190526040902080546001600160a01b03163314610bf05760405162461bcd60e51b815260040161032490612613565b6003600582015460ff166003811115610c0b57610c0b611df0565b03610c505760405162461bcd60e51b8152602060048201526015602482015274119a5b19481a185cc81899595b8819195b195d1959605a1b6044820152606401610324565b610c5d426201518061265a565b826001600160401b031611610cd15760405162461bcd60e51b815260206004820152603460248201527f4e6577206578706972652074696d65206d757374206265206174206c6561737460448201527320312064617920696e207468652066757475726560601b6064820152608401610324565b60020180546001600160401b03909216600160801b02600160801b600160c01b031990921691909117905550565b600081815260208190526040902080546001600160a01b03163314610d365760405162461bcd60e51b815260040161032490612613565b6001600582015460ff166003811115610d5157610d51611df0565b14610d935760405162461bcd60e51b815260206004820152601260248201527146696c65206973206e6f742061637469766560701b6044820152606401610324565b6002810154600160801b90046001600160401b0316421115610dc75760405162461bcd60e51b81526004016103249061283e565b60058101805460ff1916600217905560405182907f45987cd84c3c0ec7c3b91dde29affe01363c3777aec1247553883b243174733090600090a25050565b6003546001600160a01b03163314610e2f5760405162461bcd60e51b815260040161032490612613565b600280546001600160a01b0319166001600160a01b0392909216919091179055565b6000602081815291815260409081902081516101408101835281546001600160a01b0316815260018201549381019390935260028101546001600160401b0380821693850193909352600160401b810483166060850152600160801b90049091166080830152600381018054919291839160a0840191610ed0906125df565b80601f0160208091040260200160405190810160405280929190818152602001828054610efc906125df565b8015610f495780601f10610f1e57610100808354040283529160200191610f49565b820191906000526020600020905b815481529060010190602001808311610f2c57829003601f168201915b50505050508152602001600482018054610f62906125df565b80601f0160208091040260200160405190810160405280929190818152602001828054610f8e906125df565b8015610fdb5780601f10610fb057610100808354040283529160200191610fdb565b820191906000526020600020905b815481529060010190602001808311610fbe57829003601f168201915b5050509183525050600582015460209091019060ff16600381111561100257611002611df0565b600381111561101357611013611df0565b8152602001600682018054611027906125df565b80601f0160208091040260200160405190810160405280929190818152602001828054611053906125df565b80156110a05780601f10611075576101008083540402835291602001916110a0565b820191906000526020600020905b81548152906001019060200180831161108357829003601f168201915b505050505081526020016007820180546110b9906125df565b80601f01602080910402602001604051908101604052809291908181526020018280546110e5906125df565b80156111325780601f1061110757610100808354040283529160200191611132565b820191906000526020600020905b81548152906001019060200180831161111557829003601f168201915b50505091909252505060408051606081018252600885015481526009909401546001600160401b038082166020870152600160401b9091041690840152509082565b6000611183426201518061265a565b82608001516001600160401b0316116111f75760405162461bcd60e51b815260206004820152603060248201527f4578706972652074696d65206d757374206265206174206c656173742031206460448201526f617920696e207468652066757475726560801b6064820152608401610324565b8160400151826080015183602001518460a001518560c001514260405160200161122696959493929190612868565b6040516020818303038152906040528051906020012090508060018360a0015160405161125391906128ce565b9081526040805160209281900383019020929092556000838152908190522060010154156112b95760405162461bcd60e51b815260206004820152601360248201527246696c6520616c72656164792065786973747360681b6044820152606401610324565b604051806101400160405280336001600160a01b031681526020018360200151815260200183604001516001600160401b0316815260200183606001516001600160401b0316815260200183608001516001600160401b031681526020018360a0015181526020018360c0015181526020016000600381111561133e5761133e611df0565b81526101008401516020808301919091526101208501516040928301526000848152808252829020835181546001600160a01b039091166001600160a01b031990911617815590830151600182015590820151600282018054606085015160808601516001600160401b03908116600160801b02600160801b600160c01b0319928216600160401b026001600160801b03199094169190951617919091171691909117905560a082015160038201906113f790826126e2565b5060c0820151600482019061140c90826126e2565b5060e082015160058201805460ff1916600183600381111561143057611430611df0565b0217905550610100820151600682019061144a90826126e2565b50610120820151600782019061146090826126e2565b5050604080516060810182526000808252602080830182815283850183815287845291839052918490209251600884015590516009909201805491516001600160401b03908116600160401b026001600160801b031990931693169290921717905560a08401518482015191518493507f7f2db28bb9cdbd41f93b3953994de4298cc665dda981f021c84fc9b4b367f11e926114fc92916128ea565b60405180910390a2919050565b606081516001600160401b0381111561152457611524611f2d565b60405190808252806020026020018201604052801561155d57816020015b61154a611ca3565b8152602001906001900390816115425790505b50905060005b82518110156118aa57600080600085848151811061158357611583612828565b602090810291909101810151825281810192909252604090810160002081516101408101835281546001600160a01b0316815260018201549381019390935260028101546001600160401b0380821693850193909352600160401b810483166060850152600160801b9004909116608083015260038101805460a08401919061160b906125df565b80601f0160208091040260200160405190810160405280929190818152602001828054611637906125df565b80156116845780601f1061165957610100808354040283529160200191611684565b820191906000526020600020905b81548152906001019060200180831161166757829003601f168201915b5050505050815260200160048201805461169d906125df565b80601f01602080910402602001604051908101604052809291908181526020018280546116c9906125df565b80156117165780601f106116eb57610100808354040283529160200191611716565b820191906000526020600020905b8154815290600101906020018083116116f957829003601f168201915b5050509183525050600582015460209091019060ff16600381111561173d5761173d611df0565b600381111561174e5761174e611df0565b8152602001600682018054611762906125df565b80601f016020809104026020016040519081016040528092919081815260200182805461178e906125df565b80156117db5780601f106117b0576101008083540402835291602001916117db565b820191906000526020600020905b8154815290600101906020018083116117be57829003601f168201915b505050505081526020016007820180546117f4906125df565b80601f0160208091040260200160405190810160405280929190818152602001828054611820906125df565b801561186d5780601f106118425761010080835404028352916020019161186d565b820191906000526020600020905b81548152906001019060200180831161185057829003601f168201915b50505050508152505090508083838151811061188b5761188b612828565b60200260200101819052505080806118a29061280f565b915050611563565b50919050565b6060600082516001600160401b038111156118cd576118cd611f2d565b6040519080825280602002602001820160405280156118f6578160200160208202803683370190505b50905060005b8351811015610bb257600184828151811061191957611919612828565b602002602001015160405161192e91906128ce565b90815260200160405180910390205482828151811061194f5761194f612828565b6020908102919091010152806119648161280f565b9150506118fc565b60008381526020819052604090206060906001600582015460ff16600381111561199857611998611df0565b146119df5760405162461bcd60e51b8152602060048201526017602482015276119a5b19481d5c1b1bd859081b9bdd081858dd1a5d9959604a1b6044820152606401610324565b60028101546001600160401b0316611a2f5760405162461bcd60e51b8152602060048201526013602482015272119a5b1948191bd95cc81b9bdd08195e1a5cdd606a1b6044820152606401610324565b6002810154600160401b90046001600160401b03168410611a8d5760405162461bcd60e51b8152602060048201526018602482015277537461727420696e646578206f7574206f662072616e676560401b6044820152606401610324565b60008311611add5760405162461bcd60e51b815260206004820152601f60248201527f4c696d6974206d7573742062652067726561746572207468616e207a65726f006044820152606401610324565b6002810154600160801b90046001600160401b0316421115611b115760405162461bcd60e51b81526004016103249061283e565b6002810154600090600160401b90046001600160401b0316611b33858761265a565b11611b4757611b42848661265a565b611b5d565b6002820154600160401b90046001600160401b03165b90506000611b6b8683612914565b6001600160401b03811115611b8257611b82611f2d565b604051908082528060200260200182016040528015611bb557816020015b6060815260200190600190039081611ba05790505b509050855b82811015611c96576000818152600a8501602052604090208054611bdd906125df565b80601f0160208091040260200160405190810160405280929190818152602001828054611c09906125df565b8015611c565780601f10611c2b57610100808354040283529160200191611c56565b820191906000526020600020905b815481529060010190602001808311611c3957829003601f168201915b5050505050828883611c689190612914565b81518110611c7857611c78612828565b60200260200101819052508080611c8e9061280f565b915050611bba565b50925050505b9392505050565b604080516101408101825260008082526020820181905291810182905260608082018390526080820183905260a0820181905260c08201529060e0820190815260200160608152602001606081525090565b508054611d01906125df565b6000825580601f10611d11575050565b601f016020900490600052602060002090810190611d2f9190611d32565b50565b5b80821115611d475760008155600101611d33565b5090565b600060208284031215611d5d57600080fd5b5035919050565b805182526020808201516001600160401b039081169184019190915260409182015116910152565b60608101611d9a8284611d64565b92915050565b60005b83811015611dbb578181015183820152602001611da3565b50506000910152565b60008151808452611ddc816020860160208601611da0565b601f01601f19169290920160200192915050565b634e487b7160e01b600052602160045260246000fd5b60048110611e2457634e487b7160e01b600052602160045260246000fd5b9052565b80516001600160a01b031682526000610140602083015160208501526040830151611e5e60408601826001600160401b03169052565b506060830151611e7960608601826001600160401b03169052565b506080830151611e9460808601826001600160401b03169052565b5060a08301518160a0860152611eac82860182611dc4565b91505060c083015184820360c0860152611ec68282611dc4565b91505060e0830151611edb60e0860182611e06565b506101008084015185830382870152611ef48382611dc4565b925050506101208084015185830382870152611f108382611dc4565b9695505050505050565b602081526000611c9c6020830184611e28565b634e487b7160e01b600052604160045260246000fd5b60405161014081016001600160401b0381118282101715611f6657611f66611f2d565b60405290565b604051601f8201601f191681016001600160401b0381118282101715611f9457611f94611f2d565b604052919050565b60006001600160401b03831115611fb557611fb5611f2d565b611fc8601f8401601f1916602001611f6c565b9050828152838383011115611fdc57600080fd5b828260208301376000602084830101529392505050565b60008060006060848603121561200857600080fd5b8335925060208401356001600160401b0381111561202557600080fd5b8401601f8101861361203657600080fd5b61204586823560208401611f9c565b925050604084013590509250925092565b60006001600160401b0382111561206f5761206f611f2d565b5060051b60200190565b80356001600160a01b038116811461209057600080fd5b919050565b80356001600160401b038116811461209057600080fd5b600082601f8301126120bd57600080fd5b611c9c83833560208501611f9c565b80356004811061209057600080fd5b600061014082840312156120ee57600080fd5b6120f6611f43565b905061210182612079565b81526020820135602082015261211960408301612095565b604082015261212a60608301612095565b606082015261213b60808301612095565b608082015260a08201356001600160401b038082111561215a57600080fd5b612166858386016120ac565b60a084015260c084013591508082111561217f57600080fd5b61218b858386016120ac565b60c084015261219c60e085016120cc565b60e0840152610100915081840135818111156121b757600080fd5b6121c3868287016120ac565b8385015250610120915081840135818111156121de57600080fd5b6121ea868287016120ac565b8385015250505092915050565b6000602080838503121561220a57600080fd5b82356001600160401b038082111561222157600080fd5b818501915085601f83011261223557600080fd5b813561224861224382612056565b611f6c565b81815260059190911b8301840190848101908883111561226757600080fd5b8585015b8381101561229f578035858111156122835760008081fd5b6122918b89838a01016120db565b84525091860191860161226b565b5098975050505050505050565b6020808252825182820181905260009190848201906040850190845b818110156122e4578351835292840192918401916001016122c8565b50909695505050505050565b6000806040838503121561230357600080fd5b8235915061231360208401612095565b90509250929050565b60006020828403121561232e57600080fd5b611c9c82612079565b60808152600061234a6080830185611e28565b9050611c9c6020830184611d64565b60006020828403121561236b57600080fd5b81356001600160401b0381111561238157600080fd5b61238d848285016120db565b949350505050565b600060208083850312156123a857600080fd5b82356001600160401b038111156123be57600080fd5b8301601f810185136123cf57600080fd5b80356123dd61224382612056565b81815260059190911b820183019083810190878311156123fc57600080fd5b928401925b8284101561241a57833582529284019290840190612401565b979650505050505050565b6000602080830181845280855180835260408601915060408160051b870101925083870160005b8281101561247a57603f19888603018452612468858351611e28565b9450928501929085019060010161244c565b5092979650505050505050565b60006020828403121561249957600080fd5b81356001600160401b038111156124af57600080fd5b61238d848285016120ac565b600060208083850312156124ce57600080fd5b82356001600160401b03808211156124e557600080fd5b818501915085601f8301126124f957600080fd5b813561250761224382612056565b81815260059190911b8301840190848101908883111561252657600080fd5b8585015b8381101561229f578035858111156125425760008081fd5b6125508b89838a01016120ac565b84525091860191860161252a565b60008060006060848603121561257357600080fd5b505081359360208301359350604090920135919050565b6000602080830181845280855180835260408601915060408160051b870101925083870160005b8281101561247a57603f198886030184526125cd858351611dc4565b945092850192908501906001016125b1565b600181811c908216806125f357607f821691505b6020821081036118aa57634e487b7160e01b600052602260045260246000fd5b60208082526017908201527621b0b63632b91034b9903737ba103a34329037bbb732b960491b604082015260600190565b634e487b7160e01b600052601160045260246000fd5b80820180821115611d9a57611d9a612644565b82815260008251612685816020850160208701611da0565b919091016020019392505050565b601f8211156126dd57600081815260208120601f850160051c810160208610156126ba5750805b601f850160051c820191505b818110156126d9578281556001016126c6565b5050505b505050565b81516001600160401b038111156126fb576126fb611f2d565b61270f8161270984546125df565b84612693565b602080601f831160018114612744576000841561272c5750858301515b600019600386901b1c1916600185901b1785556126d9565b600085815260208120601f198616915b8281101561277357888601518255948401946001909101908401612754565b50858210156127915787850151600019600388901b60f8161c191681555b5050505050600190811b01905550565b60006001600160401b038281166002600160401b031981016127c5576127c5612644565b6001019392505050565b6001600160401b03818116838216019080821115610bb257610bb2612644565b6001600160401b03828116828216039080821115610bb257610bb2612644565b60006001820161282157612821612644565b5060010190565b634e487b7160e01b600052603260045260246000fd5b60208082526010908201526f119a5b19481a185cc8195e1c1a5c995960821b604082015260600190565b6001600160c01b031960c088811b8216835287901b1660088201526010810185905283516000906128a0816030850160208901611da0565b8451908301906128b7816030840160208901611da0565b016030810193909352505060500195945050505050565b600082516128e0818460208701611da0565b9190910192915050565b6040815260006128fd6040830185611dc4565b905060018060401b03831660208301529392505050565b81810381811115611d9a57611d9a61264456fea2646970667358221220e800d94fc0b8b54b7d90a5e2560d721ac9e4672fc8be9fe6c6fd36ba2c3449ba64736f6c63430008130033",
					"opcodes": "PUSH1 0x80 PUSH1 0x40 MSTORE PUSH1 0x3 DUP1 SLOAD PUSH1 0x1 PUSH1 0x1 PUSH1 0xA0 SHL SUB NOT AND CALLER OR SWAP1 SSTORE PUSH2 0x295D DUP1 PUSH2 0x25 PUSH1 0x0 CODECOPY PUSH1 0x0 RETURN INVALID PUSH1 0x80 PUSH1 0x40 MSTORE CALLVALUE DUP1 ISZERO PUSH2 0x10 JUMPI PUSH1 0x0 DUP1 REVERT JUMPDEST POP PUSH1 0x4 CALLDATASIZE LT PUSH2 0xD0 JUMPI PUSH1 0x0 CALLDATALOAD PUSH1 0xE0 SHR DUP1 PUSH4 0x46DA5178 EQ PUSH2 0xD5 JUMPI DUP1 PUSH4 0x52F7347B EQ PUSH2 0xFE JUMPI DUP1 PUSH4 0x5F95C07B EQ PUSH2 0x11E JUMPI DUP1 PUSH4 0x6AB799F1 EQ PUSH2 0x133 JUMPI DUP1 PUSH4 0x6E0C19B1 EQ PUSH2 0x146 JUMPI DUP1 PUSH4 0x8DA5CB5B EQ PUSH2 0x166 JUMPI DUP1 PUSH4 0x91C03370 EQ PUSH2 0x191 JUMPI DUP1 PUSH4 0x9B26B2A8 EQ PUSH2 0x1A4 JUMPI DUP1 PUSH4 0xBF8BDAC1 EQ PUSH2 0x1B7 JUMPI DUP1 PUSH4 0xC652793D EQ PUSH2 0x1CA JUMPI DUP1 PUSH4 0xCA7E3CD4 EQ PUSH2 0x1EB JUMPI DUP1 PUSH4 0xD598D4C9 EQ PUSH2 0x20C JUMPI DUP1 PUSH4 0xEB070E7E EQ PUSH2 0x21F JUMPI DUP1 PUSH4 0xEDFF13AF EQ PUSH2 0x23F JUMPI DUP1 PUSH4 0xF25671C4 EQ PUSH2 0x26A JUMPI DUP1 PUSH4 0xFAB91940 EQ PUSH2 0x27D JUMPI JUMPDEST PUSH1 0x0 DUP1 REVERT JUMPDEST PUSH2 0xE8 PUSH2 0xE3 CALLDATASIZE PUSH1 0x4 PUSH2 0x1D4B JUMP JUMPDEST PUSH2 0x29D JUMP JUMPDEST PUSH1 0x40 MLOAD PUSH2 0xF5 SWAP2 SWAP1 PUSH2 0x1D8C JUMP JUMPDEST PUSH1 0x40 MLOAD DUP1 SWAP2 SUB SWAP1 RETURN JUMPDEST PUSH2 0x111 PUSH2 0x10C CALLDATASIZE PUSH1 0x4 PUSH2 0x1D4B JUMP JUMPDEST PUSH2 0x37A JUMP JUMPDEST PUSH1 0x40 MLOAD PUSH2 0xF5 SWAP2 SWAP1 PUSH2 0x1F1A JUMP JUMPDEST PUSH2 0x131 PUSH2 0x12C CALLDATASIZE PUSH1 0x4 PUSH2 0x1FF3 JUMP JUMPDEST PUSH2 0x672 JUMP JUMPDEST STOP JUMPDEST PUSH2 0x131 PUSH2 0x141 CALLDATASIZE PUSH1 0x4 PUSH2 0x1D4B JUMP JUMPDEST PUSH2 0x9D5 JUMP JUMPDEST PUSH2 0x159 PUSH2 0x154 CALLDATASIZE PUSH1 0x4 PUSH2 0x21F7 JUMP JUMPDEST PUSH2 0xB0C JUMP JUMPDEST PUSH1 0x40 MLOAD PUSH2 0xF5 SWAP2 SWAP1 PUSH2 0x22AC JUMP JUMPDEST PUSH1 0x3 SLOAD PUSH2 0x179 SWAP1 PUSH1 0x1 PUSH1 0x1 PUSH1 0xA0 SHL SUB AND DUP2 JUMP JUMPDEST PUSH1 0x40 MLOAD PUSH1 0x1 PUSH1 0x1 PUSH1 0xA0 SHL SUB SWAP1 SWAP2 AND DUP2 MSTORE PUSH1 0x20 ADD PUSH2 0xF5 JUMP JUMPDEST PUSH2 0x131 PUSH2 0x19F CALLDATASIZE PUSH1 0x4 PUSH2 0x22F0 JUMP JUMPDEST PUSH2 0xBB9 JUMP JUMPDEST PUSH2 0x131 PUSH2 0x1B2 CALLDATASIZE PUSH1 0x4 PUSH2 0x1D4B JUMP JUMPDEST PUSH2 0xCFF JUMP JUMPDEST PUSH2 0x131 PUSH2 0x1C5 CALLDATASIZE PUSH1 0x4 PUSH2 0x231C JUMP JUMPDEST PUSH2 0xE05 JUMP JUMPDEST PUSH2 0x1DD PUSH2 0x1D8 CALLDATASIZE PUSH1 0x4 PUSH2 0x1D4B JUMP JUMPDEST PUSH2 0xE51 JUMP JUMPDEST PUSH1 0x40 MLOAD PUSH2 0xF5 SWAP3 SWAP2 SWAP1 PUSH2 0x2337 JUMP JUMPDEST PUSH2 0x1FE PUSH2 0x1F9 CALLDATASIZE PUSH1 0x4 PUSH2 0x2359 JUMP JUMPDEST PUSH2 0x1174 JUMP JUMPDEST PUSH1 0x40 MLOAD SWAP1 DUP2 MSTORE PUSH1 0x20 ADD PUSH2 0xF5 JUMP JUMPDEST PUSH1 0x2 SLOAD PUSH2 0x179 SWAP1 PUSH1 0x1 PUSH1 0x1 PUSH1 0xA0 SHL SUB AND DUP2 JUMP JUMPDEST PUSH2 0x232 PUSH2 0x22D CALLDATASIZE PUSH1 0x4 PUSH2 0x2395 JUMP JUMPDEST PUSH2 0x1509 JUMP JUMPDEST PUSH1 0x40 MLOAD PUSH2 0xF5 SWAP2 SWAP1 PUSH2 0x2425 JUMP JUMPDEST PUSH2 0x1FE PUSH2 0x24D CALLDATASIZE PUSH1 0x4 PUSH2 0x2487 JUMP JUMPDEST DUP1 MLOAD PUSH1 0x20 DUP2 DUP4 ADD DUP2 ADD DUP1 MLOAD PUSH1 0x1 DUP3 MSTORE SWAP3 DUP3 ADD SWAP2 SWAP1 SWAP4 ADD KECCAK256 SWAP2 MSTORE SLOAD DUP2 JUMP JUMPDEST PUSH2 0x159 PUSH2 0x278 CALLDATASIZE PUSH1 0x4 PUSH2 0x24BB JUMP JUMPDEST PUSH2 0x18B0 JUMP JUMPDEST PUSH2 0x290 PUSH2 0x28B CALLDATASIZE PUSH1 0x4 PUSH2 0x255E JUMP JUMPDEST PUSH2 0x196C JUMP JUMPDEST PUSH1 0x40 MLOAD PUSH2 0xF5 SWAP2 SWAP1 PUSH2 0x258A JUMP JUMPDEST PUSH1 0x40 DUP1 MLOAD PUSH1 0x60 DUP2 ADD DUP3 MSTORE PUSH1 0x0 DUP1 DUP3 MSTORE PUSH1 0x20 DUP3 ADD DUP2 SWAP1 MSTORE SWAP2 DUP2 ADD SWAP2 SWAP1 SWAP2 MSTORE PUSH1 0x0 DUP3 DUP2 MSTORE PUSH1 0x20 DUP2 SWAP1 MSTORE PUSH1 0x40 DUP2 KECCAK256 SWAP1 PUSH1 0x5 DUP3 ADD SLOAD PUSH1 0xFF AND PUSH1 0x3 DUP2 GT ISZERO PUSH2 0x2E2 JUMPI PUSH2 0x2E2 PUSH2 0x1DF0 JUMP JUMPDEST EQ PUSH2 0x32D JUMPI PUSH1 0x40 MLOAD PUSH3 0x461BCD PUSH1 0xE5 SHL DUP2 MSTORE PUSH1 0x20 PUSH1 0x4 DUP3 ADD MSTORE PUSH1 0x16 PUSH1 0x24 DUP3 ADD MSTORE PUSH22 0x46696C652075706C6F6164206E6F7420657869737473 PUSH1 0x50 SHL PUSH1 0x44 DUP3 ADD MSTORE PUSH1 0x64 ADD JUMPDEST PUSH1 0x40 MLOAD DUP1 SWAP2 SUB SWAP1 REVERT JUMPDEST POP POP PUSH1 0x0 SWAP1 DUP2 MSTORE PUSH1 0x20 DUP2 DUP2 MSTORE PUSH1 0x40 SWAP2 DUP3 SWAP1 KECCAK256 DUP3 MLOAD PUSH1 0x60 DUP2 ADD DUP5 MSTORE PUSH1 0x8 DUP3 ADD SLOAD DUP2 MSTORE PUSH1 0x9 SWAP1 SWAP2 ADD SLOAD PUSH1 0x1 PUSH1 0x1 PUSH1 0x40 SHL SUB DUP1 DUP3 AND SWAP4 DUP4 ADD SWAP4 SWAP1 SWAP4 MSTORE PUSH1 0x1 PUSH1 0x40 SHL SWAP1 DIV SWAP1 SWAP2 AND SWAP2 DUP2 ADD SWAP2 SWAP1 SWAP2 MSTORE SWAP1 JUMP JUMPDEST PUSH2 0x382 PUSH2 0x1CA3 JUMP JUMPDEST PUSH1 0x0 DUP3 DUP2 MSTORE PUSH1 0x20 DUP2 DUP2 MSTORE PUSH1 0x40 SWAP2 DUP3 SWAP1 KECCAK256 DUP3 MLOAD PUSH2 0x140 DUP2 ADD DUP5 MSTORE DUP2 SLOAD PUSH1 0x1 PUSH1 0x1 PUSH1 0xA0 SHL SUB AND DUP2 MSTORE PUSH1 0x1 DUP3 ADD SLOAD SWAP3 DUP2 ADD SWAP3 SWAP1 SWAP3 MSTORE PUSH1 0x2 DUP2 ADD SLOAD PUSH1 0x1 PUSH1 0x1 PUSH1 0x40 SHL SUB DUP1 DUP3 AND SWAP5 DUP5 ADD SWAP5 SWAP1 SWAP5 MSTORE PUSH1 0x1 PUSH1 0x40 SHL DUP2 DIV DUP5 AND PUSH1 0x60 DUP5 ADD MSTORE PUSH1 0x1 PUSH1 0x80 SHL SWAP1 DIV SWAP1 SWAP3 AND PUSH1 0x80 DUP3 ADD MSTORE PUSH1 0x3 DUP3 ADD DUP1 SLOAD SWAP2 SWAP3 SWAP2 PUSH1 0xA0 DUP5 ADD SWAP2 SWAP1 PUSH2 0x400 SWAP1 PUSH2 0x25DF JUMP JUMPDEST DUP1 PUSH1 0x1F ADD PUSH1 0x20 DUP1 SWAP2 DIV MUL PUSH1 0x20 ADD PUSH1 0x40 MLOAD SWAP1 DUP2 ADD PUSH1 0x40 MSTORE DUP1 SWAP3 SWAP2 SWAP1 DUP2 DUP2 MSTORE PUSH1 0x20 ADD DUP3 DUP1 SLOAD PUSH2 0x42C SWAP1 PUSH2 0x25DF JUMP JUMPDEST DUP1 ISZERO PUSH2 0x479 JUMPI DUP1 PUSH1 0x1F LT PUSH2 0x44E JUMPI PUSH2 0x100 DUP1 DUP4 SLOAD DIV MUL DUP4 MSTORE SWAP2 PUSH1 0x20 ADD SWAP2 PUSH2 0x479 JUMP JUMPDEST DUP3 ADD SWAP2 SWAP1 PUSH1 0x0 MSTORE PUSH1 0x20 PUSH1 0x0 KECCAK256 SWAP1 JUMPDEST DUP2 SLOAD DUP2 MSTORE SWAP1 PUSH1 0x1 ADD SWAP1 PUSH1 0x20 ADD DUP1 DUP4 GT PUSH2 0x45C JUMPI DUP3 SWAP1 SUB PUSH1 0x1F AND DUP3 ADD SWAP2 JUMPDEST POP POP POP POP POP DUP2 MSTORE PUSH1 0x20 ADD PUSH1 0x4 DUP3 ADD DUP1 SLOAD PUSH2 0x492 SWAP1 PUSH2 0x25DF JUMP JUMPDEST DUP1 PUSH1 0x1F ADD PUSH1 0x20 DUP1 SWAP2 DIV MUL PUSH1 0x20 ADD PUSH1 0x40 MLOAD SWAP1 DUP2 ADD PUSH1 0x40 MSTORE DUP1 SWAP3 SWAP2 SWAP1 DUP2 DUP2 MSTORE PUSH1 0x20 ADD DUP3 DUP1 SLOAD PUSH2 0x4BE SWAP1 PUSH2 0x25DF JUMP JUMPDEST DUP1 ISZERO PUSH2 0x50B JUMPI DUP1 PUSH1 0x1F LT PUSH2 0x4E0 JUMPI PUSH2 0x100 DUP1 DUP4 SLOAD DIV MUL DUP4 MSTORE SWAP2 PUSH1 0x20 ADD SWAP2 PUSH2 0x50B JUMP JUMPDEST DUP3 ADD SWAP2 SWAP1 PUSH1 0x0 MSTORE PUSH1 0x20 PUSH1 0x0 KECCAK256 SWAP1 JUMPDEST DUP2 SLOAD DUP2 MSTORE SWAP1 PUSH1 0x1 ADD SWAP1 PUSH1 0x20 ADD DUP1 DUP4 GT PUSH2 0x4EE JUMPI DUP3 SWAP1 SUB PUSH1 0x1F AND DUP3 ADD SWAP2 JUMPDEST POP POP POP SWAP2 DUP4 MSTORE POP POP PUSH1 0x5 DUP3 ADD SLOAD PUSH1 0x20 SWAP1 SWAP2 ADD SWAP1 PUSH1 0xFF AND PUSH1 0x3 DUP2 GT ISZERO PUSH2 0x532 JUMPI PUSH2 0x532 PUSH2 0x1DF0 JUMP JUMPDEST PUSH1 0x3 DUP2 GT ISZERO PUSH2 0x543 JUMPI PUSH2 0x543 PUSH2 0x1DF0 JUMP JUMPDEST DUP2 MSTORE PUSH1 0x20 ADD PUSH1 0x6 DUP3 ADD DUP1 SLOAD PUSH2 0x557 SWAP1 PUSH2 0x25DF JUMP JUMPDEST DUP1 PUSH1 0x1F ADD PUSH1 0x20 DUP1 SWAP2 DIV MUL PUSH1 0x20 ADD PUSH1 0x40 MLOAD SWAP1 DUP2 ADD PUSH1 0x40 MSTORE DUP1 SWAP3 SWAP2 SWAP1 DUP2 DUP2 MSTORE PUSH1 0x20 ADD DUP3 DUP1 SLOAD PUSH2 0x583 SWAP1 PUSH2 0x25DF JUMP JUMPDEST DUP1 ISZERO PUSH2 0x5D0 JUMPI DUP1 PUSH1 0x1F LT PUSH2 0x5A5 JUMPI PUSH2 0x100 DUP1 DUP4 SLOAD DIV MUL DUP4 MSTORE SWAP2 PUSH1 0x20 ADD SWAP2 PUSH2 0x5D0 JUMP JUMPDEST DUP3 ADD SWAP2 SWAP1 PUSH1 0x0 MSTORE PUSH1 0x20 PUSH1 0x0 KECCAK256 SWAP1 JUMPDEST DUP2 SLOAD DUP2 MSTORE SWAP1 PUSH1 0x1 ADD SWAP1 PUSH1 0x20 ADD DUP1 DUP4 GT PUSH2 0x5B3 JUMPI DUP3 SWAP1 SUB PUSH1 0x1F AND DUP3 ADD SWAP2 JUMPDEST POP POP POP POP POP DUP2 MSTORE PUSH1 0x20 ADD PUSH1 0x7 DUP3 ADD DUP1 SLOAD PUSH2 0x5E9 SWAP1 PUSH2 0x25DF JUMP JUMPDEST DUP1 PUSH1 0x1F ADD PUSH1 0x20 DUP1 SWAP2 DIV MUL PUSH1 0x20 ADD PUSH1 0x40 MLOAD SWAP1 DUP2 ADD PUSH1 0x40 MSTORE DUP1 SWAP3 SWAP2 SWAP1 DUP2 DUP2 MSTORE PUSH1 0x20 ADD DUP3 DUP1 SLOAD PUSH2 0x615 SWAP1 PUSH2 0x25DF JUMP JUMPDEST DUP1 ISZERO PUSH2 0x662 JUMPI DUP1 PUSH1 0x1F LT PUSH2 0x637 JUMPI PUSH2 0x100 DUP1 DUP4 SLOAD DIV MUL DUP4 MSTORE SWAP2 PUSH1 0x20 ADD SWAP2 PUSH2 0x662 JUMP JUMPDEST DUP3 ADD SWAP2 SWAP1 PUSH1 0x0 MSTORE PUSH1 0x20 PUSH1 0x0 KECCAK256 SWAP1 JUMPDEST DUP2 SLOAD DUP2 MSTORE SWAP1 PUSH1 0x1 ADD SWAP1 PUSH1 0x20 ADD DUP1 DUP4 GT PUSH2 0x645 JUMPI DUP3 SWAP1 SUB PUSH1 0x1F AND DUP3 ADD SWAP2 JUMPDEST POP POP POP POP POP DUP2 MSTORE POP POP SWAP1 POP SWAP2 SWAP1 POP JUMP JUMPDEST PUSH1 0x0 DUP3 MLOAD GT DUP1 ISZERO PUSH2 0x686 JUMPI POP PUSH2 0x2800 DUP3 MLOAD GT ISZERO JUMPDEST PUSH2 0x6C7 JUMPI PUSH1 0x40 MLOAD PUSH3 0x461BCD PUSH1 0xE5 SHL DUP2 MSTORE PUSH1 0x20 PUSH1 0x4 DUP3 ADD MSTORE PUSH1 0x12 PUSH1 0x24 DUP3 ADD MSTORE PUSH18 0x496E76616C6964206368756E6B2073697A65 PUSH1 0x70 SHL PUSH1 0x44 DUP3 ADD MSTORE PUSH1 0x64 ADD PUSH2 0x324 JUMP JUMPDEST PUSH1 0x0 DUP4 DUP2 MSTORE PUSH1 0x20 DUP2 SWAP1 MSTORE PUSH1 0x40 SWAP1 KECCAK256 DUP1 SLOAD PUSH1 0x1 PUSH1 0x1 PUSH1 0xA0 SHL SUB AND CALLER EQ PUSH2 0x6FE JUMPI PUSH1 0x40 MLOAD PUSH3 0x461BCD PUSH1 0xE5 SHL DUP2 MSTORE PUSH1 0x4 ADD PUSH2 0x324 SWAP1 PUSH2 0x2613 JUMP JUMPDEST PUSH1 0x2 DUP2 ADD SLOAD DUP4 MLOAD PUSH1 0x9 DUP4 ADD SLOAD PUSH1 0x1 PUSH1 0x1 PUSH1 0x40 SHL SUB SWAP3 DUP4 AND SWAP3 PUSH2 0x728 SWAP3 SWAP2 PUSH1 0x1 PUSH1 0x40 SHL SWAP1 DIV AND PUSH2 0x265A JUMP JUMPDEST GT ISZERO PUSH2 0x772 JUMPI PUSH1 0x40 MLOAD PUSH3 0x461BCD PUSH1 0xE5 SHL DUP2 MSTORE PUSH1 0x20 PUSH1 0x4 DUP3 ADD MSTORE PUSH1 0x19 PUSH1 0x24 DUP3 ADD MSTORE PUSH25 0x86D0EADCD640CAF0C6CACAC8E640CCD2D8CA40D8CADCCEE8D PUSH1 0x3B SHL PUSH1 0x44 DUP3 ADD MSTORE PUSH1 0x64 ADD PUSH2 0x324 JUMP JUMPDEST PUSH1 0x0 PUSH1 0x5 DUP3 ADD SLOAD PUSH1 0xFF AND PUSH1 0x3 DUP2 GT ISZERO PUSH2 0x78D JUMPI PUSH2 0x78D PUSH2 0x1DF0 JUMP JUMPDEST EQ PUSH2 0x7D8 JUMPI PUSH1 0x40 MLOAD PUSH3 0x461BCD PUSH1 0xE5 SHL DUP2 MSTORE PUSH1 0x20 PUSH1 0x4 DUP3 ADD MSTORE PUSH1 0x1B PUSH1 0x24 DUP3 ADD MSTORE PUSH27 0x119A5B19481A5CC81B9BDD0818995A5B99C81C1C9BD8D95CDCD959 PUSH1 0x2A SHL PUSH1 0x44 DUP3 ADD MSTORE PUSH1 0x64 ADD PUSH2 0x324 JUMP JUMPDEST PUSH1 0x8 DUP2 ADD SLOAD PUSH1 0x40 MLOAD PUSH1 0x0 SWAP2 PUSH2 0x7F1 SWAP2 DUP7 SWAP1 PUSH1 0x20 ADD PUSH2 0x266D JUMP JUMPDEST PUSH1 0x40 MLOAD PUSH1 0x20 DUP2 DUP4 SUB SUB DUP2 MSTORE SWAP1 PUSH1 0x40 MSTORE DUP1 MLOAD SWAP1 PUSH1 0x20 ADD KECCAK256 SWAP1 POP DUP3 DUP2 EQ PUSH2 0x84E JUMPI PUSH1 0x40 MLOAD PUSH3 0x461BCD PUSH1 0xE5 SHL DUP2 MSTORE PUSH1 0x20 PUSH1 0x4 DUP3 ADD MSTORE PUSH1 0x13 PUSH1 0x24 DUP3 ADD MSTORE PUSH19 0x86D0EADCD640D0C2E6D040DAD2E6DAC2E8C6D PUSH1 0x6B SHL PUSH1 0x44 DUP3 ADD MSTORE PUSH1 0x64 ADD PUSH2 0x324 JUMP JUMPDEST PUSH1 0x8 DUP3 ADD DUP2 SWAP1 SSTORE PUSH1 0x9 DUP3 ADD SLOAD PUSH1 0x1 PUSH1 0x1 PUSH1 0x40 SHL SUB AND PUSH1 0x0 SWAP1 DUP2 MSTORE PUSH1 0xA DUP4 ADD PUSH1 0x20 MSTORE PUSH1 0x40 SWAP1 KECCAK256 PUSH2 0x87D DUP6 DUP3 PUSH2 0x26E2 JUMP JUMPDEST POP PUSH1 0x9 DUP3 ADD DUP1 SLOAD PUSH1 0x1 PUSH1 0x1 PUSH1 0x40 SHL SUB AND SWAP1 PUSH1 0x0 PUSH2 0x899 DUP4 PUSH2 0x27A1 JUMP JUMPDEST SWAP2 SWAP1 PUSH2 0x100 EXP DUP2 SLOAD DUP2 PUSH1 0x1 PUSH1 0x1 PUSH1 0x40 SHL SUB MUL NOT AND SWAP1 DUP4 PUSH1 0x1 PUSH1 0x1 PUSH1 0x40 SHL SUB AND MUL OR SWAP1 SSTORE POP POP DUP4 MLOAD DUP3 PUSH1 0x8 ADD PUSH1 0x1 ADD PUSH1 0x8 DUP3 DUP3 DUP3 SWAP1 SLOAD SWAP1 PUSH2 0x100 EXP SWAP1 DIV PUSH1 0x1 PUSH1 0x1 PUSH1 0x40 SHL SUB AND PUSH2 0x8E8 SWAP2 SWAP1 PUSH2 0x27CF JUMP JUMPDEST DUP3 SLOAD PUSH2 0x100 SWAP3 SWAP1 SWAP3 EXP PUSH1 0x1 PUSH1 0x1 PUSH1 0x40 SHL SUB DUP2 DUP2 MUL NOT SWAP1 SWAP4 AND SWAP2 DUP4 AND MUL OR SWAP1 SWAP2 SSTORE PUSH1 0x9 DUP5 ADD SLOAD PUSH1 0x2 DUP6 ADD SLOAD PUSH1 0x1 PUSH1 0x40 SHL SWAP1 SWAP2 DIV DUP3 AND SWAP2 AND EQ SWAP1 POP DUP1 PUSH2 0x947 JUMPI POP PUSH1 0x2 DUP3 ADD SLOAD PUSH1 0x9 DUP4 ADD SLOAD PUSH1 0x1 PUSH1 0x1 PUSH1 0x40 SHL SUB SWAP1 DUP2 AND PUSH1 0x1 PUSH1 0x40 SHL SWAP1 SWAP3 DIV AND EQ JUMPDEST ISZERO PUSH2 0x975 JUMPI PUSH1 0x5 DUP3 ADD DUP1 SLOAD PUSH1 0xFF NOT AND PUSH1 0x1 OR SWAP1 SSTORE PUSH1 0x0 PUSH1 0x8 DUP4 ADD SSTORE PUSH1 0x9 DUP3 ADD DUP1 SLOAD PUSH1 0x1 PUSH1 0x1 PUSH1 0x80 SHL SUB NOT AND SWAP1 SSTORE JUMPDEST PUSH1 0x9 DUP3 ADD SLOAD DUP6 SWAP1 PUSH32 0x9194BCEE830B22B5E81CCD3C7EFB4811CA70DFDD9BBFAA1719D15DFC18C6417D SWAP1 PUSH2 0x9B3 SWAP1 PUSH1 0x1 SWAP1 PUSH1 0x1 PUSH1 0x1 PUSH1 0x40 SHL SUB AND PUSH2 0x27EF JUMP JUMPDEST PUSH1 0x40 MLOAD PUSH1 0x1 PUSH1 0x1 PUSH1 0x40 SHL SUB SWAP1 SWAP2 AND DUP2 MSTORE PUSH1 0x20 ADD PUSH1 0x40 MLOAD DUP1 SWAP2 SUB SWAP1 LOG2 POP POP POP POP POP JUMP JUMPDEST PUSH1 0x0 DUP2 DUP2 MSTORE PUSH1 0x20 DUP2 SWAP1 MSTORE PUSH1 0x40 SWAP1 KECCAK256 DUP1 SLOAD PUSH1 0x1 PUSH1 0x1 PUSH1 0xA0 SHL SUB AND CALLER EQ PUSH2 0xA0C JUMPI PUSH1 0x40 MLOAD PUSH3 0x461BCD PUSH1 0xE5 SHL DUP2 MSTORE PUSH1 0x4 ADD PUSH2 0x324 SWAP1 PUSH2 0x2613 JUMP JUMPDEST PUSH1 0x3 PUSH1 0x5 DUP3 ADD SLOAD PUSH1 0xFF AND PUSH1 0x3 DUP2 GT ISZERO PUSH2 0xA27 JUMPI PUSH2 0xA27 PUSH2 0x1DF0 JUMP JUMPDEST SUB PUSH2 0xA6B JUMPI PUSH1 0x40 MLOAD PUSH3 0x461BCD PUSH1 0xE5 SHL DUP2 MSTORE PUSH1 0x20 PUSH1 0x4 DUP3 ADD MSTORE PUSH1 0x14 PUSH1 0x24 DUP3 ADD MSTORE PUSH20 0x119A5B1948185B1C9958591E4819195B195D1959 PUSH1 0x62 SHL PUSH1 0x44 DUP3 ADD MSTORE PUSH1 0x64 ADD PUSH2 0x324 JUMP JUMPDEST PUSH1 0x5 DUP2 ADD DUP1 SLOAD PUSH1 0xFF NOT AND PUSH1 0x3 OR SWAP1 SSTORE PUSH1 0x0 JUMPDEST PUSH1 0x2 DUP3 ADD SLOAD PUSH1 0x1 PUSH1 0x40 SHL SWAP1 DIV PUSH1 0x1 PUSH1 0x1 PUSH1 0x40 SHL SUB AND DUP2 LT ISZERO PUSH2 0xAC4 JUMPI PUSH1 0x0 DUP2 DUP2 MSTORE PUSH1 0xA DUP4 ADD PUSH1 0x20 MSTORE PUSH1 0x40 DUP2 KECCAK256 PUSH2 0xAB2 SWAP2 PUSH2 0x1CF5 JUMP JUMPDEST DUP1 PUSH2 0xABC DUP2 PUSH2 0x280F JUMP JUMPDEST SWAP2 POP POP PUSH2 0xA7D JUMP JUMPDEST POP PUSH1 0x0 PUSH1 0x8 DUP3 ADD DUP2 SWAP1 SSTORE PUSH1 0x9 DUP3 ADD DUP1 SLOAD PUSH1 0x1 PUSH1 0x1 PUSH1 0x80 SHL SUB NOT AND SWAP1 SSTORE PUSH1 0x40 MLOAD DUP4 SWAP2 PUSH32 0x88EFEFB1EAEC3D3A0E08ED74BC99A3407D454B5DA66112FED68B20D54837CCAE SWAP2 LOG2 POP POP JUMP JUMPDEST PUSH1 0x60 PUSH1 0x0 DUP3 MLOAD PUSH1 0x1 PUSH1 0x1 PUSH1 0x40 SHL SUB DUP2 GT ISZERO PUSH2 0xB29 JUMPI PUSH2 0xB29 PUSH2 0x1F2D JUMP JUMPDEST PUSH1 0x40 MLOAD SWAP1 DUP1 DUP3 MSTORE DUP1 PUSH1 0x20 MUL PUSH1 0x20 ADD DUP3 ADD PUSH1 0x40 MSTORE DUP1 ISZERO PUSH2 0xB52 JUMPI DUP2 PUSH1 0x20 ADD PUSH1 0x20 DUP3 MUL DUP1 CALLDATASIZE DUP4 CALLDATACOPY ADD SWAP1 POP JUMPDEST POP SWAP1 POP PUSH1 0x0 JUMPDEST DUP4 MLOAD DUP2 LT ISZERO PUSH2 0xBB2 JUMPI PUSH2 0xB83 DUP5 DUP3 DUP2 MLOAD DUP2 LT PUSH2 0xB76 JUMPI PUSH2 0xB76 PUSH2 0x2828 JUMP JUMPDEST PUSH1 0x20 MUL PUSH1 0x20 ADD ADD MLOAD PUSH2 0x1174 JUMP JUMPDEST DUP3 DUP3 DUP2 MLOAD DUP2 LT PUSH2 0xB95 JUMPI PUSH2 0xB95 PUSH2 0x2828 JUMP JUMPDEST PUSH1 0x20 SWAP1 DUP2 MUL SWAP2 SWAP1 SWAP2 ADD ADD MSTORE DUP1 PUSH2 0xBAA DUP2 PUSH2 0x280F JUMP JUMPDEST SWAP2 POP POP PUSH2 0xB58 JUMP JUMPDEST POP SWAP3 SWAP2 POP POP JUMP JUMPDEST PUSH1 0x0 DUP3 DUP2 MSTORE PUSH1 0x20 DUP2 SWAP1 MSTORE PUSH1 0x40 SWAP1 KECCAK256 DUP1 SLOAD PUSH1 0x1 PUSH1 0x1 PUSH1 0xA0 SHL SUB AND CALLER EQ PUSH2 0xBF0 JUMPI PUSH1 0x40 MLOAD PUSH3 0x461BCD PUSH1 0xE5 SHL DUP2 MSTORE PUSH1 0x4 ADD PUSH2 0x324 SWAP1 PUSH2 0x2613 JUMP JUMPDEST PUSH1 0x3 PUSH1 0x5 DUP3 ADD SLOAD PUSH1 0xFF AND PUSH1 0x3 DUP2 GT ISZERO PUSH2 0xC0B JUMPI PUSH2 0xC0B PUSH2 0x1DF0 JUMP JUMPDEST SUB PUSH2 0xC50 JUMPI PUSH1 0x40 MLOAD PUSH3 0x461BCD PUSH1 0xE5 SHL DUP2 MSTORE PUSH1 0x20 PUSH1 0x4 DUP3 ADD MSTORE PUSH1 0x15 PUSH1 0x24 DUP3 ADD MSTORE PUSH21 0x119A5B19481A185CC81899595B8819195B195D1959 PUSH1 0x5A SHL PUSH1 0x44 DUP3 ADD MSTORE PUSH1 0x64 ADD PUSH2 0x324 JUMP JUMPDEST PUSH2 0xC5D TIMESTAMP PUSH3 0x15180 PUSH2 0x265A JUMP JUMPDEST DUP3 PUSH1 0x1 PUSH1 0x1 PUSH1 0x40 SHL SUB AND GT PUSH2 0xCD1 JUMPI PUSH1 0x40 MLOAD PUSH3 0x461BCD PUSH1 0xE5 SHL DUP2 MSTORE PUSH1 0x20 PUSH1 0x4 DUP3 ADD MSTORE PUSH1 0x34 PUSH1 0x24 DUP3 ADD MSTORE PUSH32 0x4E6577206578706972652074696D65206D757374206265206174206C65617374 PUSH1 0x44 DUP3 ADD MSTORE PUSH20 0x20312064617920696E2074686520667574757265 PUSH1 0x60 SHL PUSH1 0x64 DUP3 ADD MSTORE PUSH1 0x84 ADD PUSH2 0x324 JUMP JUMPDEST PUSH1 0x2 ADD DUP1 SLOAD PUSH1 0x1 PUSH1 0x1 PUSH1 0x40 SHL SUB SWAP1 SWAP3 AND PUSH1 0x1 PUSH1 0x80 SHL MUL PUSH1 0x1 PUSH1 0x80 SHL PUSH1 0x1 PUSH1 0xC0 SHL SUB NOT SWAP1 SWAP3 AND SWAP2 SWAP1 SWAP2 OR SWAP1 SSTORE POP JUMP JUMPDEST PUSH1 0x0 DUP2 DUP2 MSTORE PUSH1 0x20 DUP2 SWAP1 MSTORE PUSH1 0x40 SWAP1 KECCAK256 DUP1 SLOAD PUSH1 0x1 PUSH1 0x1 PUSH1 0xA0 SHL SUB AND CALLER EQ PUSH2 0xD36 JUMPI PUSH1 0x40 MLOAD PUSH3 0x461BCD PUSH1 0xE5 SHL DUP2 MSTORE PUSH1 0x4 ADD PUSH2 0x324 SWAP1 PUSH2 0x2613 JUMP JUMPDEST PUSH1 0x1 PUSH1 0x5 DUP3 ADD SLOAD PUSH1 0xFF AND PUSH1 0x3 DUP2 GT ISZERO PUSH2 0xD51 JUMPI PUSH2 0xD51 PUSH2 0x1DF0 JUMP JUMPDEST EQ PUSH2 0xD93 JUMPI PUSH1 0x40 MLOAD PUSH3 0x461BCD PUSH1 0xE5 SHL DUP2 MSTORE PUSH1 0x20 PUSH1 0x4 DUP3 ADD MSTORE PUSH1 0x12 PUSH1 0x24 DUP3 ADD MSTORE PUSH18 0x46696C65206973206E6F7420616374697665 PUSH1 0x70 SHL PUSH1 0x44 DUP3 ADD MSTORE PUSH1 0x64 ADD PUSH2 0x324 JUMP JUMPDEST PUSH1 0x2 DUP2 ADD SLOAD PUSH1 0x1 PUSH1 0x80 SHL SWAP1 DIV PUSH1 0x1 PUSH1 0x1 PUSH1 0x40 SHL SUB AND TIMESTAMP GT ISZERO PUSH2 0xDC7 JUMPI PUSH1 0x40 MLOAD PUSH3 0x461BCD PUSH1 0xE5 SHL DUP2 MSTORE PUSH1 0x4 ADD PUSH2 0x324 SWAP1 PUSH2 0x283E JUMP JUMPDEST PUSH1 0x5 DUP2 ADD DUP1 SLOAD PUSH1 0xFF NOT AND PUSH1 0x2 OR SWAP1 SSTORE PUSH1 0x40 MLOAD DUP3 SWAP1 PUSH32 0x45987CD84C3C0EC7C3B91DDE29AFFE01363C3777AEC1247553883B2431747330 SWAP1 PUSH1 0x0 SWAP1 LOG2 POP POP JUMP JUMPDEST PUSH1 0x3 SLOAD PUSH1 0x1 PUSH1 0x1 PUSH1 0xA0 SHL SUB AND CALLER EQ PUSH2 0xE2F JUMPI PUSH1 0x40 MLOAD PUSH3 0x461BCD PUSH1 0xE5 SHL DUP2 MSTORE PUSH1 0x4 ADD PUSH2 0x324 SWAP1 PUSH2 0x2613 JUMP JUMPDEST PUSH1 0x2 DUP1 SLOAD PUSH1 0x1 PUSH1 0x1 PUSH1 0xA0 SHL SUB NOT AND PUSH1 0x1 PUSH1 0x1 PUSH1 0xA0 SHL SUB SWAP3 SWAP1 SWAP3 AND SWAP2 SWAP1 SWAP2 OR SWAP1 SSTORE JUMP JUMPDEST PUSH1 0x0 PUSH1 0x20 DUP2 DUP2 MSTORE SWAP2 DUP2 MSTORE PUSH1 0x40 SWAP1 DUP2 SWAP1 KECCAK256 DUP2 MLOAD PUSH2 0x140 DUP2 ADD DUP4 MSTORE DUP2 SLOAD PUSH1 0x1 PUSH1 0x1 PUSH1 0xA0 SHL SUB AND DUP2 MSTORE PUSH1 0x1 DUP3 ADD SLOAD SWAP4 DUP2 ADD SWAP4 SWAP1 SWAP4 MSTORE PUSH1 0x2 DUP2 ADD SLOAD PUSH1 0x1 PUSH1 0x1 PUSH1 0x40 SHL SUB DUP1 DUP3 AND SWAP4 DUP6 ADD SWAP4 SWAP1 SWAP4 MSTORE PUSH1 0x1 PUSH1 0x40 SHL DUP2 DIV DUP4 AND PUSH1 0x60 DUP6 ADD MSTORE PUSH1 0x1 PUSH1 0x80 SHL SWAP1 DIV SWAP1 SWAP2 AND PUSH1 0x80 DUP4 ADD MSTORE PUSH1 0x3 DUP2 ADD DUP1 SLOAD SWAP2 SWAP3 SWAP2 DUP4 SWAP2 PUSH1 0xA0 DUP5 ADD SWAP2 PUSH2 0xED0 SWAP1 PUSH2 0x25DF JUMP JUMPDEST DUP1 PUSH1 0x1F ADD PUSH1 0x20 DUP1 SWAP2 DIV MUL PUSH1 0x20 ADD PUSH1 0x40 MLOAD SWAP1 DUP2 ADD PUSH1 0x40 MSTORE DUP1 SWAP3 SWAP2 SWAP1 DUP2 DUP2 MSTORE PUSH1 0x20 ADD DUP3 DUP1 SLOAD PUSH2 0xEFC SWAP1 PUSH2 0x25DF JUMP JUMPDEST DUP1 ISZERO PUSH2 0xF49 JUMPI DUP1 PUSH1 0x1F LT PUSH2 0xF1E JUMPI PUSH2 0x100 DUP1 DUP4 SLOAD DIV MUL DUP4 MSTORE SWAP2 PUSH1 0x20 ADD SWAP2 PUSH2 0xF49 JUMP JUMPDEST DUP3 ADD SWAP2 SWAP1 PUSH1 0x0 MSTORE PUSH1 0x20 PUSH1 0x0 KECCAK256 SWAP1 JUMPDEST DUP2 SLOAD DUP2 MSTORE SWAP1 PUSH1 0x1 ADD SWAP1 PUSH1 0x20 ADD DUP1 DUP4 GT PUSH2 0xF2C JUMPI DUP3 SWAP1 SUB PUSH1 0x1F AND DUP3 ADD SWAP2 JUMPDEST POP POP POP POP POP DUP2 MSTORE PUSH1 0x20 ADD PUSH1 0x4 DUP3 ADD DUP1 SLOAD PUSH2 0xF62 SWAP1 PUSH2 0x25DF JUMP JUMPDEST DUP1 PUSH1 0x1F ADD PUSH1 0x20 DUP1 SWAP2 DIV MUL PUSH1 0x20 ADD PUSH1 0x40 MLOAD SWAP1 DUP2 ADD PUSH1 0x40 MSTORE DUP1 SWAP3 SWAP2 SWAP1 DUP2 DUP2 MSTORE PUSH1 0x20 ADD DUP3 DUP1 SLOAD PUSH2 0xF8E SWAP1 PUSH2 0x25DF JUMP JUMPDEST DUP1 ISZERO PUSH2 0xFDB JUMPI DUP1 PUSH1 0x1F LT PUSH2 0xFB0 JUMPI PUSH2 0x100 DUP1 DUP4 SLOAD DIV MUL DUP4 MSTORE SWAP2 PUSH1 0x20 ADD SWAP2 PUSH2 0xFDB JUMP JUMPDEST DUP3 ADD SWAP2 SWAP1 PUSH1 0x0 MSTORE PUSH1 0x20 PUSH1 0x0 KECCAK256 SWAP1 JUMPDEST DUP2 SLOAD DUP2 MSTORE SWAP1 PUSH1 0x1 ADD SWAP1 PUSH1 0x20 ADD DUP1 DUP4 GT PUSH2 0xFBE JUMPI DUP3 SWAP1 SUB PUSH1 0x1F AND DUP3 ADD SWAP2 JUMPDEST POP POP POP SWAP2 DUP4 MSTORE POP POP PUSH1 0x5 DUP3 ADD SLOAD PUSH1 0x20 SWAP1 SWAP2 ADD SWAP1 PUSH1 0xFF AND PUSH1 0x3 DUP2 GT ISZERO PUSH2 0x1002 JUMPI PUSH2 0x1002 PUSH2 0x1DF0 JUMP JUMPDEST PUSH1 0x3 DUP2 GT ISZERO PUSH2 0x1013 JUMPI PUSH2 0x1013 PUSH2 0x1DF0 JUMP JUMPDEST DUP2 MSTORE PUSH1 0x20 ADD PUSH1 0x6 DUP3 ADD DUP1 SLOAD PUSH2 0x1027 SWAP1 PUSH2 0x25DF JUMP JUMPDEST DUP1 PUSH1 0x1F ADD PUSH1 0x20 DUP1 SWAP2 DIV MUL PUSH1 0x20 ADD PUSH1 0x40 MLOAD SWAP1 DUP2 ADD PUSH1 0x40 MSTORE DUP1 SWAP3 SWAP2 SWAP1 DUP2 DUP2 MSTORE PUSH1 0x20 ADD DUP3 DUP1 SLOAD PUSH2 0x1053 SWAP1 PUSH2 0x25DF JUMP JUMPDEST DUP1 ISZERO PUSH2 0x10A0 JUMPI DUP1 PUSH1 0x1F LT PUSH2 0x1075 JUMPI PUSH2 0x100 DUP1 DUP4 SLOAD DIV MUL DUP4 MSTORE SWAP2 PUSH1 0x20 ADD SWAP2 PUSH2 0x10A0 JUMP JUMPDEST DUP3 ADD SWAP2 SWAP1 PUSH1 0x0 MSTORE PUSH1 0x20 PUSH1 0x0 KECCAK256 SWAP1 JUMPDEST DUP2 SLOAD DUP2 MSTORE SWAP1 PUSH1 0x1 ADD SWAP1 PUSH1 0x20 ADD DUP1 DUP4 GT PUSH2 0x1083 JUMPI DUP3 SWAP1 SUB PUSH1 0x1F AND DUP3 ADD SWAP2 JUMPDEST POP POP POP POP POP DUP2 MSTORE PUSH1 0x20 ADD PUSH1 0x7 DUP3 ADD DUP1 SLOAD PUSH2 0x10B9 SWAP1 PUSH2 0x25DF JUMP JUMPDEST DUP1 PUSH1 0x1F ADD PUSH1 0x20 DUP1 SWAP2 DIV MUL PUSH1 0x20 ADD PUSH1 0x40 MLOAD SWAP1 DUP2 ADD PUSH1 0x40 MSTORE DUP1 SWAP3 SWAP2 SWAP1 DUP2 DUP2 MSTORE PUSH1 0x20 ADD DUP3 DUP1 SLOAD PUSH2 0x10E5 SWAP1 PUSH2 0x25DF JUMP JUMPDEST DUP1 ISZERO PUSH2 0x1132 JUMPI DUP1 PUSH1 0x1F LT PUSH2 0x1107 JUMPI PUSH2 0x100 DUP1 DUP4 SLOAD DIV MUL DUP4 MSTORE SWAP2 PUSH1 0x20 ADD SWAP2 PUSH2 0x1132 JUMP JUMPDEST DUP3 ADD SWAP2 SWAP1 PUSH1 0x0 MSTORE PUSH1 0x20 PUSH1 0x0 KECCAK256 SWAP1 JUMPDEST DUP2 SLOAD DUP2 MSTORE SWAP1 PUSH1 0x1 ADD SWAP1 PUSH1 0x20 ADD DUP1 DUP4 GT PUSH2 0x1115 JUMPI DUP3 SWAP1 SUB PUSH1 0x1F AND DUP3 ADD SWAP2 JUMPDEST POP POP POP SWAP2 SWAP1 SWAP3 MSTORE POP POP PUSH1 0x40 DUP1 MLOAD PUSH1 0x60 DUP2 ADD DUP3 MSTORE PUSH1 0x8 DUP6 ADD SLOAD DUP2 MSTORE PUSH1 0x9 SWAP1 SWAP5 ADD SLOAD PUSH1 0x1 PUSH1 0x1 PUSH1 0x40 SHL SUB DUP1 DUP3 AND PUSH1 0x20 DUP8 ADD MSTORE PUSH1 0x1 PUSH1 0x40 SHL SWAP1 SWAP2 DIV AND SWAP1 DUP5 ADD MSTORE POP SWAP1 DUP3 JUMP JUMPDEST PUSH1 0x0 PUSH2 0x1183 TIMESTAMP PUSH3 0x15180 PUSH2 0x265A JUMP JUMPDEST DUP3 PUSH1 0x80 ADD MLOAD PUSH1 0x1 PUSH1 0x1 PUSH1 0x40 SHL SUB AND GT PUSH2 0x11F7 JUMPI PUSH1 0x40 MLOAD PUSH3 0x461BCD PUSH1 0xE5 SHL DUP2 MSTORE PUSH1 0x20 PUSH1 0x4 DUP3 ADD MSTORE PUSH1 0x30 PUSH1 0x24 DUP3 ADD MSTORE PUSH32 0x4578706972652074696D65206D757374206265206174206C6561737420312064 PUSH1 0x44 DUP3 ADD MSTORE PUSH16 0x617920696E2074686520667574757265 PUSH1 0x80 SHL PUSH1 0x64 DUP3 ADD MSTORE PUSH1 0x84 ADD PUSH2 0x324 JUMP JUMPDEST DUP2 PUSH1 0x40 ADD MLOAD DUP3 PUSH1 0x80 ADD MLOAD DUP4 PUSH1 0x20 ADD MLOAD DUP5 PUSH1 0xA0 ADD MLOAD DUP6 PUSH1 0xC0 ADD MLOAD TIMESTAMP PUSH1 0x40 MLOAD PUSH1 0x20 ADD PUSH2 0x1226 SWAP7 SWAP6 SWAP5 SWAP4 SWAP3 SWAP2 SWAP1 PUSH2 0x2868 JUMP JUMPDEST PUSH1 0x40 MLOAD PUSH1 0x20 DUP2 DUP4 SUB SUB DUP2 MSTORE SWAP1 PUSH1 0x40 MSTORE DUP1 MLOAD SWAP1 PUSH1 0x20 ADD KECCAK256 SWAP1 POP DUP1 PUSH1 0x1 DUP4 PUSH1 0xA0 ADD MLOAD PUSH1 0x40 MLOAD PUSH2 0x1253 SWAP2 SWAP1 PUSH2 0x28CE JUMP JUMPDEST SWAP1 DUP2 MSTORE PUSH1 0x40 DUP1 MLOAD PUSH1 0x20 SWAP3 DUP2 SWAP1 SUB DUP4 ADD SWAP1 KECCAK256 SWAP3 SWAP1 SWAP3 SSTORE PUSH1 0x0 DUP4 DUP2 MSTORE SWAP1 DUP2 SWAP1 MSTORE KECCAK256 PUSH1 0x1 ADD SLOAD ISZERO PUSH2 0x12B9 JUMPI PUSH1 0x40 MLOAD PUSH3 0x461BCD PUSH1 0xE5 SHL DUP2 MSTORE PUSH1 0x20 PUSH1 0x4 DUP3 ADD MSTORE PUSH1 0x13 PUSH1 0x24 DUP3 ADD MSTORE PUSH19 0x46696C6520616C726561647920657869737473 PUSH1 0x68 SHL PUSH1 0x44 DUP3 ADD MSTORE PUSH1 0x64 ADD PUSH2 0x324 JUMP JUMPDEST PUSH1 0x40 MLOAD DUP1 PUSH2 0x140 ADD PUSH1 0x40 MSTORE DUP1 CALLER PUSH1 0x1 PUSH1 0x1 PUSH1 0xA0 SHL SUB AND DUP2 MSTORE PUSH1 0x20 ADD DUP4 PUSH1 0x20 ADD MLOAD DUP2 MSTORE PUSH1 0x20 ADD DUP4 PUSH1 0x40 ADD MLOAD PUSH1 0x1 PUSH1 0x1 PUSH1 0x40 SHL SUB AND DUP2 MSTORE PUSH1 0x20 ADD DUP4 PUSH1 0x60 ADD MLOAD PUSH1 0x1 PUSH1 0x1 PUSH1 0x40 SHL SUB AND DUP2 MSTORE PUSH1 0x20 ADD DUP4 PUSH1 0x80 ADD MLOAD PUSH1 0x1 PUSH1 0x1 PUSH1 0x40 SHL SUB AND DUP2 MSTORE PUSH1 0x20 ADD DUP4 PUSH1 0xA0 ADD MLOAD DUP2 MSTORE PUSH1 0x20 ADD DUP4 PUSH1 0xC0 ADD MLOAD DUP2 MSTORE PUSH1 0x20 ADD PUSH1 0x0 PUSH1 0x3 DUP2 GT ISZERO PUSH2 0x133E JUMPI PUSH2 0x133E PUSH2 0x1DF0 JUMP JUMPDEST DUP2 MSTORE PUSH2 0x100 DUP5 ADD MLOAD PUSH1 0x20 DUP1 DUP4 ADD SWAP2 SWAP1 SWAP2 MSTORE PUSH2 0x120 DUP6 ADD MLOAD PUSH1 0x40 SWAP3 DUP4 ADD MSTORE PUSH1 0x0 DUP5 DUP2 MSTORE DUP1 DUP3 MSTORE DUP3 SWAP1 KECCAK256 DUP4 MLOAD DUP2 SLOAD PUSH1 0x1 PUSH1 0x1 PUSH1 0xA0 SHL SUB SWAP1 SWAP2 AND PUSH1 0x1 PUSH1 0x1 PUSH1 0xA0 SHL SUB NOT SWAP1 SWAP2 AND OR DUP2 SSTORE SWAP1 DUP4 ADD MLOAD PUSH1 0x1 DUP3 ADD SSTORE SWAP1 DUP3 ADD MLOAD PUSH1 0x2 DUP3 ADD DUP1 SLOAD PUSH1 0x60 DUP6 ADD MLOAD PUSH1 0x80 DUP7 ADD MLOAD PUSH1 0x1 PUSH1 0x1 PUSH1 0x40 SHL SUB SWAP1 DUP2 AND PUSH1 0x1 PUSH1 0x80 SHL MUL PUSH1 0x1 PUSH1 0x80 SHL PUSH1 0x1 PUSH1 0xC0 SHL SUB NOT SWAP3 DUP3 AND PUSH1 0x1 PUSH1 0x40 SHL MUL PUSH1 0x1 PUSH1 0x1 PUSH1 0x80 SHL SUB NOT SWAP1 SWAP5 AND SWAP2 SWAP1 SWAP6 AND OR SWAP2 SWAP1 SWAP2 OR AND SWAP2 SWAP1 SWAP2 OR SWAP1 SSTORE PUSH1 0xA0 DUP3 ADD MLOAD PUSH1 0x3 DUP3 ADD SWAP1 PUSH2 0x13F7 SWAP1 DUP3 PUSH2 0x26E2 JUMP JUMPDEST POP PUSH1 0xC0 DUP3 ADD MLOAD PUSH1 0x4 DUP3 ADD SWAP1 PUSH2 0x140C SWAP1 DUP3 PUSH2 0x26E2 JUMP JUMPDEST POP PUSH1 0xE0 DUP3 ADD MLOAD PUSH1 0x5 DUP3 ADD DUP1 SLOAD PUSH1 0xFF NOT AND PUSH1 0x1 DUP4 PUSH1 0x3 DUP2 GT ISZERO PUSH2 0x1430 JUMPI PUSH2 0x1430 PUSH2 0x1DF0 JUMP JUMPDEST MUL OR SWAP1 SSTORE POP PUSH2 0x100 DUP3 ADD MLOAD PUSH1 0x6 DUP3 ADD SWAP1 PUSH2 0x144A SWAP1 DUP3 PUSH2 0x26E2 JUMP JUMPDEST POP PUSH2 0x120 DUP3 ADD MLOAD PUSH1 0x7 DUP3 ADD SWAP1 PUSH2 0x1460 SWAP1 DUP3 PUSH2 0x26E2 JUMP JUMPDEST POP POP PUSH1 0x40 DUP1 MLOAD PUSH1 0x60 DUP2 ADD DUP3 MSTORE PUSH1 0x0 DUP1 DUP3 MSTORE PUSH1 0x20 DUP1 DUP4 ADD DUP3 DUP2 MSTORE DUP4 DUP6 ADD DUP4 DUP2 MSTORE DUP8 DUP5 MSTORE SWAP2 DUP4 SWAP1 MSTORE SWAP2 DUP5 SWAP1 KECCAK256 SWAP3 MLOAD PUSH1 0x8 DUP5 ADD SSTORE SWAP1 MLOAD PUSH1 0x9 SWAP1 SWAP3 ADD DUP1 SLOAD SWAP2 MLOAD PUSH1 0x1 PUSH1 0x1 PUSH1 0x40 SHL SUB SWAP1 DUP2 AND PUSH1 0x1 PUSH1 0x40 SHL MUL PUSH1 0x1 PUSH1 0x1 PUSH1 0x80 SHL SUB NOT SWAP1 SWAP4 AND SWAP4 AND SWAP3 SWAP1 SWAP3 OR OR SWAP1 SSTORE PUSH1 0xA0 DUP5 ADD MLOAD DUP5 DUP3 ADD MLOAD SWAP2 MLOAD DUP5 SWAP4 POP PUSH32 0x7F2DB28BB9CDBD41F93B3953994DE4298CC665DDA981F021C84FC9B4B367F11E SWAP3 PUSH2 0x14FC SWAP3 SWAP2 PUSH2 0x28EA JUMP JUMPDEST PUSH1 0x40 MLOAD DUP1 SWAP2 SUB SWAP1 LOG2 SWAP2 SWAP1 POP JUMP JUMPDEST PUSH1 0x60 DUP2 MLOAD PUSH1 0x1 PUSH1 0x1 PUSH1 0x40 SHL SUB DUP2 GT ISZERO PUSH2 0x1524 JUMPI PUSH2 0x1524 PUSH2 0x1F2D JUMP JUMPDEST PUSH1 0x40 MLOAD SWAP1 DUP1 DUP3 MSTORE DUP1 PUSH1 0x20 MUL PUSH1 0x20 ADD DUP3 ADD PUSH1 0x40 MSTORE DUP1 ISZERO PUSH2 0x155D JUMPI DUP2 PUSH1 0x20 ADD JUMPDEST PUSH2 0x154A PUSH2 0x1CA3 JUMP JUMPDEST DUP2 MSTORE PUSH1 0x20 ADD SWAP1 PUSH1 0x1 SWAP1 SUB SWAP1 DUP2 PUSH2 0x1542 JUMPI SWAP1 POP JUMPDEST POP SWAP1 POP PUSH1 0x0 JUMPDEST DUP3 MLOAD DUP2 LT ISZERO PUSH2 0x18AA JUMPI PUSH1 0x0 DUP1 PUSH1 0x0 DUP6 DUP5 DUP2 MLOAD DUP2 LT PUSH2 0x1583 JUMPI PUSH2 0x1583 PUSH2 0x2828 JUMP JUMPDEST PUSH1 0x20 SWAP1 DUP2 MUL SWAP2 SWAP1 SWAP2 ADD DUP2 ADD MLOAD DUP3 MSTORE DUP2 DUP2 ADD SWAP3 SWAP1 SWAP3 MSTORE PUSH1 0x40 SWAP1 DUP2 ADD PUSH1 0x0 KECCAK256 DUP2 MLOAD PUSH2 0x140 DUP2 ADD DUP4 MSTORE DUP2 SLOAD PUSH1 0x1 PUSH1 0x1 PUSH1 0xA0 SHL SUB AND DUP2 MSTORE PUSH1 0x1 DUP3 ADD SLOAD SWAP4 DUP2 ADD SWAP4 SWAP1 SWAP4 MSTORE PUSH1 0x2 DUP2 ADD SLOAD PUSH1 0x1 PUSH1 0x1 PUSH1 0x40 SHL SUB DUP1 DUP3 AND SWAP4 DUP6 ADD SWAP4 SWAP1 SWAP4 MSTORE PUSH1 0x1 PUSH1 0x40 SHL DUP2 DIV DUP4 AND PUSH1 0x60 DUP6 ADD MSTORE PUSH1 0x1 PUSH1 0x80 SHL SWAP1 DIV SWAP1 SWAP2 AND PUSH1 0x80 DUP4 ADD MSTORE PUSH1 0x3 DUP2 ADD DUP1 SLOAD PUSH1 0xA0 DUP5 ADD SWAP2 SWAP1 PUSH2 0x160B SWAP1 PUSH2 0x25DF JUMP JUMPDEST DUP1 PUSH1 0x1F ADD PUSH1 0x20 DUP1 SWAP2 DIV MUL PUSH1 0x20 ADD PUSH1 0x40 MLOAD SWAP1 DUP2 ADD PUSH1 0x40 MSTORE DUP1 SWAP3 SWAP2 SWAP1 DUP2 DUP2 MSTORE PUSH1 0x20 ADD DUP3 DUP1 SLOAD PUSH2 0x1637 SWAP1 PUSH2 0x25DF JUMP JUMPDEST DUP1 ISZERO PUSH2 0x1684 JUMPI DUP1 PUSH1 0x1F LT PUSH2 0x1659 JUMPI PUSH2 0x100 DUP1 DUP4 SLOAD DIV MUL DUP4 MSTORE SWAP2 PUSH1 0x20 ADD SWAP2 PUSH2 0x1684 JUMP JUMPDEST DUP3 ADD SWAP2 SWAP1 PUSH1 0x0 MSTORE PUSH1 0x20 PUSH1 0x0 KECCAK256 SWAP1 JUMPDEST DUP2 SLOAD DUP2 MSTORE SWAP1 PUSH1 0x1 ADD SWAP1 PUSH1 0x20 ADD DUP1 DUP4 GT PUSH2 0x1667 JUMPI DUP3 SWAP1 SUB PUSH1 0x1F AND DUP3 ADD SWAP2 JUMPDEST POP POP POP POP POP DUP2 MSTORE PUSH1 0x20 ADD PUSH1 0x4 DUP3 ADD DUP1 SLOAD PUSH2 0x169D SWAP1 PUSH2 0x25DF JUMP JUMPDEST DUP1 PUSH1 0x1F ADD PUSH1 0x20 DUP1 SWAP2 DIV MUL PUSH1 0x20 ADD PUSH1 0x40 MLOAD SWAP1 DUP2 ADD PUSH1 0x40 MSTORE DUP1 SWAP3 SWAP2 SWAP1 DUP2 DUP2 MSTORE PUSH1 0x20 ADD DUP3 DUP1 SLOAD PUSH2 0x16C9 SWAP1 PUSH2 0x25DF JUMP JUMPDEST DUP1 ISZERO PUSH2 0x1716 JUMPI DUP1 PUSH1 0x1F LT PUSH2 0x16EB JUMPI PUSH2 0x100 DUP1 DUP4 SLOAD DIV MUL DUP4 MSTORE SWAP2 PUSH1 0x20 ADD SWAP2 PUSH2 0x1716 JUMP JUMPDEST DUP3 ADD SWAP2 SWAP1 PUSH1 0x0 MSTORE PUSH1 0x20 PUSH1 0x0 KECCAK256 SWAP1 JUMPDEST DUP2 SLOAD DUP2 MSTORE SWAP1 PUSH1 0x1 ADD SWAP1 PUSH1 0x20 ADD DUP1 DUP4 GT PUSH2 0x16F9 JUMPI DUP3 SWAP1 SUB PUSH1 0x1F AND DUP3 ADD SWAP2 JUMPDEST POP POP POP SWAP2 DUP4 MSTORE POP POP PUSH1 0x5 DUP3 ADD SLOAD PUSH1 0x20 SWAP1 SWAP2 ADD SWAP1 PUSH1 0xFF AND PUSH1 0x3 DUP2 GT ISZERO PUSH2 0x173D JUMPI PUSH2 0x173D PUSH2 0x1DF0 JUMP JUMPDEST PUSH1 0x3 DUP2 GT ISZERO PUSH2 0x174E JUMPI PUSH2 0x174E PUSH2 0x1DF0 JUMP JUMPDEST DUP2 MSTORE PUSH1 0x20 ADD PUSH1 0x6 DUP3 ADD DUP1 SLOAD PUSH2 0x1762 SWAP1 PUSH2 0x25DF JUMP JUMPDEST DUP1 PUSH1 0x1F ADD PUSH1 0x20 DUP1 SWAP2 DIV MUL PUSH1 0x20 ADD PUSH1 0x40 MLOAD SWAP1 DUP2 ADD PUSH1 0x40 MSTORE DUP1 SWAP3 SWAP2 SWAP1 DUP2 DUP2 MSTORE PUSH1 0x20 ADD DUP3 DUP1 SLOAD PUSH2 0x178E SWAP1 PUSH2 0x25DF JUMP JUMPDEST DUP1 ISZERO PUSH2 0x17DB JUMPI DUP1 PUSH1 0x1F LT PUSH2 0x17B0 JUMPI PUSH2 0x100 DUP1 DUP4 SLOAD DIV MUL DUP4 MSTORE SWAP2 PUSH1 0x20 ADD SWAP2 PUSH2 0x17DB JUMP JUMPDEST DUP3 ADD SWAP2 SWAP1 PUSH1 0x0 MSTORE PUSH1 0x20 PUSH1 0x0 KECCAK256 SWAP1 JUMPDEST DUP2 SLOAD DUP2 MSTORE SWAP1 PUSH1 0x1 ADD SWAP1 PUSH1 0x20 ADD DUP1 DUP4 GT PUSH2 0x17BE JUMPI DUP3 SWAP1 SUB PUSH1 0x1F AND DUP3 ADD SWAP2 JUMPDEST POP POP POP POP POP DUP2 MSTORE PUSH1 0x20 ADD PUSH1 0x7 DUP3 ADD DUP1 SLOAD PUSH2 0x17F4 SWAP1 PUSH2 0x25DF JUMP JUMPDEST DUP1 PUSH1 0x1F ADD PUSH1 0x20 DUP1 SWAP2 DIV MUL PUSH1 0x20 ADD PUSH1 0x40 MLOAD SWAP1 DUP2 ADD PUSH1 0x40 MSTORE DUP1 SWAP3 SWAP2 SWAP1 DUP2 DUP2 MSTORE PUSH1 0x20 ADD DUP3 DUP1 SLOAD PUSH2 0x1820 SWAP1 PUSH2 0x25DF JUMP JUMPDEST DUP1 ISZERO PUSH2 0x186D JUMPI DUP1 PUSH1 0x1F LT PUSH2 0x1842 JUMPI PUSH2 0x100 DUP1 DUP4 SLOAD DIV MUL DUP4 MSTORE SWAP2 PUSH1 0x20 ADD SWAP2 PUSH2 0x186D JUMP JUMPDEST DUP3 ADD SWAP2 SWAP1 PUSH1 0x0 MSTORE PUSH1 0x20 PUSH1 0x0 KECCAK256 SWAP1 JUMPDEST DUP2 SLOAD DUP2 MSTORE SWAP1 PUSH1 0x1 ADD SWAP1 PUSH1 0x20 ADD DUP1 DUP4 GT PUSH2 0x1850 JUMPI DUP3 SWAP1 SUB PUSH1 0x1F AND DUP3 ADD SWAP2 JUMPDEST POP POP POP POP POP DUP2 MSTORE POP POP SWAP1 POP DUP1 DUP4 DUP4 DUP2 MLOAD DUP2 LT PUSH2 0x188B JUMPI PUSH2 0x188B PUSH2 0x2828 JUMP JUMPDEST PUSH1 0x20 MUL PUSH1 0x20 ADD ADD DUP2 SWAP1 MSTORE POP POP DUP1 DUP1 PUSH2 0x18A2 SWAP1 PUSH2 0x280F JUMP JUMPDEST SWAP2 POP POP PUSH2 0x1563 JUMP JUMPDEST POP SWAP2 SWAP1 POP JUMP JUMPDEST PUSH1 0x60 PUSH1 0x0 DUP3 MLOAD PUSH1 0x1 PUSH1 0x1 PUSH1 0x40 SHL SUB DUP2 GT ISZERO PUSH2 0x18CD JUMPI PUSH2 0x18CD PUSH2 0x1F2D JUMP JUMPDEST PUSH1 0x40 MLOAD SWAP1 DUP1 DUP3 MSTORE DUP1 PUSH1 0x20 MUL PUSH1 0x20 ADD DUP3 ADD PUSH1 0x40 MSTORE DUP1 ISZERO PUSH2 0x18F6 JUMPI DUP2 PUSH1 0x20 ADD PUSH1 0x20 DUP3 MUL DUP1 CALLDATASIZE DUP4 CALLDATACOPY ADD SWAP1 POP JUMPDEST POP SWAP1 POP PUSH1 0x0 JUMPDEST DUP4 MLOAD DUP2 LT ISZERO PUSH2 0xBB2 JUMPI PUSH1 0x1 DUP5 DUP3 DUP2 MLOAD DUP2 LT PUSH2 0x1919 JUMPI PUSH2 0x1919 PUSH2 0x2828 JUMP JUMPDEST PUSH1 0x20 MUL PUSH1 0x20 ADD ADD MLOAD PUSH1 0x40 MLOAD PUSH2 0x192E SWAP2 SWAP1 PUSH2 0x28CE JUMP JUMPDEST SWAP1 DUP2 MSTORE PUSH1 0x20 ADD PUSH1 0x40 MLOAD DUP1 SWAP2 SUB SWAP1 KECCAK256 SLOAD DUP3 DUP3 DUP2 MLOAD DUP2 LT PUSH2 0x194F JUMPI PUSH2 0x194F PUSH2 0x2828 JUMP JUMPDEST PUSH1 0x20 SWAP1 DUP2 MUL SWAP2 SWAP1 SWAP2 ADD ADD MSTORE DUP1 PUSH2 0x1964 DUP2 PUSH2 0x280F JUMP JUMPDEST SWAP2 POP POP PUSH2 0x18FC JUMP JUMPDEST PUSH1 0x0 DUP4 DUP2 MSTORE PUSH1 0x20 DUP2 SWAP1 MSTORE PUSH1 0x40 SWAP1 KECCAK256 PUSH1 0x60 SWAP1 PUSH1 0x1 PUSH1 0x5 DUP3 ADD SLOAD PUSH1 0xFF AND PUSH1 0x3 DUP2 GT ISZERO PUSH2 0x1998 JUMPI PUSH2 0x1998 PUSH2 0x1DF0 JUMP JUMPDEST EQ PUSH2 0x19DF JUMPI PUSH1 0x40 MLOAD PUSH3 0x461BCD PUSH1 0xE5 SHL DUP2 MSTORE PUSH1 0x20 PUSH1 0x4 DUP3 ADD MSTORE PUSH1 0x17 PUSH1 0x24 DUP3 ADD MSTORE PUSH23 0x119A5B19481D5C1B1BD859081B9BDD081858DD1A5D9959 PUSH1 0x4A SHL PUSH1 0x44 DUP3 ADD MSTORE PUSH1 0x64 ADD PUSH2 0x324 JUMP JUMPDEST PUSH1 0x2 DUP2 ADD SLOAD PUSH1 0x1 PUSH1 0x1 PUSH1 0x40 SHL SUB AND PUSH2 0x1A2F JUMPI PUSH1 0x40 MLOAD PUSH3 0x461BCD PUSH1 0xE5 SHL DUP2 MSTORE PUSH1 0x20 PUSH1 0x4 DUP3 ADD MSTORE PUSH1 0x13 PUSH1 0x24 DUP3 ADD MSTORE PUSH19 0x119A5B1948191BD95CC81B9BDD08195E1A5CDD PUSH1 0x6A SHL PUSH1 0x44 DUP3 ADD MSTORE PUSH1 0x64 ADD PUSH2 0x324 JUMP JUMPDEST PUSH1 0x2 DUP2 ADD SLOAD PUSH1 0x1 PUSH1 0x40 SHL SWAP1 DIV PUSH1 0x1 PUSH1 0x1 PUSH1 0x40 SHL SUB AND DUP5 LT PUSH2 0x1A8D JUMPI PUSH1 0x40 MLOAD PUSH3 0x461BCD PUSH1 0xE5 SHL DUP2 MSTORE PUSH1 0x20 PUSH1 0x4 DUP3 ADD MSTORE PUSH1 0x18 PUSH1 0x24 DUP3 ADD MSTORE PUSH24 0x537461727420696E646578206F7574206F662072616E6765 PUSH1 0x40 SHL PUSH1 0x44 DUP3 ADD MSTORE PUSH1 0x64 ADD PUSH2 0x324 JUMP JUMPDEST PUSH1 0x0 DUP4 GT PUSH2 0x1ADD JUMPI PUSH1 0x40 MLOAD PUSH3 0x461BCD PUSH1 0xE5 SHL DUP2 MSTORE PUSH1 0x20 PUSH1 0x4 DUP3 ADD MSTORE PUSH1 0x1F PUSH1 0x24 DUP3 ADD MSTORE PUSH32 0x4C696D6974206D7573742062652067726561746572207468616E207A65726F00 PUSH1 0x44 DUP3 ADD MSTORE PUSH1 0x64 ADD PUSH2 0x324 JUMP JUMPDEST PUSH1 0x2 DUP2 ADD SLOAD PUSH1 0x1 PUSH1 0x80 SHL SWAP1 DIV PUSH1 0x1 PUSH1 0x1 PUSH1 0x40 SHL SUB AND TIMESTAMP GT ISZERO PUSH2 0x1B11 JUMPI PUSH1 0x40 MLOAD PUSH3 0x461BCD PUSH1 0xE5 SHL DUP2 MSTORE PUSH1 0x4 ADD PUSH2 0x324 SWAP1 PUSH2 0x283E JUMP JUMPDEST PUSH1 0x2 DUP2 ADD SLOAD PUSH1 0x0 SWAP1 PUSH1 0x1 PUSH1 0x40 SHL SWAP1 DIV PUSH1 0x1 PUSH1 0x1 PUSH1 0x40 SHL SUB AND PUSH2 0x1B33 DUP6 DUP8 PUSH2 0x265A JUMP JUMPDEST GT PUSH2 0x1B47 JUMPI PUSH2 0x1B42 DUP5 DUP7 PUSH2 0x265A JUMP JUMPDEST PUSH2 0x1B5D JUMP JUMPDEST PUSH1 0x2 DUP3 ADD SLOAD PUSH1 0x1 PUSH1 0x40 SHL SWAP1 DIV PUSH1 0x1 PUSH1 0x1 PUSH1 0x40 SHL SUB AND JUMPDEST SWAP1 POP PUSH1 0x0 PUSH2 0x1B6B DUP7 DUP4 PUSH2 0x2914 JUMP JUMPDEST PUSH1 0x1 PUSH1 0x1 PUSH1 0x40 SHL SUB DUP2 GT ISZERO PUSH2 0x1B82 JUMPI PUSH2 0x1B82 PUSH2 0x1F2D JUMP JUMPDEST PUSH1 0x40 MLOAD SWAP1 DUP1 DUP3 MSTORE DUP1 PUSH1 0x20 MUL PUSH1 0x20 ADD DUP3 ADD PUSH1 0x40 MSTORE DUP1 ISZERO PUSH2 0x1BB5 JUMPI DUP2 PUSH1 0x20 ADD JUMPDEST PUSH1 0x60 DUP2 MSTORE PUSH1 0x20 ADD SWAP1 PUSH1 0x1 SWAP1 SUB SWAP1 DUP2 PUSH2 0x1BA0 JUMPI SWAP1 POP JUMPDEST POP SWAP1 POP DUP6 JUMPDEST DUP3 DUP2 LT ISZERO PUSH2 0x1C96 JUMPI PUSH1 0x0 DUP2 DUP2 MSTORE PUSH1 0xA DUP6 ADD PUSH1 0x20 MSTORE PUSH1 0x40 SWAP1 KECCAK256 DUP1 SLOAD PUSH2 0x1BDD SWAP1 PUSH2 0x25DF JUMP JUMPDEST DUP1 PUSH1 0x1F ADD PUSH1 0x20 DUP1 SWAP2 DIV MUL PUSH1 0x20 ADD PUSH1 0x40 MLOAD SWAP1 DUP2 ADD PUSH1 0x40 MSTORE DUP1 SWAP3 SWAP2 SWAP1 DUP2 DUP2 MSTORE PUSH1 0x20 ADD DUP3 DUP1 SLOAD PUSH2 0x1C09 SWAP1 PUSH2 0x25DF JUMP JUMPDEST DUP1 ISZERO PUSH2 0x1C56 JUMPI DUP1 PUSH1 0x1F LT PUSH2 0x1C2B JUMPI PUSH2 0x100 DUP1 DUP4 SLOAD DIV MUL DUP4 MSTORE SWAP2 PUSH1 0x20 ADD SWAP2 PUSH2 0x1C56 JUMP JUMPDEST DUP3 ADD SWAP2 SWAP1 PUSH1 0x0 MSTORE PUSH1 0x20 PUSH1 0x0 KECCAK256 SWAP1 JUMPDEST DUP2 SLOAD DUP2 MSTORE SWAP1 PUSH1 0x1 ADD SWAP1 PUSH1 0x20 ADD DUP1 DUP4 GT PUSH2 0x1C39 JUMPI DUP3 SWAP1 SUB PUSH1 0x1F AND DUP3 ADD SWAP2 JUMPDEST POP POP POP POP POP DUP3 DUP9 DUP4 PUSH2 0x1C68 SWAP2 SWAP1 PUSH2 0x2914 JUMP JUMPDEST DUP2 MLOAD DUP2 LT PUSH2 0x1C78 JUMPI PUSH2 0x1C78 PUSH2 0x2828 JUMP JUMPDEST PUSH1 0x20 MUL PUSH1 0x20 ADD ADD DUP2 SWAP1 MSTORE POP DUP1 DUP1 PUSH2 0x1C8E SWAP1 PUSH2 0x280F JUMP JUMPDEST SWAP2 POP POP PUSH2 0x1BBA JUMP JUMPDEST POP SWAP3 POP POP POP JUMPDEST SWAP4 SWAP3 POP POP POP JUMP JUMPDEST PUSH1 0x40 DUP1 MLOAD PUSH2 0x140 DUP2 ADD DUP3 MSTORE PUSH1 0x0 DUP1 DUP3 MSTORE PUSH1 0x20 DUP3 ADD DUP2 SWAP1 MSTORE SWAP2 DUP2 ADD DUP3 SWAP1 MSTORE PUSH1 0x60 DUP1 DUP3 ADD DUP4 SWAP1 MSTORE PUSH1 0x80 DUP3 ADD DUP4 SWAP1 MSTORE PUSH1 0xA0 DUP3 ADD DUP2 SWAP1 MSTORE PUSH1 0xC0 DUP3 ADD MSTORE SWAP1 PUSH1 0xE0 DUP3 ADD SWAP1 DUP2 MSTORE PUSH1 0x20 ADD PUSH1 0x60 DUP2 MSTORE PUSH1 0x20 ADD PUSH1 0x60 DUP2 MSTORE POP SWAP1 JUMP JUMPDEST POP DUP1 SLOAD PUSH2 0x1D01 SWAP1 PUSH2 0x25DF JUMP JUMPDEST PUSH1 0x0 DUP3 SSTORE DUP1 PUSH1 0x1F LT PUSH2 0x1D11 JUMPI POP POP JUMP JUMPDEST PUSH1 0x1F ADD PUSH1 0x20 SWAP1 DIV SWAP1 PUSH1 0x0 MSTORE PUSH1 0x20 PUSH1 0x0 KECCAK256 SWAP1 DUP2 ADD SWAP1 PUSH2 0x1D2F SWAP2 SWAP1 PUSH2 0x1D32 JUMP JUMPDEST POP JUMP JUMPDEST JUMPDEST DUP1 DUP3 GT ISZERO PUSH2 0x1D47 JUMPI PUSH1 0x0 DUP2 SSTORE PUSH1 0x1 ADD PUSH2 0x1D33 JUMP JUMPDEST POP SWAP1 JUMP JUMPDEST PUSH1 0x0 PUSH1 0x20 DUP3 DUP5 SUB SLT ISZERO PUSH2 0x1D5D JUMPI PUSH1 0x0 DUP1 REVERT JUMPDEST POP CALLDATALOAD SWAP2 SWAP1 POP JUMP JUMPDEST DUP1 MLOAD DUP3 MSTORE PUSH1 0x20 DUP1 DUP3 ADD MLOAD PUSH1 0x1 PUSH1 0x1 PUSH1 0x40 SHL SUB SWAP1 DUP2 AND SWAP2 DUP5 ADD SWAP2 SWAP1 SWAP2 MSTORE PUSH1 0x40 SWAP2 DUP3 ADD MLOAD AND SWAP2 ADD MSTORE JUMP JUMPDEST PUSH1 0x60 DUP2 ADD PUSH2 0x1D9A DUP3 DUP5 PUSH2 0x1D64 JUMP JUMPDEST SWAP3 SWAP2 POP POP JUMP JUMPDEST PUSH1 0x0 JUMPDEST DUP4 DUP2 LT ISZERO PUSH2 0x1DBB JUMPI DUP2 DUP2 ADD MLOAD DUP4 DUP3 ADD MSTORE PUSH1 0x20 ADD PUSH2 0x1DA3 JUMP JUMPDEST POP POP PUSH1 0x0 SWAP2 ADD MSTORE JUMP JUMPDEST PUSH1 0x0 DUP2 MLOAD DUP1 DUP5 MSTORE PUSH2 0x1DDC DUP2 PUSH1 0x20 DUP7 ADD PUSH1 0x20 DUP7 ADD PUSH2 0x1DA0 JUMP JUMPDEST PUSH1 0x1F ADD PUSH1 0x1F NOT AND SWAP3 SWAP1 SWAP3 ADD PUSH1 0x20 ADD SWAP3 SWAP2 POP POP JUMP JUMPDEST PUSH4 0x4E487B71 PUSH1 0xE0 SHL PUSH1 0x0 MSTORE PUSH1 0x21 PUSH1 0x4 MSTORE PUSH1 0x24 PUSH1 0x0 REVERT JUMPDEST PUSH1 0x4 DUP2 LT PUSH2 0x1E24 JUMPI PUSH4 0x4E487B71 PUSH1 0xE0 SHL PUSH1 0x0 MSTORE PUSH1 0x21 PUSH1 0x4 MSTORE PUSH1 0x24 PUSH1 0x0 REVERT JUMPDEST SWAP1 MSTORE JUMP JUMPDEST DUP1 MLOAD PUSH1 0x1 PUSH1 0x1 PUSH1 0xA0 SHL SUB AND DUP3 MSTORE PUSH1 0x0 PUSH2 0x140 PUSH1 0x20 DUP4 ADD MLOAD PUSH1 0x20 DUP6 ADD MSTORE PUSH1 0x40 DUP4 ADD MLOAD PUSH2 0x1E5E PUSH1 0x40 DUP7 ADD DUP3 PUSH1 0x1 PUSH1 0x1 PUSH1 0x40 SHL SUB AND SWAP1 MSTORE JUMP JUMPDEST POP PUSH1 0x60 DUP4 ADD MLOAD PUSH2 0x1E79 PUSH1 0x60 DUP7 ADD DUP3 PUSH1 0x1 PUSH1 0x1 PUSH1 0x40 SHL SUB AND SWAP1 MSTORE JUMP JUMPDEST POP PUSH1 0x80 DUP4 ADD MLOAD PUSH2 0x1E94 PUSH1 0x80 DUP7 ADD DUP3 PUSH1 0x1 PUSH1 0x1 PUSH1 0x40 SHL SUB AND SWAP1 MSTORE JUMP JUMPDEST POP PUSH1 0xA0 DUP4 ADD MLOAD DUP2 PUSH1 0xA0 DUP7 ADD MSTORE PUSH2 0x1EAC DUP3 DUP7 ADD DUP3 PUSH2 0x1DC4 JUMP JUMPDEST SWAP2 POP POP PUSH1 0xC0 DUP4 ADD MLOAD DUP5 DUP3 SUB PUSH1 0xC0 DUP7 ADD MSTORE PUSH2 0x1EC6 DUP3 DUP3 PUSH2 0x1DC4 JUMP JUMPDEST SWAP2 POP POP PUSH1 0xE0 DUP4 ADD MLOAD PUSH2 0x1EDB PUSH1 0xE0 DUP7 ADD DUP3 PUSH2 0x1E06 JUMP JUMPDEST POP PUSH2 0x100 DUP1 DUP5 ADD MLOAD DUP6 DUP4 SUB DUP3 DUP8 ADD MSTORE PUSH2 0x1EF4 DUP4 DUP3 PUSH2 0x1DC4 JUMP JUMPDEST SWAP3 POP POP POP PUSH2 0x120 DUP1 DUP5 ADD MLOAD DUP6 DUP4 SUB DUP3 DUP8 ADD MSTORE PUSH2 0x1F10 DUP4 DUP3 PUSH2 0x1DC4 JUMP JUMPDEST SWAP7 SWAP6 POP POP POP POP POP POP JUMP JUMPDEST PUSH1 0x20 DUP2 MSTORE PUSH1 0x0 PUSH2 0x1C9C PUSH1 0x20 DUP4 ADD DUP5 PUSH2 0x1E28 JUMP JUMPDEST PUSH4 0x4E487B71 PUSH1 0xE0 SHL PUSH1 0x0 MSTORE PUSH1 0x41 PUSH1 0x4 MSTORE PUSH1 0x24 PUSH1 0x0 REVERT JUMPDEST PUSH1 0x40 MLOAD PUSH2 0x140 DUP2 ADD PUSH1 0x1 PUSH1 0x1 PUSH1 0x40 SHL SUB DUP2 GT DUP3 DUP3 LT OR ISZERO PUSH2 0x1F66 JUMPI PUSH2 0x1F66 PUSH2 0x1F2D JUMP JUMPDEST PUSH1 0x40 MSTORE SWAP1 JUMP JUMPDEST PUSH1 0x40 MLOAD PUSH1 0x1F DUP3 ADD PUSH1 0x1F NOT AND DUP2 ADD PUSH1 0x1 PUSH1 0x1 PUSH1 0x40 SHL SUB DUP2 GT DUP3 DUP3 LT OR ISZERO PUSH2 0x1F94 JUMPI PUSH2 0x1F94 PUSH2 0x1F2D JUMP JUMPDEST PUSH1 0x40 MSTORE SWAP2 SWAP1 POP JUMP JUMPDEST PUSH1 0x0 PUSH1 0x1 PUSH1 0x1 PUSH1 0x40 SHL SUB DUP4 GT ISZERO PUSH2 0x1FB5 JUMPI PUSH2 0x1FB5 PUSH2 0x1F2D JUMP JUMPDEST PUSH2 0x1FC8 PUSH1 0x1F DUP5 ADD PUSH1 0x1F NOT AND PUSH1 0x20 ADD PUSH2 0x1F6C JUMP JUMPDEST SWAP1 POP DUP3 DUP2 MSTORE DUP4 DUP4 DUP4 ADD GT ISZERO PUSH2 0x1FDC JUMPI PUSH1 0x0 DUP1 REVERT JUMPDEST DUP3 DUP3 PUSH1 0x20 DUP4 ADD CALLDATACOPY PUSH1 0x0 PUSH1 0x20 DUP5 DUP4 ADD ADD MSTORE SWAP4 SWAP3 POP POP POP JUMP JUMPDEST PUSH1 0x0 DUP1 PUSH1 0x0 PUSH1 0x60 DUP5 DUP7 SUB SLT ISZERO PUSH2 0x2008 JUMPI PUSH1 0x0 DUP1 REVERT JUMPDEST DUP4 CALLDATALOAD SWAP3 POP PUSH1 0x20 DUP5 ADD CALLDATALOAD PUSH1 0x1 PUSH1 0x1 PUSH1 0x40 SHL SUB DUP2 GT ISZERO PUSH2 0x2025 JUMPI PUSH1 0x0 DUP1 REVERT JUMPDEST DUP5 ADD PUSH1 0x1F DUP2 ADD DUP7 SGT PUSH2 0x2036 JUMPI PUSH1 0x0 DUP1 REVERT JUMPDEST PUSH2 0x2045 DUP7 DUP3 CALLDATALOAD PUSH1 0x20 DUP5 ADD PUSH2 0x1F9C JUMP JUMPDEST SWAP3 POP POP PUSH1 0x40 DUP5 ADD CALLDATALOAD SWAP1 POP SWAP3 POP SWAP3 POP SWAP3 JUMP JUMPDEST PUSH1 0x0 PUSH1 0x1 PUSH1 0x1 PUSH1 0x40 SHL SUB DUP3 GT ISZERO PUSH2 0x206F JUMPI PUSH2 0x206F PUSH2 0x1F2D JUMP JUMPDEST POP PUSH1 0x5 SHL PUSH1 0x20 ADD SWAP1 JUMP JUMPDEST DUP1 CALLDATALOAD PUSH1 0x1 PUSH1 0x1 PUSH1 0xA0 SHL SUB DUP2 AND DUP2 EQ PUSH2 0x2090 JUMPI PUSH1 0x0 DUP1 REVERT JUMPDEST SWAP2 SWAP1 POP JUMP JUMPDEST DUP1 CALLDATALOAD PUSH1 0x1 PUSH1 0x1 PUSH1 0x40 SHL SUB DUP2 AND DUP2 EQ PUSH2 0x2090 JUMPI PUSH1 0x0 DUP1 REVERT JUMPDEST PUSH1 0x0 DUP3 PUSH1 0x1F DUP4 ADD SLT PUSH2 0x20BD JUMPI PUSH1 0x0 DUP1 REVERT JUMPDEST PUSH2 0x1C9C DUP4 DUP4 CALLDATALOAD PUSH1 0x20 DUP6 ADD PUSH2 0x1F9C JUMP JUMPDEST DUP1 CALLDATALOAD PUSH1 0x4 DUP2 LT PUSH2 0x2090 JUMPI PUSH1 0x0 DUP1 REVERT JUMPDEST PUSH1 0x0 PUSH2 0x140 DUP3 DUP5 SUB SLT ISZERO PUSH2 0x20EE JUMPI PUSH1 0x0 DUP1 REVERT JUMPDEST PUSH2 0x20F6 PUSH2 0x1F43 JUMP JUMPDEST SWAP1 POP PUSH2 0x2101 DUP3 PUSH2 0x2079 JUMP JUMPDEST DUP2 MSTORE PUSH1 0x20 DUP3 ADD CALLDATALOAD PUSH1 0x20 DUP3 ADD MSTORE PUSH2 0x2119 PUSH1 0x40 DUP4 ADD PUSH2 0x2095 JUMP JUMPDEST PUSH1 0x40 DUP3 ADD MSTORE PUSH2 0x212A PUSH1 0x60 DUP4 ADD PUSH2 0x2095 JUMP JUMPDEST PUSH1 0x60 DUP3 ADD MSTORE PUSH2 0x213B PUSH1 0x80 DUP4 ADD PUSH2 0x2095 JUMP JUMPDEST PUSH1 0x80 DUP3 ADD MSTORE PUSH1 0xA0 DUP3 ADD CALLDATALOAD PUSH1 0x1 PUSH1 0x1 PUSH1 0x40 SHL SUB DUP1 DUP3 GT ISZERO PUSH2 0x215A JUMPI PUSH1 0x0 DUP1 REVERT JUMPDEST PUSH2 0x2166 DUP6 DUP4 DUP7 ADD PUSH2 0x20AC JUMP JUMPDEST PUSH1 0xA0 DUP5 ADD MSTORE PUSH1 0xC0 DUP5 ADD CALLDATALOAD SWAP2 POP DUP1 DUP3 GT ISZERO PUSH2 0x217F JUMPI PUSH1 0x0 DUP1 REVERT JUMPDEST PUSH2 0x218B DUP6 DUP4 DUP7 ADD PUSH2 0x20AC JUMP JUMPDEST PUSH1 0xC0 DUP5 ADD MSTORE PUSH2 0x219C PUSH1 0xE0 DUP6 ADD PUSH2 0x20CC JUMP JUMPDEST PUSH1 0xE0 DUP5 ADD MSTORE PUSH2 0x100 SWAP2 POP DUP2 DUP5 ADD CALLDATALOAD DUP2 DUP2 GT ISZERO PUSH2 0x21B7 JUMPI PUSH1 0x0 DUP1 REVERT JUMPDEST PUSH2 0x21C3 DUP7 DUP3 DUP8 ADD PUSH2 0x20AC JUMP JUMPDEST DUP4 DUP6 ADD MSTORE POP PUSH2 0x120 SWAP2 POP DUP2 DUP5 ADD CALLDATALOAD DUP2 DUP2 GT ISZERO PUSH2 0x21DE JUMPI PUSH1 0x0 DUP1 REVERT JUMPDEST PUSH2 0x21EA DUP7 DUP3 DUP8 ADD PUSH2 0x20AC JUMP JUMPDEST DUP4 DUP6 ADD MSTORE POP POP POP SWAP3 SWAP2 POP POP JUMP JUMPDEST PUSH1 0x0 PUSH1 0x20 DUP1 DUP4 DUP6 SUB SLT ISZERO PUSH2 0x220A JUMPI PUSH1 0x0 DUP1 REVERT JUMPDEST DUP3 CALLDATALOAD PUSH1 0x1 PUSH1 0x1 PUSH1 0x40 SHL SUB DUP1 DUP3 GT ISZERO PUSH2 0x2221 JUMPI PUSH1 0x0 DUP1 REVERT JUMPDEST DUP2 DUP6 ADD SWAP2 POP DUP6 PUSH1 0x1F DUP4 ADD SLT PUSH2 0x2235 JUMPI PUSH1 0x0 DUP1 REVERT JUMPDEST DUP2 CALLDATALOAD PUSH2 0x2248 PUSH2 0x2243 DUP3 PUSH2 0x2056 JUMP JUMPDEST PUSH2 0x1F6C JUMP JUMPDEST DUP2 DUP2 MSTORE PUSH1 0x5 SWAP2 SWAP1 SWAP2 SHL DUP4 ADD DUP5 ADD SWAP1 DUP5 DUP2 ADD SWAP1 DUP9 DUP4 GT ISZERO PUSH2 0x2267 JUMPI PUSH1 0x0 DUP1 REVERT JUMPDEST DUP6 DUP6 ADD JUMPDEST DUP4 DUP2 LT ISZERO PUSH2 0x229F JUMPI DUP1 CALLDATALOAD DUP6 DUP2 GT ISZERO PUSH2 0x2283 JUMPI PUSH1 0x0 DUP1 DUP2 REVERT JUMPDEST PUSH2 0x2291 DUP12 DUP10 DUP4 DUP11 ADD ADD PUSH2 0x20DB JUMP JUMPDEST DUP5 MSTORE POP SWAP2 DUP7 ADD SWAP2 DUP7 ADD PUSH2 0x226B JUMP JUMPDEST POP SWAP9 SWAP8 POP POP POP POP POP POP POP POP JUMP JUMPDEST PUSH1 0x20 DUP1 DUP3 MSTORE DUP3 MLOAD DUP3 DUP3 ADD DUP2 SWAP1 MSTORE PUSH1 0x0 SWAP2 SWAP1 DUP5 DUP3 ADD SWAP1 PUSH1 0x40 DUP6 ADD SWAP1 DUP5 JUMPDEST DUP2 DUP2 LT ISZERO PUSH2 0x22E4 JUMPI DUP4 MLOAD DUP4 MSTORE SWAP3 DUP5 ADD SWAP3 SWAP2 DUP5 ADD SWAP2 PUSH1 0x1 ADD PUSH2 0x22C8 JUMP JUMPDEST POP SWAP1 SWAP7 SWAP6 POP POP POP POP POP POP JUMP JUMPDEST PUSH1 0x0 DUP1 PUSH1 0x40 DUP4 DUP6 SUB SLT ISZERO PUSH2 0x2303 JUMPI PUSH1 0x0 DUP1 REVERT JUMPDEST DUP3 CALLDATALOAD SWAP2 POP PUSH2 0x2313 PUSH1 0x20 DUP5 ADD PUSH2 0x2095 JUMP JUMPDEST SWAP1 POP SWAP3 POP SWAP3 SWAP1 POP JUMP JUMPDEST PUSH1 0x0 PUSH1 0x20 DUP3 DUP5 SUB SLT ISZERO PUSH2 0x232E JUMPI PUSH1 0x0 DUP1 REVERT JUMPDEST PUSH2 0x1C9C DUP3 PUSH2 0x2079 JUMP JUMPDEST PUSH1 0x80 DUP2 MSTORE PUSH1 0x0 PUSH2 0x234A PUSH1 0x80 DUP4 ADD DUP6 PUSH2 0x1E28 JUMP JUMPDEST SWAP1 POP PUSH2 0x1C9C PUSH1 0x20 DUP4 ADD DUP5 PUSH2 0x1D64 JUMP JUMPDEST PUSH1 0x0 PUSH1 0x20 DUP3 DUP5 SUB SLT ISZERO PUSH2 0x236B JUMPI PUSH1 0x0 DUP1 REVERT JUMPDEST DUP2 CALLDATALOAD PUSH1 0x1 PUSH1 0x1 PUSH1 0x40 SHL SUB DUP2 GT ISZERO PUSH2 0x2381 JUMPI PUSH1 0x0 DUP1 REVERT JUMPDEST PUSH2 0x238D DUP5 DUP3 DUP6 ADD PUSH2 0x20DB JUMP JUMPDEST SWAP5 SWAP4 POP POP POP POP JUMP JUMPDEST PUSH1 0x0 PUSH1 0x20 DUP1 DUP4 DUP6 SUB SLT ISZERO PUSH2 0x23A8 JUMPI PUSH1 0x0 DUP1 REVERT JUMPDEST DUP3 CALLDATALOAD PUSH1 0x1 PUSH1 0x1 PUSH1 0x40 SHL SUB DUP2 GT ISZERO PUSH2 0x23BE JUMPI PUSH1 0x0 DUP1 REVERT JUMPDEST DUP4 ADD PUSH1 0x1F DUP2 ADD DUP6 SGT PUSH2 0x23CF JUMPI PUSH1 0x0 DUP1 REVERT JUMPDEST DUP1 CALLDATALOAD PUSH2 0x23DD PUSH2 0x2243 DUP3 PUSH2 0x2056 JUMP JUMPDEST DUP2 DUP2 MSTORE PUSH1 0x5 SWAP2 SWAP1 SWAP2 SHL DUP3 ADD DUP4 ADD SWAP1 DUP4 DUP2 ADD SWAP1 DUP8 DUP4 GT ISZERO PUSH2 0x23FC JUMPI PUSH1 0x0 DUP1 REVERT JUMPDEST SWAP3 DUP5 ADD SWAP3 JUMPDEST DUP3 DUP5 LT ISZERO PUSH2 0x241A JUMPI DUP4 CALLDATALOAD DUP3 MSTORE SWAP3 DUP5 ADD SWAP3 SWAP1 DUP5 ADD SWAP1 PUSH2 0x2401 JUMP JUMPDEST SWAP8 SWAP7 POP POP POP POP POP POP POP JUMP JUMPDEST PUSH1 0x0 PUSH1 0x20 DUP1 DUP4 ADD DUP2 DUP5 MSTORE DUP1 DUP6 MLOAD DUP1 DUP4 MSTORE PUSH1 0x40 DUP7 ADD SWAP2 POP PUSH1 0x40 DUP2 PUSH1 0x5 SHL DUP8 ADD ADD SWAP3 POP DUP4 DUP8 ADD PUSH1 0x0 JUMPDEST DUP3 DUP2 LT ISZERO PUSH2 0x247A JUMPI PUSH1 0x3F NOT DUP9 DUP7 SUB ADD DUP5 MSTORE PUSH2 0x2468 DUP6 DUP4 MLOAD PUSH2 0x1E28 JUMP JUMPDEST SWAP5 POP SWAP3 DUP6 ADD SWAP3 SWAP1 DUP6 ADD SWAP1 PUSH1 0x1 ADD PUSH2 0x244C JUMP JUMPDEST POP SWAP3 SWAP8 SWAP7 POP POP POP POP POP POP POP JUMP JUMPDEST PUSH1 0x0 PUSH1 0x20 DUP3 DUP5 SUB SLT ISZERO PUSH2 0x2499 JUMPI PUSH1 0x0 DUP1 REVERT JUMPDEST DUP2 CALLDATALOAD PUSH1 0x1 PUSH1 0x1 PUSH1 0x40 SHL SUB DUP2 GT ISZERO PUSH2 0x24AF JUMPI PUSH1 0x0 DUP1 REVERT JUMPDEST PUSH2 0x238D DUP5 DUP3 DUP6 ADD PUSH2 0x20AC JUMP JUMPDEST PUSH1 0x0 PUSH1 0x20 DUP1 DUP4 DUP6 SUB SLT ISZERO PUSH2 0x24CE JUMPI PUSH1 0x0 DUP1 REVERT JUMPDEST DUP3 CALLDATALOAD PUSH1 0x1 PUSH1 0x1 PUSH1 0x40 SHL SUB DUP1 DUP3 GT ISZERO PUSH2 0x24E5 JUMPI PUSH1 0x0 DUP1 REVERT JUMPDEST DUP2 DUP6 ADD SWAP2 POP DUP6 PUSH1 0x1F DUP4 ADD SLT PUSH2 0x24F9 JUMPI PUSH1 0x0 DUP1 REVERT JUMPDEST DUP2 CALLDATALOAD PUSH2 0x2507 PUSH2 0x2243 DUP3 PUSH2 0x2056 JUMP JUMPDEST DUP2 DUP2 MSTORE PUSH1 0x5 SWAP2 SWAP1 SWAP2 SHL DUP4 ADD DUP5 ADD SWAP1 DUP5 DUP2 ADD SWAP1 DUP9 DUP4 GT ISZERO PUSH2 0x2526 JUMPI PUSH1 0x0 DUP1 REVERT JUMPDEST DUP6 DUP6 ADD JUMPDEST DUP4 DUP2 LT ISZERO PUSH2 0x229F JUMPI DUP1 CALLDATALOAD DUP6 DUP2 GT ISZERO PUSH2 0x2542 JUMPI PUSH1 0x0 DUP1 DUP2 REVERT JUMPDEST PUSH2 0x2550 DUP12 DUP10 DUP4 DUP11 ADD ADD PUSH2 0x20AC JUMP JUMPDEST DUP5 MSTORE POP SWAP2 DUP7 ADD SWAP2 DUP7 ADD PUSH2 0x252A JUMP JUMPDEST PUSH1 0x0 DUP1 PUSH1 0x0 PUSH1 0x60 DUP5 DUP7 SUB SLT ISZERO PUSH2 0x2573 JUMPI PUSH1 0x0 DUP1 REVERT JUMPDEST POP POP DUP2 CALLDATALOAD SWAP4 PUSH1 0x20 DUP4 ADD CALLDATALOAD SWAP4 POP PUSH1 0x40 SWAP1 SWAP3 ADD CALLDATALOAD SWAP2 SWAP1 POP JUMP JUMPDEST PUSH1 0x0 PUSH1 0x20 DUP1 DUP4 ADD DUP2 DUP5 MSTORE DUP1 DUP6 MLOAD DUP1 DUP4 MSTORE PUSH1 0x40 DUP7 ADD SWAP2 POP PUSH1 0x40 DUP2 PUSH1 0x5 SHL DUP8 ADD ADD SWAP3 POP DUP4 DUP8 ADD PUSH1 0x0 JUMPDEST DUP3 DUP2 LT ISZERO PUSH2 0x247A JUMPI PUSH1 0x3F NOT DUP9 DUP7 SUB ADD DUP5 MSTORE PUSH2 0x25CD DUP6 DUP4 MLOAD PUSH2 0x1DC4 JUMP JUMPDEST SWAP5 POP SWAP3 DUP6 ADD SWAP3 SWAP1 DUP6 ADD SWAP1 PUSH1 0x1 ADD PUSH2 0x25B1 JUMP JUMPDEST PUSH1 0x1 DUP2 DUP2 SHR SWAP1 DUP3 AND DUP1 PUSH2 0x25F3 JUMPI PUSH1 0x7F DUP3 AND SWAP2 POP JUMPDEST PUSH1 0x20 DUP3 LT DUP2 SUB PUSH2 0x18AA JUMPI PUSH4 0x4E487B71 PUSH1 0xE0 SHL PUSH1 0x0 MSTORE PUSH1 0x22 PUSH1 0x4 MSTORE PUSH1 0x24 PUSH1 0x0 REVERT JUMPDEST PUSH1 0x20 DUP1 DUP3 MSTORE PUSH1 0x17 SWAP1 DUP3 ADD MSTORE PUSH23 0x21B0B63632B91034B9903737BA103A34329037BBB732B9 PUSH1 0x49 SHL PUSH1 0x40 DUP3 ADD MSTORE PUSH1 0x60 ADD SWAP1 JUMP JUMPDEST PUSH4 0x4E487B71 PUSH1 0xE0 SHL PUSH1 0x0 MSTORE PUSH1 0x11 PUSH1 0x4 MSTORE PUSH1 0x24 PUSH1 0x0 REVERT JUMPDEST DUP1 DUP3 ADD DUP1 DUP3 GT ISZERO PUSH2 0x1D9A JUMPI PUSH2 0x1D9A PUSH2 0x2644 JUMP JUMPDEST DUP3 DUP2 MSTORE PUSH1 0x0 DUP3 MLOAD PUSH2 0x2685 DUP2 PUSH1 0x20 DUP6 ADD PUSH1 0x20 DUP8 ADD PUSH2 0x1DA0 JUMP JUMPDEST SWAP2 SWAP1 SWAP2 ADD PUSH1 0x20 ADD SWAP4 SWAP3 POP POP POP JUMP JUMPDEST PUSH1 0x1F DUP3 GT ISZERO PUSH2 0x26DD JUMPI PUSH1 0x0 DUP2 DUP2 MSTORE PUSH1 0x20 DUP2 KECCAK256 PUSH1 0x1F DUP6 ADD PUSH1 0x5 SHR DUP2 ADD PUSH1 0x20 DUP7 LT ISZERO PUSH2 0x26BA JUMPI POP DUP1 JUMPDEST PUSH1 0x1F DUP6 ADD PUSH1 0x5 SHR DUP3 ADD SWAP2 POP JUMPDEST DUP2 DUP2 LT ISZERO PUSH2 0x26D9 JUMPI DUP3 DUP2 SSTORE PUSH1 0x1 ADD PUSH2 0x26C6 JUMP JUMPDEST POP POP POP JUMPDEST POP POP POP JUMP JUMPDEST DUP2 MLOAD PUSH1 0x1 PUSH1 0x1 PUSH1 0x40 SHL SUB DUP2 GT ISZERO PUSH2 0x26FB JUMPI PUSH2 0x26FB PUSH2 0x1F2D JUMP JUMPDEST PUSH2 0x270F DUP2 PUSH2 0x2709 DUP5 SLOAD PUSH2 0x25DF JUMP JUMPDEST DUP5 PUSH2 0x2693 JUMP JUMPDEST PUSH1 0x20 DUP1 PUSH1 0x1F DUP4 GT PUSH1 0x1 DUP2 EQ PUSH2 0x2744 JUMPI PUSH1 0x0 DUP5 ISZERO PUSH2 0x272C JUMPI POP DUP6 DUP4 ADD MLOAD JUMPDEST PUSH1 0x0 NOT PUSH1 0x3 DUP7 SWAP1 SHL SHR NOT AND PUSH1 0x1 DUP6 SWAP1 SHL OR DUP6 SSTORE PUSH2 0x26D9 JUMP JUMPDEST PUSH1 0x0 DUP6 DUP2 MSTORE PUSH1 0x20 DUP2 KECCAK256 PUSH1 0x1F NOT DUP7 AND SWAP2 JUMPDEST DUP3 DUP2 LT ISZERO PUSH2 0x2773 JUMPI DUP9 DUP7 ADD MLOAD DUP3 SSTORE SWAP5 DUP5 ADD SWAP5 PUSH1 0x1 SWAP1 SWAP2 ADD SWAP1 DUP5 ADD PUSH2 0x2754 JUMP JUMPDEST POP DUP6 DUP3 LT ISZERO PUSH2 0x2791 JUMPI DUP8 DUP6 ADD MLOAD PUSH1 0x0 NOT PUSH1 0x3 DUP9 SWAP1 SHL PUSH1 0xF8 AND SHR NOT AND DUP2 SSTORE JUMPDEST POP POP POP POP POP PUSH1 0x1 SWAP1 DUP2 SHL ADD SWAP1 SSTORE POP JUMP JUMPDEST PUSH1 0x0 PUSH1 0x1 PUSH1 0x1 PUSH1 0x40 SHL SUB DUP3 DUP2 AND PUSH1 0x2 PUSH1 0x1 PUSH1 0x40 SHL SUB NOT DUP2 ADD PUSH2 0x27C5 JUMPI PUSH2 0x27C5 PUSH2 0x2644 JUMP JUMPDEST PUSH1 0x1 ADD SWAP4 SWAP3 POP POP POP JUMP JUMPDEST PUSH1 0x1 PUSH1 0x1 PUSH1 0x40 SHL SUB DUP2 DUP2 AND DUP4 DUP3 AND ADD SWAP1 DUP1 DUP3 GT ISZERO PUSH2 0xBB2 JUMPI PUSH2 0xBB2 PUSH2 0x2644 JUMP JUMPDEST PUSH1 0x1 PUSH1 0x1 PUSH1 0x40 SHL SUB DUP3 DUP2 AND DUP3 DUP3 AND SUB SWAP1 DUP1 DUP3 GT ISZERO PUSH2 0xBB2 JUMPI PUSH2 0xBB2 PUSH2 0x2644 JUMP JUMPDEST PUSH1 0x0 PUSH1 0x1 DUP3 ADD PUSH2 0x2821 JUMPI PUSH2 0x2821 PUSH2 0x2644 JUMP JUMPDEST POP PUSH1 0x1 ADD SWAP1 JUMP JUMPDEST PUSH4 0x4E487B71 PUSH1 0xE0 SHL PUSH1 0x0 MSTORE PUSH1 0x32 PUSH1 0x4 MSTORE PUSH1 0x24 PUSH1 0x0 REVERT JUMPDEST PUSH1 0x20 DUP1 DUP3 MSTORE PUSH1 0x10 SWAP1 DUP3 ADD MSTORE PUSH16 0x119A5B19481A185CC8195E1C1A5C9959 PUSH1 0x82 SHL PUSH1 0x40 DUP3 ADD MSTORE PUSH1 0x60 ADD SWAP1 JUMP JUMPDEST PUSH1 0x1 PUSH1 0x1 PUSH1 0xC0 SHL SUB NOT PUSH1 0xC0 DUP9 DUP2 SHL DUP3 AND DUP4 MSTORE DUP8 SWAP1 SHL AND PUSH1 0x8 DUP3 ADD MSTORE PUSH1 0x10 DUP2 ADD DUP6 SWAP1 MSTORE DUP4 MLOAD PUSH1 0x0 SWAP1 PUSH2 0x28A0 DUP2 PUSH1 0x30 DUP6 ADD PUSH1 0x20 DUP10 ADD PUSH2 0x1DA0 JUMP JUMPDEST DUP5 MLOAD SWAP1 DUP4 ADD SWAP1 PUSH2 0x28B7 DUP2 PUSH1 0x30 DUP5 ADD PUSH1 0x20 DUP10 ADD PUSH2 0x1DA0 JUMP JUMPDEST ADD PUSH1 0x30 DUP2 ADD SWAP4 SWAP1 SWAP4 MSTORE POP POP PUSH1 0x50 ADD SWAP6 SWAP5 POP POP POP POP POP JUMP JUMPDEST PUSH1 0x0 DUP3 MLOAD PUSH2 0x28E0 DUP2 DUP5 PUSH1 0x20 DUP8 ADD PUSH2 0x1DA0 JUMP JUMPDEST SWAP2 SWAP1 SWAP2 ADD SWAP3 SWAP2 POP POP JUMP JUMPDEST PUSH1 0x40 DUP2 MSTORE PUSH1 0x0 PUSH2 0x28FD PUSH1 0x40 DUP4 ADD DUP6 PUSH2 0x1DC4 JUMP JUMPDEST SWAP1 POP PUSH1 0x1 DUP1 PUSH1 0x40 SHL SUB DUP4 AND PUSH1 0x20 DUP4 ADD MSTORE SWAP4 SWAP3 POP POP POP JUMP JUMPDEST DUP2 DUP2 SUB DUP2 DUP2 GT ISZERO PUSH2 0x1D9A JUMPI PUSH2 0x1D9A PUSH2 0x2644 JUMP INVALID LOG2 PUSH5 0x6970667358 0x22 SLT KECCAK256 0xE8 STOP 0xD9 0x4F 0xC0 0xB8 0xB5 0x4B PUSH30 0x90A5E2560D721AC9E4672FC8BE9FE6C6FD36BA2C3449BA64736F6C634300 ADDMOD SGT STOP CALLER "
				},
				"gasEstimates": {
					"creation": {
						"codeDepositCost": "2117800",
						"executionCost": "26461",
						"totalCost": "2144261"
					},
					"external": {
						"deleteFile(bytes32)": "infinite",
						"downloadFile(bytes32,uint256,uint256)": "infinite",
						"getFileInfo(bytes32)": "infinite",
						"getFileKeyFromName(string[])": "infinite",
						"getFileProgress(bytes32)": "7164",
						"getFilesInfo(bytes32[])": "infinite",
						"lockFile(bytes32)": "32275",
						"mKeyToFileInfo(bytes32)": "infinite",
						"mNameToFileKey(string)": "infinite",
						"owner()": "2425",
						"pushFileInfo((address,bytes32,uint64,uint64,uint64,string,string,uint8,string,string))": "infinite",
						"pushFileInfos((address,bytes32,uint64,uint64,uint64,string,string,uint8,string,string)[])": "infinite",
						"renewTime(bytes32,uint64)": "29220",
						"service()": "2557",
						"setService(address)": "26865",
						"uploadChunk(bytes32,bytes,bytes32)": "infinite"
					}
				},
				"methodIdentifiers": {
					"deleteFile(bytes32)": "6ab799f1",
					"downloadFile(bytes32,uint256,uint256)": "fab91940",
					"getFileInfo(bytes32)": "52f7347b",
					"getFileKeyFromName(string[])": "f25671c4",
					"getFileProgress(bytes32)": "46da5178",
					"getFilesInfo(bytes32[])": "eb070e7e",
					"lockFile(bytes32)": "9b26b2a8",
					"mKeyToFileInfo(bytes32)": "c652793d",
					"mNameToFileKey(string)": "edff13af",
					"owner()": "8da5cb5b",
					"pushFileInfo((address,bytes32,uint64,uint64,uint64,string,string,uint8,string,string))": "ca7e3cd4",
					"pushFileInfos((address,bytes32,uint64,uint64,uint64,string,string,uint8,string,string)[])": "6e0c19b1",
					"renewTime(bytes32,uint64)": "91c03370",
					"service()": "d598d4c9",
					"setService(address)": "bf8bdac1",
					"uploadChunk(bytes32,bytes,bytes32)": "5f95c07b"
				}
			},
			"storageLayout": {
				"storage": [
					{
						"astId": 29,
						"contract": "src/file.sol:Files",
						"label": "mKeyToFileInfo",
						"offset": 0,
						"slot": "0",
						"type": "t_mapping(t_bytes32,t_struct(FileInfo)888_storage)"
					},
					{
						"astId": 33,
						"contract": "src/file.sol:Files",
						"label": "mNameToFileKey",
						"offset": 0,
						"slot": "1",
						"type": "t_mapping(t_string_memory_ptr,t_bytes32)"
					},
					{
						"astId": 35,
						"contract": "src/file.sol:Files",
						"label": "service",
						"offset": 0,
						"slot": "2",
						"type": "t_address"
					},
					{
						"astId": 37,
						"contract": "src/file.sol:Files",
						"label": "owner",
						"offset": 0,
						"slot": "3",
						"type": "t_address"
					}
				],
				"types": {
					"t_address": {
						"encoding": "inplace",
						"label": "address",
						"numberOfBytes": "20"
					},
					"t_bytes32": {
						"encoding": "inplace",
						"label": "bytes32",
						"numberOfBytes": "32"
					},
					"t_bytes_storage": {
						"encoding": "bytes",
						"label": "bytes",
						"numberOfBytes": "32"
					},
					"t_enum(FileStatus)848": {
						"encoding": "inplace",
						"label": "enum FileStatus",
						"numberOfBytes": "1"
					},
					"t_mapping(t_bytes32,t_struct(FileInfo)888_storage)": {
						"encoding": "mapping",
						"key": "t_bytes32",
						"label": "mapping(bytes32 => struct FileInfo)",
						"numberOfBytes": "32",
						"value": "t_struct(FileInfo)888_storage"
					},
					"t_mapping(t_string_memory_ptr,t_bytes32)": {
						"encoding": "mapping",
						"key": "t_string_memory_ptr",
						"label": "mapping(string => bytes32)",
						"numberOfBytes": "32",
						"value": "t_bytes32"
					},
					"t_mapping(t_uint256,t_bytes_storage)": {
						"encoding": "mapping",
						"key": "t_uint256",
						"label": "mapping(uint256 => bytes)",
						"numberOfBytes": "32",
						"value": "t_bytes_storage"
					},
					"t_string_memory_ptr": {
						"encoding": "bytes",
						"label": "string",
						"numberOfBytes": "32"
					},
					"t_string_storage": {
						"encoding": "bytes",
						"label": "string",
						"numberOfBytes": "32"
					},
					"t_struct(FileInfo)888_storage": {
						"encoding": "inplace",
						"label": "struct FileInfo",
						"members": [
							{
								"astId": 880,
								"contract": "src/file.sol:Files",
								"label": "info",
								"offset": 0,
								"slot": "0",
								"type": "t_struct(Info)870_storage"
							},
							{
								"astId": 883,
								"contract": "src/file.sol:Files",
								"label": "progress",
								"offset": 0,
								"slot": "8",
								"type": "t_struct(FileProgress)877_storage"
							},
							{
								"astId": 887,
								"contract": "src/file.sol:Files",
								"label": "chunks",
								"offset": 0,
								"slot": "10",
								"type": "t_mapping(t_uint256,t_bytes_storage)"
							}
						],
						"numberOfBytes": "352"
					},
					"t_struct(FileProgress)877_storage": {
						"encoding": "inplace",
						"label": "struct FileProgress",
						"members": [
							{
								"astId": 872,
								"contract": "src/file.sol:Files",
								"label": "lastChunkHash",
								"offset": 0,
								"slot": "0",
								"type": "t_bytes32"
							},
							{
								"astId": 874,
								"contract": "src/file.sol:Files",
								"label": "processedChunks",
								"offset": 0,
								"slot": "1",
								"type": "t_uint64"
							},
							{
								"astId": 876,
								"contract": "src/file.sol:Files",
								"label": "processedLength",
								"offset": 8,
								"slot": "1",
								"type": "t_uint64"
							}
						],
						"numberOfBytes": "64"
					},
					"t_struct(Info)870_storage": {
						"encoding": "inplace",
						"label": "struct Info",
						"members": [
							{
								"astId": 850,
								"contract": "src/file.sol:Files",
								"label": "owner",
								"offset": 0,
								"slot": "0",
								"type": "t_address"
							},
							{
								"astId": 852,
								"contract": "src/file.sol:Files",
								"label": "hash",
								"offset": 0,
								"slot": "1",
								"type": "t_bytes32"
							},
							{
								"astId": 854,
								"contract": "src/file.sol:Files",
								"label": "contentLen",
								"offset": 0,
								"slot": "2",
								"type": "t_uint64"
							},
							{
								"astId": 856,
								"contract": "src/file.sol:Files",
								"label": "totalChunks",
								"offset": 8,
								"slot": "2",
								"type": "t_uint64"
							},
							{
								"astId": 858,
								"contract": "src/file.sol:Files",
								"label": "expireTime",
								"offset": 16,
								"slot": "2",
								"type": "t_uint64"
							},
							{
								"astId": 860,
								"contract": "src/file.sol:Files",
								"label": "name",
								"offset": 0,
								"slot": "3",
								"type": "t_string_storage"
							},
							{
								"astId": 862,
								"contract": "src/file.sol:Files",
								"label": "ext",
								"offset": 0,
								"slot": "4",
								"type": "t_string_storage"
							},
							{
								"astId": 865,
								"contract": "src/file.sol:Files",
								"label": "status",
								"offset": 0,
								"slot": "5",
								"type": "t_enum(FileStatus)848"
							},
							{
								"astId": 867,
								"contract": "src/file.sol:Files",
								"label": "contentDisposition",
								"offset": 0,
								"slot": "6",
								"type": "t_string_storage"
							},
							{
								"astId": 869,
								"contract": "src/file.sol:Files",
								"label": "contentID",
								"offset": 0,
								"slot": "7",
								"type": "t_string_storage"
							}
						],
						"numberOfBytes": "256"
					},
					"t_uint256": {
						"encoding": "inplace",
						"label": "uint256",
						"numberOfBytes": "32"
					},
					"t_uint64": {
						"encoding": "inplace",
						"label": "uint64",
						"numberOfBytes": "8"
					}
				}
			},
			"userdoc": {
				"kind": "user",
				"methods": {},
				"version": 1
			}
		}
	}
}