{
	"src/mailStorage.sol": {
		"EmailStorage": {
			"abi": [
				{
					"inputs": [],
					"stateMutability": "payable",
					"type": "constructor"
				},
				{
					"anonymous": false,
					"inputs": [
						{
							"indexed": false,
							"internalType": "uint256",
							"name": "emailID",
							"type": "uint256"
						},
						{
							"indexed": false,
							"internalType": "string",
							"name": "subject",
							"type": "string"
						},
						{
							"indexed": true,
							"internalType": "string",
							"name": "creator",
							"type": "string"
						}
					],
					"name": "EmailCreated",
					"type": "event"
				},
				{
					"anonymous": false,
					"inputs": [
						{
							"indexed": false,
							"internalType": "string",
							"name": "reason",
							"type": "string"
						}
					],
					"name": "NotificationFailed",
					"type": "event"
				},
				{
					"inputs": [],
					"name": "REPO_NOTI_SMC",
					"outputs": [
						{
							"internalType": "string",
							"name": "",
							"type": "string"
						}
					],
					"stateMutability": "view",
					"type": "function"
				},
				{
					"inputs": [
						{
							"internalType": "string",
							"name": "sender",
							"type": "string"
						},
						{
							"internalType": "string",
							"name": "subject",
							"type": "string"
						},
						{
							"internalType": "string",
							"name": "body",
							"type": "string"
						},
						{
							"internalType": "bytes32[]",
							"name": "_fileKeys",
							"type": "bytes32[]"
						},
						{
							"internalType": "uint64",
							"name": "createdAt",
							"type": "uint64"
						}
					],
					"name": "createEmail",
					"outputs": [
						{
							"internalType": "uint256",
							"name": "",
							"type": "uint256"
						}
					],
					"stateMutability": "nonpayable",
					"type": "function"
				},
				{
					"inputs": [],
					"name": "emailCounter",
					"outputs": [
						{
							"internalType": "uint256",
							"name": "",
							"type": "uint256"
						}
					],
					"stateMutability": "view",
					"type": "function"
				},
				{
					"inputs": [],
					"name": "fileSc",
					"outputs": [
						{
							"internalType": "address",
							"name": "",
							"type": "address"
						}
					],
					"stateMutability": "view",
					"type": "function"
				},
				{
					"inputs": [],
					"name": "getAllEmailInfos",
					"outputs": [
						{
							"components": [
								{
									"internalType": "string",
									"name": "subject",
									"type": "string"
								},
								{
									"internalType": "string",
									"name": "from",
									"type": "string"
								},
								{
									"internalType": "uint64",
									"name": "createdAt",
									"type": "uint64"
								},
								{
									"internalType": "uint8",
									"name": "isRead",
									"type": "uint8"
								},
								{
									"internalType": "bytes32[]",
									"name": "fileKeys",
									"type": "bytes32[]"
								},
								{
									"internalType": "string",
									"name": "discription",
									"type": "string"
								}
							],
							"internalType": "struct EmailInfo[]",
							"name": "",
							"type": "tuple[]"
						}
					],
					"stateMutability": "view",
					"type": "function"
				},
				{
					"inputs": [
						{
							"internalType": "uint256",
							"name": "emailID",
							"type": "uint256"
						}
					],
					"name": "getEmail",
					"outputs": [
						{
							"components": [
								{
									"components": [
										{
											"internalType": "string",
											"name": "subject",
											"type": "string"
										},
										{
											"internalType": "string",
											"name": "from",
											"type": "string"
										},
										{
											"internalType": "uint64",
											"name": "createdAt",
											"type": "uint64"
										},
										{
											"internalType": "uint8",
											"name": "isRead",
											"type": "uint8"
										},
										{
											"internalType": "bytes32[]",
											"name": "fileKeys",
											"type": "bytes32[]"
										},
										{
											"internalType": "string",
											"name": "discription",
											"type": "string"
										}
									],
									"internalType": "struct EmailInfo",
									"name": "info",
									"type": "tuple"
								},
								{
									"internalType": "string",
									"name": "body",
									"type": "string"
								}
							],
							"internalType": "struct Email",
							"name": "",
							"type": "tuple"
						}
					],
					"stateMutability": "nonpayable",
					"type": "function"
				},
				{
					"inputs": [
						{
							"internalType": "uint256",
							"name": "startIndex",
							"type": "uint256"
						},
						{
							"internalType": "uint256",
							"name": "count",
							"type": "uint256"
						}
					],
					"name": "getEmailInfos",
					"outputs": [
						{
							"components": [
								{
									"internalType": "string",
									"name": "subject",
									"type": "string"
								},
								{
									"internalType": "string",
									"name": "from",
									"type": "string"
								},
								{
									"internalType": "uint64",
									"name": "createdAt",
									"type": "uint64"
								},
								{
									"internalType": "uint8",
									"name": "isRead",
									"type": "uint8"
								},
								{
									"internalType": "bytes32[]",
									"name": "fileKeys",
									"type": "bytes32[]"
								},
								{
									"internalType": "string",
									"name": "discription",
									"type": "string"
								}
							],
							"internalType": "struct EmailInfo[]",
							"name": "",
							"type": "tuple[]"
						}
					],
					"stateMutability": "view",
					"type": "function"
				},
				{
					"inputs": [
						{
							"internalType": "address",
							"name": "_storageOwner",
							"type": "address"
						},
						{
							"internalType": "address",
							"name": "_service",
							"type": "address"
						},
						{
							"internalType": "address",
							"name": "_notification",
							"type": "address"
						}
					],
					"name": "initialize",
					"outputs": [],
					"stateMutability": "nonpayable",
					"type": "function"
				},
				{
					"inputs": [
						{
							"internalType": "address",
							"name": "",
							"type": "address"
						}
					],
					"name": "isOwner",
					"outputs": [
						{
							"internalType": "bool",
							"name": "",
							"type": "bool"
						}
					],
					"stateMutability": "view",
					"type": "function"
				},
				{
					"inputs": [],
					"name": "notiSMC",
					"outputs": [
						{
							"internalType": "address",
							"name": "",
							"type": "address"
						}
					],
					"stateMutability": "view",
					"type": "function"
				},
				{
					"inputs": [],
					"name": "service",
					"outputs": [
						{
							"internalType": "address",
							"name": "",
							"type": "address"
						}
					],
					"stateMutability": "view",
					"type": "function"
				},
				{
					"inputs": [
						{
							"internalType": "address",
							"name": "_fileSc",
							"type": "address"
						}
					],
					"name": "setFileSMC",
					"outputs": [],
					"stateMutability": "nonpayable",
					"type": "function"
				},
				{
					"inputs": [
						{
							"internalType": "address",
							"name": "_notiSMCAddress",
							"type": "address"
						}
					],
					"name": "setNotificationSMC",
					"outputs": [],
					"stateMutability": "nonpayable",
					"type": "function"
				},
				{
					"inputs": [
						{
							"internalType": "address",
							"name": "_service",
							"type": "address"
						}
					],
					"name": "setService",
					"outputs": [],
					"stateMutability": "nonpayable",
					"type": "function"
				},
				{
					"inputs": [
						{
							"internalType": "address",
							"name": "_storageOwner",
							"type": "address"
						}
					],
					"name": "setStorageOwner",
					"outputs": [],
					"stateMutability": "nonpayable",
					"type": "function"
				},
				{
					"inputs": [],
					"name": "storageOwner",
					"outputs": [
						{
							"internalType": "address",
							"name": "",
							"type": "address"
						}
					],
					"stateMutability": "view",
					"type": "function"
				}
			],
			"devdoc": {
				"kind": "dev",
				"methods": {},
				"version": 1
			},
			"evm": {
				"assembly": "    /* \"src/mailStorage.sol\":432:468  string public REPO_NOTI_SMC = \"MAIL\" */\n  0xc0\n    /* \"src/mailStorage.sol\":193:4528  contract EmailStorage {... */\n  0x40\n    /* \"src/mailStorage.sol\":432:468  string public REPO_NOTI_SMC = \"MAIL\" */\n  mstore\n  0x04\n    /* \"src/mailStorage.sol\":193:4528  contract EmailStorage {... */\n  0x80\n    /* \"src/mailStorage.sol\":432:468  string public REPO_NOTI_SMC = \"MAIL\" */\n  swap1\n  dup2\n  mstore\n  mstore(0xa0, shl(0xe2, 0x13505253))\n  0x06\n  swap1\n  tag_1\n  swap1\n  dup3\n  tag_2\n  jump\t// in\ntag_1:\n  pop\n    /* \"src/mailStorage.sol\":193:4528  contract EmailStorage {... */\n  jump(tag_11)\n    /* \"#utility.yul\":14:141   */\ntag_6:\n    /* \"#utility.yul\":75:85   */\n  0x4e487b71\n    /* \"#utility.yul\":70:73   */\n  0xe0\n    /* \"#utility.yul\":66:86   */\n  shl\n    /* \"#utility.yul\":63:64   */\n  0x00\n    /* \"#utility.yul\":56:87   */\n  mstore\n    /* \"#utility.yul\":106:110   */\n  0x41\n    /* \"#utility.yul\":103:104   */\n  0x04\n    /* \"#utility.yul\":96:111   */\n  mstore\n    /* \"#utility.yul\":130:134   */\n  0x24\n    /* \"#utility.yul\":127:128   */\n  0x00\n    /* \"#utility.yul\":120:135   */\n  revert\n    /* \"#utility.yul\":146:526   */\ntag_7:\n    /* \"#utility.yul\":225:226   */\n  0x01\n    /* \"#utility.yul\":221:233   */\n  dup2\n  dup2\n  shr\n  swap1\n    /* \"#utility.yul\":268:280   */\n  dup3\n  and\n  dup1\n    /* \"#utility.yul\":289:350   */\n  tag_14\n  jumpi\n    /* \"#utility.yul\":343:347   */\n  0x7f\n    /* \"#utility.yul\":335:341   */\n  dup3\n    /* \"#utility.yul\":331:348   */\n  and\n    /* \"#utility.yul\":321:348   */\n  swap2\n  pop\n    /* \"#utility.yul\":289:350   */\ntag_14:\n    /* \"#utility.yul\":396:398   */\n  0x20\n    /* \"#utility.yul\":388:394   */\n  dup3\n    /* \"#utility.yul\":385:399   */\n  lt\n    /* \"#utility.yul\":365:383   */\n  dup2\n    /* \"#utility.yul\":362:400   */\n  sub\n    /* \"#utility.yul\":359:520   */\n  tag_15\n  jumpi\n    /* \"#utility.yul\":442:452   */\n  0x4e487b71\n    /* \"#utility.yul\":437:440   */\n  0xe0\n    /* \"#utility.yul\":433:453   */\n  shl\n    /* \"#utility.yul\":430:431   */\n  0x00\n    /* \"#utility.yul\":423:454   */\n  mstore\n    /* \"#utility.yul\":477:481   */\n  0x22\n    /* \"#utility.yul\":474:475   */\n  0x04\n    /* \"#utility.yul\":467:482   */\n  mstore\n    /* \"#utility.yul\":505:509   */\n  0x24\n    /* \"#utility.yul\":502:503   */\n  0x00\n    /* \"#utility.yul\":495:510   */\n  revert\n    /* \"#utility.yul\":359:520   */\ntag_15:\n  pop\n    /* \"#utility.yul\":146:526   */\n  swap2\n  swap1\n  pop\n  jump\t// out\n    /* \"#utility.yul\":657:1202   */\ntag_9:\n    /* \"#utility.yul\":759:761   */\n  0x1f\n    /* \"#utility.yul\":754:757   */\n  dup3\n    /* \"#utility.yul\":751:762   */\n  gt\n    /* \"#utility.yul\":748:1196   */\n  iszero\n  tag_18\n  jumpi\n    /* \"#utility.yul\":795:796   */\n  0x00\n    /* \"#utility.yul\":820:825   */\n  dup2\n    /* \"#utility.yul\":816:818   */\n  dup2\n    /* \"#utility.yul\":809:826   */\n  mstore\n    /* \"#utility.yul\":865:869   */\n  0x20\n    /* \"#utility.yul\":861:863   */\n  dup2\n    /* \"#utility.yul\":851:870   */\n  keccak256\n    /* \"#utility.yul\":935:937   */\n  0x1f\n    /* \"#utility.yul\":923:933   */\n  dup6\n    /* \"#utility.yul\":919:938   */\n  add\n    /* \"#utility.yul\":916:917   */\n  0x05\n    /* \"#utility.yul\":912:939   */\n  shr\n    /* \"#utility.yul\":906:910   */\n  dup2\n    /* \"#utility.yul\":902:940   */\n  add\n    /* \"#utility.yul\":971:975   */\n  0x20\n    /* \"#utility.yul\":959:969   */\n  dup7\n    /* \"#utility.yul\":956:976   */\n  lt\n    /* \"#utility.yul\":953:1000   */\n  iszero\n  tag_19\n  jumpi\n  pop\n    /* \"#utility.yul\":994:998   */\n  dup1\n    /* \"#utility.yul\":953:1000   */\ntag_19:\n    /* \"#utility.yul\":1049:1051   */\n  0x1f\n    /* \"#utility.yul\":1044:1047   */\n  dup6\n    /* \"#utility.yul\":1040:1052   */\n  add\n    /* \"#utility.yul\":1037:1038   */\n  0x05\n    /* \"#utility.yul\":1033:1053   */\n  shr\n    /* \"#utility.yul\":1027:1031   */\n  dup3\n    /* \"#utility.yul\":1023:1054   */\n  add\n    /* \"#utility.yul\":1013:1054   */\n  swap2\n  pop\n    /* \"#utility.yul\":1104:1186   */\ntag_20:\n    /* \"#utility.yul\":1122:1124   */\n  dup2\n    /* \"#utility.yul\":1115:1120   */\n  dup2\n    /* \"#utility.yul\":1112:1125   */\n  lt\n    /* \"#utility.yul\":1104:1186   */\n  iszero\n  tag_22\n  jumpi\n    /* \"#utility.yul\":1167:1184   */\n  dup3\n  dup2\n  sstore\n    /* \"#utility.yul\":1148:1149   */\n  0x01\n    /* \"#utility.yul\":1137:1150   */\n  add\n    /* \"#utility.yul\":1104:1186   */\n  jump(tag_20)\ntag_22:\n    /* \"#utility.yul\":1108:1111   */\n  pop\n  pop\n  pop\n    /* \"#utility.yul\":748:1196   */\ntag_18:\n    /* \"#utility.yul\":657:1202   */\n  pop\n  pop\n  pop\n  jump\t// out\n    /* \"#utility.yul\":1378:2730   */\ntag_2:\n    /* \"#utility.yul\":1498:1508   */\n  dup2\n  mload\n  sub(shl(0x40, 0x01), 0x01)\n    /* \"#utility.yul\":1520:1550   */\n  dup2\n  gt\n    /* \"#utility.yul\":1517:1573   */\n  iszero\n  tag_26\n  jumpi\n    /* \"#utility.yul\":1553:1571   */\n  tag_26\n  tag_6\n  jump\t// in\ntag_26:\n    /* \"#utility.yul\":1582:1679   */\n  tag_27\n    /* \"#utility.yul\":1672:1678   */\n  dup2\n    /* \"#utility.yul\":1632:1670   */\n  tag_28\n    /* \"#utility.yul\":1664:1668   */\n  dup5\n    /* \"#utility.yul\":1658:1669   */\n  sload\n    /* \"#utility.yul\":1632:1670   */\n  tag_7\n  jump\t// in\ntag_28:\n    /* \"#utility.yul\":1626:1630   */\n  dup5\n    /* \"#utility.yul\":1582:1679   */\n  tag_9\n  jump\t// in\ntag_27:\n    /* \"#utility.yul\":1734:1738   */\n  0x20\n  dup1\n    /* \"#utility.yul\":1798:1800   */\n  0x1f\n    /* \"#utility.yul\":1787:1801   */\n  dup4\n  gt\n    /* \"#utility.yul\":1815:1816   */\n  0x01\n    /* \"#utility.yul\":1810:2473   */\n  dup2\n  eq\n  tag_30\n  jumpi\n    /* \"#utility.yul\":2517:2518   */\n  0x00\n    /* \"#utility.yul\":2534:2540   */\n  dup5\n    /* \"#utility.yul\":2531:2620   */\n  iszero\n  tag_31\n  jumpi\n  pop\n    /* \"#utility.yul\":2586:2605   */\n  dup6\n  dup4\n  add\n    /* \"#utility.yul\":2580:2606   */\n  mload\n    /* \"#utility.yul\":2531:2620   */\ntag_31:\n  not(0x00)\n    /* \"#utility.yul\":1335:1336   */\n  0x03\n    /* \"#utility.yul\":1331:1342   */\n  dup7\n  swap1\n  shl\n    /* \"#utility.yul\":1327:1351   */\n  shr\n    /* \"#utility.yul\":1323:1352   */\n  not\n    /* \"#utility.yul\":1313:1353   */\n  and\n    /* \"#utility.yul\":1359:1360   */\n  0x01\n    /* \"#utility.yul\":1355:1366   */\n  dup6\n  swap1\n  shl\n    /* \"#utility.yul\":1310:1367   */\n  or\n    /* \"#utility.yul\":2633:2714   */\n  dup6\n  sstore\n    /* \"#utility.yul\":1780:2724   */\n  jump(tag_22)\n    /* \"#utility.yul\":1810:2473   */\ntag_30:\n    /* \"#utility.yul\":604:605   */\n  0x00\n    /* \"#utility.yul\":597:611   */\n  dup6\n  dup2\n  mstore\n    /* \"#utility.yul\":641:645   */\n  0x20\n    /* \"#utility.yul\":628:646   */\n  dup2\n  keccak256\n  not(0x1f)\n    /* \"#utility.yul\":1846:1866   */\n  dup7\n  and\n  swap2\n    /* \"#utility.yul\":1964:2200   */\ntag_34:\n    /* \"#utility.yul\":1978:1985   */\n  dup3\n    /* \"#utility.yul\":1975:1976   */\n  dup2\n    /* \"#utility.yul\":1972:1986   */\n  lt\n    /* \"#utility.yul\":1964:2200   */\n  iszero\n  tag_36\n  jumpi\n    /* \"#utility.yul\":2067:2086   */\n  dup9\n  dup7\n  add\n    /* \"#utility.yul\":2061:2087   */\n  mload\n    /* \"#utility.yul\":2046:2088   */\n  dup3\n  sstore\n    /* \"#utility.yul\":2159:2186   */\n  swap5\n  dup5\n  add\n  swap5\n    /* \"#utility.yul\":2127:2128   */\n  0x01\n    /* \"#utility.yul\":2115:2129   */\n  swap1\n  swap2\n  add\n  swap1\n    /* \"#utility.yul\":1994:2013   */\n  dup5\n  add\n    /* \"#utility.yul\":1964:2200   */\n  jump(tag_34)\ntag_36:\n    /* \"#utility.yul\":1968:1971   */\n  pop\n    /* \"#utility.yul\":2228:2234   */\n  dup6\n    /* \"#utility.yul\":2219:2226   */\n  dup3\n    /* \"#utility.yul\":2216:2235   */\n  lt\n    /* \"#utility.yul\":2213:2414   */\n  iszero\n  tag_37\n  jumpi\n    /* \"#utility.yul\":2289:2308   */\n  dup8\n  dup6\n  add\n    /* \"#utility.yul\":2283:2309   */\n  mload\n  not(0x00)\n    /* \"#utility.yul\":2372:2373   */\n  0x03\n    /* \"#utility.yul\":2368:2382   */\n  dup9\n  swap1\n  shl\n    /* \"#utility.yul\":2384:2387   */\n  0xf8\n    /* \"#utility.yul\":2364:2388   */\n  and\n    /* \"#utility.yul\":2360:2397   */\n  shr\n    /* \"#utility.yul\":2356:2398   */\n  not\n    /* \"#utility.yul\":2341:2399   */\n  and\n    /* \"#utility.yul\":2326:2400   */\n  dup2\n  sstore\n    /* \"#utility.yul\":2213:2414   */\ntag_37:\n  pop\n  pop\n  pop\n  pop\n  pop\n    /* \"#utility.yul\":2460:2461   */\n  0x01\n    /* \"#utility.yul\":2444:2458   */\n  swap1\n  dup2\n  shl\n    /* \"#utility.yul\":2440:2462   */\n  add\n    /* \"#utility.yul\":2427:2463   */\n  swap1\n  sstore\n  pop\n    /* \"#utility.yul\":1378:2730   */\n  jump\t// out\ntag_11:\n    /* \"src/mailStorage.sol\":193:4528  contract EmailStorage {... */\n  dataSize(sub_0)\n  dup1\n  dataOffset(sub_0)\n  0x00\n  codecopy\n  0x00\n  return\nstop\n\nsub_0: assembly {\n        /* \"src/mailStorage.sol\":193:4528  contract EmailStorage {... */\n      mstore(0x40, 0x80)\n      callvalue\n      dup1\n      iszero\n      tag_1\n      jumpi\n      0x00\n      dup1\n      revert\n    tag_1:\n      pop\n      jumpi(tag_2, lt(calldatasize, 0x04))\n      shr(0xe0, calldataload(0x00))\n      dup1\n      0x1f8864ac\n      eq\n      tag_3\n      jumpi\n      dup1\n      0x2f54bf6e\n      eq\n      tag_4\n      jumpi\n      dup1\n      0x472c540c\n      eq\n      tag_5\n      jumpi\n      dup1\n      0x56f9f885\n      eq\n      tag_6\n      jumpi\n      dup1\n      0x81fd552f\n      eq\n      tag_7\n      jumpi\n      dup1\n      0x93cb1890\n      eq\n      tag_8\n      jumpi\n      dup1\n      0x972fe8bc\n      eq\n      tag_9\n      jumpi\n      dup1\n      0xbf8bdac1\n      eq\n      tag_10\n      jumpi\n      dup1\n      0xc0c53b8b\n      eq\n      tag_11\n      jumpi\n      dup1\n      0xc47964ea\n      eq\n      tag_12\n      jumpi\n      dup1\n      0xd0006777\n      eq\n      tag_13\n      jumpi\n      dup1\n      0xd598d4c9\n      eq\n      tag_14\n      jumpi\n      dup1\n      0xd9231a0f\n      eq\n      tag_15\n      jumpi\n      dup1\n      0xdf9ef753\n      eq\n      tag_16\n      jumpi\n      dup1\n      0xe6c3a063\n      eq\n      tag_17\n      jumpi\n      dup1\n      0xffb45e19\n      eq\n      tag_18\n      jumpi\n    tag_2:\n      0x00\n      dup1\n      revert\n        /* \"src/mailStorage.sol\":1499:1610  function setStorageOwner(address _storageOwner)external onlyOwner {... */\n    tag_3:\n      tag_19\n      tag_20\n      calldatasize\n      0x04\n      tag_21\n      jump\t// in\n    tag_20:\n      tag_22\n      jump\t// in\n    tag_19:\n      stop\n        /* \"src/mailStorage.sol\":387:426  mapping(address => bool) public isOwner */\n    tag_4:\n      tag_23\n      tag_24\n      calldatasize\n      0x04\n      tag_21\n      jump\t// in\n    tag_24:\n      mstore(0x20, 0x05)\n      0x00\n      swap1\n      dup2\n      mstore\n      0x40\n      swap1\n      keccak256\n      sload\n      0xff\n      and\n      dup2\n      jump\n    tag_23:\n      mload(0x40)\n        /* \"#utility.yul\":548:562   */\n      swap1\n      iszero\n        /* \"#utility.yul\":541:563   */\n      iszero\n        /* \"#utility.yul\":523:564   */\n      dup2\n      mstore\n        /* \"#utility.yul\":511:513   */\n      0x20\n        /* \"#utility.yul\":496:514   */\n      add\n        /* \"src/mailStorage.sol\":387:426  mapping(address => bool) public isOwner */\n    tag_26:\n      mload(0x40)\n      dup1\n      swap2\n      sub\n      swap1\n      return\n        /* \"src/mailStorage.sol\":1748:1836  function setFileSMC(address _fileSc)external onlyOwner {... */\n    tag_5:\n      tag_19\n      tag_29\n      calldatasize\n      0x04\n      tag_21\n      jump\t// in\n    tag_29:\n      tag_30\n      jump\t// in\n        /* \"src/mailStorage.sol\":360:381  address public fileSc */\n    tag_6:\n      sload(0x04)\n      tag_31\n      swap1\n      sub(shl(0xa0, 0x01), 0x01)\n      and\n      dup2\n      jump\n    tag_31:\n      mload(0x40)\n      sub(shl(0xa0, 0x01), 0x01)\n        /* \"#utility.yul\":739:771   */\n      swap1\n      swap2\n      and\n        /* \"#utility.yul\":721:772   */\n      dup2\n      mstore\n        /* \"#utility.yul\":709:711   */\n      0x20\n        /* \"#utility.yul\":694:712   */\n      add\n        /* \"src/mailStorage.sol\":360:381  address public fileSc */\n      tag_26\n        /* \"#utility.yul\":575:778   */\n      jump\n        /* \"src/mailStorage.sol\":327:354  address public storageOwner */\n    tag_7:\n      sload(0x03)\n      tag_31\n      swap1\n      sub(shl(0xa0, 0x01), 0x01)\n      and\n      dup2\n      jump\n        /* \"src/mailStorage.sol\":3585:3931  function getAllEmailInfos() external view onlyEmailStorageOwner returns(EmailInfo[] memory ){... */\n    tag_8:\n      tag_38\n      tag_39\n      jump\t// in\n    tag_38:\n      mload(0x40)\n      tag_26\n      swap2\n      swap1\n      tag_41\n      jump\t// in\n        /* \"src/mailStorage.sol\":3182:3580  function getEmail(uint256 emailID)... */\n    tag_9:\n      tag_42\n      tag_43\n      calldatasize\n      0x04\n      tag_44\n      jump\t// in\n    tag_43:\n      tag_45\n      jump\t// in\n    tag_42:\n      mload(0x40)\n      tag_26\n      swap2\n      swap1\n      tag_47\n      jump\t// in\n        /* \"src/mailStorage.sol\":1403:1494  function setService(address _service)external onlyOwner {... */\n    tag_10:\n      tag_19\n      tag_49\n      calldatasize\n      0x04\n      tag_21\n      jump\t// in\n    tag_49:\n      tag_50\n      jump\t// in\n        /* \"src/mailStorage.sol\":786:1156  function initialize(address _storageOwner, address _service, address _notification) external {... */\n    tag_11:\n      tag_19\n      tag_52\n      calldatasize\n      0x04\n      tag_53\n      jump\t// in\n    tag_52:\n      tag_54\n      jump\t// in\n        /* \"src/mailStorage.sol\":271:293  address public notiSMC */\n    tag_12:\n      sload(0x01)\n      tag_31\n      swap1\n      sub(shl(0xa0, 0x01), 0x01)\n      and\n      dup2\n      jump\n        /* \"src/mailStorage.sol\":633:660  uint256 public emailCounter */\n    tag_13:\n      tag_58\n      sload(0x07)\n      dup2\n      jump\n    tag_58:\n      mload(0x40)\n        /* \"#utility.yul\":4557:4582   */\n      swap1\n      dup2\n      mstore\n        /* \"#utility.yul\":4545:4547   */\n      0x20\n        /* \"#utility.yul\":4530:4548   */\n      add\n        /* \"src/mailStorage.sol\":633:660  uint256 public emailCounter */\n      tag_26\n        /* \"#utility.yul\":4411:4588   */\n      jump\n        /* \"src/mailStorage.sol\":299:321  address public service */\n    tag_14:\n      sload(0x02)\n      tag_31\n      swap1\n      sub(shl(0xa0, 0x01), 0x01)\n      and\n      dup2\n      jump\n        /* \"src/mailStorage.sol\":432:468  string public REPO_NOTI_SMC = \"MAIL\" */\n    tag_15:\n      tag_65\n      tag_66\n      jump\t// in\n    tag_65:\n      mload(0x40)\n      tag_26\n      swap2\n      swap1\n      tag_68\n      jump\t// in\n        /* \"src/mailStorage.sol\":1615:1743  function setNotificationSMC(... */\n    tag_16:\n      tag_19\n      tag_70\n      calldatasize\n      0x04\n      tag_21\n      jump\t// in\n    tag_70:\n      tag_71\n      jump\t// in\n        /* \"src/mailStorage.sol\":3936:4525  function getEmailInfos(uint256 startIndex, uint256 count) external view returns (EmailInfo[] memory) {... */\n    tag_17:\n      tag_38\n      tag_73\n      calldatasize\n      0x04\n      tag_74\n      jump\t// in\n    tag_73:\n      tag_75\n      jump\t// in\n        /* \"src/mailStorage.sol\":1842:3177  function createEmail(... */\n    tag_18:\n      tag_58\n      tag_78\n      calldatasize\n      0x04\n      tag_79\n      jump\t// in\n    tag_78:\n      tag_80\n      jump\t// in\n        /* \"src/mailStorage.sol\":1499:1610  function setStorageOwner(address _storageOwner)external onlyOwner {... */\n    tag_22:\n        /* \"src/mailStorage.sol\":711:721  msg.sender */\n      caller\n        /* \"src/mailStorage.sol\":703:722  isOwner[msg.sender] */\n      0x00\n      swap1\n      dup2\n      mstore\n        /* \"src/mailStorage.sol\":703:710  isOwner */\n      0x05\n        /* \"src/mailStorage.sol\":703:722  isOwner[msg.sender] */\n      0x20\n      mstore\n      0x40\n      swap1\n      keccak256\n      sload\n      0xff\n      and\n        /* \"src/mailStorage.sol\":695:736  require(isOwner[msg.sender],\"only owner\") */\n      tag_83\n      jumpi\n      mload(0x40)\n      shl(0xe5, 0x461bcd)\n      dup2\n      mstore\n      0x04\n      add\n      tag_84\n      swap1\n      tag_85\n      jump\t// in\n    tag_84:\n      mload(0x40)\n      dup1\n      swap2\n      sub\n      swap1\n      revert\n    tag_83:\n        /* \"src/mailStorage.sol\":1575:1587  storageOwner */\n      0x03\n        /* \"src/mailStorage.sol\":1575:1603  storageOwner = _storageOwner */\n      dup1\n      sload\n      not(sub(shl(0xa0, 0x01), 0x01))\n      and\n      sub(shl(0xa0, 0x01), 0x01)\n      swap3\n      swap1\n      swap3\n      and\n      swap2\n      swap1\n      swap2\n      or\n      swap1\n      sstore\n        /* \"src/mailStorage.sol\":1499:1610  function setStorageOwner(address _storageOwner)external onlyOwner {... */\n      jump\t// out\n        /* \"src/mailStorage.sol\":1748:1836  function setFileSMC(address _fileSc)external onlyOwner {... */\n    tag_30:\n        /* \"src/mailStorage.sol\":711:721  msg.sender */\n      caller\n        /* \"src/mailStorage.sol\":703:722  isOwner[msg.sender] */\n      0x00\n      swap1\n      dup2\n      mstore\n        /* \"src/mailStorage.sol\":703:710  isOwner */\n      0x05\n        /* \"src/mailStorage.sol\":703:722  isOwner[msg.sender] */\n      0x20\n      mstore\n      0x40\n      swap1\n      keccak256\n      sload\n      0xff\n      and\n        /* \"src/mailStorage.sol\":695:736  require(isOwner[msg.sender],\"only owner\") */\n      tag_88\n      jumpi\n      mload(0x40)\n      shl(0xe5, 0x461bcd)\n      dup2\n      mstore\n      0x04\n      add\n      tag_84\n      swap1\n      tag_85\n      jump\t// in\n    tag_88:\n        /* \"src/mailStorage.sol\":1813:1819  fileSc */\n      0x04\n        /* \"src/mailStorage.sol\":1813:1829  fileSc = _fileSc */\n      dup1\n      sload\n      not(sub(shl(0xa0, 0x01), 0x01))\n      and\n      sub(shl(0xa0, 0x01), 0x01)\n      swap3\n      swap1\n      swap3\n      and\n      swap2\n      swap1\n      swap2\n      or\n      swap1\n      sstore\n        /* \"src/mailStorage.sol\":1748:1836  function setFileSMC(address _fileSc)external onlyOwner {... */\n      jump\t// out\n        /* \"src/mailStorage.sol\":3585:3931  function getAllEmailInfos() external view onlyEmailStorageOwner returns(EmailInfo[] memory ){... */\n    tag_39:\n        /* \"src/mailStorage.sol\":1331:1343  storageOwner */\n      sload(0x03)\n        /* \"src/mailStorage.sol\":3657:3675  EmailInfo[] memory */\n      0x60\n      swap1\n      sub(shl(0xa0, 0x01), 0x01)\n        /* \"src/mailStorage.sol\":1331:1343  storageOwner */\n      and\n        /* \"src/mailStorage.sol\":1317:1327  msg.sender */\n      caller\n        /* \"src/mailStorage.sol\":1317:1343  msg.sender == storageOwner */\n      eq\n        /* \"src/mailStorage.sol\":1309:1380  require(msg.sender == storageOwner,\"only Email Storage Owner can call\") */\n      tag_92\n      jumpi\n      mload(0x40)\n      shl(0xe5, 0x461bcd)\n      dup2\n      mstore\n      0x04\n      add\n      tag_84\n      swap1\n      tag_94\n      jump\t// in\n    tag_92:\n        /* \"src/mailStorage.sol\":3708:3709  0 */\n      0x00\n        /* \"src/mailStorage.sol\":3695:3707  emailCounter */\n      sload(0x07)\n        /* \"src/mailStorage.sol\":3695:3709  emailCounter>0 */\n      gt\n        /* \"src/mailStorage.sol\":3687:3735  require(emailCounter>0,\"there is not any email\") */\n      tag_96\n      jumpi\n      mload(0x40)\n      shl(0xe5, 0x461bcd)\n      dup2\n      mstore\n        /* \"#utility.yul\":8803:8805   */\n      0x20\n        /* \"src/mailStorage.sol\":3687:3735  require(emailCounter>0,\"there is not any email\") */\n      0x04\n      dup3\n      add\n        /* \"#utility.yul\":8785:8806   */\n      mstore\n        /* \"#utility.yul\":8842:8844   */\n      0x16\n        /* \"#utility.yul\":8822:8840   */\n      0x24\n      dup3\n      add\n        /* \"#utility.yul\":8815:8845   */\n      mstore\n      shl(0x52, 0x1d1a195c99481a5cc81b9bdd08185b9e48195b585a5b)\n        /* \"#utility.yul\":8861:8879   */\n      0x44\n      dup3\n      add\n        /* \"#utility.yul\":8854:8906   */\n      mstore\n        /* \"#utility.yul\":8923:8941   */\n      0x64\n      add\n        /* \"src/mailStorage.sol\":3687:3735  require(emailCounter>0,\"there is not any email\") */\n      tag_84\n        /* \"#utility.yul\":8601:8947   */\n      jump\n        /* \"src/mailStorage.sol\":3687:3735  require(emailCounter>0,\"there is not any email\") */\n    tag_96:\n        /* \"src/mailStorage.sol\":3745:3770  EmailInfo[] memory emails */\n      0x00\n        /* \"src/mailStorage.sol\":3789:3801  emailCounter */\n      sload(0x07)\n      sub(shl(0x40, 0x01), 0x01)\n        /* \"src/mailStorage.sol\":3773:3802  new EmailInfo[](emailCounter) */\n      dup2\n      gt\n      iszero\n      tag_100\n      jumpi\n      tag_100\n      tag_101\n      jump\t// in\n    tag_100:\n      mload(0x40)\n      swap1\n      dup1\n      dup3\n      mstore\n      dup1\n      0x20\n      mul\n      0x20\n      add\n      dup3\n      add\n      0x40\n      mstore\n      dup1\n      iszero\n      tag_102\n      jumpi\n      dup2\n      0x20\n      add\n    tag_103:\n      tag_104\n      tag_105\n      jump\t// in\n    tag_104:\n      dup2\n      mstore\n      0x20\n      add\n      swap1\n      0x01\n      swap1\n      sub\n      swap1\n      dup2\n      tag_103\n      jumpi\n      swap1\n      pop\n    tag_102:\n      pop\n        /* \"src/mailStorage.sol\":3745:3802  EmailInfo[] memory emails = new EmailInfo[](emailCounter) */\n      swap1\n      pop\n        /* \"src/mailStorage.sol\":3816:3825  uint256 i */\n      0x00\n        /* \"src/mailStorage.sol\":3812:3902  for(uint256 i; i<emailCounter; i++){... */\n    tag_106:\n        /* \"src/mailStorage.sol\":3829:3841  emailCounter */\n      sload(0x07)\n        /* \"src/mailStorage.sol\":3827:3828  i */\n      dup2\n        /* \"src/mailStorage.sol\":3827:3841  i<emailCounter */\n      lt\n        /* \"src/mailStorage.sol\":3812:3902  for(uint256 i; i<emailCounter; i++){... */\n      iszero\n      tag_107\n      jumpi\n        /* \"src/mailStorage.sol\":3873:3883  mIDToEmail */\n      0x00\n        /* \"src/mailStorage.sol\":3873:3886  mIDToEmail[i] */\n      dup2\n      dup2\n      mstore\n      0x20\n      dup2\n      swap1\n      mstore\n      0x40\n      swap1\n      dup2\n      swap1\n      keccak256\n        /* \"src/mailStorage.sol\":3861:3891  emails[i] = mIDToEmail[i].info */\n      dup2\n      mload\n      0xc0\n      dup2\n      add\n      swap1\n      swap3\n      mstore\n      dup1\n      sload\n      dup3\n      swap1\n        /* \"src/mailStorage.sol\":3873:3886  mIDToEmail[i] */\n      dup3\n      swap1\n        /* \"src/mailStorage.sol\":3861:3891  emails[i] = mIDToEmail[i].info */\n      tag_109\n      swap1\n      tag_110\n      jump\t// in\n    tag_109:\n      dup1\n      0x1f\n      add\n      0x20\n      dup1\n      swap2\n      div\n      mul\n      0x20\n      add\n      mload(0x40)\n      swap1\n      dup2\n      add\n      0x40\n      mstore\n      dup1\n      swap3\n      swap2\n      swap1\n      dup2\n      dup2\n      mstore\n      0x20\n      add\n      dup3\n      dup1\n      sload\n      tag_111\n      swap1\n      tag_110\n      jump\t// in\n    tag_111:\n      dup1\n      iszero\n      tag_112\n      jumpi\n      dup1\n      0x1f\n      lt\n      tag_113\n      jumpi\n      0x0100\n      dup1\n      dup4\n      sload\n      div\n      mul\n      dup4\n      mstore\n      swap2\n      0x20\n      add\n      swap2\n      jump(tag_112)\n    tag_113:\n      dup3\n      add\n      swap2\n      swap1\n      0x00\n      mstore\n      keccak256(0x00, 0x20)\n      swap1\n    tag_114:\n      dup2\n      sload\n      dup2\n      mstore\n      swap1\n      0x01\n      add\n      swap1\n      0x20\n      add\n      dup1\n      dup4\n      gt\n      tag_114\n      jumpi\n      dup3\n      swap1\n      sub\n      0x1f\n      and\n      dup3\n      add\n      swap2\n    tag_112:\n      pop\n      pop\n      pop\n      pop\n      pop\n      dup2\n      mstore\n      0x20\n      add\n      0x01\n      dup3\n      add\n      dup1\n      sload\n      tag_115\n      swap1\n      tag_110\n      jump\t// in\n    tag_115:\n      dup1\n      0x1f\n      add\n      0x20\n      dup1\n      swap2\n      div\n      mul\n      0x20\n      add\n      mload(0x40)\n      swap1\n      dup2\n      add\n      0x40\n      mstore\n      dup1\n      swap3\n      swap2\n      swap1\n      dup2\n      dup2\n      mstore\n      0x20\n      add\n      dup3\n      dup1\n      sload\n      tag_116\n      swap1\n      tag_110\n      jump\t// in\n    tag_116:\n      dup1\n      iszero\n      tag_117\n      jumpi\n      dup1\n      0x1f\n      lt\n      tag_118\n      jumpi\n      0x0100\n      dup1\n      dup4\n      sload\n      div\n      mul\n      dup4\n      mstore\n      swap2\n      0x20\n      add\n      swap2\n      jump(tag_117)\n    tag_118:\n      dup3\n      add\n      swap2\n      swap1\n      0x00\n      mstore\n      keccak256(0x00, 0x20)\n      swap1\n    tag_119:\n      dup2\n      sload\n      dup2\n      mstore\n      swap1\n      0x01\n      add\n      swap1\n      0x20\n      add\n      dup1\n      dup4\n      gt\n      tag_119\n      jumpi\n      dup3\n      swap1\n      sub\n      0x1f\n      and\n      dup3\n      add\n      swap2\n    tag_117:\n      pop\n      pop\n      pop\n      swap2\n      dup4\n      mstore\n      pop\n      pop\n      0x02\n      dup3\n      add\n      sload\n      sub(shl(0x40, 0x01), 0x01)\n      dup2\n      and\n      0x20\n      dup1\n      dup5\n      add\n      swap2\n      swap1\n      swap2\n      mstore\n      shl(0x40, 0x01)\n      swap1\n      swap2\n      div\n      0xff\n      and\n      0x40\n      dup1\n      dup5\n      add\n      swap2\n      swap1\n      swap2\n      mstore\n      0x03\n      dup5\n      add\n      dup1\n      sload\n      dup3\n      mload\n      dup2\n      dup6\n      mul\n      dup2\n      add\n      dup6\n      add\n      swap1\n      swap4\n      mstore\n      dup1\n      dup4\n      mstore\n      0x60\n      swap1\n      swap5\n      add\n      swap4\n      swap2\n      swap3\n      swap1\n      swap2\n      swap1\n      dup4\n      add\n      dup3\n      dup3\n      dup1\n      iszero\n      tag_120\n      jumpi\n      0x20\n      mul\n      dup3\n      add\n      swap2\n      swap1\n      0x00\n      mstore\n      keccak256(0x00, 0x20)\n      swap1\n    tag_121:\n      dup2\n      sload\n      dup2\n      mstore\n      0x20\n      add\n      swap1\n      0x01\n      add\n      swap1\n      dup1\n      dup4\n      gt\n      tag_121\n      jumpi\n    tag_120:\n      pop\n      pop\n      pop\n      pop\n      pop\n      dup2\n      mstore\n      0x20\n      add\n      0x04\n      dup3\n      add\n      dup1\n      sload\n      tag_122\n      swap1\n      tag_110\n      jump\t// in\n    tag_122:\n      dup1\n      0x1f\n      add\n      0x20\n      dup1\n      swap2\n      div\n      mul\n      0x20\n      add\n      mload(0x40)\n      swap1\n      dup2\n      add\n      0x40\n      mstore\n      dup1\n      swap3\n      swap2\n      swap1\n      dup2\n      dup2\n      mstore\n      0x20\n      add\n      dup3\n      dup1\n      sload\n      tag_123\n      swap1\n      tag_110\n      jump\t// in\n    tag_123:\n      dup1\n      iszero\n      tag_124\n      jumpi\n      dup1\n      0x1f\n      lt\n      tag_125\n      jumpi\n      0x0100\n      dup1\n      dup4\n      sload\n      div\n      mul\n      dup4\n      mstore\n      swap2\n      0x20\n      add\n      swap2\n      jump(tag_124)\n    tag_125:\n      dup3\n      add\n      swap2\n      swap1\n      0x00\n      mstore\n      keccak256(0x00, 0x20)\n      swap1\n    tag_126:\n      dup2\n      sload\n      dup2\n      mstore\n      swap1\n      0x01\n      add\n      swap1\n      0x20\n      add\n      dup1\n      dup4\n      gt\n      tag_126\n      jumpi\n      dup3\n      swap1\n      sub\n      0x1f\n      and\n      dup3\n      add\n      swap2\n    tag_124:\n      pop\n      pop\n      pop\n      pop\n      pop\n      dup2\n      mstore\n      pop\n      pop\n        /* \"src/mailStorage.sol\":3861:3867  emails */\n      dup3\n        /* \"src/mailStorage.sol\":3868:3869  i */\n      dup3\n        /* \"src/mailStorage.sol\":3861:3870  emails[i] */\n      dup2\n      mload\n      dup2\n      lt\n      tag_128\n      jumpi\n      tag_128\n      tag_129\n      jump\t// in\n    tag_128:\n      0x20\n      mul\n      0x20\n      add\n      add\n        /* \"src/mailStorage.sol\":3861:3891  emails[i] = mIDToEmail[i].info */\n      dup2\n      swap1\n      mstore\n      pop\n        /* \"src/mailStorage.sol\":3843:3846  i++ */\n      dup1\n      dup1\n      tag_130\n      swap1\n      tag_131\n      jump\t// in\n    tag_130:\n      swap2\n      pop\n      pop\n        /* \"src/mailStorage.sol\":3812:3902  for(uint256 i; i<emailCounter; i++){... */\n      jump(tag_106)\n    tag_107:\n      pop\n        /* \"src/mailStorage.sol\":3918:3924  emails */\n      swap1\n      pop\n        /* \"src/mailStorage.sol\":1390:1391  _ */\n    tag_95:\n        /* \"src/mailStorage.sol\":3585:3931  function getAllEmailInfos() external view onlyEmailStorageOwner returns(EmailInfo[] memory ){... */\n      swap1\n      jump\t// out\n        /* \"src/mailStorage.sol\":3182:3580  function getEmail(uint256 emailID)... */\n    tag_45:\n        /* \"src/mailStorage.sol\":3294:3306  Email memory */\n      tag_132\n      tag_133\n      jump\t// in\n    tag_132:\n        /* \"src/mailStorage.sol\":1331:1343  storageOwner */\n      and(sub(shl(0xa0, 0x01), 0x01), sload(0x03))\n        /* \"src/mailStorage.sol\":1317:1327  msg.sender */\n      caller\n        /* \"src/mailStorage.sol\":1317:1343  msg.sender == storageOwner */\n      eq\n        /* \"src/mailStorage.sol\":1309:1380  require(msg.sender == storageOwner,\"only Email Storage Owner can call\") */\n      tag_135\n      jumpi\n      mload(0x40)\n      shl(0xe5, 0x461bcd)\n      dup2\n      mstore\n      0x04\n      add\n      tag_84\n      swap1\n      tag_94\n      jump\t// in\n    tag_135:\n        /* \"src/mailStorage.sol\":3366:3378  emailCounter */\n      sload(0x07)\n        /* \"src/mailStorage.sol\":3355:3362  emailID */\n      dup3\n        /* \"src/mailStorage.sol\":3355:3378  emailID <= emailCounter */\n      gt\n      iszero\n        /* \"src/mailStorage.sol\":3331:3403  require(emailID >= 0 && emailID <= emailCounter, \"Email does not exist\") */\n      tag_139\n      jumpi\n      mload(0x40)\n      shl(0xe5, 0x461bcd)\n      dup2\n      mstore\n        /* \"#utility.yul\":9943:9945   */\n      0x20\n        /* \"src/mailStorage.sol\":3331:3403  require(emailID >= 0 && emailID <= emailCounter, \"Email does not exist\") */\n      0x04\n      dup3\n      add\n        /* \"#utility.yul\":9925:9946   */\n      mstore\n        /* \"#utility.yul\":9982:9984   */\n      0x14\n        /* \"#utility.yul\":9962:9980   */\n      0x24\n      dup3\n      add\n        /* \"#utility.yul\":9955:9985   */\n      mstore\n      shl(0x62, 0x115b585a5b08191bd95cc81b9bdd08195e1a5cdd)\n        /* \"#utility.yul\":10001:10019   */\n      0x44\n      dup3\n      add\n        /* \"#utility.yul\":9994:10044   */\n      mstore\n        /* \"#utility.yul\":10061:10079   */\n      0x64\n      add\n        /* \"src/mailStorage.sol\":3331:3403  require(emailID >= 0 && emailID <= emailCounter, \"Email does not exist\") */\n      tag_84\n        /* \"#utility.yul\":9741:10085   */\n      jump\n        /* \"src/mailStorage.sol\":3331:3403  require(emailID >= 0 && emailID <= emailCounter, \"Email does not exist\") */\n    tag_139:\n        /* \"src/mailStorage.sol\":3413:3432  Email storage email */\n      0x00\n        /* \"src/mailStorage.sol\":3435:3454  mIDToEmail[emailID] */\n      dup3\n      dup2\n      mstore\n      0x20\n      dup2\n      swap1\n      mstore\n      0x40\n      dup2\n      keccak256\n        /* \"src/mailStorage.sol\":3468:3485  email.info.isRead */\n      0x02\n      dup2\n      add\n      sload\n        /* \"src/mailStorage.sol\":3435:3454  mIDToEmail[emailID] */\n      swap1\n      swap2\n      shl(0x40, 0x01)\n        /* \"src/mailStorage.sol\":3468:3485  email.info.isRead */\n      swap1\n      swap2\n      div\n      0xff\n      and\n        /* \"src/mailStorage.sol\":3468:3490  email.info.isRead == 0 */\n      swap1\n      sub\n        /* \"src/mailStorage.sol\":3464:3538  if (email.info.isRead == 0) {... */\n      tag_142\n      jumpi\n        /* \"src/mailStorage.sol\":3506:3523  email.info.isRead */\n      0x02\n      dup2\n      add\n        /* \"src/mailStorage.sol\":3506:3527  email.info.isRead = 1 */\n      dup1\n      sload\n      not(shl(0x40, 0xff))\n      and\n      shl(0x40, 0x01)\n      or\n      swap1\n      sstore\n        /* \"src/mailStorage.sol\":3464:3538  if (email.info.isRead == 0) {... */\n    tag_142:\n        /* \"src/mailStorage.sol\":3554:3564  mIDToEmail */\n      0x00\n        /* \"src/mailStorage.sol\":3554:3573  mIDToEmail[emailID] */\n      dup4\n      dup2\n      mstore\n      0x20\n      dup2\n      swap1\n      mstore\n      0x40\n      swap1\n      dup2\n      swap1\n      keccak256\n        /* \"src/mailStorage.sol\":3547:3573  return mIDToEmail[emailID] */\n      dup2\n      mload\n      0x0100\n      dup2\n      add\n      dup4\n      mstore\n      dup2\n      sload\n      swap1\n      swap3\n      dup4\n      swap2\n      swap1\n      dup3\n      add\n      swap1\n        /* \"src/mailStorage.sol\":3554:3573  mIDToEmail[emailID] */\n      dup4\n      swap1\n        /* \"src/mailStorage.sol\":3547:3573  return mIDToEmail[emailID] */\n      dup3\n      swap1\n        /* \"src/mailStorage.sol\":3554:3573  mIDToEmail[emailID] */\n      dup3\n      swap1\n        /* \"src/mailStorage.sol\":3547:3573  return mIDToEmail[emailID] */\n      tag_143\n      swap1\n      tag_110\n      jump\t// in\n    tag_143:\n      dup1\n      0x1f\n      add\n      0x20\n      dup1\n      swap2\n      div\n      mul\n      0x20\n      add\n      mload(0x40)\n      swap1\n      dup2\n      add\n      0x40\n      mstore\n      dup1\n      swap3\n      swap2\n      swap1\n      dup2\n      dup2\n      mstore\n      0x20\n      add\n      dup3\n      dup1\n      sload\n      tag_144\n      swap1\n      tag_110\n      jump\t// in\n    tag_144:\n      dup1\n      iszero\n      tag_145\n      jumpi\n      dup1\n      0x1f\n      lt\n      tag_146\n      jumpi\n      0x0100\n      dup1\n      dup4\n      sload\n      div\n      mul\n      dup4\n      mstore\n      swap2\n      0x20\n      add\n      swap2\n      jump(tag_145)\n    tag_146:\n      dup3\n      add\n      swap2\n      swap1\n      0x00\n      mstore\n      keccak256(0x00, 0x20)\n      swap1\n    tag_147:\n      dup2\n      sload\n      dup2\n      mstore\n      swap1\n      0x01\n      add\n      swap1\n      0x20\n      add\n      dup1\n      dup4\n      gt\n      tag_147\n      jumpi\n      dup3\n      swap1\n      sub\n      0x1f\n      and\n      dup3\n      add\n      swap2\n    tag_145:\n      pop\n      pop\n      pop\n      pop\n      pop\n      dup2\n      mstore\n      0x20\n      add\n      0x01\n      dup3\n      add\n      dup1\n      sload\n      tag_148\n      swap1\n      tag_110\n      jump\t// in\n    tag_148:\n      dup1\n      0x1f\n      add\n      0x20\n      dup1\n      swap2\n      div\n      mul\n      0x20\n      add\n      mload(0x40)\n      swap1\n      dup2\n      add\n      0x40\n      mstore\n      dup1\n      swap3\n      swap2\n      swap1\n      dup2\n      dup2\n      mstore\n      0x20\n      add\n      dup3\n      dup1\n      sload\n      tag_149\n      swap1\n      tag_110\n      jump\t// in\n    tag_149:\n      dup1\n      iszero\n      tag_150\n      jumpi\n      dup1\n      0x1f\n      lt\n      tag_151\n      jumpi\n      0x0100\n      dup1\n      dup4\n      sload\n      div\n      mul\n      dup4\n      mstore\n      swap2\n      0x20\n      add\n      swap2\n      jump(tag_150)\n    tag_151:\n      dup3\n      add\n      swap2\n      swap1\n      0x00\n      mstore\n      keccak256(0x00, 0x20)\n      swap1\n    tag_152:\n      dup2\n      sload\n      dup2\n      mstore\n      swap1\n      0x01\n      add\n      swap1\n      0x20\n      add\n      dup1\n      dup4\n      gt\n      tag_152\n      jumpi\n      dup3\n      swap1\n      sub\n      0x1f\n      and\n      dup3\n      add\n      swap2\n    tag_150:\n      pop\n      pop\n      pop\n      swap2\n      dup4\n      mstore\n      pop\n      pop\n      0x02\n      dup3\n      add\n      sload\n      sub(shl(0x40, 0x01), 0x01)\n      dup2\n      and\n      0x20\n      dup1\n      dup5\n      add\n      swap2\n      swap1\n      swap2\n      mstore\n      shl(0x40, 0x01)\n      swap1\n      swap2\n      div\n      0xff\n      and\n      0x40\n      dup1\n      dup5\n      add\n      swap2\n      swap1\n      swap2\n      mstore\n      0x03\n      dup5\n      add\n      dup1\n      sload\n      dup3\n      mload\n      dup2\n      dup6\n      mul\n      dup2\n      add\n      dup6\n      add\n      swap1\n      swap4\n      mstore\n      dup1\n      dup4\n      mstore\n      0x60\n      swap1\n      swap5\n      add\n      swap4\n      swap2\n      swap3\n      swap1\n      swap2\n      swap1\n      dup4\n      add\n      dup3\n      dup3\n      dup1\n      iszero\n      tag_153\n      jumpi\n      0x20\n      mul\n      dup3\n      add\n      swap2\n      swap1\n      0x00\n      mstore\n      keccak256(0x00, 0x20)\n      swap1\n    tag_154:\n      dup2\n      sload\n      dup2\n      mstore\n      0x20\n      add\n      swap1\n      0x01\n      add\n      swap1\n      dup1\n      dup4\n      gt\n      tag_154\n      jumpi\n    tag_153:\n      pop\n      pop\n      pop\n      pop\n      pop\n      dup2\n      mstore\n      0x20\n      add\n      0x04\n      dup3\n      add\n      dup1\n      sload\n      tag_155\n      swap1\n      tag_110\n      jump\t// in\n    tag_155:\n      dup1\n      0x1f\n      add\n      0x20\n      dup1\n      swap2\n      div\n      mul\n      0x20\n      add\n      mload(0x40)\n      swap1\n      dup2\n      add\n      0x40\n      mstore\n      dup1\n      swap3\n      swap2\n      swap1\n      dup2\n      dup2\n      mstore\n      0x20\n      add\n      dup3\n      dup1\n      sload\n      tag_156\n      swap1\n      tag_110\n      jump\t// in\n    tag_156:\n      dup1\n      iszero\n      tag_157\n      jumpi\n      dup1\n      0x1f\n      lt\n      tag_158\n      jumpi\n      0x0100\n      dup1\n      dup4\n      sload\n      div\n      mul\n      dup4\n      mstore\n      swap2\n      0x20\n      add\n      swap2\n      jump(tag_157)\n    tag_158:\n      dup3\n      add\n      swap2\n      swap1\n      0x00\n      mstore\n      keccak256(0x00, 0x20)\n      swap1\n    tag_159:\n      dup2\n      sload\n      dup2\n      mstore\n      swap1\n      0x01\n      add\n      swap1\n      0x20\n      add\n      dup1\n      dup4\n      gt\n      tag_159\n      jumpi\n      dup3\n      swap1\n      sub\n      0x1f\n      and\n      dup3\n      add\n      swap2\n    tag_157:\n      pop\n      pop\n      pop\n      pop\n      pop\n      dup2\n      mstore\n      pop\n      pop\n      dup2\n      mstore\n      0x20\n      add\n      0x05\n      dup3\n      add\n      dup1\n      sload\n      tag_160\n      swap1\n      tag_110\n      jump\t// in\n    tag_160:\n      dup1\n      0x1f\n      add\n      0x20\n      dup1\n      swap2\n      div\n      mul\n      0x20\n      add\n      mload(0x40)\n      swap1\n      dup2\n      add\n      0x40\n      mstore\n      dup1\n      swap3\n      swap2\n      swap1\n      dup2\n      dup2\n      mstore\n      0x20\n      add\n      dup3\n      dup1\n      sload\n      tag_161\n      swap1\n      tag_110\n      jump\t// in\n    tag_161:\n      dup1\n      iszero\n      tag_162\n      jumpi\n      dup1\n      0x1f\n      lt\n      tag_163\n      jumpi\n      0x0100\n      dup1\n      dup4\n      sload\n      div\n      mul\n      dup4\n      mstore\n      swap2\n      0x20\n      add\n      swap2\n      jump(tag_162)\n    tag_163:\n      dup3\n      add\n      swap2\n      swap1\n      0x00\n      mstore\n      keccak256(0x00, 0x20)\n      swap1\n    tag_164:\n      dup2\n      sload\n      dup2\n      mstore\n      swap1\n      0x01\n      add\n      swap1\n      0x20\n      add\n      dup1\n      dup4\n      gt\n      tag_164\n      jumpi\n      dup3\n      swap1\n      sub\n      0x1f\n      and\n      dup3\n      add\n      swap2\n    tag_162:\n      pop\n      pop\n      pop\n      pop\n      pop\n      dup2\n      mstore\n      pop\n      pop\n      swap2\n      pop\n      pop\n        /* \"src/mailStorage.sol\":1390:1391  _ */\n    tag_137:\n        /* \"src/mailStorage.sol\":3182:3580  function getEmail(uint256 emailID)... */\n      swap2\n      swap1\n      pop\n      jump\t// out\n        /* \"src/mailStorage.sol\":1403:1494  function setService(address _service)external onlyOwner {... */\n    tag_50:\n        /* \"src/mailStorage.sol\":711:721  msg.sender */\n      caller\n        /* \"src/mailStorage.sol\":703:722  isOwner[msg.sender] */\n      0x00\n      swap1\n      dup2\n      mstore\n        /* \"src/mailStorage.sol\":703:710  isOwner */\n      0x05\n        /* \"src/mailStorage.sol\":703:722  isOwner[msg.sender] */\n      0x20\n      mstore\n      0x40\n      swap1\n      keccak256\n      sload\n      0xff\n      and\n        /* \"src/mailStorage.sol\":695:736  require(isOwner[msg.sender],\"only owner\") */\n      tag_166\n      jumpi\n      mload(0x40)\n      shl(0xe5, 0x461bcd)\n      dup2\n      mstore\n      0x04\n      add\n      tag_84\n      swap1\n      tag_85\n      jump\t// in\n    tag_166:\n        /* \"src/mailStorage.sol\":1469:1476  service */\n      0x02\n        /* \"src/mailStorage.sol\":1469:1487  service = _service */\n      dup1\n      sload\n      not(sub(shl(0xa0, 0x01), 0x01))\n      and\n      sub(shl(0xa0, 0x01), 0x01)\n      swap3\n      swap1\n      swap3\n      and\n      swap2\n      swap1\n      swap2\n      or\n      swap1\n      sstore\n        /* \"src/mailStorage.sol\":1403:1494  function setService(address _service)external onlyOwner {... */\n      jump\t// out\n        /* \"src/mailStorage.sol\":786:1156  function initialize(address _storageOwner, address _service, address _notification) external {... */\n    tag_54:\n        /* \"src/mailStorage.sol\":897:909  storageOwner */\n      and(sub(shl(0xa0, 0x01), 0x01), sload(0x03))\n        /* \"src/mailStorage.sol\":897:923  storageOwner == address(0) */\n      iszero\n        /* \"src/mailStorage.sol\":889:947  require(storageOwner == address(0), \"Already initialized\") */\n      tag_170\n      jumpi\n      mload(0x40)\n      shl(0xe5, 0x461bcd)\n      dup2\n      mstore\n        /* \"#utility.yul\":10292:10294   */\n      0x20\n        /* \"src/mailStorage.sol\":889:947  require(storageOwner == address(0), \"Already initialized\") */\n      0x04\n      dup3\n      add\n        /* \"#utility.yul\":10274:10295   */\n      mstore\n        /* \"#utility.yul\":10331:10333   */\n      0x13\n        /* \"#utility.yul\":10311:10329   */\n      0x24\n      dup3\n      add\n        /* \"#utility.yul\":10304:10334   */\n      mstore\n      shl(0x6a, 0x105b1c9958591e481a5b9a5d1a585b1a5e9959)\n        /* \"#utility.yul\":10350:10368   */\n      0x44\n      dup3\n      add\n        /* \"#utility.yul\":10343:10392   */\n      mstore\n        /* \"#utility.yul\":10409:10427   */\n      0x64\n      add\n        /* \"src/mailStorage.sol\":889:947  require(storageOwner == address(0), \"Already initialized\") */\n      tag_84\n        /* \"#utility.yul\":10090:10433   */\n      jump\n        /* \"src/mailStorage.sol\":889:947  require(storageOwner == address(0), \"Already initialized\") */\n    tag_170:\n        /* \"src/mailStorage.sol\":985:997  storageOwner */\n      0x03\n        /* \"src/mailStorage.sol\":985:1013  storageOwner = _storageOwner */\n      dup1\n      sload\n      not(sub(shl(0xa0, 0x01), 0x01))\n      swap1\n      dup2\n      and\n      sub(shl(0xa0, 0x01), 0x01)\n      swap6\n      dup7\n      and\n      swap1\n      dup2\n      or\n      swap1\n      swap3\n      sstore\n        /* \"src/mailStorage.sol\":1023:1030  service */\n      0x02\n        /* \"src/mailStorage.sol\":1023:1041  service = _service */\n      dup1\n      sload\n      dup3\n      and\n      swap5\n      dup7\n      and\n      swap5\n      swap1\n      swap5\n      or\n      swap1\n      swap4\n      sstore\n      0x01\n        /* \"src/mailStorage.sol\":1051:1074  notiSMC = _notification */\n      dup1\n      sload\n      swap1\n      swap4\n      and\n      swap2\n      swap1\n      swap4\n      and\n      or\n      dup2\n      sstore\n      0x00\n        /* \"src/mailStorage.sol\":1084:1106  isOwner[_storageOwner] */\n      swap2\n      dup3\n      mstore\n        /* \"src/mailStorage.sol\":1084:1091  isOwner */\n      0x05\n        /* \"src/mailStorage.sol\":1084:1106  isOwner[_storageOwner] */\n      0x20\n      mstore\n      0x40\n      dup1\n      dup4\n      keccak256\n        /* \"src/mailStorage.sol\":1084:1113  isOwner[_storageOwner] = true */\n      dup1\n      sload\n      not(0xff)\n      swap1\n      dup2\n      and\n      dup5\n      or\n      swap1\n      swap2\n      sstore\n        /* \"src/mailStorage.sol\":1131:1141  msg.sender */\n      caller\n        /* \"src/mailStorage.sol\":1123:1142  isOwner[msg.sender] */\n      dup5\n      mstore\n      swap3\n      keccak256\n        /* \"src/mailStorage.sol\":1123:1149  isOwner[msg.sender] = true */\n      dup1\n      sload\n      swap1\n      swap3\n      and\n      or\n      swap1\n      sstore\n        /* \"src/mailStorage.sol\":786:1156  function initialize(address _storageOwner, address _service, address _notification) external {... */\n      jump\t// out\n        /* \"src/mailStorage.sol\":432:468  string public REPO_NOTI_SMC = \"MAIL\" */\n    tag_66:\n      0x06\n      dup1\n      sload\n      tag_173\n      swap1\n      tag_110\n      jump\t// in\n    tag_173:\n      dup1\n      0x1f\n      add\n      0x20\n      dup1\n      swap2\n      div\n      mul\n      0x20\n      add\n      mload(0x40)\n      swap1\n      dup2\n      add\n      0x40\n      mstore\n      dup1\n      swap3\n      swap2\n      swap1\n      dup2\n      dup2\n      mstore\n      0x20\n      add\n      dup3\n      dup1\n      sload\n      tag_174\n      swap1\n      tag_110\n      jump\t// in\n    tag_174:\n      dup1\n      iszero\n      tag_175\n      jumpi\n      dup1\n      0x1f\n      lt\n      tag_176\n      jumpi\n      0x0100\n      dup1\n      dup4\n      sload\n      div\n      mul\n      dup4\n      mstore\n      swap2\n      0x20\n      add\n      swap2\n      jump(tag_175)\n    tag_176:\n      dup3\n      add\n      swap2\n      swap1\n      0x00\n      mstore\n      keccak256(0x00, 0x20)\n      swap1\n    tag_177:\n      dup2\n      sload\n      dup2\n      mstore\n      swap1\n      0x01\n      add\n      swap1\n      0x20\n      add\n      dup1\n      dup4\n      gt\n      tag_177\n      jumpi\n      dup3\n      swap1\n      sub\n      0x1f\n      and\n      dup3\n      add\n      swap2\n    tag_175:\n      pop\n      pop\n      pop\n      pop\n      pop\n      dup2\n      jump\t// out\n        /* \"src/mailStorage.sol\":1615:1743  function setNotificationSMC(... */\n    tag_71:\n        /* \"src/mailStorage.sol\":711:721  msg.sender */\n      caller\n        /* \"src/mailStorage.sol\":703:722  isOwner[msg.sender] */\n      0x00\n      swap1\n      dup2\n      mstore\n        /* \"src/mailStorage.sol\":703:710  isOwner */\n      0x05\n        /* \"src/mailStorage.sol\":703:722  isOwner[msg.sender] */\n      0x20\n      mstore\n      0x40\n      swap1\n      keccak256\n      sload\n      0xff\n      and\n        /* \"src/mailStorage.sol\":695:736  require(isOwner[msg.sender],\"only owner\") */\n      tag_179\n      jumpi\n      mload(0x40)\n      shl(0xe5, 0x461bcd)\n      dup2\n      mstore\n      0x04\n      add\n      tag_84\n      swap1\n      tag_85\n      jump\t// in\n    tag_179:\n        /* \"src/mailStorage.sol\":1711:1718  notiSMC */\n      0x01\n        /* \"src/mailStorage.sol\":1711:1736  notiSMC = _notiSMCAddress */\n      dup1\n      sload\n      not(sub(shl(0xa0, 0x01), 0x01))\n      and\n      sub(shl(0xa0, 0x01), 0x01)\n      swap3\n      swap1\n      swap3\n      and\n      swap2\n      swap1\n      swap2\n      or\n      swap1\n      sstore\n        /* \"src/mailStorage.sol\":1615:1743  function setNotificationSMC(... */\n      jump\t// out\n        /* \"src/mailStorage.sol\":3936:4525  function getEmailInfos(uint256 startIndex, uint256 count) external view returns (EmailInfo[] memory) {... */\n    tag_75:\n        /* \"src/mailStorage.sol\":4017:4035  EmailInfo[] memory */\n      0x60\n        /* \"src/mailStorage.sol\":4068:4080  emailCounter */\n      sload(0x07)\n        /* \"src/mailStorage.sol\":4055:4065  startIndex */\n      dup4\n        /* \"src/mailStorage.sol\":4055:4080  startIndex < emailCounter */\n      lt\n        /* \"src/mailStorage.sol\":4047:4109  require(startIndex < emailCounter, \"Start index out of range\") */\n      tag_183\n      jumpi\n      mload(0x40)\n      shl(0xe5, 0x461bcd)\n      dup2\n      mstore\n        /* \"#utility.yul\":10640:10642   */\n      0x20\n        /* \"src/mailStorage.sol\":4047:4109  require(startIndex < emailCounter, \"Start index out of range\") */\n      0x04\n      dup3\n      add\n        /* \"#utility.yul\":10622:10643   */\n      mstore\n        /* \"#utility.yul\":10679:10681   */\n      0x18\n        /* \"#utility.yul\":10659:10677   */\n      0x24\n      dup3\n      add\n        /* \"#utility.yul\":10652:10682   */\n      mstore\n      shl(0x40, 0x537461727420696e646578206f7574206f662072616e6765)\n        /* \"#utility.yul\":10698:10716   */\n      0x44\n      dup3\n      add\n        /* \"#utility.yul\":10691:10745   */\n      mstore\n        /* \"#utility.yul\":10762:10780   */\n      0x64\n      add\n        /* \"src/mailStorage.sol\":4047:4109  require(startIndex < emailCounter, \"Start index out of range\") */\n      tag_84\n        /* \"#utility.yul\":10438:10786   */\n      jump\n        /* \"src/mailStorage.sol\":4047:4109  require(startIndex < emailCounter, \"Start index out of range\") */\n    tag_183:\n        /* \"src/mailStorage.sol\":4135:4137  20 */\n      0x14\n        /* \"src/mailStorage.sol\":4127:4132  count */\n      dup3\n        /* \"src/mailStorage.sol\":4127:4137  count < 20 */\n      lt\n        /* \"src/mailStorage.sol\":4119:4160  require(count < 20, \"Count out of range\") */\n      tag_186\n      jumpi\n      mload(0x40)\n      shl(0xe5, 0x461bcd)\n      dup2\n      mstore\n        /* \"#utility.yul\":10993:10995   */\n      0x20\n        /* \"src/mailStorage.sol\":4119:4160  require(count < 20, \"Count out of range\") */\n      0x04\n      dup3\n      add\n        /* \"#utility.yul\":10975:10996   */\n      mstore\n        /* \"#utility.yul\":11032:11034   */\n      0x12\n        /* \"#utility.yul\":11012:11030   */\n      0x24\n      dup3\n      add\n        /* \"#utility.yul\":11005:11035   */\n      mstore\n      shl(0x70, 0x436f756e74206f7574206f662072616e6765)\n        /* \"#utility.yul\":11051:11069   */\n      0x44\n      dup3\n      add\n        /* \"#utility.yul\":11044:11092   */\n      mstore\n        /* \"#utility.yul\":11109:11127   */\n      0x64\n      add\n        /* \"src/mailStorage.sol\":4119:4160  require(count < 20, \"Count out of range\") */\n      tag_84\n        /* \"#utility.yul\":10791:11133   */\n      jump\n        /* \"src/mailStorage.sol\":4119:4160  require(count < 20, \"Count out of range\") */\n    tag_186:\n        /* \"src/mailStorage.sol\":4170:4186  uint256 endIndex */\n      0x00\n        /* \"src/mailStorage.sol\":4189:4207  startIndex + count */\n      tag_189\n        /* \"src/mailStorage.sol\":4202:4207  count */\n      dup4\n        /* \"src/mailStorage.sol\":4189:4199  startIndex */\n      dup6\n        /* \"src/mailStorage.sol\":4189:4207  startIndex + count */\n      tag_190\n      jump\t// in\n    tag_189:\n        /* \"src/mailStorage.sol\":4170:4207  uint256 endIndex = startIndex + count */\n      swap1\n      pop\n        /* \"src/mailStorage.sol\":4232:4244  emailCounter */\n      sload(0x07)\n        /* \"src/mailStorage.sol\":4221:4229  endIndex */\n      dup2\n        /* \"src/mailStorage.sol\":4221:4244  endIndex > emailCounter */\n      gt\n        /* \"src/mailStorage.sol\":4217:4294  if (endIndex > emailCounter) {... */\n      iszero\n      tag_191\n      jumpi\n      pop\n        /* \"src/mailStorage.sol\":4271:4283  emailCounter */\n      sload(0x07)\n        /* \"src/mailStorage.sol\":4217:4294  if (endIndex > emailCounter) {... */\n    tag_191:\n        /* \"src/mailStorage.sol\":4304:4329  EmailInfo[] memory result */\n      0x00\n        /* \"src/mailStorage.sol\":4348:4369  endIndex - startIndex */\n      tag_192\n        /* \"src/mailStorage.sol\":4359:4369  startIndex */\n      dup6\n        /* \"src/mailStorage.sol\":4348:4356  endIndex */\n      dup4\n        /* \"src/mailStorage.sol\":4348:4369  endIndex - startIndex */\n      tag_193\n      jump\t// in\n    tag_192:\n      sub(shl(0x40, 0x01), 0x01)\n        /* \"src/mailStorage.sol\":4332:4370  new EmailInfo[](endIndex - startIndex) */\n      dup2\n      gt\n      iszero\n      tag_195\n      jumpi\n      tag_195\n      tag_101\n      jump\t// in\n    tag_195:\n      mload(0x40)\n      swap1\n      dup1\n      dup3\n      mstore\n      dup1\n      0x20\n      mul\n      0x20\n      add\n      dup3\n      add\n      0x40\n      mstore\n      dup1\n      iszero\n      tag_196\n      jumpi\n      dup2\n      0x20\n      add\n    tag_197:\n      tag_198\n      tag_105\n      jump\t// in\n    tag_198:\n      dup2\n      mstore\n      0x20\n      add\n      swap1\n      0x01\n      swap1\n      sub\n      swap1\n      dup2\n      tag_197\n      jumpi\n      swap1\n      pop\n    tag_196:\n      pop\n        /* \"src/mailStorage.sol\":4304:4370  EmailInfo[] memory result = new EmailInfo[](endIndex - startIndex) */\n      swap1\n      pop\n        /* \"src/mailStorage.sol\":4397:4407  startIndex */\n      dup5\n        /* \"src/mailStorage.sol\":4380:4496  for (uint256 i = startIndex; i < endIndex; i++) {... */\n    tag_199:\n        /* \"src/mailStorage.sol\":4413:4421  endIndex */\n      dup3\n        /* \"src/mailStorage.sol\":4409:4410  i */\n      dup2\n        /* \"src/mailStorage.sol\":4409:4421  i < endIndex */\n      lt\n        /* \"src/mailStorage.sol\":4380:4496  for (uint256 i = startIndex; i < endIndex; i++) {... */\n      iszero\n      tag_200\n      jumpi\n        /* \"src/mailStorage.sol\":4467:4477  mIDToEmail */\n      0x00\n        /* \"src/mailStorage.sol\":4467:4480  mIDToEmail[i] */\n      dup2\n      dup2\n      mstore\n      0x20\n      dup2\n      swap1\n      mstore\n      0x40\n      swap1\n      dup2\n      swap1\n      keccak256\n        /* \"src/mailStorage.sol\":4442:4485  result[i - startIndex] = mIDToEmail[i].info */\n      dup2\n      mload\n      0xc0\n      dup2\n      add\n      swap1\n      swap3\n      mstore\n      dup1\n      sload\n      dup3\n      swap1\n        /* \"src/mailStorage.sol\":4467:4480  mIDToEmail[i] */\n      dup3\n      swap1\n        /* \"src/mailStorage.sol\":4442:4485  result[i - startIndex] = mIDToEmail[i].info */\n      tag_202\n      swap1\n      tag_110\n      jump\t// in\n    tag_202:\n      dup1\n      0x1f\n      add\n      0x20\n      dup1\n      swap2\n      div\n      mul\n      0x20\n      add\n      mload(0x40)\n      swap1\n      dup2\n      add\n      0x40\n      mstore\n      dup1\n      swap3\n      swap2\n      swap1\n      dup2\n      dup2\n      mstore\n      0x20\n      add\n      dup3\n      dup1\n      sload\n      tag_203\n      swap1\n      tag_110\n      jump\t// in\n    tag_203:\n      dup1\n      iszero\n      tag_204\n      jumpi\n      dup1\n      0x1f\n      lt\n      tag_205\n      jumpi\n      0x0100\n      dup1\n      dup4\n      sload\n      div\n      mul\n      dup4\n      mstore\n      swap2\n      0x20\n      add\n      swap2\n      jump(tag_204)\n    tag_205:\n      dup3\n      add\n      swap2\n      swap1\n      0x00\n      mstore\n      keccak256(0x00, 0x20)\n      swap1\n    tag_206:\n      dup2\n      sload\n      dup2\n      mstore\n      swap1\n      0x01\n      add\n      swap1\n      0x20\n      add\n      dup1\n      dup4\n      gt\n      tag_206\n      jumpi\n      dup3\n      swap1\n      sub\n      0x1f\n      and\n      dup3\n      add\n      swap2\n    tag_204:\n      pop\n      pop\n      pop\n      pop\n      pop\n      dup2\n      mstore\n      0x20\n      add\n      0x01\n      dup3\n      add\n      dup1\n      sload\n      tag_207\n      swap1\n      tag_110\n      jump\t// in\n    tag_207:\n      dup1\n      0x1f\n      add\n      0x20\n      dup1\n      swap2\n      div\n      mul\n      0x20\n      add\n      mload(0x40)\n      swap1\n      dup2\n      add\n      0x40\n      mstore\n      dup1\n      swap3\n      swap2\n      swap1\n      dup2\n      dup2\n      mstore\n      0x20\n      add\n      dup3\n      dup1\n      sload\n      tag_208\n      swap1\n      tag_110\n      jump\t// in\n    tag_208:\n      dup1\n      iszero\n      tag_209\n      jumpi\n      dup1\n      0x1f\n      lt\n      tag_210\n      jumpi\n      0x0100\n      dup1\n      dup4\n      sload\n      div\n      mul\n      dup4\n      mstore\n      swap2\n      0x20\n      add\n      swap2\n      jump(tag_209)\n    tag_210:\n      dup3\n      add\n      swap2\n      swap1\n      0x00\n      mstore\n      keccak256(0x00, 0x20)\n      swap1\n    tag_211:\n      dup2\n      sload\n      dup2\n      mstore\n      swap1\n      0x01\n      add\n      swap1\n      0x20\n      add\n      dup1\n      dup4\n      gt\n      tag_211\n      jumpi\n      dup3\n      swap1\n      sub\n      0x1f\n      and\n      dup3\n      add\n      swap2\n    tag_209:\n      pop\n      pop\n      pop\n      swap2\n      dup4\n      mstore\n      pop\n      pop\n      0x02\n      dup3\n      add\n      sload\n      sub(shl(0x40, 0x01), 0x01)\n      dup2\n      and\n      0x20\n      dup1\n      dup5\n      add\n      swap2\n      swap1\n      swap2\n      mstore\n      shl(0x40, 0x01)\n      swap1\n      swap2\n      div\n      0xff\n      and\n      0x40\n      dup1\n      dup5\n      add\n      swap2\n      swap1\n      swap2\n      mstore\n      0x03\n      dup5\n      add\n      dup1\n      sload\n      dup3\n      mload\n      dup2\n      dup6\n      mul\n      dup2\n      add\n      dup6\n      add\n      swap1\n      swap4\n      mstore\n      dup1\n      dup4\n      mstore\n      0x60\n      swap1\n      swap5\n      add\n      swap4\n      swap2\n      swap3\n      swap1\n      swap2\n      swap1\n      dup4\n      add\n      dup3\n      dup3\n      dup1\n      iszero\n      tag_212\n      jumpi\n      0x20\n      mul\n      dup3\n      add\n      swap2\n      swap1\n      0x00\n      mstore\n      keccak256(0x00, 0x20)\n      swap1\n    tag_213:\n      dup2\n      sload\n      dup2\n      mstore\n      0x20\n      add\n      swap1\n      0x01\n      add\n      swap1\n      dup1\n      dup4\n      gt\n      tag_213\n      jumpi\n    tag_212:\n      pop\n      pop\n      pop\n      pop\n      pop\n      dup2\n      mstore\n      0x20\n      add\n      0x04\n      dup3\n      add\n      dup1\n      sload\n      tag_214\n      swap1\n      tag_110\n      jump\t// in\n    tag_214:\n      dup1\n      0x1f\n      add\n      0x20\n      dup1\n      swap2\n      div\n      mul\n      0x20\n      add\n      mload(0x40)\n      swap1\n      dup2\n      add\n      0x40\n      mstore\n      dup1\n      swap3\n      swap2\n      swap1\n      dup2\n      dup2\n      mstore\n      0x20\n      add\n      dup3\n      dup1\n      sload\n      tag_215\n      swap1\n      tag_110\n      jump\t// in\n    tag_215:\n      dup1\n      iszero\n      tag_216\n      jumpi\n      dup1\n      0x1f\n      lt\n      tag_217\n      jumpi\n      0x0100\n      dup1\n      dup4\n      sload\n      div\n      mul\n      dup4\n      mstore\n      swap2\n      0x20\n      add\n      swap2\n      jump(tag_216)\n    tag_217:\n      dup3\n      add\n      swap2\n      swap1\n      0x00\n      mstore\n      keccak256(0x00, 0x20)\n      swap1\n    tag_218:\n      dup2\n      sload\n      dup2\n      mstore\n      swap1\n      0x01\n      add\n      swap1\n      0x20\n      add\n      dup1\n      dup4\n      gt\n      tag_218\n      jumpi\n      dup3\n      swap1\n      sub\n      0x1f\n      and\n      dup3\n      add\n      swap2\n    tag_216:\n      pop\n      pop\n      pop\n      pop\n      pop\n      dup2\n      mstore\n      pop\n      pop\n        /* \"src/mailStorage.sol\":4442:4448  result */\n      dup3\n        /* \"src/mailStorage.sol\":4453:4463  startIndex */\n      dup8\n        /* \"src/mailStorage.sol\":4449:4450  i */\n      dup4\n        /* \"src/mailStorage.sol\":4449:4463  i - startIndex */\n      tag_219\n      swap2\n      swap1\n      tag_193\n      jump\t// in\n    tag_219:\n        /* \"src/mailStorage.sol\":4442:4464  result[i - startIndex] */\n      dup2\n      mload\n      dup2\n      lt\n      tag_221\n      jumpi\n      tag_221\n      tag_129\n      jump\t// in\n    tag_221:\n      0x20\n      mul\n      0x20\n      add\n      add\n        /* \"src/mailStorage.sol\":4442:4485  result[i - startIndex] = mIDToEmail[i].info */\n      dup2\n      swap1\n      mstore\n      pop\n        /* \"src/mailStorage.sol\":4423:4426  i++ */\n      dup1\n      dup1\n      tag_222\n      swap1\n      tag_131\n      jump\t// in\n    tag_222:\n      swap2\n      pop\n      pop\n        /* \"src/mailStorage.sol\":4380:4496  for (uint256 i = startIndex; i < endIndex; i++) {... */\n      jump(tag_199)\n    tag_200:\n      pop\n        /* \"src/mailStorage.sol\":4512:4518  result */\n      swap2\n      pop\n      pop\n        /* \"src/mailStorage.sol\":3936:4525  function getEmailInfos(uint256 startIndex, uint256 count) external view returns (EmailInfo[] memory) {... */\n    tag_182:\n      swap3\n      swap2\n      pop\n      pop\n      jump\t// out\n        /* \"src/mailStorage.sol\":1842:3177  function createEmail(... */\n    tag_80:\n        /* \"src/mailStorage.sol\":1214:1221  service */\n      sload(0x02)\n        /* \"src/mailStorage.sol\":2049:2056  uint256 */\n      0x00\n      swap1\n      sub(shl(0xa0, 0x01), 0x01)\n        /* \"src/mailStorage.sol\":1214:1221  service */\n      and\n        /* \"src/mailStorage.sol\":1200:1210  msg.sender */\n      caller\n        /* \"src/mailStorage.sol\":1200:1221  msg.sender == service */\n      eq\n        /* \"src/mailStorage.sol\":1192:1246  require(msg.sender == service,\"only service can call\") */\n      tag_224\n      jumpi\n      mload(0x40)\n      shl(0xe5, 0x461bcd)\n      dup2\n      mstore\n        /* \"#utility.yul\":11603:11605   */\n      0x20\n        /* \"src/mailStorage.sol\":1192:1246  require(msg.sender == service,\"only service can call\") */\n      0x04\n      dup3\n      add\n        /* \"#utility.yul\":11585:11606   */\n      mstore\n        /* \"#utility.yul\":11642:11644   */\n      0x15\n        /* \"#utility.yul\":11622:11640   */\n      0x24\n      dup3\n      add\n        /* \"#utility.yul\":11615:11645   */\n      mstore\n      shl(0x5a, 0x1bdb9b1e481cd95c9d9a58d94818d85b8818d85b1b)\n        /* \"#utility.yul\":11661:11679   */\n      0x44\n      dup3\n      add\n        /* \"#utility.yul\":11654:11705   */\n      mstore\n        /* \"#utility.yul\":11722:11740   */\n      0x64\n      add\n        /* \"src/mailStorage.sol\":1192:1246  require(msg.sender == service,\"only service can call\") */\n      tag_84\n        /* \"#utility.yul\":11401:11746   */\n      jump\n        /* \"src/mailStorage.sol\":1192:1246  require(msg.sender == service,\"only service can call\") */\n    tag_224:\n        /* \"src/mailStorage.sol\":2132:2144  emailCounter */\n      sload(0x07)\n        /* \"src/mailStorage.sol\":2095:2118  Email storage  newEmail */\n      0x00\n        /* \"src/mailStorage.sol\":2121:2145  mIDToEmail[emailCounter] */\n      swap1\n      dup2\n      mstore\n      0x20\n      dup2\n      swap1\n      mstore\n      0x40\n      swap1\n      keccak256\n      dup1\n        /* \"src/mailStorage.sol\":2155:2186  newEmail.info.subject = subject */\n      tag_228\n        /* \"src/mailStorage.sol\":2179:2186  subject */\n      dup8\n        /* \"src/mailStorage.sol\":2121:2145  mIDToEmail[emailCounter] */\n      dup3\n        /* \"src/mailStorage.sol\":2155:2186  newEmail.info.subject = subject */\n      tag_229\n      jump\t// in\n    tag_228:\n      pop\n        /* \"src/mailStorage.sol\":2196:2214  newEmail.info.from */\n      0x01\n      dup2\n      add\n        /* \"src/mailStorage.sol\":2196:2223  newEmail.info.from = sender */\n      tag_230\n        /* \"src/mailStorage.sol\":2217:2223  sender */\n      dup9\n        /* \"src/mailStorage.sol\":2196:2214  newEmail.info.from */\n      dup3\n        /* \"src/mailStorage.sol\":2196:2223  newEmail.info.from = sender */\n      tag_229\n      jump\t// in\n    tag_230:\n      pop\n        /* \"src/mailStorage.sol\":2233:2246  newEmail.body */\n      0x05\n      dup2\n      add\n        /* \"src/mailStorage.sol\":2233:2253  newEmail.body = body */\n      tag_231\n        /* \"src/mailStorage.sol\":2249:2253  body */\n      dup7\n        /* \"src/mailStorage.sol\":2233:2246  newEmail.body */\n      dup3\n        /* \"src/mailStorage.sol\":2233:2253  newEmail.body = body */\n      tag_229\n      jump\t// in\n    tag_231:\n      pop\n        /* \"src/mailStorage.sol\":2263:2286  newEmail.info.createdAt */\n      0x02\n      dup2\n      add\n        /* \"src/mailStorage.sol\":2263:2298  newEmail.info.createdAt = createdAt */\n      dup1\n      sload\n      not(sub(shl(0x40, 0x01), 0x01))\n      and\n      sub(shl(0x40, 0x01), 0x01)\n      dup6\n      and\n      or\n      swap1\n      sstore\n      0x00\n        /* \"src/mailStorage.sol\":2342:2454  for (uint256 i = 0; i < _fileKeys.length; i++) {... */\n    tag_232:\n        /* \"src/mailStorage.sol\":2366:2375  _fileKeys */\n      dup5\n        /* \"src/mailStorage.sol\":2366:2382  _fileKeys.length */\n      mload\n        /* \"src/mailStorage.sol\":2362:2363  i */\n      dup2\n        /* \"src/mailStorage.sol\":2362:2382  i < _fileKeys.length */\n      lt\n        /* \"src/mailStorage.sol\":2342:2454  for (uint256 i = 0; i < _fileKeys.length; i++) {... */\n      iszero\n      tag_233\n      jumpi\n        /* \"src/mailStorage.sol\":2402:2410  newEmail */\n      dup2\n        /* \"src/mailStorage.sol\":2402:2415  newEmail.info */\n      0x00\n      add\n        /* \"src/mailStorage.sol\":2402:2424  newEmail.info.fileKeys */\n      0x03\n      add\n        /* \"src/mailStorage.sol\":2430:2439  _fileKeys */\n      dup6\n        /* \"src/mailStorage.sol\":2440:2441  i */\n      dup3\n        /* \"src/mailStorage.sol\":2430:2442  _fileKeys[i] */\n      dup2\n      mload\n      dup2\n      lt\n      tag_236\n      jumpi\n      tag_236\n      tag_129\n      jump\t// in\n    tag_236:\n      0x20\n      swap1\n      dup2\n      mul\n      swap2\n      swap1\n      swap2\n      add\n      dup2\n      add\n      mload\n        /* \"src/mailStorage.sol\":2402:2443  newEmail.info.fileKeys.push(_fileKeys[i]) */\n      dup3\n      sload\n      0x01\n      dup2\n      add\n      dup5\n      sstore\n      0x00\n      swap4\n      dup5\n      mstore\n      swap2\n      swap1\n      swap3\n      keccak256\n      add\n      sstore\n        /* \"src/mailStorage.sol\":2384:2387  i++ */\n      dup1\n      tag_238\n      dup2\n      tag_131\n      jump\t// in\n    tag_238:\n      swap2\n      pop\n      pop\n        /* \"src/mailStorage.sol\":2342:2454  for (uint256 i = 0; i < _fileKeys.length; i++) {... */\n      jump(tag_232)\n    tag_233:\n      pop\n        /* \"src/mailStorage.sol\":2463:2475  emailCounter */\n      0x07\n        /* \"src/mailStorage.sol\":2463:2477  emailCounter++ */\n      dup1\n      sload\n      swap1\n        /* \"src/mailStorage.sol\":2463:2475  emailCounter */\n      0x00\n        /* \"src/mailStorage.sol\":2463:2477  emailCounter++ */\n      tag_239\n      dup4\n      tag_131\n      jump\t// in\n    tag_239:\n      swap2\n      swap1\n      pop\n      sstore\n      pop\n        /* \"src/mailStorage.sol\":2528:2534  sender */\n      dup7\n        /* \"src/mailStorage.sol\":2492:2535  EmailCreated(emailCounter, subject, sender) */\n      mload(0x40)\n      tag_240\n      swap2\n      swap1\n      tag_241\n      jump\t// in\n    tag_240:\n      mload(0x40)\n      dup1\n      swap2\n      sub\n      swap1\n      keccak256\n      0x8ae5a1e1c537ffec7f7fd763f2308750bf96dcc204486d50272999253e2bc5ee\n        /* \"src/mailStorage.sol\":2505:2517  emailCounter */\n      sload(0x07)\n        /* \"src/mailStorage.sol\":2519:2526  subject */\n      dup9\n        /* \"src/mailStorage.sol\":2492:2535  EmailCreated(emailCounter, subject, sender) */\n      mload(0x40)\n      tag_242\n      swap3\n      swap2\n      swap1\n      tag_243\n      jump\t// in\n    tag_242:\n      mload(0x40)\n      dup1\n      swap2\n      sub\n      swap1\n      log2\n        /* \"src/mailStorage.sol\":2557:2564  notiSMC */\n      and(sub(shl(0xa0, 0x01), 0x01), sload(0x01))\n        /* \"src/mailStorage.sol\":2549:2579  address(notiSMC) != address(0) */\n      iszero\n        /* \"src/mailStorage.sol\":2545:3138  if (address(notiSMC) != address(0)) {... */\n      tag_244\n      jumpi\n      0x40\n      dup1\n      mload\n      dup1\n      dup3\n      add\n      dup3\n      mstore\n      0x60\n      dup1\n      dup3\n      mstore\n      0x20\n      dup1\n      dup4\n      add\n      swap2\n      dup3\n      mstore\n        /* \"src/mailStorage.sol\":2637:2672  notiParams.title = \"Metanode-Email\" */\n      dup4\n      mload\n      dup1\n      dup6\n      add\n      dup6\n      mstore\n      0x0e\n      dup2\n      mstore\n      shl(0x92, 0x13595d185b9bd9194b515b585a5b)\n      swap2\n      dup2\n      add\n      swap2\n      swap1\n      swap2\n      mstore\n      dup3\n      mstore\n        /* \"src/mailStorage.sol\":2686:2711  notiParams.body = subject */\n      dup9\n      swap1\n      mstore\n        /* \"src/mailStorage.sol\":2731:2738  notiSMC */\n      sload(0x01)\n        /* \"src/mailStorage.sol\":2760:2772  storageOwner */\n      sload(0x03)\n        /* \"src/mailStorage.sol\":2725:2773  INoti(notiSMC).AddNoti(notiParams, storageOwner) */\n      swap3\n      mload\n      shl(0xe0, 0xfe477261)\n      dup2\n      mstore\n      swap2\n      swap3\n      sub(shl(0xa0, 0x01), 0x01)\n        /* \"src/mailStorage.sol\":2731:2738  notiSMC */\n      swap2\n      dup3\n      and\n      swap3\n        /* \"src/mailStorage.sol\":2725:2747  INoti(notiSMC).AddNoti */\n      0xfe477261\n      swap3\n        /* \"src/mailStorage.sol\":2725:2773  INoti(notiSMC).AddNoti(notiParams, storageOwner) */\n      tag_247\n      swap3\n      dup7\n      swap3\n        /* \"src/mailStorage.sol\":2760:2772  storageOwner */\n      swap2\n      and\n      swap1\n        /* \"src/mailStorage.sol\":2725:2773  INoti(notiSMC).AddNoti(notiParams, storageOwner) */\n      0x04\n      add\n      tag_248\n      jump\t// in\n    tag_247:\n      0x20\n      mload(0x40)\n      dup1\n      dup4\n      sub\n      dup2\n      0x00\n      dup8\n      gas\n      call\n      swap3\n      pop\n      pop\n      pop\n      dup1\n      iszero\n      tag_249\n      jumpi\n      pop\n      0x40\n      dup1\n      mload\n      0x1f\n      returndatasize\n      swap1\n      dup2\n      add\n      not(0x1f)\n      and\n      dup3\n      add\n      swap1\n      swap3\n      mstore\n      tag_250\n      swap2\n      dup2\n      add\n      swap1\n      tag_251\n      jump\t// in\n    tag_250:\n      0x01\n    tag_249:\n        /* \"src/mailStorage.sol\":2721:3127  try INoti(notiSMC).AddNoti(notiParams, storageOwner) {... */\n      tag_252\n      jumpi\n      tag_256\n      tag_257\n      jump\t// in\n    tag_256:\n      dup1\n      0x08c379a0\n      sub\n      tag_255\n      jumpi\n      pop\n      tag_258\n      tag_259\n      jump\t// in\n    tag_258:\n      dup1\n      tag_260\n      jumpi\n      pop\n      jump(tag_254)\n    tag_260:\n      0x00\n      dup1\n      mload\n      0x20\n      data_1655200990760dd971b785a256dda7ea9772b9dbb0f03561b75cbcc9b47170ae\n      dup4\n      codecopy\n      dup2\n      mload\n      swap2\n      mstore\n        /* \"src/mailStorage.sol\":2940:2946  reason */\n      dup2\n        /* \"src/mailStorage.sol\":2921:2947  NotificationFailed(reason) */\n      mload(0x40)\n      tag_261\n      swap2\n      swap1\n      tag_68\n      jump\t// in\n    tag_261:\n      mload(0x40)\n      dup1\n      swap2\n      sub\n      swap1\n      log1\n        /* \"src/mailStorage.sol\":2833:2958  catch Error(string memory reason) {... */\n      pop\n        /* \"src/mailStorage.sol\":2721:3127  try INoti(notiSMC).AddNoti(notiParams, storageOwner) {... */\n      jump(tag_266)\n    tag_255:\n      pop\n    tag_254:\n      returndatasize\n      dup1\n      dup1\n      iszero\n      tag_263\n      jumpi\n      mload(0x40)\n      swap2\n      pop\n      and(add(returndatasize, 0x3f), not(0x1f))\n      dup3\n      add\n      0x40\n      mstore\n      returndatasize\n      dup3\n      mstore\n      returndatasize\n      0x00\n      0x20\n      dup5\n      add\n      returndatacopy\n      jump(tag_262)\n    tag_263:\n      0x60\n      swap2\n      pop\n    tag_262:\n      pop\n      0x00\n      dup1\n      mload\n      0x20\n      data_1655200990760dd971b785a256dda7ea9772b9dbb0f03561b75cbcc9b47170ae\n      dup4\n      codecopy\n      dup2\n      mload\n      swap2\n      mstore\n        /* \"src/mailStorage.sol\":3053:3116  NotificationFailed(\"Notification failed due to unknown error.\") */\n      mload(0x40)\n      tag_261\n      swap1\n        /* \"#utility.yul\":16527:16529   */\n      0x20\n        /* \"#utility.yul\":16509:16530   */\n      dup1\n      dup3\n      mstore\n        /* \"#utility.yul\":16566:16568   */\n      0x29\n        /* \"#utility.yul\":16546:16564   */\n      swap1\n      dup3\n      add\n        /* \"#utility.yul\":16539:16569   */\n      mstore\n        /* \"#utility.yul\":16605:16639   */\n      0x4e6f74696669636174696f6e206661696c65642064756520746f20756e6b6e6f\n        /* \"#utility.yul\":16600:16602   */\n      0x40\n        /* \"#utility.yul\":16585:16603   */\n      dup3\n      add\n        /* \"#utility.yul\":16578:16640   */\n      mstore\n      shl(0xb9, 0x3bb71032b93937b917)\n        /* \"#utility.yul\":16671:16673   */\n      0x60\n        /* \"#utility.yul\":16656:16674   */\n      dup3\n      add\n        /* \"#utility.yul\":16649:16688   */\n      mstore\n        /* \"#utility.yul\":16720:16723   */\n      0x80\n        /* \"#utility.yul\":16705:16724   */\n      add\n      swap1\n        /* \"#utility.yul\":16325:16730   */\n      jump\n        /* \"src/mailStorage.sol\":2721:3127  try INoti(notiSMC).AddNoti(notiParams, storageOwner) {... */\n    tag_252:\n      pop\n    tag_266:\n        /* \"src/mailStorage.sol\":2581:3138  {... */\n      pop\n        /* \"src/mailStorage.sol\":2545:3138  if (address(notiSMC) != address(0)) {... */\n    tag_244:\n        /* \"src/mailStorage.sol\":3168:3169  1 */\n      0x01\n        /* \"src/mailStorage.sol\":3155:3167  emailCounter */\n      sload(0x07)\n        /* \"src/mailStorage.sol\":3155:3169  emailCounter-1 */\n      tag_267\n      swap2\n      swap1\n      tag_193\n      jump\t// in\n    tag_267:\n        /* \"src/mailStorage.sol\":3147:3170  return (emailCounter-1) */\n      swap8\n        /* \"src/mailStorage.sol\":1842:3177  function createEmail(... */\n      swap7\n      pop\n      pop\n      pop\n      pop\n      pop\n      pop\n      pop\n      jump\t// out\n    tag_105:\n      mload(0x40)\n      dup1\n      0xc0\n      add\n      0x40\n      mstore\n      dup1\n      0x60\n      dup2\n      mstore\n      0x20\n      add\n      0x60\n      dup2\n      mstore\n      0x20\n      add\n      and(sub(shl(0x40, 0x01), 0x01), 0x00)\n      dup2\n      mstore\n      0x20\n      add\n      and(0xff, 0x00)\n      dup2\n      mstore\n      0x20\n      add\n      0x60\n      dup2\n      mstore\n      0x20\n      add\n      0x60\n      dup2\n      mstore\n      pop\n      swap1\n      jump\t// out\n    tag_133:\n      mload(0x40)\n      dup1\n      0x40\n      add\n      0x40\n      mstore\n      dup1\n      tag_268\n      tag_105\n      jump\t// in\n    tag_268:\n      dup2\n      mstore\n      0x20\n      add\n      0x60\n      dup2\n      mstore\n      pop\n      swap1\n      jump\t// out\n        /* \"#utility.yul\":14:187   */\n    tag_269:\n        /* \"#utility.yul\":82:102   */\n      dup1\n      calldataload\n      sub(shl(0xa0, 0x01), 0x01)\n        /* \"#utility.yul\":131:162   */\n      dup2\n      and\n        /* \"#utility.yul\":121:163   */\n      dup2\n      eq\n        /* \"#utility.yul\":111:181   */\n      tag_137\n      jumpi\n        /* \"#utility.yul\":177:178   */\n      0x00\n        /* \"#utility.yul\":174:175   */\n      dup1\n        /* \"#utility.yul\":167:179   */\n      revert\n        /* \"#utility.yul\":192:378   */\n    tag_21:\n        /* \"#utility.yul\":251:257   */\n      0x00\n        /* \"#utility.yul\":304:306   */\n      0x20\n        /* \"#utility.yul\":292:301   */\n      dup3\n        /* \"#utility.yul\":283:290   */\n      dup5\n        /* \"#utility.yul\":279:302   */\n      sub\n        /* \"#utility.yul\":275:307   */\n      slt\n        /* \"#utility.yul\":272:324   */\n      iszero\n      tag_284\n      jumpi\n        /* \"#utility.yul\":320:321   */\n      0x00\n        /* \"#utility.yul\":317:318   */\n      dup1\n        /* \"#utility.yul\":310:322   */\n      revert\n        /* \"#utility.yul\":272:324   */\n    tag_284:\n        /* \"#utility.yul\":343:372   */\n      tag_285\n        /* \"#utility.yul\":362:371   */\n      dup3\n        /* \"#utility.yul\":343:372   */\n      tag_269\n      jump\t// in\n    tag_285:\n        /* \"#utility.yul\":333:372   */\n      swap4\n        /* \"#utility.yul\":192:378   */\n      swap3\n      pop\n      pop\n      pop\n      jump\t// out\n        /* \"#utility.yul\":783:1033   */\n    tag_270:\n        /* \"#utility.yul\":868:869   */\n      0x00\n        /* \"#utility.yul\":878:991   */\n    tag_289:\n        /* \"#utility.yul\":892:898   */\n      dup4\n        /* \"#utility.yul\":889:890   */\n      dup2\n        /* \"#utility.yul\":886:899   */\n      lt\n        /* \"#utility.yul\":878:991   */\n      iszero\n      tag_291\n      jumpi\n        /* \"#utility.yul\":968:979   */\n      dup2\n      dup2\n      add\n        /* \"#utility.yul\":962:980   */\n      mload\n        /* \"#utility.yul\":949:960   */\n      dup4\n      dup3\n      add\n        /* \"#utility.yul\":942:981   */\n      mstore\n        /* \"#utility.yul\":914:916   */\n      0x20\n        /* \"#utility.yul\":907:917   */\n      add\n        /* \"#utility.yul\":878:991   */\n      jump(tag_289)\n    tag_291:\n      pop\n      pop\n        /* \"#utility.yul\":1025:1026   */\n      0x00\n        /* \"#utility.yul\":1007:1023   */\n      swap2\n      add\n        /* \"#utility.yul\":1000:1027   */\n      mstore\n        /* \"#utility.yul\":783:1033   */\n      jump\t// out\n        /* \"#utility.yul\":1038:1309   */\n    tag_271:\n        /* \"#utility.yul\":1080:1083   */\n      0x00\n        /* \"#utility.yul\":1118:1123   */\n      dup2\n        /* \"#utility.yul\":1112:1124   */\n      mload\n        /* \"#utility.yul\":1145:1151   */\n      dup1\n        /* \"#utility.yul\":1140:1143   */\n      dup5\n        /* \"#utility.yul\":1133:1152   */\n      mstore\n        /* \"#utility.yul\":1161:1237   */\n      tag_293\n        /* \"#utility.yul\":1230:1236   */\n      dup2\n        /* \"#utility.yul\":1223:1227   */\n      0x20\n        /* \"#utility.yul\":1218:1221   */\n      dup7\n        /* \"#utility.yul\":1214:1228   */\n      add\n        /* \"#utility.yul\":1207:1211   */\n      0x20\n        /* \"#utility.yul\":1200:1205   */\n      dup7\n        /* \"#utility.yul\":1196:1212   */\n      add\n        /* \"#utility.yul\":1161:1237   */\n      tag_270\n      jump\t// in\n    tag_293:\n        /* \"#utility.yul\":1291:1293   */\n      0x1f\n        /* \"#utility.yul\":1270:1285   */\n      add\n      not(0x1f)\n        /* \"#utility.yul\":1266:1295   */\n      and\n        /* \"#utility.yul\":1257:1296   */\n      swap3\n      swap1\n      swap3\n      add\n        /* \"#utility.yul\":1298:1302   */\n      0x20\n        /* \"#utility.yul\":1253:1303   */\n      add\n      swap3\n        /* \"#utility.yul\":1038:1309   */\n      swap2\n      pop\n      pop\n      jump\t// out\n        /* \"#utility.yul\":1314:2492   */\n    tag_272:\n        /* \"#utility.yul\":1366:1369   */\n      0x00\n        /* \"#utility.yul\":1410:1415   */\n      dup2\n        /* \"#utility.yul\":1404:1416   */\n      mload\n        /* \"#utility.yul\":1437:1441   */\n      0xc0\n        /* \"#utility.yul\":1432:1435   */\n      dup5\n        /* \"#utility.yul\":1425:1442   */\n      mstore\n        /* \"#utility.yul\":1463:1510   */\n      tag_295\n        /* \"#utility.yul\":1504:1508   */\n      0xc0\n        /* \"#utility.yul\":1499:1502   */\n      dup6\n        /* \"#utility.yul\":1495:1509   */\n      add\n        /* \"#utility.yul\":1481:1493   */\n      dup3\n        /* \"#utility.yul\":1463:1510   */\n      tag_271\n      jump\t// in\n    tag_295:\n        /* \"#utility.yul\":1451:1510   */\n      swap1\n      pop\n        /* \"#utility.yul\":1529:1533   */\n      0x20\n        /* \"#utility.yul\":1581:1583   */\n      dup1\n        /* \"#utility.yul\":1574:1579   */\n      dup5\n        /* \"#utility.yul\":1570:1584   */\n      add\n        /* \"#utility.yul\":1564:1585   */\n      mload\n        /* \"#utility.yul\":1625:1628   */\n      dup6\n        /* \"#utility.yul\":1619:1623   */\n      dup4\n        /* \"#utility.yul\":1615:1629   */\n      sub\n        /* \"#utility.yul\":1610:1612   */\n      dup3\n        /* \"#utility.yul\":1605:1608   */\n      dup8\n        /* \"#utility.yul\":1601:1613   */\n      add\n        /* \"#utility.yul\":1594:1630   */\n      mstore\n        /* \"#utility.yul\":1653:1692   */\n      tag_296\n        /* \"#utility.yul\":1687:1691   */\n      dup4\n        /* \"#utility.yul\":1671:1685   */\n      dup3\n        /* \"#utility.yul\":1653:1692   */\n      tag_271\n      jump\t// in\n    tag_296:\n        /* \"#utility.yul\":1761:1763   */\n      0x40\n        /* \"#utility.yul\":1734:1750   */\n      dup7\n      dup2\n      add\n        /* \"#utility.yul\":1728:1751   */\n      mload\n      sub(shl(0x40, 0x01), 0x01)\n        /* \"#utility.yul\":1724:1772   */\n      and\n        /* \"#utility.yul\":1708:1722   */\n      swap1\n      dup9\n      add\n        /* \"#utility.yul\":1701:1773   */\n      mstore\n        /* \"#utility.yul\":1826:1830   */\n      0x60\n        /* \"#utility.yul\":1815:1831   */\n      dup1\n      dup8\n      add\n        /* \"#utility.yul\":1809:1832   */\n      mload\n        /* \"#utility.yul\":1834:1838   */\n      0xff\n        /* \"#utility.yul\":1805:1839   */\n      and\n        /* \"#utility.yul\":1789:1803   */\n      swap1\n      dup9\n      add\n        /* \"#utility.yul\":1782:1840   */\n      mstore\n        /* \"#utility.yul\":1888:1892   */\n      0x80\n        /* \"#utility.yul\":1877:1893   */\n      dup1\n      dup8\n      add\n        /* \"#utility.yul\":1871:1894   */\n      mload\n        /* \"#utility.yul\":1926:1942   */\n      dup9\n      dup4\n      sub\n        /* \"#utility.yul\":1910:1924   */\n      swap2\n      dup10\n      add\n        /* \"#utility.yul\":1903:1943   */\n      swap2\n      swap1\n      swap2\n      mstore\n        /* \"#utility.yul\":1994:2015   */\n      dup1\n      mload\n        /* \"#utility.yul\":2024:2046   */\n      dup1\n      dup4\n      mstore\n        /* \"#utility.yul\":2102:2125   */\n      swap1\n      dup5\n      add\n      swap5\n      pop\n      0x00\n      swap3\n      pop\n        /* \"#utility.yul\":2064:2079   */\n      swap1\n      dup4\n      add\n      swap1\n        /* \"#utility.yul\":2153:2328   */\n    tag_297:\n        /* \"#utility.yul\":2167:2173   */\n      dup1\n        /* \"#utility.yul\":2164:2165   */\n      dup4\n        /* \"#utility.yul\":2161:2174   */\n      lt\n        /* \"#utility.yul\":2153:2328   */\n      iszero\n      tag_299\n      jumpi\n        /* \"#utility.yul\":2230:2243   */\n      dup5\n      mload\n        /* \"#utility.yul\":2216:2244   */\n      dup3\n      mstore\n        /* \"#utility.yul\":2303:2318   */\n      swap4\n      dup4\n      add\n      swap4\n        /* \"#utility.yul\":2189:2190   */\n      0x01\n        /* \"#utility.yul\":2182:2191   */\n      swap3\n      swap1\n      swap3\n      add\n      swap2\n        /* \"#utility.yul\":2266:2280   */\n      swap1\n      dup4\n      add\n      swap1\n        /* \"#utility.yul\":2153:2328   */\n      jump(tag_297)\n    tag_299:\n        /* \"#utility.yul\":2157:2160   */\n      pop\n        /* \"#utility.yul\":2376:2380   */\n      0xa0\n        /* \"#utility.yul\":2369:2374   */\n      dup7\n        /* \"#utility.yul\":2365:2381   */\n      add\n        /* \"#utility.yul\":2359:2382   */\n      mload\n        /* \"#utility.yul\":2337:2382   */\n      swap4\n      pop\n        /* \"#utility.yul\":2425:2428   */\n      dup7\n        /* \"#utility.yul\":2418:2423   */\n      dup2\n        /* \"#utility.yul\":2414:2429   */\n      sub\n        /* \"#utility.yul\":2407:2411   */\n      0xa0\n        /* \"#utility.yul\":2402:2405   */\n      dup9\n        /* \"#utility.yul\":2398:2412   */\n      add\n        /* \"#utility.yul\":2391:2430   */\n      mstore\n        /* \"#utility.yul\":2446:2486   */\n      tag_267\n        /* \"#utility.yul\":2480:2485   */\n      dup2\n        /* \"#utility.yul\":2464:2478   */\n      dup6\n        /* \"#utility.yul\":2446:2486   */\n      tag_271\n      jump\t// in\n        /* \"#utility.yul\":2497:3342   */\n    tag_41:\n        /* \"#utility.yul\":2691:2695   */\n      0x00\n        /* \"#utility.yul\":2720:2722   */\n      0x20\n        /* \"#utility.yul\":2760:2762   */\n      dup1\n        /* \"#utility.yul\":2749:2758   */\n      dup4\n        /* \"#utility.yul\":2745:2763   */\n      add\n        /* \"#utility.yul\":2790:2792   */\n      dup2\n        /* \"#utility.yul\":2779:2788   */\n      dup5\n        /* \"#utility.yul\":2772:2793   */\n      mstore\n        /* \"#utility.yul\":2813:2819   */\n      dup1\n        /* \"#utility.yul\":2848:2854   */\n      dup6\n        /* \"#utility.yul\":2842:2855   */\n      mload\n        /* \"#utility.yul\":2879:2885   */\n      dup1\n        /* \"#utility.yul\":2871:2877   */\n      dup4\n        /* \"#utility.yul\":2864:2886   */\n      mstore\n        /* \"#utility.yul\":2917:2919   */\n      0x40\n        /* \"#utility.yul\":2906:2915   */\n      dup7\n        /* \"#utility.yul\":2902:2920   */\n      add\n        /* \"#utility.yul\":2895:2920   */\n      swap2\n      pop\n        /* \"#utility.yul\":2979:2981   */\n      0x40\n        /* \"#utility.yul\":2969:2975   */\n      dup2\n        /* \"#utility.yul\":2966:2967   */\n      0x05\n        /* \"#utility.yul\":2962:2976   */\n      shl\n        /* \"#utility.yul\":2951:2960   */\n      dup8\n        /* \"#utility.yul\":2947:2977   */\n      add\n        /* \"#utility.yul\":2943:2982   */\n      add\n        /* \"#utility.yul\":2929:2982   */\n      swap3\n      pop\n        /* \"#utility.yul\":3017:3019   */\n      dup4\n        /* \"#utility.yul\":3009:3015   */\n      dup8\n        /* \"#utility.yul\":3005:3020   */\n      add\n        /* \"#utility.yul\":3038:3039   */\n      0x00\n        /* \"#utility.yul\":3048:3313   */\n    tag_302:\n        /* \"#utility.yul\":3062:3068   */\n      dup3\n        /* \"#utility.yul\":3059:3060   */\n      dup2\n        /* \"#utility.yul\":3056:3069   */\n      lt\n        /* \"#utility.yul\":3048:3313   */\n      iszero\n      tag_304\n      jumpi\n        /* \"#utility.yul\":3155:3157   */\n      0x3f\n        /* \"#utility.yul\":3151:3158   */\n      not\n        /* \"#utility.yul\":3139:3148   */\n      dup9\n        /* \"#utility.yul\":3131:3137   */\n      dup7\n        /* \"#utility.yul\":3127:3149   */\n      sub\n        /* \"#utility.yul\":3123:3159   */\n      add\n        /* \"#utility.yul\":3118:3121   */\n      dup5\n        /* \"#utility.yul\":3111:3160   */\n      mstore\n        /* \"#utility.yul\":3183:3233   */\n      tag_305\n        /* \"#utility.yul\":3226:3232   */\n      dup6\n        /* \"#utility.yul\":3217:3223   */\n      dup4\n        /* \"#utility.yul\":3211:3224   */\n      mload\n        /* \"#utility.yul\":3183:3233   */\n      tag_272\n      jump\t// in\n    tag_305:\n        /* \"#utility.yul\":3173:3233   */\n      swap5\n      pop\n        /* \"#utility.yul\":3291:3303   */\n      swap3\n      dup6\n      add\n      swap3\n        /* \"#utility.yul\":3256:3271   */\n      swap1\n      dup6\n      add\n      swap1\n        /* \"#utility.yul\":3084:3085   */\n      0x01\n        /* \"#utility.yul\":3077:3086   */\n      add\n        /* \"#utility.yul\":3048:3313   */\n      jump(tag_302)\n    tag_304:\n      pop\n        /* \"#utility.yul\":3330:3336   */\n      swap3\n      swap8\n        /* \"#utility.yul\":2497:3342   */\n      swap7\n      pop\n      pop\n      pop\n      pop\n      pop\n      pop\n      pop\n      jump\t// out\n        /* \"#utility.yul\":3347:3527   */\n    tag_44:\n        /* \"#utility.yul\":3406:3412   */\n      0x00\n        /* \"#utility.yul\":3459:3461   */\n      0x20\n        /* \"#utility.yul\":3447:3456   */\n      dup3\n        /* \"#utility.yul\":3438:3445   */\n      dup5\n        /* \"#utility.yul\":3434:3457   */\n      sub\n        /* \"#utility.yul\":3430:3462   */\n      slt\n        /* \"#utility.yul\":3427:3479   */\n      iszero\n      tag_307\n      jumpi\n        /* \"#utility.yul\":3475:3476   */\n      0x00\n        /* \"#utility.yul\":3472:3473   */\n      dup1\n        /* \"#utility.yul\":3465:3477   */\n      revert\n        /* \"#utility.yul\":3427:3479   */\n    tag_307:\n      pop\n        /* \"#utility.yul\":3498:3521   */\n      calldataload\n      swap2\n        /* \"#utility.yul\":3347:3527   */\n      swap1\n      pop\n      jump\t// out\n        /* \"#utility.yul\":3532:4067   */\n    tag_47:\n        /* \"#utility.yul\":3705:3707   */\n      0x20\n        /* \"#utility.yul\":3694:3703   */\n      dup2\n        /* \"#utility.yul\":3687:3708   */\n      mstore\n        /* \"#utility.yul\":3668:3672   */\n      0x00\n        /* \"#utility.yul\":3743:3749   */\n      dup3\n        /* \"#utility.yul\":3737:3750   */\n      mload\n        /* \"#utility.yul\":3786:3790   */\n      0x40\n        /* \"#utility.yul\":3781:3783   */\n      0x20\n        /* \"#utility.yul\":3770:3779   */\n      dup5\n        /* \"#utility.yul\":3766:3784   */\n      add\n        /* \"#utility.yul\":3759:3791   */\n      mstore\n        /* \"#utility.yul\":3814:3875   */\n      tag_309\n        /* \"#utility.yul\":3871:3873   */\n      0x60\n        /* \"#utility.yul\":3860:3869   */\n      dup5\n        /* \"#utility.yul\":3856:3874   */\n      add\n        /* \"#utility.yul\":3842:3854   */\n      dup3\n        /* \"#utility.yul\":3814:3875   */\n      tag_272\n      jump\t// in\n    tag_309:\n        /* \"#utility.yul\":3800:3875   */\n      swap1\n      pop\n        /* \"#utility.yul\":3924:3926   */\n      0x20\n        /* \"#utility.yul\":3916:3922   */\n      dup5\n        /* \"#utility.yul\":3912:3927   */\n      add\n        /* \"#utility.yul\":3906:3928   */\n      mload\n        /* \"#utility.yul\":3998:4000   */\n      0x1f\n        /* \"#utility.yul\":3994:4001   */\n      not\n        /* \"#utility.yul\":3982:3991   */\n      dup5\n        /* \"#utility.yul\":3974:3980   */\n      dup4\n        /* \"#utility.yul\":3970:3992   */\n      sub\n        /* \"#utility.yul\":3966:4002   */\n      add\n        /* \"#utility.yul\":3959:3963   */\n      0x40\n        /* \"#utility.yul\":3948:3957   */\n      dup6\n        /* \"#utility.yul\":3944:3964   */\n      add\n        /* \"#utility.yul\":3937:4003   */\n      mstore\n        /* \"#utility.yul\":4020:4061   */\n      tag_310\n        /* \"#utility.yul\":4054:4060   */\n      dup3\n        /* \"#utility.yul\":4038:4052   */\n      dup3\n        /* \"#utility.yul\":4020:4061   */\n      tag_271\n      jump\t// in\n    tag_310:\n        /* \"#utility.yul\":4012:4061   */\n      swap6\n        /* \"#utility.yul\":3532:4067   */\n      swap5\n      pop\n      pop\n      pop\n      pop\n      pop\n      jump\t// out\n        /* \"#utility.yul\":4072:4406   */\n    tag_53:\n        /* \"#utility.yul\":4149:4155   */\n      0x00\n        /* \"#utility.yul\":4157:4163   */\n      dup1\n        /* \"#utility.yul\":4165:4171   */\n      0x00\n        /* \"#utility.yul\":4218:4220   */\n      0x60\n        /* \"#utility.yul\":4206:4215   */\n      dup5\n        /* \"#utility.yul\":4197:4204   */\n      dup7\n        /* \"#utility.yul\":4193:4216   */\n      sub\n        /* \"#utility.yul\":4189:4221   */\n      slt\n        /* \"#utility.yul\":4186:4238   */\n      iszero\n      tag_312\n      jumpi\n        /* \"#utility.yul\":4234:4235   */\n      0x00\n        /* \"#utility.yul\":4231:4232   */\n      dup1\n        /* \"#utility.yul\":4224:4236   */\n      revert\n        /* \"#utility.yul\":4186:4238   */\n    tag_312:\n        /* \"#utility.yul\":4257:4286   */\n      tag_313\n        /* \"#utility.yul\":4276:4285   */\n      dup5\n        /* \"#utility.yul\":4257:4286   */\n      tag_269\n      jump\t// in\n    tag_313:\n        /* \"#utility.yul\":4247:4286   */\n      swap3\n      pop\n        /* \"#utility.yul\":4305:4343   */\n      tag_314\n        /* \"#utility.yul\":4339:4341   */\n      0x20\n        /* \"#utility.yul\":4328:4337   */\n      dup6\n        /* \"#utility.yul\":4324:4342   */\n      add\n        /* \"#utility.yul\":4305:4343   */\n      tag_269\n      jump\t// in\n    tag_314:\n        /* \"#utility.yul\":4295:4343   */\n      swap2\n      pop\n        /* \"#utility.yul\":4362:4400   */\n      tag_315\n        /* \"#utility.yul\":4396:4398   */\n      0x40\n        /* \"#utility.yul\":4385:4394   */\n      dup6\n        /* \"#utility.yul\":4381:4399   */\n      add\n        /* \"#utility.yul\":4362:4400   */\n      tag_269\n      jump\t// in\n    tag_315:\n        /* \"#utility.yul\":4352:4400   */\n      swap1\n      pop\n        /* \"#utility.yul\":4072:4406   */\n      swap3\n      pop\n      swap3\n      pop\n      swap3\n      jump\t// out\n        /* \"#utility.yul\":4593:4813   */\n    tag_68:\n        /* \"#utility.yul\":4742:4744   */\n      0x20\n        /* \"#utility.yul\":4731:4740   */\n      dup2\n        /* \"#utility.yul\":4724:4745   */\n      mstore\n        /* \"#utility.yul\":4705:4709   */\n      0x00\n        /* \"#utility.yul\":4762:4807   */\n      tag_285\n        /* \"#utility.yul\":4803:4805   */\n      0x20\n        /* \"#utility.yul\":4792:4801   */\n      dup4\n        /* \"#utility.yul\":4788:4806   */\n      add\n        /* \"#utility.yul\":4780:4786   */\n      dup5\n        /* \"#utility.yul\":4762:4807   */\n      tag_271\n      jump\t// in\n        /* \"#utility.yul\":4818:5066   */\n    tag_74:\n        /* \"#utility.yul\":4886:4892   */\n      0x00\n        /* \"#utility.yul\":4894:4900   */\n      dup1\n        /* \"#utility.yul\":4947:4949   */\n      0x40\n        /* \"#utility.yul\":4935:4944   */\n      dup4\n        /* \"#utility.yul\":4926:4933   */\n      dup6\n        /* \"#utility.yul\":4922:4945   */\n      sub\n        /* \"#utility.yul\":4918:4950   */\n      slt\n        /* \"#utility.yul\":4915:4967   */\n      iszero\n      tag_320\n      jumpi\n        /* \"#utility.yul\":4963:4964   */\n      0x00\n        /* \"#utility.yul\":4960:4961   */\n      dup1\n        /* \"#utility.yul\":4953:4965   */\n      revert\n        /* \"#utility.yul\":4915:4967   */\n    tag_320:\n      pop\n      pop\n        /* \"#utility.yul\":4986:5009   */\n      dup1\n      calldataload\n      swap3\n        /* \"#utility.yul\":5056:5058   */\n      0x20\n        /* \"#utility.yul\":5041:5059   */\n      swap1\n      swap2\n      add\n        /* \"#utility.yul\":5028:5060   */\n      calldataload\n      swap2\n      pop\n        /* \"#utility.yul\":4818:5066   */\n      jump\t// out\n        /* \"#utility.yul\":5071:5198   */\n    tag_101:\n        /* \"#utility.yul\":5132:5142   */\n      0x4e487b71\n        /* \"#utility.yul\":5127:5130   */\n      0xe0\n        /* \"#utility.yul\":5123:5143   */\n      shl\n        /* \"#utility.yul\":5120:5121   */\n      0x00\n        /* \"#utility.yul\":5113:5144   */\n      mstore\n        /* \"#utility.yul\":5163:5167   */\n      0x41\n        /* \"#utility.yul\":5160:5161   */\n      0x04\n        /* \"#utility.yul\":5153:5168   */\n      mstore\n        /* \"#utility.yul\":5187:5191   */\n      0x24\n        /* \"#utility.yul\":5184:5185   */\n      0x00\n        /* \"#utility.yul\":5177:5192   */\n      revert\n        /* \"#utility.yul\":5203:5452   */\n    tag_273:\n        /* \"#utility.yul\":5313:5315   */\n      0x1f\n        /* \"#utility.yul\":5294:5307   */\n      dup3\n      add\n      not(0x1f)\n        /* \"#utility.yul\":5290:5317   */\n      and\n        /* \"#utility.yul\":5278:5318   */\n      dup2\n      add\n      sub(shl(0x40, 0x01), 0x01)\n        /* \"#utility.yul\":5333:5367   */\n      dup2\n      gt\n        /* \"#utility.yul\":5369:5391   */\n      dup3\n      dup3\n      lt\n        /* \"#utility.yul\":5330:5392   */\n      or\n        /* \"#utility.yul\":5327:5415   */\n      iszero\n      tag_324\n      jumpi\n        /* \"#utility.yul\":5395:5413   */\n      tag_324\n      tag_101\n      jump\t// in\n    tag_324:\n        /* \"#utility.yul\":5431:5433   */\n      0x40\n        /* \"#utility.yul\":5424:5446   */\n      mstore\n      pop\n      pop\n        /* \"#utility.yul\":5203:5452   */\n      jump\t// out\n        /* \"#utility.yul\":5457:6013   */\n    tag_274:\n        /* \"#utility.yul\":5500:5505   */\n      0x00\n        /* \"#utility.yul\":5553:5556   */\n      dup3\n        /* \"#utility.yul\":5546:5550   */\n      0x1f\n        /* \"#utility.yul\":5538:5544   */\n      dup4\n        /* \"#utility.yul\":5534:5551   */\n      add\n        /* \"#utility.yul\":5530:5557   */\n      slt\n        /* \"#utility.yul\":5520:5575   */\n      tag_326\n      jumpi\n        /* \"#utility.yul\":5571:5572   */\n      0x00\n        /* \"#utility.yul\":5568:5569   */\n      dup1\n        /* \"#utility.yul\":5561:5573   */\n      revert\n        /* \"#utility.yul\":5520:5575   */\n    tag_326:\n        /* \"#utility.yul\":5594:5614   */\n      dup2\n      calldataload\n      sub(shl(0x40, 0x01), 0x01)\n        /* \"#utility.yul\":5626:5652   */\n      dup2\n      gt\n        /* \"#utility.yul\":5623:5675   */\n      iszero\n      tag_328\n      jumpi\n        /* \"#utility.yul\":5655:5673   */\n      tag_328\n      tag_101\n      jump\t// in\n    tag_328:\n        /* \"#utility.yul\":5704:5706   */\n      0x40\n        /* \"#utility.yul\":5698:5707   */\n      mload\n        /* \"#utility.yul\":5716:5783   */\n      tag_329\n        /* \"#utility.yul\":5771:5773   */\n      0x1f\n        /* \"#utility.yul\":5752:5765   */\n      dup4\n      add\n      not(0x1f)\n        /* \"#utility.yul\":5748:5775   */\n      and\n        /* \"#utility.yul\":5777:5781   */\n      0x20\n        /* \"#utility.yul\":5744:5782   */\n      add\n        /* \"#utility.yul\":5698:5707   */\n      dup3\n        /* \"#utility.yul\":5716:5783   */\n      tag_273\n      jump\t// in\n    tag_329:\n        /* \"#utility.yul\":5807:5809   */\n      dup2\n        /* \"#utility.yul\":5799:5805   */\n      dup2\n        /* \"#utility.yul\":5792:5810   */\n      mstore\n        /* \"#utility.yul\":5853:5856   */\n      dup5\n        /* \"#utility.yul\":5846:5850   */\n      0x20\n        /* \"#utility.yul\":5841:5843   */\n      dup4\n        /* \"#utility.yul\":5833:5839   */\n      dup7\n        /* \"#utility.yul\":5829:5844   */\n      add\n        /* \"#utility.yul\":5825:5851   */\n      add\n        /* \"#utility.yul\":5822:5857   */\n      gt\n        /* \"#utility.yul\":5819:5874   */\n      iszero\n      tag_330\n      jumpi\n        /* \"#utility.yul\":5870:5871   */\n      0x00\n        /* \"#utility.yul\":5867:5868   */\n      dup1\n        /* \"#utility.yul\":5860:5872   */\n      revert\n        /* \"#utility.yul\":5819:5874   */\n    tag_330:\n        /* \"#utility.yul\":5934:5936   */\n      dup2\n        /* \"#utility.yul\":5927:5931   */\n      0x20\n        /* \"#utility.yul\":5919:5925   */\n      dup6\n        /* \"#utility.yul\":5915:5932   */\n      add\n        /* \"#utility.yul\":5908:5912   */\n      0x20\n        /* \"#utility.yul\":5900:5906   */\n      dup4\n        /* \"#utility.yul\":5896:5913   */\n      add\n        /* \"#utility.yul\":5883:5937   */\n      calldatacopy\n        /* \"#utility.yul\":5981:5982   */\n      0x00\n        /* \"#utility.yul\":5957:5972   */\n      swap2\n      dup2\n      add\n        /* \"#utility.yul\":5974:5978   */\n      0x20\n        /* \"#utility.yul\":5953:5979   */\n      add\n        /* \"#utility.yul\":5946:5983   */\n      swap2\n      swap1\n      swap2\n      mstore\n        /* \"#utility.yul\":5961:5967   */\n      swap4\n        /* \"#utility.yul\":5457:6013   */\n      swap3\n      pop\n      pop\n      pop\n      jump\t// out\n        /* \"#utility.yul\":6018:6189   */\n    tag_275:\n        /* \"#utility.yul\":6085:6105   */\n      dup1\n      calldataload\n      sub(shl(0x40, 0x01), 0x01)\n        /* \"#utility.yul\":6134:6164   */\n      dup2\n      and\n        /* \"#utility.yul\":6124:6165   */\n      dup2\n      eq\n        /* \"#utility.yul\":6114:6183   */\n      tag_137\n      jumpi\n        /* \"#utility.yul\":6179:6180   */\n      0x00\n        /* \"#utility.yul\":6176:6177   */\n      dup1\n        /* \"#utility.yul\":6169:6181   */\n      revert\n        /* \"#utility.yul\":6194:7855   */\n    tag_79:\n        /* \"#utility.yul\":6343:6349   */\n      0x00\n        /* \"#utility.yul\":6351:6357   */\n      dup1\n        /* \"#utility.yul\":6359:6365   */\n      0x00\n        /* \"#utility.yul\":6367:6373   */\n      dup1\n        /* \"#utility.yul\":6375:6381   */\n      0x00\n        /* \"#utility.yul\":6428:6431   */\n      0xa0\n        /* \"#utility.yul\":6416:6425   */\n      dup7\n        /* \"#utility.yul\":6407:6414   */\n      dup9\n        /* \"#utility.yul\":6403:6426   */\n      sub\n        /* \"#utility.yul\":6399:6432   */\n      slt\n        /* \"#utility.yul\":6396:6449   */\n      iszero\n      tag_334\n      jumpi\n        /* \"#utility.yul\":6445:6446   */\n      0x00\n        /* \"#utility.yul\":6442:6443   */\n      dup1\n        /* \"#utility.yul\":6435:6447   */\n      revert\n        /* \"#utility.yul\":6396:6449   */\n    tag_334:\n        /* \"#utility.yul\":6472:6495   */\n      dup6\n      calldataload\n      sub(shl(0x40, 0x01), 0x01)\n        /* \"#utility.yul\":6544:6558   */\n      dup1\n      dup3\n      gt\n        /* \"#utility.yul\":6541:6575   */\n      iszero\n      tag_335\n      jumpi\n        /* \"#utility.yul\":6571:6572   */\n      0x00\n        /* \"#utility.yul\":6568:6569   */\n      dup1\n        /* \"#utility.yul\":6561:6573   */\n      revert\n        /* \"#utility.yul\":6541:6575   */\n    tag_335:\n        /* \"#utility.yul\":6594:6644   */\n      tag_336\n        /* \"#utility.yul\":6636:6643   */\n      dup10\n        /* \"#utility.yul\":6627:6633   */\n      dup4\n        /* \"#utility.yul\":6616:6625   */\n      dup11\n        /* \"#utility.yul\":6612:6634   */\n      add\n        /* \"#utility.yul\":6594:6644   */\n      tag_274\n      jump\t// in\n    tag_336:\n        /* \"#utility.yul\":6584:6644   */\n      swap7\n      pop\n        /* \"#utility.yul\":6663:6665   */\n      0x20\n        /* \"#utility.yul\":6653:6665   */\n      swap2\n      pop\n        /* \"#utility.yul\":6718:6720   */\n      dup2\n        /* \"#utility.yul\":6707:6716   */\n      dup9\n        /* \"#utility.yul\":6703:6721   */\n      add\n        /* \"#utility.yul\":6690:6722   */\n      calldataload\n        /* \"#utility.yul\":6747:6749   */\n      dup2\n        /* \"#utility.yul\":6737:6745   */\n      dup2\n        /* \"#utility.yul\":6734:6750   */\n      gt\n        /* \"#utility.yul\":6731:6767   */\n      iszero\n      tag_337\n      jumpi\n        /* \"#utility.yul\":6763:6764   */\n      0x00\n        /* \"#utility.yul\":6760:6761   */\n      dup1\n        /* \"#utility.yul\":6753:6765   */\n      revert\n        /* \"#utility.yul\":6731:6767   */\n    tag_337:\n        /* \"#utility.yul\":6786:6838   */\n      tag_338\n        /* \"#utility.yul\":6830:6837   */\n      dup11\n        /* \"#utility.yul\":6819:6827   */\n      dup3\n        /* \"#utility.yul\":6808:6817   */\n      dup12\n        /* \"#utility.yul\":6804:6828   */\n      add\n        /* \"#utility.yul\":6786:6838   */\n      tag_274\n      jump\t// in\n    tag_338:\n        /* \"#utility.yul\":6776:6838   */\n      swap7\n      pop\n      pop\n        /* \"#utility.yul\":6891:6893   */\n      0x40\n        /* \"#utility.yul\":6880:6889   */\n      dup9\n        /* \"#utility.yul\":6876:6894   */\n      add\n        /* \"#utility.yul\":6863:6895   */\n      calldataload\n        /* \"#utility.yul\":6920:6922   */\n      dup2\n        /* \"#utility.yul\":6910:6918   */\n      dup2\n        /* \"#utility.yul\":6907:6923   */\n      gt\n        /* \"#utility.yul\":6904:6940   */\n      iszero\n      tag_339\n      jumpi\n        /* \"#utility.yul\":6936:6937   */\n      0x00\n        /* \"#utility.yul\":6933:6934   */\n      dup1\n        /* \"#utility.yul\":6926:6938   */\n      revert\n        /* \"#utility.yul\":6904:6940   */\n    tag_339:\n        /* \"#utility.yul\":6959:7011   */\n      tag_340\n        /* \"#utility.yul\":7003:7010   */\n      dup11\n        /* \"#utility.yul\":6992:7000   */\n      dup3\n        /* \"#utility.yul\":6981:6990   */\n      dup12\n        /* \"#utility.yul\":6977:7001   */\n      add\n        /* \"#utility.yul\":6959:7011   */\n      tag_274\n      jump\t// in\n    tag_340:\n        /* \"#utility.yul\":6949:7011   */\n      swap6\n      pop\n      pop\n        /* \"#utility.yul\":7064:7066   */\n      0x60\n        /* \"#utility.yul\":7053:7062   */\n      dup9\n        /* \"#utility.yul\":7049:7067   */\n      add\n        /* \"#utility.yul\":7036:7068   */\n      calldataload\n        /* \"#utility.yul\":7093:7095   */\n      dup2\n        /* \"#utility.yul\":7083:7091   */\n      dup2\n        /* \"#utility.yul\":7080:7096   */\n      gt\n        /* \"#utility.yul\":7077:7113   */\n      iszero\n      tag_341\n      jumpi\n        /* \"#utility.yul\":7109:7110   */\n      0x00\n        /* \"#utility.yul\":7106:7107   */\n      dup1\n        /* \"#utility.yul\":7099:7111   */\n      revert\n        /* \"#utility.yul\":7077:7113   */\n    tag_341:\n        /* \"#utility.yul\":7132:7156   */\n      dup9\n      add\n        /* \"#utility.yul\":7187:7191   */\n      0x1f\n        /* \"#utility.yul\":7179:7192   */\n      dup2\n      add\n        /* \"#utility.yul\":7175:7202   */\n      dup11\n      sgt\n        /* \"#utility.yul\":7165:7220   */\n      tag_342\n      jumpi\n        /* \"#utility.yul\":7216:7217   */\n      0x00\n        /* \"#utility.yul\":7213:7214   */\n      dup1\n        /* \"#utility.yul\":7206:7218   */\n      revert\n        /* \"#utility.yul\":7165:7220   */\n    tag_342:\n        /* \"#utility.yul\":7252:7254   */\n      dup1\n        /* \"#utility.yul\":7239:7255   */\n      calldataload\n        /* \"#utility.yul\":7274:7276   */\n      dup3\n        /* \"#utility.yul\":7270:7272   */\n      dup2\n        /* \"#utility.yul\":7267:7277   */\n      gt\n        /* \"#utility.yul\":7264:7300   */\n      iszero\n      tag_344\n      jumpi\n        /* \"#utility.yul\":7280:7298   */\n      tag_344\n      tag_101\n      jump\t// in\n    tag_344:\n        /* \"#utility.yul\":7326:7328   */\n      dup1\n        /* \"#utility.yul\":7323:7324   */\n      0x05\n        /* \"#utility.yul\":7319:7329   */\n      shl\n        /* \"#utility.yul\":7309:7329   */\n      swap3\n      pop\n        /* \"#utility.yul\":7358:7360   */\n      0x40\n        /* \"#utility.yul\":7352:7361   */\n      mload\n        /* \"#utility.yul\":7370:7410   */\n      tag_345\n        /* \"#utility.yul\":7406:7408   */\n      dup6\n        /* \"#utility.yul\":7402:7404   */\n      dup6\n        /* \"#utility.yul\":7398:7409   */\n      add\n        /* \"#utility.yul\":7390:7396   */\n      dup3\n        /* \"#utility.yul\":7370:7410   */\n      tag_273\n      jump\t// in\n    tag_345:\n        /* \"#utility.yul\":7445:7463   */\n      dup2\n      dup2\n      mstore\n        /* \"#utility.yul\":7521:7532   */\n      swap3\n      dup3\n      add\n        /* \"#utility.yul\":7517:7537   */\n      dup5\n      add\n      swap3\n        /* \"#utility.yul\":7479:7494   */\n      dup5\n      dup2\n      add\n        /* \"#utility.yul\":7549:7568   */\n      dup13\n      dup6\n      gt\n        /* \"#utility.yul\":7546:7585   */\n      iszero\n      tag_346\n      jumpi\n        /* \"#utility.yul\":7581:7582   */\n      0x00\n        /* \"#utility.yul\":7578:7579   */\n      dup1\n        /* \"#utility.yul\":7571:7583   */\n      revert\n        /* \"#utility.yul\":7546:7585   */\n    tag_346:\n        /* \"#utility.yul\":7605:7616   */\n      swap3\n      dup6\n      add\n      swap3\n        /* \"#utility.yul\":7625:7767   */\n    tag_347:\n        /* \"#utility.yul\":7641:7647   */\n      dup5\n        /* \"#utility.yul\":7636:7639   */\n      dup5\n        /* \"#utility.yul\":7633:7648   */\n      lt\n        /* \"#utility.yul\":7625:7767   */\n      iszero\n      tag_349\n      jumpi\n        /* \"#utility.yul\":7707:7724   */\n      dup4\n      calldataload\n        /* \"#utility.yul\":7695:7725   */\n      dup2\n      mstore\n        /* \"#utility.yul\":7658:7670   */\n      swap3\n      dup6\n      add\n      swap3\n        /* \"#utility.yul\":7745:7757   */\n      dup6\n      add\n        /* \"#utility.yul\":7625:7767   */\n      jump(tag_347)\n    tag_349:\n        /* \"#utility.yul\":7629:7632   */\n      pop\n        /* \"#utility.yul\":7786:7792   */\n      dup1\n        /* \"#utility.yul\":7776:7792   */\n      swap7\n      pop\n      pop\n      pop\n      pop\n      pop\n      pop\n        /* \"#utility.yul\":7811:7849   */\n      tag_350\n        /* \"#utility.yul\":7844:7847   */\n      0x80\n        /* \"#utility.yul\":7833:7842   */\n      dup8\n        /* \"#utility.yul\":7829:7848   */\n      add\n        /* \"#utility.yul\":7811:7849   */\n      tag_275\n      jump\t// in\n    tag_350:\n        /* \"#utility.yul\":7801:7849   */\n      swap1\n      pop\n        /* \"#utility.yul\":6194:7855   */\n      swap3\n      swap6\n      pop\n      swap3\n      swap6\n      swap1\n      swap4\n      pop\n      jump\t// out\n        /* \"#utility.yul\":7860:8194   */\n    tag_85:\n        /* \"#utility.yul\":8062:8064   */\n      0x20\n        /* \"#utility.yul\":8044:8065   */\n      dup1\n      dup3\n      mstore\n        /* \"#utility.yul\":8101:8103   */\n      0x0a\n        /* \"#utility.yul\":8081:8099   */\n      swap1\n      dup3\n      add\n        /* \"#utility.yul\":8074:8104   */\n      mstore\n      shl(0xb1, 0x37b7363c9037bbb732b9)\n        /* \"#utility.yul\":8135:8137   */\n      0x40\n        /* \"#utility.yul\":8120:8138   */\n      dup3\n      add\n        /* \"#utility.yul\":8113:8153   */\n      mstore\n        /* \"#utility.yul\":8185:8187   */\n      0x60\n        /* \"#utility.yul\":8170:8188   */\n      add\n      swap1\n        /* \"#utility.yul\":7860:8194   */\n      jump\t// out\n        /* \"#utility.yul\":8199:8596   */\n    tag_94:\n        /* \"#utility.yul\":8401:8403   */\n      0x20\n        /* \"#utility.yul\":8383:8404   */\n      dup1\n      dup3\n      mstore\n        /* \"#utility.yul\":8440:8442   */\n      0x21\n        /* \"#utility.yul\":8420:8438   */\n      swap1\n      dup3\n      add\n        /* \"#utility.yul\":8413:8443   */\n      mstore\n        /* \"#utility.yul\":8479:8513   */\n      0x6f6e6c7920456d61696c2053746f72616765204f776e65722063616e2063616c\n        /* \"#utility.yul\":8474:8476   */\n      0x40\n        /* \"#utility.yul\":8459:8477   */\n      dup3\n      add\n        /* \"#utility.yul\":8452:8514   */\n      mstore\n      shl(0xfa, 0x1b)\n        /* \"#utility.yul\":8545:8547   */\n      0x60\n        /* \"#utility.yul\":8530:8548   */\n      dup3\n      add\n        /* \"#utility.yul\":8523:8554   */\n      mstore\n        /* \"#utility.yul\":8586:8589   */\n      0x80\n        /* \"#utility.yul\":8571:8590   */\n      add\n      swap1\n        /* \"#utility.yul\":8199:8596   */\n      jump\t// out\n        /* \"#utility.yul\":8952:9332   */\n    tag_110:\n        /* \"#utility.yul\":9031:9032   */\n      0x01\n        /* \"#utility.yul\":9027:9039   */\n      dup2\n      dup2\n      shr\n      swap1\n        /* \"#utility.yul\":9074:9086   */\n      dup3\n      and\n      dup1\n        /* \"#utility.yul\":9095:9156   */\n      tag_355\n      jumpi\n        /* \"#utility.yul\":9149:9153   */\n      0x7f\n        /* \"#utility.yul\":9141:9147   */\n      dup3\n        /* \"#utility.yul\":9137:9154   */\n      and\n        /* \"#utility.yul\":9127:9154   */\n      swap2\n      pop\n        /* \"#utility.yul\":9095:9156   */\n    tag_355:\n        /* \"#utility.yul\":9202:9204   */\n      0x20\n        /* \"#utility.yul\":9194:9200   */\n      dup3\n        /* \"#utility.yul\":9191:9205   */\n      lt\n        /* \"#utility.yul\":9171:9189   */\n      dup2\n        /* \"#utility.yul\":9168:9206   */\n      sub\n        /* \"#utility.yul\":9165:9326   */\n      tag_356\n      jumpi\n        /* \"#utility.yul\":9248:9258   */\n      0x4e487b71\n        /* \"#utility.yul\":9243:9246   */\n      0xe0\n        /* \"#utility.yul\":9239:9259   */\n      shl\n        /* \"#utility.yul\":9236:9237   */\n      0x00\n        /* \"#utility.yul\":9229:9260   */\n      mstore\n        /* \"#utility.yul\":9283:9287   */\n      0x22\n        /* \"#utility.yul\":9280:9281   */\n      0x04\n        /* \"#utility.yul\":9273:9288   */\n      mstore\n        /* \"#utility.yul\":9311:9315   */\n      0x24\n        /* \"#utility.yul\":9308:9309   */\n      0x00\n        /* \"#utility.yul\":9301:9316   */\n      revert\n        /* \"#utility.yul\":9165:9326   */\n    tag_356:\n      pop\n        /* \"#utility.yul\":8952:9332   */\n      swap2\n      swap1\n      pop\n      jump\t// out\n        /* \"#utility.yul\":9337:9464   */\n    tag_129:\n        /* \"#utility.yul\":9398:9408   */\n      0x4e487b71\n        /* \"#utility.yul\":9393:9396   */\n      0xe0\n        /* \"#utility.yul\":9389:9409   */\n      shl\n        /* \"#utility.yul\":9386:9387   */\n      0x00\n        /* \"#utility.yul\":9379:9410   */\n      mstore\n        /* \"#utility.yul\":9429:9433   */\n      0x32\n        /* \"#utility.yul\":9426:9427   */\n      0x04\n        /* \"#utility.yul\":9419:9434   */\n      mstore\n        /* \"#utility.yul\":9453:9457   */\n      0x24\n        /* \"#utility.yul\":9450:9451   */\n      0x00\n        /* \"#utility.yul\":9443:9458   */\n      revert\n        /* \"#utility.yul\":9469:9596   */\n    tag_276:\n        /* \"#utility.yul\":9530:9540   */\n      0x4e487b71\n        /* \"#utility.yul\":9525:9528   */\n      0xe0\n        /* \"#utility.yul\":9521:9541   */\n      shl\n        /* \"#utility.yul\":9518:9519   */\n      0x00\n        /* \"#utility.yul\":9511:9542   */\n      mstore\n        /* \"#utility.yul\":9561:9565   */\n      0x11\n        /* \"#utility.yul\":9558:9559   */\n      0x04\n        /* \"#utility.yul\":9551:9566   */\n      mstore\n        /* \"#utility.yul\":9585:9589   */\n      0x24\n        /* \"#utility.yul\":9582:9583   */\n      0x00\n        /* \"#utility.yul\":9575:9590   */\n      revert\n        /* \"#utility.yul\":9601:9736   */\n    tag_131:\n        /* \"#utility.yul\":9640:9643   */\n      0x00\n        /* \"#utility.yul\":9661:9678   */\n      0x01\n      dup3\n      add\n        /* \"#utility.yul\":9658:9701   */\n      tag_361\n      jumpi\n        /* \"#utility.yul\":9681:9699   */\n      tag_361\n      tag_276\n      jump\t// in\n    tag_361:\n      pop\n        /* \"#utility.yul\":9728:9729   */\n      0x01\n        /* \"#utility.yul\":9717:9730   */\n      add\n      swap1\n        /* \"#utility.yul\":9601:9736   */\n      jump\t// out\n        /* \"#utility.yul\":11138:11263   */\n    tag_190:\n        /* \"#utility.yul\":11203:11212   */\n      dup1\n      dup3\n      add\n        /* \"#utility.yul\":11224:11234   */\n      dup1\n      dup3\n      gt\n        /* \"#utility.yul\":11221:11257   */\n      iszero\n      tag_182\n      jumpi\n        /* \"#utility.yul\":11237:11255   */\n      tag_182\n      tag_276\n      jump\t// in\n        /* \"#utility.yul\":11268:11396   */\n    tag_193:\n        /* \"#utility.yul\":11335:11344   */\n      dup2\n      dup2\n      sub\n        /* \"#utility.yul\":11356:11367   */\n      dup2\n      dup2\n      gt\n        /* \"#utility.yul\":11353:11390   */\n      iszero\n      tag_182\n      jumpi\n        /* \"#utility.yul\":11370:11388   */\n      tag_182\n      tag_276\n      jump\t// in\n        /* \"#utility.yul\":11877:12422   */\n    tag_278:\n        /* \"#utility.yul\":11979:11981   */\n      0x1f\n        /* \"#utility.yul\":11974:11977   */\n      dup3\n        /* \"#utility.yul\":11971:11982   */\n      gt\n        /* \"#utility.yul\":11968:12416   */\n      iszero\n      tag_375\n      jumpi\n        /* \"#utility.yul\":12015:12016   */\n      0x00\n        /* \"#utility.yul\":12040:12045   */\n      dup2\n        /* \"#utility.yul\":12036:12038   */\n      dup2\n        /* \"#utility.yul\":12029:12046   */\n      mstore\n        /* \"#utility.yul\":12085:12089   */\n      0x20\n        /* \"#utility.yul\":12081:12083   */\n      dup2\n        /* \"#utility.yul\":12071:12090   */\n      keccak256\n        /* \"#utility.yul\":12155:12157   */\n      0x1f\n        /* \"#utility.yul\":12143:12153   */\n      dup6\n        /* \"#utility.yul\":12139:12158   */\n      add\n        /* \"#utility.yul\":12136:12137   */\n      0x05\n        /* \"#utility.yul\":12132:12159   */\n      shr\n        /* \"#utility.yul\":12126:12130   */\n      dup2\n        /* \"#utility.yul\":12122:12160   */\n      add\n        /* \"#utility.yul\":12191:12195   */\n      0x20\n        /* \"#utility.yul\":12179:12189   */\n      dup7\n        /* \"#utility.yul\":12176:12196   */\n      lt\n        /* \"#utility.yul\":12173:12220   */\n      iszero\n      tag_376\n      jumpi\n      pop\n        /* \"#utility.yul\":12214:12218   */\n      dup1\n        /* \"#utility.yul\":12173:12220   */\n    tag_376:\n        /* \"#utility.yul\":12269:12271   */\n      0x1f\n        /* \"#utility.yul\":12264:12267   */\n      dup6\n        /* \"#utility.yul\":12260:12272   */\n      add\n        /* \"#utility.yul\":12257:12258   */\n      0x05\n        /* \"#utility.yul\":12253:12273   */\n      shr\n        /* \"#utility.yul\":12247:12251   */\n      dup3\n        /* \"#utility.yul\":12243:12274   */\n      add\n        /* \"#utility.yul\":12233:12274   */\n      swap2\n      pop\n        /* \"#utility.yul\":12324:12406   */\n    tag_377:\n        /* \"#utility.yul\":12342:12344   */\n      dup2\n        /* \"#utility.yul\":12335:12340   */\n      dup2\n        /* \"#utility.yul\":12332:12345   */\n      lt\n        /* \"#utility.yul\":12324:12406   */\n      iszero\n      tag_379\n      jumpi\n        /* \"#utility.yul\":12387:12404   */\n      dup3\n      dup2\n      sstore\n        /* \"#utility.yul\":12368:12369   */\n      0x01\n        /* \"#utility.yul\":12357:12370   */\n      add\n        /* \"#utility.yul\":12324:12406   */\n      jump(tag_377)\n    tag_379:\n        /* \"#utility.yul\":12328:12331   */\n      pop\n      pop\n      pop\n        /* \"#utility.yul\":11968:12416   */\n    tag_375:\n        /* \"#utility.yul\":11877:12422   */\n      pop\n      pop\n      pop\n      jump\t// out\n        /* \"#utility.yul\":12598:13950   */\n    tag_229:\n        /* \"#utility.yul\":12718:12728   */\n      dup2\n      mload\n      sub(shl(0x40, 0x01), 0x01)\n        /* \"#utility.yul\":12740:12770   */\n      dup2\n      gt\n        /* \"#utility.yul\":12737:12793   */\n      iszero\n      tag_383\n      jumpi\n        /* \"#utility.yul\":12773:12791   */\n      tag_383\n      tag_101\n      jump\t// in\n    tag_383:\n        /* \"#utility.yul\":12802:12899   */\n      tag_384\n        /* \"#utility.yul\":12892:12898   */\n      dup2\n        /* \"#utility.yul\":12852:12890   */\n      tag_385\n        /* \"#utility.yul\":12884:12888   */\n      dup5\n        /* \"#utility.yul\":12878:12889   */\n      sload\n        /* \"#utility.yul\":12852:12890   */\n      tag_110\n      jump\t// in\n    tag_385:\n        /* \"#utility.yul\":12846:12850   */\n      dup5\n        /* \"#utility.yul\":12802:12899   */\n      tag_278\n      jump\t// in\n    tag_384:\n        /* \"#utility.yul\":12954:12958   */\n      0x20\n      dup1\n        /* \"#utility.yul\":13018:13020   */\n      0x1f\n        /* \"#utility.yul\":13007:13021   */\n      dup4\n      gt\n        /* \"#utility.yul\":13035:13036   */\n      0x01\n        /* \"#utility.yul\":13030:13693   */\n      dup2\n      eq\n      tag_387\n      jumpi\n        /* \"#utility.yul\":13737:13738   */\n      0x00\n        /* \"#utility.yul\":13754:13760   */\n      dup5\n        /* \"#utility.yul\":13751:13840   */\n      iszero\n      tag_388\n      jumpi\n      pop\n        /* \"#utility.yul\":13806:13825   */\n      dup6\n      dup4\n      add\n        /* \"#utility.yul\":13800:13826   */\n      mload\n        /* \"#utility.yul\":13751:13840   */\n    tag_388:\n      not(0x00)\n        /* \"#utility.yul\":12555:12556   */\n      0x03\n        /* \"#utility.yul\":12551:12562   */\n      dup7\n      swap1\n      shl\n        /* \"#utility.yul\":12547:12571   */\n      shr\n        /* \"#utility.yul\":12543:12572   */\n      not\n        /* \"#utility.yul\":12533:12573   */\n      and\n        /* \"#utility.yul\":12579:12580   */\n      0x01\n        /* \"#utility.yul\":12575:12586   */\n      dup6\n      swap1\n      shl\n        /* \"#utility.yul\":12530:12587   */\n      or\n        /* \"#utility.yul\":13853:13934   */\n      dup6\n      sstore\n        /* \"#utility.yul\":13000:13944   */\n      jump(tag_379)\n        /* \"#utility.yul\":13030:13693   */\n    tag_387:\n        /* \"#utility.yul\":11824:11825   */\n      0x00\n        /* \"#utility.yul\":11817:11831   */\n      dup6\n      dup2\n      mstore\n        /* \"#utility.yul\":11861:11865   */\n      0x20\n        /* \"#utility.yul\":11848:11866   */\n      dup2\n      keccak256\n      not(0x1f)\n        /* \"#utility.yul\":13066:13086   */\n      dup7\n      and\n      swap2\n        /* \"#utility.yul\":13184:13420   */\n    tag_391:\n        /* \"#utility.yul\":13198:13205   */\n      dup3\n        /* \"#utility.yul\":13195:13196   */\n      dup2\n        /* \"#utility.yul\":13192:13206   */\n      lt\n        /* \"#utility.yul\":13184:13420   */\n      iszero\n      tag_393\n      jumpi\n        /* \"#utility.yul\":13287:13306   */\n      dup9\n      dup7\n      add\n        /* \"#utility.yul\":13281:13307   */\n      mload\n        /* \"#utility.yul\":13266:13308   */\n      dup3\n      sstore\n        /* \"#utility.yul\":13379:13406   */\n      swap5\n      dup5\n      add\n      swap5\n        /* \"#utility.yul\":13347:13348   */\n      0x01\n        /* \"#utility.yul\":13335:13349   */\n      swap1\n      swap2\n      add\n      swap1\n        /* \"#utility.yul\":13214:13233   */\n      dup5\n      add\n        /* \"#utility.yul\":13184:13420   */\n      jump(tag_391)\n    tag_393:\n        /* \"#utility.yul\":13188:13191   */\n      pop\n        /* \"#utility.yul\":13448:13454   */\n      dup6\n        /* \"#utility.yul\":13439:13446   */\n      dup3\n        /* \"#utility.yul\":13436:13455   */\n      lt\n        /* \"#utility.yul\":13433:13634   */\n      iszero\n      tag_394\n      jumpi\n        /* \"#utility.yul\":13509:13528   */\n      dup8\n      dup6\n      add\n        /* \"#utility.yul\":13503:13529   */\n      mload\n      not(0x00)\n        /* \"#utility.yul\":13592:13593   */\n      0x03\n        /* \"#utility.yul\":13588:13602   */\n      dup9\n      swap1\n      shl\n        /* \"#utility.yul\":13604:13607   */\n      0xf8\n        /* \"#utility.yul\":13584:13608   */\n      and\n        /* \"#utility.yul\":13580:13617   */\n      shr\n        /* \"#utility.yul\":13576:13618   */\n      not\n        /* \"#utility.yul\":13561:13619   */\n      and\n        /* \"#utility.yul\":13546:13620   */\n      dup2\n      sstore\n        /* \"#utility.yul\":13433:13634   */\n    tag_394:\n      pop\n      pop\n      pop\n      pop\n      pop\n        /* \"#utility.yul\":13680:13681   */\n      0x01\n        /* \"#utility.yul\":13664:13678   */\n      swap1\n      dup2\n      shl\n        /* \"#utility.yul\":13660:13682   */\n      add\n        /* \"#utility.yul\":13647:13683   */\n      swap1\n      sstore\n      pop\n        /* \"#utility.yul\":12598:13950   */\n      jump\t// out\n        /* \"#utility.yul\":13955:14244   */\n    tag_241:\n        /* \"#utility.yul\":14086:14089   */\n      0x00\n        /* \"#utility.yul\":14124:14130   */\n      dup3\n        /* \"#utility.yul\":14118:14131   */\n      mload\n        /* \"#utility.yul\":14140:14206   */\n      tag_396\n        /* \"#utility.yul\":14199:14205   */\n      dup2\n        /* \"#utility.yul\":14194:14197   */\n      dup5\n        /* \"#utility.yul\":14187:14191   */\n      0x20\n        /* \"#utility.yul\":14179:14185   */\n      dup8\n        /* \"#utility.yul\":14175:14192   */\n      add\n        /* \"#utility.yul\":14140:14206   */\n      tag_270\n      jump\t// in\n    tag_396:\n        /* \"#utility.yul\":14222:14238   */\n      swap2\n      swap1\n      swap2\n      add\n      swap3\n        /* \"#utility.yul\":13955:14244   */\n      swap2\n      pop\n      pop\n      jump\t// out\n        /* \"#utility.yul\":14249:14540   */\n    tag_243:\n        /* \"#utility.yul\":14426:14432   */\n      dup3\n        /* \"#utility.yul\":14415:14424   */\n      dup2\n        /* \"#utility.yul\":14408:14433   */\n      mstore\n        /* \"#utility.yul\":14469:14471   */\n      0x40\n        /* \"#utility.yul\":14464:14466   */\n      0x20\n        /* \"#utility.yul\":14453:14462   */\n      dup3\n        /* \"#utility.yul\":14449:14467   */\n      add\n        /* \"#utility.yul\":14442:14472   */\n      mstore\n        /* \"#utility.yul\":14389:14393   */\n      0x00\n        /* \"#utility.yul\":14489:14534   */\n      tag_398\n        /* \"#utility.yul\":14530:14532   */\n      0x40\n        /* \"#utility.yul\":14519:14528   */\n      dup4\n        /* \"#utility.yul\":14515:14533   */\n      add\n        /* \"#utility.yul\":14507:14513   */\n      dup5\n        /* \"#utility.yul\":14489:14534   */\n      tag_271\n      jump\t// in\n    tag_398:\n        /* \"#utility.yul\":14481:14534   */\n      swap5\n        /* \"#utility.yul\":14249:14540   */\n      swap4\n      pop\n      pop\n      pop\n      pop\n      jump\t// out\n        /* \"#utility.yul\":14545:15178   */\n    tag_248:\n        /* \"#utility.yul\":14756:14758   */\n      0x40\n        /* \"#utility.yul\":14745:14754   */\n      dup2\n        /* \"#utility.yul\":14738:14759   */\n      mstore\n        /* \"#utility.yul\":14719:14723   */\n      0x00\n        /* \"#utility.yul\":14794:14800   */\n      dup4\n        /* \"#utility.yul\":14788:14801   */\n      mload\n        /* \"#utility.yul\":14837:14839   */\n      0x40\n        /* \"#utility.yul\":14832:14834   */\n      dup1\n        /* \"#utility.yul\":14821:14830   */\n      dup5\n        /* \"#utility.yul\":14817:14835   */\n      add\n        /* \"#utility.yul\":14810:14840   */\n      mstore\n        /* \"#utility.yul\":14863:14915   */\n      tag_400\n        /* \"#utility.yul\":14910:14913   */\n      0x80\n        /* \"#utility.yul\":14899:14908   */\n      dup5\n        /* \"#utility.yul\":14895:14914   */\n      add\n        /* \"#utility.yul\":14881:14893   */\n      dup3\n        /* \"#utility.yul\":14863:14915   */\n      tag_271\n      jump\t// in\n    tag_400:\n        /* \"#utility.yul\":14849:14915   */\n      swap1\n      pop\n        /* \"#utility.yul\":14964:14968   */\n      0x20\n        /* \"#utility.yul\":14956:14962   */\n      dup6\n        /* \"#utility.yul\":14952:14969   */\n      add\n        /* \"#utility.yul\":14946:14970   */\n      mload\n        /* \"#utility.yul\":15038:15040   */\n      0x3f\n        /* \"#utility.yul\":15034:15041   */\n      not\n        /* \"#utility.yul\":15022:15031   */\n      dup5\n        /* \"#utility.yul\":15014:15020   */\n      dup4\n        /* \"#utility.yul\":15010:15032   */\n      sub\n        /* \"#utility.yul\":15006:15042   */\n      add\n        /* \"#utility.yul\":15001:15003   */\n      0x60\n        /* \"#utility.yul\":14990:14999   */\n      dup6\n        /* \"#utility.yul\":14986:15004   */\n      add\n        /* \"#utility.yul\":14979:15043   */\n      mstore\n        /* \"#utility.yul\":15060:15101   */\n      tag_401\n        /* \"#utility.yul\":15094:15100   */\n      dup3\n        /* \"#utility.yul\":15078:15092   */\n      dup3\n        /* \"#utility.yul\":15060:15101   */\n      tag_271\n      jump\t// in\n    tag_401:\n        /* \"#utility.yul\":15052:15101   */\n      swap3\n      pop\n      pop\n      pop\n        /* \"#utility.yul\":15168:15169   */\n      0x01\n        /* \"#utility.yul\":15164:15165   */\n      dup1\n        /* \"#utility.yul\":15159:15162   */\n      0xa0\n        /* \"#utility.yul\":15155:15166   */\n      shl\n        /* \"#utility.yul\":15151:15170   */\n      sub\n        /* \"#utility.yul\":15143:15149   */\n      dup4\n        /* \"#utility.yul\":15139:15171   */\n      and\n        /* \"#utility.yul\":15132:15136   */\n      0x20\n        /* \"#utility.yul\":15121:15130   */\n      dup4\n        /* \"#utility.yul\":15117:15137   */\n      add\n        /* \"#utility.yul\":15110:15172   */\n      mstore\n        /* \"#utility.yul\":14545:15178   */\n      swap4\n      swap3\n      pop\n      pop\n      pop\n      jump\t// out\n        /* \"#utility.yul\":15183:15460   */\n    tag_251:\n        /* \"#utility.yul\":15250:15256   */\n      0x00\n        /* \"#utility.yul\":15303:15305   */\n      0x20\n        /* \"#utility.yul\":15291:15300   */\n      dup3\n        /* \"#utility.yul\":15282:15289   */\n      dup5\n        /* \"#utility.yul\":15278:15301   */\n      sub\n        /* \"#utility.yul\":15274:15306   */\n      slt\n        /* \"#utility.yul\":15271:15323   */\n      iszero\n      tag_403\n      jumpi\n        /* \"#utility.yul\":15319:15320   */\n      0x00\n        /* \"#utility.yul\":15316:15317   */\n      dup1\n        /* \"#utility.yul\":15309:15321   */\n      revert\n        /* \"#utility.yul\":15271:15323   */\n    tag_403:\n        /* \"#utility.yul\":15351:15360   */\n      dup2\n        /* \"#utility.yul\":15345:15361   */\n      mload\n        /* \"#utility.yul\":15404:15409   */\n      dup1\n        /* \"#utility.yul\":15397:15410   */\n      iszero\n        /* \"#utility.yul\":15390:15411   */\n      iszero\n        /* \"#utility.yul\":15383:15388   */\n      dup2\n        /* \"#utility.yul\":15380:15412   */\n      eq\n        /* \"#utility.yul\":15370:15430   */\n      tag_285\n      jumpi\n        /* \"#utility.yul\":15426:15427   */\n      0x00\n        /* \"#utility.yul\":15423:15424   */\n      dup1\n        /* \"#utility.yul\":15416:15428   */\n      revert\n        /* \"#utility.yul\":15465:15644   */\n    tag_257:\n        /* \"#utility.yul\":15500:15503   */\n      0x00\n        /* \"#utility.yul\":15542:15543   */\n      0x03\n        /* \"#utility.yul\":15524:15540   */\n      returndatasize\n        /* \"#utility.yul\":15521:15544   */\n      gt\n        /* \"#utility.yul\":15518:15638   */\n      iszero\n      tag_95\n      jumpi\n        /* \"#utility.yul\":15588:15589   */\n      0x04\n        /* \"#utility.yul\":15585:15586   */\n      0x00\n        /* \"#utility.yul\":15582:15583   */\n      dup1\n        /* \"#utility.yul\":15567:15590   */\n      returndatacopy\n      pop\n        /* \"#utility.yul\":15625:15626   */\n      0x00\n        /* \"#utility.yul\":15619:15627   */\n      mload\n        /* \"#utility.yul\":15614:15617   */\n      0xe0\n        /* \"#utility.yul\":15610:15628   */\n      shr\n        /* \"#utility.yul\":15465:15644   */\n      swap1\n      jump\t// out\n        /* \"#utility.yul\":15649:16320   */\n    tag_259:\n        /* \"#utility.yul\":15688:15691   */\n      0x00\n        /* \"#utility.yul\":15730:15734   */\n      0x44\n        /* \"#utility.yul\":15712:15728   */\n      returndatasize\n        /* \"#utility.yul\":15709:15735   */\n      lt\n        /* \"#utility.yul\":15706:15745   */\n      iszero\n      tag_408\n      jumpi\n        /* \"#utility.yul\":15649:16320   */\n      swap1\n      jump\t// out\n        /* \"#utility.yul\":15706:15745   */\n    tag_408:\n        /* \"#utility.yul\":15772:15774   */\n      0x40\n        /* \"#utility.yul\":15766:15775   */\n      mload\n      not(0x03)\n        /* \"#utility.yul\":15837:15853   */\n      returndatasize\n        /* \"#utility.yul\":15833:15858   */\n      dup2\n      add\n        /* \"#utility.yul\":15830:15831   */\n      0x04\n        /* \"#utility.yul\":15766:15775   */\n      dup4\n        /* \"#utility.yul\":15809:15859   */\n      returndatacopy\n        /* \"#utility.yul\":15882:15893   */\n      dup2\n      mload\n        /* \"#utility.yul\":15912:15928   */\n      returndatasize\n      sub(shl(0x40, 0x01), 0x01)\n        /* \"#utility.yul\":15980:15994   */\n      dup1\n      dup4\n      gt\n        /* \"#utility.yul\":16011:16015   */\n      0x24\n        /* \"#utility.yul\":15999:16016   */\n      dup5\n      add\n        /* \"#utility.yul\":15996:16021   */\n      dup4\n      lt\n        /* \"#utility.yul\":15977:16022   */\n      or\n        /* \"#utility.yul\":15974:16032   */\n      iszero\n      tag_409\n      jumpi\n        /* \"#utility.yul\":16025:16030   */\n      pop\n      pop\n      pop\n      pop\n      pop\n        /* \"#utility.yul\":15649:16320   */\n      swap1\n      jump\t// out\n        /* \"#utility.yul\":15974:16032   */\n    tag_409:\n        /* \"#utility.yul\":16062:16068   */\n      dup3\n        /* \"#utility.yul\":16056:16060   */\n      dup6\n        /* \"#utility.yul\":16052:16069   */\n      add\n        /* \"#utility.yul\":16041:16069   */\n      swap2\n      pop\n        /* \"#utility.yul\":16098:16101   */\n      dup2\n        /* \"#utility.yul\":16092:16102   */\n      mload\n        /* \"#utility.yul\":16125:16127   */\n      dup2\n        /* \"#utility.yul\":16117:16123   */\n      dup2\n        /* \"#utility.yul\":16114:16128   */\n      gt\n        /* \"#utility.yul\":16111:16138   */\n      iszero\n      tag_410\n      jumpi\n        /* \"#utility.yul\":16131:16136   */\n      pop\n      pop\n      pop\n      pop\n      pop\n      pop\n        /* \"#utility.yul\":15649:16320   */\n      swap1\n      jump\t// out\n        /* \"#utility.yul\":16111:16138   */\n    tag_410:\n        /* \"#utility.yul\":16215:16217   */\n      dup5\n        /* \"#utility.yul\":16196:16212   */\n      returndatasize\n        /* \"#utility.yul\":16190:16194   */\n      dup8\n        /* \"#utility.yul\":16186:16213   */\n      add\n        /* \"#utility.yul\":16182:16218   */\n      add\n        /* \"#utility.yul\":16175:16179   */\n      0x20\n        /* \"#utility.yul\":16166:16172   */\n      dup3\n        /* \"#utility.yul\":16161:16164   */\n      dup6\n        /* \"#utility.yul\":16157:16173   */\n      add\n        /* \"#utility.yul\":16153:16180   */\n      add\n        /* \"#utility.yul\":16150:16219   */\n      gt\n        /* \"#utility.yul\":16147:16229   */\n      iszero\n      tag_411\n      jumpi\n        /* \"#utility.yul\":16222:16227   */\n      pop\n      pop\n      pop\n      pop\n      pop\n      pop\n        /* \"#utility.yul\":15649:16320   */\n      swap1\n      jump\t// out\n        /* \"#utility.yul\":16147:16229   */\n    tag_411:\n        /* \"#utility.yul\":16238:16295   */\n      tag_412\n        /* \"#utility.yul\":16289:16293   */\n      0x20\n        /* \"#utility.yul\":16280:16286   */\n      dup3\n        /* \"#utility.yul\":16272:16278   */\n      dup7\n        /* \"#utility.yul\":16268:16287   */\n      add\n        /* \"#utility.yul\":16264:16294   */\n      add\n        /* \"#utility.yul\":16258:16262   */\n      dup8\n        /* \"#utility.yul\":16238:16295   */\n      tag_273\n      jump\t// in\n    tag_412:\n      pop\n        /* \"#utility.yul\":16311:16314   */\n      swap1\n      swap6\n        /* \"#utility.yul\":15649:16320   */\n      swap5\n      pop\n      pop\n      pop\n      pop\n      pop\n      jump\t// out\n    stop\n    data_1655200990760dd971b785a256dda7ea9772b9dbb0f03561b75cbcc9b47170ae f02169154244d3db80e8ce9737610df8db8de5d3344f5e8f3b4b916c4fd8f422\n\n    auxdata: 0xa26469706673582212202ae08832c8817055887cfb3d1a4ac9f571ce12f6c7ce2a464f72fb062f0d2c7a64736f6c63430008130033\n}\n",
				"bytecode": {
					"linkReferences": {},
					"object": "60c060405260046080908152631350525360e21b60a052600690620000259082620000d1565b506200019d565b634e487b7160e01b600052604160045260246000fd5b600181811c908216806200005757607f821691505b6020821081036200007857634e487b7160e01b600052602260045260246000fd5b50919050565b601f821115620000cc57600081815260208120601f850160051c81016020861015620000a75750805b601f850160051c820191505b81811015620000c857828155600101620000b3565b5050505b505050565b81516001600160401b03811115620000ed57620000ed6200002c565b6200010581620000fe845462000042565b846200007e565b602080601f8311600181146200013d5760008415620001245750858301515b600019600386901b1c1916600185901b178555620000c8565b600085815260208120601f198616915b828110156200016e578886015182559484019460019091019084016200014d565b50858210156200018d5787850151600019600388901b60f8161c191681555b5050505050600190811b01905550565b611b5f80620001ad6000396000f3fe608060405234801561001057600080fd5b50600436106100d05760003560e01c80631f8864ac146100d55780632f54bf6e146100ea578063472c540c1461012257806356f9f8851461013557806381fd552f1461016057806393cb189014610173578063972fe8bc14610188578063bf8bdac1146101a8578063c0c53b8b146101bb578063c47964ea146101ce578063d0006777146101e1578063d598d4c9146101f8578063d9231a0f1461020b578063df9ef75314610220578063e6c3a06314610233578063ffb45e1914610246575b600080fd5b6100e86100e336600461135d565b610259565b005b61010d6100f836600461135d565b60056020526000908152604090205460ff1681565b60405190151581526020015b60405180910390f35b6100e861013036600461135d565b6102b3565b600454610148906001600160a01b031681565b6040516001600160a01b039091168152602001610119565b600354610148906001600160a01b031681565b61017b610304565b604051610119919061147a565b61019b6101963660046114dc565b610669565b60405161011991906114f5565b6100e86101b636600461135d565b610a1a565b6100e86101c9366004611537565b610a6b565b600154610148906001600160a01b031681565b6101ea60075481565b604051908152602001610119565b600254610148906001600160a01b031681565b610213610b24565b604051610119919061157a565b6100e861022e36600461135d565b610bb2565b61017b61024136600461158d565b610c03565b6101ea61025436600461167b565b610fb3565b3360009081526005602052604090205460ff166102915760405162461bcd60e51b81526004016102889061179d565b60405180910390fd5b600380546001600160a01b0319166001600160a01b0392909216919091179055565b3360009081526005602052604090205460ff166102e25760405162461bcd60e51b81526004016102889061179d565b600480546001600160a01b0319166001600160a01b0392909216919091179055565b6003546060906001600160a01b031633146103315760405162461bcd60e51b8152600401610288906117c1565b60006007541161037c5760405162461bcd60e51b81526020600482015260166024820152751d1a195c99481a5cc81b9bdd08185b9e48195b585a5b60521b6044820152606401610288565b60006007546001600160401b03811115610398576103986115af565b6040519080825280602002602001820160405280156103d157816020015b6103be6112e4565b8152602001906001900390816103b65790505b50905060005b6007548110156106625760008181526020819052604090819020815160c0810190925280548290829061040990611802565b80601f016020809104026020016040519081016040528092919081815260200182805461043590611802565b80156104825780601f1061045757610100808354040283529160200191610482565b820191906000526020600020905b81548152906001019060200180831161046557829003601f168201915b5050505050815260200160018201805461049b90611802565b80601f01602080910402602001604051908101604052809291908181526020018280546104c790611802565b80156105145780601f106104e957610100808354040283529160200191610514565b820191906000526020600020905b8154815290600101906020018083116104f757829003601f168201915b505050918352505060028201546001600160401b038116602080840191909152600160401b90910460ff16604080840191909152600384018054825181850281018501909352808352606090940193919290919083018282801561059757602002820191906000526020600020905b815481526020019060010190808311610583575b505050505081526020016004820180546105b090611802565b80601f01602080910402602001604051908101604052809291908181526020018280546105dc90611802565b80156106295780601f106105fe57610100808354040283529160200191610629565b820191906000526020600020905b81548152906001019060200180831161060c57829003601f168201915b5050505050815250508282815181106106445761064461183c565b6020026020010181905250808061065a90611868565b9150506103d7565b5090505b90565b610671611326565b6003546001600160a01b0316331461069b5760405162461bcd60e51b8152600401610288906117c1565b6007548211156106e45760405162461bcd60e51b8152602060048201526014602482015273115b585a5b08191bd95cc81b9bdd08195e1a5cdd60621b6044820152606401610288565b600082815260208190526040812060028101549091600160401b90910460ff1690036107205760028101805460ff60401b1916600160401b1790555b600083815260208190526040908190208151610100810183528154909283919082019083908290829061075290611802565b80601f016020809104026020016040519081016040528092919081815260200182805461077e90611802565b80156107cb5780601f106107a0576101008083540402835291602001916107cb565b820191906000526020600020905b8154815290600101906020018083116107ae57829003601f168201915b505050505081526020016001820180546107e490611802565b80601f016020809104026020016040519081016040528092919081815260200182805461081090611802565b801561085d5780601f106108325761010080835404028352916020019161085d565b820191906000526020600020905b81548152906001019060200180831161084057829003601f168201915b505050918352505060028201546001600160401b038116602080840191909152600160401b90910460ff1660408084019190915260038401805482518185028101850190935280835260609094019391929091908301828280156108e057602002820191906000526020600020905b8154815260200190600101908083116108cc575b505050505081526020016004820180546108f990611802565b80601f016020809104026020016040519081016040528092919081815260200182805461092590611802565b80156109725780601f1061094757610100808354040283529160200191610972565b820191906000526020600020905b81548152906001019060200180831161095557829003601f168201915b505050505081525050815260200160058201805461098f90611802565b80601f01602080910402602001604051908101604052809291908181526020018280546109bb90611802565b8015610a085780601f106109dd57610100808354040283529160200191610a08565b820191906000526020600020905b8154815290600101906020018083116109eb57829003601f168201915b5050505050815250509150505b919050565b3360009081526005602052604090205460ff16610a495760405162461bcd60e51b81526004016102889061179d565b600280546001600160a01b0319166001600160a01b0392909216919091179055565b6003546001600160a01b031615610aba5760405162461bcd60e51b8152602060048201526013602482015272105b1c9958591e481a5b9a5d1a585b1a5e9959606a1b6044820152606401610288565b600380546001600160a01b03199081166001600160a01b03958616908117909255600280548216948616949094179093556001805490931691909316178155600091825260056020526040808320805460ff19908116841790915533845292208054909216179055565b60068054610b3190611802565b80601f0160208091040260200160405190810160405280929190818152602001828054610b5d90611802565b8015610baa5780601f10610b7f57610100808354040283529160200191610baa565b820191906000526020600020905b815481529060010190602001808311610b8d57829003601f168201915b505050505081565b3360009081526005602052604090205460ff16610be15760405162461bcd60e51b81526004016102889061179d565b600180546001600160a01b0319166001600160a01b0392909216919091179055565b60606007548310610c515760405162461bcd60e51b8152602060048201526018602482015277537461727420696e646578206f7574206f662072616e676560401b6044820152606401610288565b60148210610c965760405162461bcd60e51b8152602060048201526012602482015271436f756e74206f7574206f662072616e676560701b6044820152606401610288565b6000610ca28385611881565b9050600754811115610cb357506007545b6000610cbf8583611894565b6001600160401b03811115610cd657610cd66115af565b604051908082528060200260200182016040528015610d0f57816020015b610cfc6112e4565b815260200190600190039081610cf45790505b509050845b82811015610fa85760008181526020819052604090819020815160c08101909252805482908290610d4490611802565b80601f0160208091040260200160405190810160405280929190818152602001828054610d7090611802565b8015610dbd5780601f10610d9257610100808354040283529160200191610dbd565b820191906000526020600020905b815481529060010190602001808311610da057829003601f168201915b50505050508152602001600182018054610dd690611802565b80601f0160208091040260200160405190810160405280929190818152602001828054610e0290611802565b8015610e4f5780601f10610e2457610100808354040283529160200191610e4f565b820191906000526020600020905b815481529060010190602001808311610e3257829003601f168201915b505050918352505060028201546001600160401b038116602080840191909152600160401b90910460ff166040808401919091526003840180548251818502810185019093528083526060909401939192909190830182828015610ed257602002820191906000526020600020905b815481526020019060010190808311610ebe575b50505050508152602001600482018054610eeb90611802565b80601f0160208091040260200160405190810160405280929190818152602001828054610f1790611802565b8015610f645780601f10610f3957610100808354040283529160200191610f64565b820191906000526020600020905b815481529060010190602001808311610f4757829003601f168201915b505050505081525050828783610f7a9190611894565b81518110610f8a57610f8a61183c565b60200260200101819052508080610fa090611868565b915050610d14565b509150505b92915050565b6002546000906001600160a01b031633146110085760405162461bcd60e51b81526020600482015260156024820152741bdb9b1e481cd95c9d9a58d94818d85b8818d85b1b605a1b6044820152606401610288565b60075460009081526020819052604090208061102487826118f6565b506001810161103388826118f6565b506005810161104286826118f6565b506002810180546001600160401b0319166001600160401b03851617905560005b84518110156110b657816000016003018582815181106110855761108561183c565b60209081029190910181015182546001810184556000938452919092200155806110ae81611868565b915050611063565b50600780549060006110c783611868565b9190505550866040516110da91906119b5565b60405180910390207f8ae5a1e1c537ffec7f7fd763f2308750bf96dcc204486d50272999253e2bc5ee600754886040516111159291906119d1565b60405180910390a26001546001600160a01b0316156112ca576040805180820182526060808252602080830191825283518085018552600e81526d13595d185b9bd9194b515b585a5b60921b918101919091528252889052600154600354925163fe47726160e01b815291926001600160a01b039182169263fe477261926111a49286929116906004016119f2565b6020604051808303816000875af19250505080156111df575060408051601f3d908101601f191682019092526111dc91810190611a43565b60015b6112c6576111eb611a65565b806308c379a00361123557506111ff611a80565b8061120a5750611237565b600080516020611b0a83398151915281604051611227919061157a565b60405180910390a1506112c8565b505b3d808015611261576040519150601f19603f3d011682016040523d82523d6000602084013e611266565b606091505b50600080516020611b0a8339815191526040516112279060208082526029908201527f4e6f74696669636174696f6e206661696c65642064756520746f20756e6b6e6f6040820152683bb71032b93937b91760b91b606082015260800190565b505b505b60016007546112d99190611894565b979650505050505050565b6040518060c00160405280606081526020016060815260200160006001600160401b03168152602001600060ff16815260200160608152602001606081525090565b60405180604001604052806113396112e4565b8152602001606081525090565b80356001600160a01b0381168114610a1557600080fd5b60006020828403121561136f57600080fd5b61137882611346565b9392505050565b60005b8381101561139a578181015183820152602001611382565b50506000910152565b600081518084526113bb81602086016020860161137f565b601f01601f19169290920160200192915050565b6000815160c084526113e460c08501826113a3565b9050602080840151858303828701526113fd83826113a3565b6040868101516001600160401b03169088015260608087015160ff1690880152608080870151888303918901919091528051808352908401945060009250908301905b808310156114605784518252938301936001929092019190830190611440565b5060a0860151935086810360a08801526112d981856113a3565b6000602080830181845280855180835260408601915060408160051b870101925083870160005b828110156114cf57603f198886030184526114bd8583516113cf565b945092850192908501906001016114a1565b5092979650505050505050565b6000602082840312156114ee57600080fd5b5035919050565b60208152600082516040602084015261151160608401826113cf565b90506020840151601f1984830301604085015261152e82826113a3565b95945050505050565b60008060006060848603121561154c57600080fd5b61155584611346565b925061156360208501611346565b915061157160408501611346565b90509250925092565b60208152600061137860208301846113a3565b600080604083850312156115a057600080fd5b50508035926020909101359150565b634e487b7160e01b600052604160045260246000fd5b601f8201601f191681016001600160401b03811182821017156115ea576115ea6115af565b6040525050565b600082601f83011261160257600080fd5b81356001600160401b0381111561161b5761161b6115af565b604051611632601f8301601f1916602001826115c5565b81815284602083860101111561164757600080fd5b816020850160208301376000918101602001919091529392505050565b80356001600160401b0381168114610a1557600080fd5b600080600080600060a0868803121561169357600080fd5b85356001600160401b03808211156116aa57600080fd5b6116b689838a016115f1565b96506020915081880135818111156116cd57600080fd5b6116d98a828b016115f1565b9650506040880135818111156116ee57600080fd5b6116fa8a828b016115f1565b95505060608801358181111561170f57600080fd5b8801601f81018a1361172057600080fd5b803582811115611732576117326115af565b8060051b9250604051611747858501826115c5565b8181529282018401928481018c85111561176057600080fd5b928501925b8484101561177c5783358152928501928501611765565b50809650505050505061179160808701611664565b90509295509295909350565b6020808252600a908201526937b7363c9037bbb732b960b11b604082015260600190565b60208082526021908201527f6f6e6c7920456d61696c2053746f72616765204f776e65722063616e2063616c6040820152601b60fa1b606082015260800190565b600181811c9082168061181657607f821691505b60208210810361183657634e487b7160e01b600052602260045260246000fd5b50919050565b634e487b7160e01b600052603260045260246000fd5b634e487b7160e01b600052601160045260246000fd5b60006001820161187a5761187a611852565b5060010190565b80820180821115610fad57610fad611852565b81810381811115610fad57610fad611852565b601f8211156118f157600081815260208120601f850160051c810160208610156118ce5750805b601f850160051c820191505b818110156118ed578281556001016118da565b5050505b505050565b81516001600160401b0381111561190f5761190f6115af565b6119238161191d8454611802565b846118a7565b602080601f83116001811461195857600084156119405750858301515b600019600386901b1c1916600185901b1785556118ed565b600085815260208120601f198616915b8281101561198757888601518255948401946001909101908401611968565b50858210156119a55787850151600019600388901b60f8161c191681555b5050505050600190811b01905550565b600082516119c781846020870161137f565b9190910192915050565b8281526040602082015260006119ea60408301846113a3565b949350505050565b6040815260008351604080840152611a0d60808401826113a3565b90506020850151603f19848303016060850152611a2a82826113a3565b9250505060018060a01b03831660208301529392505050565b600060208284031215611a5557600080fd5b8151801515811461137857600080fd5b600060033d11156106665760046000803e5060005160e01c90565b600060443d1015611a8e5790565b6040516003193d81016004833e81513d6001600160401b038083116024840183101715611abd57505050505090565b8285019150815181811115611ad55750505050505090565b843d8701016020828501011115611aef5750505050505090565b611afe602082860101876115c5565b50909594505050505056fef02169154244d3db80e8ce9737610df8db8de5d3344f5e8f3b4b916c4fd8f422a26469706673582212202ae08832c8817055887cfb3d1a4ac9f571ce12f6c7ce2a464f72fb062f0d2c7a64736f6c63430008130033",
					"opcodes": "PUSH1 0xC0 PUSH1 0x40 MSTORE PUSH1 0x4 PUSH1 0x80 SWAP1 DUP2 MSTORE PUSH4 0x13505253 PUSH1 0xE2 SHL PUSH1 0xA0 MSTORE PUSH1 0x6 SWAP1 PUSH3 0x25 SWAP1 DUP3 PUSH3 0xD1 JUMP JUMPDEST POP PUSH3 0x19D JUMP JUMPDEST PUSH4 0x4E487B71 PUSH1 0xE0 SHL PUSH1 0x0 MSTORE PUSH1 0x41 PUSH1 0x4 MSTORE PUSH1 0x24 PUSH1 0x0 REVERT JUMPDEST PUSH1 0x1 DUP2 DUP2 SHR SWAP1 DUP3 AND DUP1 PUSH3 0x57 JUMPI PUSH1 0x7F DUP3 AND SWAP2 POP JUMPDEST PUSH1 0x20 DUP3 LT DUP2 SUB PUSH3 0x78 JUMPI PUSH4 0x4E487B71 PUSH1 0xE0 SHL PUSH1 0x0 MSTORE PUSH1 0x22 PUSH1 0x4 MSTORE PUSH1 0x24 PUSH1 0x0 REVERT JUMPDEST POP SWAP2 SWAP1 POP JUMP JUMPDEST PUSH1 0x1F DUP3 GT ISZERO PUSH3 0xCC JUMPI PUSH1 0x0 DUP2 DUP2 MSTORE PUSH1 0x20 DUP2 KECCAK256 PUSH1 0x1F DUP6 ADD PUSH1 0x5 SHR DUP2 ADD PUSH1 0x20 DUP7 LT ISZERO PUSH3 0xA7 JUMPI POP DUP1 JUMPDEST PUSH1 0x1F DUP6 ADD PUSH1 0x5 SHR DUP3 ADD SWAP2 POP JUMPDEST DUP2 DUP2 LT ISZERO PUSH3 0xC8 JUMPI DUP3 DUP2 SSTORE PUSH1 0x1 ADD PUSH3 0xB3 JUMP JUMPDEST POP POP POP JUMPDEST POP POP POP JUMP JUMPDEST DUP2 MLOAD PUSH1 0x1 PUSH1 0x1 PUSH1 0x40 SHL SUB DUP2 GT ISZERO PUSH3 0xED JUMPI PUSH3 0xED PUSH3 0x2C JUMP JUMPDEST PUSH3 0x105 DUP2 PUSH3 0xFE DUP5 SLOAD PUSH3 0x42 JUMP JUMPDEST DUP5 PUSH3 0x7E JUMP JUMPDEST PUSH1 0x20 DUP1 PUSH1 0x1F DUP4 GT PUSH1 0x1 DUP2 EQ PUSH3 0x13D JUMPI PUSH1 0x0 DUP5 ISZERO PUSH3 0x124 JUMPI POP DUP6 DUP4 ADD MLOAD JUMPDEST PUSH1 0x0 NOT PUSH1 0x3 DUP7 SWAP1 SHL SHR NOT AND PUSH1 0x1 DUP6 SWAP1 SHL OR DUP6 SSTORE PUSH3 0xC8 JUMP JUMPDEST PUSH1 0x0 DUP6 DUP2 MSTORE PUSH1 0x20 DUP2 KECCAK256 PUSH1 0x1F NOT DUP7 AND SWAP2 JUMPDEST DUP3 DUP2 LT ISZERO PUSH3 0x16E JUMPI DUP9 DUP7 ADD MLOAD DUP3 SSTORE SWAP5 DUP5 ADD SWAP5 PUSH1 0x1 SWAP1 SWAP2 ADD SWAP1 DUP5 ADD PUSH3 0x14D JUMP JUMPDEST POP DUP6 DUP3 LT ISZERO PUSH3 0x18D JUMPI DUP8 DUP6 ADD MLOAD PUSH1 0x0 NOT PUSH1 0x3 DUP9 SWAP1 SHL PUSH1 0xF8 AND SHR NOT AND DUP2 SSTORE JUMPDEST POP POP POP POP POP PUSH1 0x1 SWAP1 DUP2 SHL ADD SWAP1 SSTORE POP JUMP JUMPDEST PUSH2 0x1B5F DUP1 PUSH3 0x1AD PUSH1 0x0 CODECOPY PUSH1 0x0 RETURN INVALID PUSH1 0x80 PUSH1 0x40 MSTORE CALLVALUE DUP1 ISZERO PUSH2 0x10 JUMPI PUSH1 0x0 DUP1 REVERT JUMPDEST POP PUSH1 0x4 CALLDATASIZE LT PUSH2 0xD0 JUMPI PUSH1 0x0 CALLDATALOAD PUSH1 0xE0 SHR DUP1 PUSH4 0x1F8864AC EQ PUSH2 0xD5 JUMPI DUP1 PUSH4 0x2F54BF6E EQ PUSH2 0xEA JUMPI DUP1 PUSH4 0x472C540C EQ PUSH2 0x122 JUMPI DUP1 PUSH4 0x56F9F885 EQ PUSH2 0x135 JUMPI DUP1 PUSH4 0x81FD552F EQ PUSH2 0x160 JUMPI DUP1 PUSH4 0x93CB1890 EQ PUSH2 0x173 JUMPI DUP1 PUSH4 0x972FE8BC EQ PUSH2 0x188 JUMPI DUP1 PUSH4 0xBF8BDAC1 EQ PUSH2 0x1A8 JUMPI DUP1 PUSH4 0xC0C53B8B EQ PUSH2 0x1BB JUMPI DUP1 PUSH4 0xC47964EA EQ PUSH2 0x1CE JUMPI DUP1 PUSH4 0xD0006777 EQ PUSH2 0x1E1 JUMPI DUP1 PUSH4 0xD598D4C9 EQ PUSH2 0x1F8 JUMPI DUP1 PUSH4 0xD9231A0F EQ PUSH2 0x20B JUMPI DUP1 PUSH4 0xDF9EF753 EQ PUSH2 0x220 JUMPI DUP1 PUSH4 0xE6C3A063 EQ PUSH2 0x233 JUMPI DUP1 PUSH4 0xFFB45E19 EQ PUSH2 0x246 JUMPI JUMPDEST PUSH1 0x0 DUP1 REVERT JUMPDEST PUSH2 0xE8 PUSH2 0xE3 CALLDATASIZE PUSH1 0x4 PUSH2 0x135D JUMP JUMPDEST PUSH2 0x259 JUMP JUMPDEST STOP JUMPDEST PUSH2 0x10D PUSH2 0xF8 CALLDATASIZE PUSH1 0x4 PUSH2 0x135D JUMP JUMPDEST PUSH1 0x5 PUSH1 0x20 MSTORE PUSH1 0x0 SWAP1 DUP2 MSTORE PUSH1 0x40 SWAP1 KECCAK256 SLOAD PUSH1 0xFF AND DUP2 JUMP JUMPDEST PUSH1 0x40 MLOAD SWAP1 ISZERO ISZERO DUP2 MSTORE PUSH1 0x20 ADD JUMPDEST PUSH1 0x40 MLOAD DUP1 SWAP2 SUB SWAP1 RETURN JUMPDEST PUSH2 0xE8 PUSH2 0x130 CALLDATASIZE PUSH1 0x4 PUSH2 0x135D JUMP JUMPDEST PUSH2 0x2B3 JUMP JUMPDEST PUSH1 0x4 SLOAD PUSH2 0x148 SWAP1 PUSH1 0x1 PUSH1 0x1 PUSH1 0xA0 SHL SUB AND DUP2 JUMP JUMPDEST PUSH1 0x40 MLOAD PUSH1 0x1 PUSH1 0x1 PUSH1 0xA0 SHL SUB SWAP1 SWAP2 AND DUP2 MSTORE PUSH1 0x20 ADD PUSH2 0x119 JUMP JUMPDEST PUSH1 0x3 SLOAD PUSH2 0x148 SWAP1 PUSH1 0x1 PUSH1 0x1 PUSH1 0xA0 SHL SUB AND DUP2 JUMP JUMPDEST PUSH2 0x17B PUSH2 0x304 JUMP JUMPDEST PUSH1 0x40 MLOAD PUSH2 0x119 SWAP2 SWAP1 PUSH2 0x147A JUMP JUMPDEST PUSH2 0x19B PUSH2 0x196 CALLDATASIZE PUSH1 0x4 PUSH2 0x14DC JUMP JUMPDEST PUSH2 0x669 JUMP JUMPDEST PUSH1 0x40 MLOAD PUSH2 0x119 SWAP2 SWAP1 PUSH2 0x14F5 JUMP JUMPDEST PUSH2 0xE8 PUSH2 0x1B6 CALLDATASIZE PUSH1 0x4 PUSH2 0x135D JUMP JUMPDEST PUSH2 0xA1A JUMP JUMPDEST PUSH2 0xE8 PUSH2 0x1C9 CALLDATASIZE PUSH1 0x4 PUSH2 0x1537 JUMP JUMPDEST PUSH2 0xA6B JUMP JUMPDEST PUSH1 0x1 SLOAD PUSH2 0x148 SWAP1 PUSH1 0x1 PUSH1 0x1 PUSH1 0xA0 SHL SUB AND DUP2 JUMP JUMPDEST PUSH2 0x1EA PUSH1 0x7 SLOAD DUP2 JUMP JUMPDEST PUSH1 0x40 MLOAD SWAP1 DUP2 MSTORE PUSH1 0x20 ADD PUSH2 0x119 JUMP JUMPDEST PUSH1 0x2 SLOAD PUSH2 0x148 SWAP1 PUSH1 0x1 PUSH1 0x1 PUSH1 0xA0 SHL SUB AND DUP2 JUMP JUMPDEST PUSH2 0x213 PUSH2 0xB24 JUMP JUMPDEST PUSH1 0x40 MLOAD PUSH2 0x119 SWAP2 SWAP1 PUSH2 0x157A JUMP JUMPDEST PUSH2 0xE8 PUSH2 0x22E CALLDATASIZE PUSH1 0x4 PUSH2 0x135D JUMP JUMPDEST PUSH2 0xBB2 JUMP JUMPDEST PUSH2 0x17B PUSH2 0x241 CALLDATASIZE PUSH1 0x4 PUSH2 0x158D JUMP JUMPDEST PUSH2 0xC03 JUMP JUMPDEST PUSH2 0x1EA PUSH2 0x254 CALLDATASIZE PUSH1 0x4 PUSH2 0x167B JUMP JUMPDEST PUSH2 0xFB3 JUMP JUMPDEST CALLER PUSH1 0x0 SWAP1 DUP2 MSTORE PUSH1 0x5 PUSH1 0x20 MSTORE PUSH1 0x40 SWAP1 KECCAK256 SLOAD PUSH1 0xFF AND PUSH2 0x291 JUMPI PUSH1 0x40 MLOAD PUSH3 0x461BCD PUSH1 0xE5 SHL DUP2 MSTORE PUSH1 0x4 ADD PUSH2 0x288 SWAP1 PUSH2 0x179D JUMP JUMPDEST PUSH1 0x40 MLOAD DUP1 SWAP2 SUB SWAP1 REVERT JUMPDEST PUSH1 0x3 DUP1 SLOAD PUSH1 0x1 PUSH1 0x1 PUSH1 0xA0 SHL SUB NOT AND PUSH1 0x1 PUSH1 0x1 PUSH1 0xA0 SHL SUB SWAP3 SWAP1 SWAP3 AND SWAP2 SWAP1 SWAP2 OR SWAP1 SSTORE JUMP JUMPDEST CALLER PUSH1 0x0 SWAP1 DUP2 MSTORE PUSH1 0x5 PUSH1 0x20 MSTORE PUSH1 0x40 SWAP1 KECCAK256 SLOAD PUSH1 0xFF AND PUSH2 0x2E2 JUMPI PUSH1 0x40 MLOAD PUSH3 0x461BCD PUSH1 0xE5 SHL DUP2 MSTORE PUSH1 0x4 ADD PUSH2 0x288 SWAP1 PUSH2 0x179D JUMP JUMPDEST PUSH1 0x4 DUP1 SLOAD PUSH1 0x1 PUSH1 0x1 PUSH1 0xA0 SHL SUB NOT AND PUSH1 0x1 PUSH1 0x1 PUSH1 0xA0 SHL SUB SWAP3 SWAP1 SWAP3 AND SWAP2 SWAP1 SWAP2 OR SWAP1 SSTORE JUMP JUMPDEST PUSH1 0x3 SLOAD PUSH1 0x60 SWAP1 PUSH1 0x1 PUSH1 0x1 PUSH1 0xA0 SHL SUB AND CALLER EQ PUSH2 0x331 JUMPI PUSH1 0x40 MLOAD PUSH3 0x461BCD PUSH1 0xE5 SHL DUP2 MSTORE PUSH1 0x4 ADD PUSH2 0x288 SWAP1 PUSH2 0x17C1 JUMP JUMPDEST PUSH1 0x0 PUSH1 0x7 SLOAD GT PUSH2 0x37C JUMPI PUSH1 0x40 MLOAD PUSH3 0x461BCD PUSH1 0xE5 SHL DUP2 MSTORE PUSH1 0x20 PUSH1 0x4 DUP3 ADD MSTORE PUSH1 0x16 PUSH1 0x24 DUP3 ADD MSTORE PUSH22 0x1D1A195C99481A5CC81B9BDD08185B9E48195B585A5B PUSH1 0x52 SHL PUSH1 0x44 DUP3 ADD MSTORE PUSH1 0x64 ADD PUSH2 0x288 JUMP JUMPDEST PUSH1 0x0 PUSH1 0x7 SLOAD PUSH1 0x1 PUSH1 0x1 PUSH1 0x40 SHL SUB DUP2 GT ISZERO PUSH2 0x398 JUMPI PUSH2 0x398 PUSH2 0x15AF JUMP JUMPDEST PUSH1 0x40 MLOAD SWAP1 DUP1 DUP3 MSTORE DUP1 PUSH1 0x20 MUL PUSH1 0x20 ADD DUP3 ADD PUSH1 0x40 MSTORE DUP1 ISZERO PUSH2 0x3D1 JUMPI DUP2 PUSH1 0x20 ADD JUMPDEST PUSH2 0x3BE PUSH2 0x12E4 JUMP JUMPDEST DUP2 MSTORE PUSH1 0x20 ADD SWAP1 PUSH1 0x1 SWAP1 SUB SWAP1 DUP2 PUSH2 0x3B6 JUMPI SWAP1 POP JUMPDEST POP SWAP1 POP PUSH1 0x0 JUMPDEST PUSH1 0x7 SLOAD DUP2 LT ISZERO PUSH2 0x662 JUMPI PUSH1 0x0 DUP2 DUP2 MSTORE PUSH1 0x20 DUP2 SWAP1 MSTORE PUSH1 0x40 SWAP1 DUP2 SWAP1 KECCAK256 DUP2 MLOAD PUSH1 0xC0 DUP2 ADD SWAP1 SWAP3 MSTORE DUP1 SLOAD DUP3 SWAP1 DUP3 SWAP1 PUSH2 0x409 SWAP1 PUSH2 0x1802 JUMP JUMPDEST DUP1 PUSH1 0x1F ADD PUSH1 0x20 DUP1 SWAP2 DIV MUL PUSH1 0x20 ADD PUSH1 0x40 MLOAD SWAP1 DUP2 ADD PUSH1 0x40 MSTORE DUP1 SWAP3 SWAP2 SWAP1 DUP2 DUP2 MSTORE PUSH1 0x20 ADD DUP3 DUP1 SLOAD PUSH2 0x435 SWAP1 PUSH2 0x1802 JUMP JUMPDEST DUP1 ISZERO PUSH2 0x482 JUMPI DUP1 PUSH1 0x1F LT PUSH2 0x457 JUMPI PUSH2 0x100 DUP1 DUP4 SLOAD DIV MUL DUP4 MSTORE SWAP2 PUSH1 0x20 ADD SWAP2 PUSH2 0x482 JUMP JUMPDEST DUP3 ADD SWAP2 SWAP1 PUSH1 0x0 MSTORE PUSH1 0x20 PUSH1 0x0 KECCAK256 SWAP1 JUMPDEST DUP2 SLOAD DUP2 MSTORE SWAP1 PUSH1 0x1 ADD SWAP1 PUSH1 0x20 ADD DUP1 DUP4 GT PUSH2 0x465 JUMPI DUP3 SWAP1 SUB PUSH1 0x1F AND DUP3 ADD SWAP2 JUMPDEST POP POP POP POP POP DUP2 MSTORE PUSH1 0x20 ADD PUSH1 0x1 DUP3 ADD DUP1 SLOAD PUSH2 0x49B SWAP1 PUSH2 0x1802 JUMP JUMPDEST DUP1 PUSH1 0x1F ADD PUSH1 0x20 DUP1 SWAP2 DIV MUL PUSH1 0x20 ADD PUSH1 0x40 MLOAD SWAP1 DUP2 ADD PUSH1 0x40 MSTORE DUP1 SWAP3 SWAP2 SWAP1 DUP2 DUP2 MSTORE PUSH1 0x20 ADD DUP3 DUP1 SLOAD PUSH2 0x4C7 SWAP1 PUSH2 0x1802 JUMP JUMPDEST DUP1 ISZERO PUSH2 0x514 JUMPI DUP1 PUSH1 0x1F LT PUSH2 0x4E9 JUMPI PUSH2 0x100 DUP1 DUP4 SLOAD DIV MUL DUP4 MSTORE SWAP2 PUSH1 0x20 ADD SWAP2 PUSH2 0x514 JUMP JUMPDEST DUP3 ADD SWAP2 SWAP1 PUSH1 0x0 MSTORE PUSH1 0x20 PUSH1 0x0 KECCAK256 SWAP1 JUMPDEST DUP2 SLOAD DUP2 MSTORE SWAP1 PUSH1 0x1 ADD SWAP1 PUSH1 0x20 ADD DUP1 DUP4 GT PUSH2 0x4F7 JUMPI DUP3 SWAP1 SUB PUSH1 0x1F AND DUP3 ADD SWAP2 JUMPDEST POP POP POP SWAP2 DUP4 MSTORE POP POP PUSH1 0x2 DUP3 ADD SLOAD PUSH1 0x1 PUSH1 0x1 PUSH1 0x40 SHL SUB DUP2 AND PUSH1 0x20 DUP1 DUP5 ADD SWAP2 SWAP1 SWAP2 MSTORE PUSH1 0x1 PUSH1 0x40 SHL SWAP1 SWAP2 DIV PUSH1 0xFF AND PUSH1 0x40 DUP1 DUP5 ADD SWAP2 SWAP1 SWAP2 MSTORE PUSH1 0x3 DUP5 ADD DUP1 SLOAD DUP3 MLOAD DUP2 DUP6 MUL DUP2 ADD DUP6 ADD SWAP1 SWAP4 MSTORE DUP1 DUP4 MSTORE PUSH1 0x60 SWAP1 SWAP5 ADD SWAP4 SWAP2 SWAP3 SWAP1 SWAP2 SWAP1 DUP4 ADD DUP3 DUP3 DUP1 ISZERO PUSH2 0x597 JUMPI PUSH1 0x20 MUL DUP3 ADD SWAP2 SWAP1 PUSH1 0x0 MSTORE PUSH1 0x20 PUSH1 0x0 KECCAK256 SWAP1 JUMPDEST DUP2 SLOAD DUP2 MSTORE PUSH1 0x20 ADD SWAP1 PUSH1 0x1 ADD SWAP1 DUP1 DUP4 GT PUSH2 0x583 JUMPI JUMPDEST POP POP POP POP POP DUP2 MSTORE PUSH1 0x20 ADD PUSH1 0x4 DUP3 ADD DUP1 SLOAD PUSH2 0x5B0 SWAP1 PUSH2 0x1802 JUMP JUMPDEST DUP1 PUSH1 0x1F ADD PUSH1 0x20 DUP1 SWAP2 DIV MUL PUSH1 0x20 ADD PUSH1 0x40 MLOAD SWAP1 DUP2 ADD PUSH1 0x40 MSTORE DUP1 SWAP3 SWAP2 SWAP1 DUP2 DUP2 MSTORE PUSH1 0x20 ADD DUP3 DUP1 SLOAD PUSH2 0x5DC SWAP1 PUSH2 0x1802 JUMP JUMPDEST DUP1 ISZERO PUSH2 0x629 JUMPI DUP1 PUSH1 0x1F LT PUSH2 0x5FE JUMPI PUSH2 0x100 DUP1 DUP4 SLOAD DIV MUL DUP4 MSTORE SWAP2 PUSH1 0x20 ADD SWAP2 PUSH2 0x629 JUMP JUMPDEST DUP3 ADD SWAP2 SWAP1 PUSH1 0x0 MSTORE PUSH1 0x20 PUSH1 0x0 KECCAK256 SWAP1 JUMPDEST DUP2 SLOAD DUP2 MSTORE SWAP1 PUSH1 0x1 ADD SWAP1 PUSH1 0x20 ADD DUP1 DUP4 GT PUSH2 0x60C JUMPI DUP3 SWAP1 SUB PUSH1 0x1F AND DUP3 ADD SWAP2 JUMPDEST POP POP POP POP POP DUP2 MSTORE POP POP DUP3 DUP3 DUP2 MLOAD DUP2 LT PUSH2 0x644 JUMPI PUSH2 0x644 PUSH2 0x183C JUMP JUMPDEST PUSH1 0x20 MUL PUSH1 0x20 ADD ADD DUP2 SWAP1 MSTORE POP DUP1 DUP1 PUSH2 0x65A SWAP1 PUSH2 0x1868 JUMP JUMPDEST SWAP2 POP POP PUSH2 0x3D7 JUMP JUMPDEST POP SWAP1 POP JUMPDEST SWAP1 JUMP JUMPDEST PUSH2 0x671 PUSH2 0x1326 JUMP JUMPDEST PUSH1 0x3 SLOAD PUSH1 0x1 PUSH1 0x1 PUSH1 0xA0 SHL SUB AND CALLER EQ PUSH2 0x69B JUMPI PUSH1 0x40 MLOAD PUSH3 0x461BCD PUSH1 0xE5 SHL DUP2 MSTORE PUSH1 0x4 ADD PUSH2 0x288 SWAP1 PUSH2 0x17C1 JUMP JUMPDEST PUSH1 0x7 SLOAD DUP3 GT ISZERO PUSH2 0x6E4 JUMPI PUSH1 0x40 MLOAD PUSH3 0x461BCD PUSH1 0xE5 SHL DUP2 MSTORE PUSH1 0x20 PUSH1 0x4 DUP3 ADD MSTORE PUSH1 0x14 PUSH1 0x24 DUP3 ADD MSTORE PUSH20 0x115B585A5B08191BD95CC81B9BDD08195E1A5CDD PUSH1 0x62 SHL PUSH1 0x44 DUP3 ADD MSTORE PUSH1 0x64 ADD PUSH2 0x288 JUMP JUMPDEST PUSH1 0x0 DUP3 DUP2 MSTORE PUSH1 0x20 DUP2 SWAP1 MSTORE PUSH1 0x40 DUP2 KECCAK256 PUSH1 0x2 DUP2 ADD SLOAD SWAP1 SWAP2 PUSH1 0x1 PUSH1 0x40 SHL SWAP1 SWAP2 DIV PUSH1 0xFF AND SWAP1 SUB PUSH2 0x720 JUMPI PUSH1 0x2 DUP2 ADD DUP1 SLOAD PUSH1 0xFF PUSH1 0x40 SHL NOT AND PUSH1 0x1 PUSH1 0x40 SHL OR SWAP1 SSTORE JUMPDEST PUSH1 0x0 DUP4 DUP2 MSTORE PUSH1 0x20 DUP2 SWAP1 MSTORE PUSH1 0x40 SWAP1 DUP2 SWAP1 KECCAK256 DUP2 MLOAD PUSH2 0x100 DUP2 ADD DUP4 MSTORE DUP2 SLOAD SWAP1 SWAP3 DUP4 SWAP2 SWAP1 DUP3 ADD SWAP1 DUP4 SWAP1 DUP3 SWAP1 DUP3 SWAP1 PUSH2 0x752 SWAP1 PUSH2 0x1802 JUMP JUMPDEST DUP1 PUSH1 0x1F ADD PUSH1 0x20 DUP1 SWAP2 DIV MUL PUSH1 0x20 ADD PUSH1 0x40 MLOAD SWAP1 DUP2 ADD PUSH1 0x40 MSTORE DUP1 SWAP3 SWAP2 SWAP1 DUP2 DUP2 MSTORE PUSH1 0x20 ADD DUP3 DUP1 SLOAD PUSH2 0x77E SWAP1 PUSH2 0x1802 JUMP JUMPDEST DUP1 ISZERO PUSH2 0x7CB JUMPI DUP1 PUSH1 0x1F LT PUSH2 0x7A0 JUMPI PUSH2 0x100 DUP1 DUP4 SLOAD DIV MUL DUP4 MSTORE SWAP2 PUSH1 0x20 ADD SWAP2 PUSH2 0x7CB JUMP JUMPDEST DUP3 ADD SWAP2 SWAP1 PUSH1 0x0 MSTORE PUSH1 0x20 PUSH1 0x0 KECCAK256 SWAP1 JUMPDEST DUP2 SLOAD DUP2 MSTORE SWAP1 PUSH1 0x1 ADD SWAP1 PUSH1 0x20 ADD DUP1 DUP4 GT PUSH2 0x7AE JUMPI DUP3 SWAP1 SUB PUSH1 0x1F AND DUP3 ADD SWAP2 JUMPDEST POP POP POP POP POP DUP2 MSTORE PUSH1 0x20 ADD PUSH1 0x1 DUP3 ADD DUP1 SLOAD PUSH2 0x7E4 SWAP1 PUSH2 0x1802 JUMP JUMPDEST DUP1 PUSH1 0x1F ADD PUSH1 0x20 DUP1 SWAP2 DIV MUL PUSH1 0x20 ADD PUSH1 0x40 MLOAD SWAP1 DUP2 ADD PUSH1 0x40 MSTORE DUP1 SWAP3 SWAP2 SWAP1 DUP2 DUP2 MSTORE PUSH1 0x20 ADD DUP3 DUP1 SLOAD PUSH2 0x810 SWAP1 PUSH2 0x1802 JUMP JUMPDEST DUP1 ISZERO PUSH2 0x85D JUMPI DUP1 PUSH1 0x1F LT PUSH2 0x832 JUMPI PUSH2 0x100 DUP1 DUP4 SLOAD DIV MUL DUP4 MSTORE SWAP2 PUSH1 0x20 ADD SWAP2 PUSH2 0x85D JUMP JUMPDEST DUP3 ADD SWAP2 SWAP1 PUSH1 0x0 MSTORE PUSH1 0x20 PUSH1 0x0 KECCAK256 SWAP1 JUMPDEST DUP2 SLOAD DUP2 MSTORE SWAP1 PUSH1 0x1 ADD SWAP1 PUSH1 0x20 ADD DUP1 DUP4 GT PUSH2 0x840 JUMPI DUP3 SWAP1 SUB PUSH1 0x1F AND DUP3 ADD SWAP2 JUMPDEST POP POP POP SWAP2 DUP4 MSTORE POP POP PUSH1 0x2 DUP3 ADD SLOAD PUSH1 0x1 PUSH1 0x1 PUSH1 0x40 SHL SUB DUP2 AND PUSH1 0x20 DUP1 DUP5 ADD SWAP2 SWAP1 SWAP2 MSTORE PUSH1 0x1 PUSH1 0x40 SHL SWAP1 SWAP2 DIV PUSH1 0xFF AND PUSH1 0x40 DUP1 DUP5 ADD SWAP2 SWAP1 SWAP2 MSTORE PUSH1 0x3 DUP5 ADD DUP1 SLOAD DUP3 MLOAD DUP2 DUP6 MUL DUP2 ADD DUP6 ADD SWAP1 SWAP4 MSTORE DUP1 DUP4 MSTORE PUSH1 0x60 SWAP1 SWAP5 ADD SWAP4 SWAP2 SWAP3 SWAP1 SWAP2 SWAP1 DUP4 ADD DUP3 DUP3 DUP1 ISZERO PUSH2 0x8E0 JUMPI PUSH1 0x20 MUL DUP3 ADD SWAP2 SWAP1 PUSH1 0x0 MSTORE PUSH1 0x20 PUSH1 0x0 KECCAK256 SWAP1 JUMPDEST DUP2 SLOAD DUP2 MSTORE PUSH1 0x20 ADD SWAP1 PUSH1 0x1 ADD SWAP1 DUP1 DUP4 GT PUSH2 0x8CC JUMPI JUMPDEST POP POP POP POP POP DUP2 MSTORE PUSH1 0x20 ADD PUSH1 0x4 DUP3 ADD DUP1 SLOAD PUSH2 0x8F9 SWAP1 PUSH2 0x1802 JUMP JUMPDEST DUP1 PUSH1 0x1F ADD PUSH1 0x20 DUP1 SWAP2 DIV MUL PUSH1 0x20 ADD PUSH1 0x40 MLOAD SWAP1 DUP2 ADD PUSH1 0x40 MSTORE DUP1 SWAP3 SWAP2 SWAP1 DUP2 DUP2 MSTORE PUSH1 0x20 ADD DUP3 DUP1 SLOAD PUSH2 0x925 SWAP1 PUSH2 0x1802 JUMP JUMPDEST DUP1 ISZERO PUSH2 0x972 JUMPI DUP1 PUSH1 0x1F LT PUSH2 0x947 JUMPI PUSH2 0x100 DUP1 DUP4 SLOAD DIV MUL DUP4 MSTORE SWAP2 PUSH1 0x20 ADD SWAP2 PUSH2 0x972 JUMP JUMPDEST DUP3 ADD SWAP2 SWAP1 PUSH1 0x0 MSTORE PUSH1 0x20 PUSH1 0x0 KECCAK256 SWAP1 JUMPDEST DUP2 SLOAD DUP2 MSTORE SWAP1 PUSH1 0x1 ADD SWAP1 PUSH1 0x20 ADD DUP1 DUP4 GT PUSH2 0x955 JUMPI DUP3 SWAP1 SUB PUSH1 0x1F AND DUP3 ADD SWAP2 JUMPDEST POP POP POP POP POP DUP2 MSTORE POP POP DUP2 MSTORE PUSH1 0x20 ADD PUSH1 0x5 DUP3 ADD DUP1 SLOAD PUSH2 0x98F SWAP1 PUSH2 0x1802 JUMP JUMPDEST DUP1 PUSH1 0x1F ADD PUSH1 0x20 DUP1 SWAP2 DIV MUL PUSH1 0x20 ADD PUSH1 0x40 MLOAD SWAP1 DUP2 ADD PUSH1 0x40 MSTORE DUP1 SWAP3 SWAP2 SWAP1 DUP2 DUP2 MSTORE PUSH1 0x20 ADD DUP3 DUP1 SLOAD PUSH2 0x9BB SWAP1 PUSH2 0x1802 JUMP JUMPDEST DUP1 ISZERO PUSH2 0xA08 JUMPI DUP1 PUSH1 0x1F LT PUSH2 0x9DD JUMPI PUSH2 0x100 DUP1 DUP4 SLOAD DIV MUL DUP4 MSTORE SWAP2 PUSH1 0x20 ADD SWAP2 PUSH2 0xA08 JUMP JUMPDEST DUP3 ADD SWAP2 SWAP1 PUSH1 0x0 MSTORE PUSH1 0x20 PUSH1 0x0 KECCAK256 SWAP1 JUMPDEST DUP2 SLOAD DUP2 MSTORE SWAP1 PUSH1 0x1 ADD SWAP1 PUSH1 0x20 ADD DUP1 DUP4 GT PUSH2 0x9EB JUMPI DUP3 SWAP1 SUB PUSH1 0x1F AND DUP3 ADD SWAP2 JUMPDEST POP POP POP POP POP DUP2 MSTORE POP POP SWAP2 POP POP JUMPDEST SWAP2 SWAP1 POP JUMP JUMPDEST CALLER PUSH1 0x0 SWAP1 DUP2 MSTORE PUSH1 0x5 PUSH1 0x20 MSTORE PUSH1 0x40 SWAP1 KECCAK256 SLOAD PUSH1 0xFF AND PUSH2 0xA49 JUMPI PUSH1 0x40 MLOAD PUSH3 0x461BCD PUSH1 0xE5 SHL DUP2 MSTORE PUSH1 0x4 ADD PUSH2 0x288 SWAP1 PUSH2 0x179D JUMP JUMPDEST PUSH1 0x2 DUP1 SLOAD PUSH1 0x1 PUSH1 0x1 PUSH1 0xA0 SHL SUB NOT AND PUSH1 0x1 PUSH1 0x1 PUSH1 0xA0 SHL SUB SWAP3 SWAP1 SWAP3 AND SWAP2 SWAP1 SWAP2 OR SWAP1 SSTORE JUMP JUMPDEST PUSH1 0x3 SLOAD PUSH1 0x1 PUSH1 0x1 PUSH1 0xA0 SHL SUB AND ISZERO PUSH2 0xABA JUMPI PUSH1 0x40 MLOAD PUSH3 0x461BCD PUSH1 0xE5 SHL DUP2 MSTORE PUSH1 0x20 PUSH1 0x4 DUP3 ADD MSTORE PUSH1 0x13 PUSH1 0x24 DUP3 ADD MSTORE PUSH19 0x105B1C9958591E481A5B9A5D1A585B1A5E9959 PUSH1 0x6A SHL PUSH1 0x44 DUP3 ADD MSTORE PUSH1 0x64 ADD PUSH2 0x288 JUMP JUMPDEST PUSH1 0x3 DUP1 SLOAD PUSH1 0x1 PUSH1 0x1 PUSH1 0xA0 SHL SUB NOT SWAP1 DUP2 AND PUSH1 0x1 PUSH1 0x1 PUSH1 0xA0 SHL SUB SWAP6 DUP7 AND SWAP1 DUP2 OR SWAP1 SWAP3 SSTORE PUSH1 0x2 DUP1 SLOAD DUP3 AND SWAP5 DUP7 AND SWAP5 SWAP1 SWAP5 OR SWAP1 SWAP4 SSTORE PUSH1 0x1 DUP1 SLOAD SWAP1 SWAP4 AND SWAP2 SWAP1 SWAP4 AND OR DUP2 SSTORE PUSH1 0x0 SWAP2 DUP3 MSTORE PUSH1 0x5 PUSH1 0x20 MSTORE PUSH1 0x40 DUP1 DUP4 KECCAK256 DUP1 SLOAD PUSH1 0xFF NOT SWAP1 DUP2 AND DUP5 OR SWAP1 SWAP2 SSTORE CALLER DUP5 MSTORE SWAP3 KECCAK256 DUP1 SLOAD SWAP1 SWAP3 AND OR SWAP1 SSTORE JUMP JUMPDEST PUSH1 0x6 DUP1 SLOAD PUSH2 0xB31 SWAP1 PUSH2 0x1802 JUMP JUMPDEST DUP1 PUSH1 0x1F ADD PUSH1 0x20 DUP1 SWAP2 DIV MUL PUSH1 0x20 ADD PUSH1 0x40 MLOAD SWAP1 DUP2 ADD PUSH1 0x40 MSTORE DUP1 SWAP3 SWAP2 SWAP1 DUP2 DUP2 MSTORE PUSH1 0x20 ADD DUP3 DUP1 SLOAD PUSH2 0xB5D SWAP1 PUSH2 0x1802 JUMP JUMPDEST DUP1 ISZERO PUSH2 0xBAA JUMPI DUP1 PUSH1 0x1F LT PUSH2 0xB7F JUMPI PUSH2 0x100 DUP1 DUP4 SLOAD DIV MUL DUP4 MSTORE SWAP2 PUSH1 0x20 ADD SWAP2 PUSH2 0xBAA JUMP JUMPDEST DUP3 ADD SWAP2 SWAP1 PUSH1 0x0 MSTORE PUSH1 0x20 PUSH1 0x0 KECCAK256 SWAP1 JUMPDEST DUP2 SLOAD DUP2 MSTORE SWAP1 PUSH1 0x1 ADD SWAP1 PUSH1 0x20 ADD DUP1 DUP4 GT PUSH2 0xB8D JUMPI DUP3 SWAP1 SUB PUSH1 0x1F AND DUP3 ADD SWAP2 JUMPDEST POP POP POP POP POP DUP2 JUMP JUMPDEST CALLER PUSH1 0x0 SWAP1 DUP2 MSTORE PUSH1 0x5 PUSH1 0x20 MSTORE PUSH1 0x40 SWAP1 KECCAK256 SLOAD PUSH1 0xFF AND PUSH2 0xBE1 JUMPI PUSH1 0x40 MLOAD PUSH3 0x461BCD PUSH1 0xE5 SHL DUP2 MSTORE PUSH1 0x4 ADD PUSH2 0x288 SWAP1 PUSH2 0x179D JUMP JUMPDEST PUSH1 0x1 DUP1 SLOAD PUSH1 0x1 PUSH1 0x1 PUSH1 0xA0 SHL SUB NOT AND PUSH1 0x1 PUSH1 0x1 PUSH1 0xA0 SHL SUB SWAP3 SWAP1 SWAP3 AND SWAP2 SWAP1 SWAP2 OR SWAP1 SSTORE JUMP JUMPDEST PUSH1 0x60 PUSH1 0x7 SLOAD DUP4 LT PUSH2 0xC51 JUMPI PUSH1 0x40 MLOAD PUSH3 0x461BCD PUSH1 0xE5 SHL DUP2 MSTORE PUSH1 0x20 PUSH1 0x4 DUP3 ADD MSTORE PUSH1 0x18 PUSH1 0x24 DUP3 ADD MSTORE PUSH24 0x537461727420696E646578206F7574206F662072616E6765 PUSH1 0x40 SHL PUSH1 0x44 DUP3 ADD MSTORE PUSH1 0x64 ADD PUSH2 0x288 JUMP JUMPDEST PUSH1 0x14 DUP3 LT PUSH2 0xC96 JUMPI PUSH1 0x40 MLOAD PUSH3 0x461BCD PUSH1 0xE5 SHL DUP2 MSTORE PUSH1 0x20 PUSH1 0x4 DUP3 ADD MSTORE PUSH1 0x12 PUSH1 0x24 DUP3 ADD MSTORE PUSH18 0x436F756E74206F7574206F662072616E6765 PUSH1 0x70 SHL PUSH1 0x44 DUP3 ADD MSTORE PUSH1 0x64 ADD PUSH2 0x288 JUMP JUMPDEST PUSH1 0x0 PUSH2 0xCA2 DUP4 DUP6 PUSH2 0x1881 JUMP JUMPDEST SWAP1 POP PUSH1 0x7 SLOAD DUP2 GT ISZERO PUSH2 0xCB3 JUMPI POP PUSH1 0x7 SLOAD JUMPDEST PUSH1 0x0 PUSH2 0xCBF DUP6 DUP4 PUSH2 0x1894 JUMP JUMPDEST PUSH1 0x1 PUSH1 0x1 PUSH1 0x40 SHL SUB DUP2 GT ISZERO PUSH2 0xCD6 JUMPI PUSH2 0xCD6 PUSH2 0x15AF JUMP JUMPDEST PUSH1 0x40 MLOAD SWAP1 DUP1 DUP3 MSTORE DUP1 PUSH1 0x20 MUL PUSH1 0x20 ADD DUP3 ADD PUSH1 0x40 MSTORE DUP1 ISZERO PUSH2 0xD0F JUMPI DUP2 PUSH1 0x20 ADD JUMPDEST PUSH2 0xCFC PUSH2 0x12E4 JUMP JUMPDEST DUP2 MSTORE PUSH1 0x20 ADD SWAP1 PUSH1 0x1 SWAP1 SUB SWAP1 DUP2 PUSH2 0xCF4 JUMPI SWAP1 POP JUMPDEST POP SWAP1 POP DUP5 JUMPDEST DUP3 DUP2 LT ISZERO PUSH2 0xFA8 JUMPI PUSH1 0x0 DUP2 DUP2 MSTORE PUSH1 0x20 DUP2 SWAP1 MSTORE PUSH1 0x40 SWAP1 DUP2 SWAP1 KECCAK256 DUP2 MLOAD PUSH1 0xC0 DUP2 ADD SWAP1 SWAP3 MSTORE DUP1 SLOAD DUP3 SWAP1 DUP3 SWAP1 PUSH2 0xD44 SWAP1 PUSH2 0x1802 JUMP JUMPDEST DUP1 PUSH1 0x1F ADD PUSH1 0x20 DUP1 SWAP2 DIV MUL PUSH1 0x20 ADD PUSH1 0x40 MLOAD SWAP1 DUP2 ADD PUSH1 0x40 MSTORE DUP1 SWAP3 SWAP2 SWAP1 DUP2 DUP2 MSTORE PUSH1 0x20 ADD DUP3 DUP1 SLOAD PUSH2 0xD70 SWAP1 PUSH2 0x1802 JUMP JUMPDEST DUP1 ISZERO PUSH2 0xDBD JUMPI DUP1 PUSH1 0x1F LT PUSH2 0xD92 JUMPI PUSH2 0x100 DUP1 DUP4 SLOAD DIV MUL DUP4 MSTORE SWAP2 PUSH1 0x20 ADD SWAP2 PUSH2 0xDBD JUMP JUMPDEST DUP3 ADD SWAP2 SWAP1 PUSH1 0x0 MSTORE PUSH1 0x20 PUSH1 0x0 KECCAK256 SWAP1 JUMPDEST DUP2 SLOAD DUP2 MSTORE SWAP1 PUSH1 0x1 ADD SWAP1 PUSH1 0x20 ADD DUP1 DUP4 GT PUSH2 0xDA0 JUMPI DUP3 SWAP1 SUB PUSH1 0x1F AND DUP3 ADD SWAP2 JUMPDEST POP POP POP POP POP DUP2 MSTORE PUSH1 0x20 ADD PUSH1 0x1 DUP3 ADD DUP1 SLOAD PUSH2 0xDD6 SWAP1 PUSH2 0x1802 JUMP JUMPDEST DUP1 PUSH1 0x1F ADD PUSH1 0x20 DUP1 SWAP2 DIV MUL PUSH1 0x20 ADD PUSH1 0x40 MLOAD SWAP1 DUP2 ADD PUSH1 0x40 MSTORE DUP1 SWAP3 SWAP2 SWAP1 DUP2 DUP2 MSTORE PUSH1 0x20 ADD DUP3 DUP1 SLOAD PUSH2 0xE02 SWAP1 PUSH2 0x1802 JUMP JUMPDEST DUP1 ISZERO PUSH2 0xE4F JUMPI DUP1 PUSH1 0x1F LT PUSH2 0xE24 JUMPI PUSH2 0x100 DUP1 DUP4 SLOAD DIV MUL DUP4 MSTORE SWAP2 PUSH1 0x20 ADD SWAP2 PUSH2 0xE4F JUMP JUMPDEST DUP3 ADD SWAP2 SWAP1 PUSH1 0x0 MSTORE PUSH1 0x20 PUSH1 0x0 KECCAK256 SWAP1 JUMPDEST DUP2 SLOAD DUP2 MSTORE SWAP1 PUSH1 0x1 ADD SWAP1 PUSH1 0x20 ADD DUP1 DUP4 GT PUSH2 0xE32 JUMPI DUP3 SWAP1 SUB PUSH1 0x1F AND DUP3 ADD SWAP2 JUMPDEST POP POP POP SWAP2 DUP4 MSTORE POP POP PUSH1 0x2 DUP3 ADD SLOAD PUSH1 0x1 PUSH1 0x1 PUSH1 0x40 SHL SUB DUP2 AND PUSH1 0x20 DUP1 DUP5 ADD SWAP2 SWAP1 SWAP2 MSTORE PUSH1 0x1 PUSH1 0x40 SHL SWAP1 SWAP2 DIV PUSH1 0xFF AND PUSH1 0x40 DUP1 DUP5 ADD SWAP2 SWAP1 SWAP2 MSTORE PUSH1 0x3 DUP5 ADD DUP1 SLOAD DUP3 MLOAD DUP2 DUP6 MUL DUP2 ADD DUP6 ADD SWAP1 SWAP4 MSTORE DUP1 DUP4 MSTORE PUSH1 0x60 SWAP1 SWAP5 ADD SWAP4 SWAP2 SWAP3 SWAP1 SWAP2 SWAP1 DUP4 ADD DUP3 DUP3 DUP1 ISZERO PUSH2 0xED2 JUMPI PUSH1 0x20 MUL DUP3 ADD SWAP2 SWAP1 PUSH1 0x0 MSTORE PUSH1 0x20 PUSH1 0x0 KECCAK256 SWAP1 JUMPDEST DUP2 SLOAD DUP2 MSTORE PUSH1 0x20 ADD SWAP1 PUSH1 0x1 ADD SWAP1 DUP1 DUP4 GT PUSH2 0xEBE JUMPI JUMPDEST POP POP POP POP POP DUP2 MSTORE PUSH1 0x20 ADD PUSH1 0x4 DUP3 ADD DUP1 SLOAD PUSH2 0xEEB SWAP1 PUSH2 0x1802 JUMP JUMPDEST DUP1 PUSH1 0x1F ADD PUSH1 0x20 DUP1 SWAP2 DIV MUL PUSH1 0x20 ADD PUSH1 0x40 MLOAD SWAP1 DUP2 ADD PUSH1 0x40 MSTORE DUP1 SWAP3 SWAP2 SWAP1 DUP2 DUP2 MSTORE PUSH1 0x20 ADD DUP3 DUP1 SLOAD PUSH2 0xF17 SWAP1 PUSH2 0x1802 JUMP JUMPDEST DUP1 ISZERO PUSH2 0xF64 JUMPI DUP1 PUSH1 0x1F LT PUSH2 0xF39 JUMPI PUSH2 0x100 DUP1 DUP4 SLOAD DIV MUL DUP4 MSTORE SWAP2 PUSH1 0x20 ADD SWAP2 PUSH2 0xF64 JUMP JUMPDEST DUP3 ADD SWAP2 SWAP1 PUSH1 0x0 MSTORE PUSH1 0x20 PUSH1 0x0 KECCAK256 SWAP1 JUMPDEST DUP2 SLOAD DUP2 MSTORE SWAP1 PUSH1 0x1 ADD SWAP1 PUSH1 0x20 ADD DUP1 DUP4 GT PUSH2 0xF47 JUMPI DUP3 SWAP1 SUB PUSH1 0x1F AND DUP3 ADD SWAP2 JUMPDEST POP POP POP POP POP DUP2 MSTORE POP POP DUP3 DUP8 DUP4 PUSH2 0xF7A SWAP2 SWAP1 PUSH2 0x1894 JUMP JUMPDEST DUP2 MLOAD DUP2 LT PUSH2 0xF8A JUMPI PUSH2 0xF8A PUSH2 0x183C JUMP JUMPDEST PUSH1 0x20 MUL PUSH1 0x20 ADD ADD DUP2 SWAP1 MSTORE POP DUP1 DUP1 PUSH2 0xFA0 SWAP1 PUSH2 0x1868 JUMP JUMPDEST SWAP2 POP POP PUSH2 0xD14 JUMP JUMPDEST POP SWAP2 POP POP JUMPDEST SWAP3 SWAP2 POP POP JUMP JUMPDEST PUSH1 0x2 SLOAD PUSH1 0x0 SWAP1 PUSH1 0x1 PUSH1 0x1 PUSH1 0xA0 SHL SUB AND CALLER EQ PUSH2 0x1008 JUMPI PUSH1 0x40 MLOAD PUSH3 0x461BCD PUSH1 0xE5 SHL DUP2 MSTORE PUSH1 0x20 PUSH1 0x4 DUP3 ADD MSTORE PUSH1 0x15 PUSH1 0x24 DUP3 ADD MSTORE PUSH21 0x1BDB9B1E481CD95C9D9A58D94818D85B8818D85B1B PUSH1 0x5A SHL PUSH1 0x44 DUP3 ADD MSTORE PUSH1 0x64 ADD PUSH2 0x288 JUMP JUMPDEST PUSH1 0x7 SLOAD PUSH1 0x0 SWAP1 DUP2 MSTORE PUSH1 0x20 DUP2 SWAP1 MSTORE PUSH1 0x40 SWAP1 KECCAK256 DUP1 PUSH2 0x1024 DUP8 DUP3 PUSH2 0x18F6 JUMP JUMPDEST POP PUSH1 0x1 DUP2 ADD PUSH2 0x1033 DUP9 DUP3 PUSH2 0x18F6 JUMP JUMPDEST POP PUSH1 0x5 DUP2 ADD PUSH2 0x1042 DUP7 DUP3 PUSH2 0x18F6 JUMP JUMPDEST POP PUSH1 0x2 DUP2 ADD DUP1 SLOAD PUSH1 0x1 PUSH1 0x1 PUSH1 0x40 SHL SUB NOT AND PUSH1 0x1 PUSH1 0x1 PUSH1 0x40 SHL SUB DUP6 AND OR SWAP1 SSTORE PUSH1 0x0 JUMPDEST DUP5 MLOAD DUP2 LT ISZERO PUSH2 0x10B6 JUMPI DUP2 PUSH1 0x0 ADD PUSH1 0x3 ADD DUP6 DUP3 DUP2 MLOAD DUP2 LT PUSH2 0x1085 JUMPI PUSH2 0x1085 PUSH2 0x183C JUMP JUMPDEST PUSH1 0x20 SWAP1 DUP2 MUL SWAP2 SWAP1 SWAP2 ADD DUP2 ADD MLOAD DUP3 SLOAD PUSH1 0x1 DUP2 ADD DUP5 SSTORE PUSH1 0x0 SWAP4 DUP5 MSTORE SWAP2 SWAP1 SWAP3 KECCAK256 ADD SSTORE DUP1 PUSH2 0x10AE DUP2 PUSH2 0x1868 JUMP JUMPDEST SWAP2 POP POP PUSH2 0x1063 JUMP JUMPDEST POP PUSH1 0x7 DUP1 SLOAD SWAP1 PUSH1 0x0 PUSH2 0x10C7 DUP4 PUSH2 0x1868 JUMP JUMPDEST SWAP2 SWAP1 POP SSTORE POP DUP7 PUSH1 0x40 MLOAD PUSH2 0x10DA SWAP2 SWAP1 PUSH2 0x19B5 JUMP JUMPDEST PUSH1 0x40 MLOAD DUP1 SWAP2 SUB SWAP1 KECCAK256 PUSH32 0x8AE5A1E1C537FFEC7F7FD763F2308750BF96DCC204486D50272999253E2BC5EE PUSH1 0x7 SLOAD DUP9 PUSH1 0x40 MLOAD PUSH2 0x1115 SWAP3 SWAP2 SWAP1 PUSH2 0x19D1 JUMP JUMPDEST PUSH1 0x40 MLOAD DUP1 SWAP2 SUB SWAP1 LOG2 PUSH1 0x1 SLOAD PUSH1 0x1 PUSH1 0x1 PUSH1 0xA0 SHL SUB AND ISZERO PUSH2 0x12CA JUMPI PUSH1 0x40 DUP1 MLOAD DUP1 DUP3 ADD DUP3 MSTORE PUSH1 0x60 DUP1 DUP3 MSTORE PUSH1 0x20 DUP1 DUP4 ADD SWAP2 DUP3 MSTORE DUP4 MLOAD DUP1 DUP6 ADD DUP6 MSTORE PUSH1 0xE DUP2 MSTORE PUSH14 0x13595D185B9BD9194B515B585A5B PUSH1 0x92 SHL SWAP2 DUP2 ADD SWAP2 SWAP1 SWAP2 MSTORE DUP3 MSTORE DUP9 SWAP1 MSTORE PUSH1 0x1 SLOAD PUSH1 0x3 SLOAD SWAP3 MLOAD PUSH4 0xFE477261 PUSH1 0xE0 SHL DUP2 MSTORE SWAP2 SWAP3 PUSH1 0x1 PUSH1 0x1 PUSH1 0xA0 SHL SUB SWAP2 DUP3 AND SWAP3 PUSH4 0xFE477261 SWAP3 PUSH2 0x11A4 SWAP3 DUP7 SWAP3 SWAP2 AND SWAP1 PUSH1 0x4 ADD PUSH2 0x19F2 JUMP JUMPDEST PUSH1 0x20 PUSH1 0x40 MLOAD DUP1 DUP4 SUB DUP2 PUSH1 0x0 DUP8 GAS CALL SWAP3 POP POP POP DUP1 ISZERO PUSH2 0x11DF JUMPI POP PUSH1 0x40 DUP1 MLOAD PUSH1 0x1F RETURNDATASIZE SWAP1 DUP2 ADD PUSH1 0x1F NOT AND DUP3 ADD SWAP1 SWAP3 MSTORE PUSH2 0x11DC SWAP2 DUP2 ADD SWAP1 PUSH2 0x1A43 JUMP JUMPDEST PUSH1 0x1 JUMPDEST PUSH2 0x12C6 JUMPI PUSH2 0x11EB PUSH2 0x1A65 JUMP JUMPDEST DUP1 PUSH4 0x8C379A0 SUB PUSH2 0x1235 JUMPI POP PUSH2 0x11FF PUSH2 0x1A80 JUMP JUMPDEST DUP1 PUSH2 0x120A JUMPI POP PUSH2 0x1237 JUMP JUMPDEST PUSH1 0x0 DUP1 MLOAD PUSH1 0x20 PUSH2 0x1B0A DUP4 CODECOPY DUP2 MLOAD SWAP2 MSTORE DUP2 PUSH1 0x40 MLOAD PUSH2 0x1227 SWAP2 SWAP1 PUSH2 0x157A JUMP JUMPDEST PUSH1 0x40 MLOAD DUP1 SWAP2 SUB SWAP1 LOG1 POP PUSH2 0x12C8 JUMP JUMPDEST POP JUMPDEST RETURNDATASIZE DUP1 DUP1 ISZERO PUSH2 0x1261 JUMPI PUSH1 0x40 MLOAD SWAP2 POP PUSH1 0x1F NOT PUSH1 0x3F RETURNDATASIZE ADD AND DUP3 ADD PUSH1 0x40 MSTORE RETURNDATASIZE DUP3 MSTORE RETURNDATASIZE PUSH1 0x0 PUSH1 0x20 DUP5 ADD RETURNDATACOPY PUSH2 0x1266 JUMP JUMPDEST PUSH1 0x60 SWAP2 POP JUMPDEST POP PUSH1 0x0 DUP1 MLOAD PUSH1 0x20 PUSH2 0x1B0A DUP4 CODECOPY DUP2 MLOAD SWAP2 MSTORE PUSH1 0x40 MLOAD PUSH2 0x1227 SWAP1 PUSH1 0x20 DUP1 DUP3 MSTORE PUSH1 0x29 SWAP1 DUP3 ADD MSTORE PUSH32 0x4E6F74696669636174696F6E206661696C65642064756520746F20756E6B6E6F PUSH1 0x40 DUP3 ADD MSTORE PUSH9 0x3BB71032B93937B917 PUSH1 0xB9 SHL PUSH1 0x60 DUP3 ADD MSTORE PUSH1 0x80 ADD SWAP1 JUMP JUMPDEST POP JUMPDEST POP JUMPDEST PUSH1 0x1 PUSH1 0x7 SLOAD PUSH2 0x12D9 SWAP2 SWAP1 PUSH2 0x1894 JUMP JUMPDEST SWAP8 SWAP7 POP POP POP POP POP POP POP JUMP JUMPDEST PUSH1 0x40 MLOAD DUP1 PUSH1 0xC0 ADD PUSH1 0x40 MSTORE DUP1 PUSH1 0x60 DUP2 MSTORE PUSH1 0x20 ADD PUSH1 0x60 DUP2 MSTORE PUSH1 0x20 ADD PUSH1 0x0 PUSH1 0x1 PUSH1 0x1 PUSH1 0x40 SHL SUB AND DUP2 MSTORE PUSH1 0x20 ADD PUSH1 0x0 PUSH1 0xFF AND DUP2 MSTORE PUSH1 0x20 ADD PUSH1 0x60 DUP2 MSTORE PUSH1 0x20 ADD PUSH1 0x60 DUP2 MSTORE POP SWAP1 JUMP JUMPDEST PUSH1 0x40 MLOAD DUP1 PUSH1 0x40 ADD PUSH1 0x40 MSTORE DUP1 PUSH2 0x1339 PUSH2 0x12E4 JUMP JUMPDEST DUP2 MSTORE PUSH1 0x20 ADD PUSH1 0x60 DUP2 MSTORE POP SWAP1 JUMP JUMPDEST DUP1 CALLDATALOAD PUSH1 0x1 PUSH1 0x1 PUSH1 0xA0 SHL SUB DUP2 AND DUP2 EQ PUSH2 0xA15 JUMPI PUSH1 0x0 DUP1 REVERT JUMPDEST PUSH1 0x0 PUSH1 0x20 DUP3 DUP5 SUB SLT ISZERO PUSH2 0x136F JUMPI PUSH1 0x0 DUP1 REVERT JUMPDEST PUSH2 0x1378 DUP3 PUSH2 0x1346 JUMP JUMPDEST SWAP4 SWAP3 POP POP POP JUMP JUMPDEST PUSH1 0x0 JUMPDEST DUP4 DUP2 LT ISZERO PUSH2 0x139A JUMPI DUP2 DUP2 ADD MLOAD DUP4 DUP3 ADD MSTORE PUSH1 0x20 ADD PUSH2 0x1382 JUMP JUMPDEST POP POP PUSH1 0x0 SWAP2 ADD MSTORE JUMP JUMPDEST PUSH1 0x0 DUP2 MLOAD DUP1 DUP5 MSTORE PUSH2 0x13BB DUP2 PUSH1 0x20 DUP7 ADD PUSH1 0x20 DUP7 ADD PUSH2 0x137F JUMP JUMPDEST PUSH1 0x1F ADD PUSH1 0x1F NOT AND SWAP3 SWAP1 SWAP3 ADD PUSH1 0x20 ADD SWAP3 SWAP2 POP POP JUMP JUMPDEST PUSH1 0x0 DUP2 MLOAD PUSH1 0xC0 DUP5 MSTORE PUSH2 0x13E4 PUSH1 0xC0 DUP6 ADD DUP3 PUSH2 0x13A3 JUMP JUMPDEST SWAP1 POP PUSH1 0x20 DUP1 DUP5 ADD MLOAD DUP6 DUP4 SUB DUP3 DUP8 ADD MSTORE PUSH2 0x13FD DUP4 DUP3 PUSH2 0x13A3 JUMP JUMPDEST PUSH1 0x40 DUP7 DUP2 ADD MLOAD PUSH1 0x1 PUSH1 0x1 PUSH1 0x40 SHL SUB AND SWAP1 DUP9 ADD MSTORE PUSH1 0x60 DUP1 DUP8 ADD MLOAD PUSH1 0xFF AND SWAP1 DUP9 ADD MSTORE PUSH1 0x80 DUP1 DUP8 ADD MLOAD DUP9 DUP4 SUB SWAP2 DUP10 ADD SWAP2 SWAP1 SWAP2 MSTORE DUP1 MLOAD DUP1 DUP4 MSTORE SWAP1 DUP5 ADD SWAP5 POP PUSH1 0x0 SWAP3 POP SWAP1 DUP4 ADD SWAP1 JUMPDEST DUP1 DUP4 LT ISZERO PUSH2 0x1460 JUMPI DUP5 MLOAD DUP3 MSTORE SWAP4 DUP4 ADD SWAP4 PUSH1 0x1 SWAP3 SWAP1 SWAP3 ADD SWAP2 SWAP1 DUP4 ADD SWAP1 PUSH2 0x1440 JUMP JUMPDEST POP PUSH1 0xA0 DUP7 ADD MLOAD SWAP4 POP DUP7 DUP2 SUB PUSH1 0xA0 DUP9 ADD MSTORE PUSH2 0x12D9 DUP2 DUP6 PUSH2 0x13A3 JUMP JUMPDEST PUSH1 0x0 PUSH1 0x20 DUP1 DUP4 ADD DUP2 DUP5 MSTORE DUP1 DUP6 MLOAD DUP1 DUP4 MSTORE PUSH1 0x40 DUP7 ADD SWAP2 POP PUSH1 0x40 DUP2 PUSH1 0x5 SHL DUP8 ADD ADD SWAP3 POP DUP4 DUP8 ADD PUSH1 0x0 JUMPDEST DUP3 DUP2 LT ISZERO PUSH2 0x14CF JUMPI PUSH1 0x3F NOT DUP9 DUP7 SUB ADD DUP5 MSTORE PUSH2 0x14BD DUP6 DUP4 MLOAD PUSH2 0x13CF JUMP JUMPDEST SWAP5 POP SWAP3 DUP6 ADD SWAP3 SWAP1 DUP6 ADD SWAP1 PUSH1 0x1 ADD PUSH2 0x14A1 JUMP JUMPDEST POP SWAP3 SWAP8 SWAP7 POP POP POP POP POP POP POP JUMP JUMPDEST PUSH1 0x0 PUSH1 0x20 DUP3 DUP5 SUB SLT ISZERO PUSH2 0x14EE JUMPI PUSH1 0x0 DUP1 REVERT JUMPDEST POP CALLDATALOAD SWAP2 SWAP1 POP JUMP JUMPDEST PUSH1 0x20 DUP2 MSTORE PUSH1 0x0 DUP3 MLOAD PUSH1 0x40 PUSH1 0x20 DUP5 ADD MSTORE PUSH2 0x1511 PUSH1 0x60 DUP5 ADD DUP3 PUSH2 0x13CF JUMP JUMPDEST SWAP1 POP PUSH1 0x20 DUP5 ADD MLOAD PUSH1 0x1F NOT DUP5 DUP4 SUB ADD PUSH1 0x40 DUP6 ADD MSTORE PUSH2 0x152E DUP3 DUP3 PUSH2 0x13A3 JUMP JUMPDEST SWAP6 SWAP5 POP POP POP POP POP JUMP JUMPDEST PUSH1 0x0 DUP1 PUSH1 0x0 PUSH1 0x60 DUP5 DUP7 SUB SLT ISZERO PUSH2 0x154C JUMPI PUSH1 0x0 DUP1 REVERT JUMPDEST PUSH2 0x1555 DUP5 PUSH2 0x1346 JUMP JUMPDEST SWAP3 POP PUSH2 0x1563 PUSH1 0x20 DUP6 ADD PUSH2 0x1346 JUMP JUMPDEST SWAP2 POP PUSH2 0x1571 PUSH1 0x40 DUP6 ADD PUSH2 0x1346 JUMP JUMPDEST SWAP1 POP SWAP3 POP SWAP3 POP SWAP3 JUMP JUMPDEST PUSH1 0x20 DUP2 MSTORE PUSH1 0x0 PUSH2 0x1378 PUSH1 0x20 DUP4 ADD DUP5 PUSH2 0x13A3 JUMP JUMPDEST PUSH1 0x0 DUP1 PUSH1 0x40 DUP4 DUP6 SUB SLT ISZERO PUSH2 0x15A0 JUMPI PUSH1 0x0 DUP1 REVERT JUMPDEST POP POP DUP1 CALLDATALOAD SWAP3 PUSH1 0x20 SWAP1 SWAP2 ADD CALLDATALOAD SWAP2 POP JUMP JUMPDEST PUSH4 0x4E487B71 PUSH1 0xE0 SHL PUSH1 0x0 MSTORE PUSH1 0x41 PUSH1 0x4 MSTORE PUSH1 0x24 PUSH1 0x0 REVERT JUMPDEST PUSH1 0x1F DUP3 ADD PUSH1 0x1F NOT AND DUP2 ADD PUSH1 0x1 PUSH1 0x1 PUSH1 0x40 SHL SUB DUP2 GT DUP3 DUP3 LT OR ISZERO PUSH2 0x15EA JUMPI PUSH2 0x15EA PUSH2 0x15AF JUMP JUMPDEST PUSH1 0x40 MSTORE POP POP JUMP JUMPDEST PUSH1 0x0 DUP3 PUSH1 0x1F DUP4 ADD SLT PUSH2 0x1602 JUMPI PUSH1 0x0 DUP1 REVERT JUMPDEST DUP2 CALLDATALOAD PUSH1 0x1 PUSH1 0x1 PUSH1 0x40 SHL SUB DUP2 GT ISZERO PUSH2 0x161B JUMPI PUSH2 0x161B PUSH2 0x15AF JUMP JUMPDEST PUSH1 0x40 MLOAD PUSH2 0x1632 PUSH1 0x1F DUP4 ADD PUSH1 0x1F NOT AND PUSH1 0x20 ADD DUP3 PUSH2 0x15C5 JUMP JUMPDEST DUP2 DUP2 MSTORE DUP5 PUSH1 0x20 DUP4 DUP7 ADD ADD GT ISZERO PUSH2 0x1647 JUMPI PUSH1 0x0 DUP1 REVERT JUMPDEST DUP2 PUSH1 0x20 DUP6 ADD PUSH1 0x20 DUP4 ADD CALLDATACOPY PUSH1 0x0 SWAP2 DUP2 ADD PUSH1 0x20 ADD SWAP2 SWAP1 SWAP2 MSTORE SWAP4 SWAP3 POP POP POP JUMP JUMPDEST DUP1 CALLDATALOAD PUSH1 0x1 PUSH1 0x1 PUSH1 0x40 SHL SUB DUP2 AND DUP2 EQ PUSH2 0xA15 JUMPI PUSH1 0x0 DUP1 REVERT JUMPDEST PUSH1 0x0 DUP1 PUSH1 0x0 DUP1 PUSH1 0x0 PUSH1 0xA0 DUP7 DUP9 SUB SLT ISZERO PUSH2 0x1693 JUMPI PUSH1 0x0 DUP1 REVERT JUMPDEST DUP6 CALLDATALOAD PUSH1 0x1 PUSH1 0x1 PUSH1 0x40 SHL SUB DUP1 DUP3 GT ISZERO PUSH2 0x16AA JUMPI PUSH1 0x0 DUP1 REVERT JUMPDEST PUSH2 0x16B6 DUP10 DUP4 DUP11 ADD PUSH2 0x15F1 JUMP JUMPDEST SWAP7 POP PUSH1 0x20 SWAP2 POP DUP2 DUP9 ADD CALLDATALOAD DUP2 DUP2 GT ISZERO PUSH2 0x16CD JUMPI PUSH1 0x0 DUP1 REVERT JUMPDEST PUSH2 0x16D9 DUP11 DUP3 DUP12 ADD PUSH2 0x15F1 JUMP JUMPDEST SWAP7 POP POP PUSH1 0x40 DUP9 ADD CALLDATALOAD DUP2 DUP2 GT ISZERO PUSH2 0x16EE JUMPI PUSH1 0x0 DUP1 REVERT JUMPDEST PUSH2 0x16FA DUP11 DUP3 DUP12 ADD PUSH2 0x15F1 JUMP JUMPDEST SWAP6 POP POP PUSH1 0x60 DUP9 ADD CALLDATALOAD DUP2 DUP2 GT ISZERO PUSH2 0x170F JUMPI PUSH1 0x0 DUP1 REVERT JUMPDEST DUP9 ADD PUSH1 0x1F DUP2 ADD DUP11 SGT PUSH2 0x1720 JUMPI PUSH1 0x0 DUP1 REVERT JUMPDEST DUP1 CALLDATALOAD DUP3 DUP2 GT ISZERO PUSH2 0x1732 JUMPI PUSH2 0x1732 PUSH2 0x15AF JUMP JUMPDEST DUP1 PUSH1 0x5 SHL SWAP3 POP PUSH1 0x40 MLOAD PUSH2 0x1747 DUP6 DUP6 ADD DUP3 PUSH2 0x15C5 JUMP JUMPDEST DUP2 DUP2 MSTORE SWAP3 DUP3 ADD DUP5 ADD SWAP3 DUP5 DUP2 ADD DUP13 DUP6 GT ISZERO PUSH2 0x1760 JUMPI PUSH1 0x0 DUP1 REVERT JUMPDEST SWAP3 DUP6 ADD SWAP3 JUMPDEST DUP5 DUP5 LT ISZERO PUSH2 0x177C JUMPI DUP4 CALLDATALOAD DUP2 MSTORE SWAP3 DUP6 ADD SWAP3 DUP6 ADD PUSH2 0x1765 JUMP JUMPDEST POP DUP1 SWAP7 POP POP POP POP POP POP PUSH2 0x1791 PUSH1 0x80 DUP8 ADD PUSH2 0x1664 JUMP JUMPDEST SWAP1 POP SWAP3 SWAP6 POP SWAP3 SWAP6 SWAP1 SWAP4 POP JUMP JUMPDEST PUSH1 0x20 DUP1 DUP3 MSTORE PUSH1 0xA SWAP1 DUP3 ADD MSTORE PUSH10 0x37B7363C9037BBB732B9 PUSH1 0xB1 SHL PUSH1 0x40 DUP3 ADD MSTORE PUSH1 0x60 ADD SWAP1 JUMP JUMPDEST PUSH1 0x20 DUP1 DUP3 MSTORE PUSH1 0x21 SWAP1 DUP3 ADD MSTORE PUSH32 0x6F6E6C7920456D61696C2053746F72616765204F776E65722063616E2063616C PUSH1 0x40 DUP3 ADD MSTORE PUSH1 0x1B PUSH1 0xFA SHL PUSH1 0x60 DUP3 ADD MSTORE PUSH1 0x80 ADD SWAP1 JUMP JUMPDEST PUSH1 0x1 DUP2 DUP2 SHR SWAP1 DUP3 AND DUP1 PUSH2 0x1816 JUMPI PUSH1 0x7F DUP3 AND SWAP2 POP JUMPDEST PUSH1 0x20 DUP3 LT DUP2 SUB PUSH2 0x1836 JUMPI PUSH4 0x4E487B71 PUSH1 0xE0 SHL PUSH1 0x0 MSTORE PUSH1 0x22 PUSH1 0x4 MSTORE PUSH1 0x24 PUSH1 0x0 REVERT JUMPDEST POP SWAP2 SWAP1 POP JUMP JUMPDEST PUSH4 0x4E487B71 PUSH1 0xE0 SHL PUSH1 0x0 MSTORE PUSH1 0x32 PUSH1 0x4 MSTORE PUSH1 0x24 PUSH1 0x0 REVERT JUMPDEST PUSH4 0x4E487B71 PUSH1 0xE0 SHL PUSH1 0x0 MSTORE PUSH1 0x11 PUSH1 0x4 MSTORE PUSH1 0x24 PUSH1 0x0 REVERT JUMPDEST PUSH1 0x0 PUSH1 0x1 DUP3 ADD PUSH2 0x187A JUMPI PUSH2 0x187A PUSH2 0x1852 JUMP JUMPDEST POP PUSH1 0x1 ADD SWAP1 JUMP JUMPDEST DUP1 DUP3 ADD DUP1 DUP3 GT ISZERO PUSH2 0xFAD JUMPI PUSH2 0xFAD PUSH2 0x1852 JUMP JUMPDEST DUP2 DUP2 SUB DUP2 DUP2 GT ISZERO PUSH2 0xFAD JUMPI PUSH2 0xFAD PUSH2 0x1852 JUMP JUMPDEST PUSH1 0x1F DUP3 GT ISZERO PUSH2 0x18F1 JUMPI PUSH1 0x0 DUP2 DUP2 MSTORE PUSH1 0x20 DUP2 KECCAK256 PUSH1 0x1F DUP6 ADD PUSH1 0x5 SHR DUP2 ADD PUSH1 0x20 DUP7 LT ISZERO PUSH2 0x18CE JUMPI POP DUP1 JUMPDEST PUSH1 0x1F DUP6 ADD PUSH1 0x5 SHR DUP3 ADD SWAP2 POP JUMPDEST DUP2 DUP2 LT ISZERO PUSH2 0x18ED JUMPI DUP3 DUP2 SSTORE PUSH1 0x1 ADD PUSH2 0x18DA JUMP JUMPDEST POP POP POP JUMPDEST POP POP POP JUMP JUMPDEST DUP2 MLOAD PUSH1 0x1 PUSH1 0x1 PUSH1 0x40 SHL SUB DUP2 GT ISZERO PUSH2 0x190F JUMPI PUSH2 0x190F PUSH2 0x15AF JUMP JUMPDEST PUSH2 0x1923 DUP2 PUSH2 0x191D DUP5 SLOAD PUSH2 0x1802 JUMP JUMPDEST DUP5 PUSH2 0x18A7 JUMP JUMPDEST PUSH1 0x20 DUP1 PUSH1 0x1F DUP4 GT PUSH1 0x1 DUP2 EQ PUSH2 0x1958 JUMPI PUSH1 0x0 DUP5 ISZERO PUSH2 0x1940 JUMPI POP DUP6 DUP4 ADD MLOAD JUMPDEST PUSH1 0x0 NOT PUSH1 0x3 DUP7 SWAP1 SHL SHR NOT AND PUSH1 0x1 DUP6 SWAP1 SHL OR DUP6 SSTORE PUSH2 0x18ED JUMP JUMPDEST PUSH1 0x0 DUP6 DUP2 MSTORE PUSH1 0x20 DUP2 KECCAK256 PUSH1 0x1F NOT DUP7 AND SWAP2 JUMPDEST DUP3 DUP2 LT ISZERO PUSH2 0x1987 JUMPI DUP9 DUP7 ADD MLOAD DUP3 SSTORE SWAP5 DUP5 ADD SWAP5 PUSH1 0x1 SWAP1 SWAP2 ADD SWAP1 DUP5 ADD PUSH2 0x1968 JUMP JUMPDEST POP DUP6 DUP3 LT ISZERO PUSH2 0x19A5 JUMPI DUP8 DUP6 ADD MLOAD PUSH1 0x0 NOT PUSH1 0x3 DUP9 SWAP1 SHL PUSH1 0xF8 AND SHR NOT AND DUP2 SSTORE JUMPDEST POP POP POP POP POP PUSH1 0x1 SWAP1 DUP2 SHL ADD SWAP1 SSTORE POP JUMP JUMPDEST PUSH1 0x0 DUP3 MLOAD PUSH2 0x19C7 DUP2 DUP5 PUSH1 0x20 DUP8 ADD PUSH2 0x137F JUMP JUMPDEST SWAP2 SWAP1 SWAP2 ADD SWAP3 SWAP2 POP POP JUMP JUMPDEST DUP3 DUP2 MSTORE PUSH1 0x40 PUSH1 0x20 DUP3 ADD MSTORE PUSH1 0x0 PUSH2 0x19EA PUSH1 0x40 DUP4 ADD DUP5 PUSH2 0x13A3 JUMP JUMPDEST SWAP5 SWAP4 POP POP POP POP JUMP JUMPDEST PUSH1 0x40 DUP2 MSTORE PUSH1 0x0 DUP4 MLOAD PUSH1 0x40 DUP1 DUP5 ADD MSTORE PUSH2 0x1A0D PUSH1 0x80 DUP5 ADD DUP3 PUSH2 0x13A3 JUMP JUMPDEST SWAP1 POP PUSH1 0x20 DUP6 ADD MLOAD PUSH1 0x3F NOT DUP5 DUP4 SUB ADD PUSH1 0x60 DUP6 ADD MSTORE PUSH2 0x1A2A DUP3 DUP3 PUSH2 0x13A3 JUMP JUMPDEST SWAP3 POP POP POP PUSH1 0x1 DUP1 PUSH1 0xA0 SHL SUB DUP4 AND PUSH1 0x20 DUP4 ADD MSTORE SWAP4 SWAP3 POP POP POP JUMP JUMPDEST PUSH1 0x0 PUSH1 0x20 DUP3 DUP5 SUB SLT ISZERO PUSH2 0x1A55 JUMPI PUSH1 0x0 DUP1 REVERT JUMPDEST DUP2 MLOAD DUP1 ISZERO ISZERO DUP2 EQ PUSH2 0x1378 JUMPI PUSH1 0x0 DUP1 REVERT JUMPDEST PUSH1 0x0 PUSH1 0x3 RETURNDATASIZE GT ISZERO PUSH2 0x666 JUMPI PUSH1 0x4 PUSH1 0x0 DUP1 RETURNDATACOPY POP PUSH1 0x0 MLOAD PUSH1 0xE0 SHR SWAP1 JUMP JUMPDEST PUSH1 0x0 PUSH1 0x44 RETURNDATASIZE LT ISZERO PUSH2 0x1A8E JUMPI SWAP1 JUMP JUMPDEST PUSH1 0x40 MLOAD PUSH1 0x3 NOT RETURNDATASIZE DUP2 ADD PUSH1 0x4 DUP4 RETURNDATACOPY DUP2 MLOAD RETURNDATASIZE PUSH1 0x1 PUSH1 0x1 PUSH1 0x40 SHL SUB DUP1 DUP4 GT PUSH1 0x24 DUP5 ADD DUP4 LT OR ISZERO PUSH2 0x1ABD JUMPI POP POP POP POP POP SWAP1 JUMP JUMPDEST DUP3 DUP6 ADD SWAP2 POP DUP2 MLOAD DUP2 DUP2 GT ISZERO PUSH2 0x1AD5 JUMPI POP POP POP POP POP POP SWAP1 JUMP JUMPDEST DUP5 RETURNDATASIZE DUP8 ADD ADD PUSH1 0x20 DUP3 DUP6 ADD ADD GT ISZERO PUSH2 0x1AEF JUMPI POP POP POP POP POP POP SWAP1 JUMP JUMPDEST PUSH2 0x1AFE PUSH1 0x20 DUP3 DUP7 ADD ADD DUP8 PUSH2 0x15C5 JUMP JUMPDEST POP SWAP1 SWAP6 SWAP5 POP POP POP POP POP JUMP INVALID CREATE 0x21 PUSH10 0x154244D3DB80E8CE9737 PUSH2 0xDF8 0xDB DUP14 0xE5 0xD3 CALLVALUE 0x4F 0x5E DUP16 EXTCODESIZE 0x4B SWAP2 PUSH13 0x4FD8F422A26469706673582212 KECCAK256 0x2A 0xE0 DUP9 ORIGIN 0xC8 DUP2 PUSH17 0x55887CFB3D1A4AC9F571CE12F6C7CE2A46 0x4F PUSH19 0xFB062F0D2C7A64736F6C634300081300330000 "
				},
				"gasEstimates": {
					"creation": {
						"codeDepositCost": "1401400",
						"executionCost": "infinite",
						"totalCost": "infinite"
					},
					"external": {
						"REPO_NOTI_SMC()": "infinite",
						"createEmail(string,string,string,bytes32[],uint64)": "infinite",
						"emailCounter()": "2493",
						"fileSc()": "2381",
						"getAllEmailInfos()": "infinite",
						"getEmail(uint256)": "infinite",
						"getEmailInfos(uint256,uint256)": "infinite",
						"initialize(address,address,address)": "infinite",
						"isOwner(address)": "2520",
						"notiSMC()": "2513",
						"service()": "2557",
						"setFileSMC(address)": "26784",
						"setNotificationSMC(address)": "27026",
						"setService(address)": "26894",
						"setStorageOwner(address)": "26740",
						"storageOwner()": "2403"
					}
				},
				"methodIdentifiers": {
					"REPO_NOTI_SMC()": "d9231a0f",
					"createEmail(string,string,string,bytes32[],uint64)": "ffb45e19",
					"emailCounter()": "d0006777",
					"fileSc()": "56f9f885",
					"getAllEmailInfos()": "93cb1890",
					"getEmail(uint256)": "972fe8bc",
					"getEmailInfos(uint256,uint256)": "e6c3a063",
					"initialize(address,address,address)": "c0c53b8b",
					"isOwner(address)": "2f54bf6e",
					"notiSMC()": "c47964ea",
					"service()": "d598d4c9",
					"setFileSMC(address)": "472c540c",
					"setNotificationSMC(address)": "df9ef753",
					"setService(address)": "bf8bdac1",
					"setStorageOwner(address)": "1f8864ac",
					"storageOwner()": "81fd552f"
				}
			},
			"storageLayout": {
				"storage": [
					{
						"astId": 755,
						"contract": "src/mailStorage.sol:EmailStorage",
						"label": "mIDToEmail",
						"offset": 0,
						"slot": "0",
						"type": "t_mapping(t_uint256,t_struct(Email)281_storage)"
					},
					{
						"astId": 757,
						"contract": "src/mailStorage.sol:EmailStorage",
						"label": "notiSMC",
						"offset": 0,
						"slot": "1",
						"type": "t_address"
					},
					{
						"astId": 759,
						"contract": "src/mailStorage.sol:EmailStorage",
						"label": "service",
						"offset": 0,
						"slot": "2",
						"type": "t_address"
					},
					{
						"astId": 761,
						"contract": "src/mailStorage.sol:EmailStorage",
						"label": "storageOwner",
						"offset": 0,
						"slot": "3",
						"type": "t_address"
					},
					{
						"astId": 763,
						"contract": "src/mailStorage.sol:EmailStorage",
						"label": "fileSc",
						"offset": 0,
						"slot": "4",
						"type": "t_address"
					},
					{
						"astId": 767,
						"contract": "src/mailStorage.sol:EmailStorage",
						"label": "isOwner",
						"offset": 0,
						"slot": "5",
						"type": "t_mapping(t_address,t_bool)"
					},
					{
						"astId": 770,
						"contract": "src/mailStorage.sol:EmailStorage",
						"label": "REPO_NOTI_SMC",
						"offset": 0,
						"slot": "6",
						"type": "t_string_storage"
					},
					{
						"astId": 784,
						"contract": "src/mailStorage.sol:EmailStorage",
						"label": "emailCounter",
						"offset": 0,
						"slot": "7",
						"type": "t_uint256"
					}
				],
				"types": {
					"t_address": {
						"encoding": "inplace",
						"label": "address",
						"numberOfBytes": "20"
					},
					"t_array(t_bytes32)dyn_storage": {
						"base": "t_bytes32",
						"encoding": "dynamic_array",
						"label": "bytes32[]",
						"numberOfBytes": "32"
					},
					"t_bool": {
						"encoding": "inplace",
						"label": "bool",
						"numberOfBytes": "1"
					},
					"t_bytes32": {
						"encoding": "inplace",
						"label": "bytes32",
						"numberOfBytes": "32"
					},
					"t_mapping(t_address,t_bool)": {
						"encoding": "mapping",
						"key": "t_address",
						"label": "mapping(address => bool)",
						"numberOfBytes": "32",
						"value": "t_bool"
					},
					"t_mapping(t_uint256,t_struct(Email)281_storage)": {
						"encoding": "mapping",
						"key": "t_uint256",
						"label": "mapping(uint256 => struct Email)",
						"numberOfBytes": "32",
						"value": "t_struct(Email)281_storage"
					},
					"t_string_storage": {
						"encoding": "bytes",
						"label": "string",
						"numberOfBytes": "32"
					},
					"t_struct(Email)281_storage": {
						"encoding": "inplace",
						"label": "struct Email",
						"members": [
							{
								"astId": 278,
								"contract": "src/mailStorage.sol:EmailStorage",
								"label": "info",
								"offset": 0,
								"slot": "0",
								"type": "t_struct(EmailInfo)275_storage"
							},
							{
								"astId": 280,
								"contract": "src/mailStorage.sol:EmailStorage",
								"label": "body",
								"offset": 0,
								"slot": "5",
								"type": "t_string_storage"
							}
						],
						"numberOfBytes": "192"
					},
					"t_struct(EmailInfo)275_storage": {
						"encoding": "inplace",
						"label": "struct EmailInfo",
						"members": [
							{
								"astId": 263,
								"contract": "src/mailStorage.sol:EmailStorage",
								"label": "subject",
								"offset": 0,
								"slot": "0",
								"type": "t_string_storage"
							},
							{
								"astId": 265,
								"contract": "src/mailStorage.sol:EmailStorage",
								"label": "from",
								"offset": 0,
								"slot": "1",
								"type": "t_string_storage"
							},
							{
								"astId": 267,
								"contract": "src/mailStorage.sol:EmailStorage",
								"label": "createdAt",
								"offset": 0,
								"slot": "2",
								"type": "t_uint64"
							},
							{
								"astId": 269,
								"contract": "src/mailStorage.sol:EmailStorage",
								"label": "isRead",
								"offset": 8,
								"slot": "2",
								"type": "t_uint8"
							},
							{
								"astId": 272,
								"contract": "src/mailStorage.sol:EmailStorage",
								"label": "fileKeys",
								"offset": 0,
								"slot": "3",
								"type": "t_array(t_bytes32)dyn_storage"
							},
							{
								"astId": 274,
								"contract": "src/mailStorage.sol:EmailStorage",
								"label": "discription",
								"offset": 0,
								"slot": "4",
								"type": "t_string_storage"
							}
						],
						"numberOfBytes": "160"
					},
					"t_uint256": {
						"encoding": "inplace",
						"label": "uint256",
						"numberOfBytes": "32"
					},
					"t_uint64": {
						"encoding": "inplace",
						"label": "uint64",
						"numberOfBytes": "8"
					},
					"t_uint8": {
						"encoding": "inplace",
						"label": "uint8",
						"numberOfBytes": "1"
					}
				}
			},
			"userdoc": {
				"kind": "user",
				"methods": {},
				"version": 1
			}
		}
	}
}